{
  "transactions": [
    {
      "hash": "0x9641ee03018a3142e7c0d37b05ae7446dba97b61b7bb28357dd48191191f94dc",
      "transactionType": "CREATE",
      "contractName": "ExactBridger",
      "contractAddress": "0x0be19c78706c441de4178a2266a650e47160eda7",
      "function": null,
      "arguments": null,
      "transaction": {
        "from": "0xd289d1387ae1033a703842d69501d5bec5a6f04e",
        "value": "0x0",
        "input": "0x60808060405234601557610521908161001a8239f35b5f80fdfe608080604052600436101561001c575b50361561001a575f80fd5b005b5f3560e01c9081631fce5d1114610478575080632267cb0814610450578063463d1fca146104335780637f8945821461035557806384def41c1461033c57806389c905d21461031f578063a678341d14610302578063b14d361d146100ac5763ff7b2edd1461008b575f61000f565b346100a8575f3660031901126100a8576020600654604051908152f35b5f80fd5b60a03660031901126100a8576004356001600160a01b038116908190036100a8576044356001600160a01b03811691602435918390036100a8576084359267ffffffffffffffff84116100a857366023850112156100a85783600401359167ffffffffffffffff83116100a85736602484870101116100a8576bffffffffffffffffffffffff60a01b5f5416175f55826001556bffffffffffffffffffffffff60a01b600254161760025560643560035561016860045461049a565b601f811161029a575b505f601f8211600114610227578192935f92610219575b50508160011b915f199060031b1c1916176004555b34600555600654806101b5575b602082604051908152f35b5f80808093335af13d15610214573d67ffffffffffffffff811161020057604051906101eb601f8201601f1916602001836104d2565b81525f60203d92013e5b156100a857816101aa565b634e487b7160e01b5f52604160045260245ffd5b6101f5565b602492500101358380610188565b601f1982169360045f525f5160206104f55f395f51905f52915f5b86811061027f5750836001959610610263575b505050811b0160045561019d565b01602401355f19600384901b60f8161c19169055838080610255565b90926020600181926024878701013581550194019101610242565b60045f52601f820160051c5f5160206104f55f395f51905f520190602083106102ed575b601f0160051c5f5160206104f55f395f51905f5201905b8181106102e25750610171565b5f81556001016102d5565b5f5160206104f55f395f51905f5291506102be565b346100a8575f3660031901126100a8576020600354604051908152f35b346100a8575f3660031901126100a8576020600154604051908152f35b346100a85760203660031901126100a857600435600655005b346100a8575f3660031901126100a857604051600454905f6103768361049a565b80835260208301936001811690811561041857506001146103cd575b50906103a28160409303826104d2565b8151928391602083525180918160208501528484015e5f828201840152601f01601f19168101030190f35b91905060045f525f5160206104f55f395f51905f52915f905b8082106103fe575090915081016020016103a2610392565b9192600181602092548385880101520191019092916103e6565b60ff1916855250151560051b820160200190506103a2610392565b346100a8575f3660031901126100a8576020600554604051908152f35b346100a8575f3660031901126100a8576002546040516001600160a01b039091168152602090f35b346100a8575f3660031901126100a8575f546001600160a01b03168152602090f35b90600182811c921680156104c8575b60208310146104b457565b634e487b7160e01b5f52602260045260245ffd5b91607f16916104a9565b90601f8019910116810190811067ffffffffffffffff8211176102005760405256fe8a35acfbc15ff81a39ae7d344fd709f28e8600b4aa8c65c6b64bfe7fe36bd19ba164736f6c634300081b000a",
        "nonce": "0xc",
        "chainId": "0x6f"
      },
      "additionalContracts": [],
      "isFixedGasLimit": false
    },
    {
      "hash": "0x5dff21b1310551aebb70c2ceb7eb2a860e457bb41c7ef6fa3224956ff919324a",
      "transactionType": "CALL",
      "contractName": null,
      "contractAddress": "0x8828fd7431d5bb1962d7e067c103b2324fa6bbec",
      "function": "setBridgers(address,address)",
      "arguments": [
        "0x0bE19C78706c441dE4178a2266a650E47160Eda7",
        "0x0bE19C78706c441dE4178a2266a650E47160Eda7"
      ],
      "transaction": {
        "from": "0xd289d1387ae1033a703842d69501d5bec5a6f04e",
        "to": "0x8828fd7431d5bb1962d7e067c103b2324fa6bbec",
        "value": "0x0",
        "input": "0x2b0f3ee40000000000000000000000000be19c78706c441de4178a2266a650e47160eda70000000000000000000000000be19c78706c441de4178a2266a650e47160eda7",
        "nonce": "0xd",
        "chainId": "0x6f"
      },
      "additionalContracts": [],
      "isFixedGasLimit": false
    },
    {
      "hash": "0x0683791d8c580fe05e947e5fc3f38a502d06668756665d3692d8f46476c347fa",
      "transactionType": "CREATE",
      "contractName": "MockQuoter",
      "contractAddress": "0x481e836be187303c64f269bc7fe2c52f7f7c6eef",
      "function": null,
      "arguments": null,
      "transaction": {
        "from": "0xd289d1387ae1033a703842d69501d5bec5a6f04e",
        "value": "0x0",
        "input": "0x6080806040523460155761015b908161001a8239f35b5f80fdfe6080806040526004361015610012575f80fd5b5f3560e01c90816346ee8d001461010957508063520b9355146100c15780636813d78714610091578063d3072d821461006f5763e21a560214610053575f80fd5b3461006b57602036600319011261006b576004355f55005b5f80fd5b3461006b575f36600319011261006b57602060ff600154166040519015158152f35b3461006b57602036600319011261006b5760043580151580910361006b5760ff8019600154169116176001555f80f35b3461006b57608036600319011261006b576100da610122565b506100e3610138565b5060ff600154166100fa5760205f54604051908152f35b631f6b7cef60e11b5f5260045ffd5b3461006b575f36600319011261006b576020905f548152f35b600435906001600160a01b038216820361006b57565b602435906001600160a01b038216820361006b5756fea164736f6c634300081b000a",
        "nonce": "0xe",
        "chainId": "0x6f"
      },
      "additionalContracts": [],
      "isFixedGasLimit": false
    },
    {
      "hash": "0x5442cb8cd2818da051a292177af933a42052362d1c40030812b4acf29bd49b9e",
      "transactionType": "CALL",
      "contractName": "MockQuoter",
      "contractAddress": "0x481e836be187303c64f269bc7fe2c52f7f7c6eef",
      "function": "setAmountOut(uint256)",
      "arguments": [
        "90000000"
      ],
      "transaction": {
        "from": "0xd289d1387ae1033a703842d69501d5bec5a6f04e",
        "to": "0x481e836be187303c64f269bc7fe2c52f7f7c6eef",
        "value": "0x0",
        "input": "0xe21a560200000000000000000000000000000000000000000000000000000000055d4a80",
        "nonce": "0xf",
        "chainId": "0x6f"
      },
      "additionalContracts": [],
      "isFixedGasLimit": false
    },
    {
      "hash": "0x8070a422200e1dbd8d5a1a9099941348b15ef7a124b2908c74084764599671c8",
      "transactionType": "CALL",
      "contractName": null,
      "contractAddress": "0x8828fd7431d5bb1962d7e067c103b2324fa6bbec",
      "function": "setQuoter(address,address)",
      "arguments": [
        "0x4D4aDEc97e3e11693F65dEDC2D1e6Bec784eB2F1",
        "0x481e836bE187303c64F269Bc7fe2C52F7f7c6eEf"
      ],
      "transaction": {
        "from": "0xd289d1387ae1033a703842d69501d5bec5a6f04e",
        "to": "0x8828fd7431d5bb1962d7e067c103b2324fa6bbec",
        "value": "0x0",
        "input": "0x6264257a0000000000000000000000004d4adec97e3e11693f65dedc2d1e6bec784eb2f1000000000000000000000000481e836be187303c64f269bc7fe2c52f7f7c6eef",
        "nonce": "0x10",
        "chainId": "0x6f"
      },
      "additionalContracts": [],
      "isFixedGasLimit": false
    },
    {
      "hash": "0xd0fa060e851badf79c4d2e11fd36f93fbec136506b91f7bdf8306f30af0f8960",
      "transactionType": "CALL",
      "contractName": null,
      "contractAddress": "0x048255dfef2ebfa7307058ae475a3e2f5ee0df46",
      "function": "setRecommendedIntentFee(uint256,uint256)",
      "arguments": [
        "10000",
        "123"
      ],
      "transaction": {
        "from": "0xd289d1387ae1033a703842d69501d5bec5a6f04e",
        "to": "0x048255dfef2ebfa7307058ae475a3e2f5ee0df46",
        "value": "0x0",
        "input": "0xf2af970b0000000000000000000000000000000000000000000000000000000000002710000000000000000000000000000000000000000000000000000000000000007b",
        "nonce": "0x11",
        "chainId": "0x6f"
      },
      "additionalContracts": [],
      "isFixedGasLimit": false
    },
    {
      "hash": "0xfef75832b829aac2e6452ba53f4a9ba013d943049a463a6b53d6e34ac7b415e4",
      "transactionType": "CREATE",
      "contractName": "MockQuoter",
      "contractAddress": "0x6b0f32ae157cf4f7d9b402c4e243e9088207dd87",
      "function": null,
      "arguments": null,
      "transaction": {
        "from": "0xd289d1387ae1033a703842d69501d5bec5a6f04e",
        "value": "0x0",
        "input": "0x6080806040523460155761015b908161001a8239f35b5f80fdfe6080806040526004361015610012575f80fd5b5f3560e01c90816346ee8d001461010957508063520b9355146100c15780636813d78714610091578063d3072d821461006f5763e21a560214610053575f80fd5b3461006b57602036600319011261006b576004355f55005b5f80fd5b3461006b575f36600319011261006b57602060ff600154166040519015158152f35b3461006b57602036600319011261006b5760043580151580910361006b5760ff8019600154169116176001555f80f35b3461006b57608036600319011261006b576100da610122565b506100e3610138565b5060ff600154166100fa5760205f54604051908152f35b631f6b7cef60e11b5f5260045ffd5b3461006b575f36600319011261006b576020905f548152f35b600435906001600160a01b038216820361006b57565b602435906001600160a01b038216820361006b5756fea164736f6c634300081b000a",
        "nonce": "0x12",
        "chainId": "0x6f"
      },
      "additionalContracts": [],
      "isFixedGasLimit": false
    },
    {
      "hash": "0x52a5b66a31ca101099f01ce93ad3ffff416805838b30081bcfa839b252bed4c0",
      "transactionType": "CALL",
      "contractName": "MockQuoter",
      "contractAddress": "0x6b0f32ae157cf4f7d9b402c4e243e9088207dd87",
      "function": "setAmountOut(uint256)",
      "arguments": [
        "90000000"
      ],
      "transaction": {
        "from": "0xd289d1387ae1033a703842d69501d5bec5a6f04e",
        "to": "0x6b0f32ae157cf4f7d9b402c4e243e9088207dd87",
        "value": "0x0",
        "input": "0xe21a560200000000000000000000000000000000000000000000000000000000055d4a80",
        "nonce": "0x13",
        "chainId": "0x6f"
      },
      "additionalContracts": [],
      "isFixedGasLimit": false
    },
    {
      "hash": "0xd22176e8ccd207a296ae7f951f4d5aca52ce6df4d466a5cf64fc80978b22b71e",
      "transactionType": "CALL",
      "contractName": null,
      "contractAddress": "0x8828fd7431d5bb1962d7e067c103b2324fa6bbec",
      "function": "setQuoter(address,address)",
      "arguments": [
        "0x4D4aDEc97e3e11693F65dEDC2D1e6Bec784eB2F1",
        "0x6b0f32ae157CF4F7d9B402c4e243E9088207dD87"
      ],
      "transaction": {
        "from": "0xd289d1387ae1033a703842d69501d5bec5a6f04e",
        "to": "0x8828fd7431d5bb1962d7e067c103b2324fa6bbec",
        "value": "0x0",
        "input": "0x6264257a0000000000000000000000004d4adec97e3e11693f65dedc2d1e6bec784eb2f10000000000000000000000006b0f32ae157cf4f7d9b402c4e243e9088207dd87",
        "nonce": "0x14",
        "chainId": "0x6f"
      },
      "additionalContracts": [],
      "isFixedGasLimit": false
    },
    {
      "hash": "0x0cbf907f623c63537dbd7aa5982b4f17aeadb123eb8f16e7137f38ff384e6ea7",
      "transactionType": "CREATE",
      "contractName": "MockTransportBridger",
      "contractAddress": "0xc5ea444a0f556f5b227ec7447294d91086bb692c",
      "function": null,
      "arguments": null,
      "transaction": {
        "from": "0xd289d1387ae1033a703842d69501d5bec5a6f04e",
        "value": "0x0",
        "input": "0x60808060405234601557610507908161001a8239f35b5f80fdfe6080806040526004361015610012575f80fd5b5f905f3560e01c9081632c368377146103fd5750806347799da8146102d45763b14d361d1461003f575f80fd5b60a03660031901126102d1576004356001600160a01b038116908190036102cf576044356001600160a01b03811691602435918390036102cb576084359267ffffffffffffffff84116102c757366023850112156102c75783600401359067ffffffffffffffff82116102c35736602483870101116102c3576040519260c0840184811067ffffffffffffffff8211176102af5760405283526020830184815260408401918252866020606086019460643586528060246040519a61010d85601f19601f860116018d6104c4565b828c5201838b0137880101526080840186905260a08401878152935187546001600160a01b039182166001600160a01b0319918216178955915160015591516002805491909316911617905551600355825167ffffffffffffffff811161029b5761017960045461048c565b601f8111610238575b5060209485906001601f8411146101d7579482939495926101cc575b50508160011b915f199060031b1c1916176004555b51151560ff801960055416911617600555604051908152f35b015190505f8061019e565b90601f1983169560048352818320925b878110610221575083600195969710610209575b505050811b016004556101b3565b01515f1960f88460031b161c191690555f80806101fb565b9192886001819286850151815501940192016101e7565b600486527f8a35acfbc15ff81a39ae7d344fd709f28e8600b4aa8c65c6b64bfe7fe36bd19b601f830160051c81019160208410610291575b601f0160051c01905b8181106102865750610182565b868155600101610279565b9091508190610270565b634e487b7160e01b85526041600452602485fd5b634e487b7160e01b88526041600452602488fd5b8580fd5b8480fd5b8380fd5b505b80fd5b50346102d157806003193601126102d157805460015460025460035460405160045493946001600160a01b03908116949316918691906103138561048c565b8083526020830195600181169081156103e2575060011461038c575b5061033f8260e0989903836104c4565b60ff6005541693604051988997885260208801526040870152606086015260c060808601525180938160c08701528686015e838301850152151560a0830152601f01601f19168101030190f35b600484529750827f8a35acfbc15ff81a39ae7d344fd709f28e8600b4aa8c65c6b64bfe7fe36bd19b5b8982106103cc57508201602001975061033f61032f565b60018160209254838588010152019101906103b5565b60ff1916875250151560051b8201602001975061033f61032f565b905034610488575f3660031901126104885760055460ff81166104885760ff191660019081176005555f546002549154916001600160a01b039081169116803b1561048857835f604492819583956340c10f1960e01b8552600485015260248401525af1801561047d5761046f575080f35b61047b91505f906104c4565b005b6040513d5f823e3d90fd5b5f80fd5b90600182811c921680156104ba575b60208310146104a657565b634e487b7160e01b5f52602260045260245ffd5b91607f169161049b565b90601f8019910116810190811067ffffffffffffffff8211176104e657604052565b634e487b7160e01b5f52604160045260245ffdfea164736f6c634300081b000a",
        "nonce": "0x15",
        "chainId": "0x6f"
      },
      "additionalContracts": [],
      "isFixedGasLimit": false
    },
    {
      "hash": "0x513c988ae0f0a9d492aa9892b44ecb80d51d6f5440660b7c21ac40ebabac0706",
      "transactionType": "CALL",
      "contractName": null,
      "contractAddress": "0x8828fd7431d5bb1962d7e067c103b2324fa6bbec",
      "function": "setBridgers(address,address)",
      "arguments": [
        "0xC5EA444a0F556f5B227ec7447294d91086BB692c",
        "0xC5EA444a0F556f5B227ec7447294d91086BB692c"
      ],
      "transaction": {
        "from": "0xd289d1387ae1033a703842d69501d5bec5a6f04e",
        "to": "0x8828fd7431d5bb1962d7e067c103b2324fa6bbec",
        "value": "0x0",
        "input": "0x2b0f3ee4000000000000000000000000c5ea444a0f556f5b227ec7447294d91086bb692c000000000000000000000000c5ea444a0f556f5b227ec7447294d91086bb692c",
        "nonce": "0x16",
        "chainId": "0x6f"
      },
      "additionalContracts": [],
      "isFixedGasLimit": false
    },
    {
      "hash": "0xed9ff6741db10b3045ced5a8c60ac486d1a21c494a4d492898e20dab57c564ef",
      "transactionType": "CALL",
      "contractName": null,
      "contractAddress": "0x4d4adec97e3e11693f65dedc2d1e6bec784eb2f1",
      "function": "mint(address,uint256)",
      "arguments": [
        "0x2023A9aE4D68FEA5B1Bef01F207b249c9f2cECBf",
        "123000000"
      ],
      "transaction": {
        "from": "0xd289d1387ae1033a703842d69501d5bec5a6f04e",
        "to": "0x4d4adec97e3e11693f65dedc2d1e6bec784eb2f1",
        "value": "0x0",
        "input": "0x40c10f190000000000000000000000002023a9ae4d68fea5b1bef01f207b249c9f2cecbf000000000000000000000000000000000000000000000000000000000754d4c0",
        "nonce": "0x17",
        "chainId": "0x6f"
      },
      "additionalContracts": [],
      "isFixedGasLimit": false
    },
    {
      "hash": "0x7c502ac501942dd735dc0196df91cdd500c49f19f4e20e4085b732afdc2226c7",
      "transactionType": "CALL",
      "contractName": null,
      "contractAddress": "0x8828fd7431d5bb1962d7e067c103b2324fa6bbec",
      "function": "pullFromReceiver((uint256,address,bool,bytes32,bytes32,uint256,address,address,(address,uint256,bytes)[],bytes))",
      "arguments": [
        "(111, 0xD59d27B9172aD056Cb5C008Dc2BbEFe702123A55, false, 0x0000000000000000000000000000000000000000000000000000000000000000, 0x0000000000000000000000000000000000000000000000000000000000000001, 0, 0x4D4aDEc97e3e11693F65dEDC2D1e6Bec784eB2F1, 0x4D4aDEc97e3e11693F65dEDC2D1e6Bec784eB2F1, [], 0x)"
      ],
      "transaction": {
        "from": "0xd289d1387ae1033a703842d69501d5bec5a6f04e",
        "to": "0x8828fd7431d5bb1962d7e067c103b2324fa6bbec",
        "value": "0x0",
        "input": "0x1ad1087b0000000000000000000000000000000000000000000000000000000000000020000000000000000000000000000000000000000000000000000000000000006f000000000000000000000000d59d27b9172ad056cb5c008dc2bbefe702123a5500000000000000000000000000000000000000000000000000000000000000000000000000000000000000000000000000000000000000000000000000000000000000000000000000000000000000000000000000000000000000000000000100000000000000000000000000000000000000000000000000000000000000000000000000000000000000004d4adec97e3e11693f65dedc2d1e6bec784eb2f10000000000000000000000004d4adec97e3e11693f65dedc2d1e6bec784eb2f10000000000000000000000000000000000000000000000000000000000000140000000000000000000000000000000000000000000000000000000000000016000000000000000000000000000000000000000000000000000000000000000000000000000000000000000000000000000000000000000000000000000000000",
        "nonce": "0x18",
        "chainId": "0x6f"
      },
      "additionalContracts": [],
      "isFixedGasLimit": false
    },
    {
      "hash": "0x36d01de7490a4bb86e8cf80cb286ddabd66ba87a04de7c38e917290146251b60",
      "transactionType": "CALL",
      "contractName": null,
      "contractAddress": "0x4d4adec97e3e11693f65dedc2d1e6bec784eb2f1",
      "function": "mint(address,uint256)",
      "arguments": [
        "0x2023A9aE4D68FEA5B1Bef01F207b249c9f2cECBf",
        "100000000"
      ],
      "transaction": {
        "from": "0xd289d1387ae1033a703842d69501d5bec5a6f04e",
        "to": "0x4d4adec97e3e11693f65dedc2d1e6bec784eb2f1",
        "value": "0x0",
        "input": "0x40c10f190000000000000000000000002023a9ae4d68fea5b1bef01f207b249c9f2cecbf0000000000000000000000000000000000000000000000000000000005f5e100",
        "nonce": "0x19",
        "chainId": "0x6f"
      },
      "additionalContracts": [],
      "isFixedGasLimit": false
    },
    {
      "hash": "0xaedae0178498b2a31bbe450105e800c9fe3ec7f30955749b5cdc3c7afe91bcbf",
      "transactionType": "CALL",
      "contractName": null,
      "contractAddress": "0x8828fd7431d5bb1962d7e067c103b2324fa6bbec",
      "function": "pullFromReceiver((uint256,address,bool,bytes32,bytes32,uint256,address,address,(address,uint256,bytes)[],bytes))",
      "arguments": [
        "(111, 0xD59d27B9172aD056Cb5C008Dc2BbEFe702123A55, false, 0x0000000000000000000000000000000000000000000000000000000000000000, 0x0000000000000000000000000000000000000000000000000000000000000002, 0, 0x4D4aDEc97e3e11693F65dEDC2D1e6Bec784eB2F1, 0xF86C23C1E883ee3B820FB9BE75FF91C9A49EaE75, [(0xF86C23C1E883ee3B820FB9BE75FF91C9A49EaE75, 0, 0x40c10f190000000000000000000000009feb94832da4e52a75a18e6310640cc2cb702ffe0000000000000000000000000000000000000000000000000000000005f5e100)], 0x)"
      ],
      "transaction": {
        "from": "0xd289d1387ae1033a703842d69501d5bec5a6f04e",
        "to": "0x8828fd7431d5bb1962d7e067c103b2324fa6bbec",
        "value": "0x0",
        "input": "0x1ad1087b0000000000000000000000000000000000000000000000000000000000000020000000000000000000000000000000000000000000000000000000000000006f000000000000000000000000d59d27b9172ad056cb5c008dc2bbefe702123a5500000000000000000000000000000000000000000000000000000000000000000000000000000000000000000000000000000000000000000000000000000000000000000000000000000000000000000000000000000000000000000000000200000000000000000000000000000000000000000000000000000000000000000000000000000000000000004d4adec97e3e11693f65dedc2d1e6bec784eb2f1000000000000000000000000f86c23c1e883ee3b820fb9be75ff91c9a49eae750000000000000000000000000000000000000000000000000000000000000140000000000000000000000000000000000000000000000000000000000000026000000000000000000000000000000000000000000000000000000000000000010000000000000000000000000000000000000000000000000000000000000020000000000000000000000000f86c23c1e883ee3b820fb9be75ff91c9a49eae7500000000000000000000000000000000000000000000000000000000000000000000000000000000000000000000000000000000000000000000000000000060000000000000000000000000000000000000000000000000000000000000004440c10f190000000000000000000000009feb94832da4e52a75a18e6310640cc2cb702ffe0000000000000000000000000000000000000000000000000000000005f5e100000000000000000000000000000000000000000000000000000000000000000000000000000000000000000000000000000000000000000000000000",
        "nonce": "0x1a",
        "chainId": "0x6f"
      },
      "additionalContracts": [],
      "isFixedGasLimit": false
    },
    {
      "hash": "0x673bfefe6dd9f3d7d5ccd91876f25c4f64567d358831d72e246a1f258d337556",
      "transactionType": "CALL",
      "contractName": null,
      "contractAddress": "0xf86c23c1e883ee3b820fb9be75ff91c9a49eae75",
      "function": "mint(address,uint256)",
      "arguments": [
        "0xD289D1387ae1033A703842D69501D5bEc5A6f04e",
        "5000000"
      ],
      "transaction": {
        "from": "0xd289d1387ae1033a703842d69501d5bec5a6f04e",
        "to": "0xf86c23c1e883ee3b820fb9be75ff91c9a49eae75",
        "value": "0x0",
        "input": "0x40c10f19000000000000000000000000d289d1387ae1033a703842d69501d5bec5a6f04e00000000000000000000000000000000000000000000000000000000004c4b40",
        "nonce": "0x1b",
        "chainId": "0x6f"
      },
      "additionalContracts": [],
      "isFixedGasLimit": false
    },
    {
      "hash": "0x1193618ca7c4b0908d28701f918a6c723fe1f7d16a10b1871df5bce92b307e0e",
      "transactionType": "CALL",
      "contractName": null,
      "contractAddress": "0xf86c23c1e883ee3b820fb9be75ff91c9a49eae75",
      "function": "approve(address,uint256)",
      "arguments": [
        "0x048255dfEF2eBFA7307058Ae475a3e2F5ee0df46",
        "115792089237316195423570985008687907853269984665640564039457584007913129639935"
      ],
      "transaction": {
        "from": "0xd289d1387ae1033a703842d69501d5bec5a6f04e",
        "to": "0xf86c23c1e883ee3b820fb9be75ff91c9a49eae75",
        "value": "0x0",
        "input": "0x095ea7b3000000000000000000000000048255dfef2ebfa7307058ae475a3e2f5ee0df46ffffffffffffffffffffffffffffffffffffffffffffffffffffffffffffffff",
        "nonce": "0x1c",
        "chainId": "0x6f"
      },
      "additionalContracts": [],
      "isFixedGasLimit": false
    },
    {
      "hash": "0x77cf630a786c6fa94d68d97717ca43cddf2e9859986d9cf3a51898b7f956cd62",
      "transactionType": "CALL",
      "contractName": null,
      "contractAddress": "0x048255dfef2ebfa7307058ae475a3e2f5ee0df46",
      "function": "createIntent((uint8,bytes,address,address,uint256),uint256)",
      "arguments": [
        "(0, 0x00000000000000000000000000000000000000000000000000000000000000200000000000000000000000002db97a32d5ce8d79f7b7fdc607584a7a35da5e0d00000000000000000000000000000000000000000000000000000000000000400000000000000000000000000000000000000000000000000000000000000002abcd000000000000000000000000000000000000000000000000000000000000, 0xD289D1387ae1033A703842D69501D5bEc5A6f04e, 0xF86C23C1E883ee3B820FB9BE75FF91C9A49EaE75, 5000000)",
        "1768320755"
      ],
      "transaction": {
        "from": "0xd289d1387ae1033a703842d69501d5bec5a6f04e",
        "to": "0x048255dfef2ebfa7307058ae475a3e2f5ee0df46",
        "value": "0x0",
        "input": "0x549f750500000000000000000000000000000000000000000000000000000000000000400000000000000000000000000000000000000000000000000000000069666ef3000000000000000000000000000000000000000000000000000000000000000000000000000000000000000000000000000000000000000000000000000000a0000000000000000000000000d289d1387ae1033a703842d69501d5bec5a6f04e000000000000000000000000f86c23c1e883ee3b820fb9be75ff91c9a49eae7500000000000000000000000000000000000000000000000000000000004c4b4000000000000000000000000000000000000000000000000000000000000000a000000000000000000000000000000000000000000000000000000000000000200000000000000000000000002db97a32d5ce8d79f7b7fdc607584a7a35da5e0d00000000000000000000000000000000000000000000000000000000000000400000000000000000000000000000000000000000000000000000000000000002abcd000000000000000000000000000000000000000000000000000000000000",
        "nonce": "0x1d",
        "chainId": "0x6f"
      },
      "additionalContracts": [],
      "isFixedGasLimit": false
    },
    {
      "hash": "0x05c2317c0bed7f97c38ae0b6aa48987e4d1c267ba584761ea2ba850fb1afe1f8",
      "transactionType": "CALL",
      "contractName": null,
      "contractAddress": "0x4d4adec97e3e11693f65dedc2d1e6bec784eb2f1",
      "function": "mint(address,uint256)",
      "arguments": [
        "0xD289D1387ae1033A703842D69501D5bEc5A6f04e",
        "1000000"
      ],
      "transaction": {
        "from": "0xd289d1387ae1033a703842d69501d5bec5a6f04e",
        "to": "0x4d4adec97e3e11693f65dedc2d1e6bec784eb2f1",
        "value": "0x0",
        "input": "0x40c10f19000000000000000000000000d289d1387ae1033a703842d69501d5bec5a6f04e00000000000000000000000000000000000000000000000000000000000f4240",
        "nonce": "0x1e",
        "chainId": "0x6f"
      },
      "additionalContracts": [],
      "isFixedGasLimit": false
    },
    {
      "hash": "0x6e9d34b314c8968de06008f1c77284b05427bc4f4fbcbe14eea5cd6f91441a9f",
      "transactionType": "CALL",
      "contractName": null,
      "contractAddress": "0x4d4adec97e3e11693f65dedc2d1e6bec784eb2f1",
      "function": "approve(address,uint256)",
      "arguments": [
        "0x048255dfEF2eBFA7307058Ae475a3e2F5ee0df46",
        "115792089237316195423570985008687907853269984665640564039457584007913129639935"
      ],
      "transaction": {
        "from": "0xd289d1387ae1033a703842d69501d5bec5a6f04e",
        "to": "0x4d4adec97e3e11693f65dedc2d1e6bec784eb2f1",
        "value": "0x0",
        "input": "0x095ea7b3000000000000000000000000048255dfef2ebfa7307058ae475a3e2f5ee0df46ffffffffffffffffffffffffffffffffffffffffffffffffffffffffffffffff",
        "nonce": "0x1f",
        "chainId": "0x6f"
      },
      "additionalContracts": [],
      "isFixedGasLimit": false
    },
    {
      "hash": "0x0884498f805f1c6766079fef76b6173a61d21a5c85512c471c289ed216d8afe8",
      "transactionType": "CALL",
      "contractName": null,
      "contractAddress": "0x048255dfef2ebfa7307058ae475a3e2f5ee0df46",
      "function": "claimIntent(bytes32)",
      "arguments": [
        "0x0990167faf6c9b4facf6d48fd977041d51cc04bdc7f140737f4cf38ae3cef465"
      ],
      "transaction": {
        "from": "0xd289d1387ae1033a703842d69501d5bec5a6f04e",
        "to": "0x048255dfef2ebfa7307058ae475a3e2f5ee0df46",
        "value": "0x0",
        "input": "0x40e624cb0990167faf6c9b4facf6d48fd977041d51cc04bdc7f140737f4cf38ae3cef465",
        "nonce": "0x20",
        "chainId": "0x6f"
      },
      "additionalContracts": [],
      "isFixedGasLimit": false
    },
    {
      "hash": "0x595680c106d52df9f0bf9c3c73426e9007f0bb5985b65f9337516ed69ef1b049",
      "transactionType": "CALL",
      "contractName": null,
      "contractAddress": "0x8c16d2f19a034b7281254f5656c2d1461c6ceb9a",
      "function": "setTx((bytes32,uint256,uint32,bytes21,bytes21,bytes))",
      "arguments": [
        "(0x0000000000000000000000000000000000000000000000000000000000000000, 0, 0, 0x000000000000000000000000000000000000000000, 0x412db97a32d5ce8d79f7b7fdc607584a7a35da5e0d, 0xabcd)"
      ],
      "transaction": {
        "from": "0xd289d1387ae1033a703842d69501d5bec5a6f04e",
        "to": "0x8c16d2f19a034b7281254f5656c2d1461c6ceb9a",
        "value": "0x0",
        "input": "0x3aec07de00000000000000000000000000000000000000000000000000000000000000200000000000000000000000000000000000000000000000000000000000000000000000000000000000000000000000000000000000000000000000000000000000000000000000000000000000000000000000000000000000000000000000000000000000000000000000000000000000000000000000000000000000000000412db97a32d5ce8d79f7b7fdc607584a7a35da5e0d000000000000000000000000000000000000000000000000000000000000000000000000000000000000c00000000000000000000000000000000000000000000000000000000000000002abcd000000000000000000000000000000000000000000000000000000000000",
        "nonce": "0x21",
        "chainId": "0x6f"
      },
      "additionalContracts": [],
      "isFixedGasLimit": false
    },
    {
      "hash": "0x852e7357de387014c3e3d8761ede7aa2b75fd21a731fe34ff299a97acf17136b",
      "transactionType": "CALL",
      "contractName": null,
      "contractAddress": "0x048255dfef2ebfa7307058ae475a3e2f5ee0df46",
      "function": "proveIntentFill(bytes32,bytes[20],bytes,bytes32[],uint256)",
      "arguments": [
        "0x0990167faf6c9b4facf6d48fd977041d51cc04bdc7f140737f4cf38ae3cef465",
        "[0x, 0x, 0x, 0x, 0x, 0x, 0x, 0x, 0x, 0x, 0x, 0x, 0x, 0x, 0x, 0x, 0x, 0x, 0x, 0x]",
        "0x",
        "[]",
        "0"
      ],
      "transaction": {
        "from": "0xd289d1387ae1033a703842d69501d5bec5a6f04e",
        "to": "0x048255dfef2ebfa7307058ae475a3e2f5ee0df46",
        "value": "0x0",
        "input": "0x5c23cc020990167faf6c9b4facf6d48fd977041d51cc04bdc7f140737f4cf38ae3cef46500000000000000000000000000000000000000000000000000000000000000a000000000000000000000000000000000000000000000000000000000000005a000000000000000000000000000000000000000000000000000000000000005c00000000000000000000000000000000000000000000000000000000000000000000000000000000000000000000000000000000000000000000000000000028000000000000000000000000000000000000000000000000000000000000002a000000000000000000000000000000000000000000000000000000000000002c000000000000000000000000000000000000000000000000000000000000002e00000000000000000000000000000000000000000000000000000000000000300000000000000000000000000000000000000000000000000000000000000032000000000000000000000000000000000000000000000000000000000000003400000000000000000000000000000000000000000000000000000000000000360000000000000000000000000000000000000000000000000000000000000038000000000000000000000000000000000000000000000000000000000000003a000000000000000000000000000000000000000000000000000000000000003c000000000000000000000000000000000000000000000000000000000000003e00000000000000000000000000000000000000000000000000000000000000400000000000000000000000000000000000000000000000000000000000000042000000000000000000000000000000000000000000000000000000000000004400000000000000000000000000000000000000000000000000000000000000460000000000000000000000000000000000000000000000000000000000000048000000000000000000000000000000000000000000000000000000000000004a000000000000000000000000000000000000000000000000000000000000004c000000000000000000000000000000000000000000000000000000000000004e00000000000000000000000000000000000000000000000000000000000000000000000000000000000000000000000000000000000000000000000000000000000000000000000000000000000000000000000000000000000000000000000000000000000000000000000000000000000000000000000000000000000000000000000000000000000000000000000000000000000000000000000000000000000000000000000000000000000000000000000000000000000000000000000000000000000000000000000000000000000000000000000000000000000000000000000000000000000000000000000000000000000000000000000000000000000000000000000000000000000000000000000000000000000000000000000000000000000000000000000000000000000000000000000000000000000000000000000000000000000000000000000000000000000000000000000000000000000000000000000000000000000000000000000000000000000000000000000000000000000000000000000000000000000000000000000000000000000000000000000000000000000000000000000000000000000000000000000000000000000000000000000000000000000000000000000000000000000000000000000000000000000000000000000000000000000000000000000000000000000000000000000000000000000000000000000000000000000000000000000000000000000000000000000000000000000000000000000000000000000000000000000000000000000000000000000000000000000000000000000000000000000000000000000000000000000000000000000000000000000000000000000000000000000000000000000000000000000000000000000000000000000000000000000000000000000000000000000000000000000000000000000000000000000000000",
        "nonce": "0x22",
        "chainId": "0x6f"
      },
      "additionalContracts": [],
      "isFixedGasLimit": false
    },
    {
      "hash": "0x45b14dbbbe8d1e00e14e30ea6da4a9a9a44c19141c3b1562cf19f7e8314f5ff9",
      "transactionType": "CALL",
      "contractName": null,
      "contractAddress": "0x4d4adec97e3e11693f65dedc2d1e6bec784eb2f1",
      "function": "mint(address,uint256)",
      "arguments": [
        "0xD289D1387ae1033A703842D69501D5bEc5A6f04e",
        "2000000"
      ],
      "transaction": {
        "from": "0xd289d1387ae1033a703842d69501d5bec5a6f04e",
        "to": "0x4d4adec97e3e11693f65dedc2d1e6bec784eb2f1",
        "value": "0x0",
        "input": "0x40c10f19000000000000000000000000d289d1387ae1033a703842d69501d5bec5a6f04e00000000000000000000000000000000000000000000000000000000001e8480",
        "nonce": "0x23",
        "chainId": "0x6f"
      },
      "additionalContracts": [],
      "isFixedGasLimit": false
    },
    {
      "hash": "0x63c0f0c60a979577ffd174ff1f9f4b2a65204330c0cd776dd290ae73505a840f",
      "transactionType": "CALL",
      "contractName": null,
      "contractAddress": "0x4d4adec97e3e11693f65dedc2d1e6bec784eb2f1",
      "function": "approve(address,uint256)",
      "arguments": [
        "0x048255dfEF2eBFA7307058Ae475a3e2F5ee0df46",
        "115792089237316195423570985008687907853269984665640564039457584007913129639935"
      ],
      "transaction": {
        "from": "0xd289d1387ae1033a703842d69501d5bec5a6f04e",
        "to": "0x4d4adec97e3e11693f65dedc2d1e6bec784eb2f1",
        "value": "0x0",
        "input": "0x095ea7b3000000000000000000000000048255dfef2ebfa7307058ae475a3e2f5ee0df46ffffffffffffffffffffffffffffffffffffffffffffffffffffffffffffffff",
        "nonce": "0x24",
        "chainId": "0x6f"
      },
      "additionalContracts": [],
      "isFixedGasLimit": false
    },
    {
      "hash": "0x0bfcdf3102b1847ef95476efb8b945106b87e7b7a45d36bac54abab89953f93a",
      "transactionType": "CALL",
      "contractName": null,
      "contractAddress": "0x048255dfef2ebfa7307058ae475a3e2f5ee0df46",
      "function": "createIntent((uint8,bytes,address,address,uint256),uint256)",
      "arguments": [
        "(1, 0x000000000000000000000000558b8fe3b86724d9d9433bf8ec2b1a1b223f9d25000000000000000000000000000000000000000000000000000000000012d687, 0xD289D1387ae1033A703842D69501D5bEc5A6f04e, 0x4D4aDEc97e3e11693F65dEDC2D1e6Bec784eB2F1, 2000000)",
        "1768320755"
      ],
      "transaction": {
        "from": "0xd289d1387ae1033a703842d69501d5bec5a6f04e",
        "to": "0x048255dfef2ebfa7307058ae475a3e2f5ee0df46",
        "value": "0x0",
        "input": "0x549f750500000000000000000000000000000000000000000000000000000000000000400000000000000000000000000000000000000000000000000000000069666ef3000000000000000000000000000000000000000000000000000000000000000100000000000000000000000000000000000000000000000000000000000000a0000000000000000000000000d289d1387ae1033a703842d69501d5bec5a6f04e0000000000000000000000004d4adec97e3e11693f65dedc2d1e6bec784eb2f100000000000000000000000000000000000000000000000000000000001e84800000000000000000000000000000000000000000000000000000000000000040000000000000000000000000558b8fe3b86724d9d9433bf8ec2b1a1b223f9d25000000000000000000000000000000000000000000000000000000000012d687",
        "nonce": "0x25",
        "chainId": "0x6f"
      },
      "additionalContracts": [],
      "isFixedGasLimit": false
    },
    {
      "hash": "0x8eeeae544a79cb5a55977e241c9bd38cb18bedcf8158889ea1cc6283aceec8b3",
      "transactionType": "CALL",
      "contractName": null,
      "contractAddress": "0x4d4adec97e3e11693f65dedc2d1e6bec784eb2f1",
      "function": "mint(address,uint256)",
      "arguments": [
        "0xD289D1387ae1033A703842D69501D5bEc5A6f04e",
        "1000000"
      ],
      "transaction": {
        "from": "0xd289d1387ae1033a703842d69501d5bec5a6f04e",
        "to": "0x4d4adec97e3e11693f65dedc2d1e6bec784eb2f1",
        "value": "0x0",
        "input": "0x40c10f19000000000000000000000000d289d1387ae1033a703842d69501d5bec5a6f04e00000000000000000000000000000000000000000000000000000000000f4240",
        "nonce": "0x26",
        "chainId": "0x6f"
      },
      "additionalContracts": [],
      "isFixedGasLimit": false
    },
    {
      "hash": "0x87ccc77118d5e8c30a5d79bef72571ad0d64537c8e2e377ff52106655b51e205",
      "transactionType": "CALL",
      "contractName": null,
      "contractAddress": "0x4d4adec97e3e11693f65dedc2d1e6bec784eb2f1",
      "function": "approve(address,uint256)",
      "arguments": [
        "0x048255dfEF2eBFA7307058Ae475a3e2F5ee0df46",
        "115792089237316195423570985008687907853269984665640564039457584007913129639935"
      ],
      "transaction": {
        "from": "0xd289d1387ae1033a703842d69501d5bec5a6f04e",
        "to": "0x4d4adec97e3e11693f65dedc2d1e6bec784eb2f1",
        "value": "0x0",
        "input": "0x095ea7b3000000000000000000000000048255dfef2ebfa7307058ae475a3e2f5ee0df46ffffffffffffffffffffffffffffffffffffffffffffffffffffffffffffffff",
        "nonce": "0x27",
        "chainId": "0x6f"
      },
      "additionalContracts": [],
      "isFixedGasLimit": false
    },
    {
      "hash": "0x72b7f896e44f8068fe77ac5d16eb16e4affbc2edc4078b805d895190107745c2",
      "transactionType": "CALL",
      "contractName": null,
      "contractAddress": "0x048255dfef2ebfa7307058ae475a3e2f5ee0df46",
      "function": "claimIntent(bytes32)",
      "arguments": [
        "0xca46b9f44e24ba33028b375a8116be39c7775fb376f5c33dc4d81bf57f67dad2"
      ],
      "transaction": {
        "from": "0xd289d1387ae1033a703842d69501d5bec5a6f04e",
        "to": "0x048255dfef2ebfa7307058ae475a3e2f5ee0df46",
        "value": "0x0",
        "input": "0x40e624cbca46b9f44e24ba33028b375a8116be39c7775fb376f5c33dc4d81bf57f67dad2",
        "nonce": "0x28",
        "chainId": "0x6f"
      },
      "additionalContracts": [],
      "isFixedGasLimit": false
    },
    {
      "hash": "0x9b10ac3fbd02f7448c38f9766f4fc1b76725518bde0024f5692cbdba944e83c8",
      "transactionType": "CALL",
      "contractName": null,
      "contractAddress": "0x8c16d2f19a034b7281254f5656c2d1461c6ceb9a",
      "function": "setTx((bytes32,uint256,uint32,bytes21,bytes21,bytes))",
      "arguments": [
        "(0x0000000000000000000000000000000000000000000000000000000000000000, 0, 0, 0x000000000000000000000000000000000000000000, 0x41f61c257cc0c129959a9704a59193e15c91853749, 0xa9059cbb000000000000000000000000558b8fe3b86724d9d9433bf8ec2b1a1b223f9d25000000000000000000000000000000000000000000000000000000000012d687)"
      ],
      "transaction": {
        "from": "0xd289d1387ae1033a703842d69501d5bec5a6f04e",
        "to": "0x8c16d2f19a034b7281254f5656c2d1461c6ceb9a",
        "value": "0x0",
        "input": "0x3aec07de0000000000000000000000000000000000000000000000000000000000000020000000000000000000000000000000000000000000000000000000000000000000000000000000000000000000000000000000000000000000000000000000000000000000000000000000000000000000000000000000000000000000000000000000000000000000000000000000000000000000000000000000000000000041f61c257cc0c129959a9704a59193e15c91853749000000000000000000000000000000000000000000000000000000000000000000000000000000000000c00000000000000000000000000000000000000000000000000000000000000044a9059cbb000000000000000000000000558b8fe3b86724d9d9433bf8ec2b1a1b223f9d25000000000000000000000000000000000000000000000000000000000012d68700000000000000000000000000000000000000000000000000000000",
        "nonce": "0x29",
        "chainId": "0x6f"
      },
      "additionalContracts": [],
      "isFixedGasLimit": false
    },
    {
      "hash": "0xe920c58961d9f855785aca3aaa174ec92189f45dd87dc1956347d926a72ae301",
      "transactionType": "CALL",
      "contractName": null,
      "contractAddress": "0x048255dfef2ebfa7307058ae475a3e2f5ee0df46",
      "function": "proveIntentFill(bytes32,bytes[20],bytes,bytes32[],uint256)",
      "arguments": [
        "0xca46b9f44e24ba33028b375a8116be39c7775fb376f5c33dc4d81bf57f67dad2",
        "[0x, 0x, 0x, 0x, 0x, 0x, 0x, 0x, 0x, 0x, 0x, 0x, 0x, 0x, 0x, 0x, 0x, 0x, 0x, 0x]",
        "0x",
        "[]",
        "0"
      ],
      "transaction": {
        "from": "0xd289d1387ae1033a703842d69501d5bec5a6f04e",
        "to": "0x048255dfef2ebfa7307058ae475a3e2f5ee0df46",
        "value": "0x0",
        "input": "0x5c23cc02ca46b9f44e24ba33028b375a8116be39c7775fb376f5c33dc4d81bf57f67dad200000000000000000000000000000000000000000000000000000000000000a000000000000000000000000000000000000000000000000000000000000005a000000000000000000000000000000000000000000000000000000000000005c00000000000000000000000000000000000000000000000000000000000000000000000000000000000000000000000000000000000000000000000000000028000000000000000000000000000000000000000000000000000000000000002a000000000000000000000000000000000000000000000000000000000000002c000000000000000000000000000000000000000000000000000000000000002e00000000000000000000000000000000000000000000000000000000000000300000000000000000000000000000000000000000000000000000000000000032000000000000000000000000000000000000000000000000000000000000003400000000000000000000000000000000000000000000000000000000000000360000000000000000000000000000000000000000000000000000000000000038000000000000000000000000000000000000000000000000000000000000003a000000000000000000000000000000000000000000000000000000000000003c000000000000000000000000000000000000000000000000000000000000003e00000000000000000000000000000000000000000000000000000000000000400000000000000000000000000000000000000000000000000000000000000042000000000000000000000000000000000000000000000000000000000000004400000000000000000000000000000000000000000000000000000000000000460000000000000000000000000000000000000000000000000000000000000048000000000000000000000000000000000000000000000000000000000000004a000000000000000000000000000000000000000000000000000000000000004c000000000000000000000000000000000000000000000000000000000000004e00000000000000000000000000000000000000000000000000000000000000000000000000000000000000000000000000000000000000000000000000000000000000000000000000000000000000000000000000000000000000000000000000000000000000000000000000000000000000000000000000000000000000000000000000000000000000000000000000000000000000000000000000000000000000000000000000000000000000000000000000000000000000000000000000000000000000000000000000000000000000000000000000000000000000000000000000000000000000000000000000000000000000000000000000000000000000000000000000000000000000000000000000000000000000000000000000000000000000000000000000000000000000000000000000000000000000000000000000000000000000000000000000000000000000000000000000000000000000000000000000000000000000000000000000000000000000000000000000000000000000000000000000000000000000000000000000000000000000000000000000000000000000000000000000000000000000000000000000000000000000000000000000000000000000000000000000000000000000000000000000000000000000000000000000000000000000000000000000000000000000000000000000000000000000000000000000000000000000000000000000000000000000000000000000000000000000000000000000000000000000000000000000000000000000000000000000000000000000000000000000000000000000000000000000000000000000000000000000000000000000000000000000000000000000000000000000000000000000000000000000000000000000000000000000000000000000000000000000000000000000000000000000000000000000000",
        "nonce": "0x2a",
        "chainId": "0x6f"
      },
      "additionalContracts": [],
      "isFixedGasLimit": false
    },
    {
      "hash": "0xd4a3704fdadaf1ab9481eb5a8029329668b8b0b70b4a0ad0acbe10760127fa8f",
      "transactionType": "CALL",
      "contractName": null,
      "contractAddress": "0xf86c23c1e883ee3b820fb9be75ff91c9a49eae75",
      "function": "mint(address,uint256)",
      "arguments": [
        "0xD289D1387ae1033A703842D69501D5bEc5A6f04e",
        "1000000"
      ],
      "transaction": {
        "from": "0xd289d1387ae1033a703842d69501d5bec5a6f04e",
        "to": "0xf86c23c1e883ee3b820fb9be75ff91c9a49eae75",
        "value": "0x0",
        "input": "0x40c10f19000000000000000000000000d289d1387ae1033a703842d69501d5bec5a6f04e00000000000000000000000000000000000000000000000000000000000f4240",
        "nonce": "0x2b",
        "chainId": "0x6f"
      },
      "additionalContracts": [],
      "isFixedGasLimit": false
    },
    {
      "hash": "0xdda00ba795aaf750a19ff23dd6a7124f10b25d69deb1562e29881bcfeb1a3c35",
      "transactionType": "CALL",
      "contractName": null,
      "contractAddress": "0xf86c23c1e883ee3b820fb9be75ff91c9a49eae75",
      "function": "approve(address,uint256)",
      "arguments": [
        "0x048255dfEF2eBFA7307058Ae475a3e2F5ee0df46",
        "115792089237316195423570985008687907853269984665640564039457584007913129639935"
      ],
      "transaction": {
        "from": "0xd289d1387ae1033a703842d69501d5bec5a6f04e",
        "to": "0xf86c23c1e883ee3b820fb9be75ff91c9a49eae75",
        "value": "0x0",
        "input": "0x095ea7b3000000000000000000000000048255dfef2ebfa7307058ae475a3e2f5ee0df46ffffffffffffffffffffffffffffffffffffffffffffffffffffffffffffffff",
        "nonce": "0x2c",
        "chainId": "0x6f"
      },
      "additionalContracts": [],
      "isFixedGasLimit": false
    },
    {
      "hash": "0x3dd20d27152ccee08bee773d2ec54b46327228d63de1c1f16ade877c902fc379",
      "transactionType": "CALL",
      "contractName": null,
      "contractAddress": "0x048255dfef2ebfa7307058ae475a3e2f5ee0df46",
      "function": "createIntent((uint8,bytes,address,address,uint256),uint256)",
      "arguments": [
        "(0, 0x00000000000000000000000000000000000000000000000000000000000000200000000000000000000000005457e258a09ebfb4a2501a9e3d70d37f54f923f300000000000000000000000000000000000000000000000000000000000000400000000000000000000000000000000000000000000000000000000000000002beef000000000000000000000000000000000000000000000000000000000000, 0xD289D1387ae1033A703842D69501D5bEc5A6f04e, 0xF86C23C1E883ee3B820FB9BE75FF91C9A49EaE75, 1000000)",
        "1768320705"
      ],
      "transaction": {
        "from": "0xd289d1387ae1033a703842d69501d5bec5a6f04e",
        "to": "0x048255dfef2ebfa7307058ae475a3e2f5ee0df46",
        "value": "0x0",
        "input": "0x549f750500000000000000000000000000000000000000000000000000000000000000400000000000000000000000000000000000000000000000000000000069666ec1000000000000000000000000000000000000000000000000000000000000000000000000000000000000000000000000000000000000000000000000000000a0000000000000000000000000d289d1387ae1033a703842d69501d5bec5a6f04e000000000000000000000000f86c23c1e883ee3b820fb9be75ff91c9a49eae7500000000000000000000000000000000000000000000000000000000000f424000000000000000000000000000000000000000000000000000000000000000a000000000000000000000000000000000000000000000000000000000000000200000000000000000000000005457e258a09ebfb4a2501a9e3d70d37f54f923f300000000000000000000000000000000000000000000000000000000000000400000000000000000000000000000000000000000000000000000000000000002beef000000000000000000000000000000000000000000000000000000000000",
        "nonce": "0x2d",
        "chainId": "0x6f"
      },
      "additionalContracts": [],
      "isFixedGasLimit": false
    },
    {
      "hash": "0xf632124dc6373fabb8cd53de00ec7f520021524eae8a4a4e235967e3db1df4c6",
      "transactionType": "CALL",
      "contractName": null,
      "contractAddress": "0x048255dfef2ebfa7307058ae475a3e2f5ee0df46",
      "function": "closeIntent(bytes32)",
      "arguments": [
        "0x969409e5f553bd67543799c6a0fad77544fe246dc363ce8f0e9c5d468a6f5438"
      ],
      "transaction": {
        "from": "0xd289d1387ae1033a703842d69501d5bec5a6f04e",
        "to": "0x048255dfef2ebfa7307058ae475a3e2f5ee0df46",
        "value": "0x0",
        "input": "0x51ead90a969409e5f553bd67543799c6a0fad77544fe246dc363ce8f0e9c5d468a6f5438",
        "nonce": "0x2e",
        "chainId": "0x6f"
      },
      "additionalContracts": [],
      "isFixedGasLimit": false
    },
    {
      "hash": "0x8a666372cb7a155f3f9f7822580a72c311adac54acf0953bb30b2ca9b4045838",
      "transactionType": "CALL",
      "contractName": null,
      "contractAddress": "0x4d4adec97e3e11693f65dedc2d1e6bec784eb2f1",
      "function": "mint(address,uint256)",
      "arguments": [
        "0xD289D1387ae1033A703842D69501D5bEc5A6f04e",
        "1000000"
      ],
      "transaction": {
        "from": "0xd289d1387ae1033a703842d69501d5bec5a6f04e",
        "to": "0x4d4adec97e3e11693f65dedc2d1e6bec784eb2f1",
        "value": "0x0",
        "input": "0x40c10f19000000000000000000000000d289d1387ae1033a703842d69501d5bec5a6f04e00000000000000000000000000000000000000000000000000000000000f4240",
        "nonce": "0x2f",
        "chainId": "0x6f"
      },
      "additionalContracts": [],
      "isFixedGasLimit": false
    },
    {
      "hash": "0x1d97966a726dae82365567fd49d43dccd866528bd1697f4b84666c8376e56b41",
      "transactionType": "CALL",
      "contractName": null,
      "contractAddress": "0x4d4adec97e3e11693f65dedc2d1e6bec784eb2f1",
      "function": "approve(address,uint256)",
      "arguments": [
        "0x048255dfEF2eBFA7307058Ae475a3e2F5ee0df46",
        "115792089237316195423570985008687907853269984665640564039457584007913129639935"
      ],
      "transaction": {
        "from": "0xd289d1387ae1033a703842d69501d5bec5a6f04e",
        "to": "0x4d4adec97e3e11693f65dedc2d1e6bec784eb2f1",
        "value": "0x0",
        "input": "0x095ea7b3000000000000000000000000048255dfef2ebfa7307058ae475a3e2f5ee0df46ffffffffffffffffffffffffffffffffffffffffffffffffffffffffffffffff",
        "nonce": "0x30",
        "chainId": "0x6f"
      },
      "additionalContracts": [],
      "isFixedGasLimit": false
    },
    {
      "hash": "0xd951087267c228f5ec4a6459e9ac1a984aa9b2338cde0a7bb240504d457eed41",
      "transactionType": "CALL",
      "contractName": null,
      "contractAddress": "0x048255dfef2ebfa7307058ae475a3e2f5ee0df46",
      "function": "claimVirtualReceiverIntent(address,address,bytes32,address,uint256)",
      "arguments": [
        "0x8828fD7431d5bb1962d7E067C103b2324FA6BBEC",
        "0x97629064A9C06865C5B3832F94bb64a8E47bcAd7",
        "0x282866f5067804dadd2e500a0a3d8b5e5d2e5cde385e9ec6a887315613d6f448",
        "0x4D4aDEc97e3e11693F65dEDC2D1e6Bec784eB2F1",
        "1000000"
      ],
      "transaction": {
        "from": "0xd289d1387ae1033a703842d69501d5bec5a6f04e",
        "to": "0x048255dfef2ebfa7307058ae475a3e2f5ee0df46",
        "value": "0x0",
        "input": "0xaf2440050000000000000000000000008828fd7431d5bb1962d7e067c103b2324fa6bbec00000000000000000000000097629064a9c06865c5b3832f94bb64a8e47bcad7282866f5067804dadd2e500a0a3d8b5e5d2e5cde385e9ec6a887315613d6f4480000000000000000000000004d4adec97e3e11693f65dedc2d1e6bec784eb2f100000000000000000000000000000000000000000000000000000000000f4240",
        "nonce": "0x31",
        "chainId": "0x6f"
      },
      "additionalContracts": [],
      "isFixedGasLimit": false
    },
    {
      "hash": null,
      "transactionType": "CALL",
      "contractName": null,
      "contractAddress": "0x048255dfef2ebfa7307058ae475a3e2f5ee0df46",
      "function": "unclaimIntent(bytes32)",
      "arguments": [
        "0xee05772a542895427ddf02d6cb47b9027da7949441e78297ad0b8b2608b77382"
      ],
      "transaction": {
        "from": "0xd289d1387ae1033a703842d69501d5bec5a6f04e",
        "to": "0x048255dfef2ebfa7307058ae475a3e2f5ee0df46",
        "value": "0x0",
        "input": "0x64a486c4ee05772a542895427ddf02d6cb47b9027da7949441e78297ad0b8b2608b77382",
        "nonce": "0x32",
        "chainId": "0x6f"
      },
      "additionalContracts": [],
      "isFixedGasLimit": false
    },
    {
      "hash": null,
      "transactionType": "CALL",
      "contractName": null,
      "contractAddress": "0x4d4adec97e3e11693f65dedc2d1e6bec784eb2f1",
      "function": "mint(address,uint256)",
      "arguments": [
        "0x4eBbaa5bb917c960140992a66a036aFAdEB623Cd",
        "10000111"
      ],
      "transaction": {
        "from": "0xd289d1387ae1033a703842d69501d5bec5a6f04e",
        "to": "0x4d4adec97e3e11693f65dedc2d1e6bec784eb2f1",
        "value": "0x0",
        "input": "0x40c10f190000000000000000000000004ebbaa5bb917c960140992a66a036afadeb623cd00000000000000000000000000000000000000000000000000000000009896ef",
        "nonce": "0x33",
        "chainId": "0x6f"
      },
      "additionalContracts": [],
      "isFixedGasLimit": false
    },
    {
      "hash": null,
      "transactionType": "CALL",
      "contractName": null,
      "contractAddress": "0x8828fd7431d5bb1962d7e067c103b2324fa6bbec",
      "function": "pullFromReceiver((uint256,address,bool,bytes32,bytes32,uint256,address,address,(address,uint256,bytes)[],bytes))",
      "arguments": [
        "(222, 0x048255dfEF2eBFA7307058Ae475a3e2F5ee0df46, true, 0x805137159b1f1225efc7ae36f6b216b76c0e9bed085c4220b2f702fde8defd04, 0x38cb7bc9535f8b89744a14dd2acfe7dcc993eb5f668dfbcb95bdf21a839e2ec0, 10000111, 0x4D4aDEc97e3e11693F65dEDC2D1e6Bec784eB2F1, 0x4D4aDEc97e3e11693F65dEDC2D1e6Bec784eB2F1, [], 0x)"
      ],
      "transaction": {
        "from": "0xd289d1387ae1033a703842d69501d5bec5a6f04e",
        "to": "0x8828fd7431d5bb1962d7e067c103b2324fa6bbec",
        "value": "0x0",
        "input": "0x1ad1087b000000000000000000000000000000000000000000000000000000000000002000000000000000000000000000000000000000000000000000000000000000de000000000000000000000000048255dfef2ebfa7307058ae475a3e2f5ee0df460000000000000000000000000000000000000000000000000000000000000001805137159b1f1225efc7ae36f6b216b76c0e9bed085c4220b2f702fde8defd0438cb7bc9535f8b89744a14dd2acfe7dcc993eb5f668dfbcb95bdf21a839e2ec000000000000000000000000000000000000000000000000000000000009896ef0000000000000000000000004d4adec97e3e11693f65dedc2d1e6bec784eb2f10000000000000000000000004d4adec97e3e11693f65dedc2d1e6bec784eb2f10000000000000000000000000000000000000000000000000000000000000140000000000000000000000000000000000000000000000000000000000000016000000000000000000000000000000000000000000000000000000000000000000000000000000000000000000000000000000000000000000000000000000000",
        "nonce": "0x34",
        "chainId": "0x6f"
      },
      "additionalContracts": [],
      "isFixedGasLimit": false
    }
  ],
  "receipts": [
    {
      "status": "0x1",
      "cumulativeGasUsed": "0x52451",
      "logs": [],
      "logsBloom": "0x00000000000000000000000000000000000000000000000000000000000000000000000000000000000000000000000000000000000000000000000000000000000000000000000000000000000000000000000000000000000000000000000000000000000000000000000000000000000000000000000000000000000000000000000000000000000000000000000000000000000000000000000000000000000000000000000000000000000000000000000000000000000000000000000000000000000000000000000000000000000000000000000000000000000000000000000000000000000000000000000000000000000000000000000000000000",
      "type": "0x0",
      "transactionHash": "0x9641ee03018a3142e7c0d37b05ae7446dba97b61b7bb28357dd48191191f94dc",
      "transactionIndex": "0x0",
      "blockHash": "0x559da8caa07d548849ef534c07f5838b1bf039acaef01f3e6eb9dbc6fccfa308",
      "blockNumber": "0xf",
      "gasUsed": "0x52451",
      "effectiveGasPrice": "0x3b9aca00",
      "blobGasPrice": "0x1",
      "from": "0xd289d1387ae1033a703842d69501d5bec5a6f04e",
      "to": null,
      "contractAddress": "0x0be19c78706c441de4178a2266a650e47160eda7"
    },
    {
      "status": "0x1",
      "cumulativeGasUsed": "0xc546",
      "logs": [
        {
          "address": "0x8828fd7431d5bb1962d7e067c103b2324fa6bbec",
          "topics": [
            "0x14c028d3d668eb3454bce44d123ceeeb9fb4e74bee073c41f4001e63f0613094",
            "0x0000000000000000000000000be19c78706c441de4178a2266a650e47160eda7",
            "0x0000000000000000000000000be19c78706c441de4178a2266a650e47160eda7"
          ],
          "data": "0x",
          "blockHash": "0x4697869fbc47010a2afc8be5a51b8dbd481336c541d8f4cb10e49301b0db7c63",
          "blockNumber": "0x10",
          "blockTimestamp": "0x69666f3e",
          "transactionHash": "0x5dff21b1310551aebb70c2ceb7eb2a860e457bb41c7ef6fa3224956ff919324a",
          "transactionIndex": "0x0",
          "logIndex": "0x0",
          "removed": false
        },
        {
          "address": "0x8828fd7431d5bb1962d7e067c103b2324fa6bbec",
          "topics": [
            "0x78160f0b1b2b32b52a0076d8f0f70888687ba702a4d993d55ac8d9327d57a127",
            "0x0000000000000000000000000000000000000000000000000000000000000004",
            "0xf6800f12609d9b0b9d172fbe9084aa76a4668f67b1ef31640690f1bb37311c89",
            "0x40d451c1a1c17eead6d58ec1f2ecb54aafe977e525e739c8bb30ffaac139abd5"
          ],
          "data": "0x14c028d3d668eb3454bce44d123ceeeb9fb4e74bee073c41f4001e63f0613094000000000000000000000000000000000000000000000000000000000000004000000000000000000000000000000000000000000000000000000000000000400000000000000000000000000be19c78706c441de4178a2266a650e47160eda70000000000000000000000000be19c78706c441de4178a2266a650e47160eda7",
          "blockHash": "0x4697869fbc47010a2afc8be5a51b8dbd481336c541d8f4cb10e49301b0db7c63",
          "blockNumber": "0x10",
          "blockTimestamp": "0x69666f3e",
          "transactionHash": "0x5dff21b1310551aebb70c2ceb7eb2a860e457bb41c7ef6fa3224956ff919324a",
          "transactionIndex": "0x0",
          "logIndex": "0x1",
          "removed": false
        }
      ],
      "logsBloom": "0x00000000000000000000000000000000000000000000000000000000000000000000000000000000000000000000000020000000000000000000000000200000000000800200000000000000000000000000000000000000000008000000000008000020000800000000000400000008000000000200000000000000000000000000000000000002000000000000000000000000000000000000000000000000000000000000000000000000000000000800000000000000002000000000000000000000000000040000000000000010000000008000000000000000000000000400000000000000000000000000000000000000000000000000100000004000",
      "type": "0x0",
      "transactionHash": "0x5dff21b1310551aebb70c2ceb7eb2a860e457bb41c7ef6fa3224956ff919324a",
      "transactionIndex": "0x0",
      "blockHash": "0x4697869fbc47010a2afc8be5a51b8dbd481336c541d8f4cb10e49301b0db7c63",
      "blockNumber": "0x10",
      "gasUsed": "0xc546",
      "effectiveGasPrice": "0x3b9aca00",
      "blobGasPrice": "0x1",
      "from": "0xd289d1387ae1033a703842d69501d5bec5a6f04e",
      "to": "0x8828fd7431d5bb1962d7e067c103b2324fa6bbec",
      "contractAddress": null
    },
    {
      "status": "0x1",
      "cumulativeGasUsed": "0x1f4cb",
      "logs": [],
      "logsBloom": "0x00000000000000000000000000000000000000000000000000000000000000000000000000000000000000000000000000000000000000000000000000000000000000000000000000000000000000000000000000000000000000000000000000000000000000000000000000000000000000000000000000000000000000000000000000000000000000000000000000000000000000000000000000000000000000000000000000000000000000000000000000000000000000000000000000000000000000000000000000000000000000000000000000000000000000000000000000000000000000000000000000000000000000000000000000000000",
      "type": "0x0",
      "transactionHash": "0x0683791d8c580fe05e947e5fc3f38a502d06668756665d3692d8f46476c347fa",
      "transactionIndex": "0x0",
      "blockHash": "0x806e2b48f0c9dab598214f8c9225a97a82a482304f745ead3c6476b9c98c909f",
      "blockNumber": "0x11",
      "gasUsed": "0x1f4cb",
      "effectiveGasPrice": "0x3b9aca00",
      "blobGasPrice": "0x1",
      "from": "0xd289d1387ae1033a703842d69501d5bec5a6f04e",
      "to": null,
      "contractAddress": "0x481e836be187303c64f269bc7fe2c52f7f7c6eef"
    },
    {
      "status": "0x1",
      "cumulativeGasUsed": "0xaa2b",
      "logs": [],
      "logsBloom": "0x00000000000000000000000000000000000000000000000000000000000000000000000000000000000000000000000000000000000000000000000000000000000000000000000000000000000000000000000000000000000000000000000000000000000000000000000000000000000000000000000000000000000000000000000000000000000000000000000000000000000000000000000000000000000000000000000000000000000000000000000000000000000000000000000000000000000000000000000000000000000000000000000000000000000000000000000000000000000000000000000000000000000000000000000000000000",
      "type": "0x0",
      "transactionHash": "0x5442cb8cd2818da051a292177af933a42052362d1c40030812b4acf29bd49b9e",
      "transactionIndex": "0x0",
      "blockHash": "0x689f3b20b56c0a1a02053ba5c8ff4e709e3e529c0ea5b0df00febb10592e2188",
      "blockNumber": "0x12",
      "gasUsed": "0xaa2b",
      "effectiveGasPrice": "0x3b9aca00",
      "blobGasPrice": "0x1",
      "from": "0xd289d1387ae1033a703842d69501d5bec5a6f04e",
      "to": "0x481e836be187303c64f269bc7fe2c52f7f7c6eef",
      "contractAddress": null
    },
    {
      "status": "0x1",
      "cumulativeGasUsed": "0xb23d",
      "logs": [
        {
          "address": "0x8828fd7431d5bb1962d7e067c103b2324fa6bbec",
          "topics": [
            "0x2e3d7d02ba3c4bd8b1f8995cd3a23ef0193922ebc4ee23249ead4d0ca2e34c68",
            "0x0000000000000000000000004d4adec97e3e11693f65dedc2d1e6bec784eb2f1",
            "0x000000000000000000000000481e836be187303c64f269bc7fe2c52f7f7c6eef"
          ],
          "data": "0x",
          "blockHash": "0x529ef6c735c6d182a683aaf57f6de6cf7a4ad260745dbbb6bc470994b1f00f39",
          "blockNumber": "0x13",
          "blockTimestamp": "0x69666f41",
          "transactionHash": "0x8070a422200e1dbd8d5a1a9099941348b15ef7a124b2908c74084764599671c8",
          "transactionIndex": "0x0",
          "logIndex": "0x0",
          "removed": false
        },
        {
          "address": "0x8828fd7431d5bb1962d7e067c103b2324fa6bbec",
          "topics": [
            "0x78160f0b1b2b32b52a0076d8f0f70888687ba702a4d993d55ac8d9327d57a127",
            "0x0000000000000000000000000000000000000000000000000000000000000005",
            "0x40d451c1a1c17eead6d58ec1f2ecb54aafe977e525e739c8bb30ffaac139abd5",
            "0x7aef6cb7de9d9ce6f3cad82980b7afc3a677efc98ce6497850c8ad50265e72a2"
          ],
          "data": "0x2e3d7d02ba3c4bd8b1f8995cd3a23ef0193922ebc4ee23249ead4d0ca2e34c68000000000000000000000000000000000000000000000000000000000000004000000000000000000000000000000000000000000000000000000000000000400000000000000000000000004d4adec97e3e11693f65dedc2d1e6bec784eb2f1000000000000000000000000481e836be187303c64f269bc7fe2c52f7f7c6eef",
          "blockHash": "0x529ef6c735c6d182a683aaf57f6de6cf7a4ad260745dbbb6bc470994b1f00f39",
          "blockNumber": "0x13",
          "blockTimestamp": "0x69666f41",
          "transactionHash": "0x8070a422200e1dbd8d5a1a9099941348b15ef7a124b2908c74084764599671c8",
          "transactionIndex": "0x0",
          "logIndex": "0x1",
          "removed": false
        }
      ],
      "logsBloom": "0x00400000000000000000000000200000000000000000000000000000000000000000000000000000000000000000000020000000000000000400000000200000000010000200000000000000000000000008000020000000000000000000000000000020000800000000000400000008000000000000000080000000000000000000000000000082000000000000001000000800000000000004000000000000002000000000000000000000000000000000000000000000000000000000000000000000000008000000000000000000000000000000000000000000000000000000000000000000000000000080000000000000000400000000000000004000",
      "type": "0x0",
      "transactionHash": "0x8070a422200e1dbd8d5a1a9099941348b15ef7a124b2908c74084764599671c8",
      "transactionIndex": "0x0",
      "blockHash": "0x529ef6c735c6d182a683aaf57f6de6cf7a4ad260745dbbb6bc470994b1f00f39",
      "blockNumber": "0x13",
      "gasUsed": "0xb23d",
      "effectiveGasPrice": "0x3b9aca00",
      "blobGasPrice": "0x1",
      "from": "0xd289d1387ae1033a703842d69501d5bec5a6f04e",
      "to": "0x8828fd7431d5bb1962d7e067c103b2324fa6bbec",
      "contractAddress": null
    },
    {
      "status": "0x1",
      "cumulativeGasUsed": "0x147a0",
      "logs": [
        {
          "address": "0x048255dfef2ebfa7307058ae475a3e2f5ee0df46",
          "topics": [
            "0x9d4c3779a823aa84b20dd2e8551e6ed95addbc562f3bc49b1e688ab785b05d9d"
          ],
          "data": "0x0000000000000000000000000000000000000000000000000000000000002710000000000000000000000000000000000000000000000000000000000000007b",
          "blockHash": "0xf3f095531c15f5dd4d231e8a0aba2f8ddd23a5456b95f894fe6d19cf03bc7d76",
          "blockNumber": "0x14",
          "blockTimestamp": "0x69666f42",
          "transactionHash": "0xd0fa060e851badf79c4d2e11fd36f93fbec136506b91f7bdf8306f30af0f8960",
          "transactionIndex": "0x0",
          "logIndex": "0x0",
          "removed": false
        },
        {
          "address": "0x048255dfef2ebfa7307058ae475a3e2f5ee0df46",
          "topics": [
            "0x78160f0b1b2b32b52a0076d8f0f70888687ba702a4d993d55ac8d9327d57a127",
            "0x0000000000000000000000000000000000000000000000000000000000000003",
            "0x8cf72010b6a8e253cb5b9fc6f4946551994b8af69881874195ae2ed5bbefc233",
            "0xcf2a0caf020d99ede3d2361c4f42c1cd379890e0e31bcfeb9550d0bad2983c1f"
          ],
          "data": "0x9d4c3779a823aa84b20dd2e8551e6ed95addbc562f3bc49b1e688ab785b05d9d000000000000000000000000000000000000000000000000000000000000004000000000000000000000000000000000000000000000000000000000000000400000000000000000000000000000000000000000000000000000000000002710000000000000000000000000000000000000000000000000000000000000007b",
          "blockHash": "0xf3f095531c15f5dd4d231e8a0aba2f8ddd23a5456b95f894fe6d19cf03bc7d76",
          "blockNumber": "0x14",
          "blockTimestamp": "0x69666f42",
          "transactionHash": "0xd0fa060e851badf79c4d2e11fd36f93fbec136506b91f7bdf8306f30af0f8960",
          "transactionIndex": "0x0",
          "logIndex": "0x1",
          "removed": false
        }
      ],
      "logsBloom": "0x00000000000000800000000000000000000000000000000000000000000000000000000000000000000000000000000000000002020000000000000000200000000000000000000000000000000000000000000000000000000000000000000000000020000804004000000000000000000000000000000000000008000000000000000000000000000000000000000000000000000000000000000000000000000000040001000000000000001000000000000200800000000000000000400000000000000000000000000000000000000000000200000000000010000000000000000000000000000000000000000000000000000000000000000000004000",
      "type": "0x0",
      "transactionHash": "0xd0fa060e851badf79c4d2e11fd36f93fbec136506b91f7bdf8306f30af0f8960",
      "transactionIndex": "0x0",
      "blockHash": "0xf3f095531c15f5dd4d231e8a0aba2f8ddd23a5456b95f894fe6d19cf03bc7d76",
      "blockNumber": "0x14",
      "gasUsed": "0x147a0",
      "effectiveGasPrice": "0x3b9aca00",
      "blobGasPrice": "0x1",
      "from": "0xd289d1387ae1033a703842d69501d5bec5a6f04e",
      "to": "0x048255dfef2ebfa7307058ae475a3e2f5ee0df46",
      "contractAddress": null
    },
    {
      "status": "0x1",
      "cumulativeGasUsed": "0x1f4cb",
      "logs": [],
      "logsBloom": "0x00000000000000000000000000000000000000000000000000000000000000000000000000000000000000000000000000000000000000000000000000000000000000000000000000000000000000000000000000000000000000000000000000000000000000000000000000000000000000000000000000000000000000000000000000000000000000000000000000000000000000000000000000000000000000000000000000000000000000000000000000000000000000000000000000000000000000000000000000000000000000000000000000000000000000000000000000000000000000000000000000000000000000000000000000000000",
      "type": "0x0",
      "transactionHash": "0xfef75832b829aac2e6452ba53f4a9ba013d943049a463a6b53d6e34ac7b415e4",
      "transactionIndex": "0x0",
      "blockHash": "0xb225b18d7ae08699f4ce71bdfe0c2da4f1d58a3d80680bda97ad2f3650fddf14",
      "blockNumber": "0x15",
      "gasUsed": "0x1f4cb",
      "effectiveGasPrice": "0x3b9aca00",
      "blobGasPrice": "0x1",
      "from": "0xd289d1387ae1033a703842d69501d5bec5a6f04e",
      "to": null,
      "contractAddress": "0x6b0f32ae157cf4f7d9b402c4e243e9088207dd87"
    },
    {
      "status": "0x1",
      "cumulativeGasUsed": "0xaa2b",
      "logs": [],
      "logsBloom": "0x00000000000000000000000000000000000000000000000000000000000000000000000000000000000000000000000000000000000000000000000000000000000000000000000000000000000000000000000000000000000000000000000000000000000000000000000000000000000000000000000000000000000000000000000000000000000000000000000000000000000000000000000000000000000000000000000000000000000000000000000000000000000000000000000000000000000000000000000000000000000000000000000000000000000000000000000000000000000000000000000000000000000000000000000000000000",
      "type": "0x0",
      "transactionHash": "0x52a5b66a31ca101099f01ce93ad3ffff416805838b30081bcfa839b252bed4c0",
      "transactionIndex": "0x0",
      "blockHash": "0x698a37e7321efed58c0efdfe4a1132ad2d49263f08a3bacf6169f48b9db66daa",
      "blockNumber": "0x16",
      "gasUsed": "0xaa2b",
      "effectiveGasPrice": "0x3b9aca00",
      "blobGasPrice": "0x1",
      "from": "0xd289d1387ae1033a703842d69501d5bec5a6f04e",
      "to": "0x6b0f32ae157cf4f7d9b402c4e243e9088207dd87",
      "contractAddress": null
    },
    {
      "status": "0x1",
      "cumulativeGasUsed": "0xb23d",
      "logs": [
        {
          "address": "0x8828fd7431d5bb1962d7e067c103b2324fa6bbec",
          "topics": [
            "0x2e3d7d02ba3c4bd8b1f8995cd3a23ef0193922ebc4ee23249ead4d0ca2e34c68",
            "0x0000000000000000000000004d4adec97e3e11693f65dedc2d1e6bec784eb2f1",
            "0x0000000000000000000000006b0f32ae157cf4f7d9b402c4e243e9088207dd87"
          ],
          "data": "0x",
          "blockHash": "0xb542198247976eb15ed9e64d4462edaae26168ae99342b3069feec9212423379",
          "blockNumber": "0x17",
          "blockTimestamp": "0x69666f45",
          "transactionHash": "0xd22176e8ccd207a296ae7f951f4d5aca52ce6df4d466a5cf64fc80978b22b71e",
          "transactionIndex": "0x0",
          "logIndex": "0x0",
          "removed": false
        },
        {
          "address": "0x8828fd7431d5bb1962d7e067c103b2324fa6bbec",
          "topics": [
            "0x78160f0b1b2b32b52a0076d8f0f70888687ba702a4d993d55ac8d9327d57a127",
            "0x0000000000000000000000000000000000000000000000000000000000000006",
            "0x7aef6cb7de9d9ce6f3cad82980b7afc3a677efc98ce6497850c8ad50265e72a2",
            "0xb0402bf0ac8dd401d38478e8760bb5d60e21a6caa9cedc27d6ee27eecb98ff47"
          ],
          "data": "0x2e3d7d02ba3c4bd8b1f8995cd3a23ef0193922ebc4ee23249ead4d0ca2e34c68000000000000000000000000000000000000000000000000000000000000004000000000000000000000000000000000000000000000000000000000000000400000000000000000000000004d4adec97e3e11693f65dedc2d1e6bec784eb2f10000000000000000000000006b0f32ae157cf4f7d9b402c4e243e9088207dd87",
          "blockHash": "0xb542198247976eb15ed9e64d4462edaae26168ae99342b3069feec9212423379",
          "blockNumber": "0x17",
          "blockTimestamp": "0x69666f45",
          "transactionHash": "0xd22176e8ccd207a296ae7f951f4d5aca52ce6df4d466a5cf64fc80978b22b71e",
          "transactionIndex": "0x0",
          "logIndex": "0x1",
          "removed": false
        }
      ],
      "logsBloom": "0x00400000000000020000008000200000000000000000000000000000000000000000000000000000000000000000000000000000000400000000000000200000000000000200000000000000000004000000000000000000000000000000000000000020000800004000000000000008000000000000000080000000000000000000000400000080000000000000000000000000000000000004000000000000002001000000000000000000000000000000000000000000000000080080000000000000000008000000000000000000000000000000000000000000000000000000000000000000000000000080000000000000000400000000000000004000",
      "type": "0x0",
      "transactionHash": "0xd22176e8ccd207a296ae7f951f4d5aca52ce6df4d466a5cf64fc80978b22b71e",
      "transactionIndex": "0x0",
      "blockHash": "0xb542198247976eb15ed9e64d4462edaae26168ae99342b3069feec9212423379",
      "blockNumber": "0x17",
      "gasUsed": "0xb23d",
      "effectiveGasPrice": "0x3b9aca00",
      "blobGasPrice": "0x1",
      "from": "0xd289d1387ae1033a703842d69501d5bec5a6f04e",
      "to": "0x8828fd7431d5bb1962d7e067c103b2324fa6bbec",
      "contractAddress": null
    },
    {
      "status": "0x1",
      "cumulativeGasUsed": "0x50fb6",
      "logs": [],
      "logsBloom": "0x00000000000000000000000000000000000000000000000000000000000000000000000000000000000000000000000000000000000000000000000000000000000000000000000000000000000000000000000000000000000000000000000000000000000000000000000000000000000000000000000000000000000000000000000000000000000000000000000000000000000000000000000000000000000000000000000000000000000000000000000000000000000000000000000000000000000000000000000000000000000000000000000000000000000000000000000000000000000000000000000000000000000000000000000000000000",
      "type": "0x0",
      "transactionHash": "0x0cbf907f623c63537dbd7aa5982b4f17aeadb123eb8f16e7137f38ff384e6ea7",
      "transactionIndex": "0x0",
      "blockHash": "0x621fc4124125cc8fc43fbd3e8ec84c81f9ae97c21d9b606b0d430472cfc047ac",
      "blockNumber": "0x18",
      "gasUsed": "0x50fb6",
      "effectiveGasPrice": "0x3b9aca00",
      "blobGasPrice": "0x1",
      "from": "0xd289d1387ae1033a703842d69501d5bec5a6f04e",
      "to": null,
      "contractAddress": "0xc5ea444a0f556f5b227ec7447294d91086bb692c"
    },
    {
      "status": "0x1",
      "cumulativeGasUsed": "0xc546",
      "logs": [
        {
          "address": "0x8828fd7431d5bb1962d7e067c103b2324fa6bbec",
          "topics": [
            "0x14c028d3d668eb3454bce44d123ceeeb9fb4e74bee073c41f4001e63f0613094",
            "0x000000000000000000000000c5ea444a0f556f5b227ec7447294d91086bb692c",
            "0x000000000000000000000000c5ea444a0f556f5b227ec7447294d91086bb692c"
          ],
          "data": "0x",
          "blockHash": "0x88bab8409000f1408f7e74f59eada2329243fdf2bdd0172cad3c1410f976460b",
          "blockNumber": "0x19",
          "blockTimestamp": "0x69666f47",
          "transactionHash": "0x513c988ae0f0a9d492aa9892b44ecb80d51d6f5440660b7c21ac40ebabac0706",
          "transactionIndex": "0x0",
          "logIndex": "0x0",
          "removed": false
        },
        {
          "address": "0x8828fd7431d5bb1962d7e067c103b2324fa6bbec",
          "topics": [
            "0x78160f0b1b2b32b52a0076d8f0f70888687ba702a4d993d55ac8d9327d57a127",
            "0x0000000000000000000000000000000000000000000000000000000000000007",
            "0xb0402bf0ac8dd401d38478e8760bb5d60e21a6caa9cedc27d6ee27eecb98ff47",
            "0x7ca25ad0903ec1442f20e8161665ba4565b4895612d1f312fc6530be75a3d26d"
          ],
          "data": "0x14c028d3d668eb3454bce44d123ceeeb9fb4e74bee073c41f4001e63f061309400000000000000000000000000000000000000000000000000000000000000400000000000000000000000000000000000000000000000000000000000000040000000000000000000000000c5ea444a0f556f5b227ec7447294d91086bb692c000000000000000000000000c5ea444a0f556f5b227ec7447294d91086bb692c",
          "blockHash": "0x88bab8409000f1408f7e74f59eada2329243fdf2bdd0172cad3c1410f976460b",
          "blockNumber": "0x19",
          "blockTimestamp": "0x69666f47",
          "transactionHash": "0x513c988ae0f0a9d492aa9892b44ecb80d51d6f5440660b7c21ac40ebabac0706",
          "transactionIndex": "0x0",
          "logIndex": "0x1",
          "removed": false
        }
      ],
      "logsBloom": "0x00000000000000020000008000000000000000000000000000000000000000000000000000000000000000000000000000001000000000000000000000200000000020000200000001000000000000000000000000000000000000100000000000000020000800004000000000000008000000000000000000000000000000000000000000000000000000000000000000000000000000000000000000010000000000000000000000000000000000000000000000000000000000000000000000000080000000040000000000000010000000000000000000000100000000000400000000000000000000000000000000000000000010000000000400004000",
      "type": "0x0",
      "transactionHash": "0x513c988ae0f0a9d492aa9892b44ecb80d51d6f5440660b7c21ac40ebabac0706",
      "transactionIndex": "0x0",
      "blockHash": "0x88bab8409000f1408f7e74f59eada2329243fdf2bdd0172cad3c1410f976460b",
      "blockNumber": "0x19",
      "gasUsed": "0xc546",
      "effectiveGasPrice": "0x3b9aca00",
      "blobGasPrice": "0x1",
      "from": "0xd289d1387ae1033a703842d69501d5bec5a6f04e",
      "to": "0x8828fd7431d5bb1962d7e067c103b2324fa6bbec",
      "contractAddress": null
    },
    {
      "status": "0x1",
      "cumulativeGasUsed": "0xac6c",
      "logs": [],
      "logsBloom": "0x00000000000000000000000000000000000000000000000000000000000000000000000000000000000000000000000000000000000000000000000000000000000000000000000000000000000000000000000000000000000000000000000000000000000000000000000000000000000000000000000000000000000000000000000000000000000000000000000000000000000000000000000000000000000000000000000000000000000000000000000000000000000000000000000000000000000000000000000000000000000000000000000000000000000000000000000000000000000000000000000000000000000000000000000000000000",
      "type": "0x0",
      "transactionHash": "0xed9ff6741db10b3045ced5a8c60ac486d1a21c494a4d492898e20dab57c564ef",
      "transactionIndex": "0x0",
      "blockHash": "0x528ff77f867f1d47bf1e4fc690ab2dd5204169a3a565b36d1053a05acd8d688c",
      "blockNumber": "0x1a",
      "gasUsed": "0xac6c",
      "effectiveGasPrice": "0x3b9aca00",
      "blobGasPrice": "0x1",
      "from": "0xd289d1387ae1033a703842d69501d5bec5a6f04e",
      "to": "0x4d4adec97e3e11693f65dedc2d1e6bec784eb2f1",
      "contractAddress": null
    },
    {
      "status": "0x1",
      "cumulativeGasUsed": "0x30384",
      "logs": [
        {
          "address": "0x8828fd7431d5bb1962d7e067c103b2324fa6bbec",
          "topics": [
            "0x7391f14355eff1e559e381f5bf49886a77da7c4fdd33c6fc2e0142269c561c59",
            "0x4ce9a4626b22b1c0a7d8cdc47124542908de4e4448da69e4870f34e4b5d4286d",
            "0xdd7cb67cbc9b2e724e3c3436ed7f91b70ab95f42de0014b70c9f2f9eb7380bb7",
            "0x0000000000000000000000000000000000000000000000000000000000000001"
          ],
          "data": "0x0000000000000000000000000000000000000000000000000000000000000000000000000000000000000000000000000000000000000000000000000000006f000000000000000000000000d59d27b9172ad056cb5c008dc2bbefe702123a55000000000000000000000000000000000000000000000000000000000000000000000000000000000000000000000000000000000000000000000000000000000000000000000000000000004d4adec97e3e11693f65dedc2d1e6bec784eb2f10000000000000000000000004d4adec97e3e11693f65dedc2d1e6bec784eb2f10000000000000000000000002023a9ae4d68fea5b1bef01f207b249c9f2cecbf000000000000000000000000b7d1e80ce581d4129bbbcac7f957850629628cd1",
          "blockHash": "0x603b3e7d2c58aa9282091b36f10e17fc82472da9ac2a3844834e1bb43efe6473",
          "blockNumber": "0x1b",
          "blockTimestamp": "0x69666f49",
          "transactionHash": "0x7c502ac501942dd735dc0196df91cdd500c49f19f4e20e4085b732afdc2226c7",
          "transactionIndex": "0x0",
          "logIndex": "0x0",
          "removed": false
        },
        {
          "address": "0x8828fd7431d5bb1962d7e067c103b2324fa6bbec",
          "topics": [
            "0x78160f0b1b2b32b52a0076d8f0f70888687ba702a4d993d55ac8d9327d57a127",
            "0x0000000000000000000000000000000000000000000000000000000000000008",
            "0x7ca25ad0903ec1442f20e8161665ba4565b4895612d1f312fc6530be75a3d26d",
            "0x30784a39bd0d491cdef57c66fdf694355b94a1164c75749f8c9878e76191c421"
          ],
          "data": "0x7391f14355eff1e559e381f5bf49886a77da7c4fdd33c6fc2e0142269c561c59000000000000000000000000000000000000000000000000000000000000004000000000000000000000000000000000000000000000000000000000000001804ce9a4626b22b1c0a7d8cdc47124542908de4e4448da69e4870f34e4b5d4286ddd7cb67cbc9b2e724e3c3436ed7f91b70ab95f42de0014b70c9f2f9eb7380bb700000000000000000000000000000000000000000000000000000000000000010000000000000000000000000000000000000000000000000000000000000000000000000000000000000000000000000000000000000000000000000000006f000000000000000000000000d59d27b9172ad056cb5c008dc2bbefe702123a55000000000000000000000000000000000000000000000000000000000000000000000000000000000000000000000000000000000000000000000000000000000000000000000000000000004d4adec97e3e11693f65dedc2d1e6bec784eb2f10000000000000000000000004d4adec97e3e11693f65dedc2d1e6bec784eb2f10000000000000000000000002023a9ae4d68fea5b1bef01f207b249c9f2cecbf000000000000000000000000b7d1e80ce581d4129bbbcac7f957850629628cd1",
          "blockHash": "0x603b3e7d2c58aa9282091b36f10e17fc82472da9ac2a3844834e1bb43efe6473",
          "blockNumber": "0x1b",
          "blockTimestamp": "0x69666f49",
          "transactionHash": "0x7c502ac501942dd735dc0196df91cdd500c49f19f4e20e4085b732afdc2226c7",
          "transactionIndex": "0x0",
          "logIndex": "0x1",
          "removed": false
        },
        {
          "address": "0x8828fd7431d5bb1962d7e067c103b2324fa6bbec",
          "topics": [
            "0x488f06a9ca9e19e1dd90c764cc79b765e8a3a089ef27d9a0e39dee21c7643188",
            "0xd6f2d535b097ffa2e4bab1bcd524610b49de81de58781b834552d2d7ce4c0dbe",
            "0x000000000000000000000000b7d1e80ce581d4129bbbcac7f957850629628cd1"
          ],
          "data": "0x000000000000000000000000e007a594267d5b9a4f5bf6fd054579eb82f5a057",
          "blockHash": "0x603b3e7d2c58aa9282091b36f10e17fc82472da9ac2a3844834e1bb43efe6473",
          "blockNumber": "0x1b",
          "blockTimestamp": "0x69666f49",
          "transactionHash": "0x7c502ac501942dd735dc0196df91cdd500c49f19f4e20e4085b732afdc2226c7",
          "transactionIndex": "0x0",
          "logIndex": "0x2",
          "removed": false
        },
        {
          "address": "0x8828fd7431d5bb1962d7e067c103b2324fa6bbec",
          "topics": [
            "0x78160f0b1b2b32b52a0076d8f0f70888687ba702a4d993d55ac8d9327d57a127",
            "0x0000000000000000000000000000000000000000000000000000000000000009",
            "0x30784a39bd0d491cdef57c66fdf694355b94a1164c75749f8c9878e76191c421",
            "0xfd6dc8a57fad4f2b861068d769fc2a10130508236ef301c55559a5ca69e0adf5"
          ],
          "data": "0x488f06a9ca9e19e1dd90c764cc79b765e8a3a089ef27d9a0e39dee21c764318800000000000000000000000000000000000000000000000000000000000000400000000000000000000000000000000000000000000000000000000000000060d6f2d535b097ffa2e4bab1bcd524610b49de81de58781b834552d2d7ce4c0dbe000000000000000000000000b7d1e80ce581d4129bbbcac7f957850629628cd1000000000000000000000000e007a594267d5b9a4f5bf6fd054579eb82f5a057",
          "blockHash": "0x603b3e7d2c58aa9282091b36f10e17fc82472da9ac2a3844834e1bb43efe6473",
          "blockNumber": "0x1b",
          "blockTimestamp": "0x69666f49",
          "transactionHash": "0x7c502ac501942dd735dc0196df91cdd500c49f19f4e20e4085b732afdc2226c7",
          "transactionIndex": "0x0",
          "logIndex": "0x3",
          "removed": false
        },
        {
          "address": "0x8828fd7431d5bb1962d7e067c103b2324fa6bbec",
          "topics": [
            "0x488f06a9ca9e19e1dd90c764cc79b765e8a3a089ef27d9a0e39dee21c7643188",
            "0xdd7cb67cbc9b2e724e3c3436ed7f91b70ab95f42de0014b70c9f2f9eb7380bb7",
            "0x0000000000000000000000002023a9ae4d68fea5b1bef01f207b249c9f2cecbf"
          ],
          "data": "0x000000000000000000000000e007a594267d5b9a4f5bf6fd054579eb82f5a057",
          "blockHash": "0x603b3e7d2c58aa9282091b36f10e17fc82472da9ac2a3844834e1bb43efe6473",
          "blockNumber": "0x1b",
          "blockTimestamp": "0x69666f49",
          "transactionHash": "0x7c502ac501942dd735dc0196df91cdd500c49f19f4e20e4085b732afdc2226c7",
          "transactionIndex": "0x0",
          "logIndex": "0x4",
          "removed": false
        },
        {
          "address": "0x8828fd7431d5bb1962d7e067c103b2324fa6bbec",
          "topics": [
            "0x78160f0b1b2b32b52a0076d8f0f70888687ba702a4d993d55ac8d9327d57a127",
            "0x000000000000000000000000000000000000000000000000000000000000000a",
            "0xfd6dc8a57fad4f2b861068d769fc2a10130508236ef301c55559a5ca69e0adf5",
            "0x2192fe50bf6d53260b53d448237801f203cc5610c9bbf3f68e19693babc82096"
          ],
          "data": "0x488f06a9ca9e19e1dd90c764cc79b765e8a3a089ef27d9a0e39dee21c764318800000000000000000000000000000000000000000000000000000000000000400000000000000000000000000000000000000000000000000000000000000060dd7cb67cbc9b2e724e3c3436ed7f91b70ab95f42de0014b70c9f2f9eb7380bb70000000000000000000000002023a9ae4d68fea5b1bef01f207b249c9f2cecbf000000000000000000000000e007a594267d5b9a4f5bf6fd054579eb82f5a057",
          "blockHash": "0x603b3e7d2c58aa9282091b36f10e17fc82472da9ac2a3844834e1bb43efe6473",
          "blockNumber": "0x1b",
          "blockTimestamp": "0x69666f49",
          "transactionHash": "0x7c502ac501942dd735dc0196df91cdd500c49f19f4e20e4085b732afdc2226c7",
          "transactionIndex": "0x0",
          "logIndex": "0x5",
          "removed": false
        },
        {
          "address": "0x8828fd7431d5bb1962d7e067c103b2324fa6bbec",
          "topics": [
            "0x2e659081f44c4f56a18b00f3f9d136d7ee8396bc79163c4d61363ddcf4a4cb27",
            "0x4ce9a4626b22b1c0a7d8cdc47124542908de4e4448da69e4870f34e4b5d4286d"
          ],
          "data": "0x0000000000000000000000000000000000000000000000000000000000000000000000000000000000000000000000000000000000000000000000000754d4c0000000000000000000000000000000000000000000000000000000000754d4c000000000000000000000000000000000000000000000000000000000000000000000000000000000000000000000000000000000000000000000000000000000000000000000000000000000000000000000000000000000000000000000000100000000000000000000000000000000000000000000000000000000000000000000000000000000000000000000000000000000000000000000000000000000c5d2460186f7233c927e7db2dcc703c0e500b653ca82273b7bfad8045d85a470",
          "blockHash": "0x603b3e7d2c58aa9282091b36f10e17fc82472da9ac2a3844834e1bb43efe6473",
          "blockNumber": "0x1b",
          "blockTimestamp": "0x69666f49",
          "transactionHash": "0x7c502ac501942dd735dc0196df91cdd500c49f19f4e20e4085b732afdc2226c7",
          "transactionIndex": "0x0",
          "logIndex": "0x6",
          "removed": false
        },
        {
          "address": "0x8828fd7431d5bb1962d7e067c103b2324fa6bbec",
          "topics": [
            "0x78160f0b1b2b32b52a0076d8f0f70888687ba702a4d993d55ac8d9327d57a127",
            "0x000000000000000000000000000000000000000000000000000000000000000b",
            "0x2192fe50bf6d53260b53d448237801f203cc5610c9bbf3f68e19693babc82096",
            "0xa4da01eddabbcaac5f4b976928a096a48bb5e640f90d5cf79b99f8ee9cf7c7c6"
          ],
          "data": "0x2e659081f44c4f56a18b00f3f9d136d7ee8396bc79163c4d61363ddcf4a4cb27000000000000000000000000000000000000000000000000000000000000004000000000000000000000000000000000000000000000000000000000000001404ce9a4626b22b1c0a7d8cdc47124542908de4e4448da69e4870f34e4b5d4286d0000000000000000000000000000000000000000000000000000000000000000000000000000000000000000000000000000000000000000000000000754d4c0000000000000000000000000000000000000000000000000000000000754d4c000000000000000000000000000000000000000000000000000000000000000000000000000000000000000000000000000000000000000000000000000000000000000000000000000000000000000000000000000000000000000000000000100000000000000000000000000000000000000000000000000000000000000000000000000000000000000000000000000000000000000000000000000000000c5d2460186f7233c927e7db2dcc703c0e500b653ca82273b7bfad8045d85a470",
          "blockHash": "0x603b3e7d2c58aa9282091b36f10e17fc82472da9ac2a3844834e1bb43efe6473",
          "blockNumber": "0x1b",
          "blockTimestamp": "0x69666f49",
          "transactionHash": "0x7c502ac501942dd735dc0196df91cdd500c49f19f4e20e4085b732afdc2226c7",
          "transactionIndex": "0x0",
          "logIndex": "0x7",
          "removed": false
        }
      ],
      "logsBloom": "0x00000001008000000000004000000000000000000800020000000000000000000000000000000000000081000208000000000000040080000020000000240000001000200284000000000000000000800000000004040000080000000000000100000020000810100000000000000008000001000000000000000000000000000080000000000000010000000000000000001000000000000000000000010000000000000000400000000000000000001000001010000000000100000400000040000080000000000100024000002000002400000000000400000000400040000020000000001000000000000000000100000000000010040800000000804000",
      "type": "0x0",
      "transactionHash": "0x7c502ac501942dd735dc0196df91cdd500c49f19f4e20e4085b732afdc2226c7",
      "transactionIndex": "0x0",
      "blockHash": "0x603b3e7d2c58aa9282091b36f10e17fc82472da9ac2a3844834e1bb43efe6473",
      "blockNumber": "0x1b",
      "gasUsed": "0x30384",
      "effectiveGasPrice": "0x3b9aca00",
      "blobGasPrice": "0x1",
      "from": "0xd289d1387ae1033a703842d69501d5bec5a6f04e",
      "to": "0x8828fd7431d5bb1962d7e067c103b2324fa6bbec",
      "contractAddress": null
    },
    {
      "status": "0x1",
      "cumulativeGasUsed": "0xac60",
      "logs": [],
      "logsBloom": "0x00000000000000000000000000000000000000000000000000000000000000000000000000000000000000000000000000000000000000000000000000000000000000000000000000000000000000000000000000000000000000000000000000000000000000000000000000000000000000000000000000000000000000000000000000000000000000000000000000000000000000000000000000000000000000000000000000000000000000000000000000000000000000000000000000000000000000000000000000000000000000000000000000000000000000000000000000000000000000000000000000000000000000000000000000000000",
      "type": "0x0",
      "transactionHash": "0x36d01de7490a4bb86e8cf80cb286ddabd66ba87a04de7c38e917290146251b60",
      "transactionIndex": "0x0",
      "blockHash": "0xb6a79a4bce7299617eba78c54ebfe17a8ee804d9db1a858bb0f1fa1ce6b31130",
      "blockNumber": "0x1c",
      "gasUsed": "0xac60",
      "effectiveGasPrice": "0x3b9aca00",
      "blobGasPrice": "0x1",
      "from": "0xd289d1387ae1033a703842d69501d5bec5a6f04e",
      "to": "0x4d4adec97e3e11693f65dedc2d1e6bec784eb2f1",
      "contractAddress": null
    },
    {
      "status": "0x1",
      "cumulativeGasUsed": "0x3df00",
      "logs": [
        {
          "address": "0x8828fd7431d5bb1962d7e067c103b2324fa6bbec",
          "topics": [
            "0x7391f14355eff1e559e381f5bf49886a77da7c4fdd33c6fc2e0142269c561c59",
            "0xa62b8a7c2f7d736c926aaf6211629e032489b72fb1ef32cf9bc92754aca6fdf5",
            "0xdd7cb67cbc9b2e724e3c3436ed7f91b70ab95f42de0014b70c9f2f9eb7380bb7",
            "0x0000000000000000000000000000000000000000000000000000000000000002"
          ],
          "data": "0x0000000000000000000000000000000000000000000000000000000000000000000000000000000000000000000000000000000000000000000000000000006f000000000000000000000000d59d27b9172ad056cb5c008dc2bbefe702123a55000000000000000000000000000000000000000000000000000000000000000000000000000000000000000000000000000000000000000000000000000000000000000000000000000000004d4adec97e3e11693f65dedc2d1e6bec784eb2f1000000000000000000000000f86c23c1e883ee3b820fb9be75ff91c9a49eae750000000000000000000000002023a9ae4d68fea5b1bef01f207b249c9f2cecbf00000000000000000000000024cd17a955b086861800bac8dd1a6796419bfd2b",
          "blockHash": "0xa69b650597934bb5a78d39f9ddb475bd46b2be27ed82f9721fd98661fdfe186c",
          "blockNumber": "0x1d",
          "blockTimestamp": "0x69666f4b",
          "transactionHash": "0xaedae0178498b2a31bbe450105e800c9fe3ec7f30955749b5cdc3c7afe91bcbf",
          "transactionIndex": "0x0",
          "logIndex": "0x0",
          "removed": false
        },
        {
          "address": "0x8828fd7431d5bb1962d7e067c103b2324fa6bbec",
          "topics": [
            "0x78160f0b1b2b32b52a0076d8f0f70888687ba702a4d993d55ac8d9327d57a127",
            "0x000000000000000000000000000000000000000000000000000000000000000c",
            "0xa4da01eddabbcaac5f4b976928a096a48bb5e640f90d5cf79b99f8ee9cf7c7c6",
            "0x664db1ae90d87482c528ef6b15a123b319358068555962a42a0428dc97bda589"
          ],
          "data": "0x7391f14355eff1e559e381f5bf49886a77da7c4fdd33c6fc2e0142269c561c5900000000000000000000000000000000000000000000000000000000000000400000000000000000000000000000000000000000000000000000000000000180a62b8a7c2f7d736c926aaf6211629e032489b72fb1ef32cf9bc92754aca6fdf5dd7cb67cbc9b2e724e3c3436ed7f91b70ab95f42de0014b70c9f2f9eb7380bb700000000000000000000000000000000000000000000000000000000000000020000000000000000000000000000000000000000000000000000000000000000000000000000000000000000000000000000000000000000000000000000006f000000000000000000000000d59d27b9172ad056cb5c008dc2bbefe702123a55000000000000000000000000000000000000000000000000000000000000000000000000000000000000000000000000000000000000000000000000000000000000000000000000000000004d4adec97e3e11693f65dedc2d1e6bec784eb2f1000000000000000000000000f86c23c1e883ee3b820fb9be75ff91c9a49eae750000000000000000000000002023a9ae4d68fea5b1bef01f207b249c9f2cecbf00000000000000000000000024cd17a955b086861800bac8dd1a6796419bfd2b",
          "blockHash": "0xa69b650597934bb5a78d39f9ddb475bd46b2be27ed82f9721fd98661fdfe186c",
          "blockNumber": "0x1d",
          "blockTimestamp": "0x69666f4b",
          "transactionHash": "0xaedae0178498b2a31bbe450105e800c9fe3ec7f30955749b5cdc3c7afe91bcbf",
          "transactionIndex": "0x0",
          "logIndex": "0x1",
          "removed": false
        },
        {
          "address": "0x8828fd7431d5bb1962d7e067c103b2324fa6bbec",
          "topics": [
            "0x488f06a9ca9e19e1dd90c764cc79b765e8a3a089ef27d9a0e39dee21c7643188",
            "0x0e3586f09a71dfe09b3b3bcf08e01e416e0e8e5ee62f256b89c3b61783a12acd",
            "0x00000000000000000000000024cd17a955b086861800bac8dd1a6796419bfd2b"
          ],
          "data": "0x000000000000000000000000e007a594267d5b9a4f5bf6fd054579eb82f5a057",
          "blockHash": "0xa69b650597934bb5a78d39f9ddb475bd46b2be27ed82f9721fd98661fdfe186c",
          "blockNumber": "0x1d",
          "blockTimestamp": "0x69666f4b",
          "transactionHash": "0xaedae0178498b2a31bbe450105e800c9fe3ec7f30955749b5cdc3c7afe91bcbf",
          "transactionIndex": "0x0",
          "logIndex": "0x2",
          "removed": false
        },
        {
          "address": "0x8828fd7431d5bb1962d7e067c103b2324fa6bbec",
          "topics": [
            "0x78160f0b1b2b32b52a0076d8f0f70888687ba702a4d993d55ac8d9327d57a127",
            "0x000000000000000000000000000000000000000000000000000000000000000d",
            "0x664db1ae90d87482c528ef6b15a123b319358068555962a42a0428dc97bda589",
            "0xdd51a78abc1ccf687b003bda73b7a0a7d8bba0b7c6761b017089cde4f43fd7ab"
          ],
          "data": "0x488f06a9ca9e19e1dd90c764cc79b765e8a3a089ef27d9a0e39dee21c7643188000000000000000000000000000000000000000000000000000000000000004000000000000000000000000000000000000000000000000000000000000000600e3586f09a71dfe09b3b3bcf08e01e416e0e8e5ee62f256b89c3b61783a12acd00000000000000000000000024cd17a955b086861800bac8dd1a6796419bfd2b000000000000000000000000e007a594267d5b9a4f5bf6fd054579eb82f5a057",
          "blockHash": "0xa69b650597934bb5a78d39f9ddb475bd46b2be27ed82f9721fd98661fdfe186c",
          "blockNumber": "0x1d",
          "blockTimestamp": "0x69666f4b",
          "transactionHash": "0xaedae0178498b2a31bbe450105e800c9fe3ec7f30955749b5cdc3c7afe91bcbf",
          "transactionIndex": "0x0",
          "logIndex": "0x3",
          "removed": false
        },
        {
          "address": "0x8828fd7431d5bb1962d7e067c103b2324fa6bbec",
          "topics": [
            "0x2f4c76c8d18f45069b0941499205a7fceaaa3caf9e2e6328f6a544cd339120f3",
            "0xa62b8a7c2f7d736c926aaf6211629e032489b72fb1ef32cf9bc92754aca6fdf5",
            "0x0000000000000000000000004d4adec97e3e11693f65dedc2d1e6bec784eb2f1",
            "0x000000000000000000000000f86c23c1e883ee3b820fb9be75ff91c9a49eae75"
          ],
          "data": "0x00000000000000000000000000000000000000000000000000000000055d4a800000000000000000000000000000000000000000000000000000000005f5e100",
          "blockHash": "0xa69b650597934bb5a78d39f9ddb475bd46b2be27ed82f9721fd98661fdfe186c",
          "blockNumber": "0x1d",
          "blockTimestamp": "0x69666f4b",
          "transactionHash": "0xaedae0178498b2a31bbe450105e800c9fe3ec7f30955749b5cdc3c7afe91bcbf",
          "transactionIndex": "0x0",
          "logIndex": "0x4",
          "removed": false
        },
        {
          "address": "0x8828fd7431d5bb1962d7e067c103b2324fa6bbec",
          "topics": [
            "0x78160f0b1b2b32b52a0076d8f0f70888687ba702a4d993d55ac8d9327d57a127",
            "0x000000000000000000000000000000000000000000000000000000000000000e",
            "0xdd51a78abc1ccf687b003bda73b7a0a7d8bba0b7c6761b017089cde4f43fd7ab",
            "0x17885989a493aa928aee4b1c7c0ed3b162bc9fe2772aae18bb9820183a8475a9"
          ],
          "data": "0x2f4c76c8d18f45069b0941499205a7fceaaa3caf9e2e6328f6a544cd339120f3000000000000000000000000000000000000000000000000000000000000004000000000000000000000000000000000000000000000000000000000000000a0a62b8a7c2f7d736c926aaf6211629e032489b72fb1ef32cf9bc92754aca6fdf50000000000000000000000004d4adec97e3e11693f65dedc2d1e6bec784eb2f1000000000000000000000000f86c23c1e883ee3b820fb9be75ff91c9a49eae7500000000000000000000000000000000000000000000000000000000055d4a800000000000000000000000000000000000000000000000000000000005f5e100",
          "blockHash": "0xa69b650597934bb5a78d39f9ddb475bd46b2be27ed82f9721fd98661fdfe186c",
          "blockNumber": "0x1d",
          "blockTimestamp": "0x69666f4b",
          "transactionHash": "0xaedae0178498b2a31bbe450105e800c9fe3ec7f30955749b5cdc3c7afe91bcbf",
          "transactionIndex": "0x0",
          "logIndex": "0x5",
          "removed": false
        },
        {
          "address": "0x8828fd7431d5bb1962d7e067c103b2324fa6bbec",
          "topics": [
            "0x2e659081f44c4f56a18b00f3f9d136d7ee8396bc79163c4d61363ddcf4a4cb27",
            "0xa62b8a7c2f7d736c926aaf6211629e032489b72fb1ef32cf9bc92754aca6fdf5"
          ],
          "data": "0x00000000000000000000000000000000000000000000000000000000000000000000000000000000000000000000000000000000000000000000000005f5e10000000000000000000000000000000000000000000000000000000000055d4a8000000000000000000000000000000000000000000000000000000000009896800000000000000000000000000000000000000000000000000000000000000000000000000000000000000000000000000000000000000000000000000000000100000000000000000000000000000000000000000000000000000000000000000000000000000000000000000000000000000000000000000000000000000000c5d2460186f7233c927e7db2dcc703c0e500b653ca82273b7bfad8045d85a470",
          "blockHash": "0xa69b650597934bb5a78d39f9ddb475bd46b2be27ed82f9721fd98661fdfe186c",
          "blockNumber": "0x1d",
          "blockTimestamp": "0x69666f4b",
          "transactionHash": "0xaedae0178498b2a31bbe450105e800c9fe3ec7f30955749b5cdc3c7afe91bcbf",
          "transactionIndex": "0x0",
          "logIndex": "0x6",
          "removed": false
        },
        {
          "address": "0x8828fd7431d5bb1962d7e067c103b2324fa6bbec",
          "topics": [
            "0x78160f0b1b2b32b52a0076d8f0f70888687ba702a4d993d55ac8d9327d57a127",
            "0x000000000000000000000000000000000000000000000000000000000000000f",
            "0x17885989a493aa928aee4b1c7c0ed3b162bc9fe2772aae18bb9820183a8475a9",
            "0xc18bb74de405a67c40643f1840e10d7fac560b7e5dae00e5379847288a78d67c"
          ],
          "data": "0x2e659081f44c4f56a18b00f3f9d136d7ee8396bc79163c4d61363ddcf4a4cb2700000000000000000000000000000000000000000000000000000000000000400000000000000000000000000000000000000000000000000000000000000140a62b8a7c2f7d736c926aaf6211629e032489b72fb1ef32cf9bc92754aca6fdf500000000000000000000000000000000000000000000000000000000000000000000000000000000000000000000000000000000000000000000000005f5e10000000000000000000000000000000000000000000000000000000000055d4a8000000000000000000000000000000000000000000000000000000000009896800000000000000000000000000000000000000000000000000000000000000000000000000000000000000000000000000000000000000000000000000000000100000000000000000000000000000000000000000000000000000000000000000000000000000000000000000000000000000000000000000000000000000000c5d2460186f7233c927e7db2dcc703c0e500b653ca82273b7bfad8045d85a470",
          "blockHash": "0xa69b650597934bb5a78d39f9ddb475bd46b2be27ed82f9721fd98661fdfe186c",
          "blockNumber": "0x1d",
          "blockTimestamp": "0x69666f4b",
          "transactionHash": "0xaedae0178498b2a31bbe450105e800c9fe3ec7f30955749b5cdc3c7afe91bcbf",
          "transactionIndex": "0x0",
          "logIndex": "0x7",
          "removed": false
        }
      ],
      "logsBloom": "0x04000003000028000040000000000000000002000800020000800400000000000000000000000200000000400200000000008000000000000000000000200000001000000280000808000000000000800002002000000000080020000002000000000020000800002000000000000008000000000000000080000000000000000000000000000880001040000000000028000000004000000008000100040000000000000000400000000100000000080000000010000020200100000400000000000000000008000100000000000000000000000800000408000000000000220000090200000000000000000008000100000000008000000000010000004000",
      "type": "0x0",
      "transactionHash": "0xaedae0178498b2a31bbe450105e800c9fe3ec7f30955749b5cdc3c7afe91bcbf",
      "transactionIndex": "0x0",
      "blockHash": "0xa69b650597934bb5a78d39f9ddb475bd46b2be27ed82f9721fd98661fdfe186c",
      "blockNumber": "0x1d",
      "gasUsed": "0x3df00",
      "effectiveGasPrice": "0x3b9aca00",
      "blobGasPrice": "0x1",
      "from": "0xd289d1387ae1033a703842d69501d5bec5a6f04e",
      "to": "0x8828fd7431d5bb1962d7e067c103b2324fa6bbec",
      "contractAddress": null
    },
    {
      "status": "0x1",
      "cumulativeGasUsed": "0x6994",
      "logs": [],
      "logsBloom": "0x00000000000000000000000000000000000000000000000000000000000000000000000000000000000000000000000000000000000000000000000000000000000000000000000000000000000000000000000000000000000000000000000000000000000000000000000000000000000000000000000000000000000000000000000000000000000000000000000000000000000000000000000000000000000000000000000000000000000000000000000000000000000000000000000000000000000000000000000000000000000000000000000000000000000000000000000000000000000000000000000000000000000000000000000000000000",
      "type": "0x0",
      "transactionHash": "0x673bfefe6dd9f3d7d5ccd91876f25c4f64567d358831d72e246a1f258d337556",
      "transactionIndex": "0x0",
      "blockHash": "0xcaebc0ff62342b8cb96bc65b3d763df36a84d4078473fb550407fd877a654caa",
      "blockNumber": "0x1e",
      "gasUsed": "0x6994",
      "effectiveGasPrice": "0x3b9aca00",
      "blobGasPrice": "0x1",
      "from": "0xd289d1387ae1033a703842d69501d5bec5a6f04e",
      "to": "0xf86c23c1e883ee3b820fb9be75ff91c9a49eae75",
      "contractAddress": null
    },
    {
      "status": "0x1",
      "cumulativeGasUsed": "0xad94",
      "logs": [],
      "logsBloom": "0x00000000000000000000000000000000000000000000000000000000000000000000000000000000000000000000000000000000000000000000000000000000000000000000000000000000000000000000000000000000000000000000000000000000000000000000000000000000000000000000000000000000000000000000000000000000000000000000000000000000000000000000000000000000000000000000000000000000000000000000000000000000000000000000000000000000000000000000000000000000000000000000000000000000000000000000000000000000000000000000000000000000000000000000000000000000",
      "type": "0x0",
      "transactionHash": "0x1193618ca7c4b0908d28701f918a6c723fe1f7d16a10b1871df5bce92b307e0e",
      "transactionIndex": "0x0",
      "blockHash": "0xdb853bc8701917bf758796209e042aadd13ea6b263e13ffbeb3233acb1daf92d",
      "blockNumber": "0x1f",
      "gasUsed": "0xad94",
      "effectiveGasPrice": "0x3b9aca00",
      "blobGasPrice": "0x1",
      "from": "0xd289d1387ae1033a703842d69501d5bec5a6f04e",
      "to": "0xf86c23c1e883ee3b820fb9be75ff91c9a49eae75",
      "contractAddress": null
    },
    {
      "status": "0x1",
      "cumulativeGasUsed": "0x52d69",
      "logs": [
        {
          "address": "0x048255dfef2ebfa7307058ae475a3e2f5ee0df46",
          "topics": [
            "0x6f81b8ad0780a0febc687a3a73b181433722b4be30f7f0a024169f5161267287",
            "0x0990167faf6c9b4facf6d48fd977041d51cc04bdc7f140737f4cf38ae3cef465",
            "0x000000000000000000000000d289d1387ae1033a703842d69501d5bec5a6f04e"
          ],
          "data": "0x0000000000000000000000000000000000000000000000000000000000000000000000000000000000000000f86c23c1e883ee3b820fb9be75ff91c9a49eae7500000000000000000000000000000000000000000000000000000000004c4b40000000000000000000000000d289d1387ae1033a703842d69501d5bec5a6f04e0000000000000000000000000000000000000000000000000000000069666ef300000000000000000000000000000000000000000000000000000000000000c000000000000000000000000000000000000000000000000000000000000000a000000000000000000000000000000000000000000000000000000000000000200000000000000000000000002db97a32d5ce8d79f7b7fdc607584a7a35da5e0d00000000000000000000000000000000000000000000000000000000000000400000000000000000000000000000000000000000000000000000000000000002abcd000000000000000000000000000000000000000000000000000000000000",
          "blockHash": "0x0e2013ec49c4cd179f5bbd7b7c86e33d0fc95a53857f15a8cdd27de1be01e6f3",
          "blockNumber": "0x20",
          "blockTimestamp": "0x69666f4e",
          "transactionHash": "0x77cf630a786c6fa94d68d97717ca43cddf2e9859986d9cf3a51898b7f956cd62",
          "transactionIndex": "0x0",
          "logIndex": "0x0",
          "removed": false
        },
        {
          "address": "0x048255dfef2ebfa7307058ae475a3e2f5ee0df46",
          "topics": [
            "0x78160f0b1b2b32b52a0076d8f0f70888687ba702a4d993d55ac8d9327d57a127",
            "0x0000000000000000000000000000000000000000000000000000000000000004",
            "0xcf2a0caf020d99ede3d2361c4f42c1cd379890e0e31bcfeb9550d0bad2983c1f",
            "0x908a96f1d1b6248254d266218c44e1f31f1bf32d3ba3c55d298230c0a286d888"
          ],
          "data": "0x6f81b8ad0780a0febc687a3a73b181433722b4be30f7f0a024169f5161267287000000000000000000000000000000000000000000000000000000000000004000000000000000000000000000000000000000000000000000000000000001c00990167faf6c9b4facf6d48fd977041d51cc04bdc7f140737f4cf38ae3cef465000000000000000000000000d289d1387ae1033a703842d69501d5bec5a6f04e0000000000000000000000000000000000000000000000000000000000000000000000000000000000000000f86c23c1e883ee3b820fb9be75ff91c9a49eae7500000000000000000000000000000000000000000000000000000000004c4b40000000000000000000000000d289d1387ae1033a703842d69501d5bec5a6f04e0000000000000000000000000000000000000000000000000000000069666ef3000000000000000000000000000000000000000000000000000000000000010000000000000000000000000000000000000000000000000000000000000000a000000000000000000000000000000000000000000000000000000000000000200000000000000000000000002db97a32d5ce8d79f7b7fdc607584a7a35da5e0d00000000000000000000000000000000000000000000000000000000000000400000000000000000000000000000000000000000000000000000000000000002abcd000000000000000000000000000000000000000000000000000000000000",
          "blockHash": "0x0e2013ec49c4cd179f5bbd7b7c86e33d0fc95a53857f15a8cdd27de1be01e6f3",
          "blockNumber": "0x20",
          "blockTimestamp": "0x69666f4e",
          "transactionHash": "0x77cf630a786c6fa94d68d97717ca43cddf2e9859986d9cf3a51898b7f956cd62",
          "transactionIndex": "0x0",
          "logIndex": "0x1",
          "removed": false
        },
        {
          "address": "0x048255dfef2ebfa7307058ae475a3e2f5ee0df46",
          "topics": [
            "0x0544741ff6f2708047138c8f3a68abb994e628666dba785f685ff1035274f9fb",
            "0x0990167faf6c9b4facf6d48fd977041d51cc04bdc7f140737f4cf38ae3cef465",
            "0x000000000000000000000000d289d1387ae1033a703842d69501d5bec5a6f04e"
          ],
          "data": "0x000000000000000000000000f86c23c1e883ee3b820fb9be75ff91c9a49eae7500000000000000000000000000000000000000000000000000000000004c4b40",
          "blockHash": "0x0e2013ec49c4cd179f5bbd7b7c86e33d0fc95a53857f15a8cdd27de1be01e6f3",
          "blockNumber": "0x20",
          "blockTimestamp": "0x69666f4e",
          "transactionHash": "0x77cf630a786c6fa94d68d97717ca43cddf2e9859986d9cf3a51898b7f956cd62",
          "transactionIndex": "0x0",
          "logIndex": "0x2",
          "removed": false
        },
        {
          "address": "0x048255dfef2ebfa7307058ae475a3e2f5ee0df46",
          "topics": [
            "0x78160f0b1b2b32b52a0076d8f0f70888687ba702a4d993d55ac8d9327d57a127",
            "0x0000000000000000000000000000000000000000000000000000000000000005",
            "0x908a96f1d1b6248254d266218c44e1f31f1bf32d3ba3c55d298230c0a286d888",
            "0x7e10b284a4028008228e98966e311594602be29da5b458763389a2867d4e8a62"
          ],
          "data": "0x0544741ff6f2708047138c8f3a68abb994e628666dba785f685ff1035274f9fb000000000000000000000000000000000000000000000000000000000000004000000000000000000000000000000000000000000000000000000000000000800990167faf6c9b4facf6d48fd977041d51cc04bdc7f140737f4cf38ae3cef465000000000000000000000000d289d1387ae1033a703842d69501d5bec5a6f04e000000000000000000000000f86c23c1e883ee3b820fb9be75ff91c9a49eae7500000000000000000000000000000000000000000000000000000000004c4b40",
          "blockHash": "0x0e2013ec49c4cd179f5bbd7b7c86e33d0fc95a53857f15a8cdd27de1be01e6f3",
          "blockNumber": "0x20",
          "blockTimestamp": "0x69666f4e",
          "transactionHash": "0x77cf630a786c6fa94d68d97717ca43cddf2e9859986d9cf3a51898b7f956cd62",
          "transactionIndex": "0x0",
          "logIndex": "0x3",
          "removed": false
        }
      ],
      "logsBloom": "0x00000000002000000000000000000000000000000000000000000000000000000000000000000000000000000000000000000000000000000000000000200000000010000000000004000000000000000004000100000000000000000000040008000000000804004000000000000000000000000000000000000000008000020000000000000000000000000000001000000800000000000000000000000000000000000001000000000020001120000000200200000000202000000000000020002000400000000000020000000000000200008200000000000000000000000000000000000000000000000000100000000000000000000000000000004000",
      "type": "0x0",
      "transactionHash": "0x77cf630a786c6fa94d68d97717ca43cddf2e9859986d9cf3a51898b7f956cd62",
      "transactionIndex": "0x0",
      "blockHash": "0x0e2013ec49c4cd179f5bbd7b7c86e33d0fc95a53857f15a8cdd27de1be01e6f3",
      "blockNumber": "0x20",
      "gasUsed": "0x52d69",
      "effectiveGasPrice": "0x3b9aca00",
      "blobGasPrice": "0x1",
      "from": "0xd289d1387ae1033a703842d69501d5bec5a6f04e",
      "to": "0x048255dfef2ebfa7307058ae475a3e2f5ee0df46",
      "contractAddress": null
    },
    {
      "status": "0x1",
      "cumulativeGasUsed": "0xac60",
      "logs": [],
      "logsBloom": "0x00000000000000000000000000000000000000000000000000000000000000000000000000000000000000000000000000000000000000000000000000000000000000000000000000000000000000000000000000000000000000000000000000000000000000000000000000000000000000000000000000000000000000000000000000000000000000000000000000000000000000000000000000000000000000000000000000000000000000000000000000000000000000000000000000000000000000000000000000000000000000000000000000000000000000000000000000000000000000000000000000000000000000000000000000000000",
      "type": "0x0",
      "transactionHash": "0x05c2317c0bed7f97c38ae0b6aa48987e4d1c267ba584761ea2ba850fb1afe1f8",
      "transactionIndex": "0x0",
      "blockHash": "0x74b80d44eb76958ef919430653ffb5ad7ae4bdedf98382cd15b9da47bd4db7ff",
      "blockNumber": "0x21",
      "gasUsed": "0xac60",
      "effectiveGasPrice": "0x3b9aca00",
      "blobGasPrice": "0x1",
      "from": "0xd289d1387ae1033a703842d69501d5bec5a6f04e",
      "to": "0x4d4adec97e3e11693f65dedc2d1e6bec784eb2f1",
      "contractAddress": null
    },
    {
      "status": "0x1",
      "cumulativeGasUsed": "0xad94",
      "logs": [],
      "logsBloom": "0x00000000000000000000000000000000000000000000000000000000000000000000000000000000000000000000000000000000000000000000000000000000000000000000000000000000000000000000000000000000000000000000000000000000000000000000000000000000000000000000000000000000000000000000000000000000000000000000000000000000000000000000000000000000000000000000000000000000000000000000000000000000000000000000000000000000000000000000000000000000000000000000000000000000000000000000000000000000000000000000000000000000000000000000000000000000",
      "type": "0x0",
      "transactionHash": "0x6e9d34b314c8968de06008f1c77284b05427bc4f4fbcbe14eea5cd6f91441a9f",
      "transactionIndex": "0x0",
      "blockHash": "0xe590f9b797dfac5f1d19d3222005588a8ed95ade2b3a88c293fa097b01183fa7",
      "blockNumber": "0x22",
      "gasUsed": "0xad94",
      "effectiveGasPrice": "0x3b9aca00",
      "blobGasPrice": "0x1",
      "from": "0xd289d1387ae1033a703842d69501d5bec5a6f04e",
      "to": "0x4d4adec97e3e11693f65dedc2d1e6bec784eb2f1",
      "contractAddress": null
    },
    {
      "status": "0x1",
      "cumulativeGasUsed": "0x17623",
      "logs": [
        {
          "address": "0x048255dfef2ebfa7307058ae475a3e2f5ee0df46",
          "topics": [
            "0xbc3f7b7e77a395c156c24db8a8a7850209b2df71a2561292eea221e32bf5d467",
            "0x0990167faf6c9b4facf6d48fd977041d51cc04bdc7f140737f4cf38ae3cef465",
            "0x000000000000000000000000d289d1387ae1033a703842d69501d5bec5a6f04e"
          ],
          "data": "0x00000000000000000000000000000000000000000000000000000000000f4240",
          "blockHash": "0x448d4d25bd24540c614e3cf6cb60347840b02adc618dd09a18206537fa1d49db",
          "blockNumber": "0x23",
          "blockTimestamp": "0x69666f51",
          "transactionHash": "0x0884498f805f1c6766079fef76b6173a61d21a5c85512c471c289ed216d8afe8",
          "transactionIndex": "0x0",
          "logIndex": "0x0",
          "removed": false
        },
        {
          "address": "0x048255dfef2ebfa7307058ae475a3e2f5ee0df46",
          "topics": [
            "0x78160f0b1b2b32b52a0076d8f0f70888687ba702a4d993d55ac8d9327d57a127",
            "0x0000000000000000000000000000000000000000000000000000000000000006",
            "0x7e10b284a4028008228e98966e311594602be29da5b458763389a2867d4e8a62",
            "0xcfc3c4770ed1a742d901065d81a08e050164e6b95464f5fc1e7b763e421b64a6"
          ],
          "data": "0xbc3f7b7e77a395c156c24db8a8a7850209b2df71a2561292eea221e32bf5d467000000000000000000000000000000000000000000000000000000000000004000000000000000000000000000000000000000000000000000000000000000600990167faf6c9b4facf6d48fd977041d51cc04bdc7f140737f4cf38ae3cef465000000000000000000000000d289d1387ae1033a703842d69501d5bec5a6f04e00000000000000000000000000000000000000000000000000000000000f4240",
          "blockHash": "0x448d4d25bd24540c614e3cf6cb60347840b02adc618dd09a18206537fa1d49db",
          "blockNumber": "0x23",
          "blockTimestamp": "0x69666f51",
          "transactionHash": "0x0884498f805f1c6766079fef76b6173a61d21a5c85512c471c289ed216d8afe8",
          "transactionIndex": "0x0",
          "logIndex": "0x1",
          "removed": false
        }
      ],
      "logsBloom": "0x00000000002000002000000000000000000000000000000000000000000000000000000000000000000000000000000000000000000400000000000000200000000000000000000004000000000000000000000000000004000000000000040000000040000800004000000000000000000000000000000000000000000000020000000400000000000000000000000000000000000000000000000000000000000000000000000000000000000120000000000200000010000000080000000000000000400000000000000000000000000200001200000000000000000000000000000000000000000000000000100000000000000000000000000000004002",
      "type": "0x0",
      "transactionHash": "0x0884498f805f1c6766079fef76b6173a61d21a5c85512c471c289ed216d8afe8",
      "transactionIndex": "0x0",
      "blockHash": "0x448d4d25bd24540c614e3cf6cb60347840b02adc618dd09a18206537fa1d49db",
      "blockNumber": "0x23",
      "gasUsed": "0x17623",
      "effectiveGasPrice": "0x3b9aca00",
      "blobGasPrice": "0x1",
      "from": "0xd289d1387ae1033a703842d69501d5bec5a6f04e",
      "to": "0x048255dfef2ebfa7307058ae475a3e2f5ee0df46",
      "contractAddress": null
    },
    {
      "status": "0x1",
      "cumulativeGasUsed": "0x121f6",
      "logs": [],
      "logsBloom": "0x00000000000000000000000000000000000000000000000000000000000000000000000000000000000000000000000000000000000000000000000000000000000000000000000000000000000000000000000000000000000000000000000000000000000000000000000000000000000000000000000000000000000000000000000000000000000000000000000000000000000000000000000000000000000000000000000000000000000000000000000000000000000000000000000000000000000000000000000000000000000000000000000000000000000000000000000000000000000000000000000000000000000000000000000000000000",
      "type": "0x0",
      "transactionHash": "0x595680c106d52df9f0bf9c3c73426e9007f0bb5985b65f9337516ed69ef1b049",
      "transactionIndex": "0x0",
      "blockHash": "0x0eef7441fdbf72f5976a9f5401f85d03b6ae20797d880cd42f4f92e7a3741b32",
      "blockNumber": "0x24",
      "gasUsed": "0x121f6",
      "effectiveGasPrice": "0x3b9aca00",
      "blobGasPrice": "0x1",
      "from": "0xd289d1387ae1033a703842d69501d5bec5a6f04e",
      "to": "0x8c16d2f19a034b7281254f5656c2d1461c6ceb9a",
      "contractAddress": null
    },
    {
      "status": "0x1",
      "cumulativeGasUsed": "0x2a95a",
      "logs": [
        {
          "address": "0x048255dfef2ebfa7307058ae475a3e2f5ee0df46",
          "topics": [
            "0xfa797585c9827d59a7694ef382241f1a03ced6a1a2b4353b35939abc4d04b286",
            "0x0990167faf6c9b4facf6d48fd977041d51cc04bdc7f140737f4cf38ae3cef465",
            "0x000000000000000000000000d289d1387ae1033a703842d69501d5bec5a6f04e"
          ],
          "data": "0x00000000000000000000000000000000000000000000000000000000000000000000000000000000000000000000000000000000000000000000000000000000",
          "blockHash": "0x09c5d828fdf28ca84b3aba9fd931cdb2782faccac27b885b83777a6fb786b686",
          "blockNumber": "0x25",
          "blockTimestamp": "0x69666f53",
          "transactionHash": "0x852e7357de387014c3e3d8761ede7aa2b75fd21a731fe34ff299a97acf17136b",
          "transactionIndex": "0x0",
          "logIndex": "0x0",
          "removed": false
        },
        {
          "address": "0x048255dfef2ebfa7307058ae475a3e2f5ee0df46",
          "topics": [
            "0x78160f0b1b2b32b52a0076d8f0f70888687ba702a4d993d55ac8d9327d57a127",
            "0x0000000000000000000000000000000000000000000000000000000000000007",
            "0xcfc3c4770ed1a742d901065d81a08e050164e6b95464f5fc1e7b763e421b64a6",
            "0x0fe9832335db40b22bdc95dbf6613766fe157b753b68f35ab62f51321fb38621"
          ],
          "data": "0xfa797585c9827d59a7694ef382241f1a03ced6a1a2b4353b35939abc4d04b286000000000000000000000000000000000000000000000000000000000000004000000000000000000000000000000000000000000000000000000000000000800990167faf6c9b4facf6d48fd977041d51cc04bdc7f140737f4cf38ae3cef465000000000000000000000000d289d1387ae1033a703842d69501d5bec5a6f04e00000000000000000000000000000000000000000000000000000000000000000000000000000000000000000000000000000000000000000000000000000000",
          "blockHash": "0x09c5d828fdf28ca84b3aba9fd931cdb2782faccac27b885b83777a6fb786b686",
          "blockNumber": "0x25",
          "blockTimestamp": "0x69666f53",
          "transactionHash": "0x852e7357de387014c3e3d8761ede7aa2b75fd21a731fe34ff299a97acf17136b",
          "transactionIndex": "0x0",
          "logIndex": "0x1",
          "removed": false
        },
        {
          "address": "0x048255dfef2ebfa7307058ae475a3e2f5ee0df46",
          "topics": [
            "0x16bfb64ae70b8a9bbda28deb27a1cbc5ec3e6497481714344c221b46c0777f35",
            "0x0990167faf6c9b4facf6d48fd977041d51cc04bdc7f140737f4cf38ae3cef465",
            "0x000000000000000000000000d289d1387ae1033a703842d69501d5bec5a6f04e"
          ],
          "data": "0x000000000000000000000000f86c23c1e883ee3b820fb9be75ff91c9a49eae7500000000000000000000000000000000000000000000000000000000004c4b400000000000000000000000004d4adec97e3e11693f65dedc2d1e6bec784eb2f100000000000000000000000000000000000000000000000000000000000f4240",
          "blockHash": "0x09c5d828fdf28ca84b3aba9fd931cdb2782faccac27b885b83777a6fb786b686",
          "blockNumber": "0x25",
          "blockTimestamp": "0x69666f53",
          "transactionHash": "0x852e7357de387014c3e3d8761ede7aa2b75fd21a731fe34ff299a97acf17136b",
          "transactionIndex": "0x0",
          "logIndex": "0x2",
          "removed": false
        },
        {
          "address": "0x048255dfef2ebfa7307058ae475a3e2f5ee0df46",
          "topics": [
            "0x78160f0b1b2b32b52a0076d8f0f70888687ba702a4d993d55ac8d9327d57a127",
            "0x0000000000000000000000000000000000000000000000000000000000000008",
            "0x0fe9832335db40b22bdc95dbf6613766fe157b753b68f35ab62f51321fb38621",
            "0x88aaac50baa9076a97acf6f10225e1d65fbdd4dad8c823432b625e50439c08c5"
          ],
          "data": "0x16bfb64ae70b8a9bbda28deb27a1cbc5ec3e6497481714344c221b46c0777f35000000000000000000000000000000000000000000000000000000000000004000000000000000000000000000000000000000000000000000000000000000c00990167faf6c9b4facf6d48fd977041d51cc04bdc7f140737f4cf38ae3cef465000000000000000000000000d289d1387ae1033a703842d69501d5bec5a6f04e000000000000000000000000f86c23c1e883ee3b820fb9be75ff91c9a49eae7500000000000000000000000000000000000000000000000000000000004c4b400000000000000000000000004d4adec97e3e11693f65dedc2d1e6bec784eb2f100000000000000000000000000000000000000000000000000000000000f4240",
          "blockHash": "0x09c5d828fdf28ca84b3aba9fd931cdb2782faccac27b885b83777a6fb786b686",
          "blockNumber": "0x25",
          "blockTimestamp": "0x69666f53",
          "transactionHash": "0x852e7357de387014c3e3d8761ede7aa2b75fd21a731fe34ff299a97acf17136b",
          "transactionIndex": "0x0",
          "logIndex": "0x3",
          "removed": false
        }
      ],
      "logsBloom": "0x00000000000000000000000000000104000000000000000000000000000080000000000000000000000000000000000200001000000080000002002000200000000020000000000004000000000000000000000000000000000000000000040000000140000800004000000000000000000000000000000000000000000000020080000000000000000000000000000000000000000000000000000000000000001000000000000000000002000100000000000200000010000000000000000050000000400000000000000000100000000000001200000000000100000000000000000000000000000000000000100000000000000000000000000002004000",
      "type": "0x0",
      "transactionHash": "0x852e7357de387014c3e3d8761ede7aa2b75fd21a731fe34ff299a97acf17136b",
      "transactionIndex": "0x0",
      "blockHash": "0x09c5d828fdf28ca84b3aba9fd931cdb2782faccac27b885b83777a6fb786b686",
      "blockNumber": "0x25",
      "gasUsed": "0x2a95a",
      "effectiveGasPrice": "0x3b9aca00",
      "blobGasPrice": "0x1",
      "from": "0xd289d1387ae1033a703842d69501d5bec5a6f04e",
      "to": "0x048255dfef2ebfa7307058ae475a3e2f5ee0df46",
      "contractAddress": null
    },
    {
      "status": "0x1",
      "cumulativeGasUsed": "0x6994",
      "logs": [],
      "logsBloom": "0x00000000000000000000000000000000000000000000000000000000000000000000000000000000000000000000000000000000000000000000000000000000000000000000000000000000000000000000000000000000000000000000000000000000000000000000000000000000000000000000000000000000000000000000000000000000000000000000000000000000000000000000000000000000000000000000000000000000000000000000000000000000000000000000000000000000000000000000000000000000000000000000000000000000000000000000000000000000000000000000000000000000000000000000000000000000",
      "type": "0x0",
      "transactionHash": "0x45b14dbbbe8d1e00e14e30ea6da4a9a9a44c19141c3b1562cf19f7e8314f5ff9",
      "transactionIndex": "0x0",
      "blockHash": "0x61f5eaf67a37e1bbe00f187fede79c08ebfb178deee3fe3790e6452e36ef72f8",
      "blockNumber": "0x26",
      "gasUsed": "0x6994",
      "effectiveGasPrice": "0x3b9aca00",
      "blobGasPrice": "0x1",
      "from": "0xd289d1387ae1033a703842d69501d5bec5a6f04e",
      "to": "0x4d4adec97e3e11693f65dedc2d1e6bec784eb2f1",
      "contractAddress": null
    },
    {
      "status": "0x1",
      "cumulativeGasUsed": "0x5fd8",
      "logs": [],
      "logsBloom": "0x00000000000000000000000000000000000000000000000000000000000000000000000000000000000000000000000000000000000000000000000000000000000000000000000000000000000000000000000000000000000000000000000000000000000000000000000000000000000000000000000000000000000000000000000000000000000000000000000000000000000000000000000000000000000000000000000000000000000000000000000000000000000000000000000000000000000000000000000000000000000000000000000000000000000000000000000000000000000000000000000000000000000000000000000000000000",
      "type": "0x0",
      "transactionHash": "0x63c0f0c60a979577ffd174ff1f9f4b2a65204330c0cd776dd290ae73505a840f",
      "transactionIndex": "0x0",
      "blockHash": "0x1c95731118553b07665c1bc8af58a53ebd69627b4c5008e06624e2ec2f565a68",
      "blockNumber": "0x27",
      "gasUsed": "0x5fd8",
      "effectiveGasPrice": "0x3b9aca00",
      "blobGasPrice": "0x1",
      "from": "0xd289d1387ae1033a703842d69501d5bec5a6f04e",
      "to": "0x4d4adec97e3e11693f65dedc2d1e6bec784eb2f1",
      "contractAddress": null
    },
    {
      "status": "0x1",
      "cumulativeGasUsed": "0x46ef3",
      "logs": [
        {
          "address": "0x048255dfef2ebfa7307058ae475a3e2f5ee0df46",
          "topics": [
            "0x6f81b8ad0780a0febc687a3a73b181433722b4be30f7f0a024169f5161267287",
            "0xca46b9f44e24ba33028b375a8116be39c7775fb376f5c33dc4d81bf57f67dad2",
            "0x000000000000000000000000d289d1387ae1033a703842d69501d5bec5a6f04e"
          ],
          "data": "0x00000000000000000000000000000000000000000000000000000000000000010000000000000000000000004d4adec97e3e11693f65dedc2d1e6bec784eb2f100000000000000000000000000000000000000000000000000000000001e8480000000000000000000000000d289d1387ae1033a703842d69501d5bec5a6f04e0000000000000000000000000000000000000000000000000000000069666ef300000000000000000000000000000000000000000000000000000000000000c00000000000000000000000000000000000000000000000000000000000000040000000000000000000000000558b8fe3b86724d9d9433bf8ec2b1a1b223f9d25000000000000000000000000000000000000000000000000000000000012d687",
          "blockHash": "0x565c384daca5cbc688ee2051874b843c234487b9a35ebb152d02f0479a9740e2",
          "blockNumber": "0x28",
          "blockTimestamp": "0x69666f56",
          "transactionHash": "0x0bfcdf3102b1847ef95476efb8b945106b87e7b7a45d36bac54abab89953f93a",
          "transactionIndex": "0x0",
          "logIndex": "0x0",
          "removed": false
        },
        {
          "address": "0x048255dfef2ebfa7307058ae475a3e2f5ee0df46",
          "topics": [
            "0x78160f0b1b2b32b52a0076d8f0f70888687ba702a4d993d55ac8d9327d57a127",
            "0x0000000000000000000000000000000000000000000000000000000000000009",
            "0x88aaac50baa9076a97acf6f10225e1d65fbdd4dad8c823432b625e50439c08c5",
            "0xe23e9f9ae1ab6b5ca814abf7d50d762657c09ec91f1d28d8f91e69c0af6f155d"
          ],
          "data": "0x6f81b8ad0780a0febc687a3a73b181433722b4be30f7f0a024169f516126728700000000000000000000000000000000000000000000000000000000000000400000000000000000000000000000000000000000000000000000000000000160ca46b9f44e24ba33028b375a8116be39c7775fb376f5c33dc4d81bf57f67dad2000000000000000000000000d289d1387ae1033a703842d69501d5bec5a6f04e00000000000000000000000000000000000000000000000000000000000000010000000000000000000000004d4adec97e3e11693f65dedc2d1e6bec784eb2f100000000000000000000000000000000000000000000000000000000001e8480000000000000000000000000d289d1387ae1033a703842d69501d5bec5a6f04e0000000000000000000000000000000000000000000000000000000069666ef300000000000000000000000000000000000000000000000000000000000001000000000000000000000000000000000000000000000000000000000000000040000000000000000000000000558b8fe3b86724d9d9433bf8ec2b1a1b223f9d25000000000000000000000000000000000000000000000000000000000012d687",
          "blockHash": "0x565c384daca5cbc688ee2051874b843c234487b9a35ebb152d02f0479a9740e2",
          "blockNumber": "0x28",
          "blockTimestamp": "0x69666f56",
          "transactionHash": "0x0bfcdf3102b1847ef95476efb8b945106b87e7b7a45d36bac54abab89953f93a",
          "transactionIndex": "0x0",
          "logIndex": "0x1",
          "removed": false
        },
        {
          "address": "0x048255dfef2ebfa7307058ae475a3e2f5ee0df46",
          "topics": [
            "0x0544741ff6f2708047138c8f3a68abb994e628666dba785f685ff1035274f9fb",
            "0xca46b9f44e24ba33028b375a8116be39c7775fb376f5c33dc4d81bf57f67dad2",
            "0x000000000000000000000000d289d1387ae1033a703842d69501d5bec5a6f04e"
          ],
          "data": "0x0000000000000000000000004d4adec97e3e11693f65dedc2d1e6bec784eb2f100000000000000000000000000000000000000000000000000000000001e8480",
          "blockHash": "0x565c384daca5cbc688ee2051874b843c234487b9a35ebb152d02f0479a9740e2",
          "blockNumber": "0x28",
          "blockTimestamp": "0x69666f56",
          "transactionHash": "0x0bfcdf3102b1847ef95476efb8b945106b87e7b7a45d36bac54abab89953f93a",
          "transactionIndex": "0x0",
          "logIndex": "0x2",
          "removed": false
        },
        {
          "address": "0x048255dfef2ebfa7307058ae475a3e2f5ee0df46",
          "topics": [
            "0x78160f0b1b2b32b52a0076d8f0f70888687ba702a4d993d55ac8d9327d57a127",
            "0x000000000000000000000000000000000000000000000000000000000000000a",
            "0xe23e9f9ae1ab6b5ca814abf7d50d762657c09ec91f1d28d8f91e69c0af6f155d",
            "0x8b2a12182e133f6f554d2431e3485de168c114e741937f5292bf941e14558402"
          ],
          "data": "0x0544741ff6f2708047138c8f3a68abb994e628666dba785f685ff1035274f9fb00000000000000000000000000000000000000000000000000000000000000400000000000000000000000000000000000000000000000000000000000000080ca46b9f44e24ba33028b375a8116be39c7775fb376f5c33dc4d81bf57f67dad2000000000000000000000000d289d1387ae1033a703842d69501d5bec5a6f04e0000000000000000000000004d4adec97e3e11693f65dedc2d1e6bec784eb2f100000000000000000000000000000000000000000000000000000000001e8480",
          "blockHash": "0x565c384daca5cbc688ee2051874b843c234487b9a35ebb152d02f0479a9740e2",
          "blockNumber": "0x28",
          "blockTimestamp": "0x69666f56",
          "transactionHash": "0x0bfcdf3102b1847ef95476efb8b945106b87e7b7a45d36bac54abab89953f93a",
          "transactionIndex": "0x0",
          "logIndex": "0x3",
          "removed": false
        }
      ],
      "logsBloom": "0x00000000000000000100000000000004000000000000000000000000000000000000000000000000000000000000000000000000040000000020000000210000000000000000000004000000000000000004000100000000000000000000000000000000000800004000000000000000000000000000000000000000008000000000000000000010010000000000006000001000000000000000000000000000001000000000000000000000000000000000200201000000200000000200000040000000400000000000020000100000000000000200000000000000010000000000000000000000000000000000100000000000000000000000000000804000",
      "type": "0x0",
      "transactionHash": "0x0bfcdf3102b1847ef95476efb8b945106b87e7b7a45d36bac54abab89953f93a",
      "transactionIndex": "0x0",
      "blockHash": "0x565c384daca5cbc688ee2051874b843c234487b9a35ebb152d02f0479a9740e2",
      "blockNumber": "0x28",
      "gasUsed": "0x46ef3",
      "effectiveGasPrice": "0x3b9aca00",
      "blobGasPrice": "0x1",
      "from": "0xd289d1387ae1033a703842d69501d5bec5a6f04e",
      "to": "0x048255dfef2ebfa7307058ae475a3e2f5ee0df46",
      "contractAddress": null
    },
    {
      "status": "0x1",
      "cumulativeGasUsed": "0x6994",
      "logs": [],
      "logsBloom": "0x00000000000000000000000000000000000000000000000000000000000000000000000000000000000000000000000000000000000000000000000000000000000000000000000000000000000000000000000000000000000000000000000000000000000000000000000000000000000000000000000000000000000000000000000000000000000000000000000000000000000000000000000000000000000000000000000000000000000000000000000000000000000000000000000000000000000000000000000000000000000000000000000000000000000000000000000000000000000000000000000000000000000000000000000000000000",
      "type": "0x0",
      "transactionHash": "0x8eeeae544a79cb5a55977e241c9bd38cb18bedcf8158889ea1cc6283aceec8b3",
      "transactionIndex": "0x0",
      "blockHash": "0x4c90ca583c5fe34c029503156726425b84b24e28786f4793619dfa8a3e9e7b27",
      "blockNumber": "0x29",
      "gasUsed": "0x6994",
      "effectiveGasPrice": "0x3b9aca00",
      "blobGasPrice": "0x1",
      "from": "0xd289d1387ae1033a703842d69501d5bec5a6f04e",
      "to": "0x4d4adec97e3e11693f65dedc2d1e6bec784eb2f1",
      "contractAddress": null
    },
    {
      "status": "0x1",
      "cumulativeGasUsed": "0x5fd8",
      "logs": [],
      "logsBloom": "0x00000000000000000000000000000000000000000000000000000000000000000000000000000000000000000000000000000000000000000000000000000000000000000000000000000000000000000000000000000000000000000000000000000000000000000000000000000000000000000000000000000000000000000000000000000000000000000000000000000000000000000000000000000000000000000000000000000000000000000000000000000000000000000000000000000000000000000000000000000000000000000000000000000000000000000000000000000000000000000000000000000000000000000000000000000000",
      "type": "0x0",
      "transactionHash": "0x87ccc77118d5e8c30a5d79bef72571ad0d64537c8e2e377ff52106655b51e205",
      "transactionIndex": "0x0",
      "blockHash": "0x13c34ccbae137a330f07a710f79134ab53a755cb78b189d28c581435c7bbdd22",
      "blockNumber": "0x2a",
      "gasUsed": "0x5fd8",
      "effectiveGasPrice": "0x3b9aca00",
      "blobGasPrice": "0x1",
      "from": "0xd289d1387ae1033a703842d69501d5bec5a6f04e",
      "to": "0x4d4adec97e3e11693f65dedc2d1e6bec784eb2f1",
      "contractAddress": null
    },
    {
      "status": "0x1",
      "cumulativeGasUsed": "0x14617",
      "logs": [
        {
          "address": "0x048255dfef2ebfa7307058ae475a3e2f5ee0df46",
          "topics": [
            "0xbc3f7b7e77a395c156c24db8a8a7850209b2df71a2561292eea221e32bf5d467",
            "0xca46b9f44e24ba33028b375a8116be39c7775fb376f5c33dc4d81bf57f67dad2",
            "0x000000000000000000000000d289d1387ae1033a703842d69501d5bec5a6f04e"
          ],
          "data": "0x00000000000000000000000000000000000000000000000000000000000f4240",
          "blockHash": "0x9f8e1dca4b95380de08505da534a60302eef2239bdfc1377b837a379b60854d5",
          "blockNumber": "0x2b",
          "blockTimestamp": "0x69666f59",
          "transactionHash": "0x72b7f896e44f8068fe77ac5d16eb16e4affbc2edc4078b805d895190107745c2",
          "transactionIndex": "0x0",
          "logIndex": "0x0",
          "removed": false
        },
        {
          "address": "0x048255dfef2ebfa7307058ae475a3e2f5ee0df46",
          "topics": [
            "0x78160f0b1b2b32b52a0076d8f0f70888687ba702a4d993d55ac8d9327d57a127",
            "0x000000000000000000000000000000000000000000000000000000000000000b",
            "0x8b2a12182e133f6f554d2431e3485de168c114e741937f5292bf941e14558402",
            "0xd18efd0d3408dfef28a5cf03aece163de0bfa26481c87132d79449379e7ac515"
          ],
          "data": "0xbc3f7b7e77a395c156c24db8a8a7850209b2df71a2561292eea221e32bf5d46700000000000000000000000000000000000000000000000000000000000000400000000000000000000000000000000000000000000000000000000000000060ca46b9f44e24ba33028b375a8116be39c7775fb376f5c33dc4d81bf57f67dad2000000000000000000000000d289d1387ae1033a703842d69501d5bec5a6f04e00000000000000000000000000000000000000000000000000000000000f4240",
          "blockHash": "0x9f8e1dca4b95380de08505da534a60302eef2239bdfc1377b837a379b60854d5",
          "blockNumber": "0x2b",
          "blockTimestamp": "0x69666f59",
          "transactionHash": "0x72b7f896e44f8068fe77ac5d16eb16e4affbc2edc4078b805d895190107745c2",
          "transactionIndex": "0x0",
          "logIndex": "0x1",
          "removed": false
        }
      ],
      "logsBloom": "0x00000000000000002000004000000000200000000000000000000000000000000000000000000000000000000000000000000000000000000000000000210000000000000000000004000000000000000000000000000004000000000000000000000000000800004000000000000000000000000000000000000000000000000000000000000010000000000000002000000000000000000000000000000000000000000000000000000000000000000000000201000000000200000000000040000000400000000000000000000000002000000200000000000000010000000000000000000000000000000000100000000000000000040000002000004002",
      "type": "0x0",
      "transactionHash": "0x72b7f896e44f8068fe77ac5d16eb16e4affbc2edc4078b805d895190107745c2",
      "transactionIndex": "0x0",
      "blockHash": "0x9f8e1dca4b95380de08505da534a60302eef2239bdfc1377b837a379b60854d5",
      "blockNumber": "0x2b",
      "gasUsed": "0x14617",
      "effectiveGasPrice": "0x3b9aca00",
      "blobGasPrice": "0x1",
      "from": "0xd289d1387ae1033a703842d69501d5bec5a6f04e",
      "to": "0x048255dfef2ebfa7307058ae475a3e2f5ee0df46",
      "contractAddress": null
    },
    {
      "status": "0x1",
      "cumulativeGasUsed": "0x1a29b",
      "logs": [],
      "logsBloom": "0x00000000000000000000000000000000000000000000000000000000000000000000000000000000000000000000000000000000000000000000000000000000000000000000000000000000000000000000000000000000000000000000000000000000000000000000000000000000000000000000000000000000000000000000000000000000000000000000000000000000000000000000000000000000000000000000000000000000000000000000000000000000000000000000000000000000000000000000000000000000000000000000000000000000000000000000000000000000000000000000000000000000000000000000000000000000",
      "type": "0x0",
      "transactionHash": "0x9b10ac3fbd02f7448c38f9766f4fc1b76725518bde0024f5692cbdba944e83c8",
      "transactionIndex": "0x0",
      "blockHash": "0x10fc2c09acb17e9fbd3a8ba696719cf173879eec66de84ac3bcf37f7b4c0bc30",
      "blockNumber": "0x2c",
      "gasUsed": "0x1a29b",
      "effectiveGasPrice": "0x3b9aca00",
      "blobGasPrice": "0x1",
      "from": "0xd289d1387ae1033a703842d69501d5bec5a6f04e",
      "to": "0x8c16d2f19a034b7281254f5656c2d1461c6ceb9a",
      "contractAddress": null
    },
    {
      "status": "0x1",
      "cumulativeGasUsed": "0x212aa",
      "logs": [
        {
          "address": "0x048255dfef2ebfa7307058ae475a3e2f5ee0df46",
          "topics": [
            "0xfa797585c9827d59a7694ef382241f1a03ced6a1a2b4353b35939abc4d04b286",
            "0xca46b9f44e24ba33028b375a8116be39c7775fb376f5c33dc4d81bf57f67dad2",
            "0x000000000000000000000000d289d1387ae1033a703842d69501d5bec5a6f04e"
          ],
          "data": "0x00000000000000000000000000000000000000000000000000000000000000000000000000000000000000000000000000000000000000000000000000000000",
          "blockHash": "0x7f3f8f37232d10051d8f1e5b61a2dda5b7b57bb3f17e4d231530f5821c36f10d",
          "blockNumber": "0x2d",
          "blockTimestamp": "0x69666f5b",
          "transactionHash": "0xe920c58961d9f855785aca3aaa174ec92189f45dd87dc1956347d926a72ae301",
          "transactionIndex": "0x0",
          "logIndex": "0x0",
          "removed": false
        },
        {
          "address": "0x048255dfef2ebfa7307058ae475a3e2f5ee0df46",
          "topics": [
            "0x78160f0b1b2b32b52a0076d8f0f70888687ba702a4d993d55ac8d9327d57a127",
            "0x000000000000000000000000000000000000000000000000000000000000000c",
            "0xd18efd0d3408dfef28a5cf03aece163de0bfa26481c87132d79449379e7ac515",
            "0x9ee67f1777f7a824121228c6d37f1570ebe59b401682168eaa085cfa8642e7dd"
          ],
          "data": "0xfa797585c9827d59a7694ef382241f1a03ced6a1a2b4353b35939abc4d04b28600000000000000000000000000000000000000000000000000000000000000400000000000000000000000000000000000000000000000000000000000000080ca46b9f44e24ba33028b375a8116be39c7775fb376f5c33dc4d81bf57f67dad2000000000000000000000000d289d1387ae1033a703842d69501d5bec5a6f04e00000000000000000000000000000000000000000000000000000000000000000000000000000000000000000000000000000000000000000000000000000000",
          "blockHash": "0x7f3f8f37232d10051d8f1e5b61a2dda5b7b57bb3f17e4d231530f5821c36f10d",
          "blockNumber": "0x2d",
          "blockTimestamp": "0x69666f5b",
          "transactionHash": "0xe920c58961d9f855785aca3aaa174ec92189f45dd87dc1956347d926a72ae301",
          "transactionIndex": "0x0",
          "logIndex": "0x1",
          "removed": false
        },
        {
          "address": "0x048255dfef2ebfa7307058ae475a3e2f5ee0df46",
          "topics": [
            "0x16bfb64ae70b8a9bbda28deb27a1cbc5ec3e6497481714344c221b46c0777f35",
            "0xca46b9f44e24ba33028b375a8116be39c7775fb376f5c33dc4d81bf57f67dad2",
            "0x000000000000000000000000d289d1387ae1033a703842d69501d5bec5a6f04e"
          ],
          "data": "0x0000000000000000000000004d4adec97e3e11693f65dedc2d1e6bec784eb2f100000000000000000000000000000000000000000000000000000000001e84800000000000000000000000004d4adec97e3e11693f65dedc2d1e6bec784eb2f100000000000000000000000000000000000000000000000000000000000f4240",
          "blockHash": "0x7f3f8f37232d10051d8f1e5b61a2dda5b7b57bb3f17e4d231530f5821c36f10d",
          "blockNumber": "0x2d",
          "blockTimestamp": "0x69666f5b",
          "transactionHash": "0xe920c58961d9f855785aca3aaa174ec92189f45dd87dc1956347d926a72ae301",
          "transactionIndex": "0x0",
          "logIndex": "0x2",
          "removed": false
        },
        {
          "address": "0x048255dfef2ebfa7307058ae475a3e2f5ee0df46",
          "topics": [
            "0x78160f0b1b2b32b52a0076d8f0f70888687ba702a4d993d55ac8d9327d57a127",
            "0x000000000000000000000000000000000000000000000000000000000000000d",
            "0x9ee67f1777f7a824121228c6d37f1570ebe59b401682168eaa085cfa8642e7dd",
            "0x98174d10ecfee1ebffb54d1e06d2e7c05c3ffbbd3ee3eae805dcab579af645a3"
          ],
          "data": "0x16bfb64ae70b8a9bbda28deb27a1cbc5ec3e6497481714344c221b46c0777f35000000000000000000000000000000000000000000000000000000000000004000000000000000000000000000000000000000000000000000000000000000c0ca46b9f44e24ba33028b375a8116be39c7775fb376f5c33dc4d81bf57f67dad2000000000000000000000000d289d1387ae1033a703842d69501d5bec5a6f04e0000000000000000000000004d4adec97e3e11693f65dedc2d1e6bec784eb2f100000000000000000000000000000000000000000000000000000000001e84800000000000000000000000004d4adec97e3e11693f65dedc2d1e6bec784eb2f100000000000000000000000000000000000000000000000000000000000f4240",
          "blockHash": "0x7f3f8f37232d10051d8f1e5b61a2dda5b7b57bb3f17e4d231530f5821c36f10d",
          "blockNumber": "0x2d",
          "blockTimestamp": "0x69666f5b",
          "transactionHash": "0xe920c58961d9f855785aca3aaa174ec92189f45dd87dc1956347d926a72ae301",
          "transactionIndex": "0x0",
          "logIndex": "0x3",
          "removed": false
        }
      ],
      "logsBloom": "0x10000000000000000040000000000000200002000000000000000000000080000000000000000200000000000000000200000000000000000002000000210000000000000000000004000000000000000002000000000000000000000000000000000200000800004000000000000000000000000004000000000000000000000000000000000010000000000001000000000000000000000000000000000000000000000000000000000002000080000000000200000000000200000000000010004000400000000000000000000000000000000200000000000000010000220000000000000000000000000000100000000000000000000000002002004000",
      "type": "0x0",
      "transactionHash": "0xe920c58961d9f855785aca3aaa174ec92189f45dd87dc1956347d926a72ae301",
      "transactionIndex": "0x0",
      "blockHash": "0x7f3f8f37232d10051d8f1e5b61a2dda5b7b57bb3f17e4d231530f5821c36f10d",
      "blockNumber": "0x2d",
      "gasUsed": "0x212aa",
      "effectiveGasPrice": "0x3b9aca00",
      "blobGasPrice": "0x1",
      "from": "0xd289d1387ae1033a703842d69501d5bec5a6f04e",
      "to": "0x048255dfef2ebfa7307058ae475a3e2f5ee0df46",
      "contractAddress": null
    },
    {
      "status": "0x1",
      "cumulativeGasUsed": "0x6994",
      "logs": [],
      "logsBloom": "0x00000000000000000000000000000000000000000000000000000000000000000000000000000000000000000000000000000000000000000000000000000000000000000000000000000000000000000000000000000000000000000000000000000000000000000000000000000000000000000000000000000000000000000000000000000000000000000000000000000000000000000000000000000000000000000000000000000000000000000000000000000000000000000000000000000000000000000000000000000000000000000000000000000000000000000000000000000000000000000000000000000000000000000000000000000000",
      "type": "0x0",
      "transactionHash": "0xd4a3704fdadaf1ab9481eb5a8029329668b8b0b70b4a0ad0acbe10760127fa8f",
      "transactionIndex": "0x0",
      "blockHash": "0x57828342d7bea206e9c030c2ee6a5f7edac33e7a8e50f23e5d9dd400a3886ad3",
      "blockNumber": "0x2e",
      "gasUsed": "0x6994",
      "effectiveGasPrice": "0x3b9aca00",
      "blobGasPrice": "0x1",
      "from": "0xd289d1387ae1033a703842d69501d5bec5a6f04e",
      "to": "0xf86c23c1e883ee3b820fb9be75ff91c9a49eae75",
      "contractAddress": null
    },
    {
      "status": "0x1",
      "cumulativeGasUsed": "0x5fd8",
      "logs": [],
      "logsBloom": "0x00000000000000000000000000000000000000000000000000000000000000000000000000000000000000000000000000000000000000000000000000000000000000000000000000000000000000000000000000000000000000000000000000000000000000000000000000000000000000000000000000000000000000000000000000000000000000000000000000000000000000000000000000000000000000000000000000000000000000000000000000000000000000000000000000000000000000000000000000000000000000000000000000000000000000000000000000000000000000000000000000000000000000000000000000000000",
      "type": "0x0",
      "transactionHash": "0xdda00ba795aaf750a19ff23dd6a7124f10b25d69deb1562e29881bcfeb1a3c35",
      "transactionIndex": "0x0",
      "blockHash": "0x573903e87a6616321569d8fbb7e6b8fb4d311c0573512b8b8c5b404dbde6c1d9",
      "blockNumber": "0x2f",
      "gasUsed": "0x5fd8",
      "effectiveGasPrice": "0x3b9aca00",
      "blobGasPrice": "0x1",
      "from": "0xd289d1387ae1033a703842d69501d5bec5a6f04e",
      "to": "0xf86c23c1e883ee3b820fb9be75ff91c9a49eae75",
      "contractAddress": null
    },
    {
      "status": "0x1",
      "cumulativeGasUsed": "0x52d69",
      "logs": [
        {
          "address": "0x048255dfef2ebfa7307058ae475a3e2f5ee0df46",
          "topics": [
            "0x6f81b8ad0780a0febc687a3a73b181433722b4be30f7f0a024169f5161267287",
            "0x969409e5f553bd67543799c6a0fad77544fe246dc363ce8f0e9c5d468a6f5438",
            "0x000000000000000000000000d289d1387ae1033a703842d69501d5bec5a6f04e"
          ],
          "data": "0x0000000000000000000000000000000000000000000000000000000000000000000000000000000000000000f86c23c1e883ee3b820fb9be75ff91c9a49eae7500000000000000000000000000000000000000000000000000000000000f4240000000000000000000000000d289d1387ae1033a703842d69501d5bec5a6f04e0000000000000000000000000000000000000000000000000000000069666ec100000000000000000000000000000000000000000000000000000000000000c000000000000000000000000000000000000000000000000000000000000000a000000000000000000000000000000000000000000000000000000000000000200000000000000000000000005457e258a09ebfb4a2501a9e3d70d37f54f923f300000000000000000000000000000000000000000000000000000000000000400000000000000000000000000000000000000000000000000000000000000002beef000000000000000000000000000000000000000000000000000000000000",
          "blockHash": "0x8fdbdc4b80df63a9154ba85f1a03d32790dbbd09fe135a34a52eca764101b039",
          "blockNumber": "0x30",
          "blockTimestamp": "0x69666f5e",
          "transactionHash": "0x3dd20d27152ccee08bee773d2ec54b46327228d63de1c1f16ade877c902fc379",
          "transactionIndex": "0x0",
          "logIndex": "0x0",
          "removed": false
        },
        {
          "address": "0x048255dfef2ebfa7307058ae475a3e2f5ee0df46",
          "topics": [
            "0x78160f0b1b2b32b52a0076d8f0f70888687ba702a4d993d55ac8d9327d57a127",
            "0x000000000000000000000000000000000000000000000000000000000000000e",
            "0x98174d10ecfee1ebffb54d1e06d2e7c05c3ffbbd3ee3eae805dcab579af645a3",
            "0xe6732d6c3766f85c6aa66b3ff35107c32752f323acfc4ec1e2d146bc03453b81"
          ],
          "data": "0x6f81b8ad0780a0febc687a3a73b181433722b4be30f7f0a024169f5161267287000000000000000000000000000000000000000000000000000000000000004000000000000000000000000000000000000000000000000000000000000001c0969409e5f553bd67543799c6a0fad77544fe246dc363ce8f0e9c5d468a6f5438000000000000000000000000d289d1387ae1033a703842d69501d5bec5a6f04e0000000000000000000000000000000000000000000000000000000000000000000000000000000000000000f86c23c1e883ee3b820fb9be75ff91c9a49eae7500000000000000000000000000000000000000000000000000000000000f4240000000000000000000000000d289d1387ae1033a703842d69501d5bec5a6f04e0000000000000000000000000000000000000000000000000000000069666ec1000000000000000000000000000000000000000000000000000000000000010000000000000000000000000000000000000000000000000000000000000000a000000000000000000000000000000000000000000000000000000000000000200000000000000000000000005457e258a09ebfb4a2501a9e3d70d37f54f923f300000000000000000000000000000000000000000000000000000000000000400000000000000000000000000000000000000000000000000000000000000002beef000000000000000000000000000000000000000000000000000000000000",
          "blockHash": "0x8fdbdc4b80df63a9154ba85f1a03d32790dbbd09fe135a34a52eca764101b039",
          "blockNumber": "0x30",
          "blockTimestamp": "0x69666f5e",
          "transactionHash": "0x3dd20d27152ccee08bee773d2ec54b46327228d63de1c1f16ade877c902fc379",
          "transactionIndex": "0x0",
          "logIndex": "0x1",
          "removed": false
        },
        {
          "address": "0x048255dfef2ebfa7307058ae475a3e2f5ee0df46",
          "topics": [
            "0x0544741ff6f2708047138c8f3a68abb994e628666dba785f685ff1035274f9fb",
            "0x969409e5f553bd67543799c6a0fad77544fe246dc363ce8f0e9c5d468a6f5438",
            "0x000000000000000000000000d289d1387ae1033a703842d69501d5bec5a6f04e"
          ],
          "data": "0x000000000000000000000000f86c23c1e883ee3b820fb9be75ff91c9a49eae7500000000000000000000000000000000000000000000000000000000000f4240",
          "blockHash": "0x8fdbdc4b80df63a9154ba85f1a03d32790dbbd09fe135a34a52eca764101b039",
          "blockNumber": "0x30",
          "blockTimestamp": "0x69666f5e",
          "transactionHash": "0x3dd20d27152ccee08bee773d2ec54b46327228d63de1c1f16ade877c902fc379",
          "transactionIndex": "0x0",
          "logIndex": "0x2",
          "removed": false
        },
        {
          "address": "0x048255dfef2ebfa7307058ae475a3e2f5ee0df46",
          "topics": [
            "0x78160f0b1b2b32b52a0076d8f0f70888687ba702a4d993d55ac8d9327d57a127",
            "0x000000000000000000000000000000000000000000000000000000000000000f",
            "0xe6732d6c3766f85c6aa66b3ff35107c32752f323acfc4ec1e2d146bc03453b81",
            "0x660a89de64cd82593f7460fa95a3e8f2eebda3e3af9dfe517b15fa2b2ea2e6ba"
          ],
          "data": "0x0544741ff6f2708047138c8f3a68abb994e628666dba785f685ff1035274f9fb00000000000000000000000000000000000000000000000000000000000000400000000000000000000000000000000000000000000000000000000000000080969409e5f553bd67543799c6a0fad77544fe246dc363ce8f0e9c5d468a6f5438000000000000000000000000d289d1387ae1033a703842d69501d5bec5a6f04e000000000000000000000000f86c23c1e883ee3b820fb9be75ff91c9a49eae7500000000000000000000000000000000000000000000000000000000000f4240",
          "blockHash": "0x8fdbdc4b80df63a9154ba85f1a03d32790dbbd09fe135a34a52eca764101b039",
          "blockNumber": "0x30",
          "blockTimestamp": "0x69666f5e",
          "transactionHash": "0x3dd20d27152ccee08bee773d2ec54b46327228d63de1c1f16ade877c902fc379",
          "transactionIndex": "0x0",
          "logIndex": "0x3",
          "removed": false
        }
      ],
      "logsBloom": "0x10000000000000000000000000000000000000000000000000000000000000000000000000000000000000000000000000000000000000000000000000202000000000000000000804000000000000000004000100000000000000000002000000000000000804004000000010000000000000000000000000000000008000000000000000000a00000000000000000008000000000000004000000000000000000000000000000000200000000080000000200200000020200000000000000001004000400000000000020000000000000000000200000000000000000000000000000200000080000000000000100000000000000000000000000000004008",
      "type": "0x0",
      "transactionHash": "0x3dd20d27152ccee08bee773d2ec54b46327228d63de1c1f16ade877c902fc379",
      "transactionIndex": "0x0",
      "blockHash": "0x8fdbdc4b80df63a9154ba85f1a03d32790dbbd09fe135a34a52eca764101b039",
      "blockNumber": "0x30",
      "gasUsed": "0x52d69",
      "effectiveGasPrice": "0x3b9aca00",
      "blobGasPrice": "0x1",
      "from": "0xd289d1387ae1033a703842d69501d5bec5a6f04e",
      "to": "0x048255dfef2ebfa7307058ae475a3e2f5ee0df46",
      "contractAddress": null
    },
    {
      "status": "0x1",
      "cumulativeGasUsed": "0x17083",
      "logs": [
        {
          "address": "0x048255dfef2ebfa7307058ae475a3e2f5ee0df46",
          "topics": [
            "0x6db2da0f661d59d5a9c767b6ba61a9c192765a6aab952e5e53ea77175332f13d",
            "0x969409e5f553bd67543799c6a0fad77544fe246dc363ce8f0e9c5d468a6f5438",
            "0x000000000000000000000000d289d1387ae1033a703842d69501d5bec5a6f04e"
          ],
          "data": "0x000000000000000000000000000000000000000000000000000000000000000000000000000000000000000000000000000000000000000000000000000000010000000000000000000000000000000000000000000000000000000000000000000000000000000000000000d289d1387ae1033a703842d69501d5bec5a6f04e000000000000000000000000f86c23c1e883ee3b820fb9be75ff91c9a49eae7500000000000000000000000000000000000000000000000000000000000f42400000000000000000000000004d4adec97e3e11693f65dedc2d1e6bec784eb2f1000000000000000000000000000000000000000000000000000000000000000000000000000000000000000000000000000000000000000000000000000000000000000000000000000000000000000000000000000000000000000000000000",
          "blockHash": "0x23bcd9dd0c9b357c86a1a050e5c92b841d2e0f80105691c0487fca8cae850589",
          "blockNumber": "0x31",
          "blockTimestamp": "0x69666f5f",
          "transactionHash": "0xf632124dc6373fabb8cd53de00ec7f520021524eae8a4a4e235967e3db1df4c6",
          "transactionIndex": "0x0",
          "logIndex": "0x0",
          "removed": false
        },
        {
          "address": "0x048255dfef2ebfa7307058ae475a3e2f5ee0df46",
          "topics": [
            "0x78160f0b1b2b32b52a0076d8f0f70888687ba702a4d993d55ac8d9327d57a127",
            "0x0000000000000000000000000000000000000000000000000000000000000010",
            "0x660a89de64cd82593f7460fa95a3e8f2eebda3e3af9dfe517b15fa2b2ea2e6ba",
            "0xff62f10a4644d3168e88572fee6ae4dc75c91316b2be2d43abb0e491fc9d51df"
          ],
          "data": "0x6db2da0f661d59d5a9c767b6ba61a9c192765a6aab952e5e53ea77175332f13d00000000000000000000000000000000000000000000000000000000000000400000000000000000000000000000000000000000000000000000000000000180969409e5f553bd67543799c6a0fad77544fe246dc363ce8f0e9c5d468a6f5438000000000000000000000000d289d1387ae1033a703842d69501d5bec5a6f04e000000000000000000000000000000000000000000000000000000000000000000000000000000000000000000000000000000000000000000000000000000010000000000000000000000000000000000000000000000000000000000000000000000000000000000000000d289d1387ae1033a703842d69501d5bec5a6f04e000000000000000000000000f86c23c1e883ee3b820fb9be75ff91c9a49eae7500000000000000000000000000000000000000000000000000000000000f42400000000000000000000000004d4adec97e3e11693f65dedc2d1e6bec784eb2f1000000000000000000000000000000000000000000000000000000000000000000000000000000000000000000000000000000000000000000000000000000000000000000000000000000000000000000000000000000000000000000000000",
          "blockHash": "0x23bcd9dd0c9b357c86a1a050e5c92b841d2e0f80105691c0487fca8cae850589",
          "blockNumber": "0x31",
          "blockTimestamp": "0x69666f5f",
          "transactionHash": "0xf632124dc6373fabb8cd53de00ec7f520021524eae8a4a4e235967e3db1df4c6",
          "transactionIndex": "0x0",
          "logIndex": "0x1",
          "removed": false
        }
      ],
      "logsBloom": "0x00000000100000000000000000000000000000000000000000000000000000000000000000000000000000000000000000000000000000000000000000200000000000000000000004000000000000000004000000000000000000000000000000000000000804004000010010000000000000000000000000000000040008000000000000000200000000040000000000000100000000004000000000000000000000000000000000200000000000000000200200000000000080000000000001000000400000000000000000000000000000000200000000000000000000000000000000000000000000000000100000000000000000000000000000004000",
      "type": "0x0",
      "transactionHash": "0xf632124dc6373fabb8cd53de00ec7f520021524eae8a4a4e235967e3db1df4c6",
      "transactionIndex": "0x0",
      "blockHash": "0x23bcd9dd0c9b357c86a1a050e5c92b841d2e0f80105691c0487fca8cae850589",
      "blockNumber": "0x31",
      "gasUsed": "0x17083",
      "effectiveGasPrice": "0x3b9aca00",
      "blobGasPrice": "0x1",
      "from": "0xd289d1387ae1033a703842d69501d5bec5a6f04e",
      "to": "0x048255dfef2ebfa7307058ae475a3e2f5ee0df46",
      "contractAddress": null
    },
    {
      "status": "0x1",
      "cumulativeGasUsed": "0x6994",
      "logs": [],
      "logsBloom": "0x00000000000000000000000000000000000000000000000000000000000000000000000000000000000000000000000000000000000000000000000000000000000000000000000000000000000000000000000000000000000000000000000000000000000000000000000000000000000000000000000000000000000000000000000000000000000000000000000000000000000000000000000000000000000000000000000000000000000000000000000000000000000000000000000000000000000000000000000000000000000000000000000000000000000000000000000000000000000000000000000000000000000000000000000000000000",
      "type": "0x0",
      "transactionHash": "0x8a666372cb7a155f3f9f7822580a72c311adac54acf0953bb30b2ca9b4045838",
      "transactionIndex": "0x0",
      "blockHash": "0x2e9d105c2dc528692be14de1d598ba5523647960764478308272eea6906c0b93",
      "blockNumber": "0x32",
      "gasUsed": "0x6994",
      "effectiveGasPrice": "0x3b9aca00",
      "blobGasPrice": "0x1",
      "from": "0xd289d1387ae1033a703842d69501d5bec5a6f04e",
      "to": "0x4d4adec97e3e11693f65dedc2d1e6bec784eb2f1",
      "contractAddress": null
    },
    {
      "status": "0x1",
      "cumulativeGasUsed": "0x5fd8",
      "logs": [],
      "logsBloom": "0x00000000000000000000000000000000000000000000000000000000000000000000000000000000000000000000000000000000000000000000000000000000000000000000000000000000000000000000000000000000000000000000000000000000000000000000000000000000000000000000000000000000000000000000000000000000000000000000000000000000000000000000000000000000000000000000000000000000000000000000000000000000000000000000000000000000000000000000000000000000000000000000000000000000000000000000000000000000000000000000000000000000000000000000000000000000",
      "type": "0x0",
      "transactionHash": "0x1d97966a726dae82365567fd49d43dccd866528bd1697f4b84666c8376e56b41",
      "transactionIndex": "0x0",
      "blockHash": "0x871be7a12728833caf8da341f704669e1e3e98aa0787474e317c89707206c7e0",
      "blockNumber": "0x33",
      "gasUsed": "0x5fd8",
      "effectiveGasPrice": "0x3b9aca00",
      "blobGasPrice": "0x1",
      "from": "0xd289d1387ae1033a703842d69501d5bec5a6f04e",
      "to": "0x4d4adec97e3e11693f65dedc2d1e6bec784eb2f1",
      "contractAddress": null
    },
    {
      "status": "0x1",
      "cumulativeGasUsed": "0x50d2e",
      "logs": [
        {
          "address": "0x048255dfef2ebfa7307058ae475a3e2f5ee0df46",
          "topics": [
            "0x11039d948e58aabf982e09eab3f7ce6db7bf72add1d0b04e63f0697eac16024b",
            "0xee05772a542895427ddf02d6cb47b9027da7949441e78297ad0b8b2608b77382",
            "0x0000000000000000000000008828fd7431d5bb1962d7e067c103b2324fa6bbec",
            "0x00000000000000000000000097629064a9c06865c5b3832f94bb64a8e47bcad7"
          ],
          "data": "0x282866f5067804dadd2e500a0a3d8b5e5d2e5cde385e9ec6a887315613d6f4480000000000000000000000004d4adec97e3e11693f65dedc2d1e6bec784eb2f100000000000000000000000000000000000000000000000000000000000f4240",
          "blockHash": "0x71f10d9dbeeaa796fdcbb56385c15a42a306570433416a463d24e779dd8f1949",
          "blockNumber": "0x34",
          "blockTimestamp": "0x69666f62",
          "transactionHash": "0xd951087267c228f5ec4a6459e9ac1a984aa9b2338cde0a7bb240504d457eed41",
          "transactionIndex": "0x0",
          "logIndex": "0x0",
          "removed": false
        },
        {
          "address": "0x048255dfef2ebfa7307058ae475a3e2f5ee0df46",
          "topics": [
            "0x78160f0b1b2b32b52a0076d8f0f70888687ba702a4d993d55ac8d9327d57a127",
            "0x0000000000000000000000000000000000000000000000000000000000000011",
            "0xff62f10a4644d3168e88572fee6ae4dc75c91316b2be2d43abb0e491fc9d51df",
            "0x09b2eb6ea882391f935f120d90c872589bf5429b8c99ccfa531b3db416356009"
          ],
          "data": "0x11039d948e58aabf982e09eab3f7ce6db7bf72add1d0b04e63f0697eac16024b000000000000000000000000000000000000000000000000000000000000004000000000000000000000000000000000000000000000000000000000000000c0ee05772a542895427ddf02d6cb47b9027da7949441e78297ad0b8b2608b773820000000000000000000000008828fd7431d5bb1962d7e067c103b2324fa6bbec00000000000000000000000097629064a9c06865c5b3832f94bb64a8e47bcad7282866f5067804dadd2e500a0a3d8b5e5d2e5cde385e9ec6a887315613d6f4480000000000000000000000004d4adec97e3e11693f65dedc2d1e6bec784eb2f100000000000000000000000000000000000000000000000000000000000f4240",
          "blockHash": "0x71f10d9dbeeaa796fdcbb56385c15a42a306570433416a463d24e779dd8f1949",
          "blockNumber": "0x34",
          "blockTimestamp": "0x69666f62",
          "transactionHash": "0xd951087267c228f5ec4a6459e9ac1a984aa9b2338cde0a7bb240504d457eed41",
          "transactionIndex": "0x0",
          "logIndex": "0x1",
          "removed": false
        },
        {
          "address": "0x048255dfef2ebfa7307058ae475a3e2f5ee0df46",
          "topics": [
            "0xc853b9fbc6265708cfc473efd1ce29b19a3616b3edccaeaf71a4a6b778cb010e",
            "0xee05772a542895427ddf02d6cb47b9027da7949441e78297ad0b8b2608b77382"
          ],
          "data": "0x0000000000000000000000000000000000000000000000000000000000002710000000000000000000000000000000000000000000000000000000000000007b00000000000000000000000000000000000000000000000000000000000f1ab5",
          "blockHash": "0x71f10d9dbeeaa796fdcbb56385c15a42a306570433416a463d24e779dd8f1949",
          "blockNumber": "0x34",
          "blockTimestamp": "0x69666f62",
          "transactionHash": "0xd951087267c228f5ec4a6459e9ac1a984aa9b2338cde0a7bb240504d457eed41",
          "transactionIndex": "0x0",
          "logIndex": "0x2",
          "removed": false
        },
        {
          "address": "0x048255dfef2ebfa7307058ae475a3e2f5ee0df46",
          "topics": [
            "0x78160f0b1b2b32b52a0076d8f0f70888687ba702a4d993d55ac8d9327d57a127",
            "0x0000000000000000000000000000000000000000000000000000000000000012",
            "0x09b2eb6ea882391f935f120d90c872589bf5429b8c99ccfa531b3db416356009",
            "0x61d0b2138cfc53573fb23ddac2e52a4c66ec5edd59599cacdb20b5870a12e888"
          ],
          "data": "0xc853b9fbc6265708cfc473efd1ce29b19a3616b3edccaeaf71a4a6b778cb010e00000000000000000000000000000000000000000000000000000000000000400000000000000000000000000000000000000000000000000000000000000080ee05772a542895427ddf02d6cb47b9027da7949441e78297ad0b8b2608b773820000000000000000000000000000000000000000000000000000000000002710000000000000000000000000000000000000000000000000000000000000007b00000000000000000000000000000000000000000000000000000000000f1ab5",
          "blockHash": "0x71f10d9dbeeaa796fdcbb56385c15a42a306570433416a463d24e779dd8f1949",
          "blockNumber": "0x34",
          "blockTimestamp": "0x69666f62",
          "transactionHash": "0xd951087267c228f5ec4a6459e9ac1a984aa9b2338cde0a7bb240504d457eed41",
          "transactionIndex": "0x0",
          "logIndex": "0x3",
          "removed": false
        },
        {
          "address": "0x048255dfef2ebfa7307058ae475a3e2f5ee0df46",
          "topics": [
            "0x6f81b8ad0780a0febc687a3a73b181433722b4be30f7f0a024169f5161267287",
            "0xee05772a542895427ddf02d6cb47b9027da7949441e78297ad0b8b2608b77382",
            "0x000000000000000000000000d289d1387ae1033a703842d69501d5bec5a6f04e"
          ],
          "data": "0x00000000000000000000000000000000000000000000000000000000000000010000000000000000000000004d4adec97e3e11693f65dedc2d1e6bec784eb2f100000000000000000000000000000000000000000000000000000000000f4240000000000000000000000000d289d1387ae1033a703842d69501d5bec5a6f04e000000000000000000000000000000000000000000000000000000006967c0e200000000000000000000000000000000000000000000000000000000000000c0000000000000000000000000000000000000000000000000000000000000004000000000000000000000000097629064a9c06865c5b3832f94bb64a8e47bcad700000000000000000000000000000000000000000000000000000000000f1ab5",
          "blockHash": "0x71f10d9dbeeaa796fdcbb56385c15a42a306570433416a463d24e779dd8f1949",
          "blockNumber": "0x34",
          "blockTimestamp": "0x69666f62",
          "transactionHash": "0xd951087267c228f5ec4a6459e9ac1a984aa9b2338cde0a7bb240504d457eed41",
          "transactionIndex": "0x0",
          "logIndex": "0x4",
          "removed": false
        },
        {
          "address": "0x048255dfef2ebfa7307058ae475a3e2f5ee0df46",
          "topics": [
            "0x78160f0b1b2b32b52a0076d8f0f70888687ba702a4d993d55ac8d9327d57a127",
            "0x0000000000000000000000000000000000000000000000000000000000000013",
            "0x61d0b2138cfc53573fb23ddac2e52a4c66ec5edd59599cacdb20b5870a12e888",
            "0x3b3e6286160a6ff8abbfaa002931686a5efadb01b396bce2ce778b326528f8c9"
          ],
          "data": "0x6f81b8ad0780a0febc687a3a73b181433722b4be30f7f0a024169f516126728700000000000000000000000000000000000000000000000000000000000000400000000000000000000000000000000000000000000000000000000000000160ee05772a542895427ddf02d6cb47b9027da7949441e78297ad0b8b2608b77382000000000000000000000000d289d1387ae1033a703842d69501d5bec5a6f04e00000000000000000000000000000000000000000000000000000000000000010000000000000000000000004d4adec97e3e11693f65dedc2d1e6bec784eb2f100000000000000000000000000000000000000000000000000000000000f4240000000000000000000000000d289d1387ae1033a703842d69501d5bec5a6f04e000000000000000000000000000000000000000000000000000000006967c0e20000000000000000000000000000000000000000000000000000000000000100000000000000000000000000000000000000000000000000000000000000004000000000000000000000000097629064a9c06865c5b3832f94bb64a8e47bcad700000000000000000000000000000000000000000000000000000000000f1ab5",
          "blockHash": "0x71f10d9dbeeaa796fdcbb56385c15a42a306570433416a463d24e779dd8f1949",
          "blockNumber": "0x34",
          "blockTimestamp": "0x69666f62",
          "transactionHash": "0xd951087267c228f5ec4a6459e9ac1a984aa9b2338cde0a7bb240504d457eed41",
          "transactionIndex": "0x0",
          "logIndex": "0x5",
          "removed": false
        },
        {
          "address": "0x048255dfef2ebfa7307058ae475a3e2f5ee0df46",
          "topics": [
            "0xbc3f7b7e77a395c156c24db8a8a7850209b2df71a2561292eea221e32bf5d467",
            "0xee05772a542895427ddf02d6cb47b9027da7949441e78297ad0b8b2608b77382",
            "0x000000000000000000000000d289d1387ae1033a703842d69501d5bec5a6f04e"
          ],
          "data": "0x00000000000000000000000000000000000000000000000000000000000f4240",
          "blockHash": "0x71f10d9dbeeaa796fdcbb56385c15a42a306570433416a463d24e779dd8f1949",
          "blockNumber": "0x34",
          "blockTimestamp": "0x69666f62",
          "transactionHash": "0xd951087267c228f5ec4a6459e9ac1a984aa9b2338cde0a7bb240504d457eed41",
          "transactionIndex": "0x0",
          "logIndex": "0x6",
          "removed": false
        },
        {
          "address": "0x048255dfef2ebfa7307058ae475a3e2f5ee0df46",
          "topics": [
            "0x78160f0b1b2b32b52a0076d8f0f70888687ba702a4d993d55ac8d9327d57a127",
            "0x0000000000000000000000000000000000000000000000000000000000000014",
            "0x3b3e6286160a6ff8abbfaa002931686a5efadb01b396bce2ce778b326528f8c9",
            "0x1373889a6f7bf4b045069b09e80ebf8fcb8ba8d842708eeae1e5f14e7c5dc7c3"
          ],
          "data": "0xbc3f7b7e77a395c156c24db8a8a7850209b2df71a2561292eea221e32bf5d46700000000000000000000000000000000000000000000000000000000000000400000000000000000000000000000000000000000000000000000000000000060ee05772a542895427ddf02d6cb47b9027da7949441e78297ad0b8b2608b77382000000000000000000000000d289d1387ae1033a703842d69501d5bec5a6f04e00000000000000000000000000000000000000000000000000000000000f4240",
          "blockHash": "0x71f10d9dbeeaa796fdcbb56385c15a42a306570433416a463d24e779dd8f1949",
          "blockNumber": "0x34",
          "blockTimestamp": "0x69666f62",
          "transactionHash": "0xd951087267c228f5ec4a6459e9ac1a984aa9b2338cde0a7bb240504d457eed41",
          "transactionIndex": "0x0",
          "logIndex": "0x7",
          "removed": false
        }
      ],
      "logsBloom": "0x20000000080000002000000000800000000000000000002000000000000000000000000040000000000000000000000000002000000000000000000001300000000000000000000004000000000000000804000104000004000000000000000000000000100800004000000000040000000001024000000000000000800008000000000000000100000000000000140010000000042400010000000000000000000000000200000020040008000000000000200200000040202000000400000100201000402000100400000000000000000000010200000000000000000000000000000000000000000000000000100000000000000000000000000000004002",
      "type": "0x0",
      "transactionHash": "0xd951087267c228f5ec4a6459e9ac1a984aa9b2338cde0a7bb240504d457eed41",
      "transactionIndex": "0x0",
      "blockHash": "0x71f10d9dbeeaa796fdcbb56385c15a42a306570433416a463d24e779dd8f1949",
      "blockNumber": "0x34",
      "gasUsed": "0x50d2e",
      "effectiveGasPrice": "0x3b9aca00",
      "blobGasPrice": "0x1",
      "from": "0xd289d1387ae1033a703842d69501d5bec5a6f04e",
      "to": "0x048255dfef2ebfa7307058ae475a3e2f5ee0df46",
      "contractAddress": null
    }
  ],
  "libraries": [],
  "pending": [],
  "returns": {},
  "timestamp": 1768320722868,
  "chain": 111,
  "commit": "24bfcfb"
}