{
  "transactions": [
    {
      "hash": "0x9641ee03018a3142e7c0d37b05ae7446dba97b61b7bb28357dd48191191f94dc",
      "transactionType": "CREATE",
      "contractName": "ExactBridger",
      "contractAddress": "0x0be19c78706c441de4178a2266a650e47160eda7",
      "function": null,
      "arguments": null,
      "transaction": {
        "from": "0xd289d1387ae1033a703842d69501d5bec5a6f04e",
        "value": "0x0",
        "input": "0x60808060405234601557610521908161001a8239f35b5f80fdfe608080604052600436101561001c575b50361561001a575f80fd5b005b5f3560e01c9081631fce5d1114610478575080632267cb0814610450578063463d1fca146104335780637f8945821461035557806384def41c1461033c57806389c905d21461031f578063a678341d14610302578063b14d361d146100ac5763ff7b2edd1461008b575f61000f565b346100a8575f3660031901126100a8576020600654604051908152f35b5f80fd5b60a03660031901126100a8576004356001600160a01b038116908190036100a8576044356001600160a01b03811691602435918390036100a8576084359267ffffffffffffffff84116100a857366023850112156100a85783600401359167ffffffffffffffff83116100a85736602484870101116100a8576bffffffffffffffffffffffff60a01b5f5416175f55826001556bffffffffffffffffffffffff60a01b600254161760025560643560035561016860045461049a565b601f811161029a575b505f601f8211600114610227578192935f92610219575b50508160011b915f199060031b1c1916176004555b34600555600654806101b5575b602082604051908152f35b5f80808093335af13d15610214573d67ffffffffffffffff811161020057604051906101eb601f8201601f1916602001836104d2565b81525f60203d92013e5b156100a857816101aa565b634e487b7160e01b5f52604160045260245ffd5b6101f5565b602492500101358380610188565b601f1982169360045f525f5160206104f55f395f51905f52915f5b86811061027f5750836001959610610263575b505050811b0160045561019d565b01602401355f19600384901b60f8161c19169055838080610255565b90926020600181926024878701013581550194019101610242565b60045f52601f820160051c5f5160206104f55f395f51905f520190602083106102ed575b601f0160051c5f5160206104f55f395f51905f5201905b8181106102e25750610171565b5f81556001016102d5565b5f5160206104f55f395f51905f5291506102be565b346100a8575f3660031901126100a8576020600354604051908152f35b346100a8575f3660031901126100a8576020600154604051908152f35b346100a85760203660031901126100a857600435600655005b346100a8575f3660031901126100a857604051600454905f6103768361049a565b80835260208301936001811690811561041857506001146103cd575b50906103a28160409303826104d2565b8151928391602083525180918160208501528484015e5f828201840152601f01601f19168101030190f35b91905060045f525f5160206104f55f395f51905f52915f905b8082106103fe575090915081016020016103a2610392565b9192600181602092548385880101520191019092916103e6565b60ff1916855250151560051b820160200190506103a2610392565b346100a8575f3660031901126100a8576020600554604051908152f35b346100a8575f3660031901126100a8576002546040516001600160a01b039091168152602090f35b346100a8575f3660031901126100a8575f546001600160a01b03168152602090f35b90600182811c921680156104c8575b60208310146104b457565b634e487b7160e01b5f52602260045260245ffd5b91607f16916104a9565b90601f8019910116810190811067ffffffffffffffff8211176102005760405256fe8a35acfbc15ff81a39ae7d344fd709f28e8600b4aa8c65c6b64bfe7fe36bd19ba164736f6c634300081b000a",
        "nonce": "0xc",
        "chainId": "0x6f"
      },
      "additionalContracts": [],
      "isFixedGasLimit": false
    },
    {
      "hash": "0x5dff21b1310551aebb70c2ceb7eb2a860e457bb41c7ef6fa3224956ff919324a",
      "transactionType": "CALL",
      "contractName": null,
      "contractAddress": "0x8828fd7431d5bb1962d7e067c103b2324fa6bbec",
      "function": "setBridgers(address,address)",
      "arguments": [
        "0x0bE19C78706c441dE4178a2266a650E47160Eda7",
        "0x0bE19C78706c441dE4178a2266a650E47160Eda7"
      ],
      "transaction": {
        "from": "0xd289d1387ae1033a703842d69501d5bec5a6f04e",
        "to": "0x8828fd7431d5bb1962d7e067c103b2324fa6bbec",
        "value": "0x0",
        "input": "0x2b0f3ee40000000000000000000000000be19c78706c441de4178a2266a650e47160eda70000000000000000000000000be19c78706c441de4178a2266a650e47160eda7",
        "nonce": "0xd",
        "chainId": "0x6f"
      },
      "additionalContracts": [],
      "isFixedGasLimit": false
    },
    {
      "hash": "0x0683791d8c580fe05e947e5fc3f38a502d06668756665d3692d8f46476c347fa",
      "transactionType": "CREATE",
      "contractName": "MockQuoter",
      "contractAddress": "0x481e836be187303c64f269bc7fe2c52f7f7c6eef",
      "function": null,
      "arguments": null,
      "transaction": {
        "from": "0xd289d1387ae1033a703842d69501d5bec5a6f04e",
        "value": "0x0",
        "input": "0x6080806040523460155761015b908161001a8239f35b5f80fdfe6080806040526004361015610012575f80fd5b5f3560e01c90816346ee8d001461010957508063520b9355146100c15780636813d78714610091578063d3072d821461006f5763e21a560214610053575f80fd5b3461006b57602036600319011261006b576004355f55005b5f80fd5b3461006b575f36600319011261006b57602060ff600154166040519015158152f35b3461006b57602036600319011261006b5760043580151580910361006b5760ff8019600154169116176001555f80f35b3461006b57608036600319011261006b576100da610122565b506100e3610138565b5060ff600154166100fa5760205f54604051908152f35b631f6b7cef60e11b5f5260045ffd5b3461006b575f36600319011261006b576020905f548152f35b600435906001600160a01b038216820361006b57565b602435906001600160a01b038216820361006b5756fea164736f6c634300081b000a",
        "nonce": "0xe",
        "chainId": "0x6f"
      },
      "additionalContracts": [],
      "isFixedGasLimit": false
    },
    {
      "hash": "0x5442cb8cd2818da051a292177af933a42052362d1c40030812b4acf29bd49b9e",
      "transactionType": "CALL",
      "contractName": "MockQuoter",
      "contractAddress": "0x481e836be187303c64f269bc7fe2c52f7f7c6eef",
      "function": "setAmountOut(uint256)",
      "arguments": [
        "90000000"
      ],
      "transaction": {
        "from": "0xd289d1387ae1033a703842d69501d5bec5a6f04e",
        "to": "0x481e836be187303c64f269bc7fe2c52f7f7c6eef",
        "value": "0x0",
        "input": "0xe21a560200000000000000000000000000000000000000000000000000000000055d4a80",
        "nonce": "0xf",
        "chainId": "0x6f"
      },
      "additionalContracts": [],
      "isFixedGasLimit": false
    },
    {
      "hash": "0x8070a422200e1dbd8d5a1a9099941348b15ef7a124b2908c74084764599671c8",
      "transactionType": "CALL",
      "contractName": null,
      "contractAddress": "0x8828fd7431d5bb1962d7e067c103b2324fa6bbec",
      "function": "setQuoter(address,address)",
      "arguments": [
        "0x4D4aDEc97e3e11693F65dEDC2D1e6Bec784eB2F1",
        "0x481e836bE187303c64F269Bc7fe2C52F7f7c6eEf"
      ],
      "transaction": {
        "from": "0xd289d1387ae1033a703842d69501d5bec5a6f04e",
        "to": "0x8828fd7431d5bb1962d7e067c103b2324fa6bbec",
        "value": "0x0",
        "input": "0x6264257a0000000000000000000000004d4adec97e3e11693f65dedc2d1e6bec784eb2f1000000000000000000000000481e836be187303c64f269bc7fe2c52f7f7c6eef",
        "nonce": "0x10",
        "chainId": "0x6f"
      },
      "additionalContracts": [],
      "isFixedGasLimit": false
    },
    {
      "hash": "0xd0fa060e851badf79c4d2e11fd36f93fbec136506b91f7bdf8306f30af0f8960",
      "transactionType": "CALL",
      "contractName": null,
      "contractAddress": "0x048255dfef2ebfa7307058ae475a3e2f5ee0df46",
      "function": "setRecommendedIntentFee(uint256,uint256)",
      "arguments": [
        "10000",
        "123"
      ],
      "transaction": {
        "from": "0xd289d1387ae1033a703842d69501d5bec5a6f04e",
        "to": "0x048255dfef2ebfa7307058ae475a3e2f5ee0df46",
        "value": "0x0",
        "input": "0xf2af970b0000000000000000000000000000000000000000000000000000000000002710000000000000000000000000000000000000000000000000000000000000007b",
        "nonce": "0x11",
        "chainId": "0x6f"
      },
      "additionalContracts": [],
      "isFixedGasLimit": false
    },
    {
      "hash": "0xfef75832b829aac2e6452ba53f4a9ba013d943049a463a6b53d6e34ac7b415e4",
      "transactionType": "CREATE",
      "contractName": "MockQuoter",
      "contractAddress": "0x6b0f32ae157cf4f7d9b402c4e243e9088207dd87",
      "function": null,
      "arguments": null,
      "transaction": {
        "from": "0xd289d1387ae1033a703842d69501d5bec5a6f04e",
        "value": "0x0",
        "input": "0x6080806040523460155761015b908161001a8239f35b5f80fdfe6080806040526004361015610012575f80fd5b5f3560e01c90816346ee8d001461010957508063520b9355146100c15780636813d78714610091578063d3072d821461006f5763e21a560214610053575f80fd5b3461006b57602036600319011261006b576004355f55005b5f80fd5b3461006b575f36600319011261006b57602060ff600154166040519015158152f35b3461006b57602036600319011261006b5760043580151580910361006b5760ff8019600154169116176001555f80f35b3461006b57608036600319011261006b576100da610122565b506100e3610138565b5060ff600154166100fa5760205f54604051908152f35b631f6b7cef60e11b5f5260045ffd5b3461006b575f36600319011261006b576020905f548152f35b600435906001600160a01b038216820361006b57565b602435906001600160a01b038216820361006b5756fea164736f6c634300081b000a",
        "nonce": "0x12",
        "chainId": "0x6f"
      },
      "additionalContracts": [],
      "isFixedGasLimit": false
    },
    {
      "hash": "0x52a5b66a31ca101099f01ce93ad3ffff416805838b30081bcfa839b252bed4c0",
      "transactionType": "CALL",
      "contractName": "MockQuoter",
      "contractAddress": "0x6b0f32ae157cf4f7d9b402c4e243e9088207dd87",
      "function": "setAmountOut(uint256)",
      "arguments": [
        "90000000"
      ],
      "transaction": {
        "from": "0xd289d1387ae1033a703842d69501d5bec5a6f04e",
        "to": "0x6b0f32ae157cf4f7d9b402c4e243e9088207dd87",
        "value": "0x0",
        "input": "0xe21a560200000000000000000000000000000000000000000000000000000000055d4a80",
        "nonce": "0x13",
        "chainId": "0x6f"
      },
      "additionalContracts": [],
      "isFixedGasLimit": false
    },
    {
      "hash": "0xd22176e8ccd207a296ae7f951f4d5aca52ce6df4d466a5cf64fc80978b22b71e",
      "transactionType": "CALL",
      "contractName": null,
      "contractAddress": "0x8828fd7431d5bb1962d7e067c103b2324fa6bbec",
      "function": "setQuoter(address,address)",
      "arguments": [
        "0x4D4aDEc97e3e11693F65dEDC2D1e6Bec784eB2F1",
        "0x6b0f32ae157CF4F7d9B402c4e243E9088207dD87"
      ],
      "transaction": {
        "from": "0xd289d1387ae1033a703842d69501d5bec5a6f04e",
        "to": "0x8828fd7431d5bb1962d7e067c103b2324fa6bbec",
        "value": "0x0",
        "input": "0x6264257a0000000000000000000000004d4adec97e3e11693f65dedc2d1e6bec784eb2f10000000000000000000000006b0f32ae157cf4f7d9b402c4e243e9088207dd87",
        "nonce": "0x14",
        "chainId": "0x6f"
      },
      "additionalContracts": [],
      "isFixedGasLimit": false
    },
    {
      "hash": "0x0cbf907f623c63537dbd7aa5982b4f17aeadb123eb8f16e7137f38ff384e6ea7",
      "transactionType": "CREATE",
      "contractName": "MockTransportBridger",
      "contractAddress": "0xc5ea444a0f556f5b227ec7447294d91086bb692c",
      "function": null,
      "arguments": null,
      "transaction": {
        "from": "0xd289d1387ae1033a703842d69501d5bec5a6f04e",
        "value": "0x0",
        "input": "0x60808060405234601557610507908161001a8239f35b5f80fdfe6080806040526004361015610012575f80fd5b5f905f3560e01c9081632c368377146103fd5750806347799da8146102d45763b14d361d1461003f575f80fd5b60a03660031901126102d1576004356001600160a01b038116908190036102cf576044356001600160a01b03811691602435918390036102cb576084359267ffffffffffffffff84116102c757366023850112156102c75783600401359067ffffffffffffffff82116102c35736602483870101116102c3576040519260c0840184811067ffffffffffffffff8211176102af5760405283526020830184815260408401918252866020606086019460643586528060246040519a61010d85601f19601f860116018d6104c4565b828c5201838b0137880101526080840186905260a08401878152935187546001600160a01b039182166001600160a01b0319918216178955915160015591516002805491909316911617905551600355825167ffffffffffffffff811161029b5761017960045461048c565b601f8111610238575b5060209485906001601f8411146101d7579482939495926101cc575b50508160011b915f199060031b1c1916176004555b51151560ff801960055416911617600555604051908152f35b015190505f8061019e565b90601f1983169560048352818320925b878110610221575083600195969710610209575b505050811b016004556101b3565b01515f1960f88460031b161c191690555f80806101fb565b9192886001819286850151815501940192016101e7565b600486527f8a35acfbc15ff81a39ae7d344fd709f28e8600b4aa8c65c6b64bfe7fe36bd19b601f830160051c81019160208410610291575b601f0160051c01905b8181106102865750610182565b868155600101610279565b9091508190610270565b634e487b7160e01b85526041600452602485fd5b634e487b7160e01b88526041600452602488fd5b8580fd5b8480fd5b8380fd5b505b80fd5b50346102d157806003193601126102d157805460015460025460035460405160045493946001600160a01b03908116949316918691906103138561048c565b8083526020830195600181169081156103e2575060011461038c575b5061033f8260e0989903836104c4565b60ff6005541693604051988997885260208801526040870152606086015260c060808601525180938160c08701528686015e838301850152151560a0830152601f01601f19168101030190f35b600484529750827f8a35acfbc15ff81a39ae7d344fd709f28e8600b4aa8c65c6b64bfe7fe36bd19b5b8982106103cc57508201602001975061033f61032f565b60018160209254838588010152019101906103b5565b60ff1916875250151560051b8201602001975061033f61032f565b905034610488575f3660031901126104885760055460ff81166104885760ff191660019081176005555f546002549154916001600160a01b039081169116803b1561048857835f604492819583956340c10f1960e01b8552600485015260248401525af1801561047d5761046f575080f35b61047b91505f906104c4565b005b6040513d5f823e3d90fd5b5f80fd5b90600182811c921680156104ba575b60208310146104a657565b634e487b7160e01b5f52602260045260245ffd5b91607f169161049b565b90601f8019910116810190811067ffffffffffffffff8211176104e657604052565b634e487b7160e01b5f52604160045260245ffdfea164736f6c634300081b000a",
        "nonce": "0x15",
        "chainId": "0x6f"
      },
      "additionalContracts": [],
      "isFixedGasLimit": false
    },
    {
      "hash": "0x513c988ae0f0a9d492aa9892b44ecb80d51d6f5440660b7c21ac40ebabac0706",
      "transactionType": "CALL",
      "contractName": null,
      "contractAddress": "0x8828fd7431d5bb1962d7e067c103b2324fa6bbec",
      "function": "setBridgers(address,address)",
      "arguments": [
        "0xC5EA444a0F556f5B227ec7447294d91086BB692c",
        "0xC5EA444a0F556f5B227ec7447294d91086BB692c"
      ],
      "transaction": {
        "from": "0xd289d1387ae1033a703842d69501d5bec5a6f04e",
        "to": "0x8828fd7431d5bb1962d7e067c103b2324fa6bbec",
        "value": "0x0",
        "input": "0x2b0f3ee4000000000000000000000000c5ea444a0f556f5b227ec7447294d91086bb692c000000000000000000000000c5ea444a0f556f5b227ec7447294d91086bb692c",
        "nonce": "0x16",
        "chainId": "0x6f"
      },
      "additionalContracts": [],
      "isFixedGasLimit": false
    },
    {
      "hash": "0xed9ff6741db10b3045ced5a8c60ac486d1a21c494a4d492898e20dab57c564ef",
      "transactionType": "CALL",
      "contractName": null,
      "contractAddress": "0x4d4adec97e3e11693f65dedc2d1e6bec784eb2f1",
      "function": "mint(address,uint256)",
      "arguments": [
        "0x2023A9aE4D68FEA5B1Bef01F207b249c9f2cECBf",
        "123000000"
      ],
      "transaction": {
        "from": "0xd289d1387ae1033a703842d69501d5bec5a6f04e",
        "to": "0x4d4adec97e3e11693f65dedc2d1e6bec784eb2f1",
        "value": "0x0",
        "input": "0x40c10f190000000000000000000000002023a9ae4d68fea5b1bef01f207b249c9f2cecbf000000000000000000000000000000000000000000000000000000000754d4c0",
        "nonce": "0x17",
        "chainId": "0x6f"
      },
      "additionalContracts": [],
      "isFixedGasLimit": false
    },
    {
      "hash": "0x7c502ac501942dd735dc0196df91cdd500c49f19f4e20e4085b732afdc2226c7",
      "transactionType": "CALL",
      "contractName": null,
      "contractAddress": "0x8828fd7431d5bb1962d7e067c103b2324fa6bbec",
      "function": "pullFromReceiver((uint256,address,bool,bytes32,bytes32,uint256,address,address,(address,uint256,bytes)[],bytes))",
      "arguments": [
        "(111, 0xD59d27B9172aD056Cb5C008Dc2BbEFe702123A55, false, 0x0000000000000000000000000000000000000000000000000000000000000000, 0x0000000000000000000000000000000000000000000000000000000000000001, 0, 0x4D4aDEc97e3e11693F65dEDC2D1e6Bec784eB2F1, 0x4D4aDEc97e3e11693F65dEDC2D1e6Bec784eB2F1, [], 0x)"
      ],
      "transaction": {
        "from": "0xd289d1387ae1033a703842d69501d5bec5a6f04e",
        "to": "0x8828fd7431d5bb1962d7e067c103b2324fa6bbec",
        "value": "0x0",
        "input": "0x1ad1087b0000000000000000000000000000000000000000000000000000000000000020000000000000000000000000000000000000000000000000000000000000006f000000000000000000000000d59d27b9172ad056cb5c008dc2bbefe702123a5500000000000000000000000000000000000000000000000000000000000000000000000000000000000000000000000000000000000000000000000000000000000000000000000000000000000000000000000000000000000000000000000100000000000000000000000000000000000000000000000000000000000000000000000000000000000000004d4adec97e3e11693f65dedc2d1e6bec784eb2f10000000000000000000000004d4adec97e3e11693f65dedc2d1e6bec784eb2f10000000000000000000000000000000000000000000000000000000000000140000000000000000000000000000000000000000000000000000000000000016000000000000000000000000000000000000000000000000000000000000000000000000000000000000000000000000000000000000000000000000000000000",
        "nonce": "0x18",
        "chainId": "0x6f"
      },
      "additionalContracts": [],
      "isFixedGasLimit": false
    },
    {
      "hash": "0x36d01de7490a4bb86e8cf80cb286ddabd66ba87a04de7c38e917290146251b60",
      "transactionType": "CALL",
      "contractName": null,
      "contractAddress": "0x4d4adec97e3e11693f65dedc2d1e6bec784eb2f1",
      "function": "mint(address,uint256)",
      "arguments": [
        "0x2023A9aE4D68FEA5B1Bef01F207b249c9f2cECBf",
        "100000000"
      ],
      "transaction": {
        "from": "0xd289d1387ae1033a703842d69501d5bec5a6f04e",
        "to": "0x4d4adec97e3e11693f65dedc2d1e6bec784eb2f1",
        "value": "0x0",
        "input": "0x40c10f190000000000000000000000002023a9ae4d68fea5b1bef01f207b249c9f2cecbf0000000000000000000000000000000000000000000000000000000005f5e100",
        "nonce": "0x19",
        "chainId": "0x6f"
      },
      "additionalContracts": [],
      "isFixedGasLimit": false
    },
    {
      "hash": "0xaedae0178498b2a31bbe450105e800c9fe3ec7f30955749b5cdc3c7afe91bcbf",
      "transactionType": "CALL",
      "contractName": null,
      "contractAddress": "0x8828fd7431d5bb1962d7e067c103b2324fa6bbec",
      "function": "pullFromReceiver((uint256,address,bool,bytes32,bytes32,uint256,address,address,(address,uint256,bytes)[],bytes))",
      "arguments": [
        "(111, 0xD59d27B9172aD056Cb5C008Dc2BbEFe702123A55, false, 0x0000000000000000000000000000000000000000000000000000000000000000, 0x0000000000000000000000000000000000000000000000000000000000000002, 0, 0x4D4aDEc97e3e11693F65dEDC2D1e6Bec784eB2F1, 0xF86C23C1E883ee3B820FB9BE75FF91C9A49EaE75, [(0xF86C23C1E883ee3B820FB9BE75FF91C9A49EaE75, 0, 0x40c10f190000000000000000000000009feb94832da4e52a75a18e6310640cc2cb702ffe0000000000000000000000000000000000000000000000000000000005f5e100)], 0x)"
      ],
      "transaction": {
        "from": "0xd289d1387ae1033a703842d69501d5bec5a6f04e",
        "to": "0x8828fd7431d5bb1962d7e067c103b2324fa6bbec",
        "value": "0x0",
        "input": "0x1ad1087b0000000000000000000000000000000000000000000000000000000000000020000000000000000000000000000000000000000000000000000000000000006f000000000000000000000000d59d27b9172ad056cb5c008dc2bbefe702123a5500000000000000000000000000000000000000000000000000000000000000000000000000000000000000000000000000000000000000000000000000000000000000000000000000000000000000000000000000000000000000000000000200000000000000000000000000000000000000000000000000000000000000000000000000000000000000004d4adec97e3e11693f65dedc2d1e6bec784eb2f1000000000000000000000000f86c23c1e883ee3b820fb9be75ff91c9a49eae750000000000000000000000000000000000000000000000000000000000000140000000000000000000000000000000000000000000000000000000000000026000000000000000000000000000000000000000000000000000000000000000010000000000000000000000000000000000000000000000000000000000000020000000000000000000000000f86c23c1e883ee3b820fb9be75ff91c9a49eae7500000000000000000000000000000000000000000000000000000000000000000000000000000000000000000000000000000000000000000000000000000060000000000000000000000000000000000000000000000000000000000000004440c10f190000000000000000000000009feb94832da4e52a75a18e6310640cc2cb702ffe0000000000000000000000000000000000000000000000000000000005f5e100000000000000000000000000000000000000000000000000000000000000000000000000000000000000000000000000000000000000000000000000",
        "nonce": "0x1a",
        "chainId": "0x6f"
      },
      "additionalContracts": [],
      "isFixedGasLimit": false
    },
    {
      "hash": "0x673bfefe6dd9f3d7d5ccd91876f25c4f64567d358831d72e246a1f258d337556",
      "transactionType": "CALL",
      "contractName": null,
      "contractAddress": "0xf86c23c1e883ee3b820fb9be75ff91c9a49eae75",
      "function": "mint(address,uint256)",
      "arguments": [
        "0xD289D1387ae1033A703842D69501D5bEc5A6f04e",
        "5000000"
      ],
      "transaction": {
        "from": "0xd289d1387ae1033a703842d69501d5bec5a6f04e",
        "to": "0xf86c23c1e883ee3b820fb9be75ff91c9a49eae75",
        "value": "0x0",
        "input": "0x40c10f19000000000000000000000000d289d1387ae1033a703842d69501d5bec5a6f04e00000000000000000000000000000000000000000000000000000000004c4b40",
        "nonce": "0x1b",
        "chainId": "0x6f"
      },
      "additionalContracts": [],
      "isFixedGasLimit": false
    },
    {
      "hash": "0x1193618ca7c4b0908d28701f918a6c723fe1f7d16a10b1871df5bce92b307e0e",
      "transactionType": "CALL",
      "contractName": null,
      "contractAddress": "0xf86c23c1e883ee3b820fb9be75ff91c9a49eae75",
      "function": "approve(address,uint256)",
      "arguments": [
        "0x048255dfEF2eBFA7307058Ae475a3e2F5ee0df46",
        "115792089237316195423570985008687907853269984665640564039457584007913129639935"
      ],
      "transaction": {
        "from": "0xd289d1387ae1033a703842d69501d5bec5a6f04e",
        "to": "0xf86c23c1e883ee3b820fb9be75ff91c9a49eae75",
        "value": "0x0",
        "input": "0x095ea7b3000000000000000000000000048255dfef2ebfa7307058ae475a3e2f5ee0df46ffffffffffffffffffffffffffffffffffffffffffffffffffffffffffffffff",
        "nonce": "0x1c",
        "chainId": "0x6f"
      },
      "additionalContracts": [],
      "isFixedGasLimit": false
    },
    {
      "hash": "0x695332a5153e4c4c9ff333302d901f90b25fc4ba8f225b597c282ff49e23c9a0",
      "transactionType": "CALL",
      "contractName": null,
      "contractAddress": "0x048255dfef2ebfa7307058ae475a3e2f5ee0df46",
      "function": "createIntent((uint8,bytes,address,address,uint256),uint256)",
      "arguments": [
        "(0, 0x00000000000000000000000000000000000000000000000000000000000000200000000000000000000000002db97a32d5ce8d79f7b7fdc607584a7a35da5e0d00000000000000000000000000000000000000000000000000000000000000400000000000000000000000000000000000000000000000000000000000000002abcd000000000000000000000000000000000000000000000000000000000000, 0xD289D1387ae1033A703842D69501D5bEc5A6f04e, 0xF86C23C1E883ee3B820FB9BE75FF91C9A49EaE75, 5000000)",
        "1768320682"
      ],
      "transaction": {
        "from": "0xd289d1387ae1033a703842d69501d5bec5a6f04e",
        "to": "0x048255dfef2ebfa7307058ae475a3e2f5ee0df46",
        "value": "0x0",
        "input": "0x549f750500000000000000000000000000000000000000000000000000000000000000400000000000000000000000000000000000000000000000000000000069666eaa000000000000000000000000000000000000000000000000000000000000000000000000000000000000000000000000000000000000000000000000000000a0000000000000000000000000d289d1387ae1033a703842d69501d5bec5a6f04e000000000000000000000000f86c23c1e883ee3b820fb9be75ff91c9a49eae7500000000000000000000000000000000000000000000000000000000004c4b4000000000000000000000000000000000000000000000000000000000000000a000000000000000000000000000000000000000000000000000000000000000200000000000000000000000002db97a32d5ce8d79f7b7fdc607584a7a35da5e0d00000000000000000000000000000000000000000000000000000000000000400000000000000000000000000000000000000000000000000000000000000002abcd000000000000000000000000000000000000000000000000000000000000",
        "nonce": "0x1d",
        "chainId": "0x6f"
      },
      "additionalContracts": [],
      "isFixedGasLimit": false
    },
    {
      "hash": "0x05c2317c0bed7f97c38ae0b6aa48987e4d1c267ba584761ea2ba850fb1afe1f8",
      "transactionType": "CALL",
      "contractName": null,
      "contractAddress": "0x4d4adec97e3e11693f65dedc2d1e6bec784eb2f1",
      "function": "mint(address,uint256)",
      "arguments": [
        "0xD289D1387ae1033A703842D69501D5bEc5A6f04e",
        "1000000"
      ],
      "transaction": {
        "from": "0xd289d1387ae1033a703842d69501d5bec5a6f04e",
        "to": "0x4d4adec97e3e11693f65dedc2d1e6bec784eb2f1",
        "value": "0x0",
        "input": "0x40c10f19000000000000000000000000d289d1387ae1033a703842d69501d5bec5a6f04e00000000000000000000000000000000000000000000000000000000000f4240",
        "nonce": "0x1e",
        "chainId": "0x6f"
      },
      "additionalContracts": [],
      "isFixedGasLimit": false
    },
    {
      "hash": "0x6e9d34b314c8968de06008f1c77284b05427bc4f4fbcbe14eea5cd6f91441a9f",
      "transactionType": "CALL",
      "contractName": null,
      "contractAddress": "0x4d4adec97e3e11693f65dedc2d1e6bec784eb2f1",
      "function": "approve(address,uint256)",
      "arguments": [
        "0x048255dfEF2eBFA7307058Ae475a3e2F5ee0df46",
        "115792089237316195423570985008687907853269984665640564039457584007913129639935"
      ],
      "transaction": {
        "from": "0xd289d1387ae1033a703842d69501d5bec5a6f04e",
        "to": "0x4d4adec97e3e11693f65dedc2d1e6bec784eb2f1",
        "value": "0x0",
        "input": "0x095ea7b3000000000000000000000000048255dfef2ebfa7307058ae475a3e2f5ee0df46ffffffffffffffffffffffffffffffffffffffffffffffffffffffffffffffff",
        "nonce": "0x1f",
        "chainId": "0x6f"
      },
      "additionalContracts": [],
      "isFixedGasLimit": false
    },
    {
      "hash": "0x41cf3553a1957269bd5c340c064fcf7101804dff544eac234d3f2741dcbdeefb",
      "transactionType": "CALL",
      "contractName": null,
      "contractAddress": "0x048255dfef2ebfa7307058ae475a3e2f5ee0df46",
      "function": "claimIntent(bytes32)",
      "arguments": [
        "0x437cf7937243d2015f601488dd7cfe1ab977b86402b54d2a15e2f0f34389843b"
      ],
      "transaction": {
        "from": "0xd289d1387ae1033a703842d69501d5bec5a6f04e",
        "to": "0x048255dfef2ebfa7307058ae475a3e2f5ee0df46",
        "value": "0x0",
        "input": "0x40e624cb437cf7937243d2015f601488dd7cfe1ab977b86402b54d2a15e2f0f34389843b",
        "nonce": "0x20",
        "chainId": "0x6f"
      },
      "additionalContracts": [],
      "isFixedGasLimit": false
    },
    {
      "hash": "0x595680c106d52df9f0bf9c3c73426e9007f0bb5985b65f9337516ed69ef1b049",
      "transactionType": "CALL",
      "contractName": null,
      "contractAddress": "0x8c16d2f19a034b7281254f5656c2d1461c6ceb9a",
      "function": "setTx((bytes32,uint256,uint32,bytes21,bytes21,bytes))",
      "arguments": [
        "(0x0000000000000000000000000000000000000000000000000000000000000000, 0, 0, 0x000000000000000000000000000000000000000000, 0x412db97a32d5ce8d79f7b7fdc607584a7a35da5e0d, 0xabcd)"
      ],
      "transaction": {
        "from": "0xd289d1387ae1033a703842d69501d5bec5a6f04e",
        "to": "0x8c16d2f19a034b7281254f5656c2d1461c6ceb9a",
        "value": "0x0",
        "input": "0x3aec07de00000000000000000000000000000000000000000000000000000000000000200000000000000000000000000000000000000000000000000000000000000000000000000000000000000000000000000000000000000000000000000000000000000000000000000000000000000000000000000000000000000000000000000000000000000000000000000000000000000000000000000000000000000000412db97a32d5ce8d79f7b7fdc607584a7a35da5e0d000000000000000000000000000000000000000000000000000000000000000000000000000000000000c00000000000000000000000000000000000000000000000000000000000000002abcd000000000000000000000000000000000000000000000000000000000000",
        "nonce": "0x21",
        "chainId": "0x6f"
      },
      "additionalContracts": [],
      "isFixedGasLimit": false
    },
    {
      "hash": "0x30e94e4178251f3c74dc8c22d81d88ffb0060b9eaa3806cb04d00900f40d6c2b",
      "transactionType": "CALL",
      "contractName": null,
      "contractAddress": "0x048255dfef2ebfa7307058ae475a3e2f5ee0df46",
      "function": "proveIntentFill(bytes32,bytes[20],bytes,bytes32[],uint256)",
      "arguments": [
        "0x437cf7937243d2015f601488dd7cfe1ab977b86402b54d2a15e2f0f34389843b",
        "[0x, 0x, 0x, 0x, 0x, 0x, 0x, 0x, 0x, 0x, 0x, 0x, 0x, 0x, 0x, 0x, 0x, 0x, 0x, 0x]",
        "0x",
        "[]",
        "0"
      ],
      "transaction": {
        "from": "0xd289d1387ae1033a703842d69501d5bec5a6f04e",
        "to": "0x048255dfef2ebfa7307058ae475a3e2f5ee0df46",
        "value": "0x0",
        "input": "0x5c23cc02437cf7937243d2015f601488dd7cfe1ab977b86402b54d2a15e2f0f34389843b00000000000000000000000000000000000000000000000000000000000000a000000000000000000000000000000000000000000000000000000000000005a000000000000000000000000000000000000000000000000000000000000005c00000000000000000000000000000000000000000000000000000000000000000000000000000000000000000000000000000000000000000000000000000028000000000000000000000000000000000000000000000000000000000000002a000000000000000000000000000000000000000000000000000000000000002c000000000000000000000000000000000000000000000000000000000000002e00000000000000000000000000000000000000000000000000000000000000300000000000000000000000000000000000000000000000000000000000000032000000000000000000000000000000000000000000000000000000000000003400000000000000000000000000000000000000000000000000000000000000360000000000000000000000000000000000000000000000000000000000000038000000000000000000000000000000000000000000000000000000000000003a000000000000000000000000000000000000000000000000000000000000003c000000000000000000000000000000000000000000000000000000000000003e00000000000000000000000000000000000000000000000000000000000000400000000000000000000000000000000000000000000000000000000000000042000000000000000000000000000000000000000000000000000000000000004400000000000000000000000000000000000000000000000000000000000000460000000000000000000000000000000000000000000000000000000000000048000000000000000000000000000000000000000000000000000000000000004a000000000000000000000000000000000000000000000000000000000000004c000000000000000000000000000000000000000000000000000000000000004e00000000000000000000000000000000000000000000000000000000000000000000000000000000000000000000000000000000000000000000000000000000000000000000000000000000000000000000000000000000000000000000000000000000000000000000000000000000000000000000000000000000000000000000000000000000000000000000000000000000000000000000000000000000000000000000000000000000000000000000000000000000000000000000000000000000000000000000000000000000000000000000000000000000000000000000000000000000000000000000000000000000000000000000000000000000000000000000000000000000000000000000000000000000000000000000000000000000000000000000000000000000000000000000000000000000000000000000000000000000000000000000000000000000000000000000000000000000000000000000000000000000000000000000000000000000000000000000000000000000000000000000000000000000000000000000000000000000000000000000000000000000000000000000000000000000000000000000000000000000000000000000000000000000000000000000000000000000000000000000000000000000000000000000000000000000000000000000000000000000000000000000000000000000000000000000000000000000000000000000000000000000000000000000000000000000000000000000000000000000000000000000000000000000000000000000000000000000000000000000000000000000000000000000000000000000000000000000000000000000000000000000000000000000000000000000000000000000000000000000000000000000000000000000000000000000000000000000000000000000000000000000000000000000000000000",
        "nonce": "0x22",
        "chainId": "0x6f"
      },
      "additionalContracts": [],
      "isFixedGasLimit": false
    },
    {
      "hash": "0x45b14dbbbe8d1e00e14e30ea6da4a9a9a44c19141c3b1562cf19f7e8314f5ff9",
      "transactionType": "CALL",
      "contractName": null,
      "contractAddress": "0x4d4adec97e3e11693f65dedc2d1e6bec784eb2f1",
      "function": "mint(address,uint256)",
      "arguments": [
        "0xD289D1387ae1033A703842D69501D5bEc5A6f04e",
        "2000000"
      ],
      "transaction": {
        "from": "0xd289d1387ae1033a703842d69501d5bec5a6f04e",
        "to": "0x4d4adec97e3e11693f65dedc2d1e6bec784eb2f1",
        "value": "0x0",
        "input": "0x40c10f19000000000000000000000000d289d1387ae1033a703842d69501d5bec5a6f04e00000000000000000000000000000000000000000000000000000000001e8480",
        "nonce": "0x23",
        "chainId": "0x6f"
      },
      "additionalContracts": [],
      "isFixedGasLimit": false
    },
    {
      "hash": "0x63c0f0c60a979577ffd174ff1f9f4b2a65204330c0cd776dd290ae73505a840f",
      "transactionType": "CALL",
      "contractName": null,
      "contractAddress": "0x4d4adec97e3e11693f65dedc2d1e6bec784eb2f1",
      "function": "approve(address,uint256)",
      "arguments": [
        "0x048255dfEF2eBFA7307058Ae475a3e2F5ee0df46",
        "115792089237316195423570985008687907853269984665640564039457584007913129639935"
      ],
      "transaction": {
        "from": "0xd289d1387ae1033a703842d69501d5bec5a6f04e",
        "to": "0x4d4adec97e3e11693f65dedc2d1e6bec784eb2f1",
        "value": "0x0",
        "input": "0x095ea7b3000000000000000000000000048255dfef2ebfa7307058ae475a3e2f5ee0df46ffffffffffffffffffffffffffffffffffffffffffffffffffffffffffffffff",
        "nonce": "0x24",
        "chainId": "0x6f"
      },
      "additionalContracts": [],
      "isFixedGasLimit": false
    },
    {
      "hash": "0x1e0d0ceec8571239cd90b9fe062e20db7ef10854780a13628096c84f26a46601",
      "transactionType": "CALL",
      "contractName": null,
      "contractAddress": "0x048255dfef2ebfa7307058ae475a3e2f5ee0df46",
      "function": "createIntent((uint8,bytes,address,address,uint256),uint256)",
      "arguments": [
        "(1, 0x000000000000000000000000558b8fe3b86724d9d9433bf8ec2b1a1b223f9d25000000000000000000000000000000000000000000000000000000000012d687, 0xD289D1387ae1033A703842D69501D5bEc5A6f04e, 0x4D4aDEc97e3e11693F65dEDC2D1e6Bec784eB2F1, 2000000)",
        "1768320682"
      ],
      "transaction": {
        "from": "0xd289d1387ae1033a703842d69501d5bec5a6f04e",
        "to": "0x048255dfef2ebfa7307058ae475a3e2f5ee0df46",
        "value": "0x0",
        "input": "0x549f750500000000000000000000000000000000000000000000000000000000000000400000000000000000000000000000000000000000000000000000000069666eaa000000000000000000000000000000000000000000000000000000000000000100000000000000000000000000000000000000000000000000000000000000a0000000000000000000000000d289d1387ae1033a703842d69501d5bec5a6f04e0000000000000000000000004d4adec97e3e11693f65dedc2d1e6bec784eb2f100000000000000000000000000000000000000000000000000000000001e84800000000000000000000000000000000000000000000000000000000000000040000000000000000000000000558b8fe3b86724d9d9433bf8ec2b1a1b223f9d25000000000000000000000000000000000000000000000000000000000012d687",
        "nonce": "0x25",
        "chainId": "0x6f"
      },
      "additionalContracts": [],
      "isFixedGasLimit": false
    },
    {
      "hash": "0x8eeeae544a79cb5a55977e241c9bd38cb18bedcf8158889ea1cc6283aceec8b3",
      "transactionType": "CALL",
      "contractName": null,
      "contractAddress": "0x4d4adec97e3e11693f65dedc2d1e6bec784eb2f1",
      "function": "mint(address,uint256)",
      "arguments": [
        "0xD289D1387ae1033A703842D69501D5bEc5A6f04e",
        "1000000"
      ],
      "transaction": {
        "from": "0xd289d1387ae1033a703842d69501d5bec5a6f04e",
        "to": "0x4d4adec97e3e11693f65dedc2d1e6bec784eb2f1",
        "value": "0x0",
        "input": "0x40c10f19000000000000000000000000d289d1387ae1033a703842d69501d5bec5a6f04e00000000000000000000000000000000000000000000000000000000000f4240",
        "nonce": "0x26",
        "chainId": "0x6f"
      },
      "additionalContracts": [],
      "isFixedGasLimit": false
    },
    {
      "hash": "0x87ccc77118d5e8c30a5d79bef72571ad0d64537c8e2e377ff52106655b51e205",
      "transactionType": "CALL",
      "contractName": null,
      "contractAddress": "0x4d4adec97e3e11693f65dedc2d1e6bec784eb2f1",
      "function": "approve(address,uint256)",
      "arguments": [
        "0x048255dfEF2eBFA7307058Ae475a3e2F5ee0df46",
        "115792089237316195423570985008687907853269984665640564039457584007913129639935"
      ],
      "transaction": {
        "from": "0xd289d1387ae1033a703842d69501d5bec5a6f04e",
        "to": "0x4d4adec97e3e11693f65dedc2d1e6bec784eb2f1",
        "value": "0x0",
        "input": "0x095ea7b3000000000000000000000000048255dfef2ebfa7307058ae475a3e2f5ee0df46ffffffffffffffffffffffffffffffffffffffffffffffffffffffffffffffff",
        "nonce": "0x27",
        "chainId": "0x6f"
      },
      "additionalContracts": [],
      "isFixedGasLimit": false
    },
    {
      "hash": "0x9e3d812a030d1703a8a7387918bde8e4dfb983591b0d2f26609348b5f1370ea9",
      "transactionType": "CALL",
      "contractName": null,
      "contractAddress": "0x048255dfef2ebfa7307058ae475a3e2f5ee0df46",
      "function": "claimIntent(bytes32)",
      "arguments": [
        "0xf35eb2b59caba4fc7241fd247b979a0635af9ef3272fb7018a548358185ee245"
      ],
      "transaction": {
        "from": "0xd289d1387ae1033a703842d69501d5bec5a6f04e",
        "to": "0x048255dfef2ebfa7307058ae475a3e2f5ee0df46",
        "value": "0x0",
        "input": "0x40e624cbf35eb2b59caba4fc7241fd247b979a0635af9ef3272fb7018a548358185ee245",
        "nonce": "0x28",
        "chainId": "0x6f"
      },
      "additionalContracts": [],
      "isFixedGasLimit": false
    },
    {
      "hash": "0x9b10ac3fbd02f7448c38f9766f4fc1b76725518bde0024f5692cbdba944e83c8",
      "transactionType": "CALL",
      "contractName": null,
      "contractAddress": "0x8c16d2f19a034b7281254f5656c2d1461c6ceb9a",
      "function": "setTx((bytes32,uint256,uint32,bytes21,bytes21,bytes))",
      "arguments": [
        "(0x0000000000000000000000000000000000000000000000000000000000000000, 0, 0, 0x000000000000000000000000000000000000000000, 0x41f61c257cc0c129959a9704a59193e15c91853749, 0xa9059cbb000000000000000000000000558b8fe3b86724d9d9433bf8ec2b1a1b223f9d25000000000000000000000000000000000000000000000000000000000012d687)"
      ],
      "transaction": {
        "from": "0xd289d1387ae1033a703842d69501d5bec5a6f04e",
        "to": "0x8c16d2f19a034b7281254f5656c2d1461c6ceb9a",
        "value": "0x0",
        "input": "0x3aec07de0000000000000000000000000000000000000000000000000000000000000020000000000000000000000000000000000000000000000000000000000000000000000000000000000000000000000000000000000000000000000000000000000000000000000000000000000000000000000000000000000000000000000000000000000000000000000000000000000000000000000000000000000000000041f61c257cc0c129959a9704a59193e15c91853749000000000000000000000000000000000000000000000000000000000000000000000000000000000000c00000000000000000000000000000000000000000000000000000000000000044a9059cbb000000000000000000000000558b8fe3b86724d9d9433bf8ec2b1a1b223f9d25000000000000000000000000000000000000000000000000000000000012d68700000000000000000000000000000000000000000000000000000000",
        "nonce": "0x29",
        "chainId": "0x6f"
      },
      "additionalContracts": [],
      "isFixedGasLimit": false
    },
    {
      "hash": "0x8687671cab6b2043833eac71c48fab934309a41b559edfdc8565856b45022e6f",
      "transactionType": "CALL",
      "contractName": null,
      "contractAddress": "0x048255dfef2ebfa7307058ae475a3e2f5ee0df46",
      "function": "proveIntentFill(bytes32,bytes[20],bytes,bytes32[],uint256)",
      "arguments": [
        "0xf35eb2b59caba4fc7241fd247b979a0635af9ef3272fb7018a548358185ee245",
        "[0x, 0x, 0x, 0x, 0x, 0x, 0x, 0x, 0x, 0x, 0x, 0x, 0x, 0x, 0x, 0x, 0x, 0x, 0x, 0x]",
        "0x",
        "[]",
        "0"
      ],
      "transaction": {
        "from": "0xd289d1387ae1033a703842d69501d5bec5a6f04e",
        "to": "0x048255dfef2ebfa7307058ae475a3e2f5ee0df46",
        "value": "0x0",
        "input": "0x5c23cc02f35eb2b59caba4fc7241fd247b979a0635af9ef3272fb7018a548358185ee24500000000000000000000000000000000000000000000000000000000000000a000000000000000000000000000000000000000000000000000000000000005a000000000000000000000000000000000000000000000000000000000000005c00000000000000000000000000000000000000000000000000000000000000000000000000000000000000000000000000000000000000000000000000000028000000000000000000000000000000000000000000000000000000000000002a000000000000000000000000000000000000000000000000000000000000002c000000000000000000000000000000000000000000000000000000000000002e00000000000000000000000000000000000000000000000000000000000000300000000000000000000000000000000000000000000000000000000000000032000000000000000000000000000000000000000000000000000000000000003400000000000000000000000000000000000000000000000000000000000000360000000000000000000000000000000000000000000000000000000000000038000000000000000000000000000000000000000000000000000000000000003a000000000000000000000000000000000000000000000000000000000000003c000000000000000000000000000000000000000000000000000000000000003e00000000000000000000000000000000000000000000000000000000000000400000000000000000000000000000000000000000000000000000000000000042000000000000000000000000000000000000000000000000000000000000004400000000000000000000000000000000000000000000000000000000000000460000000000000000000000000000000000000000000000000000000000000048000000000000000000000000000000000000000000000000000000000000004a000000000000000000000000000000000000000000000000000000000000004c000000000000000000000000000000000000000000000000000000000000004e00000000000000000000000000000000000000000000000000000000000000000000000000000000000000000000000000000000000000000000000000000000000000000000000000000000000000000000000000000000000000000000000000000000000000000000000000000000000000000000000000000000000000000000000000000000000000000000000000000000000000000000000000000000000000000000000000000000000000000000000000000000000000000000000000000000000000000000000000000000000000000000000000000000000000000000000000000000000000000000000000000000000000000000000000000000000000000000000000000000000000000000000000000000000000000000000000000000000000000000000000000000000000000000000000000000000000000000000000000000000000000000000000000000000000000000000000000000000000000000000000000000000000000000000000000000000000000000000000000000000000000000000000000000000000000000000000000000000000000000000000000000000000000000000000000000000000000000000000000000000000000000000000000000000000000000000000000000000000000000000000000000000000000000000000000000000000000000000000000000000000000000000000000000000000000000000000000000000000000000000000000000000000000000000000000000000000000000000000000000000000000000000000000000000000000000000000000000000000000000000000000000000000000000000000000000000000000000000000000000000000000000000000000000000000000000000000000000000000000000000000000000000000000000000000000000000000000000000000000000000000000000000000000000000000000",
        "nonce": "0x2a",
        "chainId": "0x6f"
      },
      "additionalContracts": [],
      "isFixedGasLimit": false
    },
    {
      "hash": "0xd4a3704fdadaf1ab9481eb5a8029329668b8b0b70b4a0ad0acbe10760127fa8f",
      "transactionType": "CALL",
      "contractName": null,
      "contractAddress": "0xf86c23c1e883ee3b820fb9be75ff91c9a49eae75",
      "function": "mint(address,uint256)",
      "arguments": [
        "0xD289D1387ae1033A703842D69501D5bEc5A6f04e",
        "1000000"
      ],
      "transaction": {
        "from": "0xd289d1387ae1033a703842d69501d5bec5a6f04e",
        "to": "0xf86c23c1e883ee3b820fb9be75ff91c9a49eae75",
        "value": "0x0",
        "input": "0x40c10f19000000000000000000000000d289d1387ae1033a703842d69501d5bec5a6f04e00000000000000000000000000000000000000000000000000000000000f4240",
        "nonce": "0x2b",
        "chainId": "0x6f"
      },
      "additionalContracts": [],
      "isFixedGasLimit": false
    },
    {
      "hash": "0xdda00ba795aaf750a19ff23dd6a7124f10b25d69deb1562e29881bcfeb1a3c35",
      "transactionType": "CALL",
      "contractName": null,
      "contractAddress": "0xf86c23c1e883ee3b820fb9be75ff91c9a49eae75",
      "function": "approve(address,uint256)",
      "arguments": [
        "0x048255dfEF2eBFA7307058Ae475a3e2F5ee0df46",
        "115792089237316195423570985008687907853269984665640564039457584007913129639935"
      ],
      "transaction": {
        "from": "0xd289d1387ae1033a703842d69501d5bec5a6f04e",
        "to": "0xf86c23c1e883ee3b820fb9be75ff91c9a49eae75",
        "value": "0x0",
        "input": "0x095ea7b3000000000000000000000000048255dfef2ebfa7307058ae475a3e2f5ee0df46ffffffffffffffffffffffffffffffffffffffffffffffffffffffffffffffff",
        "nonce": "0x2c",
        "chainId": "0x6f"
      },
      "additionalContracts": [],
      "isFixedGasLimit": false
    },
    {
      "hash": "0x25dd83ac0ee371b92b2f10b94ee5848f4aa2182f3fc7270b9b9ddd860ceb247e",
      "transactionType": "CALL",
      "contractName": null,
      "contractAddress": "0x048255dfef2ebfa7307058ae475a3e2f5ee0df46",
      "function": "createIntent((uint8,bytes,address,address,uint256),uint256)",
      "arguments": [
        "(0, 0x00000000000000000000000000000000000000000000000000000000000000200000000000000000000000005457e258a09ebfb4a2501a9e3d70d37f54f923f300000000000000000000000000000000000000000000000000000000000000400000000000000000000000000000000000000000000000000000000000000002beef000000000000000000000000000000000000000000000000000000000000, 0xD289D1387ae1033A703842D69501D5bEc5A6f04e, 0xF86C23C1E883ee3B820FB9BE75FF91C9A49EaE75, 1000000)",
        "1768320632"
      ],
      "transaction": {
        "from": "0xd289d1387ae1033a703842d69501d5bec5a6f04e",
        "to": "0x048255dfef2ebfa7307058ae475a3e2f5ee0df46",
        "value": "0x0",
        "input": "0x549f750500000000000000000000000000000000000000000000000000000000000000400000000000000000000000000000000000000000000000000000000069666e78000000000000000000000000000000000000000000000000000000000000000000000000000000000000000000000000000000000000000000000000000000a0000000000000000000000000d289d1387ae1033a703842d69501d5bec5a6f04e000000000000000000000000f86c23c1e883ee3b820fb9be75ff91c9a49eae7500000000000000000000000000000000000000000000000000000000000f424000000000000000000000000000000000000000000000000000000000000000a000000000000000000000000000000000000000000000000000000000000000200000000000000000000000005457e258a09ebfb4a2501a9e3d70d37f54f923f300000000000000000000000000000000000000000000000000000000000000400000000000000000000000000000000000000000000000000000000000000002beef000000000000000000000000000000000000000000000000000000000000",
        "nonce": "0x2d",
        "chainId": "0x6f"
      },
      "additionalContracts": [],
      "isFixedGasLimit": false
    },
    {
      "hash": "0x3fb315d3dc4c0f30f4b3ac0cafaec8ec1fbf582c55865763848241f4c4e18afe",
      "transactionType": "CALL",
      "contractName": null,
      "contractAddress": "0x048255dfef2ebfa7307058ae475a3e2f5ee0df46",
      "function": "closeIntent(bytes32)",
      "arguments": [
        "0xc29e342eb77f8650b232f44ee99a3e55e2f06805d85fbc659ec4953fac75cf90"
      ],
      "transaction": {
        "from": "0xd289d1387ae1033a703842d69501d5bec5a6f04e",
        "to": "0x048255dfef2ebfa7307058ae475a3e2f5ee0df46",
        "value": "0x0",
        "input": "0x51ead90ac29e342eb77f8650b232f44ee99a3e55e2f06805d85fbc659ec4953fac75cf90",
        "nonce": "0x2e",
        "chainId": "0x6f"
      },
      "additionalContracts": [],
      "isFixedGasLimit": false
    },
    {
      "hash": null,
      "transactionType": "CALL",
      "contractName": null,
      "contractAddress": "0x048255dfef2ebfa7307058ae475a3e2f5ee0df46",
      "function": "closeIntent(bytes32)",
      "arguments": [
        "0xc29e342eb77f8650b232f44ee99a3e55e2f06805d85fbc659ec4953fac75cf90"
      ],
      "transaction": {
        "from": "0xd289d1387ae1033a703842d69501d5bec5a6f04e",
        "to": "0x048255dfef2ebfa7307058ae475a3e2f5ee0df46",
        "value": "0x0",
        "input": "0x51ead90ac29e342eb77f8650b232f44ee99a3e55e2f06805d85fbc659ec4953fac75cf90",
        "nonce": "0x2f",
        "chainId": "0x6f"
      },
      "additionalContracts": [],
      "isFixedGasLimit": false
    },
    {
      "hash": null,
      "transactionType": "CALL",
      "contractName": null,
      "contractAddress": "0x4d4adec97e3e11693f65dedc2d1e6bec784eb2f1",
      "function": "mint(address,uint256)",
      "arguments": [
        "0xD289D1387ae1033A703842D69501D5bEc5A6f04e",
        "1000000"
      ],
      "transaction": {
        "from": "0xd289d1387ae1033a703842d69501d5bec5a6f04e",
        "to": "0x4d4adec97e3e11693f65dedc2d1e6bec784eb2f1",
        "value": "0x0",
        "input": "0x40c10f19000000000000000000000000d289d1387ae1033a703842d69501d5bec5a6f04e00000000000000000000000000000000000000000000000000000000000f4240",
        "nonce": "0x30",
        "chainId": "0x6f"
      },
      "additionalContracts": [],
      "isFixedGasLimit": false
    },
    {
      "hash": null,
      "transactionType": "CALL",
      "contractName": null,
      "contractAddress": "0x4d4adec97e3e11693f65dedc2d1e6bec784eb2f1",
      "function": "approve(address,uint256)",
      "arguments": [
        "0x048255dfEF2eBFA7307058Ae475a3e2F5ee0df46",
        "115792089237316195423570985008687907853269984665640564039457584007913129639935"
      ],
      "transaction": {
        "from": "0xd289d1387ae1033a703842d69501d5bec5a6f04e",
        "to": "0x4d4adec97e3e11693f65dedc2d1e6bec784eb2f1",
        "value": "0x0",
        "input": "0x095ea7b3000000000000000000000000048255dfef2ebfa7307058ae475a3e2f5ee0df46ffffffffffffffffffffffffffffffffffffffffffffffffffffffffffffffff",
        "nonce": "0x31",
        "chainId": "0x6f"
      },
      "additionalContracts": [],
      "isFixedGasLimit": false
    },
    {
      "hash": null,
      "transactionType": "CALL",
      "contractName": null,
      "contractAddress": "0x048255dfef2ebfa7307058ae475a3e2f5ee0df46",
      "function": "claimVirtualReceiverIntent(address,address,bytes32,address,uint256)",
      "arguments": [
        "0x8828fD7431d5bb1962d7E067C103b2324FA6BBEC",
        "0x97629064A9C06865C5B3832F94bb64a8E47bcAd7",
        "0x282866f5067804dadd2e500a0a3d8b5e5d2e5cde385e9ec6a887315613d6f448",
        "0x4D4aDEc97e3e11693F65dEDC2D1e6Bec784eB2F1",
        "1000000"
      ],
      "transaction": {
        "from": "0xd289d1387ae1033a703842d69501d5bec5a6f04e",
        "to": "0x048255dfef2ebfa7307058ae475a3e2f5ee0df46",
        "value": "0x0",
        "input": "0xaf2440050000000000000000000000008828fd7431d5bb1962d7e067c103b2324fa6bbec00000000000000000000000097629064a9c06865c5b3832f94bb64a8e47bcad7282866f5067804dadd2e500a0a3d8b5e5d2e5cde385e9ec6a887315613d6f4480000000000000000000000004d4adec97e3e11693f65dedc2d1e6bec784eb2f100000000000000000000000000000000000000000000000000000000000f4240",
        "nonce": "0x32",
        "chainId": "0x6f"
      },
      "additionalContracts": [],
      "isFixedGasLimit": false
    },
    {
      "hash": null,
      "transactionType": "CALL",
      "contractName": null,
      "contractAddress": "0x048255dfef2ebfa7307058ae475a3e2f5ee0df46",
      "function": "unclaimIntent(bytes32)",
      "arguments": [
        "0xee05772a542895427ddf02d6cb47b9027da7949441e78297ad0b8b2608b77382"
      ],
      "transaction": {
        "from": "0xd289d1387ae1033a703842d69501d5bec5a6f04e",
        "to": "0x048255dfef2ebfa7307058ae475a3e2f5ee0df46",
        "value": "0x0",
        "input": "0x64a486c4ee05772a542895427ddf02d6cb47b9027da7949441e78297ad0b8b2608b77382",
        "nonce": "0x33",
        "chainId": "0x6f"
      },
      "additionalContracts": [],
      "isFixedGasLimit": false
    },
    {
      "hash": null,
      "transactionType": "CALL",
      "contractName": null,
      "contractAddress": "0x048255dfef2ebfa7307058ae475a3e2f5ee0df46",
      "function": "unclaimIntent(bytes32)",
      "arguments": [
        "0xee05772a542895427ddf02d6cb47b9027da7949441e78297ad0b8b2608b77382"
      ],
      "transaction": {
        "from": "0xd289d1387ae1033a703842d69501d5bec5a6f04e",
        "to": "0x048255dfef2ebfa7307058ae475a3e2f5ee0df46",
        "value": "0x0",
        "input": "0x64a486c4ee05772a542895427ddf02d6cb47b9027da7949441e78297ad0b8b2608b77382",
        "nonce": "0x34",
        "chainId": "0x6f"
      },
      "additionalContracts": [],
      "isFixedGasLimit": false
    },
    {
      "hash": null,
      "transactionType": "CALL",
      "contractName": null,
      "contractAddress": "0x4d4adec97e3e11693f65dedc2d1e6bec784eb2f1",
      "function": "mint(address,uint256)",
      "arguments": [
        "0x4eBbaa5bb917c960140992a66a036aFAdEB623Cd",
        "10000111"
      ],
      "transaction": {
        "from": "0xd289d1387ae1033a703842d69501d5bec5a6f04e",
        "to": "0x4d4adec97e3e11693f65dedc2d1e6bec784eb2f1",
        "value": "0x0",
        "input": "0x40c10f190000000000000000000000004ebbaa5bb917c960140992a66a036afadeb623cd00000000000000000000000000000000000000000000000000000000009896ef",
        "nonce": "0x35",
        "chainId": "0x6f"
      },
      "additionalContracts": [],
      "isFixedGasLimit": false
    },
    {
      "hash": null,
      "transactionType": "CALL",
      "contractName": null,
      "contractAddress": "0x8828fd7431d5bb1962d7e067c103b2324fa6bbec",
      "function": "pullFromReceiver((uint256,address,bool,bytes32,bytes32,uint256,address,address,(address,uint256,bytes)[],bytes))",
      "arguments": [
        "(222, 0x048255dfEF2eBFA7307058Ae475a3e2F5ee0df46, true, 0x805137159b1f1225efc7ae36f6b216b76c0e9bed085c4220b2f702fde8defd04, 0x38cb7bc9535f8b89744a14dd2acfe7dcc993eb5f668dfbcb95bdf21a839e2ec0, 10000111, 0x4D4aDEc97e3e11693F65dEDC2D1e6Bec784eB2F1, 0x4D4aDEc97e3e11693F65dEDC2D1e6Bec784eB2F1, [], 0x)"
      ],
      "transaction": {
        "from": "0xd289d1387ae1033a703842d69501d5bec5a6f04e",
        "to": "0x8828fd7431d5bb1962d7e067c103b2324fa6bbec",
        "value": "0x0",
        "input": "0x1ad1087b000000000000000000000000000000000000000000000000000000000000002000000000000000000000000000000000000000000000000000000000000000de000000000000000000000000048255dfef2ebfa7307058ae475a3e2f5ee0df460000000000000000000000000000000000000000000000000000000000000001805137159b1f1225efc7ae36f6b216b76c0e9bed085c4220b2f702fde8defd0438cb7bc9535f8b89744a14dd2acfe7dcc993eb5f668dfbcb95bdf21a839e2ec000000000000000000000000000000000000000000000000000000000009896ef0000000000000000000000004d4adec97e3e11693f65dedc2d1e6bec784eb2f10000000000000000000000004d4adec97e3e11693f65dedc2d1e6bec784eb2f10000000000000000000000000000000000000000000000000000000000000140000000000000000000000000000000000000000000000000000000000000016000000000000000000000000000000000000000000000000000000000000000000000000000000000000000000000000000000000000000000000000000000000",
        "nonce": "0x36",
        "chainId": "0x6f"
      },
      "additionalContracts": [],
      "isFixedGasLimit": false
    }
  ],
  "receipts": [
    {
      "status": "0x1",
      "cumulativeGasUsed": "0x52451",
      "logs": [],
      "logsBloom": "0x00000000000000000000000000000000000000000000000000000000000000000000000000000000000000000000000000000000000000000000000000000000000000000000000000000000000000000000000000000000000000000000000000000000000000000000000000000000000000000000000000000000000000000000000000000000000000000000000000000000000000000000000000000000000000000000000000000000000000000000000000000000000000000000000000000000000000000000000000000000000000000000000000000000000000000000000000000000000000000000000000000000000000000000000000000000",
      "type": "0x0",
      "transactionHash": "0x9641ee03018a3142e7c0d37b05ae7446dba97b61b7bb28357dd48191191f94dc",
      "transactionIndex": "0x0",
      "blockHash": "0x5c0125ac9aebb21c4272988f6ae2714a405499835286746b1e0483dde9b3e4fb",
      "blockNumber": "0xf",
      "gasUsed": "0x52451",
      "effectiveGasPrice": "0x3b9aca00",
      "blobGasPrice": "0x1",
      "from": "0xd289d1387ae1033a703842d69501d5bec5a6f04e",
      "to": null,
      "contractAddress": "0x0be19c78706c441de4178a2266a650e47160eda7"
    },
    {
      "status": "0x1",
      "cumulativeGasUsed": "0xc546",
      "logs": [
        {
          "address": "0x8828fd7431d5bb1962d7e067c103b2324fa6bbec",
          "topics": [
            "0x14c028d3d668eb3454bce44d123ceeeb9fb4e74bee073c41f4001e63f0613094",
            "0x0000000000000000000000000be19c78706c441de4178a2266a650e47160eda7",
            "0x0000000000000000000000000be19c78706c441de4178a2266a650e47160eda7"
          ],
          "data": "0x",
          "blockHash": "0xd1fb922803cac026aac84d9d802ea1f2b7af23be6cce5e7abcb91fb88d7f52d7",
          "blockNumber": "0x10",
          "blockTimestamp": "0x69666ef5",
          "transactionHash": "0x5dff21b1310551aebb70c2ceb7eb2a860e457bb41c7ef6fa3224956ff919324a",
          "transactionIndex": "0x0",
          "logIndex": "0x0",
          "removed": false
        },
        {
          "address": "0x8828fd7431d5bb1962d7e067c103b2324fa6bbec",
          "topics": [
            "0x78160f0b1b2b32b52a0076d8f0f70888687ba702a4d993d55ac8d9327d57a127",
            "0x0000000000000000000000000000000000000000000000000000000000000004",
            "0x23c2be47a9e75d748660f3757acd5dfd14f66ded880c2e92cdceb714b486a4eb",
            "0xd834081aa1d74f520172575a96f51da444cf637a623dd9937d1cd700d94efbfb"
          ],
          "data": "0x14c028d3d668eb3454bce44d123ceeeb9fb4e74bee073c41f4001e63f0613094000000000000000000000000000000000000000000000000000000000000004000000000000000000000000000000000000000000000000000000000000000400000000000000000000000000be19c78706c441de4178a2266a650e47160eda70000000000000000000000000be19c78706c441de4178a2266a650e47160eda7",
          "blockHash": "0xd1fb922803cac026aac84d9d802ea1f2b7af23be6cce5e7abcb91fb88d7f52d7",
          "blockNumber": "0x10",
          "blockTimestamp": "0x69666ef5",
          "transactionHash": "0x5dff21b1310551aebb70c2ceb7eb2a860e457bb41c7ef6fa3224956ff919324a",
          "transactionIndex": "0x0",
          "logIndex": "0x1",
          "removed": false
        }
      ],
      "logsBloom": "0x00000000000000000000000000000000000000000000000000000004000000000000000000000000000000000000000000000000000000000000000000200000000000800200000000000010000000000000000000000000000000000000000008000020000800000000000400000008000000000200000000000000000000000000000008000000000000000000000000000000000000000000000000000000100000000000000000000000000000000000000000000000002000000000000000000000000000040000000000000010002000008000000000000400000000000400000000000000000000000000000000000000000000000000000000004000",
      "type": "0x0",
      "transactionHash": "0x5dff21b1310551aebb70c2ceb7eb2a860e457bb41c7ef6fa3224956ff919324a",
      "transactionIndex": "0x0",
      "blockHash": "0xd1fb922803cac026aac84d9d802ea1f2b7af23be6cce5e7abcb91fb88d7f52d7",
      "blockNumber": "0x10",
      "gasUsed": "0xc546",
      "effectiveGasPrice": "0x3b9aca00",
      "blobGasPrice": "0x1",
      "from": "0xd289d1387ae1033a703842d69501d5bec5a6f04e",
      "to": "0x8828fd7431d5bb1962d7e067c103b2324fa6bbec",
      "contractAddress": null
    },
    {
      "status": "0x1",
      "cumulativeGasUsed": "0x1f4cb",
      "logs": [],
      "logsBloom": "0x00000000000000000000000000000000000000000000000000000000000000000000000000000000000000000000000000000000000000000000000000000000000000000000000000000000000000000000000000000000000000000000000000000000000000000000000000000000000000000000000000000000000000000000000000000000000000000000000000000000000000000000000000000000000000000000000000000000000000000000000000000000000000000000000000000000000000000000000000000000000000000000000000000000000000000000000000000000000000000000000000000000000000000000000000000000",
      "type": "0x0",
      "transactionHash": "0x0683791d8c580fe05e947e5fc3f38a502d06668756665d3692d8f46476c347fa",
      "transactionIndex": "0x0",
      "blockHash": "0x94bcd2e87fcb9fe58f0bd561f9792e3541c02c10012e10138bbadce2ef57e7d1",
      "blockNumber": "0x11",
      "gasUsed": "0x1f4cb",
      "effectiveGasPrice": "0x3b9aca00",
      "blobGasPrice": "0x1",
      "from": "0xd289d1387ae1033a703842d69501d5bec5a6f04e",
      "to": null,
      "contractAddress": "0x481e836be187303c64f269bc7fe2c52f7f7c6eef"
    },
    {
      "status": "0x1",
      "cumulativeGasUsed": "0xaa2b",
      "logs": [],
      "logsBloom": "0x00000000000000000000000000000000000000000000000000000000000000000000000000000000000000000000000000000000000000000000000000000000000000000000000000000000000000000000000000000000000000000000000000000000000000000000000000000000000000000000000000000000000000000000000000000000000000000000000000000000000000000000000000000000000000000000000000000000000000000000000000000000000000000000000000000000000000000000000000000000000000000000000000000000000000000000000000000000000000000000000000000000000000000000000000000000",
      "type": "0x0",
      "transactionHash": "0x5442cb8cd2818da051a292177af933a42052362d1c40030812b4acf29bd49b9e",
      "transactionIndex": "0x0",
      "blockHash": "0x932e042c57bae3b6238c48ce15430e6d9d919a608d1576967b81366900a252de",
      "blockNumber": "0x12",
      "gasUsed": "0xaa2b",
      "effectiveGasPrice": "0x3b9aca00",
      "blobGasPrice": "0x1",
      "from": "0xd289d1387ae1033a703842d69501d5bec5a6f04e",
      "to": "0x481e836be187303c64f269bc7fe2c52f7f7c6eef",
      "contractAddress": null
    },
    {
      "status": "0x1",
      "cumulativeGasUsed": "0xb23d",
      "logs": [
        {
          "address": "0x8828fd7431d5bb1962d7e067c103b2324fa6bbec",
          "topics": [
            "0x2e3d7d02ba3c4bd8b1f8995cd3a23ef0193922ebc4ee23249ead4d0ca2e34c68",
            "0x0000000000000000000000004d4adec97e3e11693f65dedc2d1e6bec784eb2f1",
            "0x000000000000000000000000481e836be187303c64f269bc7fe2c52f7f7c6eef"
          ],
          "data": "0x",
          "blockHash": "0x80dea06d0645a02f41bf5948e91805342e02fe1b5f414608a3beea2321b0e625",
          "blockNumber": "0x13",
          "blockTimestamp": "0x69666ef8",
          "transactionHash": "0x8070a422200e1dbd8d5a1a9099941348b15ef7a124b2908c74084764599671c8",
          "transactionIndex": "0x0",
          "logIndex": "0x0",
          "removed": false
        },
        {
          "address": "0x8828fd7431d5bb1962d7e067c103b2324fa6bbec",
          "topics": [
            "0x78160f0b1b2b32b52a0076d8f0f70888687ba702a4d993d55ac8d9327d57a127",
            "0x0000000000000000000000000000000000000000000000000000000000000005",
            "0xd834081aa1d74f520172575a96f51da444cf637a623dd9937d1cd700d94efbfb",
            "0xb12959ca7271c0268734e6b2eaeaa4063cfcad322383046a7599e467b5216856"
          ],
          "data": "0x2e3d7d02ba3c4bd8b1f8995cd3a23ef0193922ebc4ee23249ead4d0ca2e34c68000000000000000000000000000000000000000000000000000000000000004000000000000000000000000000000000000000000000000000000000000000400000000000000000000000004d4adec97e3e11693f65dedc2d1e6bec784eb2f1000000000000000000000000481e836be187303c64f269bc7fe2c52f7f7c6eef",
          "blockHash": "0x80dea06d0645a02f41bf5948e91805342e02fe1b5f414608a3beea2321b0e625",
          "blockNumber": "0x13",
          "blockTimestamp": "0x69666ef8",
          "transactionHash": "0x8070a422200e1dbd8d5a1a9099941348b15ef7a124b2908c74084764599671c8",
          "transactionIndex": "0x0",
          "logIndex": "0x1",
          "removed": false
        }
      ],
      "logsBloom": "0x00000000000000000000000080200000000000000000000000000004000000000000000000000000000000000000000000000000000010000400000000200000000010000200000000000000000000000008000020000000000000000000000000000020000800000000000000000008000000000000000080000000000000000000000008000080000000000000001000000800000000000000000000000000100000000000000000000000000000000000000000000000000000000000000000000000000048000000000000000000000000000000000000000000000000000000000000000000000000000080000000000000000400000000000000004000",
      "type": "0x0",
      "transactionHash": "0x8070a422200e1dbd8d5a1a9099941348b15ef7a124b2908c74084764599671c8",
      "transactionIndex": "0x0",
      "blockHash": "0x80dea06d0645a02f41bf5948e91805342e02fe1b5f414608a3beea2321b0e625",
      "blockNumber": "0x13",
      "gasUsed": "0xb23d",
      "effectiveGasPrice": "0x3b9aca00",
      "blobGasPrice": "0x1",
      "from": "0xd289d1387ae1033a703842d69501d5bec5a6f04e",
      "to": "0x8828fd7431d5bb1962d7e067c103b2324fa6bbec",
      "contractAddress": null
    },
    {
      "status": "0x1",
      "cumulativeGasUsed": "0x147a0",
      "logs": [
        {
          "address": "0x048255dfef2ebfa7307058ae475a3e2f5ee0df46",
          "topics": [
            "0x9d4c3779a823aa84b20dd2e8551e6ed95addbc562f3bc49b1e688ab785b05d9d"
          ],
          "data": "0x0000000000000000000000000000000000000000000000000000000000002710000000000000000000000000000000000000000000000000000000000000007b",
          "blockHash": "0x991b8f50739de37263c4b78b5a4787335b8fdab123b67887bad4236e5efa8fc8",
          "blockNumber": "0x14",
          "blockTimestamp": "0x69666ef9",
          "transactionHash": "0xd0fa060e851badf79c4d2e11fd36f93fbec136506b91f7bdf8306f30af0f8960",
          "transactionIndex": "0x0",
          "logIndex": "0x0",
          "removed": false
        },
        {
          "address": "0x048255dfef2ebfa7307058ae475a3e2f5ee0df46",
          "topics": [
            "0x78160f0b1b2b32b52a0076d8f0f70888687ba702a4d993d55ac8d9327d57a127",
            "0x0000000000000000000000000000000000000000000000000000000000000003",
            "0xda7e7c42f4c815fc7d782d1ec636cd7af88ee0cb4e608a072c2e97fb7cbea838",
            "0xb85998ad39eb590cfda44347b79ec9048a2a3009bb2fac457a6247d982753792"
          ],
          "data": "0x9d4c3779a823aa84b20dd2e8551e6ed95addbc562f3bc49b1e688ab785b05d9d000000000000000000000000000000000000000000000000000000000000004000000000000000000000000000000000000000000000000000000000000000400000000000000000000000000000000000000000000000000000000000002710000000000000000000000000000000000000000000000000000000000000007b",
          "blockHash": "0x991b8f50739de37263c4b78b5a4787335b8fdab123b67887bad4236e5efa8fc8",
          "blockNumber": "0x14",
          "blockTimestamp": "0x69666ef9",
          "transactionHash": "0xd0fa060e851badf79c4d2e11fd36f93fbec136506b91f7bdf8306f30af0f8960",
          "transactionIndex": "0x0",
          "logIndex": "0x1",
          "removed": false
        }
      ],
      "logsBloom": "0x00000000000000800000000000000000000000000000000000000000000000000000000000000000000000000000000000000002020000400000000000200000000000000000000000000000000000000000000000000000000000000000000000000020000800004000000000000000000000000000000000000000000000000000000000000000004000000000000000000000000000000000000000000000000000000000000000000000080000000000000200800000000100000000400000000000000000010000000000000000020000000200000000000000000000000000000000000000000000000000000000000000000000000000000000004000",
      "type": "0x0",
      "transactionHash": "0xd0fa060e851badf79c4d2e11fd36f93fbec136506b91f7bdf8306f30af0f8960",
      "transactionIndex": "0x0",
      "blockHash": "0x991b8f50739de37263c4b78b5a4787335b8fdab123b67887bad4236e5efa8fc8",
      "blockNumber": "0x14",
      "gasUsed": "0x147a0",
      "effectiveGasPrice": "0x3b9aca00",
      "blobGasPrice": "0x1",
      "from": "0xd289d1387ae1033a703842d69501d5bec5a6f04e",
      "to": "0x048255dfef2ebfa7307058ae475a3e2f5ee0df46",
      "contractAddress": null
    },
    {
      "status": "0x1",
      "cumulativeGasUsed": "0x1f4cb",
      "logs": [],
      "logsBloom": "0x00000000000000000000000000000000000000000000000000000000000000000000000000000000000000000000000000000000000000000000000000000000000000000000000000000000000000000000000000000000000000000000000000000000000000000000000000000000000000000000000000000000000000000000000000000000000000000000000000000000000000000000000000000000000000000000000000000000000000000000000000000000000000000000000000000000000000000000000000000000000000000000000000000000000000000000000000000000000000000000000000000000000000000000000000000000",
      "type": "0x0",
      "transactionHash": "0xfef75832b829aac2e6452ba53f4a9ba013d943049a463a6b53d6e34ac7b415e4",
      "transactionIndex": "0x0",
      "blockHash": "0xc5a11388f18b3fb99901d93e5f9e44c94a3fd4ffe6736e8fc7efdd1d2dbd9eac",
      "blockNumber": "0x15",
      "gasUsed": "0x1f4cb",
      "effectiveGasPrice": "0x3b9aca00",
      "blobGasPrice": "0x1",
      "from": "0xd289d1387ae1033a703842d69501d5bec5a6f04e",
      "to": null,
      "contractAddress": "0x6b0f32ae157cf4f7d9b402c4e243e9088207dd87"
    },
    {
      "status": "0x1",
      "cumulativeGasUsed": "0xaa2b",
      "logs": [],
      "logsBloom": "0x00000000000000000000000000000000000000000000000000000000000000000000000000000000000000000000000000000000000000000000000000000000000000000000000000000000000000000000000000000000000000000000000000000000000000000000000000000000000000000000000000000000000000000000000000000000000000000000000000000000000000000000000000000000000000000000000000000000000000000000000000000000000000000000000000000000000000000000000000000000000000000000000000000000000000000000000000000000000000000000000000000000000000000000000000000000",
      "type": "0x0",
      "transactionHash": "0x52a5b66a31ca101099f01ce93ad3ffff416805838b30081bcfa839b252bed4c0",
      "transactionIndex": "0x0",
      "blockHash": "0x1bfa9869904837b1f3c0cb1938d2e2e152d0c1b61080e99eec7aa4f5207598f4",
      "blockNumber": "0x16",
      "gasUsed": "0xaa2b",
      "effectiveGasPrice": "0x3b9aca00",
      "blobGasPrice": "0x1",
      "from": "0xd289d1387ae1033a703842d69501d5bec5a6f04e",
      "to": "0x6b0f32ae157cf4f7d9b402c4e243e9088207dd87",
      "contractAddress": null
    },
    {
      "status": "0x1",
      "cumulativeGasUsed": "0xb23d",
      "logs": [
        {
          "address": "0x8828fd7431d5bb1962d7e067c103b2324fa6bbec",
          "topics": [
            "0x2e3d7d02ba3c4bd8b1f8995cd3a23ef0193922ebc4ee23249ead4d0ca2e34c68",
            "0x0000000000000000000000004d4adec97e3e11693f65dedc2d1e6bec784eb2f1",
            "0x0000000000000000000000006b0f32ae157cf4f7d9b402c4e243e9088207dd87"
          ],
          "data": "0x",
          "blockHash": "0xd4ce14cd0d2093d617fe60d7d505cf18cb6b48e56a512336c12d238e45849cd1",
          "blockNumber": "0x17",
          "blockTimestamp": "0x69666efc",
          "transactionHash": "0xd22176e8ccd207a296ae7f951f4d5aca52ce6df4d466a5cf64fc80978b22b71e",
          "transactionIndex": "0x0",
          "logIndex": "0x0",
          "removed": false
        },
        {
          "address": "0x8828fd7431d5bb1962d7e067c103b2324fa6bbec",
          "topics": [
            "0x78160f0b1b2b32b52a0076d8f0f70888687ba702a4d993d55ac8d9327d57a127",
            "0x0000000000000000000000000000000000000000000000000000000000000006",
            "0xb12959ca7271c0268734e6b2eaeaa4063cfcad322383046a7599e467b5216856",
            "0xecbfce057765a38ae62b76f111d70c83864eb0823ebb446222f775c9dbb356e0"
          ],
          "data": "0x2e3d7d02ba3c4bd8b1f8995cd3a23ef0193922ebc4ee23249ead4d0ca2e34c68000000000000000000000000000000000000000000000000000000000000004000000000000000000000000000000000000000000000000000000000000000400000000000000000000000004d4adec97e3e11693f65dedc2d1e6bec784eb2f10000000000000000000000006b0f32ae157cf4f7d9b402c4e243e9088207dd87",
          "blockHash": "0xd4ce14cd0d2093d617fe60d7d505cf18cb6b48e56a512336c12d238e45849cd1",
          "blockNumber": "0x17",
          "blockTimestamp": "0x69666efc",
          "transactionHash": "0xd22176e8ccd207a296ae7f951f4d5aca52ce6df4d466a5cf64fc80978b22b71e",
          "transactionIndex": "0x0",
          "logIndex": "0x1",
          "removed": false
        }
      ],
      "logsBloom": "0x00000000000000000000000080200000000000000000000000010000000000000000000000000000000000000000000000000000000410000000000000200000000000000200000000000000000004000000000000000000000000000000000000000020000800000000000000100008000000000000000080000000000000000000000400000080000000000000000000000000000000000000000000000000000001000000000000000000000000000000000000000000000000080080000000000000000048000000000000000000000000000000000000000000000000000000000000000000040000000080000000000000000400000000000000004000",
      "type": "0x0",
      "transactionHash": "0xd22176e8ccd207a296ae7f951f4d5aca52ce6df4d466a5cf64fc80978b22b71e",
      "transactionIndex": "0x0",
      "blockHash": "0xd4ce14cd0d2093d617fe60d7d505cf18cb6b48e56a512336c12d238e45849cd1",
      "blockNumber": "0x17",
      "gasUsed": "0xb23d",
      "effectiveGasPrice": "0x3b9aca00",
      "blobGasPrice": "0x1",
      "from": "0xd289d1387ae1033a703842d69501d5bec5a6f04e",
      "to": "0x8828fd7431d5bb1962d7e067c103b2324fa6bbec",
      "contractAddress": null
    },
    {
      "status": "0x1",
      "cumulativeGasUsed": "0x50fb6",
      "logs": [],
      "logsBloom": "0x00000000000000000000000000000000000000000000000000000000000000000000000000000000000000000000000000000000000000000000000000000000000000000000000000000000000000000000000000000000000000000000000000000000000000000000000000000000000000000000000000000000000000000000000000000000000000000000000000000000000000000000000000000000000000000000000000000000000000000000000000000000000000000000000000000000000000000000000000000000000000000000000000000000000000000000000000000000000000000000000000000000000000000000000000000000",
      "type": "0x0",
      "transactionHash": "0x0cbf907f623c63537dbd7aa5982b4f17aeadb123eb8f16e7137f38ff384e6ea7",
      "transactionIndex": "0x0",
      "blockHash": "0x47b2ceae3e3f79983e4a2f777706d377c19c9cc8b9043576d7ef3e534521a411",
      "blockNumber": "0x18",
      "gasUsed": "0x50fb6",
      "effectiveGasPrice": "0x3b9aca00",
      "blobGasPrice": "0x1",
      "from": "0xd289d1387ae1033a703842d69501d5bec5a6f04e",
      "to": null,
      "contractAddress": "0xc5ea444a0f556f5b227ec7447294d91086bb692c"
    },
    {
      "status": "0x1",
      "cumulativeGasUsed": "0xc546",
      "logs": [
        {
          "address": "0x8828fd7431d5bb1962d7e067c103b2324fa6bbec",
          "topics": [
            "0x14c028d3d668eb3454bce44d123ceeeb9fb4e74bee073c41f4001e63f0613094",
            "0x000000000000000000000000c5ea444a0f556f5b227ec7447294d91086bb692c",
            "0x000000000000000000000000c5ea444a0f556f5b227ec7447294d91086bb692c"
          ],
          "data": "0x",
          "blockHash": "0x46a4582aba35ef8b103606ed5c9c4b8c27af94d664866ea2a2b935a83940f0ad",
          "blockNumber": "0x19",
          "blockTimestamp": "0x69666efe",
          "transactionHash": "0x513c988ae0f0a9d492aa9892b44ecb80d51d6f5440660b7c21ac40ebabac0706",
          "transactionIndex": "0x0",
          "logIndex": "0x0",
          "removed": false
        },
        {
          "address": "0x8828fd7431d5bb1962d7e067c103b2324fa6bbec",
          "topics": [
            "0x78160f0b1b2b32b52a0076d8f0f70888687ba702a4d993d55ac8d9327d57a127",
            "0x0000000000000000000000000000000000000000000000000000000000000007",
            "0xecbfce057765a38ae62b76f111d70c83864eb0823ebb446222f775c9dbb356e0",
            "0x1f6b9e2b406ba652110b807939c56b73c234aa0062c2be4433629b9f45ccb994"
          ],
          "data": "0x14c028d3d668eb3454bce44d123ceeeb9fb4e74bee073c41f4001e63f061309400000000000000000000000000000000000000000000000000000000000000400000000000000000000000000000000000000000000000000000000000000040000000000000000000000000c5ea444a0f556f5b227ec7447294d91086bb692c000000000000000000000000c5ea444a0f556f5b227ec7447294d91086bb692c",
          "blockHash": "0x46a4582aba35ef8b103606ed5c9c4b8c27af94d664866ea2a2b935a83940f0ad",
          "blockNumber": "0x19",
          "blockTimestamp": "0x69666efe",
          "transactionHash": "0x513c988ae0f0a9d492aa9892b44ecb80d51d6f5440660b7c21ac40ebabac0706",
          "transactionIndex": "0x0",
          "logIndex": "0x1",
          "removed": false
        }
      ],
      "logsBloom": "0x00000000000000000000000000000000000000000000000000010000000000000000000000000000000000000000000000001000000000000000000000200000020020000200000001000000000000000000200000000000000200100000000000000020000800000000000000100008000000000000000000000000000000000000000000000000000000000000000000000000000000000000000000000000000000000000000000000000000000000000000000000000000000000000000000000000000000040000000000000010000000000000000000000100000000000400000000000000040000000000000000000000000000000000000400004000",
      "type": "0x0",
      "transactionHash": "0x513c988ae0f0a9d492aa9892b44ecb80d51d6f5440660b7c21ac40ebabac0706",
      "transactionIndex": "0x0",
      "blockHash": "0x46a4582aba35ef8b103606ed5c9c4b8c27af94d664866ea2a2b935a83940f0ad",
      "blockNumber": "0x19",
      "gasUsed": "0xc546",
      "effectiveGasPrice": "0x3b9aca00",
      "blobGasPrice": "0x1",
      "from": "0xd289d1387ae1033a703842d69501d5bec5a6f04e",
      "to": "0x8828fd7431d5bb1962d7e067c103b2324fa6bbec",
      "contractAddress": null
    },
    {
      "status": "0x1",
      "cumulativeGasUsed": "0xac6c",
      "logs": [],
      "logsBloom": "0x00000000000000000000000000000000000000000000000000000000000000000000000000000000000000000000000000000000000000000000000000000000000000000000000000000000000000000000000000000000000000000000000000000000000000000000000000000000000000000000000000000000000000000000000000000000000000000000000000000000000000000000000000000000000000000000000000000000000000000000000000000000000000000000000000000000000000000000000000000000000000000000000000000000000000000000000000000000000000000000000000000000000000000000000000000000",
      "type": "0x0",
      "transactionHash": "0xed9ff6741db10b3045ced5a8c60ac486d1a21c494a4d492898e20dab57c564ef",
      "transactionIndex": "0x0",
      "blockHash": "0xe04af261411c775ffa5f242f6c399594bc842b32156bd316e29ed8ce770d855e",
      "blockNumber": "0x1a",
      "gasUsed": "0xac6c",
      "effectiveGasPrice": "0x3b9aca00",
      "blobGasPrice": "0x1",
      "from": "0xd289d1387ae1033a703842d69501d5bec5a6f04e",
      "to": "0x4d4adec97e3e11693f65dedc2d1e6bec784eb2f1",
      "contractAddress": null
    },
    {
      "status": "0x1",
      "cumulativeGasUsed": "0x30384",
      "logs": [
        {
          "address": "0x8828fd7431d5bb1962d7e067c103b2324fa6bbec",
          "topics": [
            "0x7391f14355eff1e559e381f5bf49886a77da7c4fdd33c6fc2e0142269c561c59",
            "0x4ce9a4626b22b1c0a7d8cdc47124542908de4e4448da69e4870f34e4b5d4286d",
            "0xdd7cb67cbc9b2e724e3c3436ed7f91b70ab95f42de0014b70c9f2f9eb7380bb7",
            "0x0000000000000000000000000000000000000000000000000000000000000001"
          ],
          "data": "0x0000000000000000000000000000000000000000000000000000000000000000000000000000000000000000000000000000000000000000000000000000006f000000000000000000000000d59d27b9172ad056cb5c008dc2bbefe702123a55000000000000000000000000000000000000000000000000000000000000000000000000000000000000000000000000000000000000000000000000000000000000000000000000000000004d4adec97e3e11693f65dedc2d1e6bec784eb2f10000000000000000000000004d4adec97e3e11693f65dedc2d1e6bec784eb2f10000000000000000000000002023a9ae4d68fea5b1bef01f207b249c9f2cecbf000000000000000000000000b7d1e80ce581d4129bbbcac7f957850629628cd1",
          "blockHash": "0x2fb70133e7b70338b585ff5e46c071c924f07c0df70ea777b46ac5610ac5ef1c",
          "blockNumber": "0x1b",
          "blockTimestamp": "0x69666f00",
          "transactionHash": "0x7c502ac501942dd735dc0196df91cdd500c49f19f4e20e4085b732afdc2226c7",
          "transactionIndex": "0x0",
          "logIndex": "0x0",
          "removed": false
        },
        {
          "address": "0x8828fd7431d5bb1962d7e067c103b2324fa6bbec",
          "topics": [
            "0x78160f0b1b2b32b52a0076d8f0f70888687ba702a4d993d55ac8d9327d57a127",
            "0x0000000000000000000000000000000000000000000000000000000000000008",
            "0x1f6b9e2b406ba652110b807939c56b73c234aa0062c2be4433629b9f45ccb994",
            "0x85dd76d1f27126507d4ba6193b3527db7141d1678bdd7234c60470fa15651173"
          ],
          "data": "0x7391f14355eff1e559e381f5bf49886a77da7c4fdd33c6fc2e0142269c561c59000000000000000000000000000000000000000000000000000000000000004000000000000000000000000000000000000000000000000000000000000001804ce9a4626b22b1c0a7d8cdc47124542908de4e4448da69e4870f34e4b5d4286ddd7cb67cbc9b2e724e3c3436ed7f91b70ab95f42de0014b70c9f2f9eb7380bb700000000000000000000000000000000000000000000000000000000000000010000000000000000000000000000000000000000000000000000000000000000000000000000000000000000000000000000000000000000000000000000006f000000000000000000000000d59d27b9172ad056cb5c008dc2bbefe702123a55000000000000000000000000000000000000000000000000000000000000000000000000000000000000000000000000000000000000000000000000000000000000000000000000000000004d4adec97e3e11693f65dedc2d1e6bec784eb2f10000000000000000000000004d4adec97e3e11693f65dedc2d1e6bec784eb2f10000000000000000000000002023a9ae4d68fea5b1bef01f207b249c9f2cecbf000000000000000000000000b7d1e80ce581d4129bbbcac7f957850629628cd1",
          "blockHash": "0x2fb70133e7b70338b585ff5e46c071c924f07c0df70ea777b46ac5610ac5ef1c",
          "blockNumber": "0x1b",
          "blockTimestamp": "0x69666f00",
          "transactionHash": "0x7c502ac501942dd735dc0196df91cdd500c49f19f4e20e4085b732afdc2226c7",
          "transactionIndex": "0x0",
          "logIndex": "0x1",
          "removed": false
        },
        {
          "address": "0x8828fd7431d5bb1962d7e067c103b2324fa6bbec",
          "topics": [
            "0x488f06a9ca9e19e1dd90c764cc79b765e8a3a089ef27d9a0e39dee21c7643188",
            "0xd6f2d535b097ffa2e4bab1bcd524610b49de81de58781b834552d2d7ce4c0dbe",
            "0x000000000000000000000000b7d1e80ce581d4129bbbcac7f957850629628cd1"
          ],
          "data": "0x000000000000000000000000e007a594267d5b9a4f5bf6fd054579eb82f5a057",
          "blockHash": "0x2fb70133e7b70338b585ff5e46c071c924f07c0df70ea777b46ac5610ac5ef1c",
          "blockNumber": "0x1b",
          "blockTimestamp": "0x69666f00",
          "transactionHash": "0x7c502ac501942dd735dc0196df91cdd500c49f19f4e20e4085b732afdc2226c7",
          "transactionIndex": "0x0",
          "logIndex": "0x2",
          "removed": false
        },
        {
          "address": "0x8828fd7431d5bb1962d7e067c103b2324fa6bbec",
          "topics": [
            "0x78160f0b1b2b32b52a0076d8f0f70888687ba702a4d993d55ac8d9327d57a127",
            "0x0000000000000000000000000000000000000000000000000000000000000009",
            "0x85dd76d1f27126507d4ba6193b3527db7141d1678bdd7234c60470fa15651173",
            "0xedca65e61d423e0cd545e0ae862a4b33889fb6551fef3aac6c8450f29ce963f5"
          ],
          "data": "0x488f06a9ca9e19e1dd90c764cc79b765e8a3a089ef27d9a0e39dee21c764318800000000000000000000000000000000000000000000000000000000000000400000000000000000000000000000000000000000000000000000000000000060d6f2d535b097ffa2e4bab1bcd524610b49de81de58781b834552d2d7ce4c0dbe000000000000000000000000b7d1e80ce581d4129bbbcac7f957850629628cd1000000000000000000000000e007a594267d5b9a4f5bf6fd054579eb82f5a057",
          "blockHash": "0x2fb70133e7b70338b585ff5e46c071c924f07c0df70ea777b46ac5610ac5ef1c",
          "blockNumber": "0x1b",
          "blockTimestamp": "0x69666f00",
          "transactionHash": "0x7c502ac501942dd735dc0196df91cdd500c49f19f4e20e4085b732afdc2226c7",
          "transactionIndex": "0x0",
          "logIndex": "0x3",
          "removed": false
        },
        {
          "address": "0x8828fd7431d5bb1962d7e067c103b2324fa6bbec",
          "topics": [
            "0x488f06a9ca9e19e1dd90c764cc79b765e8a3a089ef27d9a0e39dee21c7643188",
            "0xdd7cb67cbc9b2e724e3c3436ed7f91b70ab95f42de0014b70c9f2f9eb7380bb7",
            "0x0000000000000000000000002023a9ae4d68fea5b1bef01f207b249c9f2cecbf"
          ],
          "data": "0x000000000000000000000000e007a594267d5b9a4f5bf6fd054579eb82f5a057",
          "blockHash": "0x2fb70133e7b70338b585ff5e46c071c924f07c0df70ea777b46ac5610ac5ef1c",
          "blockNumber": "0x1b",
          "blockTimestamp": "0x69666f00",
          "transactionHash": "0x7c502ac501942dd735dc0196df91cdd500c49f19f4e20e4085b732afdc2226c7",
          "transactionIndex": "0x0",
          "logIndex": "0x4",
          "removed": false
        },
        {
          "address": "0x8828fd7431d5bb1962d7e067c103b2324fa6bbec",
          "topics": [
            "0x78160f0b1b2b32b52a0076d8f0f70888687ba702a4d993d55ac8d9327d57a127",
            "0x000000000000000000000000000000000000000000000000000000000000000a",
            "0xedca65e61d423e0cd545e0ae862a4b33889fb6551fef3aac6c8450f29ce963f5",
            "0x7627ca52c8b00720dedb963964e0cb273dcdc45945b758331c73936c5de45252"
          ],
          "data": "0x488f06a9ca9e19e1dd90c764cc79b765e8a3a089ef27d9a0e39dee21c764318800000000000000000000000000000000000000000000000000000000000000400000000000000000000000000000000000000000000000000000000000000060dd7cb67cbc9b2e724e3c3436ed7f91b70ab95f42de0014b70c9f2f9eb7380bb70000000000000000000000002023a9ae4d68fea5b1bef01f207b249c9f2cecbf000000000000000000000000e007a594267d5b9a4f5bf6fd054579eb82f5a057",
          "blockHash": "0x2fb70133e7b70338b585ff5e46c071c924f07c0df70ea777b46ac5610ac5ef1c",
          "blockNumber": "0x1b",
          "blockTimestamp": "0x69666f00",
          "transactionHash": "0x7c502ac501942dd735dc0196df91cdd500c49f19f4e20e4085b732afdc2226c7",
          "transactionIndex": "0x0",
          "logIndex": "0x5",
          "removed": false
        },
        {
          "address": "0x8828fd7431d5bb1962d7e067c103b2324fa6bbec",
          "topics": [
            "0x2e659081f44c4f56a18b00f3f9d136d7ee8396bc79163c4d61363ddcf4a4cb27",
            "0x4ce9a4626b22b1c0a7d8cdc47124542908de4e4448da69e4870f34e4b5d4286d"
          ],
          "data": "0x0000000000000000000000000000000000000000000000000000000000000000000000000000000000000000000000000000000000000000000000000754d4c0000000000000000000000000000000000000000000000000000000000754d4c000000000000000000000000000000000000000000000000000000000000000000000000000000000000000000000000000000000000000000000000000000000000000000000000000000000000000000000000000000000000000000000000100000000000000000000000000000000000000000000000000000000000000000000000000000000000000000000000000000000000000000000000000000000c5d2460186f7233c927e7db2dcc703c0e500b653ca82273b7bfad8045d85a470",
          "blockHash": "0x2fb70133e7b70338b585ff5e46c071c924f07c0df70ea777b46ac5610ac5ef1c",
          "blockNumber": "0x1b",
          "blockTimestamp": "0x69666f00",
          "transactionHash": "0x7c502ac501942dd735dc0196df91cdd500c49f19f4e20e4085b732afdc2226c7",
          "transactionIndex": "0x0",
          "logIndex": "0x6",
          "removed": false
        },
        {
          "address": "0x8828fd7431d5bb1962d7e067c103b2324fa6bbec",
          "topics": [
            "0x78160f0b1b2b32b52a0076d8f0f70888687ba702a4d993d55ac8d9327d57a127",
            "0x000000000000000000000000000000000000000000000000000000000000000b",
            "0x7627ca52c8b00720dedb963964e0cb273dcdc45945b758331c73936c5de45252",
            "0x61d5df3fa466c3f9de9e9c6937bae6af1650ec925f1b1dbf38b819abea4eba74"
          ],
          "data": "0x2e659081f44c4f56a18b00f3f9d136d7ee8396bc79163c4d61363ddcf4a4cb27000000000000000000000000000000000000000000000000000000000000004000000000000000000000000000000000000000000000000000000000000001404ce9a4626b22b1c0a7d8cdc47124542908de4e4448da69e4870f34e4b5d4286d0000000000000000000000000000000000000000000000000000000000000000000000000000000000000000000000000000000000000000000000000754d4c0000000000000000000000000000000000000000000000000000000000754d4c000000000000000000000000000000000000000000000000000000000000000000000000000000000000000000000000000000000000000000000000000000000000000000000000000000000000000000000000000000000000000000000000100000000000000000000000000000000000000000000000000000000000000000000000000000000000000000000000000000000000000000000000000000000c5d2460186f7233c927e7db2dcc703c0e500b653ca82273b7bfad8045d85a470",
          "blockHash": "0x2fb70133e7b70338b585ff5e46c071c924f07c0df70ea777b46ac5610ac5ef1c",
          "blockNumber": "0x1b",
          "blockTimestamp": "0x69666f00",
          "transactionHash": "0x7c502ac501942dd735dc0196df91cdd500c49f19f4e20e4085b732afdc2226c7",
          "transactionIndex": "0x0",
          "logIndex": "0x7",
          "removed": false
        }
      ],
      "logsBloom": "0x000000010080000000000040000000000000000008000240000000000000008000000000000000000000000000088000000000000400800000200000002400000200000002840000000000000000008000002000040400000802000000000000000000200008100000000000000000080000010400000000000000000000004040800000000000000100000000000000080010000000000000000000000000000000000400014000000000000000000010000010100000000001000000000000c0000200000000000100024000000001002000000000000400000000400040000000000000001000000000000000000100000000000000040000000000804000",
      "type": "0x0",
      "transactionHash": "0x7c502ac501942dd735dc0196df91cdd500c49f19f4e20e4085b732afdc2226c7",
      "transactionIndex": "0x0",
      "blockHash": "0x2fb70133e7b70338b585ff5e46c071c924f07c0df70ea777b46ac5610ac5ef1c",
      "blockNumber": "0x1b",
      "gasUsed": "0x30384",
      "effectiveGasPrice": "0x3b9aca00",
      "blobGasPrice": "0x1",
      "from": "0xd289d1387ae1033a703842d69501d5bec5a6f04e",
      "to": "0x8828fd7431d5bb1962d7e067c103b2324fa6bbec",
      "contractAddress": null
    },
    {
      "status": "0x1",
      "cumulativeGasUsed": "0xac60",
      "logs": [],
      "logsBloom": "0x00000000000000000000000000000000000000000000000000000000000000000000000000000000000000000000000000000000000000000000000000000000000000000000000000000000000000000000000000000000000000000000000000000000000000000000000000000000000000000000000000000000000000000000000000000000000000000000000000000000000000000000000000000000000000000000000000000000000000000000000000000000000000000000000000000000000000000000000000000000000000000000000000000000000000000000000000000000000000000000000000000000000000000000000000000000",
      "type": "0x0",
      "transactionHash": "0x36d01de7490a4bb86e8cf80cb286ddabd66ba87a04de7c38e917290146251b60",
      "transactionIndex": "0x0",
      "blockHash": "0x07b7ba53660bf1c7377e1a86abc3bf36b3859789bfb7c5c4aa4b72e0e68c430e",
      "blockNumber": "0x1c",
      "gasUsed": "0xac60",
      "effectiveGasPrice": "0x3b9aca00",
      "blobGasPrice": "0x1",
      "from": "0xd289d1387ae1033a703842d69501d5bec5a6f04e",
      "to": "0x4d4adec97e3e11693f65dedc2d1e6bec784eb2f1",
      "contractAddress": null
    },
    {
      "status": "0x1",
      "cumulativeGasUsed": "0x3df00",
      "logs": [
        {
          "address": "0x8828fd7431d5bb1962d7e067c103b2324fa6bbec",
          "topics": [
            "0x7391f14355eff1e559e381f5bf49886a77da7c4fdd33c6fc2e0142269c561c59",
            "0xa62b8a7c2f7d736c926aaf6211629e032489b72fb1ef32cf9bc92754aca6fdf5",
            "0xdd7cb67cbc9b2e724e3c3436ed7f91b70ab95f42de0014b70c9f2f9eb7380bb7",
            "0x0000000000000000000000000000000000000000000000000000000000000002"
          ],
          "data": "0x0000000000000000000000000000000000000000000000000000000000000000000000000000000000000000000000000000000000000000000000000000006f000000000000000000000000d59d27b9172ad056cb5c008dc2bbefe702123a55000000000000000000000000000000000000000000000000000000000000000000000000000000000000000000000000000000000000000000000000000000000000000000000000000000004d4adec97e3e11693f65dedc2d1e6bec784eb2f1000000000000000000000000f86c23c1e883ee3b820fb9be75ff91c9a49eae750000000000000000000000002023a9ae4d68fea5b1bef01f207b249c9f2cecbf00000000000000000000000024cd17a955b086861800bac8dd1a6796419bfd2b",
          "blockHash": "0x5de5f77003181786e69e72e5248cfe2fd18b6a52ca4866888f04acf97c9663e6",
          "blockNumber": "0x1d",
          "blockTimestamp": "0x69666f02",
          "transactionHash": "0xaedae0178498b2a31bbe450105e800c9fe3ec7f30955749b5cdc3c7afe91bcbf",
          "transactionIndex": "0x0",
          "logIndex": "0x0",
          "removed": false
        },
        {
          "address": "0x8828fd7431d5bb1962d7e067c103b2324fa6bbec",
          "topics": [
            "0x78160f0b1b2b32b52a0076d8f0f70888687ba702a4d993d55ac8d9327d57a127",
            "0x000000000000000000000000000000000000000000000000000000000000000c",
            "0x61d5df3fa466c3f9de9e9c6937bae6af1650ec925f1b1dbf38b819abea4eba74",
            "0x5335fb79eb96476c6a4d90bf2837db1bd54c855e94efa642f06df1d2d921ac5e"
          ],
          "data": "0x7391f14355eff1e559e381f5bf49886a77da7c4fdd33c6fc2e0142269c561c5900000000000000000000000000000000000000000000000000000000000000400000000000000000000000000000000000000000000000000000000000000180a62b8a7c2f7d736c926aaf6211629e032489b72fb1ef32cf9bc92754aca6fdf5dd7cb67cbc9b2e724e3c3436ed7f91b70ab95f42de0014b70c9f2f9eb7380bb700000000000000000000000000000000000000000000000000000000000000020000000000000000000000000000000000000000000000000000000000000000000000000000000000000000000000000000000000000000000000000000006f000000000000000000000000d59d27b9172ad056cb5c008dc2bbefe702123a55000000000000000000000000000000000000000000000000000000000000000000000000000000000000000000000000000000000000000000000000000000000000000000000000000000004d4adec97e3e11693f65dedc2d1e6bec784eb2f1000000000000000000000000f86c23c1e883ee3b820fb9be75ff91c9a49eae750000000000000000000000002023a9ae4d68fea5b1bef01f207b249c9f2cecbf00000000000000000000000024cd17a955b086861800bac8dd1a6796419bfd2b",
          "blockHash": "0x5de5f77003181786e69e72e5248cfe2fd18b6a52ca4866888f04acf97c9663e6",
          "blockNumber": "0x1d",
          "blockTimestamp": "0x69666f02",
          "transactionHash": "0xaedae0178498b2a31bbe450105e800c9fe3ec7f30955749b5cdc3c7afe91bcbf",
          "transactionIndex": "0x0",
          "logIndex": "0x1",
          "removed": false
        },
        {
          "address": "0x8828fd7431d5bb1962d7e067c103b2324fa6bbec",
          "topics": [
            "0x488f06a9ca9e19e1dd90c764cc79b765e8a3a089ef27d9a0e39dee21c7643188",
            "0x0e3586f09a71dfe09b3b3bcf08e01e416e0e8e5ee62f256b89c3b61783a12acd",
            "0x00000000000000000000000024cd17a955b086861800bac8dd1a6796419bfd2b"
          ],
          "data": "0x000000000000000000000000e007a594267d5b9a4f5bf6fd054579eb82f5a057",
          "blockHash": "0x5de5f77003181786e69e72e5248cfe2fd18b6a52ca4866888f04acf97c9663e6",
          "blockNumber": "0x1d",
          "blockTimestamp": "0x69666f02",
          "transactionHash": "0xaedae0178498b2a31bbe450105e800c9fe3ec7f30955749b5cdc3c7afe91bcbf",
          "transactionIndex": "0x0",
          "logIndex": "0x2",
          "removed": false
        },
        {
          "address": "0x8828fd7431d5bb1962d7e067c103b2324fa6bbec",
          "topics": [
            "0x78160f0b1b2b32b52a0076d8f0f70888687ba702a4d993d55ac8d9327d57a127",
            "0x000000000000000000000000000000000000000000000000000000000000000d",
            "0x5335fb79eb96476c6a4d90bf2837db1bd54c855e94efa642f06df1d2d921ac5e",
            "0x11f97146d54325cbab85e940328d61e3634caee09a28cd5382992451fed905bd"
          ],
          "data": "0x488f06a9ca9e19e1dd90c764cc79b765e8a3a089ef27d9a0e39dee21c7643188000000000000000000000000000000000000000000000000000000000000004000000000000000000000000000000000000000000000000000000000000000600e3586f09a71dfe09b3b3bcf08e01e416e0e8e5ee62f256b89c3b61783a12acd00000000000000000000000024cd17a955b086861800bac8dd1a6796419bfd2b000000000000000000000000e007a594267d5b9a4f5bf6fd054579eb82f5a057",
          "blockHash": "0x5de5f77003181786e69e72e5248cfe2fd18b6a52ca4866888f04acf97c9663e6",
          "blockNumber": "0x1d",
          "blockTimestamp": "0x69666f02",
          "transactionHash": "0xaedae0178498b2a31bbe450105e800c9fe3ec7f30955749b5cdc3c7afe91bcbf",
          "transactionIndex": "0x0",
          "logIndex": "0x3",
          "removed": false
        },
        {
          "address": "0x8828fd7431d5bb1962d7e067c103b2324fa6bbec",
          "topics": [
            "0x2f4c76c8d18f45069b0941499205a7fceaaa3caf9e2e6328f6a544cd339120f3",
            "0xa62b8a7c2f7d736c926aaf6211629e032489b72fb1ef32cf9bc92754aca6fdf5",
            "0x0000000000000000000000004d4adec97e3e11693f65dedc2d1e6bec784eb2f1",
            "0x000000000000000000000000f86c23c1e883ee3b820fb9be75ff91c9a49eae75"
          ],
          "data": "0x00000000000000000000000000000000000000000000000000000000055d4a800000000000000000000000000000000000000000000000000000000005f5e100",
          "blockHash": "0x5de5f77003181786e69e72e5248cfe2fd18b6a52ca4866888f04acf97c9663e6",
          "blockNumber": "0x1d",
          "blockTimestamp": "0x69666f02",
          "transactionHash": "0xaedae0178498b2a31bbe450105e800c9fe3ec7f30955749b5cdc3c7afe91bcbf",
          "transactionIndex": "0x0",
          "logIndex": "0x4",
          "removed": false
        },
        {
          "address": "0x8828fd7431d5bb1962d7e067c103b2324fa6bbec",
          "topics": [
            "0x78160f0b1b2b32b52a0076d8f0f70888687ba702a4d993d55ac8d9327d57a127",
            "0x000000000000000000000000000000000000000000000000000000000000000e",
            "0x11f97146d54325cbab85e940328d61e3634caee09a28cd5382992451fed905bd",
            "0x8870e8f3c65bc78e580a4c09063f486257ba2394f9171ff81c357ffec484966e"
          ],
          "data": "0x2f4c76c8d18f45069b0941499205a7fceaaa3caf9e2e6328f6a544cd339120f3000000000000000000000000000000000000000000000000000000000000004000000000000000000000000000000000000000000000000000000000000000a0a62b8a7c2f7d736c926aaf6211629e032489b72fb1ef32cf9bc92754aca6fdf50000000000000000000000004d4adec97e3e11693f65dedc2d1e6bec784eb2f1000000000000000000000000f86c23c1e883ee3b820fb9be75ff91c9a49eae7500000000000000000000000000000000000000000000000000000000055d4a800000000000000000000000000000000000000000000000000000000005f5e100",
          "blockHash": "0x5de5f77003181786e69e72e5248cfe2fd18b6a52ca4866888f04acf97c9663e6",
          "blockNumber": "0x1d",
          "blockTimestamp": "0x69666f02",
          "transactionHash": "0xaedae0178498b2a31bbe450105e800c9fe3ec7f30955749b5cdc3c7afe91bcbf",
          "transactionIndex": "0x0",
          "logIndex": "0x5",
          "removed": false
        },
        {
          "address": "0x8828fd7431d5bb1962d7e067c103b2324fa6bbec",
          "topics": [
            "0x2e659081f44c4f56a18b00f3f9d136d7ee8396bc79163c4d61363ddcf4a4cb27",
            "0xa62b8a7c2f7d736c926aaf6211629e032489b72fb1ef32cf9bc92754aca6fdf5"
          ],
          "data": "0x00000000000000000000000000000000000000000000000000000000000000000000000000000000000000000000000000000000000000000000000005f5e10000000000000000000000000000000000000000000000000000000000055d4a8000000000000000000000000000000000000000000000000000000000009896800000000000000000000000000000000000000000000000000000000000000000000000000000000000000000000000000000000000000000000000000000000100000000000000000000000000000000000000000000000000000000000000000000000000000000000000000000000000000000000000000000000000000000c5d2460186f7233c927e7db2dcc703c0e500b653ca82273b7bfad8045d85a470",
          "blockHash": "0x5de5f77003181786e69e72e5248cfe2fd18b6a52ca4866888f04acf97c9663e6",
          "blockNumber": "0x1d",
          "blockTimestamp": "0x69666f02",
          "transactionHash": "0xaedae0178498b2a31bbe450105e800c9fe3ec7f30955749b5cdc3c7afe91bcbf",
          "transactionIndex": "0x0",
          "logIndex": "0x6",
          "removed": false
        },
        {
          "address": "0x8828fd7431d5bb1962d7e067c103b2324fa6bbec",
          "topics": [
            "0x78160f0b1b2b32b52a0076d8f0f70888687ba702a4d993d55ac8d9327d57a127",
            "0x000000000000000000000000000000000000000000000000000000000000000f",
            "0x8870e8f3c65bc78e580a4c09063f486257ba2394f9171ff81c357ffec484966e",
            "0x4e98024d9eb22bc3d879793ceabecb7b1cf8e4d62643cdc842ecb92f55fbbbb1"
          ],
          "data": "0x2e659081f44c4f56a18b00f3f9d136d7ee8396bc79163c4d61363ddcf4a4cb2700000000000000000000000000000000000000000000000000000000000000400000000000000000000000000000000000000000000000000000000000000140a62b8a7c2f7d736c926aaf6211629e032489b72fb1ef32cf9bc92754aca6fdf500000000000000000000000000000000000000000000000000000000000000000000000000000000000000000000000000000000000000000000000005f5e10000000000000000000000000000000000000000000000000000000000055d4a8000000000000000000000000000000000000000000000000000000000009896800000000000000000000000000000000000000000000000000000000000000000000000000000000000000000000000000000000000000000000000000000000100000000000000000000000000000000000000000000000000000000000000000000000000000000000000000000000000000000000000000000000000000000c5d2460186f7233c927e7db2dcc703c0e500b653ca82273b7bfad8045d85a470",
          "blockHash": "0x5de5f77003181786e69e72e5248cfe2fd18b6a52ca4866888f04acf97c9663e6",
          "blockNumber": "0x1d",
          "blockTimestamp": "0x69666f02",
          "transactionHash": "0xaedae0178498b2a31bbe450105e800c9fe3ec7f30955749b5cdc3c7afe91bcbf",
          "transactionIndex": "0x0",
          "logIndex": "0x7",
          "removed": false
        }
      ],
      "logsBloom": "0x04000001000000000040000000000000000002000800020000800400800000000000000000000200000800400800800000008000000000000000000040200000000000000280000800000000000000800002002000000000080020000002000000000020000800002000000000000008000001000000000080000000000000000000000000000880001040000000000008000800004000000000000000000000000000000000400000000100000004080000000010000020200100000002000000000200000008000100000000000000080000000000000408010000000000220000100200000000000000000000000100000000008000000002010000004000",
      "type": "0x0",
      "transactionHash": "0xaedae0178498b2a31bbe450105e800c9fe3ec7f30955749b5cdc3c7afe91bcbf",
      "transactionIndex": "0x0",
      "blockHash": "0x5de5f77003181786e69e72e5248cfe2fd18b6a52ca4866888f04acf97c9663e6",
      "blockNumber": "0x1d",
      "gasUsed": "0x3df00",
      "effectiveGasPrice": "0x3b9aca00",
      "blobGasPrice": "0x1",
      "from": "0xd289d1387ae1033a703842d69501d5bec5a6f04e",
      "to": "0x8828fd7431d5bb1962d7e067c103b2324fa6bbec",
      "contractAddress": null
    },
    {
      "status": "0x1",
      "cumulativeGasUsed": "0x6994",
      "logs": [],
      "logsBloom": "0x00000000000000000000000000000000000000000000000000000000000000000000000000000000000000000000000000000000000000000000000000000000000000000000000000000000000000000000000000000000000000000000000000000000000000000000000000000000000000000000000000000000000000000000000000000000000000000000000000000000000000000000000000000000000000000000000000000000000000000000000000000000000000000000000000000000000000000000000000000000000000000000000000000000000000000000000000000000000000000000000000000000000000000000000000000000",
      "type": "0x0",
      "transactionHash": "0x673bfefe6dd9f3d7d5ccd91876f25c4f64567d358831d72e246a1f258d337556",
      "transactionIndex": "0x0",
      "blockHash": "0xda24f07b5c76dc4c3876541e9ce34274d9354a803d729886a77a5d4d4555c50a",
      "blockNumber": "0x1e",
      "gasUsed": "0x6994",
      "effectiveGasPrice": "0x3b9aca00",
      "blobGasPrice": "0x1",
      "from": "0xd289d1387ae1033a703842d69501d5bec5a6f04e",
      "to": "0xf86c23c1e883ee3b820fb9be75ff91c9a49eae75",
      "contractAddress": null
    },
    {
      "status": "0x1",
      "cumulativeGasUsed": "0xad94",
      "logs": [],
      "logsBloom": "0x00000000000000000000000000000000000000000000000000000000000000000000000000000000000000000000000000000000000000000000000000000000000000000000000000000000000000000000000000000000000000000000000000000000000000000000000000000000000000000000000000000000000000000000000000000000000000000000000000000000000000000000000000000000000000000000000000000000000000000000000000000000000000000000000000000000000000000000000000000000000000000000000000000000000000000000000000000000000000000000000000000000000000000000000000000000",
      "type": "0x0",
      "transactionHash": "0x1193618ca7c4b0908d28701f918a6c723fe1f7d16a10b1871df5bce92b307e0e",
      "transactionIndex": "0x0",
      "blockHash": "0x60cabc9f1c0b0c6b6ccbfc9880023e1e4bf6b57099c2d91eec57ffb2bd3630d2",
      "blockNumber": "0x1f",
      "gasUsed": "0xad94",
      "effectiveGasPrice": "0x3b9aca00",
      "blobGasPrice": "0x1",
      "from": "0xd289d1387ae1033a703842d69501d5bec5a6f04e",
      "to": "0xf86c23c1e883ee3b820fb9be75ff91c9a49eae75",
      "contractAddress": null
    },
    {
      "status": "0x1",
      "cumulativeGasUsed": "0x52d69",
      "logs": [
        {
          "address": "0x048255dfef2ebfa7307058ae475a3e2f5ee0df46",
          "topics": [
            "0x6f81b8ad0780a0febc687a3a73b181433722b4be30f7f0a024169f5161267287",
            "0x437cf7937243d2015f601488dd7cfe1ab977b86402b54d2a15e2f0f34389843b",
            "0x000000000000000000000000d289d1387ae1033a703842d69501d5bec5a6f04e"
          ],
          "data": "0x0000000000000000000000000000000000000000000000000000000000000000000000000000000000000000f86c23c1e883ee3b820fb9be75ff91c9a49eae7500000000000000000000000000000000000000000000000000000000004c4b40000000000000000000000000d289d1387ae1033a703842d69501d5bec5a6f04e0000000000000000000000000000000000000000000000000000000069666eaa00000000000000000000000000000000000000000000000000000000000000c000000000000000000000000000000000000000000000000000000000000000a000000000000000000000000000000000000000000000000000000000000000200000000000000000000000002db97a32d5ce8d79f7b7fdc607584a7a35da5e0d00000000000000000000000000000000000000000000000000000000000000400000000000000000000000000000000000000000000000000000000000000002abcd000000000000000000000000000000000000000000000000000000000000",
          "blockHash": "0xfdcd66ab9e75e818a6694686170a217a16b8674b61308cd4034c83bc86f4107a",
          "blockNumber": "0x20",
          "blockTimestamp": "0x69666f05",
          "transactionHash": "0x695332a5153e4c4c9ff333302d901f90b25fc4ba8f225b597c282ff49e23c9a0",
          "transactionIndex": "0x0",
          "logIndex": "0x0",
          "removed": false
        },
        {
          "address": "0x048255dfef2ebfa7307058ae475a3e2f5ee0df46",
          "topics": [
            "0x78160f0b1b2b32b52a0076d8f0f70888687ba702a4d993d55ac8d9327d57a127",
            "0x0000000000000000000000000000000000000000000000000000000000000004",
            "0xb85998ad39eb590cfda44347b79ec9048a2a3009bb2fac457a6247d982753792",
            "0x3362f3d81d0bf5b05575ffe718ea4a7ea0e17a74ae83c0656375122637333aca"
          ],
          "data": "0x6f81b8ad0780a0febc687a3a73b181433722b4be30f7f0a024169f5161267287000000000000000000000000000000000000000000000000000000000000004000000000000000000000000000000000000000000000000000000000000001c0437cf7937243d2015f601488dd7cfe1ab977b86402b54d2a15e2f0f34389843b000000000000000000000000d289d1387ae1033a703842d69501d5bec5a6f04e0000000000000000000000000000000000000000000000000000000000000000000000000000000000000000f86c23c1e883ee3b820fb9be75ff91c9a49eae7500000000000000000000000000000000000000000000000000000000004c4b40000000000000000000000000d289d1387ae1033a703842d69501d5bec5a6f04e0000000000000000000000000000000000000000000000000000000069666eaa000000000000000000000000000000000000000000000000000000000000010000000000000000000000000000000000000000000000000000000000000000a000000000000000000000000000000000000000000000000000000000000000200000000000000000000000002db97a32d5ce8d79f7b7fdc607584a7a35da5e0d00000000000000000000000000000000000000000000000000000000000000400000000000000000000000000000000000000000000000000000000000000002abcd000000000000000000000000000000000000000000000000000000000000",
          "blockHash": "0xfdcd66ab9e75e818a6694686170a217a16b8674b61308cd4034c83bc86f4107a",
          "blockNumber": "0x20",
          "blockTimestamp": "0x69666f05",
          "transactionHash": "0x695332a5153e4c4c9ff333302d901f90b25fc4ba8f225b597c282ff49e23c9a0",
          "transactionIndex": "0x0",
          "logIndex": "0x1",
          "removed": false
        },
        {
          "address": "0x048255dfef2ebfa7307058ae475a3e2f5ee0df46",
          "topics": [
            "0x0544741ff6f2708047138c8f3a68abb994e628666dba785f685ff1035274f9fb",
            "0x437cf7937243d2015f601488dd7cfe1ab977b86402b54d2a15e2f0f34389843b",
            "0x000000000000000000000000d289d1387ae1033a703842d69501d5bec5a6f04e"
          ],
          "data": "0x000000000000000000000000f86c23c1e883ee3b820fb9be75ff91c9a49eae7500000000000000000000000000000000000000000000000000000000004c4b40",
          "blockHash": "0xfdcd66ab9e75e818a6694686170a217a16b8674b61308cd4034c83bc86f4107a",
          "blockNumber": "0x20",
          "blockTimestamp": "0x69666f05",
          "transactionHash": "0x695332a5153e4c4c9ff333302d901f90b25fc4ba8f225b597c282ff49e23c9a0",
          "transactionIndex": "0x0",
          "logIndex": "0x2",
          "removed": false
        },
        {
          "address": "0x048255dfef2ebfa7307058ae475a3e2f5ee0df46",
          "topics": [
            "0x78160f0b1b2b32b52a0076d8f0f70888687ba702a4d993d55ac8d9327d57a127",
            "0x0000000000000000000000000000000000000000000000000000000000000005",
            "0x3362f3d81d0bf5b05575ffe718ea4a7ea0e17a74ae83c0656375122637333aca",
            "0x61d0e3168ffb4bf803c199d3dd52b9e2fab1042c5dde28df5b56d2a2b52dfe1d"
          ],
          "data": "0x0544741ff6f2708047138c8f3a68abb994e628666dba785f685ff1035274f9fb00000000000000000000000000000000000000000000000000000000000000400000000000000000000000000000000000000000000000000000000000000080437cf7937243d2015f601488dd7cfe1ab977b86402b54d2a15e2f0f34389843b000000000000000000000000d289d1387ae1033a703842d69501d5bec5a6f04e000000000000000000000000f86c23c1e883ee3b820fb9be75ff91c9a49eae7500000000000000000000000000000000000000000000000000000000004c4b40",
          "blockHash": "0xfdcd66ab9e75e818a6694686170a217a16b8674b61308cd4034c83bc86f4107a",
          "blockNumber": "0x20",
          "blockTimestamp": "0x69666f05",
          "transactionHash": "0x695332a5153e4c4c9ff333302d901f90b25fc4ba8f225b597c282ff49e23c9a0",
          "transactionIndex": "0x0",
          "logIndex": "0x3",
          "removed": false
        }
      ],
      "logsBloom": "0x00000000000000000000000000000000000000000000000000000000000000000000000000000000000000000000000010000000000000400080000000200000000010000000000004000000000000000004000100000000000000000020000008000000000800004000000000000000000000000000000000000000008000000800000000000000000000000000001000000800000000000000000000000000000000000000000000000000000400000000200600000000202108000000000000000000400000010010020000002000000000008200000000000000000000000000000000000000000000000000100000000000000000000000000000004000",
      "type": "0x0",
      "transactionHash": "0x695332a5153e4c4c9ff333302d901f90b25fc4ba8f225b597c282ff49e23c9a0",
      "transactionIndex": "0x0",
      "blockHash": "0xfdcd66ab9e75e818a6694686170a217a16b8674b61308cd4034c83bc86f4107a",
      "blockNumber": "0x20",
      "gasUsed": "0x52d69",
      "effectiveGasPrice": "0x3b9aca00",
      "blobGasPrice": "0x1",
      "from": "0xd289d1387ae1033a703842d69501d5bec5a6f04e",
      "to": "0x048255dfef2ebfa7307058ae475a3e2f5ee0df46",
      "contractAddress": null
    },
    {
      "status": "0x1",
      "cumulativeGasUsed": "0xac60",
      "logs": [],
      "logsBloom": "0x00000000000000000000000000000000000000000000000000000000000000000000000000000000000000000000000000000000000000000000000000000000000000000000000000000000000000000000000000000000000000000000000000000000000000000000000000000000000000000000000000000000000000000000000000000000000000000000000000000000000000000000000000000000000000000000000000000000000000000000000000000000000000000000000000000000000000000000000000000000000000000000000000000000000000000000000000000000000000000000000000000000000000000000000000000000",
      "type": "0x0",
      "transactionHash": "0x05c2317c0bed7f97c38ae0b6aa48987e4d1c267ba584761ea2ba850fb1afe1f8",
      "transactionIndex": "0x0",
      "blockHash": "0xf876c99ceeb657f91a33e986944b26ad1bf4eab6b173a0e031fdcd51f0767c13",
      "blockNumber": "0x21",
      "gasUsed": "0xac60",
      "effectiveGasPrice": "0x3b9aca00",
      "blobGasPrice": "0x1",
      "from": "0xd289d1387ae1033a703842d69501d5bec5a6f04e",
      "to": "0x4d4adec97e3e11693f65dedc2d1e6bec784eb2f1",
      "contractAddress": null
    },
    {
      "status": "0x1",
      "cumulativeGasUsed": "0xad94",
      "logs": [],
      "logsBloom": "0x00000000000000000000000000000000000000000000000000000000000000000000000000000000000000000000000000000000000000000000000000000000000000000000000000000000000000000000000000000000000000000000000000000000000000000000000000000000000000000000000000000000000000000000000000000000000000000000000000000000000000000000000000000000000000000000000000000000000000000000000000000000000000000000000000000000000000000000000000000000000000000000000000000000000000000000000000000000000000000000000000000000000000000000000000000000",
      "type": "0x0",
      "transactionHash": "0x6e9d34b314c8968de06008f1c77284b05427bc4f4fbcbe14eea5cd6f91441a9f",
      "transactionIndex": "0x0",
      "blockHash": "0x7a582bb5c3d5cb1deef7cccb0a97e57db2b0579747909b52b33c15ab92e631b7",
      "blockNumber": "0x22",
      "gasUsed": "0xad94",
      "effectiveGasPrice": "0x3b9aca00",
      "blobGasPrice": "0x1",
      "from": "0xd289d1387ae1033a703842d69501d5bec5a6f04e",
      "to": "0x4d4adec97e3e11693f65dedc2d1e6bec784eb2f1",
      "contractAddress": null
    },
    {
      "status": "0x1",
      "cumulativeGasUsed": "0x17623",
      "logs": [
        {
          "address": "0x048255dfef2ebfa7307058ae475a3e2f5ee0df46",
          "topics": [
            "0xbc3f7b7e77a395c156c24db8a8a7850209b2df71a2561292eea221e32bf5d467",
            "0x437cf7937243d2015f601488dd7cfe1ab977b86402b54d2a15e2f0f34389843b",
            "0x000000000000000000000000d289d1387ae1033a703842d69501d5bec5a6f04e"
          ],
          "data": "0x00000000000000000000000000000000000000000000000000000000000f4240",
          "blockHash": "0xd727c8620fd9f835f79183b47353794dd73e340b39c95e61df11913fcc78aca6",
          "blockNumber": "0x23",
          "blockTimestamp": "0x69666f08",
          "transactionHash": "0x41cf3553a1957269bd5c340c064fcf7101804dff544eac234d3f2741dcbdeefb",
          "transactionIndex": "0x0",
          "logIndex": "0x0",
          "removed": false
        },
        {
          "address": "0x048255dfef2ebfa7307058ae475a3e2f5ee0df46",
          "topics": [
            "0x78160f0b1b2b32b52a0076d8f0f70888687ba702a4d993d55ac8d9327d57a127",
            "0x0000000000000000000000000000000000000000000000000000000000000006",
            "0x61d0e3168ffb4bf803c199d3dd52b9e2fab1042c5dde28df5b56d2a2b52dfe1d",
            "0xd1a9a6f0b8c633fe9dd38020987856c8d9af9fbf86fa42b5b402bc6bf8d1d229"
          ],
          "data": "0xbc3f7b7e77a395c156c24db8a8a7850209b2df71a2561292eea221e32bf5d46700000000000000000000000000000000000000000000000000000000000000400000000000000000000000000000000000000000000000000000000000000060437cf7937243d2015f601488dd7cfe1ab977b86402b54d2a15e2f0f34389843b000000000000000000000000d289d1387ae1033a703842d69501d5bec5a6f04e00000000000000000000000000000000000000000000000000000000000f4240",
          "blockHash": "0xd727c8620fd9f835f79183b47353794dd73e340b39c95e61df11913fcc78aca6",
          "blockNumber": "0x23",
          "blockTimestamp": "0x69666f08",
          "transactionHash": "0x41cf3553a1957269bd5c340c064fcf7101804dff544eac234d3f2741dcbdeefb",
          "transactionIndex": "0x0",
          "logIndex": "0x1",
          "removed": false
        }
      ],
      "logsBloom": "0x40000002000000002000000000000000000000000000000000000000000000000000000000000000000000000000000000000000000400000080000000200000000000000000000004000000000000000000000000000004000000000020000000000000000800004000000000000000000000000000000000000000000000000000000400000000000000000000000000000000000000000000000000000000000000002000000000000000000400000000000600000000000008080000000000000000400000000000000000002000000000000200000000000000000000000000000000000000000000000000100000000000000000000000000000004002",
      "type": "0x0",
      "transactionHash": "0x41cf3553a1957269bd5c340c064fcf7101804dff544eac234d3f2741dcbdeefb",
      "transactionIndex": "0x0",
      "blockHash": "0xd727c8620fd9f835f79183b47353794dd73e340b39c95e61df11913fcc78aca6",
      "blockNumber": "0x23",
      "gasUsed": "0x17623",
      "effectiveGasPrice": "0x3b9aca00",
      "blobGasPrice": "0x1",
      "from": "0xd289d1387ae1033a703842d69501d5bec5a6f04e",
      "to": "0x048255dfef2ebfa7307058ae475a3e2f5ee0df46",
      "contractAddress": null
    },
    {
      "status": "0x1",
      "cumulativeGasUsed": "0x121f6",
      "logs": [],
      "logsBloom": "0x00000000000000000000000000000000000000000000000000000000000000000000000000000000000000000000000000000000000000000000000000000000000000000000000000000000000000000000000000000000000000000000000000000000000000000000000000000000000000000000000000000000000000000000000000000000000000000000000000000000000000000000000000000000000000000000000000000000000000000000000000000000000000000000000000000000000000000000000000000000000000000000000000000000000000000000000000000000000000000000000000000000000000000000000000000000",
      "type": "0x0",
      "transactionHash": "0x595680c106d52df9f0bf9c3c73426e9007f0bb5985b65f9337516ed69ef1b049",
      "transactionIndex": "0x0",
      "blockHash": "0xa57349df885bae74a289591019d2b0b1f0ca44bebf1bfcfbc19f2c4ae0daf78f",
      "blockNumber": "0x24",
      "gasUsed": "0x121f6",
      "effectiveGasPrice": "0x3b9aca00",
      "blobGasPrice": "0x1",
      "from": "0xd289d1387ae1033a703842d69501d5bec5a6f04e",
      "to": "0x8c16d2f19a034b7281254f5656c2d1461c6ceb9a",
      "contractAddress": null
    },
    {
      "status": "0x1",
      "cumulativeGasUsed": "0x2a95a",
      "logs": [
        {
          "address": "0x048255dfef2ebfa7307058ae475a3e2f5ee0df46",
          "topics": [
            "0xfa797585c9827d59a7694ef382241f1a03ced6a1a2b4353b35939abc4d04b286",
            "0x437cf7937243d2015f601488dd7cfe1ab977b86402b54d2a15e2f0f34389843b",
            "0x000000000000000000000000d289d1387ae1033a703842d69501d5bec5a6f04e"
          ],
          "data": "0x00000000000000000000000000000000000000000000000000000000000000000000000000000000000000000000000000000000000000000000000000000000",
          "blockHash": "0x2dd98a52fdc36a67ab1c4aad1af298e98938bbf28e70293fecd47a6f63d716ef",
          "blockNumber": "0x25",
          "blockTimestamp": "0x69666f0a",
          "transactionHash": "0x30e94e4178251f3c74dc8c22d81d88ffb0060b9eaa3806cb04d00900f40d6c2b",
          "transactionIndex": "0x0",
          "logIndex": "0x0",
          "removed": false
        },
        {
          "address": "0x048255dfef2ebfa7307058ae475a3e2f5ee0df46",
          "topics": [
            "0x78160f0b1b2b32b52a0076d8f0f70888687ba702a4d993d55ac8d9327d57a127",
            "0x0000000000000000000000000000000000000000000000000000000000000007",
            "0xd1a9a6f0b8c633fe9dd38020987856c8d9af9fbf86fa42b5b402bc6bf8d1d229",
            "0x5d8f625c64783b9eaeacaa646574231f35afcc4ecae1d4afe849a6e312d79db6"
          ],
          "data": "0xfa797585c9827d59a7694ef382241f1a03ced6a1a2b4353b35939abc4d04b28600000000000000000000000000000000000000000000000000000000000000400000000000000000000000000000000000000000000000000000000000000080437cf7937243d2015f601488dd7cfe1ab977b86402b54d2a15e2f0f34389843b000000000000000000000000d289d1387ae1033a703842d69501d5bec5a6f04e00000000000000000000000000000000000000000000000000000000000000000000000000000000000000000000000000000000000000000000000000000000",
          "blockHash": "0x2dd98a52fdc36a67ab1c4aad1af298e98938bbf28e70293fecd47a6f63d716ef",
          "blockNumber": "0x25",
          "blockTimestamp": "0x69666f0a",
          "transactionHash": "0x30e94e4178251f3c74dc8c22d81d88ffb0060b9eaa3806cb04d00900f40d6c2b",
          "transactionIndex": "0x0",
          "logIndex": "0x1",
          "removed": false
        },
        {
          "address": "0x048255dfef2ebfa7307058ae475a3e2f5ee0df46",
          "topics": [
            "0x16bfb64ae70b8a9bbda28deb27a1cbc5ec3e6497481714344c221b46c0777f35",
            "0x437cf7937243d2015f601488dd7cfe1ab977b86402b54d2a15e2f0f34389843b",
            "0x000000000000000000000000d289d1387ae1033a703842d69501d5bec5a6f04e"
          ],
          "data": "0x000000000000000000000000f86c23c1e883ee3b820fb9be75ff91c9a49eae7500000000000000000000000000000000000000000000000000000000004c4b400000000000000000000000004d4adec97e3e11693f65dedc2d1e6bec784eb2f100000000000000000000000000000000000000000000000000000000000f4240",
          "blockHash": "0x2dd98a52fdc36a67ab1c4aad1af298e98938bbf28e70293fecd47a6f63d716ef",
          "blockNumber": "0x25",
          "blockTimestamp": "0x69666f0a",
          "transactionHash": "0x30e94e4178251f3c74dc8c22d81d88ffb0060b9eaa3806cb04d00900f40d6c2b",
          "transactionIndex": "0x0",
          "logIndex": "0x2",
          "removed": false
        },
        {
          "address": "0x048255dfef2ebfa7307058ae475a3e2f5ee0df46",
          "topics": [
            "0x78160f0b1b2b32b52a0076d8f0f70888687ba702a4d993d55ac8d9327d57a127",
            "0x0000000000000000000000000000000000000000000000000000000000000008",
            "0x5d8f625c64783b9eaeacaa646574231f35afcc4ecae1d4afe849a6e312d79db6",
            "0x900a55e7a3e018d37b38b7c674714ee9dc4779c3f0fc72bcd08ba6c674048eb1"
          ],
          "data": "0x16bfb64ae70b8a9bbda28deb27a1cbc5ec3e6497481714344c221b46c0777f35000000000000000000000000000000000000000000000000000000000000004000000000000000000000000000000000000000000000000000000000000000c0437cf7937243d2015f601488dd7cfe1ab977b86402b54d2a15e2f0f34389843b000000000000000000000000d289d1387ae1033a703842d69501d5bec5a6f04e000000000000000000000000f86c23c1e883ee3b820fb9be75ff91c9a49eae7500000000000000000000000000000000000000000000000000000000004c4b400000000000000000000000004d4adec97e3e11693f65dedc2d1e6bec784eb2f100000000000000000000000000000000000000000000000000000000000f4240",
          "blockHash": "0x2dd98a52fdc36a67ab1c4aad1af298e98938bbf28e70293fecd47a6f63d716ef",
          "blockNumber": "0x25",
          "blockTimestamp": "0x69666f0a",
          "transactionHash": "0x30e94e4178251f3c74dc8c22d81d88ffb0060b9eaa3806cb04d00900f40d6c2b",
          "transactionIndex": "0x0",
          "logIndex": "0x3",
          "removed": false
        }
      ],
      "logsBloom": "0x40200002000000000000000000000000000000000020000000000000000080000000000000000000000000000000000200001000000080000082000000200000000020000000000004000010000000000000000000000000000000000000000000000000000800004000000000400000000000000000000000000000000000000080000000000000000000000000000000000000000000000000000000000000000000002000000000000002000000000000000200000000000008000000001050000000400000000000000000002000000000000200000000000100000000000000020000000000000000000000100000000000000000000000000002004000",
      "type": "0x0",
      "transactionHash": "0x30e94e4178251f3c74dc8c22d81d88ffb0060b9eaa3806cb04d00900f40d6c2b",
      "transactionIndex": "0x0",
      "blockHash": "0x2dd98a52fdc36a67ab1c4aad1af298e98938bbf28e70293fecd47a6f63d716ef",
      "blockNumber": "0x25",
      "gasUsed": "0x2a95a",
      "effectiveGasPrice": "0x3b9aca00",
      "blobGasPrice": "0x1",
      "from": "0xd289d1387ae1033a703842d69501d5bec5a6f04e",
      "to": "0x048255dfef2ebfa7307058ae475a3e2f5ee0df46",
      "contractAddress": null
    },
    {
      "status": "0x1",
      "cumulativeGasUsed": "0x6994",
      "logs": [],
      "logsBloom": "0x00000000000000000000000000000000000000000000000000000000000000000000000000000000000000000000000000000000000000000000000000000000000000000000000000000000000000000000000000000000000000000000000000000000000000000000000000000000000000000000000000000000000000000000000000000000000000000000000000000000000000000000000000000000000000000000000000000000000000000000000000000000000000000000000000000000000000000000000000000000000000000000000000000000000000000000000000000000000000000000000000000000000000000000000000000000",
      "type": "0x0",
      "transactionHash": "0x45b14dbbbe8d1e00e14e30ea6da4a9a9a44c19141c3b1562cf19f7e8314f5ff9",
      "transactionIndex": "0x0",
      "blockHash": "0xe99e459a17654af8c0604151f3c3e64fe95a504452aff6b993bc230899f7bdd0",
      "blockNumber": "0x26",
      "gasUsed": "0x6994",
      "effectiveGasPrice": "0x3b9aca00",
      "blobGasPrice": "0x1",
      "from": "0xd289d1387ae1033a703842d69501d5bec5a6f04e",
      "to": "0x4d4adec97e3e11693f65dedc2d1e6bec784eb2f1",
      "contractAddress": null
    },
    {
      "status": "0x1",
      "cumulativeGasUsed": "0x5fd8",
      "logs": [],
      "logsBloom": "0x00000000000000000000000000000000000000000000000000000000000000000000000000000000000000000000000000000000000000000000000000000000000000000000000000000000000000000000000000000000000000000000000000000000000000000000000000000000000000000000000000000000000000000000000000000000000000000000000000000000000000000000000000000000000000000000000000000000000000000000000000000000000000000000000000000000000000000000000000000000000000000000000000000000000000000000000000000000000000000000000000000000000000000000000000000000",
      "type": "0x0",
      "transactionHash": "0x63c0f0c60a979577ffd174ff1f9f4b2a65204330c0cd776dd290ae73505a840f",
      "transactionIndex": "0x0",
      "blockHash": "0x32bf5ed236145b5d50168b6d142df4f8e67e6454170f50ca570ea4c609595fb1",
      "blockNumber": "0x27",
      "gasUsed": "0x5fd8",
      "effectiveGasPrice": "0x3b9aca00",
      "blobGasPrice": "0x1",
      "from": "0xd289d1387ae1033a703842d69501d5bec5a6f04e",
      "to": "0x4d4adec97e3e11693f65dedc2d1e6bec784eb2f1",
      "contractAddress": null
    },
    {
      "status": "0x1",
      "cumulativeGasUsed": "0x46ef3",
      "logs": [
        {
          "address": "0x048255dfef2ebfa7307058ae475a3e2f5ee0df46",
          "topics": [
            "0x6f81b8ad0780a0febc687a3a73b181433722b4be30f7f0a024169f5161267287",
            "0xf35eb2b59caba4fc7241fd247b979a0635af9ef3272fb7018a548358185ee245",
            "0x000000000000000000000000d289d1387ae1033a703842d69501d5bec5a6f04e"
          ],
          "data": "0x00000000000000000000000000000000000000000000000000000000000000010000000000000000000000004d4adec97e3e11693f65dedc2d1e6bec784eb2f100000000000000000000000000000000000000000000000000000000001e8480000000000000000000000000d289d1387ae1033a703842d69501d5bec5a6f04e0000000000000000000000000000000000000000000000000000000069666eaa00000000000000000000000000000000000000000000000000000000000000c00000000000000000000000000000000000000000000000000000000000000040000000000000000000000000558b8fe3b86724d9d9433bf8ec2b1a1b223f9d25000000000000000000000000000000000000000000000000000000000012d687",
          "blockHash": "0x240874f88d5aad95b37413dc09c79e72b06607e19503ce294c67968ce286dff1",
          "blockNumber": "0x28",
          "blockTimestamp": "0x69666f0d",
          "transactionHash": "0x1e0d0ceec8571239cd90b9fe062e20db7ef10854780a13628096c84f26a46601",
          "transactionIndex": "0x0",
          "logIndex": "0x0",
          "removed": false
        },
        {
          "address": "0x048255dfef2ebfa7307058ae475a3e2f5ee0df46",
          "topics": [
            "0x78160f0b1b2b32b52a0076d8f0f70888687ba702a4d993d55ac8d9327d57a127",
            "0x0000000000000000000000000000000000000000000000000000000000000009",
            "0x900a55e7a3e018d37b38b7c674714ee9dc4779c3f0fc72bcd08ba6c674048eb1",
            "0xfabce25409cef060607184a646cba131d2d48fb09bfb3e9a9f06ec6dde74f846"
          ],
          "data": "0x6f81b8ad0780a0febc687a3a73b181433722b4be30f7f0a024169f516126728700000000000000000000000000000000000000000000000000000000000000400000000000000000000000000000000000000000000000000000000000000160f35eb2b59caba4fc7241fd247b979a0635af9ef3272fb7018a548358185ee245000000000000000000000000d289d1387ae1033a703842d69501d5bec5a6f04e00000000000000000000000000000000000000000000000000000000000000010000000000000000000000004d4adec97e3e11693f65dedc2d1e6bec784eb2f100000000000000000000000000000000000000000000000000000000001e8480000000000000000000000000d289d1387ae1033a703842d69501d5bec5a6f04e0000000000000000000000000000000000000000000000000000000069666eaa00000000000000000000000000000000000000000000000000000000000001000000000000000000000000000000000000000000000000000000000000000040000000000000000000000000558b8fe3b86724d9d9433bf8ec2b1a1b223f9d25000000000000000000000000000000000000000000000000000000000012d687",
          "blockHash": "0x240874f88d5aad95b37413dc09c79e72b06607e19503ce294c67968ce286dff1",
          "blockNumber": "0x28",
          "blockTimestamp": "0x69666f0d",
          "transactionHash": "0x1e0d0ceec8571239cd90b9fe062e20db7ef10854780a13628096c84f26a46601",
          "transactionIndex": "0x0",
          "logIndex": "0x1",
          "removed": false
        },
        {
          "address": "0x048255dfef2ebfa7307058ae475a3e2f5ee0df46",
          "topics": [
            "0x0544741ff6f2708047138c8f3a68abb994e628666dba785f685ff1035274f9fb",
            "0xf35eb2b59caba4fc7241fd247b979a0635af9ef3272fb7018a548358185ee245",
            "0x000000000000000000000000d289d1387ae1033a703842d69501d5bec5a6f04e"
          ],
          "data": "0x0000000000000000000000004d4adec97e3e11693f65dedc2d1e6bec784eb2f100000000000000000000000000000000000000000000000000000000001e8480",
          "blockHash": "0x240874f88d5aad95b37413dc09c79e72b06607e19503ce294c67968ce286dff1",
          "blockNumber": "0x28",
          "blockTimestamp": "0x69666f0d",
          "transactionHash": "0x1e0d0ceec8571239cd90b9fe062e20db7ef10854780a13628096c84f26a46601",
          "transactionIndex": "0x0",
          "logIndex": "0x2",
          "removed": false
        },
        {
          "address": "0x048255dfef2ebfa7307058ae475a3e2f5ee0df46",
          "topics": [
            "0x78160f0b1b2b32b52a0076d8f0f70888687ba702a4d993d55ac8d9327d57a127",
            "0x000000000000000000000000000000000000000000000000000000000000000a",
            "0xfabce25409cef060607184a646cba131d2d48fb09bfb3e9a9f06ec6dde74f846",
            "0x3b559be9617618320f7fb80f674d9ed95b9c76f71e966c4d755e394880194273"
          ],
          "data": "0x0544741ff6f2708047138c8f3a68abb994e628666dba785f685ff1035274f9fb00000000000000000000000000000000000000000000000000000000000000400000000000000000000000000000000000000000000000000000000000000080f35eb2b59caba4fc7241fd247b979a0635af9ef3272fb7018a548358185ee245000000000000000000000000d289d1387ae1033a703842d69501d5bec5a6f04e0000000000000000000000004d4adec97e3e11693f65dedc2d1e6bec784eb2f100000000000000000000000000000000000000000000000000000000001e8480",
          "blockHash": "0x240874f88d5aad95b37413dc09c79e72b06607e19503ce294c67968ce286dff1",
          "blockNumber": "0x28",
          "blockTimestamp": "0x69666f0d",
          "transactionHash": "0x1e0d0ceec8571239cd90b9fe062e20db7ef10854780a13628096c84f26a46601",
          "transactionIndex": "0x0",
          "logIndex": "0x3",
          "removed": false
        }
      ],
      "logsBloom": "0x00200000000000000000000000000000000000000020000000000000000000000000000000000000000000000000000000000000040000000020000000200000000000000000000004000000000000000004000100200000000000000000000000800000000800004000000000000000000000000000000000000000008000000000000000000000010000000000000000001000000000000000000000200000000010000000000000000000000000000080200200000000200000000000000000000000400000000000020000000000000000000200000000020040000000000010020000000000000000000000100000000000000000000000000000804000",
      "type": "0x0",
      "transactionHash": "0x1e0d0ceec8571239cd90b9fe062e20db7ef10854780a13628096c84f26a46601",
      "transactionIndex": "0x0",
      "blockHash": "0x240874f88d5aad95b37413dc09c79e72b06607e19503ce294c67968ce286dff1",
      "blockNumber": "0x28",
      "gasUsed": "0x46ef3",
      "effectiveGasPrice": "0x3b9aca00",
      "blobGasPrice": "0x1",
      "from": "0xd289d1387ae1033a703842d69501d5bec5a6f04e",
      "to": "0x048255dfef2ebfa7307058ae475a3e2f5ee0df46",
      "contractAddress": null
    },
    {
      "status": "0x1",
      "cumulativeGasUsed": "0x6994",
      "logs": [],
      "logsBloom": "0x00000000000000000000000000000000000000000000000000000000000000000000000000000000000000000000000000000000000000000000000000000000000000000000000000000000000000000000000000000000000000000000000000000000000000000000000000000000000000000000000000000000000000000000000000000000000000000000000000000000000000000000000000000000000000000000000000000000000000000000000000000000000000000000000000000000000000000000000000000000000000000000000000000000000000000000000000000000000000000000000000000000000000000000000000000000",
      "type": "0x0",
      "transactionHash": "0x8eeeae544a79cb5a55977e241c9bd38cb18bedcf8158889ea1cc6283aceec8b3",
      "transactionIndex": "0x0",
      "blockHash": "0xac9e1923629e0d69ff38656e5b64d1161b3d749b7b557f94443667da5c23aee5",
      "blockNumber": "0x29",
      "gasUsed": "0x6994",
      "effectiveGasPrice": "0x3b9aca00",
      "blobGasPrice": "0x1",
      "from": "0xd289d1387ae1033a703842d69501d5bec5a6f04e",
      "to": "0x4d4adec97e3e11693f65dedc2d1e6bec784eb2f1",
      "contractAddress": null
    },
    {
      "status": "0x1",
      "cumulativeGasUsed": "0x5fd8",
      "logs": [],
      "logsBloom": "0x00000000000000000000000000000000000000000000000000000000000000000000000000000000000000000000000000000000000000000000000000000000000000000000000000000000000000000000000000000000000000000000000000000000000000000000000000000000000000000000000000000000000000000000000000000000000000000000000000000000000000000000000000000000000000000000000000000000000000000000000000000000000000000000000000000000000000000000000000000000000000000000000000000000000000000000000000000000000000000000000000000000000000000000000000000000",
      "type": "0x0",
      "transactionHash": "0x87ccc77118d5e8c30a5d79bef72571ad0d64537c8e2e377ff52106655b51e205",
      "transactionIndex": "0x0",
      "blockHash": "0x25c70e68b7280326e6218d2d2fd34c2eebd07fb6acb288e120ea373b46b6e809",
      "blockNumber": "0x2a",
      "gasUsed": "0x5fd8",
      "effectiveGasPrice": "0x3b9aca00",
      "blobGasPrice": "0x1",
      "from": "0xd289d1387ae1033a703842d69501d5bec5a6f04e",
      "to": "0x4d4adec97e3e11693f65dedc2d1e6bec784eb2f1",
      "contractAddress": null
    },
    {
      "status": "0x1",
      "cumulativeGasUsed": "0x14617",
      "logs": [
        {
          "address": "0x048255dfef2ebfa7307058ae475a3e2f5ee0df46",
          "topics": [
            "0xbc3f7b7e77a395c156c24db8a8a7850209b2df71a2561292eea221e32bf5d467",
            "0xf35eb2b59caba4fc7241fd247b979a0635af9ef3272fb7018a548358185ee245",
            "0x000000000000000000000000d289d1387ae1033a703842d69501d5bec5a6f04e"
          ],
          "data": "0x00000000000000000000000000000000000000000000000000000000000f4240",
          "blockHash": "0x2caf70314bfd1ab0fa47c8a22c1488e0250097403eb34660eff5c710e3fc5cd2",
          "blockNumber": "0x2b",
          "blockTimestamp": "0x69666f10",
          "transactionHash": "0x9e3d812a030d1703a8a7387918bde8e4dfb983591b0d2f26609348b5f1370ea9",
          "transactionIndex": "0x0",
          "logIndex": "0x0",
          "removed": false
        },
        {
          "address": "0x048255dfef2ebfa7307058ae475a3e2f5ee0df46",
          "topics": [
            "0x78160f0b1b2b32b52a0076d8f0f70888687ba702a4d993d55ac8d9327d57a127",
            "0x000000000000000000000000000000000000000000000000000000000000000b",
            "0x3b559be9617618320f7fb80f674d9ed95b9c76f71e966c4d755e394880194273",
            "0x3dfa1ac78232f2f16615e107e6397ad27cb2403785feb6f203fbbfa8d0ffd2a2"
          ],
          "data": "0xbc3f7b7e77a395c156c24db8a8a7850209b2df71a2561292eea221e32bf5d46700000000000000000000000000000000000000000000000000000000000000400000000000000000000000000000000000000000000000000000000000000060f35eb2b59caba4fc7241fd247b979a0635af9ef3272fb7018a548358185ee245000000000000000000000000d289d1387ae1033a703842d69501d5bec5a6f04e00000000000000000000000000000000000000000000000000000000000f4240",
          "blockHash": "0x2caf70314bfd1ab0fa47c8a22c1488e0250097403eb34660eff5c710e3fc5cd2",
          "blockNumber": "0x2b",
          "blockTimestamp": "0x69666f10",
          "transactionHash": "0x9e3d812a030d1703a8a7387918bde8e4dfb983591b0d2f26609348b5f1370ea9",
          "transactionIndex": "0x0",
          "logIndex": "0x1",
          "removed": false
        }
      ],
      "logsBloom": "0x00000000000000002000004000000000000000000000000000000000000000000000000000000000000000000000000000000000000000000000000000220000000000020000000004000000000000000000000000200004000000000000200000800000000800004000000000000000000000000000000000000000000000000000000000000000000000000000000000000000000000000000000000000000000010000000000000000000000000000080000200000000000000000000000000000000400000000000000000000000002000000200000000020040000000000000000000000000000000000000100000000000000000040000000000004002",
      "type": "0x0",
      "transactionHash": "0x9e3d812a030d1703a8a7387918bde8e4dfb983591b0d2f26609348b5f1370ea9",
      "transactionIndex": "0x0",
      "blockHash": "0x2caf70314bfd1ab0fa47c8a22c1488e0250097403eb34660eff5c710e3fc5cd2",
      "blockNumber": "0x2b",
      "gasUsed": "0x14617",
      "effectiveGasPrice": "0x3b9aca00",
      "blobGasPrice": "0x1",
      "from": "0xd289d1387ae1033a703842d69501d5bec5a6f04e",
      "to": "0x048255dfef2ebfa7307058ae475a3e2f5ee0df46",
      "contractAddress": null
    },
    {
      "status": "0x1",
      "cumulativeGasUsed": "0x1a29b",
      "logs": [],
      "logsBloom": "0x00000000000000000000000000000000000000000000000000000000000000000000000000000000000000000000000000000000000000000000000000000000000000000000000000000000000000000000000000000000000000000000000000000000000000000000000000000000000000000000000000000000000000000000000000000000000000000000000000000000000000000000000000000000000000000000000000000000000000000000000000000000000000000000000000000000000000000000000000000000000000000000000000000000000000000000000000000000000000000000000000000000000000000000000000000000",
      "type": "0x0",
      "transactionHash": "0x9b10ac3fbd02f7448c38f9766f4fc1b76725518bde0024f5692cbdba944e83c8",
      "transactionIndex": "0x0",
      "blockHash": "0x4d66fa50bddf371d07cd9d23314fcf44d47db2ced5f5f29d1617444e03843d68",
      "blockNumber": "0x2c",
      "gasUsed": "0x1a29b",
      "effectiveGasPrice": "0x3b9aca00",
      "blobGasPrice": "0x1",
      "from": "0xd289d1387ae1033a703842d69501d5bec5a6f04e",
      "to": "0x8c16d2f19a034b7281254f5656c2d1461c6ceb9a",
      "contractAddress": null
    },
    {
      "status": "0x1",
      "cumulativeGasUsed": "0x212aa",
      "logs": [
        {
          "address": "0x048255dfef2ebfa7307058ae475a3e2f5ee0df46",
          "topics": [
            "0xfa797585c9827d59a7694ef382241f1a03ced6a1a2b4353b35939abc4d04b286",
            "0xf35eb2b59caba4fc7241fd247b979a0635af9ef3272fb7018a548358185ee245",
            "0x000000000000000000000000d289d1387ae1033a703842d69501d5bec5a6f04e"
          ],
          "data": "0x00000000000000000000000000000000000000000000000000000000000000000000000000000000000000000000000000000000000000000000000000000000",
          "blockHash": "0x3743a7f3106b05b3756b6f96c249d1b3153adcac14cc0d1b489bc4ad193267dc",
          "blockNumber": "0x2d",
          "blockTimestamp": "0x69666f12",
          "transactionHash": "0x8687671cab6b2043833eac71c48fab934309a41b559edfdc8565856b45022e6f",
          "transactionIndex": "0x0",
          "logIndex": "0x0",
          "removed": false
        },
        {
          "address": "0x048255dfef2ebfa7307058ae475a3e2f5ee0df46",
          "topics": [
            "0x78160f0b1b2b32b52a0076d8f0f70888687ba702a4d993d55ac8d9327d57a127",
            "0x000000000000000000000000000000000000000000000000000000000000000c",
            "0x3dfa1ac78232f2f16615e107e6397ad27cb2403785feb6f203fbbfa8d0ffd2a2",
            "0xeaca77a7d1cf56b2f1220e227e27d4b49ba82d3147c40cd5d178bf02e97b7823"
          ],
          "data": "0xfa797585c9827d59a7694ef382241f1a03ced6a1a2b4353b35939abc4d04b28600000000000000000000000000000000000000000000000000000000000000400000000000000000000000000000000000000000000000000000000000000080f35eb2b59caba4fc7241fd247b979a0635af9ef3272fb7018a548358185ee245000000000000000000000000d289d1387ae1033a703842d69501d5bec5a6f04e00000000000000000000000000000000000000000000000000000000000000000000000000000000000000000000000000000000000000000000000000000000",
          "blockHash": "0x3743a7f3106b05b3756b6f96c249d1b3153adcac14cc0d1b489bc4ad193267dc",
          "blockNumber": "0x2d",
          "blockTimestamp": "0x69666f12",
          "transactionHash": "0x8687671cab6b2043833eac71c48fab934309a41b559edfdc8565856b45022e6f",
          "transactionIndex": "0x0",
          "logIndex": "0x1",
          "removed": false
        },
        {
          "address": "0x048255dfef2ebfa7307058ae475a3e2f5ee0df46",
          "topics": [
            "0x16bfb64ae70b8a9bbda28deb27a1cbc5ec3e6497481714344c221b46c0777f35",
            "0xf35eb2b59caba4fc7241fd247b979a0635af9ef3272fb7018a548358185ee245",
            "0x000000000000000000000000d289d1387ae1033a703842d69501d5bec5a6f04e"
          ],
          "data": "0x0000000000000000000000004d4adec97e3e11693f65dedc2d1e6bec784eb2f100000000000000000000000000000000000000000000000000000000001e84800000000000000000000000004d4adec97e3e11693f65dedc2d1e6bec784eb2f100000000000000000000000000000000000000000000000000000000000f4240",
          "blockHash": "0x3743a7f3106b05b3756b6f96c249d1b3153adcac14cc0d1b489bc4ad193267dc",
          "blockNumber": "0x2d",
          "blockTimestamp": "0x69666f12",
          "transactionHash": "0x8687671cab6b2043833eac71c48fab934309a41b559edfdc8565856b45022e6f",
          "transactionIndex": "0x0",
          "logIndex": "0x2",
          "removed": false
        },
        {
          "address": "0x048255dfef2ebfa7307058ae475a3e2f5ee0df46",
          "topics": [
            "0x78160f0b1b2b32b52a0076d8f0f70888687ba702a4d993d55ac8d9327d57a127",
            "0x000000000000000000000000000000000000000000000000000000000000000d",
            "0xeaca77a7d1cf56b2f1220e227e27d4b49ba82d3147c40cd5d178bf02e97b7823",
            "0xc9d5615dc28e8128cc3b19039dfe654f4ca5f79b0fe51b33fa812dee599e0510"
          ],
          "data": "0x16bfb64ae70b8a9bbda28deb27a1cbc5ec3e6497481714344c221b46c0777f35000000000000000000000000000000000000000000000000000000000000004000000000000000000000000000000000000000000000000000000000000000c0f35eb2b59caba4fc7241fd247b979a0635af9ef3272fb7018a548358185ee245000000000000000000000000d289d1387ae1033a703842d69501d5bec5a6f04e0000000000000000000000004d4adec97e3e11693f65dedc2d1e6bec784eb2f100000000000000000000000000000000000000000000000000000000001e84800000000000000000000000004d4adec97e3e11693f65dedc2d1e6bec784eb2f100000000000000000000000000000000000000000000000000000000000f4240",
          "blockHash": "0x3743a7f3106b05b3756b6f96c249d1b3153adcac14cc0d1b489bc4ad193267dc",
          "blockNumber": "0x2d",
          "blockTimestamp": "0x69666f12",
          "transactionHash": "0x8687671cab6b2043833eac71c48fab934309a41b559edfdc8565856b45022e6f",
          "transactionIndex": "0x0",
          "logIndex": "0x3",
          "removed": false
        }
      ],
      "logsBloom": "0x00000000000000000040000000000000000002000000000000000000000080000000000000000200000000000000000200000000000000000002000000220000000000020000000004000000000000000002000000000000000000000000300000000000000800004000000000000000000080000000000000000000000000000000000000002000000000000000000000000000000000000000000000000000000110000000000000840002000000000080000200000000000000000000000010000000400000000000000000000000000000000200000000000040000000220000000000000000000000000000100000000000000000000000000002004000",
      "type": "0x0",
      "transactionHash": "0x8687671cab6b2043833eac71c48fab934309a41b559edfdc8565856b45022e6f",
      "transactionIndex": "0x0",
      "blockHash": "0x3743a7f3106b05b3756b6f96c249d1b3153adcac14cc0d1b489bc4ad193267dc",
      "blockNumber": "0x2d",
      "gasUsed": "0x212aa",
      "effectiveGasPrice": "0x3b9aca00",
      "blobGasPrice": "0x1",
      "from": "0xd289d1387ae1033a703842d69501d5bec5a6f04e",
      "to": "0x048255dfef2ebfa7307058ae475a3e2f5ee0df46",
      "contractAddress": null
    },
    {
      "status": "0x1",
      "cumulativeGasUsed": "0x6994",
      "logs": [],
      "logsBloom": "0x00000000000000000000000000000000000000000000000000000000000000000000000000000000000000000000000000000000000000000000000000000000000000000000000000000000000000000000000000000000000000000000000000000000000000000000000000000000000000000000000000000000000000000000000000000000000000000000000000000000000000000000000000000000000000000000000000000000000000000000000000000000000000000000000000000000000000000000000000000000000000000000000000000000000000000000000000000000000000000000000000000000000000000000000000000000",
      "type": "0x0",
      "transactionHash": "0xd4a3704fdadaf1ab9481eb5a8029329668b8b0b70b4a0ad0acbe10760127fa8f",
      "transactionIndex": "0x0",
      "blockHash": "0xf8c05bd3ef65850b76e6e8837190db388c9fb2368226ae1e1176ea1e9edd73f1",
      "blockNumber": "0x2e",
      "gasUsed": "0x6994",
      "effectiveGasPrice": "0x3b9aca00",
      "blobGasPrice": "0x1",
      "from": "0xd289d1387ae1033a703842d69501d5bec5a6f04e",
      "to": "0xf86c23c1e883ee3b820fb9be75ff91c9a49eae75",
      "contractAddress": null
    },
    {
      "status": "0x1",
      "cumulativeGasUsed": "0x5fd8",
      "logs": [],
      "logsBloom": "0x00000000000000000000000000000000000000000000000000000000000000000000000000000000000000000000000000000000000000000000000000000000000000000000000000000000000000000000000000000000000000000000000000000000000000000000000000000000000000000000000000000000000000000000000000000000000000000000000000000000000000000000000000000000000000000000000000000000000000000000000000000000000000000000000000000000000000000000000000000000000000000000000000000000000000000000000000000000000000000000000000000000000000000000000000000000",
      "type": "0x0",
      "transactionHash": "0xdda00ba795aaf750a19ff23dd6a7124f10b25d69deb1562e29881bcfeb1a3c35",
      "transactionIndex": "0x0",
      "blockHash": "0x25ce473629ace50f01759b416f70474fe3eacd551aa8a040d31e8b669c2008b4",
      "blockNumber": "0x2f",
      "gasUsed": "0x5fd8",
      "effectiveGasPrice": "0x3b9aca00",
      "blobGasPrice": "0x1",
      "from": "0xd289d1387ae1033a703842d69501d5bec5a6f04e",
      "to": "0xf86c23c1e883ee3b820fb9be75ff91c9a49eae75",
      "contractAddress": null
    },
    {
      "status": "0x1",
      "cumulativeGasUsed": "0x52d69",
      "logs": [
        {
          "address": "0x048255dfef2ebfa7307058ae475a3e2f5ee0df46",
          "topics": [
            "0x6f81b8ad0780a0febc687a3a73b181433722b4be30f7f0a024169f5161267287",
            "0xc29e342eb77f8650b232f44ee99a3e55e2f06805d85fbc659ec4953fac75cf90",
            "0x000000000000000000000000d289d1387ae1033a703842d69501d5bec5a6f04e"
          ],
          "data": "0x0000000000000000000000000000000000000000000000000000000000000000000000000000000000000000f86c23c1e883ee3b820fb9be75ff91c9a49eae7500000000000000000000000000000000000000000000000000000000000f4240000000000000000000000000d289d1387ae1033a703842d69501d5bec5a6f04e0000000000000000000000000000000000000000000000000000000069666e7800000000000000000000000000000000000000000000000000000000000000c000000000000000000000000000000000000000000000000000000000000000a000000000000000000000000000000000000000000000000000000000000000200000000000000000000000005457e258a09ebfb4a2501a9e3d70d37f54f923f300000000000000000000000000000000000000000000000000000000000000400000000000000000000000000000000000000000000000000000000000000002beef000000000000000000000000000000000000000000000000000000000000",
          "blockHash": "0x7fe88fcfb33eeef8a9f2f74d7daa6e84147bb65cf0e56cc9db8ac2b2fc133bee",
          "blockNumber": "0x30",
          "blockTimestamp": "0x69666f15",
          "transactionHash": "0x25dd83ac0ee371b92b2f10b94ee5848f4aa2182f3fc7270b9b9ddd860ceb247e",
          "transactionIndex": "0x0",
          "logIndex": "0x0",
          "removed": false
        },
        {
          "address": "0x048255dfef2ebfa7307058ae475a3e2f5ee0df46",
          "topics": [
            "0x78160f0b1b2b32b52a0076d8f0f70888687ba702a4d993d55ac8d9327d57a127",
            "0x000000000000000000000000000000000000000000000000000000000000000e",
            "0xc9d5615dc28e8128cc3b19039dfe654f4ca5f79b0fe51b33fa812dee599e0510",
            "0x8ac3487d0933280b5decf9fc065e76064df90ee246b2b8f246241d1d9902f4fd"
          ],
          "data": "0x6f81b8ad0780a0febc687a3a73b181433722b4be30f7f0a024169f5161267287000000000000000000000000000000000000000000000000000000000000004000000000000000000000000000000000000000000000000000000000000001c0c29e342eb77f8650b232f44ee99a3e55e2f06805d85fbc659ec4953fac75cf90000000000000000000000000d289d1387ae1033a703842d69501d5bec5a6f04e0000000000000000000000000000000000000000000000000000000000000000000000000000000000000000f86c23c1e883ee3b820fb9be75ff91c9a49eae7500000000000000000000000000000000000000000000000000000000000f4240000000000000000000000000d289d1387ae1033a703842d69501d5bec5a6f04e0000000000000000000000000000000000000000000000000000000069666e78000000000000000000000000000000000000000000000000000000000000010000000000000000000000000000000000000000000000000000000000000000a000000000000000000000000000000000000000000000000000000000000000200000000000000000000000005457e258a09ebfb4a2501a9e3d70d37f54f923f300000000000000000000000000000000000000000000000000000000000000400000000000000000000000000000000000000000000000000000000000000002beef000000000000000000000000000000000000000000000000000000000000",
          "blockHash": "0x7fe88fcfb33eeef8a9f2f74d7daa6e84147bb65cf0e56cc9db8ac2b2fc133bee",
          "blockNumber": "0x30",
          "blockTimestamp": "0x69666f15",
          "transactionHash": "0x25dd83ac0ee371b92b2f10b94ee5848f4aa2182f3fc7270b9b9ddd860ceb247e",
          "transactionIndex": "0x0",
          "logIndex": "0x1",
          "removed": false
        },
        {
          "address": "0x048255dfef2ebfa7307058ae475a3e2f5ee0df46",
          "topics": [
            "0x0544741ff6f2708047138c8f3a68abb994e628666dba785f685ff1035274f9fb",
            "0xc29e342eb77f8650b232f44ee99a3e55e2f06805d85fbc659ec4953fac75cf90",
            "0x000000000000000000000000d289d1387ae1033a703842d69501d5bec5a6f04e"
          ],
          "data": "0x000000000000000000000000f86c23c1e883ee3b820fb9be75ff91c9a49eae7500000000000000000000000000000000000000000000000000000000000f4240",
          "blockHash": "0x7fe88fcfb33eeef8a9f2f74d7daa6e84147bb65cf0e56cc9db8ac2b2fc133bee",
          "blockNumber": "0x30",
          "blockTimestamp": "0x69666f15",
          "transactionHash": "0x25dd83ac0ee371b92b2f10b94ee5848f4aa2182f3fc7270b9b9ddd860ceb247e",
          "transactionIndex": "0x0",
          "logIndex": "0x2",
          "removed": false
        },
        {
          "address": "0x048255dfef2ebfa7307058ae475a3e2f5ee0df46",
          "topics": [
            "0x78160f0b1b2b32b52a0076d8f0f70888687ba702a4d993d55ac8d9327d57a127",
            "0x000000000000000000000000000000000000000000000000000000000000000f",
            "0x8ac3487d0933280b5decf9fc065e76064df90ee246b2b8f246241d1d9902f4fd",
            "0x6a7f7492ef7537201d003928dd178570d9e548727b974325f75af81b443caec5"
          ],
          "data": "0x0544741ff6f2708047138c8f3a68abb994e628666dba785f685ff1035274f9fb00000000000000000000000000000000000000000000000000000000000000400000000000000000000000000000000000000000000000000000000000000080c29e342eb77f8650b232f44ee99a3e55e2f06805d85fbc659ec4953fac75cf90000000000000000000000000d289d1387ae1033a703842d69501d5bec5a6f04e000000000000000000000000f86c23c1e883ee3b820fb9be75ff91c9a49eae7500000000000000000000000000000000000000000000000000000000000f4240",
          "blockHash": "0x7fe88fcfb33eeef8a9f2f74d7daa6e84147bb65cf0e56cc9db8ac2b2fc133bee",
          "blockNumber": "0x30",
          "blockTimestamp": "0x69666f15",
          "transactionHash": "0x25dd83ac0ee371b92b2f10b94ee5848f4aa2182f3fc7270b9b9ddd860ceb247e",
          "transactionIndex": "0x0",
          "logIndex": "0x3",
          "removed": false
        }
      ],
      "logsBloom": "0x00000000000000000000000000000000000000000000000000000000000000000000000000000000400000000000000000000000000000000000000000200000000000000000000804000000000000000004000100000000000000000002100000000000000800004000000000000000000000000000000080000000008000000000000000000800000000000000000108000100000200000000000000000000000000000000000000840080000000000000200200000030200000000000000000000000400000000000020000000040000000000200000000000000000000200000000200000000000000000000100000000000000000000000000000004000",
      "type": "0x0",
      "transactionHash": "0x25dd83ac0ee371b92b2f10b94ee5848f4aa2182f3fc7270b9b9ddd860ceb247e",
      "transactionIndex": "0x0",
      "blockHash": "0x7fe88fcfb33eeef8a9f2f74d7daa6e84147bb65cf0e56cc9db8ac2b2fc133bee",
      "blockNumber": "0x30",
      "gasUsed": "0x52d69",
      "effectiveGasPrice": "0x3b9aca00",
      "blobGasPrice": "0x1",
      "from": "0xd289d1387ae1033a703842d69501d5bec5a6f04e",
      "to": "0x048255dfef2ebfa7307058ae475a3e2f5ee0df46",
      "contractAddress": null
    },
    {
      "status": "0x1",
      "cumulativeGasUsed": "0x17083",
      "logs": [
        {
          "address": "0x048255dfef2ebfa7307058ae475a3e2f5ee0df46",
          "topics": [
            "0x6db2da0f661d59d5a9c767b6ba61a9c192765a6aab952e5e53ea77175332f13d",
            "0xc29e342eb77f8650b232f44ee99a3e55e2f06805d85fbc659ec4953fac75cf90",
            "0x000000000000000000000000d289d1387ae1033a703842d69501d5bec5a6f04e"
          ],
          "data": "0x000000000000000000000000000000000000000000000000000000000000000000000000000000000000000000000000000000000000000000000000000000010000000000000000000000000000000000000000000000000000000000000000000000000000000000000000d289d1387ae1033a703842d69501d5bec5a6f04e000000000000000000000000f86c23c1e883ee3b820fb9be75ff91c9a49eae7500000000000000000000000000000000000000000000000000000000000f42400000000000000000000000004d4adec97e3e11693f65dedc2d1e6bec784eb2f1000000000000000000000000000000000000000000000000000000000000000000000000000000000000000000000000000000000000000000000000000000000000000000000000000000000000000000000000000000000000000000000000",
          "blockHash": "0x53afa6f5ab50dfef250005f5d948128df4203d975048d7472c53b960df0ef5eb",
          "blockNumber": "0x31",
          "blockTimestamp": "0x69666f16",
          "transactionHash": "0x3fb315d3dc4c0f30f4b3ac0cafaec8ec1fbf582c55865763848241f4c4e18afe",
          "transactionIndex": "0x0",
          "logIndex": "0x0",
          "removed": false
        },
        {
          "address": "0x048255dfef2ebfa7307058ae475a3e2f5ee0df46",
          "topics": [
            "0x78160f0b1b2b32b52a0076d8f0f70888687ba702a4d993d55ac8d9327d57a127",
            "0x0000000000000000000000000000000000000000000000000000000000000010",
            "0x6a7f7492ef7537201d003928dd178570d9e548727b974325f75af81b443caec5",
            "0xf4e68f3aa47ccab0daa2725c8cc67c003f27c6358bd8cef99021563ccf8e118f"
          ],
          "data": "0x6db2da0f661d59d5a9c767b6ba61a9c192765a6aab952e5e53ea77175332f13d00000000000000000000000000000000000000000000000000000000000000400000000000000000000000000000000000000000000000000000000000000180c29e342eb77f8650b232f44ee99a3e55e2f06805d85fbc659ec4953fac75cf90000000000000000000000000d289d1387ae1033a703842d69501d5bec5a6f04e000000000000000000000000000000000000000000000000000000000000000000000000000000000000000000000000000000000000000000000000000000010000000000000000000000000000000000000000000000000000000000000000000000000000000000000000d289d1387ae1033a703842d69501d5bec5a6f04e000000000000000000000000f86c23c1e883ee3b820fb9be75ff91c9a49eae7500000000000000000000000000000000000000000000000000000000000f42400000000000000000000000004d4adec97e3e11693f65dedc2d1e6bec784eb2f1000000000000000000000000000000000000000000000000000000000000000000000000000000000000000000000000000000000000000000000000000000000000000000000000000000000000000000000000000000000000000000000000",
          "blockHash": "0x53afa6f5ab50dfef250005f5d948128df4203d975048d7472c53b960df0ef5eb",
          "blockNumber": "0x31",
          "blockTimestamp": "0x69666f16",
          "transactionHash": "0x3fb315d3dc4c0f30f4b3ac0cafaec8ec1fbf582c55865763848241f4c4e18afe",
          "transactionIndex": "0x0",
          "logIndex": "0x1",
          "removed": false
        }
      ],
      "logsBloom": "0x00000000100000000000000000000000000000000000000000000000000000000000000000000000000000000000000000000000000000000000000000200000000000000000000004000000000000000000000000000000000000000000000000000000000800004000010000000000080000000000000080000000040000000000000000000000000000040000000100000100000200000000004000000000000000000000000000000080000000000000000200000000000080000000000000000000400000000000000000000040000000000200000000000800000000200000000000000000000000000000100000000000000000000000000000004000",
      "type": "0x0",
      "transactionHash": "0x3fb315d3dc4c0f30f4b3ac0cafaec8ec1fbf582c55865763848241f4c4e18afe",
      "transactionIndex": "0x0",
      "blockHash": "0x53afa6f5ab50dfef250005f5d948128df4203d975048d7472c53b960df0ef5eb",
      "blockNumber": "0x31",
      "gasUsed": "0x17083",
      "effectiveGasPrice": "0x3b9aca00",
      "blobGasPrice": "0x1",
      "from": "0xd289d1387ae1033a703842d69501d5bec5a6f04e",
      "to": "0x048255dfef2ebfa7307058ae475a3e2f5ee0df46",
      "contractAddress": null
    }
  ],
  "libraries": [],
  "pending": [],
  "returns": {},
  "timestamp": 1768320650622,
  "chain": 111,
  "commit": "24bfcfb"
}