{
  "transactions": [
    {
      "hash": "0x9641ee03018a3142e7c0d37b05ae7446dba97b61b7bb28357dd48191191f94dc",
      "transactionType": "CREATE",
      "contractName": "ExactBridger",
      "contractAddress": "0x0be19c78706c441de4178a2266a650e47160eda7",
      "function": null,
      "arguments": null,
      "transaction": {
        "from": "0xd289d1387ae1033a703842d69501d5bec5a6f04e",
        "value": "0x0",
        "input": "0x60808060405234601557610521908161001a8239f35b5f80fdfe608080604052600436101561001c575b50361561001a575f80fd5b005b5f3560e01c9081631fce5d1114610478575080632267cb0814610450578063463d1fca146104335780637f8945821461035557806384def41c1461033c57806389c905d21461031f578063a678341d14610302578063b14d361d146100ac5763ff7b2edd1461008b575f61000f565b346100a8575f3660031901126100a8576020600654604051908152f35b5f80fd5b60a03660031901126100a8576004356001600160a01b038116908190036100a8576044356001600160a01b03811691602435918390036100a8576084359267ffffffffffffffff84116100a857366023850112156100a85783600401359167ffffffffffffffff83116100a85736602484870101116100a8576bffffffffffffffffffffffff60a01b5f5416175f55826001556bffffffffffffffffffffffff60a01b600254161760025560643560035561016860045461049a565b601f811161029a575b505f601f8211600114610227578192935f92610219575b50508160011b915f199060031b1c1916176004555b34600555600654806101b5575b602082604051908152f35b5f80808093335af13d15610214573d67ffffffffffffffff811161020057604051906101eb601f8201601f1916602001836104d2565b81525f60203d92013e5b156100a857816101aa565b634e487b7160e01b5f52604160045260245ffd5b6101f5565b602492500101358380610188565b601f1982169360045f525f5160206104f55f395f51905f52915f5b86811061027f5750836001959610610263575b505050811b0160045561019d565b01602401355f19600384901b60f8161c19169055838080610255565b90926020600181926024878701013581550194019101610242565b60045f52601f820160051c5f5160206104f55f395f51905f520190602083106102ed575b601f0160051c5f5160206104f55f395f51905f5201905b8181106102e25750610171565b5f81556001016102d5565b5f5160206104f55f395f51905f5291506102be565b346100a8575f3660031901126100a8576020600354604051908152f35b346100a8575f3660031901126100a8576020600154604051908152f35b346100a85760203660031901126100a857600435600655005b346100a8575f3660031901126100a857604051600454905f6103768361049a565b80835260208301936001811690811561041857506001146103cd575b50906103a28160409303826104d2565b8151928391602083525180918160208501528484015e5f828201840152601f01601f19168101030190f35b91905060045f525f5160206104f55f395f51905f52915f905b8082106103fe575090915081016020016103a2610392565b9192600181602092548385880101520191019092916103e6565b60ff1916855250151560051b820160200190506103a2610392565b346100a8575f3660031901126100a8576020600554604051908152f35b346100a8575f3660031901126100a8576002546040516001600160a01b039091168152602090f35b346100a8575f3660031901126100a8575f546001600160a01b03168152602090f35b90600182811c921680156104c8575b60208310146104b457565b634e487b7160e01b5f52602260045260245ffd5b91607f16916104a9565b90601f8019910116810190811067ffffffffffffffff8211176102005760405256fe8a35acfbc15ff81a39ae7d344fd709f28e8600b4aa8c65c6b64bfe7fe36bd19ba164736f6c634300081b000a",
        "nonce": "0xc",
        "chainId": "0x6f"
      },
      "additionalContracts": [],
      "isFixedGasLimit": false
    },
    {
      "hash": "0x5dff21b1310551aebb70c2ceb7eb2a860e457bb41c7ef6fa3224956ff919324a",
      "transactionType": "CALL",
      "contractName": null,
      "contractAddress": "0x8828fd7431d5bb1962d7e067c103b2324fa6bbec",
      "function": "setBridgers(address,address)",
      "arguments": [
        "0x0bE19C78706c441dE4178a2266a650E47160Eda7",
        "0x0bE19C78706c441dE4178a2266a650E47160Eda7"
      ],
      "transaction": {
        "from": "0xd289d1387ae1033a703842d69501d5bec5a6f04e",
        "to": "0x8828fd7431d5bb1962d7e067c103b2324fa6bbec",
        "value": "0x0",
        "input": "0x2b0f3ee40000000000000000000000000be19c78706c441de4178a2266a650e47160eda70000000000000000000000000be19c78706c441de4178a2266a650e47160eda7",
        "nonce": "0xd",
        "chainId": "0x6f"
      },
      "additionalContracts": [],
      "isFixedGasLimit": false
    },
    {
      "hash": "0x0683791d8c580fe05e947e5fc3f38a502d06668756665d3692d8f46476c347fa",
      "transactionType": "CREATE",
      "contractName": "MockQuoter",
      "contractAddress": "0x481e836be187303c64f269bc7fe2c52f7f7c6eef",
      "function": null,
      "arguments": null,
      "transaction": {
        "from": "0xd289d1387ae1033a703842d69501d5bec5a6f04e",
        "value": "0x0",
        "input": "0x6080806040523460155761015b908161001a8239f35b5f80fdfe6080806040526004361015610012575f80fd5b5f3560e01c90816346ee8d001461010957508063520b9355146100c15780636813d78714610091578063d3072d821461006f5763e21a560214610053575f80fd5b3461006b57602036600319011261006b576004355f55005b5f80fd5b3461006b575f36600319011261006b57602060ff600154166040519015158152f35b3461006b57602036600319011261006b5760043580151580910361006b5760ff8019600154169116176001555f80f35b3461006b57608036600319011261006b576100da610122565b506100e3610138565b5060ff600154166100fa5760205f54604051908152f35b631f6b7cef60e11b5f5260045ffd5b3461006b575f36600319011261006b576020905f548152f35b600435906001600160a01b038216820361006b57565b602435906001600160a01b038216820361006b5756fea164736f6c634300081b000a",
        "nonce": "0xe",
        "chainId": "0x6f"
      },
      "additionalContracts": [],
      "isFixedGasLimit": false
    },
    {
      "hash": "0x5442cb8cd2818da051a292177af933a42052362d1c40030812b4acf29bd49b9e",
      "transactionType": "CALL",
      "contractName": "MockQuoter",
      "contractAddress": "0x481e836be187303c64f269bc7fe2c52f7f7c6eef",
      "function": "setAmountOut(uint256)",
      "arguments": [
        "90000000"
      ],
      "transaction": {
        "from": "0xd289d1387ae1033a703842d69501d5bec5a6f04e",
        "to": "0x481e836be187303c64f269bc7fe2c52f7f7c6eef",
        "value": "0x0",
        "input": "0xe21a560200000000000000000000000000000000000000000000000000000000055d4a80",
        "nonce": "0xf",
        "chainId": "0x6f"
      },
      "additionalContracts": [],
      "isFixedGasLimit": false
    },
    {
      "hash": "0x8070a422200e1dbd8d5a1a9099941348b15ef7a124b2908c74084764599671c8",
      "transactionType": "CALL",
      "contractName": null,
      "contractAddress": "0x8828fd7431d5bb1962d7e067c103b2324fa6bbec",
      "function": "setQuoter(address,address)",
      "arguments": [
        "0x4D4aDEc97e3e11693F65dEDC2D1e6Bec784eB2F1",
        "0x481e836bE187303c64F269Bc7fe2C52F7f7c6eEf"
      ],
      "transaction": {
        "from": "0xd289d1387ae1033a703842d69501d5bec5a6f04e",
        "to": "0x8828fd7431d5bb1962d7e067c103b2324fa6bbec",
        "value": "0x0",
        "input": "0x6264257a0000000000000000000000004d4adec97e3e11693f65dedc2d1e6bec784eb2f1000000000000000000000000481e836be187303c64f269bc7fe2c52f7f7c6eef",
        "nonce": "0x10",
        "chainId": "0x6f"
      },
      "additionalContracts": [],
      "isFixedGasLimit": false
    },
    {
      "hash": "0xd0fa060e851badf79c4d2e11fd36f93fbec136506b91f7bdf8306f30af0f8960",
      "transactionType": "CALL",
      "contractName": null,
      "contractAddress": "0x048255dfef2ebfa7307058ae475a3e2f5ee0df46",
      "function": "setRecommendedIntentFee(uint256,uint256)",
      "arguments": [
        "10000",
        "123"
      ],
      "transaction": {
        "from": "0xd289d1387ae1033a703842d69501d5bec5a6f04e",
        "to": "0x048255dfef2ebfa7307058ae475a3e2f5ee0df46",
        "value": "0x0",
        "input": "0xf2af970b0000000000000000000000000000000000000000000000000000000000002710000000000000000000000000000000000000000000000000000000000000007b",
        "nonce": "0x11",
        "chainId": "0x6f"
      },
      "additionalContracts": [],
      "isFixedGasLimit": false
    },
    {
      "hash": "0xfef75832b829aac2e6452ba53f4a9ba013d943049a463a6b53d6e34ac7b415e4",
      "transactionType": "CREATE",
      "contractName": "MockQuoter",
      "contractAddress": "0x6b0f32ae157cf4f7d9b402c4e243e9088207dd87",
      "function": null,
      "arguments": null,
      "transaction": {
        "from": "0xd289d1387ae1033a703842d69501d5bec5a6f04e",
        "value": "0x0",
        "input": "0x6080806040523460155761015b908161001a8239f35b5f80fdfe6080806040526004361015610012575f80fd5b5f3560e01c90816346ee8d001461010957508063520b9355146100c15780636813d78714610091578063d3072d821461006f5763e21a560214610053575f80fd5b3461006b57602036600319011261006b576004355f55005b5f80fd5b3461006b575f36600319011261006b57602060ff600154166040519015158152f35b3461006b57602036600319011261006b5760043580151580910361006b5760ff8019600154169116176001555f80f35b3461006b57608036600319011261006b576100da610122565b506100e3610138565b5060ff600154166100fa5760205f54604051908152f35b631f6b7cef60e11b5f5260045ffd5b3461006b575f36600319011261006b576020905f548152f35b600435906001600160a01b038216820361006b57565b602435906001600160a01b038216820361006b5756fea164736f6c634300081b000a",
        "nonce": "0x12",
        "chainId": "0x6f"
      },
      "additionalContracts": [],
      "isFixedGasLimit": false
    },
    {
      "hash": "0x52a5b66a31ca101099f01ce93ad3ffff416805838b30081bcfa839b252bed4c0",
      "transactionType": "CALL",
      "contractName": "MockQuoter",
      "contractAddress": "0x6b0f32ae157cf4f7d9b402c4e243e9088207dd87",
      "function": "setAmountOut(uint256)",
      "arguments": [
        "90000000"
      ],
      "transaction": {
        "from": "0xd289d1387ae1033a703842d69501d5bec5a6f04e",
        "to": "0x6b0f32ae157cf4f7d9b402c4e243e9088207dd87",
        "value": "0x0",
        "input": "0xe21a560200000000000000000000000000000000000000000000000000000000055d4a80",
        "nonce": "0x13",
        "chainId": "0x6f"
      },
      "additionalContracts": [],
      "isFixedGasLimit": false
    },
    {
      "hash": "0xd22176e8ccd207a296ae7f951f4d5aca52ce6df4d466a5cf64fc80978b22b71e",
      "transactionType": "CALL",
      "contractName": null,
      "contractAddress": "0x8828fd7431d5bb1962d7e067c103b2324fa6bbec",
      "function": "setQuoter(address,address)",
      "arguments": [
        "0x4D4aDEc97e3e11693F65dEDC2D1e6Bec784eB2F1",
        "0x6b0f32ae157CF4F7d9B402c4e243E9088207dD87"
      ],
      "transaction": {
        "from": "0xd289d1387ae1033a703842d69501d5bec5a6f04e",
        "to": "0x8828fd7431d5bb1962d7e067c103b2324fa6bbec",
        "value": "0x0",
        "input": "0x6264257a0000000000000000000000004d4adec97e3e11693f65dedc2d1e6bec784eb2f10000000000000000000000006b0f32ae157cf4f7d9b402c4e243e9088207dd87",
        "nonce": "0x14",
        "chainId": "0x6f"
      },
      "additionalContracts": [],
      "isFixedGasLimit": false
    },
    {
      "hash": "0x0cbf907f623c63537dbd7aa5982b4f17aeadb123eb8f16e7137f38ff384e6ea7",
      "transactionType": "CREATE",
      "contractName": "MockTransportBridger",
      "contractAddress": "0xc5ea444a0f556f5b227ec7447294d91086bb692c",
      "function": null,
      "arguments": null,
      "transaction": {
        "from": "0xd289d1387ae1033a703842d69501d5bec5a6f04e",
        "value": "0x0",
        "input": "0x60808060405234601557610507908161001a8239f35b5f80fdfe6080806040526004361015610012575f80fd5b5f905f3560e01c9081632c368377146103fd5750806347799da8146102d45763b14d361d1461003f575f80fd5b60a03660031901126102d1576004356001600160a01b038116908190036102cf576044356001600160a01b03811691602435918390036102cb576084359267ffffffffffffffff84116102c757366023850112156102c75783600401359067ffffffffffffffff82116102c35736602483870101116102c3576040519260c0840184811067ffffffffffffffff8211176102af5760405283526020830184815260408401918252866020606086019460643586528060246040519a61010d85601f19601f860116018d6104c4565b828c5201838b0137880101526080840186905260a08401878152935187546001600160a01b039182166001600160a01b0319918216178955915160015591516002805491909316911617905551600355825167ffffffffffffffff811161029b5761017960045461048c565b601f8111610238575b5060209485906001601f8411146101d7579482939495926101cc575b50508160011b915f199060031b1c1916176004555b51151560ff801960055416911617600555604051908152f35b015190505f8061019e565b90601f1983169560048352818320925b878110610221575083600195969710610209575b505050811b016004556101b3565b01515f1960f88460031b161c191690555f80806101fb565b9192886001819286850151815501940192016101e7565b600486527f8a35acfbc15ff81a39ae7d344fd709f28e8600b4aa8c65c6b64bfe7fe36bd19b601f830160051c81019160208410610291575b601f0160051c01905b8181106102865750610182565b868155600101610279565b9091508190610270565b634e487b7160e01b85526041600452602485fd5b634e487b7160e01b88526041600452602488fd5b8580fd5b8480fd5b8380fd5b505b80fd5b50346102d157806003193601126102d157805460015460025460035460405160045493946001600160a01b03908116949316918691906103138561048c565b8083526020830195600181169081156103e2575060011461038c575b5061033f8260e0989903836104c4565b60ff6005541693604051988997885260208801526040870152606086015260c060808601525180938160c08701528686015e838301850152151560a0830152601f01601f19168101030190f35b600484529750827f8a35acfbc15ff81a39ae7d344fd709f28e8600b4aa8c65c6b64bfe7fe36bd19b5b8982106103cc57508201602001975061033f61032f565b60018160209254838588010152019101906103b5565b60ff1916875250151560051b8201602001975061033f61032f565b905034610488575f3660031901126104885760055460ff81166104885760ff191660019081176005555f546002549154916001600160a01b039081169116803b1561048857835f604492819583956340c10f1960e01b8552600485015260248401525af1801561047d5761046f575080f35b61047b91505f906104c4565b005b6040513d5f823e3d90fd5b5f80fd5b90600182811c921680156104ba575b60208310146104a657565b634e487b7160e01b5f52602260045260245ffd5b91607f169161049b565b90601f8019910116810190811067ffffffffffffffff8211176104e657604052565b634e487b7160e01b5f52604160045260245ffdfea164736f6c634300081b000a",
        "nonce": "0x15",
        "chainId": "0x6f"
      },
      "additionalContracts": [],
      "isFixedGasLimit": false
    },
    {
      "hash": "0x513c988ae0f0a9d492aa9892b44ecb80d51d6f5440660b7c21ac40ebabac0706",
      "transactionType": "CALL",
      "contractName": null,
      "contractAddress": "0x8828fd7431d5bb1962d7e067c103b2324fa6bbec",
      "function": "setBridgers(address,address)",
      "arguments": [
        "0xC5EA444a0F556f5B227ec7447294d91086BB692c",
        "0xC5EA444a0F556f5B227ec7447294d91086BB692c"
      ],
      "transaction": {
        "from": "0xd289d1387ae1033a703842d69501d5bec5a6f04e",
        "to": "0x8828fd7431d5bb1962d7e067c103b2324fa6bbec",
        "value": "0x0",
        "input": "0x2b0f3ee4000000000000000000000000c5ea444a0f556f5b227ec7447294d91086bb692c000000000000000000000000c5ea444a0f556f5b227ec7447294d91086bb692c",
        "nonce": "0x16",
        "chainId": "0x6f"
      },
      "additionalContracts": [],
      "isFixedGasLimit": false
    },
    {
      "hash": "0xed9ff6741db10b3045ced5a8c60ac486d1a21c494a4d492898e20dab57c564ef",
      "transactionType": "CALL",
      "contractName": null,
      "contractAddress": "0x4d4adec97e3e11693f65dedc2d1e6bec784eb2f1",
      "function": "mint(address,uint256)",
      "arguments": [
        "0x2023A9aE4D68FEA5B1Bef01F207b249c9f2cECBf",
        "123000000"
      ],
      "transaction": {
        "from": "0xd289d1387ae1033a703842d69501d5bec5a6f04e",
        "to": "0x4d4adec97e3e11693f65dedc2d1e6bec784eb2f1",
        "value": "0x0",
        "input": "0x40c10f190000000000000000000000002023a9ae4d68fea5b1bef01f207b249c9f2cecbf000000000000000000000000000000000000000000000000000000000754d4c0",
        "nonce": "0x17",
        "chainId": "0x6f"
      },
      "additionalContracts": [],
      "isFixedGasLimit": false
    },
    {
      "hash": "0x7c502ac501942dd735dc0196df91cdd500c49f19f4e20e4085b732afdc2226c7",
      "transactionType": "CALL",
      "contractName": null,
      "contractAddress": "0x8828fd7431d5bb1962d7e067c103b2324fa6bbec",
      "function": "pullFromReceiver((uint256,address,bool,bytes32,bytes32,uint256,address,address,(address,uint256,bytes)[],bytes))",
      "arguments": [
        "(111, 0xD59d27B9172aD056Cb5C008Dc2BbEFe702123A55, false, 0x0000000000000000000000000000000000000000000000000000000000000000, 0x0000000000000000000000000000000000000000000000000000000000000001, 0, 0x4D4aDEc97e3e11693F65dEDC2D1e6Bec784eB2F1, 0x4D4aDEc97e3e11693F65dEDC2D1e6Bec784eB2F1, [], 0x)"
      ],
      "transaction": {
        "from": "0xd289d1387ae1033a703842d69501d5bec5a6f04e",
        "to": "0x8828fd7431d5bb1962d7e067c103b2324fa6bbec",
        "value": "0x0",
        "input": "0x1ad1087b0000000000000000000000000000000000000000000000000000000000000020000000000000000000000000000000000000000000000000000000000000006f000000000000000000000000d59d27b9172ad056cb5c008dc2bbefe702123a5500000000000000000000000000000000000000000000000000000000000000000000000000000000000000000000000000000000000000000000000000000000000000000000000000000000000000000000000000000000000000000000000100000000000000000000000000000000000000000000000000000000000000000000000000000000000000004d4adec97e3e11693f65dedc2d1e6bec784eb2f10000000000000000000000004d4adec97e3e11693f65dedc2d1e6bec784eb2f10000000000000000000000000000000000000000000000000000000000000140000000000000000000000000000000000000000000000000000000000000016000000000000000000000000000000000000000000000000000000000000000000000000000000000000000000000000000000000000000000000000000000000",
        "nonce": "0x18",
        "chainId": "0x6f"
      },
      "additionalContracts": [],
      "isFixedGasLimit": false
    },
    {
      "hash": "0x36d01de7490a4bb86e8cf80cb286ddabd66ba87a04de7c38e917290146251b60",
      "transactionType": "CALL",
      "contractName": null,
      "contractAddress": "0x4d4adec97e3e11693f65dedc2d1e6bec784eb2f1",
      "function": "mint(address,uint256)",
      "arguments": [
        "0x2023A9aE4D68FEA5B1Bef01F207b249c9f2cECBf",
        "100000000"
      ],
      "transaction": {
        "from": "0xd289d1387ae1033a703842d69501d5bec5a6f04e",
        "to": "0x4d4adec97e3e11693f65dedc2d1e6bec784eb2f1",
        "value": "0x0",
        "input": "0x40c10f190000000000000000000000002023a9ae4d68fea5b1bef01f207b249c9f2cecbf0000000000000000000000000000000000000000000000000000000005f5e100",
        "nonce": "0x19",
        "chainId": "0x6f"
      },
      "additionalContracts": [],
      "isFixedGasLimit": false
    },
    {
      "hash": "0xaedae0178498b2a31bbe450105e800c9fe3ec7f30955749b5cdc3c7afe91bcbf",
      "transactionType": "CALL",
      "contractName": null,
      "contractAddress": "0x8828fd7431d5bb1962d7e067c103b2324fa6bbec",
      "function": "pullFromReceiver((uint256,address,bool,bytes32,bytes32,uint256,address,address,(address,uint256,bytes)[],bytes))",
      "arguments": [
        "(111, 0xD59d27B9172aD056Cb5C008Dc2BbEFe702123A55, false, 0x0000000000000000000000000000000000000000000000000000000000000000, 0x0000000000000000000000000000000000000000000000000000000000000002, 0, 0x4D4aDEc97e3e11693F65dEDC2D1e6Bec784eB2F1, 0xF86C23C1E883ee3B820FB9BE75FF91C9A49EaE75, [(0xF86C23C1E883ee3B820FB9BE75FF91C9A49EaE75, 0, 0x40c10f190000000000000000000000009feb94832da4e52a75a18e6310640cc2cb702ffe0000000000000000000000000000000000000000000000000000000005f5e100)], 0x)"
      ],
      "transaction": {
        "from": "0xd289d1387ae1033a703842d69501d5bec5a6f04e",
        "to": "0x8828fd7431d5bb1962d7e067c103b2324fa6bbec",
        "value": "0x0",
        "input": "0x1ad1087b0000000000000000000000000000000000000000000000000000000000000020000000000000000000000000000000000000000000000000000000000000006f000000000000000000000000d59d27b9172ad056cb5c008dc2bbefe702123a5500000000000000000000000000000000000000000000000000000000000000000000000000000000000000000000000000000000000000000000000000000000000000000000000000000000000000000000000000000000000000000000000200000000000000000000000000000000000000000000000000000000000000000000000000000000000000004d4adec97e3e11693f65dedc2d1e6bec784eb2f1000000000000000000000000f86c23c1e883ee3b820fb9be75ff91c9a49eae750000000000000000000000000000000000000000000000000000000000000140000000000000000000000000000000000000000000000000000000000000026000000000000000000000000000000000000000000000000000000000000000010000000000000000000000000000000000000000000000000000000000000020000000000000000000000000f86c23c1e883ee3b820fb9be75ff91c9a49eae7500000000000000000000000000000000000000000000000000000000000000000000000000000000000000000000000000000000000000000000000000000060000000000000000000000000000000000000000000000000000000000000004440c10f190000000000000000000000009feb94832da4e52a75a18e6310640cc2cb702ffe0000000000000000000000000000000000000000000000000000000005f5e100000000000000000000000000000000000000000000000000000000000000000000000000000000000000000000000000000000000000000000000000",
        "nonce": "0x1a",
        "chainId": "0x6f"
      },
      "additionalContracts": [],
      "isFixedGasLimit": false
    },
    {
      "hash": "0x673bfefe6dd9f3d7d5ccd91876f25c4f64567d358831d72e246a1f258d337556",
      "transactionType": "CALL",
      "contractName": null,
      "contractAddress": "0xf86c23c1e883ee3b820fb9be75ff91c9a49eae75",
      "function": "mint(address,uint256)",
      "arguments": [
        "0xD289D1387ae1033A703842D69501D5bEc5A6f04e",
        "5000000"
      ],
      "transaction": {
        "from": "0xd289d1387ae1033a703842d69501d5bec5a6f04e",
        "to": "0xf86c23c1e883ee3b820fb9be75ff91c9a49eae75",
        "value": "0x0",
        "input": "0x40c10f19000000000000000000000000d289d1387ae1033a703842d69501d5bec5a6f04e00000000000000000000000000000000000000000000000000000000004c4b40",
        "nonce": "0x1b",
        "chainId": "0x6f"
      },
      "additionalContracts": [],
      "isFixedGasLimit": false
    },
    {
      "hash": "0x1193618ca7c4b0908d28701f918a6c723fe1f7d16a10b1871df5bce92b307e0e",
      "transactionType": "CALL",
      "contractName": null,
      "contractAddress": "0xf86c23c1e883ee3b820fb9be75ff91c9a49eae75",
      "function": "approve(address,uint256)",
      "arguments": [
        "0x048255dfEF2eBFA7307058Ae475a3e2F5ee0df46",
        "115792089237316195423570985008687907853269984665640564039457584007913129639935"
      ],
      "transaction": {
        "from": "0xd289d1387ae1033a703842d69501d5bec5a6f04e",
        "to": "0xf86c23c1e883ee3b820fb9be75ff91c9a49eae75",
        "value": "0x0",
        "input": "0x095ea7b3000000000000000000000000048255dfef2ebfa7307058ae475a3e2f5ee0df46ffffffffffffffffffffffffffffffffffffffffffffffffffffffffffffffff",
        "nonce": "0x1c",
        "chainId": "0x6f"
      },
      "additionalContracts": [],
      "isFixedGasLimit": false
    },
    {
      "hash": "0x7621ea46198c8146806b03d9490e37f51fe2601349fd06b1d06ff005389d6e7d",
      "transactionType": "CALL",
      "contractName": null,
      "contractAddress": "0x048255dfef2ebfa7307058ae475a3e2f5ee0df46",
      "function": "createIntent((uint8,bytes,address,address,uint256),uint256)",
      "arguments": [
        "(0, 0x00000000000000000000000000000000000000000000000000000000000000200000000000000000000000002db97a32d5ce8d79f7b7fdc607584a7a35da5e0d00000000000000000000000000000000000000000000000000000000000000400000000000000000000000000000000000000000000000000000000000000002abcd000000000000000000000000000000000000000000000000000000000000, 0xD289D1387ae1033A703842D69501D5bEc5A6f04e, 0xF86C23C1E883ee3B820FB9BE75FF91C9A49EaE75, 5000000)",
        "1768322533"
      ],
      "transaction": {
        "from": "0xd289d1387ae1033a703842d69501d5bec5a6f04e",
        "to": "0x048255dfef2ebfa7307058ae475a3e2f5ee0df46",
        "value": "0x0",
        "input": "0x549f7505000000000000000000000000000000000000000000000000000000000000004000000000000000000000000000000000000000000000000000000000696675e5000000000000000000000000000000000000000000000000000000000000000000000000000000000000000000000000000000000000000000000000000000a0000000000000000000000000d289d1387ae1033a703842d69501d5bec5a6f04e000000000000000000000000f86c23c1e883ee3b820fb9be75ff91c9a49eae7500000000000000000000000000000000000000000000000000000000004c4b4000000000000000000000000000000000000000000000000000000000000000a000000000000000000000000000000000000000000000000000000000000000200000000000000000000000002db97a32d5ce8d79f7b7fdc607584a7a35da5e0d00000000000000000000000000000000000000000000000000000000000000400000000000000000000000000000000000000000000000000000000000000002abcd000000000000000000000000000000000000000000000000000000000000",
        "nonce": "0x1d",
        "chainId": "0x6f"
      },
      "additionalContracts": [],
      "isFixedGasLimit": false
    },
    {
      "hash": "0x05c2317c0bed7f97c38ae0b6aa48987e4d1c267ba584761ea2ba850fb1afe1f8",
      "transactionType": "CALL",
      "contractName": null,
      "contractAddress": "0x4d4adec97e3e11693f65dedc2d1e6bec784eb2f1",
      "function": "mint(address,uint256)",
      "arguments": [
        "0xD289D1387ae1033A703842D69501D5bEc5A6f04e",
        "1000000"
      ],
      "transaction": {
        "from": "0xd289d1387ae1033a703842d69501d5bec5a6f04e",
        "to": "0x4d4adec97e3e11693f65dedc2d1e6bec784eb2f1",
        "value": "0x0",
        "input": "0x40c10f19000000000000000000000000d289d1387ae1033a703842d69501d5bec5a6f04e00000000000000000000000000000000000000000000000000000000000f4240",
        "nonce": "0x1e",
        "chainId": "0x6f"
      },
      "additionalContracts": [],
      "isFixedGasLimit": false
    },
    {
      "hash": "0x6e9d34b314c8968de06008f1c77284b05427bc4f4fbcbe14eea5cd6f91441a9f",
      "transactionType": "CALL",
      "contractName": null,
      "contractAddress": "0x4d4adec97e3e11693f65dedc2d1e6bec784eb2f1",
      "function": "approve(address,uint256)",
      "arguments": [
        "0x048255dfEF2eBFA7307058Ae475a3e2F5ee0df46",
        "115792089237316195423570985008687907853269984665640564039457584007913129639935"
      ],
      "transaction": {
        "from": "0xd289d1387ae1033a703842d69501d5bec5a6f04e",
        "to": "0x4d4adec97e3e11693f65dedc2d1e6bec784eb2f1",
        "value": "0x0",
        "input": "0x095ea7b3000000000000000000000000048255dfef2ebfa7307058ae475a3e2f5ee0df46ffffffffffffffffffffffffffffffffffffffffffffffffffffffffffffffff",
        "nonce": "0x1f",
        "chainId": "0x6f"
      },
      "additionalContracts": [],
      "isFixedGasLimit": false
    },
    {
      "hash": "0x5149b1b92c617b6ee53899d67147b6034e56aa5072a6e9d645a82a4d930a07d0",
      "transactionType": "CALL",
      "contractName": null,
      "contractAddress": "0x048255dfef2ebfa7307058ae475a3e2f5ee0df46",
      "function": "claimIntent(bytes32)",
      "arguments": [
        "0xa3573853cd51aee00704a918bdae35ffd85cda62ed5fb1c74fdc4509c4d06457"
      ],
      "transaction": {
        "from": "0xd289d1387ae1033a703842d69501d5bec5a6f04e",
        "to": "0x048255dfef2ebfa7307058ae475a3e2f5ee0df46",
        "value": "0x0",
        "input": "0x40e624cba3573853cd51aee00704a918bdae35ffd85cda62ed5fb1c74fdc4509c4d06457",
        "nonce": "0x20",
        "chainId": "0x6f"
      },
      "additionalContracts": [],
      "isFixedGasLimit": false
    },
    {
      "hash": "0x595680c106d52df9f0bf9c3c73426e9007f0bb5985b65f9337516ed69ef1b049",
      "transactionType": "CALL",
      "contractName": null,
      "contractAddress": "0x8c16d2f19a034b7281254f5656c2d1461c6ceb9a",
      "function": "setTx((bytes32,uint256,uint32,bytes21,bytes21,bytes))",
      "arguments": [
        "(0x0000000000000000000000000000000000000000000000000000000000000000, 0, 0, 0x000000000000000000000000000000000000000000, 0x412db97a32d5ce8d79f7b7fdc607584a7a35da5e0d, 0xabcd)"
      ],
      "transaction": {
        "from": "0xd289d1387ae1033a703842d69501d5bec5a6f04e",
        "to": "0x8c16d2f19a034b7281254f5656c2d1461c6ceb9a",
        "value": "0x0",
        "input": "0x3aec07de00000000000000000000000000000000000000000000000000000000000000200000000000000000000000000000000000000000000000000000000000000000000000000000000000000000000000000000000000000000000000000000000000000000000000000000000000000000000000000000000000000000000000000000000000000000000000000000000000000000000000000000000000000000412db97a32d5ce8d79f7b7fdc607584a7a35da5e0d000000000000000000000000000000000000000000000000000000000000000000000000000000000000c00000000000000000000000000000000000000000000000000000000000000002abcd000000000000000000000000000000000000000000000000000000000000",
        "nonce": "0x21",
        "chainId": "0x6f"
      },
      "additionalContracts": [],
      "isFixedGasLimit": false
    },
    {
      "hash": "0x7e23321b213ff29ab713475c4c35d820d322faf52f6e31705257d8f50604cf2c",
      "transactionType": "CALL",
      "contractName": null,
      "contractAddress": "0x048255dfef2ebfa7307058ae475a3e2f5ee0df46",
      "function": "proveIntentFill(bytes32,bytes[20],bytes,bytes32[],uint256)",
      "arguments": [
        "0xa3573853cd51aee00704a918bdae35ffd85cda62ed5fb1c74fdc4509c4d06457",
        "[0x, 0x, 0x, 0x, 0x, 0x, 0x, 0x, 0x, 0x, 0x, 0x, 0x, 0x, 0x, 0x, 0x, 0x, 0x, 0x]",
        "0x",
        "[]",
        "0"
      ],
      "transaction": {
        "from": "0xd289d1387ae1033a703842d69501d5bec5a6f04e",
        "to": "0x048255dfef2ebfa7307058ae475a3e2f5ee0df46",
        "value": "0x0",
        "input": "0x5c23cc02a3573853cd51aee00704a918bdae35ffd85cda62ed5fb1c74fdc4509c4d0645700000000000000000000000000000000000000000000000000000000000000a000000000000000000000000000000000000000000000000000000000000005a000000000000000000000000000000000000000000000000000000000000005c00000000000000000000000000000000000000000000000000000000000000000000000000000000000000000000000000000000000000000000000000000028000000000000000000000000000000000000000000000000000000000000002a000000000000000000000000000000000000000000000000000000000000002c000000000000000000000000000000000000000000000000000000000000002e00000000000000000000000000000000000000000000000000000000000000300000000000000000000000000000000000000000000000000000000000000032000000000000000000000000000000000000000000000000000000000000003400000000000000000000000000000000000000000000000000000000000000360000000000000000000000000000000000000000000000000000000000000038000000000000000000000000000000000000000000000000000000000000003a000000000000000000000000000000000000000000000000000000000000003c000000000000000000000000000000000000000000000000000000000000003e00000000000000000000000000000000000000000000000000000000000000400000000000000000000000000000000000000000000000000000000000000042000000000000000000000000000000000000000000000000000000000000004400000000000000000000000000000000000000000000000000000000000000460000000000000000000000000000000000000000000000000000000000000048000000000000000000000000000000000000000000000000000000000000004a000000000000000000000000000000000000000000000000000000000000004c000000000000000000000000000000000000000000000000000000000000004e00000000000000000000000000000000000000000000000000000000000000000000000000000000000000000000000000000000000000000000000000000000000000000000000000000000000000000000000000000000000000000000000000000000000000000000000000000000000000000000000000000000000000000000000000000000000000000000000000000000000000000000000000000000000000000000000000000000000000000000000000000000000000000000000000000000000000000000000000000000000000000000000000000000000000000000000000000000000000000000000000000000000000000000000000000000000000000000000000000000000000000000000000000000000000000000000000000000000000000000000000000000000000000000000000000000000000000000000000000000000000000000000000000000000000000000000000000000000000000000000000000000000000000000000000000000000000000000000000000000000000000000000000000000000000000000000000000000000000000000000000000000000000000000000000000000000000000000000000000000000000000000000000000000000000000000000000000000000000000000000000000000000000000000000000000000000000000000000000000000000000000000000000000000000000000000000000000000000000000000000000000000000000000000000000000000000000000000000000000000000000000000000000000000000000000000000000000000000000000000000000000000000000000000000000000000000000000000000000000000000000000000000000000000000000000000000000000000000000000000000000000000000000000000000000000000000000000000000000000000000000000000000000000000000000000",
        "nonce": "0x22",
        "chainId": "0x6f"
      },
      "additionalContracts": [],
      "isFixedGasLimit": false
    },
    {
      "hash": "0x45b14dbbbe8d1e00e14e30ea6da4a9a9a44c19141c3b1562cf19f7e8314f5ff9",
      "transactionType": "CALL",
      "contractName": null,
      "contractAddress": "0x4d4adec97e3e11693f65dedc2d1e6bec784eb2f1",
      "function": "mint(address,uint256)",
      "arguments": [
        "0xD289D1387ae1033A703842D69501D5bEc5A6f04e",
        "2000000"
      ],
      "transaction": {
        "from": "0xd289d1387ae1033a703842d69501d5bec5a6f04e",
        "to": "0x4d4adec97e3e11693f65dedc2d1e6bec784eb2f1",
        "value": "0x0",
        "input": "0x40c10f19000000000000000000000000d289d1387ae1033a703842d69501d5bec5a6f04e00000000000000000000000000000000000000000000000000000000001e8480",
        "nonce": "0x23",
        "chainId": "0x6f"
      },
      "additionalContracts": [],
      "isFixedGasLimit": false
    },
    {
      "hash": "0x63c0f0c60a979577ffd174ff1f9f4b2a65204330c0cd776dd290ae73505a840f",
      "transactionType": "CALL",
      "contractName": null,
      "contractAddress": "0x4d4adec97e3e11693f65dedc2d1e6bec784eb2f1",
      "function": "approve(address,uint256)",
      "arguments": [
        "0x048255dfEF2eBFA7307058Ae475a3e2F5ee0df46",
        "115792089237316195423570985008687907853269984665640564039457584007913129639935"
      ],
      "transaction": {
        "from": "0xd289d1387ae1033a703842d69501d5bec5a6f04e",
        "to": "0x4d4adec97e3e11693f65dedc2d1e6bec784eb2f1",
        "value": "0x0",
        "input": "0x095ea7b3000000000000000000000000048255dfef2ebfa7307058ae475a3e2f5ee0df46ffffffffffffffffffffffffffffffffffffffffffffffffffffffffffffffff",
        "nonce": "0x24",
        "chainId": "0x6f"
      },
      "additionalContracts": [],
      "isFixedGasLimit": false
    },
    {
      "hash": "0x3bf46a58d2888087584c2928cefcfce6d8e02d58f84198bc0ca7f2f86ea91d0c",
      "transactionType": "CALL",
      "contractName": null,
      "contractAddress": "0x048255dfef2ebfa7307058ae475a3e2f5ee0df46",
      "function": "createIntent((uint8,bytes,address,address,uint256),uint256)",
      "arguments": [
        "(1, 0x000000000000000000000000558b8fe3b86724d9d9433bf8ec2b1a1b223f9d25000000000000000000000000000000000000000000000000000000000012d687, 0xD289D1387ae1033A703842D69501D5bEc5A6f04e, 0x4D4aDEc97e3e11693F65dEDC2D1e6Bec784eB2F1, 2000000)",
        "1768322533"
      ],
      "transaction": {
        "from": "0xd289d1387ae1033a703842d69501d5bec5a6f04e",
        "to": "0x048255dfef2ebfa7307058ae475a3e2f5ee0df46",
        "value": "0x0",
        "input": "0x549f7505000000000000000000000000000000000000000000000000000000000000004000000000000000000000000000000000000000000000000000000000696675e5000000000000000000000000000000000000000000000000000000000000000100000000000000000000000000000000000000000000000000000000000000a0000000000000000000000000d289d1387ae1033a703842d69501d5bec5a6f04e0000000000000000000000004d4adec97e3e11693f65dedc2d1e6bec784eb2f100000000000000000000000000000000000000000000000000000000001e84800000000000000000000000000000000000000000000000000000000000000040000000000000000000000000558b8fe3b86724d9d9433bf8ec2b1a1b223f9d25000000000000000000000000000000000000000000000000000000000012d687",
        "nonce": "0x25",
        "chainId": "0x6f"
      },
      "additionalContracts": [],
      "isFixedGasLimit": false
    },
    {
      "hash": "0x8eeeae544a79cb5a55977e241c9bd38cb18bedcf8158889ea1cc6283aceec8b3",
      "transactionType": "CALL",
      "contractName": null,
      "contractAddress": "0x4d4adec97e3e11693f65dedc2d1e6bec784eb2f1",
      "function": "mint(address,uint256)",
      "arguments": [
        "0xD289D1387ae1033A703842D69501D5bEc5A6f04e",
        "1000000"
      ],
      "transaction": {
        "from": "0xd289d1387ae1033a703842d69501d5bec5a6f04e",
        "to": "0x4d4adec97e3e11693f65dedc2d1e6bec784eb2f1",
        "value": "0x0",
        "input": "0x40c10f19000000000000000000000000d289d1387ae1033a703842d69501d5bec5a6f04e00000000000000000000000000000000000000000000000000000000000f4240",
        "nonce": "0x26",
        "chainId": "0x6f"
      },
      "additionalContracts": [],
      "isFixedGasLimit": false
    },
    {
      "hash": "0x87ccc77118d5e8c30a5d79bef72571ad0d64537c8e2e377ff52106655b51e205",
      "transactionType": "CALL",
      "contractName": null,
      "contractAddress": "0x4d4adec97e3e11693f65dedc2d1e6bec784eb2f1",
      "function": "approve(address,uint256)",
      "arguments": [
        "0x048255dfEF2eBFA7307058Ae475a3e2F5ee0df46",
        "115792089237316195423570985008687907853269984665640564039457584007913129639935"
      ],
      "transaction": {
        "from": "0xd289d1387ae1033a703842d69501d5bec5a6f04e",
        "to": "0x4d4adec97e3e11693f65dedc2d1e6bec784eb2f1",
        "value": "0x0",
        "input": "0x095ea7b3000000000000000000000000048255dfef2ebfa7307058ae475a3e2f5ee0df46ffffffffffffffffffffffffffffffffffffffffffffffffffffffffffffffff",
        "nonce": "0x27",
        "chainId": "0x6f"
      },
      "additionalContracts": [],
      "isFixedGasLimit": false
    },
    {
      "hash": "0x765827485dd537d36b0064ed92af5ec7eea609c91c8a284c66fccf309e909273",
      "transactionType": "CALL",
      "contractName": null,
      "contractAddress": "0x048255dfef2ebfa7307058ae475a3e2f5ee0df46",
      "function": "claimIntent(bytes32)",
      "arguments": [
        "0x9c5668eca5a4c40788145e30ed18cf7fd39e52233dfaffbabbdea366803bf0a0"
      ],
      "transaction": {
        "from": "0xd289d1387ae1033a703842d69501d5bec5a6f04e",
        "to": "0x048255dfef2ebfa7307058ae475a3e2f5ee0df46",
        "value": "0x0",
        "input": "0x40e624cb9c5668eca5a4c40788145e30ed18cf7fd39e52233dfaffbabbdea366803bf0a0",
        "nonce": "0x28",
        "chainId": "0x6f"
      },
      "additionalContracts": [],
      "isFixedGasLimit": false
    },
    {
      "hash": "0x9b10ac3fbd02f7448c38f9766f4fc1b76725518bde0024f5692cbdba944e83c8",
      "transactionType": "CALL",
      "contractName": null,
      "contractAddress": "0x8c16d2f19a034b7281254f5656c2d1461c6ceb9a",
      "function": "setTx((bytes32,uint256,uint32,bytes21,bytes21,bytes))",
      "arguments": [
        "(0x0000000000000000000000000000000000000000000000000000000000000000, 0, 0, 0x000000000000000000000000000000000000000000, 0x41f61c257cc0c129959a9704a59193e15c91853749, 0xa9059cbb000000000000000000000000558b8fe3b86724d9d9433bf8ec2b1a1b223f9d25000000000000000000000000000000000000000000000000000000000012d687)"
      ],
      "transaction": {
        "from": "0xd289d1387ae1033a703842d69501d5bec5a6f04e",
        "to": "0x8c16d2f19a034b7281254f5656c2d1461c6ceb9a",
        "value": "0x0",
        "input": "0x3aec07de0000000000000000000000000000000000000000000000000000000000000020000000000000000000000000000000000000000000000000000000000000000000000000000000000000000000000000000000000000000000000000000000000000000000000000000000000000000000000000000000000000000000000000000000000000000000000000000000000000000000000000000000000000000041f61c257cc0c129959a9704a59193e15c91853749000000000000000000000000000000000000000000000000000000000000000000000000000000000000c00000000000000000000000000000000000000000000000000000000000000044a9059cbb000000000000000000000000558b8fe3b86724d9d9433bf8ec2b1a1b223f9d25000000000000000000000000000000000000000000000000000000000012d68700000000000000000000000000000000000000000000000000000000",
        "nonce": "0x29",
        "chainId": "0x6f"
      },
      "additionalContracts": [],
      "isFixedGasLimit": false
    },
    {
      "hash": "0xfe2cf25c947be2856f544b9cf468d62266dfdcaf9760a18dc70f21bdbe4270b1",
      "transactionType": "CALL",
      "contractName": null,
      "contractAddress": "0x048255dfef2ebfa7307058ae475a3e2f5ee0df46",
      "function": "proveIntentFill(bytes32,bytes[20],bytes,bytes32[],uint256)",
      "arguments": [
        "0x9c5668eca5a4c40788145e30ed18cf7fd39e52233dfaffbabbdea366803bf0a0",
        "[0x, 0x, 0x, 0x, 0x, 0x, 0x, 0x, 0x, 0x, 0x, 0x, 0x, 0x, 0x, 0x, 0x, 0x, 0x, 0x]",
        "0x",
        "[]",
        "0"
      ],
      "transaction": {
        "from": "0xd289d1387ae1033a703842d69501d5bec5a6f04e",
        "to": "0x048255dfef2ebfa7307058ae475a3e2f5ee0df46",
        "value": "0x0",
        "input": "0x5c23cc029c5668eca5a4c40788145e30ed18cf7fd39e52233dfaffbabbdea366803bf0a000000000000000000000000000000000000000000000000000000000000000a000000000000000000000000000000000000000000000000000000000000005a000000000000000000000000000000000000000000000000000000000000005c00000000000000000000000000000000000000000000000000000000000000000000000000000000000000000000000000000000000000000000000000000028000000000000000000000000000000000000000000000000000000000000002a000000000000000000000000000000000000000000000000000000000000002c000000000000000000000000000000000000000000000000000000000000002e00000000000000000000000000000000000000000000000000000000000000300000000000000000000000000000000000000000000000000000000000000032000000000000000000000000000000000000000000000000000000000000003400000000000000000000000000000000000000000000000000000000000000360000000000000000000000000000000000000000000000000000000000000038000000000000000000000000000000000000000000000000000000000000003a000000000000000000000000000000000000000000000000000000000000003c000000000000000000000000000000000000000000000000000000000000003e00000000000000000000000000000000000000000000000000000000000000400000000000000000000000000000000000000000000000000000000000000042000000000000000000000000000000000000000000000000000000000000004400000000000000000000000000000000000000000000000000000000000000460000000000000000000000000000000000000000000000000000000000000048000000000000000000000000000000000000000000000000000000000000004a000000000000000000000000000000000000000000000000000000000000004c000000000000000000000000000000000000000000000000000000000000004e00000000000000000000000000000000000000000000000000000000000000000000000000000000000000000000000000000000000000000000000000000000000000000000000000000000000000000000000000000000000000000000000000000000000000000000000000000000000000000000000000000000000000000000000000000000000000000000000000000000000000000000000000000000000000000000000000000000000000000000000000000000000000000000000000000000000000000000000000000000000000000000000000000000000000000000000000000000000000000000000000000000000000000000000000000000000000000000000000000000000000000000000000000000000000000000000000000000000000000000000000000000000000000000000000000000000000000000000000000000000000000000000000000000000000000000000000000000000000000000000000000000000000000000000000000000000000000000000000000000000000000000000000000000000000000000000000000000000000000000000000000000000000000000000000000000000000000000000000000000000000000000000000000000000000000000000000000000000000000000000000000000000000000000000000000000000000000000000000000000000000000000000000000000000000000000000000000000000000000000000000000000000000000000000000000000000000000000000000000000000000000000000000000000000000000000000000000000000000000000000000000000000000000000000000000000000000000000000000000000000000000000000000000000000000000000000000000000000000000000000000000000000000000000000000000000000000000000000000000000000000000000000000000000000000000",
        "nonce": "0x2a",
        "chainId": "0x6f"
      },
      "additionalContracts": [],
      "isFixedGasLimit": false
    },
    {
      "hash": "0xd4a3704fdadaf1ab9481eb5a8029329668b8b0b70b4a0ad0acbe10760127fa8f",
      "transactionType": "CALL",
      "contractName": null,
      "contractAddress": "0xf86c23c1e883ee3b820fb9be75ff91c9a49eae75",
      "function": "mint(address,uint256)",
      "arguments": [
        "0xD289D1387ae1033A703842D69501D5bEc5A6f04e",
        "1000000"
      ],
      "transaction": {
        "from": "0xd289d1387ae1033a703842d69501d5bec5a6f04e",
        "to": "0xf86c23c1e883ee3b820fb9be75ff91c9a49eae75",
        "value": "0x0",
        "input": "0x40c10f19000000000000000000000000d289d1387ae1033a703842d69501d5bec5a6f04e00000000000000000000000000000000000000000000000000000000000f4240",
        "nonce": "0x2b",
        "chainId": "0x6f"
      },
      "additionalContracts": [],
      "isFixedGasLimit": false
    },
    {
      "hash": "0xdda00ba795aaf750a19ff23dd6a7124f10b25d69deb1562e29881bcfeb1a3c35",
      "transactionType": "CALL",
      "contractName": null,
      "contractAddress": "0xf86c23c1e883ee3b820fb9be75ff91c9a49eae75",
      "function": "approve(address,uint256)",
      "arguments": [
        "0x048255dfEF2eBFA7307058Ae475a3e2F5ee0df46",
        "115792089237316195423570985008687907853269984665640564039457584007913129639935"
      ],
      "transaction": {
        "from": "0xd289d1387ae1033a703842d69501d5bec5a6f04e",
        "to": "0xf86c23c1e883ee3b820fb9be75ff91c9a49eae75",
        "value": "0x0",
        "input": "0x095ea7b3000000000000000000000000048255dfef2ebfa7307058ae475a3e2f5ee0df46ffffffffffffffffffffffffffffffffffffffffffffffffffffffffffffffff",
        "nonce": "0x2c",
        "chainId": "0x6f"
      },
      "additionalContracts": [],
      "isFixedGasLimit": false
    },
    {
      "hash": "0x1c5e38668daca9feb261eafc6fcc7fd6dd2553c61a428b87c85aad222f2f1b6e",
      "transactionType": "CALL",
      "contractName": null,
      "contractAddress": "0x048255dfef2ebfa7307058ae475a3e2f5ee0df46",
      "function": "createIntent((uint8,bytes,address,address,uint256),uint256)",
      "arguments": [
        "(0, 0x00000000000000000000000000000000000000000000000000000000000000200000000000000000000000005457e258a09ebfb4a2501a9e3d70d37f54f923f300000000000000000000000000000000000000000000000000000000000000400000000000000000000000000000000000000000000000000000000000000002beef000000000000000000000000000000000000000000000000000000000000, 0xD289D1387ae1033A703842D69501D5bEc5A6f04e, 0xF86C23C1E883ee3B820FB9BE75FF91C9A49EaE75, 1000000)",
        "1768322533"
      ],
      "transaction": {
        "from": "0xd289d1387ae1033a703842d69501d5bec5a6f04e",
        "to": "0x048255dfef2ebfa7307058ae475a3e2f5ee0df46",
        "value": "0x0",
        "input": "0x549f7505000000000000000000000000000000000000000000000000000000000000004000000000000000000000000000000000000000000000000000000000696675e5000000000000000000000000000000000000000000000000000000000000000000000000000000000000000000000000000000000000000000000000000000a0000000000000000000000000d289d1387ae1033a703842d69501d5bec5a6f04e000000000000000000000000f86c23c1e883ee3b820fb9be75ff91c9a49eae7500000000000000000000000000000000000000000000000000000000000f424000000000000000000000000000000000000000000000000000000000000000a000000000000000000000000000000000000000000000000000000000000000200000000000000000000000005457e258a09ebfb4a2501a9e3d70d37f54f923f300000000000000000000000000000000000000000000000000000000000000400000000000000000000000000000000000000000000000000000000000000002beef000000000000000000000000000000000000000000000000000000000000",
        "nonce": "0x2d",
        "chainId": "0x6f"
      },
      "additionalContracts": [],
      "isFixedGasLimit": false
    },
    {
      "hash": "0x6d35402e2703be82d2133fccdade5237b8753dc9d95da3721f36299c0bd53a04",
      "transactionType": "CALL",
      "contractName": null,
      "contractAddress": "0x4d4adec97e3e11693f65dedc2d1e6bec784eb2f1",
      "function": "mint(address,uint256)",
      "arguments": [
        "0xD289D1387ae1033A703842D69501D5bEc5A6f04e",
        "1000000"
      ],
      "transaction": {
        "from": "0xd289d1387ae1033a703842d69501d5bec5a6f04e",
        "to": "0x4d4adec97e3e11693f65dedc2d1e6bec784eb2f1",
        "value": "0x0",
        "input": "0x40c10f19000000000000000000000000d289d1387ae1033a703842d69501d5bec5a6f04e00000000000000000000000000000000000000000000000000000000000f4240",
        "nonce": "0x2e",
        "chainId": "0x6f"
      },
      "additionalContracts": [],
      "isFixedGasLimit": false
    },
    {
      "hash": "0x410f3d33d402bfe278bec9600e518912f489e6cb28503b25cde17c33ec0ae2ef",
      "transactionType": "CALL",
      "contractName": null,
      "contractAddress": "0x4d4adec97e3e11693f65dedc2d1e6bec784eb2f1",
      "function": "approve(address,uint256)",
      "arguments": [
        "0x048255dfEF2eBFA7307058Ae475a3e2F5ee0df46",
        "115792089237316195423570985008687907853269984665640564039457584007913129639935"
      ],
      "transaction": {
        "from": "0xd289d1387ae1033a703842d69501d5bec5a6f04e",
        "to": "0x4d4adec97e3e11693f65dedc2d1e6bec784eb2f1",
        "value": "0x0",
        "input": "0x095ea7b3000000000000000000000000048255dfef2ebfa7307058ae475a3e2f5ee0df46ffffffffffffffffffffffffffffffffffffffffffffffffffffffffffffffff",
        "nonce": "0x2f",
        "chainId": "0x6f"
      },
      "additionalContracts": [],
      "isFixedGasLimit": false
    },
    {
      "hash": "0xf7d5132fc61d7c070ea5db5a9782faebee4b9a141685bd448c5ab4723b9bae05",
      "transactionType": "CALL",
      "contractName": null,
      "contractAddress": "0x048255dfef2ebfa7307058ae475a3e2f5ee0df46",
      "function": "claimVirtualReceiverIntent(address,address,bytes32,address,uint256)",
      "arguments": [
        "0x8828fD7431d5bb1962d7E067C103b2324FA6BBEC",
        "0x97629064A9C06865C5B3832F94bb64a8E47bcAd7",
        "0x282866f5067804dadd2e500a0a3d8b5e5d2e5cde385e9ec6a887315613d6f448",
        "0x4D4aDEc97e3e11693F65dEDC2D1e6Bec784eB2F1",
        "1000000"
      ],
      "transaction": {
        "from": "0xd289d1387ae1033a703842d69501d5bec5a6f04e",
        "to": "0x048255dfef2ebfa7307058ae475a3e2f5ee0df46",
        "value": "0x0",
        "input": "0xaf2440050000000000000000000000008828fd7431d5bb1962d7e067c103b2324fa6bbec00000000000000000000000097629064a9c06865c5b3832f94bb64a8e47bcad7282866f5067804dadd2e500a0a3d8b5e5d2e5cde385e9ec6a887315613d6f4480000000000000000000000004d4adec97e3e11693f65dedc2d1e6bec784eb2f100000000000000000000000000000000000000000000000000000000000f4240",
        "nonce": "0x30",
        "chainId": "0x6f"
      },
      "additionalContracts": [],
      "isFixedGasLimit": false
    },
    {
      "hash": "0x7e8b51ddfb9b1468097cd2205ecbbd894da63a9224b97e3aecc3c85187a097b5",
      "transactionType": "CALL",
      "contractName": null,
      "contractAddress": "0x4d4adec97e3e11693f65dedc2d1e6bec784eb2f1",
      "function": "mint(address,uint256)",
      "arguments": [
        "0x4eBbaa5bb917c960140992a66a036aFAdEB623Cd",
        "10000111"
      ],
      "transaction": {
        "from": "0xd289d1387ae1033a703842d69501d5bec5a6f04e",
        "to": "0x4d4adec97e3e11693f65dedc2d1e6bec784eb2f1",
        "value": "0x0",
        "input": "0x40c10f190000000000000000000000004ebbaa5bb917c960140992a66a036afadeb623cd00000000000000000000000000000000000000000000000000000000009896ef",
        "nonce": "0x31",
        "chainId": "0x6f"
      },
      "additionalContracts": [],
      "isFixedGasLimit": false
    },
    {
      "hash": "0xe1f72a71fd02b5a9475b037f7a09ca0b360bdcf63dc30790a6107faa1b0e9ecf",
      "transactionType": "CALL",
      "contractName": null,
      "contractAddress": "0x8828fd7431d5bb1962d7e067c103b2324fa6bbec",
      "function": "pullFromReceiver((uint256,address,bool,bytes32,bytes32,uint256,address,address,(address,uint256,bytes)[],bytes))",
      "arguments": [
        "(222, 0x048255dfEF2eBFA7307058Ae475a3e2F5ee0df46, true, 0x805137159b1f1225efc7ae36f6b216b76c0e9bed085c4220b2f702fde8defd04, 0x38cb7bc9535f8b89744a14dd2acfe7dcc993eb5f668dfbcb95bdf21a839e2ec0, 10000111, 0x4D4aDEc97e3e11693F65dEDC2D1e6Bec784eB2F1, 0x4D4aDEc97e3e11693F65dEDC2D1e6Bec784eB2F1, [], 0x)"
      ],
      "transaction": {
        "from": "0xd289d1387ae1033a703842d69501d5bec5a6f04e",
        "to": "0x8828fd7431d5bb1962d7e067c103b2324fa6bbec",
        "value": "0x0",
        "input": "0x1ad1087b000000000000000000000000000000000000000000000000000000000000002000000000000000000000000000000000000000000000000000000000000000de000000000000000000000000048255dfef2ebfa7307058ae475a3e2f5ee0df460000000000000000000000000000000000000000000000000000000000000001805137159b1f1225efc7ae36f6b216b76c0e9bed085c4220b2f702fde8defd0438cb7bc9535f8b89744a14dd2acfe7dcc993eb5f668dfbcb95bdf21a839e2ec000000000000000000000000000000000000000000000000000000000009896ef0000000000000000000000004d4adec97e3e11693f65dedc2d1e6bec784eb2f10000000000000000000000004d4adec97e3e11693f65dedc2d1e6bec784eb2f10000000000000000000000000000000000000000000000000000000000000140000000000000000000000000000000000000000000000000000000000000016000000000000000000000000000000000000000000000000000000000000000000000000000000000000000000000000000000000000000000000000000000000",
        "nonce": "0x32",
        "chainId": "0x6f"
      },
      "additionalContracts": [],
      "isFixedGasLimit": false
    }
  ],
  "receipts": [
    {
      "status": "0x1",
      "cumulativeGasUsed": "0x52451",
      "logs": [],
      "logsBloom": "0x00000000000000000000000000000000000000000000000000000000000000000000000000000000000000000000000000000000000000000000000000000000000000000000000000000000000000000000000000000000000000000000000000000000000000000000000000000000000000000000000000000000000000000000000000000000000000000000000000000000000000000000000000000000000000000000000000000000000000000000000000000000000000000000000000000000000000000000000000000000000000000000000000000000000000000000000000000000000000000000000000000000000000000000000000000000",
      "type": "0x0",
      "transactionHash": "0x9641ee03018a3142e7c0d37b05ae7446dba97b61b7bb28357dd48191191f94dc",
      "transactionIndex": "0x0",
      "blockHash": "0xfdebf254f02e316c6f48a47553f72690627f3b4acc7b021913fb4752a078a3ad",
      "blockNumber": "0xd",
      "gasUsed": "0x52451",
      "effectiveGasPrice": "0x3b9aca00",
      "blobGasPrice": "0x1",
      "from": "0xd289d1387ae1033a703842d69501d5bec5a6f04e",
      "to": null,
      "contractAddress": "0x0be19c78706c441de4178a2266a650e47160eda7"
    },
    {
      "status": "0x1",
      "cumulativeGasUsed": "0xc546",
      "logs": [
        {
          "address": "0x8828fd7431d5bb1962d7e067c103b2324fa6bbec",
          "topics": [
            "0x14c028d3d668eb3454bce44d123ceeeb9fb4e74bee073c41f4001e63f0613094",
            "0x0000000000000000000000000be19c78706c441de4178a2266a650e47160eda7",
            "0x0000000000000000000000000be19c78706c441de4178a2266a650e47160eda7"
          ],
          "data": "0x",
          "blockHash": "0xc549d69dc039293a573f5fbc03f7511df32b0f056d64861f7a6e1087780d979c",
          "blockNumber": "0xe",
          "blockTimestamp": "0x696675ab",
          "transactionHash": "0x5dff21b1310551aebb70c2ceb7eb2a860e457bb41c7ef6fa3224956ff919324a",
          "transactionIndex": "0x0",
          "logIndex": "0x0",
          "removed": false
        },
        {
          "address": "0x8828fd7431d5bb1962d7e067c103b2324fa6bbec",
          "topics": [
            "0x78160f0b1b2b32b52a0076d8f0f70888687ba702a4d993d55ac8d9327d57a127",
            "0x0000000000000000000000000000000000000000000000000000000000000004",
            "0xf44aa7391b92f263754f302d23d3a37602e5f335e30573fe5241feb4420c7656",
            "0x990bb2cb8a3a17f5fe96e221503b5860cd8b817024422b3a037f964c99420806"
          ],
          "data": "0x14c028d3d668eb3454bce44d123ceeeb9fb4e74bee073c41f4001e63f0613094000000000000000000000000000000000000000000000000000000000000004000000000000000000000000000000000000000000000000000000000000000400000000000000000000000000be19c78706c441de4178a2266a650e47160eda70000000000000000000000000be19c78706c441de4178a2266a650e47160eda7",
          "blockHash": "0xc549d69dc039293a573f5fbc03f7511df32b0f056d64861f7a6e1087780d979c",
          "blockNumber": "0xe",
          "blockTimestamp": "0x696675ab",
          "transactionHash": "0x5dff21b1310551aebb70c2ceb7eb2a860e457bb41c7ef6fa3224956ff919324a",
          "transactionIndex": "0x0",
          "logIndex": "0x1",
          "removed": false
        }
      ],
      "logsBloom": "0x00000000000000000000000000000000000000000000000000020000000000000000000000000000000000000000000000000000000000000000000000200000000080800200000000000000000000000200000000000000000000000000000008000020000880000000000400000008000000000200000000000000000000000000000000000000000000000000000000000000000000000000000000000000000000000000000000000000000000000000100000000000002000000000000000000000000000040000000000000010000000008000000000000000000004000400000000000000000000000000000000000000000000000000000000004000",
      "type": "0x0",
      "transactionHash": "0x5dff21b1310551aebb70c2ceb7eb2a860e457bb41c7ef6fa3224956ff919324a",
      "transactionIndex": "0x0",
      "blockHash": "0xc549d69dc039293a573f5fbc03f7511df32b0f056d64861f7a6e1087780d979c",
      "blockNumber": "0xe",
      "gasUsed": "0xc546",
      "effectiveGasPrice": "0x3b9aca00",
      "blobGasPrice": "0x1",
      "from": "0xd289d1387ae1033a703842d69501d5bec5a6f04e",
      "to": "0x8828fd7431d5bb1962d7e067c103b2324fa6bbec",
      "contractAddress": null
    },
    {
      "status": "0x1",
      "cumulativeGasUsed": "0x1f4cb",
      "logs": [],
      "logsBloom": "0x00000000000000000000000000000000000000000000000000000000000000000000000000000000000000000000000000000000000000000000000000000000000000000000000000000000000000000000000000000000000000000000000000000000000000000000000000000000000000000000000000000000000000000000000000000000000000000000000000000000000000000000000000000000000000000000000000000000000000000000000000000000000000000000000000000000000000000000000000000000000000000000000000000000000000000000000000000000000000000000000000000000000000000000000000000000",
      "type": "0x0",
      "transactionHash": "0x0683791d8c580fe05e947e5fc3f38a502d06668756665d3692d8f46476c347fa",
      "transactionIndex": "0x0",
      "blockHash": "0xb95a173b6d877dc1902f4dd7f3a14c7dc312612244c36f313b9a56c44fd33304",
      "blockNumber": "0xf",
      "gasUsed": "0x1f4cb",
      "effectiveGasPrice": "0x3b9aca00",
      "blobGasPrice": "0x1",
      "from": "0xd289d1387ae1033a703842d69501d5bec5a6f04e",
      "to": null,
      "contractAddress": "0x481e836be187303c64f269bc7fe2c52f7f7c6eef"
    },
    {
      "status": "0x1",
      "cumulativeGasUsed": "0xaa2b",
      "logs": [],
      "logsBloom": "0x00000000000000000000000000000000000000000000000000000000000000000000000000000000000000000000000000000000000000000000000000000000000000000000000000000000000000000000000000000000000000000000000000000000000000000000000000000000000000000000000000000000000000000000000000000000000000000000000000000000000000000000000000000000000000000000000000000000000000000000000000000000000000000000000000000000000000000000000000000000000000000000000000000000000000000000000000000000000000000000000000000000000000000000000000000000",
      "type": "0x0",
      "transactionHash": "0x5442cb8cd2818da051a292177af933a42052362d1c40030812b4acf29bd49b9e",
      "transactionIndex": "0x0",
      "blockHash": "0x59bb17e96dca6372538dff5ca53fcc9f47fafaa3604e21caeadbec3611a1e48a",
      "blockNumber": "0x10",
      "gasUsed": "0xaa2b",
      "effectiveGasPrice": "0x3b9aca00",
      "blobGasPrice": "0x1",
      "from": "0xd289d1387ae1033a703842d69501d5bec5a6f04e",
      "to": "0x481e836be187303c64f269bc7fe2c52f7f7c6eef",
      "contractAddress": null
    },
    {
      "status": "0x1",
      "cumulativeGasUsed": "0xb23d",
      "logs": [
        {
          "address": "0x8828fd7431d5bb1962d7e067c103b2324fa6bbec",
          "topics": [
            "0x2e3d7d02ba3c4bd8b1f8995cd3a23ef0193922ebc4ee23249ead4d0ca2e34c68",
            "0x0000000000000000000000004d4adec97e3e11693f65dedc2d1e6bec784eb2f1",
            "0x000000000000000000000000481e836be187303c64f269bc7fe2c52f7f7c6eef"
          ],
          "data": "0x",
          "blockHash": "0x637d5b78ce6f95f45158e93abc8fe2d90bf7ca467bb58da481608fe1ee16842d",
          "blockNumber": "0x11",
          "blockTimestamp": "0x696675ae",
          "transactionHash": "0x8070a422200e1dbd8d5a1a9099941348b15ef7a124b2908c74084764599671c8",
          "transactionIndex": "0x0",
          "logIndex": "0x0",
          "removed": false
        },
        {
          "address": "0x8828fd7431d5bb1962d7e067c103b2324fa6bbec",
          "topics": [
            "0x78160f0b1b2b32b52a0076d8f0f70888687ba702a4d993d55ac8d9327d57a127",
            "0x0000000000000000000000000000000000000000000000000000000000000005",
            "0x990bb2cb8a3a17f5fe96e221503b5860cd8b817024422b3a037f964c99420806",
            "0xa9d233236720f1bf5a80f2c387b9cf582b0ef0ea91885ff37a04529ff8e27fa3"
          ],
          "data": "0x2e3d7d02ba3c4bd8b1f8995cd3a23ef0193922ebc4ee23249ead4d0ca2e34c68000000000000000000000000000000000000000000000000000000000000004000000000000000000000000000000000000000000000000000000000000000400000000000000000000000004d4adec97e3e11693f65dedc2d1e6bec784eb2f1000000000000000000000000481e836be187303c64f269bc7fe2c52f7f7c6eef",
          "blockHash": "0x637d5b78ce6f95f45158e93abc8fe2d90bf7ca467bb58da481608fe1ee16842d",
          "blockNumber": "0x11",
          "blockTimestamp": "0x696675ae",
          "transactionHash": "0x8070a422200e1dbd8d5a1a9099941348b15ef7a124b2908c74084764599671c8",
          "transactionIndex": "0x0",
          "logIndex": "0x1",
          "removed": false
        }
      ],
      "logsBloom": "0x00000000000000000000000000200000000000000000000000020000000000000000000000000000000000000000000000000000000000000400000000200000000010000200000000000000000000000008000020000000000000000000000000000020000880000000000000000008000000000000000082000000800000000000000000000080000000000000001000000800000000000000000000000000000000000000000000000000000000000000100000000000000000000000000000000000000008000000000000000000000000000000000000000000000001000000000000000000000000000080000000000000000400000000000000004000",
      "type": "0x0",
      "transactionHash": "0x8070a422200e1dbd8d5a1a9099941348b15ef7a124b2908c74084764599671c8",
      "transactionIndex": "0x0",
      "blockHash": "0x637d5b78ce6f95f45158e93abc8fe2d90bf7ca467bb58da481608fe1ee16842d",
      "blockNumber": "0x11",
      "gasUsed": "0xb23d",
      "effectiveGasPrice": "0x3b9aca00",
      "blobGasPrice": "0x1",
      "from": "0xd289d1387ae1033a703842d69501d5bec5a6f04e",
      "to": "0x8828fd7431d5bb1962d7e067c103b2324fa6bbec",
      "contractAddress": null
    },
    {
      "status": "0x1",
      "cumulativeGasUsed": "0x147a0",
      "logs": [
        {
          "address": "0x048255dfef2ebfa7307058ae475a3e2f5ee0df46",
          "topics": [
            "0x9d4c3779a823aa84b20dd2e8551e6ed95addbc562f3bc49b1e688ab785b05d9d"
          ],
          "data": "0x0000000000000000000000000000000000000000000000000000000000002710000000000000000000000000000000000000000000000000000000000000007b",
          "blockHash": "0x8c85243fcca30251125158fde2033409be15cf9e501fb6f137aa36444b652c58",
          "blockNumber": "0x12",
          "blockTimestamp": "0x696675af",
          "transactionHash": "0xd0fa060e851badf79c4d2e11fd36f93fbec136506b91f7bdf8306f30af0f8960",
          "transactionIndex": "0x0",
          "logIndex": "0x0",
          "removed": false
        },
        {
          "address": "0x048255dfef2ebfa7307058ae475a3e2f5ee0df46",
          "topics": [
            "0x78160f0b1b2b32b52a0076d8f0f70888687ba702a4d993d55ac8d9327d57a127",
            "0x0000000000000000000000000000000000000000000000000000000000000003",
            "0xd5f74e76bc10810da1c1a307eb6a36f6d085dc05f0bd56cd589b9203bcba9cb6",
            "0x87052e0d018f9a102c7197e1a281473f4776302150ed5e11d427630d32d493ce"
          ],
          "data": "0x9d4c3779a823aa84b20dd2e8551e6ed95addbc562f3bc49b1e688ab785b05d9d000000000000000000000000000000000000000000000000000000000000004000000000000000000000000000000000000000000000000000000000000000400000000000000000000000000000000000000000000000000000000000002710000000000000000000000000000000000000000000000000000000000000007b",
          "blockHash": "0x8c85243fcca30251125158fde2033409be15cf9e501fb6f137aa36444b652c58",
          "blockNumber": "0x12",
          "blockTimestamp": "0x696675af",
          "transactionHash": "0xd0fa060e851badf79c4d2e11fd36f93fbec136506b91f7bdf8306f30af0f8960",
          "transactionIndex": "0x0",
          "logIndex": "0x1",
          "removed": false
        }
      ],
      "logsBloom": "0x00002000000000800000000000000000000000000000000000000000000800000000000000000000000000000000000000000002020000000000000000200000000000000000000000000000000000000000000000010000000000000000000000000020000800004000000000000000000000000000000000000000000000000000000000000000000000000000000000000000000000000000000000000000000000000000000000000000000080000000000200800000000000000000400000000000000000000800000000000000000000001200000000000000000000000000000000000000000000000000000000000000000000000000000000004000",
      "type": "0x0",
      "transactionHash": "0xd0fa060e851badf79c4d2e11fd36f93fbec136506b91f7bdf8306f30af0f8960",
      "transactionIndex": "0x0",
      "blockHash": "0x8c85243fcca30251125158fde2033409be15cf9e501fb6f137aa36444b652c58",
      "blockNumber": "0x12",
      "gasUsed": "0x147a0",
      "effectiveGasPrice": "0x3b9aca00",
      "blobGasPrice": "0x1",
      "from": "0xd289d1387ae1033a703842d69501d5bec5a6f04e",
      "to": "0x048255dfef2ebfa7307058ae475a3e2f5ee0df46",
      "contractAddress": null
    },
    {
      "status": "0x1",
      "cumulativeGasUsed": "0x1f4cb",
      "logs": [],
      "logsBloom": "0x00000000000000000000000000000000000000000000000000000000000000000000000000000000000000000000000000000000000000000000000000000000000000000000000000000000000000000000000000000000000000000000000000000000000000000000000000000000000000000000000000000000000000000000000000000000000000000000000000000000000000000000000000000000000000000000000000000000000000000000000000000000000000000000000000000000000000000000000000000000000000000000000000000000000000000000000000000000000000000000000000000000000000000000000000000000",
      "type": "0x0",
      "transactionHash": "0xfef75832b829aac2e6452ba53f4a9ba013d943049a463a6b53d6e34ac7b415e4",
      "transactionIndex": "0x0",
      "blockHash": "0x013fa1764ecd9755d88bc944dd786fcf5d15fed20ae9d36423d216d2e2aa35db",
      "blockNumber": "0x13",
      "gasUsed": "0x1f4cb",
      "effectiveGasPrice": "0x3b9aca00",
      "blobGasPrice": "0x1",
      "from": "0xd289d1387ae1033a703842d69501d5bec5a6f04e",
      "to": null,
      "contractAddress": "0x6b0f32ae157cf4f7d9b402c4e243e9088207dd87"
    },
    {
      "status": "0x1",
      "cumulativeGasUsed": "0xaa2b",
      "logs": [],
      "logsBloom": "0x00000000000000000000000000000000000000000000000000000000000000000000000000000000000000000000000000000000000000000000000000000000000000000000000000000000000000000000000000000000000000000000000000000000000000000000000000000000000000000000000000000000000000000000000000000000000000000000000000000000000000000000000000000000000000000000000000000000000000000000000000000000000000000000000000000000000000000000000000000000000000000000000000000000000000000000000000000000000000000000000000000000000000000000000000000000",
      "type": "0x0",
      "transactionHash": "0x52a5b66a31ca101099f01ce93ad3ffff416805838b30081bcfa839b252bed4c0",
      "transactionIndex": "0x0",
      "blockHash": "0x041bee373b325a531ca0d12e320ab495b019c056fd5869d7e8a44495f1a9374b",
      "blockNumber": "0x14",
      "gasUsed": "0xaa2b",
      "effectiveGasPrice": "0x3b9aca00",
      "blobGasPrice": "0x1",
      "from": "0xd289d1387ae1033a703842d69501d5bec5a6f04e",
      "to": "0x6b0f32ae157cf4f7d9b402c4e243e9088207dd87",
      "contractAddress": null
    },
    {
      "status": "0x1",
      "cumulativeGasUsed": "0xb23d",
      "logs": [
        {
          "address": "0x8828fd7431d5bb1962d7e067c103b2324fa6bbec",
          "topics": [
            "0x2e3d7d02ba3c4bd8b1f8995cd3a23ef0193922ebc4ee23249ead4d0ca2e34c68",
            "0x0000000000000000000000004d4adec97e3e11693f65dedc2d1e6bec784eb2f1",
            "0x0000000000000000000000006b0f32ae157cf4f7d9b402c4e243e9088207dd87"
          ],
          "data": "0x",
          "blockHash": "0xd7293b17cbc38fdadcc4fab4f4f879ab9c61dec2ad0a68503e4d754e789fc755",
          "blockNumber": "0x15",
          "blockTimestamp": "0x696675b2",
          "transactionHash": "0xd22176e8ccd207a296ae7f951f4d5aca52ce6df4d466a5cf64fc80978b22b71e",
          "transactionIndex": "0x0",
          "logIndex": "0x0",
          "removed": false
        },
        {
          "address": "0x8828fd7431d5bb1962d7e067c103b2324fa6bbec",
          "topics": [
            "0x78160f0b1b2b32b52a0076d8f0f70888687ba702a4d993d55ac8d9327d57a127",
            "0x0000000000000000000000000000000000000000000000000000000000000006",
            "0xa9d233236720f1bf5a80f2c387b9cf582b0ef0ea91885ff37a04529ff8e27fa3",
            "0x5a39ce3b5338748d6e9d43febb234355e3c542085e2451914b6d95d8dcda8d41"
          ],
          "data": "0x2e3d7d02ba3c4bd8b1f8995cd3a23ef0193922ebc4ee23249ead4d0ca2e34c68000000000000000000000000000000000000000000000000000000000000004000000000000000000000000000000000000000000000000000000000000000400000000000000000000000004d4adec97e3e11693f65dedc2d1e6bec784eb2f10000000000000000000000006b0f32ae157cf4f7d9b402c4e243e9088207dd87",
          "blockHash": "0xd7293b17cbc38fdadcc4fab4f4f879ab9c61dec2ad0a68503e4d754e789fc755",
          "blockNumber": "0x15",
          "blockTimestamp": "0x696675b2",
          "transactionHash": "0xd22176e8ccd207a296ae7f951f4d5aca52ce6df4d466a5cf64fc80978b22b71e",
          "transactionIndex": "0x0",
          "logIndex": "0x1",
          "removed": false
        }
      ],
      "logsBloom": "0x00000000000000000000000000200000000000000000000000000000000000000000000000000000400000000000000000000001000400000000000000200000000000000200000000000000000004000000000000000000000000000000000000000020000800000000000000000008000000000000000082000000800000000000000400000080000000000000000000000000000000000000000000000000000001000000000000000000000000000000000000000000000000080080000000000000000008000000000000000000000000000000000000000000000001000000000000000000000000000080000000000000000400000000020000004000",
      "type": "0x0",
      "transactionHash": "0xd22176e8ccd207a296ae7f951f4d5aca52ce6df4d466a5cf64fc80978b22b71e",
      "transactionIndex": "0x0",
      "blockHash": "0xd7293b17cbc38fdadcc4fab4f4f879ab9c61dec2ad0a68503e4d754e789fc755",
      "blockNumber": "0x15",
      "gasUsed": "0xb23d",
      "effectiveGasPrice": "0x3b9aca00",
      "blobGasPrice": "0x1",
      "from": "0xd289d1387ae1033a703842d69501d5bec5a6f04e",
      "to": "0x8828fd7431d5bb1962d7e067c103b2324fa6bbec",
      "contractAddress": null
    },
    {
      "status": "0x1",
      "cumulativeGasUsed": "0x50fb6",
      "logs": [],
      "logsBloom": "0x00000000000000000000000000000000000000000000000000000000000000000000000000000000000000000000000000000000000000000000000000000000000000000000000000000000000000000000000000000000000000000000000000000000000000000000000000000000000000000000000000000000000000000000000000000000000000000000000000000000000000000000000000000000000000000000000000000000000000000000000000000000000000000000000000000000000000000000000000000000000000000000000000000000000000000000000000000000000000000000000000000000000000000000000000000000",
      "type": "0x0",
      "transactionHash": "0x0cbf907f623c63537dbd7aa5982b4f17aeadb123eb8f16e7137f38ff384e6ea7",
      "transactionIndex": "0x0",
      "blockHash": "0xa2d19f174cfc96a9a125ce0292044852d8c5b99f2895e856fb982a0299ad9010",
      "blockNumber": "0x16",
      "gasUsed": "0x50fb6",
      "effectiveGasPrice": "0x3b9aca00",
      "blobGasPrice": "0x1",
      "from": "0xd289d1387ae1033a703842d69501d5bec5a6f04e",
      "to": null,
      "contractAddress": "0xc5ea444a0f556f5b227ec7447294d91086bb692c"
    },
    {
      "status": "0x1",
      "cumulativeGasUsed": "0xc546",
      "logs": [
        {
          "address": "0x8828fd7431d5bb1962d7e067c103b2324fa6bbec",
          "topics": [
            "0x14c028d3d668eb3454bce44d123ceeeb9fb4e74bee073c41f4001e63f0613094",
            "0x000000000000000000000000c5ea444a0f556f5b227ec7447294d91086bb692c",
            "0x000000000000000000000000c5ea444a0f556f5b227ec7447294d91086bb692c"
          ],
          "data": "0x",
          "blockHash": "0x2e9154ee05867acc7b461ad06bb15c80d656aa18d171a46ea396a63f11bdbe6f",
          "blockNumber": "0x17",
          "blockTimestamp": "0x696675b4",
          "transactionHash": "0x513c988ae0f0a9d492aa9892b44ecb80d51d6f5440660b7c21ac40ebabac0706",
          "transactionIndex": "0x0",
          "logIndex": "0x0",
          "removed": false
        },
        {
          "address": "0x8828fd7431d5bb1962d7e067c103b2324fa6bbec",
          "topics": [
            "0x78160f0b1b2b32b52a0076d8f0f70888687ba702a4d993d55ac8d9327d57a127",
            "0x0000000000000000000000000000000000000000000000000000000000000007",
            "0x5a39ce3b5338748d6e9d43febb234355e3c542085e2451914b6d95d8dcda8d41",
            "0xba8874590bb5ca8e6b697e03a0723113310c4c8bfcefeba36e6d903682b23796"
          ],
          "data": "0x14c028d3d668eb3454bce44d123ceeeb9fb4e74bee073c41f4001e63f061309400000000000000000000000000000000000000000000000000000000000000400000000000000000000000000000000000000000000000000000000000000040000000000000000000000000c5ea444a0f556f5b227ec7447294d91086bb692c000000000000000000000000c5ea444a0f556f5b227ec7447294d91086bb692c",
          "blockHash": "0x2e9154ee05867acc7b461ad06bb15c80d656aa18d171a46ea396a63f11bdbe6f",
          "blockNumber": "0x17",
          "blockTimestamp": "0x696675b4",
          "transactionHash": "0x513c988ae0f0a9d492aa9892b44ecb80d51d6f5440660b7c21ac40ebabac0706",
          "transactionIndex": "0x0",
          "logIndex": "0x1",
          "removed": false
        }
      ],
      "logsBloom": "0x00000000000000000000000000000000000000000000000000000000000000000000000008000000400000000000000000001001000000000000000000200000000020001200000001080000000000000000000000000000000000100000000000000020000800000000000000000008000000000000000000000000000000000000000000000000000000000000000000000000000000000000000000000000000000000000000000000000000000000000000000000000000000000000000000000000000000040000000000000010000000000000000000000100000000000400000000000000000000000000000000000000000000000000020400004000",
      "type": "0x0",
      "transactionHash": "0x513c988ae0f0a9d492aa9892b44ecb80d51d6f5440660b7c21ac40ebabac0706",
      "transactionIndex": "0x0",
      "blockHash": "0x2e9154ee05867acc7b461ad06bb15c80d656aa18d171a46ea396a63f11bdbe6f",
      "blockNumber": "0x17",
      "gasUsed": "0xc546",
      "effectiveGasPrice": "0x3b9aca00",
      "blobGasPrice": "0x1",
      "from": "0xd289d1387ae1033a703842d69501d5bec5a6f04e",
      "to": "0x8828fd7431d5bb1962d7e067c103b2324fa6bbec",
      "contractAddress": null
    },
    {
      "status": "0x1",
      "cumulativeGasUsed": "0xac6c",
      "logs": [],
      "logsBloom": "0x00000000000000000000000000000000000000000000000000000000000000000000000000000000000000000000000000000000000000000000000000000000000000000000000000000000000000000000000000000000000000000000000000000000000000000000000000000000000000000000000000000000000000000000000000000000000000000000000000000000000000000000000000000000000000000000000000000000000000000000000000000000000000000000000000000000000000000000000000000000000000000000000000000000000000000000000000000000000000000000000000000000000000000000000000000000",
      "type": "0x0",
      "transactionHash": "0xed9ff6741db10b3045ced5a8c60ac486d1a21c494a4d492898e20dab57c564ef",
      "transactionIndex": "0x0",
      "blockHash": "0xd0ab211aa7050ce7f2cc3171210e47cda4d0164160d6c2c0ae23ea1d7000649b",
      "blockNumber": "0x18",
      "gasUsed": "0xac6c",
      "effectiveGasPrice": "0x3b9aca00",
      "blobGasPrice": "0x1",
      "from": "0xd289d1387ae1033a703842d69501d5bec5a6f04e",
      "to": "0x4d4adec97e3e11693f65dedc2d1e6bec784eb2f1",
      "contractAddress": null
    },
    {
      "status": "0x1",
      "cumulativeGasUsed": "0x30384",
      "logs": [
        {
          "address": "0x8828fd7431d5bb1962d7e067c103b2324fa6bbec",
          "topics": [
            "0x7391f14355eff1e559e381f5bf49886a77da7c4fdd33c6fc2e0142269c561c59",
            "0x4ce9a4626b22b1c0a7d8cdc47124542908de4e4448da69e4870f34e4b5d4286d",
            "0xdd7cb67cbc9b2e724e3c3436ed7f91b70ab95f42de0014b70c9f2f9eb7380bb7",
            "0x0000000000000000000000000000000000000000000000000000000000000001"
          ],
          "data": "0x0000000000000000000000000000000000000000000000000000000000000000000000000000000000000000000000000000000000000000000000000000006f000000000000000000000000d59d27b9172ad056cb5c008dc2bbefe702123a55000000000000000000000000000000000000000000000000000000000000000000000000000000000000000000000000000000000000000000000000000000000000000000000000000000004d4adec97e3e11693f65dedc2d1e6bec784eb2f10000000000000000000000004d4adec97e3e11693f65dedc2d1e6bec784eb2f10000000000000000000000002023a9ae4d68fea5b1bef01f207b249c9f2cecbf000000000000000000000000b7d1e80ce581d4129bbbcac7f957850629628cd1",
          "blockHash": "0x0998bf409b2e782e87f87cc9f5332ae429170f06dc49e8d8f0dbc1d802f95665",
          "blockNumber": "0x19",
          "blockTimestamp": "0x696675b6",
          "transactionHash": "0x7c502ac501942dd735dc0196df91cdd500c49f19f4e20e4085b732afdc2226c7",
          "transactionIndex": "0x0",
          "logIndex": "0x0",
          "removed": false
        },
        {
          "address": "0x8828fd7431d5bb1962d7e067c103b2324fa6bbec",
          "topics": [
            "0x78160f0b1b2b32b52a0076d8f0f70888687ba702a4d993d55ac8d9327d57a127",
            "0x0000000000000000000000000000000000000000000000000000000000000008",
            "0xba8874590bb5ca8e6b697e03a0723113310c4c8bfcefeba36e6d903682b23796",
            "0x5a3fc346a82374a7f527a84246384c787c946d57d25a37de1cfe5acc58d7cccd"
          ],
          "data": "0x7391f14355eff1e559e381f5bf49886a77da7c4fdd33c6fc2e0142269c561c59000000000000000000000000000000000000000000000000000000000000004000000000000000000000000000000000000000000000000000000000000001804ce9a4626b22b1c0a7d8cdc47124542908de4e4448da69e4870f34e4b5d4286ddd7cb67cbc9b2e724e3c3436ed7f91b70ab95f42de0014b70c9f2f9eb7380bb700000000000000000000000000000000000000000000000000000000000000010000000000000000000000000000000000000000000000000000000000000000000000000000000000000000000000000000000000000000000000000000006f000000000000000000000000d59d27b9172ad056cb5c008dc2bbefe702123a55000000000000000000000000000000000000000000000000000000000000000000000000000000000000000000000000000000000000000000000000000000000000000000000000000000004d4adec97e3e11693f65dedc2d1e6bec784eb2f10000000000000000000000004d4adec97e3e11693f65dedc2d1e6bec784eb2f10000000000000000000000002023a9ae4d68fea5b1bef01f207b249c9f2cecbf000000000000000000000000b7d1e80ce581d4129bbbcac7f957850629628cd1",
          "blockHash": "0x0998bf409b2e782e87f87cc9f5332ae429170f06dc49e8d8f0dbc1d802f95665",
          "blockNumber": "0x19",
          "blockTimestamp": "0x696675b6",
          "transactionHash": "0x7c502ac501942dd735dc0196df91cdd500c49f19f4e20e4085b732afdc2226c7",
          "transactionIndex": "0x0",
          "logIndex": "0x1",
          "removed": false
        },
        {
          "address": "0x8828fd7431d5bb1962d7e067c103b2324fa6bbec",
          "topics": [
            "0x488f06a9ca9e19e1dd90c764cc79b765e8a3a089ef27d9a0e39dee21c7643188",
            "0xd6f2d535b097ffa2e4bab1bcd524610b49de81de58781b834552d2d7ce4c0dbe",
            "0x000000000000000000000000b7d1e80ce581d4129bbbcac7f957850629628cd1"
          ],
          "data": "0x000000000000000000000000e007a594267d5b9a4f5bf6fd054579eb82f5a057",
          "blockHash": "0x0998bf409b2e782e87f87cc9f5332ae429170f06dc49e8d8f0dbc1d802f95665",
          "blockNumber": "0x19",
          "blockTimestamp": "0x696675b6",
          "transactionHash": "0x7c502ac501942dd735dc0196df91cdd500c49f19f4e20e4085b732afdc2226c7",
          "transactionIndex": "0x0",
          "logIndex": "0x2",
          "removed": false
        },
        {
          "address": "0x8828fd7431d5bb1962d7e067c103b2324fa6bbec",
          "topics": [
            "0x78160f0b1b2b32b52a0076d8f0f70888687ba702a4d993d55ac8d9327d57a127",
            "0x0000000000000000000000000000000000000000000000000000000000000009",
            "0x5a3fc346a82374a7f527a84246384c787c946d57d25a37de1cfe5acc58d7cccd",
            "0xeee9cebf31d087ceda8386fcd20e63e657c7daf5053315951f945dcb2a7d329c"
          ],
          "data": "0x488f06a9ca9e19e1dd90c764cc79b765e8a3a089ef27d9a0e39dee21c764318800000000000000000000000000000000000000000000000000000000000000400000000000000000000000000000000000000000000000000000000000000060d6f2d535b097ffa2e4bab1bcd524610b49de81de58781b834552d2d7ce4c0dbe000000000000000000000000b7d1e80ce581d4129bbbcac7f957850629628cd1000000000000000000000000e007a594267d5b9a4f5bf6fd054579eb82f5a057",
          "blockHash": "0x0998bf409b2e782e87f87cc9f5332ae429170f06dc49e8d8f0dbc1d802f95665",
          "blockNumber": "0x19",
          "blockTimestamp": "0x696675b6",
          "transactionHash": "0x7c502ac501942dd735dc0196df91cdd500c49f19f4e20e4085b732afdc2226c7",
          "transactionIndex": "0x0",
          "logIndex": "0x3",
          "removed": false
        },
        {
          "address": "0x8828fd7431d5bb1962d7e067c103b2324fa6bbec",
          "topics": [
            "0x488f06a9ca9e19e1dd90c764cc79b765e8a3a089ef27d9a0e39dee21c7643188",
            "0xdd7cb67cbc9b2e724e3c3436ed7f91b70ab95f42de0014b70c9f2f9eb7380bb7",
            "0x0000000000000000000000002023a9ae4d68fea5b1bef01f207b249c9f2cecbf"
          ],
          "data": "0x000000000000000000000000e007a594267d5b9a4f5bf6fd054579eb82f5a057",
          "blockHash": "0x0998bf409b2e782e87f87cc9f5332ae429170f06dc49e8d8f0dbc1d802f95665",
          "blockNumber": "0x19",
          "blockTimestamp": "0x696675b6",
          "transactionHash": "0x7c502ac501942dd735dc0196df91cdd500c49f19f4e20e4085b732afdc2226c7",
          "transactionIndex": "0x0",
          "logIndex": "0x4",
          "removed": false
        },
        {
          "address": "0x8828fd7431d5bb1962d7e067c103b2324fa6bbec",
          "topics": [
            "0x78160f0b1b2b32b52a0076d8f0f70888687ba702a4d993d55ac8d9327d57a127",
            "0x000000000000000000000000000000000000000000000000000000000000000a",
            "0xeee9cebf31d087ceda8386fcd20e63e657c7daf5053315951f945dcb2a7d329c",
            "0x56668e67e1a06a4b565fb8f961f35f5efe820f7d55c2ae5c329f57cbc950a131"
          ],
          "data": "0x488f06a9ca9e19e1dd90c764cc79b765e8a3a089ef27d9a0e39dee21c764318800000000000000000000000000000000000000000000000000000000000000400000000000000000000000000000000000000000000000000000000000000060dd7cb67cbc9b2e724e3c3436ed7f91b70ab95f42de0014b70c9f2f9eb7380bb70000000000000000000000002023a9ae4d68fea5b1bef01f207b249c9f2cecbf000000000000000000000000e007a594267d5b9a4f5bf6fd054579eb82f5a057",
          "blockHash": "0x0998bf409b2e782e87f87cc9f5332ae429170f06dc49e8d8f0dbc1d802f95665",
          "blockNumber": "0x19",
          "blockTimestamp": "0x696675b6",
          "transactionHash": "0x7c502ac501942dd735dc0196df91cdd500c49f19f4e20e4085b732afdc2226c7",
          "transactionIndex": "0x0",
          "logIndex": "0x5",
          "removed": false
        },
        {
          "address": "0x8828fd7431d5bb1962d7e067c103b2324fa6bbec",
          "topics": [
            "0x2e659081f44c4f56a18b00f3f9d136d7ee8396bc79163c4d61363ddcf4a4cb27",
            "0x4ce9a4626b22b1c0a7d8cdc47124542908de4e4448da69e4870f34e4b5d4286d"
          ],
          "data": "0x0000000000000000000000000000000000000000000000000000000000000000000000000000000000000000000000000000000000000000000000000754d4c0000000000000000000000000000000000000000000000000000000000754d4c000000000000000000000000000000000000000000000000000000000000000000000000000000000000000000000000000000000000000000000000000000000000000000000000000000000000000000000000000000000000000000000000100000000000000000000000000000000000000000000000000000000000000000000000000000000000000000000000000000000000000000000000000000000c5d2460186f7233c927e7db2dcc703c0e500b653ca82273b7bfad8045d85a470",
          "blockHash": "0x0998bf409b2e782e87f87cc9f5332ae429170f06dc49e8d8f0dbc1d802f95665",
          "blockNumber": "0x19",
          "blockTimestamp": "0x696675b6",
          "transactionHash": "0x7c502ac501942dd735dc0196df91cdd500c49f19f4e20e4085b732afdc2226c7",
          "transactionIndex": "0x0",
          "logIndex": "0x6",
          "removed": false
        },
        {
          "address": "0x8828fd7431d5bb1962d7e067c103b2324fa6bbec",
          "topics": [
            "0x78160f0b1b2b32b52a0076d8f0f70888687ba702a4d993d55ac8d9327d57a127",
            "0x000000000000000000000000000000000000000000000000000000000000000b",
            "0x56668e67e1a06a4b565fb8f961f35f5efe820f7d55c2ae5c329f57cbc950a131",
            "0x602013b198ade10eaff7fb1ecbecde94cd0304aa9f6e9bd9b4c960c9b62995e3"
          ],
          "data": "0x2e659081f44c4f56a18b00f3f9d136d7ee8396bc79163c4d61363ddcf4a4cb27000000000000000000000000000000000000000000000000000000000000004000000000000000000000000000000000000000000000000000000000000001404ce9a4626b22b1c0a7d8cdc47124542908de4e4448da69e4870f34e4b5d4286d0000000000000000000000000000000000000000000000000000000000000000000000000000000000000000000000000000000000000000000000000754d4c0000000000000000000000000000000000000000000000000000000000754d4c000000000000000000000000000000000000000000000000000000000000000000000000000000000000000000000000000000000000000000000000000000000000000000000000000000000000000000000000000000000000000000000000100000000000000000000000000000000000000000000000000000000000000000000000000000000000000000000000000000000000000000000000000000000c5d2460186f7233c927e7db2dcc703c0e500b653ca82273b7bfad8045d85a470",
          "blockHash": "0x0998bf409b2e782e87f87cc9f5332ae429170f06dc49e8d8f0dbc1d802f95665",
          "blockNumber": "0x19",
          "blockTimestamp": "0x696675b6",
          "transactionHash": "0x7c502ac501942dd735dc0196df91cdd500c49f19f4e20e4085b732afdc2226c7",
          "transactionIndex": "0x0",
          "logIndex": "0x7",
          "removed": false
        }
      ],
      "logsBloom": "0x00000001008000000000004000002000000000200800020000000000000000000000000008000000001000000008000000000040040080000020000000240000000000001284000000080000000000800000000004040000080000000000000000000020000810000000008000000008000001800000000002000000000000000080000000000000010000000000000000001000000020000000000000000000000000000000400000000000000000001000001010000000000100000000000040000000000000000100024000000020002000000000000400000000400040000000000000001000000000000000000100000000000000040000000000924000",
      "type": "0x0",
      "transactionHash": "0x7c502ac501942dd735dc0196df91cdd500c49f19f4e20e4085b732afdc2226c7",
      "transactionIndex": "0x0",
      "blockHash": "0x0998bf409b2e782e87f87cc9f5332ae429170f06dc49e8d8f0dbc1d802f95665",
      "blockNumber": "0x19",
      "gasUsed": "0x30384",
      "effectiveGasPrice": "0x3b9aca00",
      "blobGasPrice": "0x1",
      "from": "0xd289d1387ae1033a703842d69501d5bec5a6f04e",
      "to": "0x8828fd7431d5bb1962d7e067c103b2324fa6bbec",
      "contractAddress": null
    },
    {
      "status": "0x1",
      "cumulativeGasUsed": "0xac60",
      "logs": [],
      "logsBloom": "0x00000000000000000000000000000000000000000000000000000000000000000000000000000000000000000000000000000000000000000000000000000000000000000000000000000000000000000000000000000000000000000000000000000000000000000000000000000000000000000000000000000000000000000000000000000000000000000000000000000000000000000000000000000000000000000000000000000000000000000000000000000000000000000000000000000000000000000000000000000000000000000000000000000000000000000000000000000000000000000000000000000000000000000000000000000000",
      "type": "0x0",
      "transactionHash": "0x36d01de7490a4bb86e8cf80cb286ddabd66ba87a04de7c38e917290146251b60",
      "transactionIndex": "0x0",
      "blockHash": "0x43c949d238ebdfd2f0c2f287f151b796cbe32f1e72c7b6f52b5b6363aee4f22d",
      "blockNumber": "0x1a",
      "gasUsed": "0xac60",
      "effectiveGasPrice": "0x3b9aca00",
      "blobGasPrice": "0x1",
      "from": "0xd289d1387ae1033a703842d69501d5bec5a6f04e",
      "to": "0x4d4adec97e3e11693f65dedc2d1e6bec784eb2f1",
      "contractAddress": null
    },
    {
      "status": "0x1",
      "cumulativeGasUsed": "0x3df00",
      "logs": [
        {
          "address": "0x8828fd7431d5bb1962d7e067c103b2324fa6bbec",
          "topics": [
            "0x7391f14355eff1e559e381f5bf49886a77da7c4fdd33c6fc2e0142269c561c59",
            "0xa62b8a7c2f7d736c926aaf6211629e032489b72fb1ef32cf9bc92754aca6fdf5",
            "0xdd7cb67cbc9b2e724e3c3436ed7f91b70ab95f42de0014b70c9f2f9eb7380bb7",
            "0x0000000000000000000000000000000000000000000000000000000000000002"
          ],
          "data": "0x0000000000000000000000000000000000000000000000000000000000000000000000000000000000000000000000000000000000000000000000000000006f000000000000000000000000d59d27b9172ad056cb5c008dc2bbefe702123a55000000000000000000000000000000000000000000000000000000000000000000000000000000000000000000000000000000000000000000000000000000000000000000000000000000004d4adec97e3e11693f65dedc2d1e6bec784eb2f1000000000000000000000000f86c23c1e883ee3b820fb9be75ff91c9a49eae750000000000000000000000002023a9ae4d68fea5b1bef01f207b249c9f2cecbf00000000000000000000000024cd17a955b086861800bac8dd1a6796419bfd2b",
          "blockHash": "0xfc469b92cae00884ecc14b94e36cc02cd3d2e7366aaeb087d4d22b5c57c74854",
          "blockNumber": "0x1b",
          "blockTimestamp": "0x696675b8",
          "transactionHash": "0xaedae0178498b2a31bbe450105e800c9fe3ec7f30955749b5cdc3c7afe91bcbf",
          "transactionIndex": "0x0",
          "logIndex": "0x0",
          "removed": false
        },
        {
          "address": "0x8828fd7431d5bb1962d7e067c103b2324fa6bbec",
          "topics": [
            "0x78160f0b1b2b32b52a0076d8f0f70888687ba702a4d993d55ac8d9327d57a127",
            "0x000000000000000000000000000000000000000000000000000000000000000c",
            "0x602013b198ade10eaff7fb1ecbecde94cd0304aa9f6e9bd9b4c960c9b62995e3",
            "0xcf88cedc1cfc82ec47991425e18dc1c1437920e45704d288860473523da57a6f"
          ],
          "data": "0x7391f14355eff1e559e381f5bf49886a77da7c4fdd33c6fc2e0142269c561c5900000000000000000000000000000000000000000000000000000000000000400000000000000000000000000000000000000000000000000000000000000180a62b8a7c2f7d736c926aaf6211629e032489b72fb1ef32cf9bc92754aca6fdf5dd7cb67cbc9b2e724e3c3436ed7f91b70ab95f42de0014b70c9f2f9eb7380bb700000000000000000000000000000000000000000000000000000000000000020000000000000000000000000000000000000000000000000000000000000000000000000000000000000000000000000000000000000000000000000000006f000000000000000000000000d59d27b9172ad056cb5c008dc2bbefe702123a55000000000000000000000000000000000000000000000000000000000000000000000000000000000000000000000000000000000000000000000000000000000000000000000000000000004d4adec97e3e11693f65dedc2d1e6bec784eb2f1000000000000000000000000f86c23c1e883ee3b820fb9be75ff91c9a49eae750000000000000000000000002023a9ae4d68fea5b1bef01f207b249c9f2cecbf00000000000000000000000024cd17a955b086861800bac8dd1a6796419bfd2b",
          "blockHash": "0xfc469b92cae00884ecc14b94e36cc02cd3d2e7366aaeb087d4d22b5c57c74854",
          "blockNumber": "0x1b",
          "blockTimestamp": "0x696675b8",
          "transactionHash": "0xaedae0178498b2a31bbe450105e800c9fe3ec7f30955749b5cdc3c7afe91bcbf",
          "transactionIndex": "0x0",
          "logIndex": "0x1",
          "removed": false
        },
        {
          "address": "0x8828fd7431d5bb1962d7e067c103b2324fa6bbec",
          "topics": [
            "0x488f06a9ca9e19e1dd90c764cc79b765e8a3a089ef27d9a0e39dee21c7643188",
            "0x0e3586f09a71dfe09b3b3bcf08e01e416e0e8e5ee62f256b89c3b61783a12acd",
            "0x00000000000000000000000024cd17a955b086861800bac8dd1a6796419bfd2b"
          ],
          "data": "0x000000000000000000000000e007a594267d5b9a4f5bf6fd054579eb82f5a057",
          "blockHash": "0xfc469b92cae00884ecc14b94e36cc02cd3d2e7366aaeb087d4d22b5c57c74854",
          "blockNumber": "0x1b",
          "blockTimestamp": "0x696675b8",
          "transactionHash": "0xaedae0178498b2a31bbe450105e800c9fe3ec7f30955749b5cdc3c7afe91bcbf",
          "transactionIndex": "0x0",
          "logIndex": "0x2",
          "removed": false
        },
        {
          "address": "0x8828fd7431d5bb1962d7e067c103b2324fa6bbec",
          "topics": [
            "0x78160f0b1b2b32b52a0076d8f0f70888687ba702a4d993d55ac8d9327d57a127",
            "0x000000000000000000000000000000000000000000000000000000000000000d",
            "0xcf88cedc1cfc82ec47991425e18dc1c1437920e45704d288860473523da57a6f",
            "0xa47c960a607c32a8080633324b6055b7cd8932bd9c4bf1a639ff54517212d013"
          ],
          "data": "0x488f06a9ca9e19e1dd90c764cc79b765e8a3a089ef27d9a0e39dee21c7643188000000000000000000000000000000000000000000000000000000000000004000000000000000000000000000000000000000000000000000000000000000600e3586f09a71dfe09b3b3bcf08e01e416e0e8e5ee62f256b89c3b61783a12acd00000000000000000000000024cd17a955b086861800bac8dd1a6796419bfd2b000000000000000000000000e007a594267d5b9a4f5bf6fd054579eb82f5a057",
          "blockHash": "0xfc469b92cae00884ecc14b94e36cc02cd3d2e7366aaeb087d4d22b5c57c74854",
          "blockNumber": "0x1b",
          "blockTimestamp": "0x696675b8",
          "transactionHash": "0xaedae0178498b2a31bbe450105e800c9fe3ec7f30955749b5cdc3c7afe91bcbf",
          "transactionIndex": "0x0",
          "logIndex": "0x3",
          "removed": false
        },
        {
          "address": "0x8828fd7431d5bb1962d7e067c103b2324fa6bbec",
          "topics": [
            "0x2f4c76c8d18f45069b0941499205a7fceaaa3caf9e2e6328f6a544cd339120f3",
            "0xa62b8a7c2f7d736c926aaf6211629e032489b72fb1ef32cf9bc92754aca6fdf5",
            "0x0000000000000000000000004d4adec97e3e11693f65dedc2d1e6bec784eb2f1",
            "0x000000000000000000000000f86c23c1e883ee3b820fb9be75ff91c9a49eae75"
          ],
          "data": "0x00000000000000000000000000000000000000000000000000000000055d4a800000000000000000000000000000000000000000000000000000000005f5e100",
          "blockHash": "0xfc469b92cae00884ecc14b94e36cc02cd3d2e7366aaeb087d4d22b5c57c74854",
          "blockNumber": "0x1b",
          "blockTimestamp": "0x696675b8",
          "transactionHash": "0xaedae0178498b2a31bbe450105e800c9fe3ec7f30955749b5cdc3c7afe91bcbf",
          "transactionIndex": "0x0",
          "logIndex": "0x4",
          "removed": false
        },
        {
          "address": "0x8828fd7431d5bb1962d7e067c103b2324fa6bbec",
          "topics": [
            "0x78160f0b1b2b32b52a0076d8f0f70888687ba702a4d993d55ac8d9327d57a127",
            "0x000000000000000000000000000000000000000000000000000000000000000e",
            "0xa47c960a607c32a8080633324b6055b7cd8932bd9c4bf1a639ff54517212d013",
            "0x7f9535de807a0f277ebbb526d6e0545403995c6ca0cac3a80c24e6a208ca6270"
          ],
          "data": "0x2f4c76c8d18f45069b0941499205a7fceaaa3caf9e2e6328f6a544cd339120f3000000000000000000000000000000000000000000000000000000000000004000000000000000000000000000000000000000000000000000000000000000a0a62b8a7c2f7d736c926aaf6211629e032489b72fb1ef32cf9bc92754aca6fdf50000000000000000000000004d4adec97e3e11693f65dedc2d1e6bec784eb2f1000000000000000000000000f86c23c1e883ee3b820fb9be75ff91c9a49eae7500000000000000000000000000000000000000000000000000000000055d4a800000000000000000000000000000000000000000000000000000000005f5e100",
          "blockHash": "0xfc469b92cae00884ecc14b94e36cc02cd3d2e7366aaeb087d4d22b5c57c74854",
          "blockNumber": "0x1b",
          "blockTimestamp": "0x696675b8",
          "transactionHash": "0xaedae0178498b2a31bbe450105e800c9fe3ec7f30955749b5cdc3c7afe91bcbf",
          "transactionIndex": "0x0",
          "logIndex": "0x5",
          "removed": false
        },
        {
          "address": "0x8828fd7431d5bb1962d7e067c103b2324fa6bbec",
          "topics": [
            "0x2e659081f44c4f56a18b00f3f9d136d7ee8396bc79163c4d61363ddcf4a4cb27",
            "0xa62b8a7c2f7d736c926aaf6211629e032489b72fb1ef32cf9bc92754aca6fdf5"
          ],
          "data": "0x00000000000000000000000000000000000000000000000000000000000000000000000000000000000000000000000000000000000000000000000005f5e10000000000000000000000000000000000000000000000000000000000055d4a8000000000000000000000000000000000000000000000000000000000009896800000000000000000000000000000000000000000000000000000000000000000000000000000000000000000000000000000000000000000000000000000000100000000000000000000000000000000000000000000000000000000000000000000000000000000000000000000000000000000000000000000000000000000c5d2460186f7233c927e7db2dcc703c0e500b653ca82273b7bfad8045d85a470",
          "blockHash": "0xfc469b92cae00884ecc14b94e36cc02cd3d2e7366aaeb087d4d22b5c57c74854",
          "blockNumber": "0x1b",
          "blockTimestamp": "0x696675b8",
          "transactionHash": "0xaedae0178498b2a31bbe450105e800c9fe3ec7f30955749b5cdc3c7afe91bcbf",
          "transactionIndex": "0x0",
          "logIndex": "0x6",
          "removed": false
        },
        {
          "address": "0x8828fd7431d5bb1962d7e067c103b2324fa6bbec",
          "topics": [
            "0x78160f0b1b2b32b52a0076d8f0f70888687ba702a4d993d55ac8d9327d57a127",
            "0x000000000000000000000000000000000000000000000000000000000000000f",
            "0x7f9535de807a0f277ebbb526d6e0545403995c6ca0cac3a80c24e6a208ca6270",
            "0xd446d3f2235a5a0cd691ec26fb8bbb34a8b1b694888ddd471baffe04fce3cc5b"
          ],
          "data": "0x2e659081f44c4f56a18b00f3f9d136d7ee8396bc79163c4d61363ddcf4a4cb2700000000000000000000000000000000000000000000000000000000000000400000000000000000000000000000000000000000000000000000000000000140a62b8a7c2f7d736c926aaf6211629e032489b72fb1ef32cf9bc92754aca6fdf500000000000000000000000000000000000000000000000000000000000000000000000000000000000000000000000000000000000000000000000005f5e10000000000000000000000000000000000000000000000000000000000055d4a8000000000000000000000000000000000000000000000000000000000009896800000000000000000000000000000000000000000000000000000000000000000000000000000000000000000000000000000000000000000000000000000000100000000000000000000000000000000000000000000000000000000000000000000000000000000000000000000000000000000000000000000000000000000c5d2460186f7233c927e7db2dcc703c0e500b653ca82273b7bfad8045d85a470",
          "blockHash": "0xfc469b92cae00884ecc14b94e36cc02cd3d2e7366aaeb087d4d22b5c57c74854",
          "blockNumber": "0x1b",
          "blockTimestamp": "0x696675b8",
          "transactionHash": "0xaedae0178498b2a31bbe450105e800c9fe3ec7f30955749b5cdc3c7afe91bcbf",
          "transactionIndex": "0x0",
          "logIndex": "0x7",
          "removed": false
        }
      ],
      "logsBloom": "0x04000001000000000040000000000000000002000800020000800400000000000000000000000200000000410000000001408000000000000000000000200000000000000280000800000000000000800002002000000000080020000002000000000020000810002000008000000008000000000000000082000000000000000000000800000880001040800000000008000000004022000000000000000000000000000000500000000100000000080000000010000020200100000000000000000000000008000100000000000002000000000000000408000000000000220000000200000000000000000000001100020000008000000400010000004000",
      "type": "0x0",
      "transactionHash": "0xaedae0178498b2a31bbe450105e800c9fe3ec7f30955749b5cdc3c7afe91bcbf",
      "transactionIndex": "0x0",
      "blockHash": "0xfc469b92cae00884ecc14b94e36cc02cd3d2e7366aaeb087d4d22b5c57c74854",
      "blockNumber": "0x1b",
      "gasUsed": "0x3df00",
      "effectiveGasPrice": "0x3b9aca00",
      "blobGasPrice": "0x1",
      "from": "0xd289d1387ae1033a703842d69501d5bec5a6f04e",
      "to": "0x8828fd7431d5bb1962d7e067c103b2324fa6bbec",
      "contractAddress": null
    },
    {
      "status": "0x1",
      "cumulativeGasUsed": "0x6994",
      "logs": [],
      "logsBloom": "0x00000000000000000000000000000000000000000000000000000000000000000000000000000000000000000000000000000000000000000000000000000000000000000000000000000000000000000000000000000000000000000000000000000000000000000000000000000000000000000000000000000000000000000000000000000000000000000000000000000000000000000000000000000000000000000000000000000000000000000000000000000000000000000000000000000000000000000000000000000000000000000000000000000000000000000000000000000000000000000000000000000000000000000000000000000000",
      "type": "0x0",
      "transactionHash": "0x673bfefe6dd9f3d7d5ccd91876f25c4f64567d358831d72e246a1f258d337556",
      "transactionIndex": "0x0",
      "blockHash": "0xbb3852d7f93a5ed0d271b9d310b81c1a59b2649ea12bfb4e4ebe75250c4cb64e",
      "blockNumber": "0x1c",
      "gasUsed": "0x6994",
      "effectiveGasPrice": "0x3b9aca00",
      "blobGasPrice": "0x1",
      "from": "0xd289d1387ae1033a703842d69501d5bec5a6f04e",
      "to": "0xf86c23c1e883ee3b820fb9be75ff91c9a49eae75",
      "contractAddress": null
    },
    {
      "status": "0x1",
      "cumulativeGasUsed": "0xad94",
      "logs": [],
      "logsBloom": "0x00000000000000000000000000000000000000000000000000000000000000000000000000000000000000000000000000000000000000000000000000000000000000000000000000000000000000000000000000000000000000000000000000000000000000000000000000000000000000000000000000000000000000000000000000000000000000000000000000000000000000000000000000000000000000000000000000000000000000000000000000000000000000000000000000000000000000000000000000000000000000000000000000000000000000000000000000000000000000000000000000000000000000000000000000000000",
      "type": "0x0",
      "transactionHash": "0x1193618ca7c4b0908d28701f918a6c723fe1f7d16a10b1871df5bce92b307e0e",
      "transactionIndex": "0x0",
      "blockHash": "0x063944df0e7d9f8a6879ad36544b1b791628200a586db0325e3d444827d2c22a",
      "blockNumber": "0x1d",
      "gasUsed": "0xad94",
      "effectiveGasPrice": "0x3b9aca00",
      "blobGasPrice": "0x1",
      "from": "0xd289d1387ae1033a703842d69501d5bec5a6f04e",
      "to": "0xf86c23c1e883ee3b820fb9be75ff91c9a49eae75",
      "contractAddress": null
    },
    {
      "status": "0x1",
      "cumulativeGasUsed": "0x52d69",
      "logs": [
        {
          "address": "0x048255dfef2ebfa7307058ae475a3e2f5ee0df46",
          "topics": [
            "0x6f81b8ad0780a0febc687a3a73b181433722b4be30f7f0a024169f5161267287",
            "0xa3573853cd51aee00704a918bdae35ffd85cda62ed5fb1c74fdc4509c4d06457",
            "0x000000000000000000000000d289d1387ae1033a703842d69501d5bec5a6f04e"
          ],
          "data": "0x0000000000000000000000000000000000000000000000000000000000000000000000000000000000000000f86c23c1e883ee3b820fb9be75ff91c9a49eae7500000000000000000000000000000000000000000000000000000000004c4b40000000000000000000000000d289d1387ae1033a703842d69501d5bec5a6f04e00000000000000000000000000000000000000000000000000000000696675e500000000000000000000000000000000000000000000000000000000000000c000000000000000000000000000000000000000000000000000000000000000a000000000000000000000000000000000000000000000000000000000000000200000000000000000000000002db97a32d5ce8d79f7b7fdc607584a7a35da5e0d00000000000000000000000000000000000000000000000000000000000000400000000000000000000000000000000000000000000000000000000000000002abcd000000000000000000000000000000000000000000000000000000000000",
          "blockHash": "0xe011a0609ce8d73cfc5915fad72a5d1a40a4a42640ebe7e13dfec294abf8eb69",
          "blockNumber": "0x1e",
          "blockTimestamp": "0x696675bb",
          "transactionHash": "0x7621ea46198c8146806b03d9490e37f51fe2601349fd06b1d06ff005389d6e7d",
          "transactionIndex": "0x0",
          "logIndex": "0x0",
          "removed": false
        },
        {
          "address": "0x048255dfef2ebfa7307058ae475a3e2f5ee0df46",
          "topics": [
            "0x78160f0b1b2b32b52a0076d8f0f70888687ba702a4d993d55ac8d9327d57a127",
            "0x0000000000000000000000000000000000000000000000000000000000000004",
            "0x87052e0d018f9a102c7197e1a281473f4776302150ed5e11d427630d32d493ce",
            "0xff5e348e9ad2588190a32da79960e49d045b9500be5f5bd777f1715fe7310dee"
          ],
          "data": "0x6f81b8ad0780a0febc687a3a73b181433722b4be30f7f0a024169f5161267287000000000000000000000000000000000000000000000000000000000000004000000000000000000000000000000000000000000000000000000000000001c0a3573853cd51aee00704a918bdae35ffd85cda62ed5fb1c74fdc4509c4d06457000000000000000000000000d289d1387ae1033a703842d69501d5bec5a6f04e0000000000000000000000000000000000000000000000000000000000000000000000000000000000000000f86c23c1e883ee3b820fb9be75ff91c9a49eae7500000000000000000000000000000000000000000000000000000000004c4b40000000000000000000000000d289d1387ae1033a703842d69501d5bec5a6f04e00000000000000000000000000000000000000000000000000000000696675e5000000000000000000000000000000000000000000000000000000000000010000000000000000000000000000000000000000000000000000000000000000a000000000000000000000000000000000000000000000000000000000000000200000000000000000000000002db97a32d5ce8d79f7b7fdc607584a7a35da5e0d00000000000000000000000000000000000000000000000000000000000000400000000000000000000000000000000000000000000000000000000000000002abcd000000000000000000000000000000000000000000000000000000000000",
          "blockHash": "0xe011a0609ce8d73cfc5915fad72a5d1a40a4a42640ebe7e13dfec294abf8eb69",
          "blockNumber": "0x1e",
          "blockTimestamp": "0x696675bb",
          "transactionHash": "0x7621ea46198c8146806b03d9490e37f51fe2601349fd06b1d06ff005389d6e7d",
          "transactionIndex": "0x0",
          "logIndex": "0x1",
          "removed": false
        },
        {
          "address": "0x048255dfef2ebfa7307058ae475a3e2f5ee0df46",
          "topics": [
            "0x0544741ff6f2708047138c8f3a68abb994e628666dba785f685ff1035274f9fb",
            "0xa3573853cd51aee00704a918bdae35ffd85cda62ed5fb1c74fdc4509c4d06457",
            "0x000000000000000000000000d289d1387ae1033a703842d69501d5bec5a6f04e"
          ],
          "data": "0x000000000000000000000000f86c23c1e883ee3b820fb9be75ff91c9a49eae7500000000000000000000000000000000000000000000000000000000004c4b40",
          "blockHash": "0xe011a0609ce8d73cfc5915fad72a5d1a40a4a42640ebe7e13dfec294abf8eb69",
          "blockNumber": "0x1e",
          "blockTimestamp": "0x696675bb",
          "transactionHash": "0x7621ea46198c8146806b03d9490e37f51fe2601349fd06b1d06ff005389d6e7d",
          "transactionIndex": "0x0",
          "logIndex": "0x2",
          "removed": false
        },
        {
          "address": "0x048255dfef2ebfa7307058ae475a3e2f5ee0df46",
          "topics": [
            "0x78160f0b1b2b32b52a0076d8f0f70888687ba702a4d993d55ac8d9327d57a127",
            "0x0000000000000000000000000000000000000000000000000000000000000005",
            "0xff5e348e9ad2588190a32da79960e49d045b9500be5f5bd777f1715fe7310dee",
            "0x43cf3b52b7be846fb408b9a121b2650cf38b55f51f8553dca50a67bf223a4bab"
          ],
          "data": "0x0544741ff6f2708047138c8f3a68abb994e628666dba785f685ff1035274f9fb00000000000000000000000000000000000000000000000000000000000000400000000000000000000000000000000000000000000000000000000000000080a3573853cd51aee00704a918bdae35ffd85cda62ed5fb1c74fdc4509c4d06457000000000000000000000000d289d1387ae1033a703842d69501d5bec5a6f04e000000000000000000000000f86c23c1e883ee3b820fb9be75ff91c9a49eae7500000000000000000000000000000000000000000000000000000000004c4b40",
          "blockHash": "0xe011a0609ce8d73cfc5915fad72a5d1a40a4a42640ebe7e13dfec294abf8eb69",
          "blockNumber": "0x1e",
          "blockTimestamp": "0x696675bb",
          "transactionHash": "0x7621ea46198c8146806b03d9490e37f51fe2601349fd06b1d06ff005389d6e7d",
          "transactionIndex": "0x0",
          "logIndex": "0x3",
          "removed": false
        }
      ],
      "logsBloom": "0x00002001000001000000020000000000000000000000000000000000000800000000000200000000004000000000000000000000000000000000000000200000000010080000000004000000000000000004000100000000000000000000200008000000000800004000000000000000000000000000000000000000008000000000000000000000000000020000001000000800000000000000000000000000000000000000000000000000000000000000200200000000202000000000000000000000400000000800020000000000000000008200000000000000000000000000000000000000000000000008100000000000000000000000000000004000",
      "type": "0x0",
      "transactionHash": "0x7621ea46198c8146806b03d9490e37f51fe2601349fd06b1d06ff005389d6e7d",
      "transactionIndex": "0x0",
      "blockHash": "0xe011a0609ce8d73cfc5915fad72a5d1a40a4a42640ebe7e13dfec294abf8eb69",
      "blockNumber": "0x1e",
      "gasUsed": "0x52d69",
      "effectiveGasPrice": "0x3b9aca00",
      "blobGasPrice": "0x1",
      "from": "0xd289d1387ae1033a703842d69501d5bec5a6f04e",
      "to": "0x048255dfef2ebfa7307058ae475a3e2f5ee0df46",
      "contractAddress": null
    },
    {
      "status": "0x1",
      "cumulativeGasUsed": "0xac60",
      "logs": [],
      "logsBloom": "0x00000000000000000000000000000000000000000000000000000000000000000000000000000000000000000000000000000000000000000000000000000000000000000000000000000000000000000000000000000000000000000000000000000000000000000000000000000000000000000000000000000000000000000000000000000000000000000000000000000000000000000000000000000000000000000000000000000000000000000000000000000000000000000000000000000000000000000000000000000000000000000000000000000000000000000000000000000000000000000000000000000000000000000000000000000000",
      "type": "0x0",
      "transactionHash": "0x05c2317c0bed7f97c38ae0b6aa48987e4d1c267ba584761ea2ba850fb1afe1f8",
      "transactionIndex": "0x0",
      "blockHash": "0x30a8c9cb57c06d0bd3a15f71e9e8a0241921be9be7f109e6aa4ebd8c814a7e53",
      "blockNumber": "0x1f",
      "gasUsed": "0xac60",
      "effectiveGasPrice": "0x3b9aca00",
      "blobGasPrice": "0x1",
      "from": "0xd289d1387ae1033a703842d69501d5bec5a6f04e",
      "to": "0x4d4adec97e3e11693f65dedc2d1e6bec784eb2f1",
      "contractAddress": null
    },
    {
      "status": "0x1",
      "cumulativeGasUsed": "0xad94",
      "logs": [],
      "logsBloom": "0x00000000000000000000000000000000000000000000000000000000000000000000000000000000000000000000000000000000000000000000000000000000000000000000000000000000000000000000000000000000000000000000000000000000000000000000000000000000000000000000000000000000000000000000000000000000000000000000000000000000000000000000000000000000000000000000000000000000000000000000000000000000000000000000000000000000000000000000000000000000000000000000000000000000000000000000000000000000000000000000000000000000000000000000000000000000",
      "type": "0x0",
      "transactionHash": "0x6e9d34b314c8968de06008f1c77284b05427bc4f4fbcbe14eea5cd6f91441a9f",
      "transactionIndex": "0x0",
      "blockHash": "0xa0b0d7b84b9a9f671101a8058757530f5861f0285bf33c56667938e70c717d1e",
      "blockNumber": "0x20",
      "gasUsed": "0xad94",
      "effectiveGasPrice": "0x3b9aca00",
      "blobGasPrice": "0x1",
      "from": "0xd289d1387ae1033a703842d69501d5bec5a6f04e",
      "to": "0x4d4adec97e3e11693f65dedc2d1e6bec784eb2f1",
      "contractAddress": null
    },
    {
      "status": "0x1",
      "cumulativeGasUsed": "0x17623",
      "logs": [
        {
          "address": "0x048255dfef2ebfa7307058ae475a3e2f5ee0df46",
          "topics": [
            "0xbc3f7b7e77a395c156c24db8a8a7850209b2df71a2561292eea221e32bf5d467",
            "0xa3573853cd51aee00704a918bdae35ffd85cda62ed5fb1c74fdc4509c4d06457",
            "0x000000000000000000000000d289d1387ae1033a703842d69501d5bec5a6f04e"
          ],
          "data": "0x00000000000000000000000000000000000000000000000000000000000f4240",
          "blockHash": "0x4e27f022622d0c4880af9b229bc6d7611581fd51004992e371437c40b6510e0b",
          "blockNumber": "0x21",
          "blockTimestamp": "0x696675be",
          "transactionHash": "0x5149b1b92c617b6ee53899d67147b6034e56aa5072a6e9d645a82a4d930a07d0",
          "transactionIndex": "0x0",
          "logIndex": "0x0",
          "removed": false
        },
        {
          "address": "0x048255dfef2ebfa7307058ae475a3e2f5ee0df46",
          "topics": [
            "0x78160f0b1b2b32b52a0076d8f0f70888687ba702a4d993d55ac8d9327d57a127",
            "0x0000000000000000000000000000000000000000000000000000000000000006",
            "0x43cf3b52b7be846fb408b9a121b2650cf38b55f51f8553dca50a67bf223a4bab",
            "0xd109075acec12770df0314c8e6eefeaabc383f3715271e75f1f91c54399ca869"
          ],
          "data": "0xbc3f7b7e77a395c156c24db8a8a7850209b2df71a2561292eea221e32bf5d46700000000000000000000000000000000000000000000000000000000000000400000000000000000000000000000000000000000000000000000000000000060a3573853cd51aee00704a918bdae35ffd85cda62ed5fb1c74fdc4509c4d06457000000000000000000000000d289d1387ae1033a703842d69501d5bec5a6f04e00000000000000000000000000000000000000000000000000000000000f4240",
          "blockHash": "0x4e27f022622d0c4880af9b229bc6d7611581fd51004992e371437c40b6510e0b",
          "blockNumber": "0x21",
          "blockTimestamp": "0x696675be",
          "transactionHash": "0x5149b1b92c617b6ee53899d67147b6034e56aa5072a6e9d645a82a4d930a07d0",
          "transactionIndex": "0x0",
          "logIndex": "0x1",
          "removed": false
        }
      ],
      "logsBloom": "0x00000000000000002000020000000000000000000002000000000000000000000000000200000000000000000000000000000000000400000000000000200000000000080000000004000000000000000000000008000004000000000000200000000000000800004000000000000000000000000000000000000000000000000000000400000000800000020000000000000000000000000000000000000000000000000000000000000000000000000000000200000000000000080000000000000000400000000000000000000000000000000200000000000000000000000000000000000000000000000008100000000000000000000000000000004002",
      "type": "0x0",
      "transactionHash": "0x5149b1b92c617b6ee53899d67147b6034e56aa5072a6e9d645a82a4d930a07d0",
      "transactionIndex": "0x0",
      "blockHash": "0x4e27f022622d0c4880af9b229bc6d7611581fd51004992e371437c40b6510e0b",
      "blockNumber": "0x21",
      "gasUsed": "0x17623",
      "effectiveGasPrice": "0x3b9aca00",
      "blobGasPrice": "0x1",
      "from": "0xd289d1387ae1033a703842d69501d5bec5a6f04e",
      "to": "0x048255dfef2ebfa7307058ae475a3e2f5ee0df46",
      "contractAddress": null
    },
    {
      "status": "0x1",
      "cumulativeGasUsed": "0x121f6",
      "logs": [],
      "logsBloom": "0x00000000000000000000000000000000000000000000000000000000000000000000000000000000000000000000000000000000000000000000000000000000000000000000000000000000000000000000000000000000000000000000000000000000000000000000000000000000000000000000000000000000000000000000000000000000000000000000000000000000000000000000000000000000000000000000000000000000000000000000000000000000000000000000000000000000000000000000000000000000000000000000000000000000000000000000000000000000000000000000000000000000000000000000000000000000",
      "type": "0x0",
      "transactionHash": "0x595680c106d52df9f0bf9c3c73426e9007f0bb5985b65f9337516ed69ef1b049",
      "transactionIndex": "0x0",
      "blockHash": "0xf5f090da814fda898c73d033f80dfbc431d8658faab59e9b144d7917bad35e9b",
      "blockNumber": "0x22",
      "gasUsed": "0x121f6",
      "effectiveGasPrice": "0x3b9aca00",
      "blobGasPrice": "0x1",
      "from": "0xd289d1387ae1033a703842d69501d5bec5a6f04e",
      "to": "0x8c16d2f19a034b7281254f5656c2d1461c6ceb9a",
      "contractAddress": null
    },
    {
      "status": "0x1",
      "cumulativeGasUsed": "0x2a95a",
      "logs": [
        {
          "address": "0x048255dfef2ebfa7307058ae475a3e2f5ee0df46",
          "topics": [
            "0xfa797585c9827d59a7694ef382241f1a03ced6a1a2b4353b35939abc4d04b286",
            "0xa3573853cd51aee00704a918bdae35ffd85cda62ed5fb1c74fdc4509c4d06457",
            "0x000000000000000000000000d289d1387ae1033a703842d69501d5bec5a6f04e"
          ],
          "data": "0x00000000000000000000000000000000000000000000000000000000000000000000000000000000000000000000000000000000000000000000000000000000",
          "blockHash": "0xd934f321f059f714a2a8e73cef78fd06c54b59a50bef5aed657c8476d575ae5b",
          "blockNumber": "0x23",
          "blockTimestamp": "0x696675c0",
          "transactionHash": "0x7e23321b213ff29ab713475c4c35d820d322faf52f6e31705257d8f50604cf2c",
          "transactionIndex": "0x0",
          "logIndex": "0x0",
          "removed": false
        },
        {
          "address": "0x048255dfef2ebfa7307058ae475a3e2f5ee0df46",
          "topics": [
            "0x78160f0b1b2b32b52a0076d8f0f70888687ba702a4d993d55ac8d9327d57a127",
            "0x0000000000000000000000000000000000000000000000000000000000000007",
            "0xd109075acec12770df0314c8e6eefeaabc383f3715271e75f1f91c54399ca869",
            "0x0bcf2df7842d969b1d20bcd6cd1c44aaafbf3123c6fd91c5f85765b0f42d6794"
          ],
          "data": "0xfa797585c9827d59a7694ef382241f1a03ced6a1a2b4353b35939abc4d04b28600000000000000000000000000000000000000000000000000000000000000400000000000000000000000000000000000000000000000000000000000000080a3573853cd51aee00704a918bdae35ffd85cda62ed5fb1c74fdc4509c4d06457000000000000000000000000d289d1387ae1033a703842d69501d5bec5a6f04e00000000000000000000000000000000000000000000000000000000000000000000000000000000000000000000000000000000000000000000000000000000",
          "blockHash": "0xd934f321f059f714a2a8e73cef78fd06c54b59a50bef5aed657c8476d575ae5b",
          "blockNumber": "0x23",
          "blockTimestamp": "0x696675c0",
          "transactionHash": "0x7e23321b213ff29ab713475c4c35d820d322faf52f6e31705257d8f50604cf2c",
          "transactionIndex": "0x0",
          "logIndex": "0x1",
          "removed": false
        },
        {
          "address": "0x048255dfef2ebfa7307058ae475a3e2f5ee0df46",
          "topics": [
            "0x16bfb64ae70b8a9bbda28deb27a1cbc5ec3e6497481714344c221b46c0777f35",
            "0xa3573853cd51aee00704a918bdae35ffd85cda62ed5fb1c74fdc4509c4d06457",
            "0x000000000000000000000000d289d1387ae1033a703842d69501d5bec5a6f04e"
          ],
          "data": "0x000000000000000000000000f86c23c1e883ee3b820fb9be75ff91c9a49eae7500000000000000000000000000000000000000000000000000000000004c4b400000000000000000000000004d4adec97e3e11693f65dedc2d1e6bec784eb2f100000000000000000000000000000000000000000000000000000000000f4240",
          "blockHash": "0xd934f321f059f714a2a8e73cef78fd06c54b59a50bef5aed657c8476d575ae5b",
          "blockNumber": "0x23",
          "blockTimestamp": "0x696675c0",
          "transactionHash": "0x7e23321b213ff29ab713475c4c35d820d322faf52f6e31705257d8f50604cf2c",
          "transactionIndex": "0x0",
          "logIndex": "0x2",
          "removed": false
        },
        {
          "address": "0x048255dfef2ebfa7307058ae475a3e2f5ee0df46",
          "topics": [
            "0x78160f0b1b2b32b52a0076d8f0f70888687ba702a4d993d55ac8d9327d57a127",
            "0x0000000000000000000000000000000000000000000000000000000000000008",
            "0x0bcf2df7842d969b1d20bcd6cd1c44aaafbf3123c6fd91c5f85765b0f42d6794",
            "0xf4d9af3729c05e7d6dae9f506ea166cbb29120be1064976952398b42df6a71a9"
          ],
          "data": "0x16bfb64ae70b8a9bbda28deb27a1cbc5ec3e6497481714344c221b46c0777f35000000000000000000000000000000000000000000000000000000000000004000000000000000000000000000000000000000000000000000000000000000c0a3573853cd51aee00704a918bdae35ffd85cda62ed5fb1c74fdc4509c4d06457000000000000000000000000d289d1387ae1033a703842d69501d5bec5a6f04e000000000000000000000000f86c23c1e883ee3b820fb9be75ff91c9a49eae7500000000000000000000000000000000000000000000000000000000004c4b400000000000000000000000004d4adec97e3e11693f65dedc2d1e6bec784eb2f100000000000000000000000000000000000000000000000000000000000f4240",
          "blockHash": "0xd934f321f059f714a2a8e73cef78fd06c54b59a50bef5aed657c8476d575ae5b",
          "blockNumber": "0x23",
          "blockTimestamp": "0x696675c0",
          "transactionHash": "0x7e23321b213ff29ab713475c4c35d820d322faf52f6e31705257d8f50604cf2c",
          "transactionIndex": "0x0",
          "logIndex": "0x3",
          "removed": false
        }
      ],
      "logsBloom": "0x00000000000000000000000000000000000000000002000000000000000080000000000000000000000000000000000200001000000080000002002000200000000020080000000004000000000000000000000008002000000000000000200100000000000800004000200000000000000000000000000000000000000000000080000000000000800000020000000000000000000000000000000000000000000004000000000000000802000000000000000200000000000000000000000050000000400000000000000000000000000000000200000000000100000000000000000000000000000000000000100000000000000000000000000002004000",
      "type": "0x0",
      "transactionHash": "0x7e23321b213ff29ab713475c4c35d820d322faf52f6e31705257d8f50604cf2c",
      "transactionIndex": "0x0",
      "blockHash": "0xd934f321f059f714a2a8e73cef78fd06c54b59a50bef5aed657c8476d575ae5b",
      "blockNumber": "0x23",
      "gasUsed": "0x2a95a",
      "effectiveGasPrice": "0x3b9aca00",
      "blobGasPrice": "0x1",
      "from": "0xd289d1387ae1033a703842d69501d5bec5a6f04e",
      "to": "0x048255dfef2ebfa7307058ae475a3e2f5ee0df46",
      "contractAddress": null
    },
    {
      "status": "0x1",
      "cumulativeGasUsed": "0x6994",
      "logs": [],
      "logsBloom": "0x00000000000000000000000000000000000000000000000000000000000000000000000000000000000000000000000000000000000000000000000000000000000000000000000000000000000000000000000000000000000000000000000000000000000000000000000000000000000000000000000000000000000000000000000000000000000000000000000000000000000000000000000000000000000000000000000000000000000000000000000000000000000000000000000000000000000000000000000000000000000000000000000000000000000000000000000000000000000000000000000000000000000000000000000000000000",
      "type": "0x0",
      "transactionHash": "0x45b14dbbbe8d1e00e14e30ea6da4a9a9a44c19141c3b1562cf19f7e8314f5ff9",
      "transactionIndex": "0x0",
      "blockHash": "0xa76408dfb8b4a4586358ee8e5a31cbc16c4f4cd9ac0a140dd0af440415709283",
      "blockNumber": "0x24",
      "gasUsed": "0x6994",
      "effectiveGasPrice": "0x3b9aca00",
      "blobGasPrice": "0x1",
      "from": "0xd289d1387ae1033a703842d69501d5bec5a6f04e",
      "to": "0x4d4adec97e3e11693f65dedc2d1e6bec784eb2f1",
      "contractAddress": null
    },
    {
      "status": "0x1",
      "cumulativeGasUsed": "0x5fd8",
      "logs": [],
      "logsBloom": "0x00000000000000000000000000000000000000000000000000000000000000000000000000000000000000000000000000000000000000000000000000000000000000000000000000000000000000000000000000000000000000000000000000000000000000000000000000000000000000000000000000000000000000000000000000000000000000000000000000000000000000000000000000000000000000000000000000000000000000000000000000000000000000000000000000000000000000000000000000000000000000000000000000000000000000000000000000000000000000000000000000000000000000000000000000000000",
      "type": "0x0",
      "transactionHash": "0x63c0f0c60a979577ffd174ff1f9f4b2a65204330c0cd776dd290ae73505a840f",
      "transactionIndex": "0x0",
      "blockHash": "0x0df8620fb50010af25c48d6e79aac5619547381c395fb8a5461757ef5adfccfe",
      "blockNumber": "0x25",
      "gasUsed": "0x5fd8",
      "effectiveGasPrice": "0x3b9aca00",
      "blobGasPrice": "0x1",
      "from": "0xd289d1387ae1033a703842d69501d5bec5a6f04e",
      "to": "0x4d4adec97e3e11693f65dedc2d1e6bec784eb2f1",
      "contractAddress": null
    },
    {
      "status": "0x1",
      "cumulativeGasUsed": "0x46ef3",
      "logs": [
        {
          "address": "0x048255dfef2ebfa7307058ae475a3e2f5ee0df46",
          "topics": [
            "0x6f81b8ad0780a0febc687a3a73b181433722b4be30f7f0a024169f5161267287",
            "0x9c5668eca5a4c40788145e30ed18cf7fd39e52233dfaffbabbdea366803bf0a0",
            "0x000000000000000000000000d289d1387ae1033a703842d69501d5bec5a6f04e"
          ],
          "data": "0x00000000000000000000000000000000000000000000000000000000000000010000000000000000000000004d4adec97e3e11693f65dedc2d1e6bec784eb2f100000000000000000000000000000000000000000000000000000000001e8480000000000000000000000000d289d1387ae1033a703842d69501d5bec5a6f04e00000000000000000000000000000000000000000000000000000000696675e500000000000000000000000000000000000000000000000000000000000000c00000000000000000000000000000000000000000000000000000000000000040000000000000000000000000558b8fe3b86724d9d9433bf8ec2b1a1b223f9d25000000000000000000000000000000000000000000000000000000000012d687",
          "blockHash": "0x9ec6ef829fd04bc48cf1ed1c2ecd51482c8c6b6f19ba23c2b8153d567fa009d7",
          "blockNumber": "0x26",
          "blockTimestamp": "0x696675c3",
          "transactionHash": "0x3bf46a58d2888087584c2928cefcfce6d8e02d58f84198bc0ca7f2f86ea91d0c",
          "transactionIndex": "0x0",
          "logIndex": "0x0",
          "removed": false
        },
        {
          "address": "0x048255dfef2ebfa7307058ae475a3e2f5ee0df46",
          "topics": [
            "0x78160f0b1b2b32b52a0076d8f0f70888687ba702a4d993d55ac8d9327d57a127",
            "0x0000000000000000000000000000000000000000000000000000000000000009",
            "0xf4d9af3729c05e7d6dae9f506ea166cbb29120be1064976952398b42df6a71a9",
            "0xe6e582d0b0cd202a294614b6e2c210ca3ed6b8cb78cb54ae69397a9bd70a8e2b"
          ],
          "data": "0x6f81b8ad0780a0febc687a3a73b181433722b4be30f7f0a024169f5161267287000000000000000000000000000000000000000000000000000000000000004000000000000000000000000000000000000000000000000000000000000001609c5668eca5a4c40788145e30ed18cf7fd39e52233dfaffbabbdea366803bf0a0000000000000000000000000d289d1387ae1033a703842d69501d5bec5a6f04e00000000000000000000000000000000000000000000000000000000000000010000000000000000000000004d4adec97e3e11693f65dedc2d1e6bec784eb2f100000000000000000000000000000000000000000000000000000000001e8480000000000000000000000000d289d1387ae1033a703842d69501d5bec5a6f04e00000000000000000000000000000000000000000000000000000000696675e500000000000000000000000000000000000000000000000000000000000001000000000000000000000000000000000000000000000000000000000000000040000000000000000000000000558b8fe3b86724d9d9433bf8ec2b1a1b223f9d25000000000000000000000000000000000000000000000000000000000012d687",
          "blockHash": "0x9ec6ef829fd04bc48cf1ed1c2ecd51482c8c6b6f19ba23c2b8153d567fa009d7",
          "blockNumber": "0x26",
          "blockTimestamp": "0x696675c3",
          "transactionHash": "0x3bf46a58d2888087584c2928cefcfce6d8e02d58f84198bc0ca7f2f86ea91d0c",
          "transactionIndex": "0x0",
          "logIndex": "0x1",
          "removed": false
        },
        {
          "address": "0x048255dfef2ebfa7307058ae475a3e2f5ee0df46",
          "topics": [
            "0x0544741ff6f2708047138c8f3a68abb994e628666dba785f685ff1035274f9fb",
            "0x9c5668eca5a4c40788145e30ed18cf7fd39e52233dfaffbabbdea366803bf0a0",
            "0x000000000000000000000000d289d1387ae1033a703842d69501d5bec5a6f04e"
          ],
          "data": "0x0000000000000000000000004d4adec97e3e11693f65dedc2d1e6bec784eb2f100000000000000000000000000000000000000000000000000000000001e8480",
          "blockHash": "0x9ec6ef829fd04bc48cf1ed1c2ecd51482c8c6b6f19ba23c2b8153d567fa009d7",
          "blockNumber": "0x26",
          "blockTimestamp": "0x696675c3",
          "transactionHash": "0x3bf46a58d2888087584c2928cefcfce6d8e02d58f84198bc0ca7f2f86ea91d0c",
          "transactionIndex": "0x0",
          "logIndex": "0x2",
          "removed": false
        },
        {
          "address": "0x048255dfef2ebfa7307058ae475a3e2f5ee0df46",
          "topics": [
            "0x78160f0b1b2b32b52a0076d8f0f70888687ba702a4d993d55ac8d9327d57a127",
            "0x000000000000000000000000000000000000000000000000000000000000000a",
            "0xe6e582d0b0cd202a294614b6e2c210ca3ed6b8cb78cb54ae69397a9bd70a8e2b",
            "0x8ed486987d0060855b3935e717c35620c4c904fa2e54d70146b8f2fc0695ca39"
          ],
          "data": "0x0544741ff6f2708047138c8f3a68abb994e628666dba785f685ff1035274f9fb000000000000000000000000000000000000000000000000000000000000004000000000000000000000000000000000000000000000000000000000000000809c5668eca5a4c40788145e30ed18cf7fd39e52233dfaffbabbdea366803bf0a0000000000000000000000000d289d1387ae1033a703842d69501d5bec5a6f04e0000000000000000000000004d4adec97e3e11693f65dedc2d1e6bec784eb2f100000000000000000000000000000000000000000000000000000000001e8480",
          "blockHash": "0x9ec6ef829fd04bc48cf1ed1c2ecd51482c8c6b6f19ba23c2b8153d567fa009d7",
          "blockNumber": "0x26",
          "blockTimestamp": "0x696675c3",
          "transactionHash": "0x3bf46a58d2888087584c2928cefcfce6d8e02d58f84198bc0ca7f2f86ea91d0c",
          "transactionIndex": "0x0",
          "logIndex": "0x3",
          "removed": false
        }
      ],
      "logsBloom": "0x00000100000000000000000000004000000000000000000800000000000000000000000000000004000000000000000000000000040000000020000000202000000000000000000004000000000001000004000100000000000000000000000100000000000800004000200000000000000000000000000000000000008000000000000000000000010000000000000200001000000000000000000000000000000104000000000000000000000000000000200200000000200000000000000000000000400000000000020000000000000000000200000000000000000000010000000000000000000000000000100000000000000000000000000000804000",
      "type": "0x0",
      "transactionHash": "0x3bf46a58d2888087584c2928cefcfce6d8e02d58f84198bc0ca7f2f86ea91d0c",
      "transactionIndex": "0x0",
      "blockHash": "0x9ec6ef829fd04bc48cf1ed1c2ecd51482c8c6b6f19ba23c2b8153d567fa009d7",
      "blockNumber": "0x26",
      "gasUsed": "0x46ef3",
      "effectiveGasPrice": "0x3b9aca00",
      "blobGasPrice": "0x1",
      "from": "0xd289d1387ae1033a703842d69501d5bec5a6f04e",
      "to": "0x048255dfef2ebfa7307058ae475a3e2f5ee0df46",
      "contractAddress": null
    },
    {
      "status": "0x1",
      "cumulativeGasUsed": "0x6994",
      "logs": [],
      "logsBloom": "0x00000000000000000000000000000000000000000000000000000000000000000000000000000000000000000000000000000000000000000000000000000000000000000000000000000000000000000000000000000000000000000000000000000000000000000000000000000000000000000000000000000000000000000000000000000000000000000000000000000000000000000000000000000000000000000000000000000000000000000000000000000000000000000000000000000000000000000000000000000000000000000000000000000000000000000000000000000000000000000000000000000000000000000000000000000000",
      "type": "0x0",
      "transactionHash": "0x8eeeae544a79cb5a55977e241c9bd38cb18bedcf8158889ea1cc6283aceec8b3",
      "transactionIndex": "0x0",
      "blockHash": "0x0be24b63a0ba4f0efd70c8ba58335308f8be492d107b168e74072aa978ab37cb",
      "blockNumber": "0x27",
      "gasUsed": "0x6994",
      "effectiveGasPrice": "0x3b9aca00",
      "blobGasPrice": "0x1",
      "from": "0xd289d1387ae1033a703842d69501d5bec5a6f04e",
      "to": "0x4d4adec97e3e11693f65dedc2d1e6bec784eb2f1",
      "contractAddress": null
    },
    {
      "status": "0x1",
      "cumulativeGasUsed": "0x5fd8",
      "logs": [],
      "logsBloom": "0x00000000000000000000000000000000000000000000000000000000000000000000000000000000000000000000000000000000000000000000000000000000000000000000000000000000000000000000000000000000000000000000000000000000000000000000000000000000000000000000000000000000000000000000000000000000000000000000000000000000000000000000000000000000000000000000000000000000000000000000000000000000000000000000000000000000000000000000000000000000000000000000000000000000000000000000000000000000000000000000000000000000000000000000000000000000",
      "type": "0x0",
      "transactionHash": "0x87ccc77118d5e8c30a5d79bef72571ad0d64537c8e2e377ff52106655b51e205",
      "transactionIndex": "0x0",
      "blockHash": "0x246cc8bed829b07db6b6296f7cfd40a23e4b2bb52aa5603e75491632c3b6bc34",
      "blockNumber": "0x28",
      "gasUsed": "0x5fd8",
      "effectiveGasPrice": "0x3b9aca00",
      "blobGasPrice": "0x1",
      "from": "0xd289d1387ae1033a703842d69501d5bec5a6f04e",
      "to": "0x4d4adec97e3e11693f65dedc2d1e6bec784eb2f1",
      "contractAddress": null
    },
    {
      "status": "0x1",
      "cumulativeGasUsed": "0x14617",
      "logs": [
        {
          "address": "0x048255dfef2ebfa7307058ae475a3e2f5ee0df46",
          "topics": [
            "0xbc3f7b7e77a395c156c24db8a8a7850209b2df71a2561292eea221e32bf5d467",
            "0x9c5668eca5a4c40788145e30ed18cf7fd39e52233dfaffbabbdea366803bf0a0",
            "0x000000000000000000000000d289d1387ae1033a703842d69501d5bec5a6f04e"
          ],
          "data": "0x00000000000000000000000000000000000000000000000000000000000f4240",
          "blockHash": "0x3f02e90228162539550671dc237dd932b92a7100af18768b3ccc79807dca9421",
          "blockNumber": "0x29",
          "blockTimestamp": "0x696675c6",
          "transactionHash": "0x765827485dd537d36b0064ed92af5ec7eea609c91c8a284c66fccf309e909273",
          "transactionIndex": "0x0",
          "logIndex": "0x0",
          "removed": false
        },
        {
          "address": "0x048255dfef2ebfa7307058ae475a3e2f5ee0df46",
          "topics": [
            "0x78160f0b1b2b32b52a0076d8f0f70888687ba702a4d993d55ac8d9327d57a127",
            "0x000000000000000000000000000000000000000000000000000000000000000b",
            "0x8ed486987d0060855b3935e717c35620c4c904fa2e54d70146b8f2fc0695ca39",
            "0xc91aeb1de0517d7c1741285f0d07ca3a1e20dc5544d57047a5dc7654c4a418b7"
          ],
          "data": "0xbc3f7b7e77a395c156c24db8a8a7850209b2df71a2561292eea221e32bf5d467000000000000000000000000000000000000000000000000000000000000004000000000000000000000000000000000000000000000000000000000000000609c5668eca5a4c40788145e30ed18cf7fd39e52233dfaffbabbdea366803bf0a0000000000000000000000000d289d1387ae1033a703842d69501d5bec5a6f04e00000000000000000000000000000000000000000000000000000000000f4240",
          "blockHash": "0x3f02e90228162539550671dc237dd932b92a7100af18768b3ccc79807dca9421",
          "blockNumber": "0x29",
          "blockTimestamp": "0x696675c6",
          "transactionHash": "0x765827485dd537d36b0064ed92af5ec7eea609c91c8a284c66fccf309e909273",
          "transactionIndex": "0x0",
          "logIndex": "0x1",
          "removed": false
        }
      ],
      "logsBloom": "0x00000100000000002000004000004000000000000000000800000000000000000000000000000004000000000000000000000000000000000000000000202000000002000000000004000002000000000000000000080004000000000000000000000000000800004000000000000000000000000000000000000000000000000000000000000000000000000000000000000000000000000000000000000000000100000000000000000000000000000000000200000000000000000000000000000000400000000000000000000000002000000200000000000000000000000000000000000000000000000000100000000000000000040000000000004002",
      "type": "0x0",
      "transactionHash": "0x765827485dd537d36b0064ed92af5ec7eea609c91c8a284c66fccf309e909273",
      "transactionIndex": "0x0",
      "blockHash": "0x3f02e90228162539550671dc237dd932b92a7100af18768b3ccc79807dca9421",
      "blockNumber": "0x29",
      "gasUsed": "0x14617",
      "effectiveGasPrice": "0x3b9aca00",
      "blobGasPrice": "0x1",
      "from": "0xd289d1387ae1033a703842d69501d5bec5a6f04e",
      "to": "0x048255dfef2ebfa7307058ae475a3e2f5ee0df46",
      "contractAddress": null
    },
    {
      "status": "0x1",
      "cumulativeGasUsed": "0x1a29b",
      "logs": [],
      "logsBloom": "0x00000000000000000000000000000000000000000000000000000000000000000000000000000000000000000000000000000000000000000000000000000000000000000000000000000000000000000000000000000000000000000000000000000000000000000000000000000000000000000000000000000000000000000000000000000000000000000000000000000000000000000000000000000000000000000000000000000000000000000000000000000000000000000000000000000000000000000000000000000000000000000000000000000000000000000000000000000000000000000000000000000000000000000000000000000000",
      "type": "0x0",
      "transactionHash": "0x9b10ac3fbd02f7448c38f9766f4fc1b76725518bde0024f5692cbdba944e83c8",
      "transactionIndex": "0x0",
      "blockHash": "0x8218c161d8026259becc44dd3cdaea78da7053753a41728f63558456f27b611b",
      "blockNumber": "0x2a",
      "gasUsed": "0x1a29b",
      "effectiveGasPrice": "0x3b9aca00",
      "blobGasPrice": "0x1",
      "from": "0xd289d1387ae1033a703842d69501d5bec5a6f04e",
      "to": "0x8c16d2f19a034b7281254f5656c2d1461c6ceb9a",
      "contractAddress": null
    },
    {
      "status": "0x1",
      "cumulativeGasUsed": "0x212aa",
      "logs": [
        {
          "address": "0x048255dfef2ebfa7307058ae475a3e2f5ee0df46",
          "topics": [
            "0xfa797585c9827d59a7694ef382241f1a03ced6a1a2b4353b35939abc4d04b286",
            "0x9c5668eca5a4c40788145e30ed18cf7fd39e52233dfaffbabbdea366803bf0a0",
            "0x000000000000000000000000d289d1387ae1033a703842d69501d5bec5a6f04e"
          ],
          "data": "0x00000000000000000000000000000000000000000000000000000000000000000000000000000000000000000000000000000000000000000000000000000000",
          "blockHash": "0x6fb6942cff569f284bf7c7063ea4e44e0a22ba948cf126971ebb7aa401892b5b",
          "blockNumber": "0x2b",
          "blockTimestamp": "0x696675c8",
          "transactionHash": "0xfe2cf25c947be2856f544b9cf468d62266dfdcaf9760a18dc70f21bdbe4270b1",
          "transactionIndex": "0x0",
          "logIndex": "0x0",
          "removed": false
        },
        {
          "address": "0x048255dfef2ebfa7307058ae475a3e2f5ee0df46",
          "topics": [
            "0x78160f0b1b2b32b52a0076d8f0f70888687ba702a4d993d55ac8d9327d57a127",
            "0x000000000000000000000000000000000000000000000000000000000000000c",
            "0xc91aeb1de0517d7c1741285f0d07ca3a1e20dc5544d57047a5dc7654c4a418b7",
            "0x976b6ff79ab46bd50c9ee0236848ff9410b9dcaa67f6784a376ed611ea87fda5"
          ],
          "data": "0xfa797585c9827d59a7694ef382241f1a03ced6a1a2b4353b35939abc4d04b286000000000000000000000000000000000000000000000000000000000000004000000000000000000000000000000000000000000000000000000000000000809c5668eca5a4c40788145e30ed18cf7fd39e52233dfaffbabbdea366803bf0a0000000000000000000000000d289d1387ae1033a703842d69501d5bec5a6f04e00000000000000000000000000000000000000000000000000000000000000000000000000000000000000000000000000000000000000000000000000000000",
          "blockHash": "0x6fb6942cff569f284bf7c7063ea4e44e0a22ba948cf126971ebb7aa401892b5b",
          "blockNumber": "0x2b",
          "blockTimestamp": "0x696675c8",
          "transactionHash": "0xfe2cf25c947be2856f544b9cf468d62266dfdcaf9760a18dc70f21bdbe4270b1",
          "transactionIndex": "0x0",
          "logIndex": "0x1",
          "removed": false
        },
        {
          "address": "0x048255dfef2ebfa7307058ae475a3e2f5ee0df46",
          "topics": [
            "0x16bfb64ae70b8a9bbda28deb27a1cbc5ec3e6497481714344c221b46c0777f35",
            "0x9c5668eca5a4c40788145e30ed18cf7fd39e52233dfaffbabbdea366803bf0a0",
            "0x000000000000000000000000d289d1387ae1033a703842d69501d5bec5a6f04e"
          ],
          "data": "0x0000000000000000000000004d4adec97e3e11693f65dedc2d1e6bec784eb2f100000000000000000000000000000000000000000000000000000000001e84800000000000000000000000004d4adec97e3e11693f65dedc2d1e6bec784eb2f100000000000000000000000000000000000000000000000000000000000f4240",
          "blockHash": "0x6fb6942cff569f284bf7c7063ea4e44e0a22ba948cf126971ebb7aa401892b5b",
          "blockNumber": "0x2b",
          "blockTimestamp": "0x696675c8",
          "transactionHash": "0xfe2cf25c947be2856f544b9cf468d62266dfdcaf9760a18dc70f21bdbe4270b1",
          "transactionIndex": "0x0",
          "logIndex": "0x2",
          "removed": false
        },
        {
          "address": "0x048255dfef2ebfa7307058ae475a3e2f5ee0df46",
          "topics": [
            "0x78160f0b1b2b32b52a0076d8f0f70888687ba702a4d993d55ac8d9327d57a127",
            "0x000000000000000000000000000000000000000000000000000000000000000d",
            "0x976b6ff79ab46bd50c9ee0236848ff9410b9dcaa67f6784a376ed611ea87fda5",
            "0xfb3e5a9683ff479d3f96fed106d8c4220585da07babe5bc8a028f3c098aedcd9"
          ],
          "data": "0x16bfb64ae70b8a9bbda28deb27a1cbc5ec3e6497481714344c221b46c0777f35000000000000000000000000000000000000000000000000000000000000004000000000000000000000000000000000000000000000000000000000000000c09c5668eca5a4c40788145e30ed18cf7fd39e52233dfaffbabbdea366803bf0a0000000000000000000000000d289d1387ae1033a703842d69501d5bec5a6f04e0000000000000000000000004d4adec97e3e11693f65dedc2d1e6bec784eb2f100000000000000000000000000000000000000000000000000000000001e84800000000000000000000000004d4adec97e3e11693f65dedc2d1e6bec784eb2f100000000000000000000000000000000000000000000000000000000000f4240",
          "blockHash": "0x6fb6942cff569f284bf7c7063ea4e44e0a22ba948cf126971ebb7aa401892b5b",
          "blockNumber": "0x2b",
          "blockTimestamp": "0x696675c8",
          "transactionHash": "0xfe2cf25c947be2856f544b9cf468d62266dfdcaf9760a18dc70f21bdbe4270b1",
          "transactionIndex": "0x0",
          "logIndex": "0x3",
          "removed": false
        }
      ],
      "logsBloom": "0x00000100000000000040000000004000000002000000000800000000000080000000000000000200000000000000000200000000000000000002000000200000000002000000000004000002000000000002000000080000000000000000000000000000000800004000200000000000000000000000002000000000000000000008008000000000000000000000000000000000000000000000000000000000000000000000800000000002000000000000000200000000000000000000000010000000400000000020000000000000000000000200000000000000000000220000000000000000000000000000100000000000000000000000000002004000",
      "type": "0x0",
      "transactionHash": "0xfe2cf25c947be2856f544b9cf468d62266dfdcaf9760a18dc70f21bdbe4270b1",
      "transactionIndex": "0x0",
      "blockHash": "0x6fb6942cff569f284bf7c7063ea4e44e0a22ba948cf126971ebb7aa401892b5b",
      "blockNumber": "0x2b",
      "gasUsed": "0x212aa",
      "effectiveGasPrice": "0x3b9aca00",
      "blobGasPrice": "0x1",
      "from": "0xd289d1387ae1033a703842d69501d5bec5a6f04e",
      "to": "0x048255dfef2ebfa7307058ae475a3e2f5ee0df46",
      "contractAddress": null
    },
    {
      "status": "0x1",
      "cumulativeGasUsed": "0x6994",
      "logs": [],
      "logsBloom": "0x00000000000000000000000000000000000000000000000000000000000000000000000000000000000000000000000000000000000000000000000000000000000000000000000000000000000000000000000000000000000000000000000000000000000000000000000000000000000000000000000000000000000000000000000000000000000000000000000000000000000000000000000000000000000000000000000000000000000000000000000000000000000000000000000000000000000000000000000000000000000000000000000000000000000000000000000000000000000000000000000000000000000000000000000000000000",
      "type": "0x0",
      "transactionHash": "0xd4a3704fdadaf1ab9481eb5a8029329668b8b0b70b4a0ad0acbe10760127fa8f",
      "transactionIndex": "0x0",
      "blockHash": "0x64e40442b7c7c93ae9df92c23bd6e142f4da6fec1fed8efc7341728569130722",
      "blockNumber": "0x2c",
      "gasUsed": "0x6994",
      "effectiveGasPrice": "0x3b9aca00",
      "blobGasPrice": "0x1",
      "from": "0xd289d1387ae1033a703842d69501d5bec5a6f04e",
      "to": "0xf86c23c1e883ee3b820fb9be75ff91c9a49eae75",
      "contractAddress": null
    },
    {
      "status": "0x1",
      "cumulativeGasUsed": "0x5fd8",
      "logs": [],
      "logsBloom": "0x00000000000000000000000000000000000000000000000000000000000000000000000000000000000000000000000000000000000000000000000000000000000000000000000000000000000000000000000000000000000000000000000000000000000000000000000000000000000000000000000000000000000000000000000000000000000000000000000000000000000000000000000000000000000000000000000000000000000000000000000000000000000000000000000000000000000000000000000000000000000000000000000000000000000000000000000000000000000000000000000000000000000000000000000000000000",
      "type": "0x0",
      "transactionHash": "0xdda00ba795aaf750a19ff23dd6a7124f10b25d69deb1562e29881bcfeb1a3c35",
      "transactionIndex": "0x0",
      "blockHash": "0x5c67062878ea6b4c344d0e7fd2475d1c847833dba90f39b24ac6bdd25de3404b",
      "blockNumber": "0x2d",
      "gasUsed": "0x5fd8",
      "effectiveGasPrice": "0x3b9aca00",
      "blobGasPrice": "0x1",
      "from": "0xd289d1387ae1033a703842d69501d5bec5a6f04e",
      "to": "0xf86c23c1e883ee3b820fb9be75ff91c9a49eae75",
      "contractAddress": null
    },
    {
      "status": "0x1",
      "cumulativeGasUsed": "0x52d69",
      "logs": [
        {
          "address": "0x048255dfef2ebfa7307058ae475a3e2f5ee0df46",
          "topics": [
            "0x6f81b8ad0780a0febc687a3a73b181433722b4be30f7f0a024169f5161267287",
            "0xceee63362ce5c16402dad8fd4e3ca0bcabf2e89d099a04b8f644d62aecf8acf0",
            "0x000000000000000000000000d289d1387ae1033a703842d69501d5bec5a6f04e"
          ],
          "data": "0x0000000000000000000000000000000000000000000000000000000000000000000000000000000000000000f86c23c1e883ee3b820fb9be75ff91c9a49eae7500000000000000000000000000000000000000000000000000000000000f4240000000000000000000000000d289d1387ae1033a703842d69501d5bec5a6f04e00000000000000000000000000000000000000000000000000000000696675e500000000000000000000000000000000000000000000000000000000000000c000000000000000000000000000000000000000000000000000000000000000a000000000000000000000000000000000000000000000000000000000000000200000000000000000000000005457e258a09ebfb4a2501a9e3d70d37f54f923f300000000000000000000000000000000000000000000000000000000000000400000000000000000000000000000000000000000000000000000000000000002beef000000000000000000000000000000000000000000000000000000000000",
          "blockHash": "0x09e9a0695cd1781635474011f1abf28fbd4ba626d9a081207fb8be97d8edb45f",
          "blockNumber": "0x2e",
          "blockTimestamp": "0x696675cb",
          "transactionHash": "0x1c5e38668daca9feb261eafc6fcc7fd6dd2553c61a428b87c85aad222f2f1b6e",
          "transactionIndex": "0x0",
          "logIndex": "0x0",
          "removed": false
        },
        {
          "address": "0x048255dfef2ebfa7307058ae475a3e2f5ee0df46",
          "topics": [
            "0x78160f0b1b2b32b52a0076d8f0f70888687ba702a4d993d55ac8d9327d57a127",
            "0x000000000000000000000000000000000000000000000000000000000000000e",
            "0xfb3e5a9683ff479d3f96fed106d8c4220585da07babe5bc8a028f3c098aedcd9",
            "0xf89f96b5a20179e2267b1b61cf709c8a356443b4d0b4bc5f414344f74a9bb5f5"
          ],
          "data": "0x6f81b8ad0780a0febc687a3a73b181433722b4be30f7f0a024169f5161267287000000000000000000000000000000000000000000000000000000000000004000000000000000000000000000000000000000000000000000000000000001c0ceee63362ce5c16402dad8fd4e3ca0bcabf2e89d099a04b8f644d62aecf8acf0000000000000000000000000d289d1387ae1033a703842d69501d5bec5a6f04e0000000000000000000000000000000000000000000000000000000000000000000000000000000000000000f86c23c1e883ee3b820fb9be75ff91c9a49eae7500000000000000000000000000000000000000000000000000000000000f4240000000000000000000000000d289d1387ae1033a703842d69501d5bec5a6f04e00000000000000000000000000000000000000000000000000000000696675e5000000000000000000000000000000000000000000000000000000000000010000000000000000000000000000000000000000000000000000000000000000a000000000000000000000000000000000000000000000000000000000000000200000000000000000000000005457e258a09ebfb4a2501a9e3d70d37f54f923f300000000000000000000000000000000000000000000000000000000000000400000000000000000000000000000000000000000000000000000000000000002beef000000000000000000000000000000000000000000000000000000000000",
          "blockHash": "0x09e9a0695cd1781635474011f1abf28fbd4ba626d9a081207fb8be97d8edb45f",
          "blockNumber": "0x2e",
          "blockTimestamp": "0x696675cb",
          "transactionHash": "0x1c5e38668daca9feb261eafc6fcc7fd6dd2553c61a428b87c85aad222f2f1b6e",
          "transactionIndex": "0x0",
          "logIndex": "0x1",
          "removed": false
        },
        {
          "address": "0x048255dfef2ebfa7307058ae475a3e2f5ee0df46",
          "topics": [
            "0x0544741ff6f2708047138c8f3a68abb994e628666dba785f685ff1035274f9fb",
            "0xceee63362ce5c16402dad8fd4e3ca0bcabf2e89d099a04b8f644d62aecf8acf0",
            "0x000000000000000000000000d289d1387ae1033a703842d69501d5bec5a6f04e"
          ],
          "data": "0x000000000000000000000000f86c23c1e883ee3b820fb9be75ff91c9a49eae7500000000000000000000000000000000000000000000000000000000000f4240",
          "blockHash": "0x09e9a0695cd1781635474011f1abf28fbd4ba626d9a081207fb8be97d8edb45f",
          "blockNumber": "0x2e",
          "blockTimestamp": "0x696675cb",
          "transactionHash": "0x1c5e38668daca9feb261eafc6fcc7fd6dd2553c61a428b87c85aad222f2f1b6e",
          "transactionIndex": "0x0",
          "logIndex": "0x2",
          "removed": false
        },
        {
          "address": "0x048255dfef2ebfa7307058ae475a3e2f5ee0df46",
          "topics": [
            "0x78160f0b1b2b32b52a0076d8f0f70888687ba702a4d993d55ac8d9327d57a127",
            "0x000000000000000000000000000000000000000000000000000000000000000f",
            "0xf89f96b5a20179e2267b1b61cf709c8a356443b4d0b4bc5f414344f74a9bb5f5",
            "0x4d32a94791afa5902a69b29b4b44d1aa165a332aa64dec3ab6ca8c72d8b56ffc"
          ],
          "data": "0x0544741ff6f2708047138c8f3a68abb994e628666dba785f685ff1035274f9fb00000000000000000000000000000000000000000000000000000000000000400000000000000000000000000000000000000000000000000000000000000080ceee63362ce5c16402dad8fd4e3ca0bcabf2e89d099a04b8f644d62aecf8acf0000000000000000000000000d289d1387ae1033a703842d69501d5bec5a6f04e000000000000000000000000f86c23c1e883ee3b820fb9be75ff91c9a49eae7500000000000000000000000000000000000000000000000000000000000f4240",
          "blockHash": "0x09e9a0695cd1781635474011f1abf28fbd4ba626d9a081207fb8be97d8edb45f",
          "blockNumber": "0x2e",
          "blockTimestamp": "0x696675cb",
          "transactionHash": "0x1c5e38668daca9feb261eafc6fcc7fd6dd2553c61a428b87c85aad222f2f1b6e",
          "transactionIndex": "0x0",
          "logIndex": "0x3",
          "removed": false
        }
      ],
      "logsBloom": "0x00080000000000000000000000000000000000000000000000000000000000000000400000000000000000000000000000000000000000000000000002200000000000000000000804000000000000000004000100000000000000000002000000004000000800004000000000000000000000000000000000000000008000000008008000000800000000400000000008000000000080000000000000000000000000000000808000000000000000000000200200000020200000000000000000000000400000000008020000000000000000000200000000000000000001000000000200000000000000000000100000000000000000000000000000004000",
      "type": "0x0",
      "transactionHash": "0x1c5e38668daca9feb261eafc6fcc7fd6dd2553c61a428b87c85aad222f2f1b6e",
      "transactionIndex": "0x0",
      "blockHash": "0x09e9a0695cd1781635474011f1abf28fbd4ba626d9a081207fb8be97d8edb45f",
      "blockNumber": "0x2e",
      "gasUsed": "0x52d69",
      "effectiveGasPrice": "0x3b9aca00",
      "blobGasPrice": "0x1",
      "from": "0xd289d1387ae1033a703842d69501d5bec5a6f04e",
      "to": "0x048255dfef2ebfa7307058ae475a3e2f5ee0df46",
      "contractAddress": null
    },
    {
      "status": "0x1",
      "cumulativeGasUsed": "0x6994",
      "logs": [],
      "logsBloom": "0x00000000000000000000000000000000000000000000000000000000000000000000000000000000000000000000000000000000000000000000000000000000000000000000000000000000000000000000000000000000000000000000000000000000000000000000000000000000000000000000000000000000000000000000000000000000000000000000000000000000000000000000000000000000000000000000000000000000000000000000000000000000000000000000000000000000000000000000000000000000000000000000000000000000000000000000000000000000000000000000000000000000000000000000000000000000",
      "type": "0x0",
      "transactionHash": "0x6d35402e2703be82d2133fccdade5237b8753dc9d95da3721f36299c0bd53a04",
      "transactionIndex": "0x0",
      "blockHash": "0xfb8d88ab70b4edc81360c390680c6400414f57a905bf9d453aabf333ced9a68c",
      "blockNumber": "0x2f",
      "gasUsed": "0x6994",
      "effectiveGasPrice": "0x3b9aca00",
      "blobGasPrice": "0x1",
      "from": "0xd289d1387ae1033a703842d69501d5bec5a6f04e",
      "to": "0x4d4adec97e3e11693f65dedc2d1e6bec784eb2f1",
      "contractAddress": null
    },
    {
      "status": "0x1",
      "cumulativeGasUsed": "0x5fd8",
      "logs": [],
      "logsBloom": "0x00000000000000000000000000000000000000000000000000000000000000000000000000000000000000000000000000000000000000000000000000000000000000000000000000000000000000000000000000000000000000000000000000000000000000000000000000000000000000000000000000000000000000000000000000000000000000000000000000000000000000000000000000000000000000000000000000000000000000000000000000000000000000000000000000000000000000000000000000000000000000000000000000000000000000000000000000000000000000000000000000000000000000000000000000000000",
      "type": "0x0",
      "transactionHash": "0x410f3d33d402bfe278bec9600e518912f489e6cb28503b25cde17c33ec0ae2ef",
      "transactionIndex": "0x0",
      "blockHash": "0x84ce76f5e1de4ab1c5cf66b64a2f4517619aedfa45de66770355733f1d3d889e",
      "blockNumber": "0x30",
      "gasUsed": "0x5fd8",
      "effectiveGasPrice": "0x3b9aca00",
      "blobGasPrice": "0x1",
      "from": "0xd289d1387ae1033a703842d69501d5bec5a6f04e",
      "to": "0x4d4adec97e3e11693f65dedc2d1e6bec784eb2f1",
      "contractAddress": null
    },
    {
      "status": "0x1",
      "cumulativeGasUsed": "0x50d2e",
      "logs": [
        {
          "address": "0x048255dfef2ebfa7307058ae475a3e2f5ee0df46",
          "topics": [
            "0x11039d948e58aabf982e09eab3f7ce6db7bf72add1d0b04e63f0697eac16024b",
            "0xee05772a542895427ddf02d6cb47b9027da7949441e78297ad0b8b2608b77382",
            "0x0000000000000000000000008828fd7431d5bb1962d7e067c103b2324fa6bbec",
            "0x00000000000000000000000097629064a9c06865c5b3832f94bb64a8e47bcad7"
          ],
          "data": "0x282866f5067804dadd2e500a0a3d8b5e5d2e5cde385e9ec6a887315613d6f4480000000000000000000000004d4adec97e3e11693f65dedc2d1e6bec784eb2f100000000000000000000000000000000000000000000000000000000000f4240",
          "blockHash": "0x94264038a1716354297a1fec7dd5e71e3263880495fdb220a4098cec6278b883",
          "blockNumber": "0x31",
          "blockTimestamp": "0x696675ce",
          "transactionHash": "0xf7d5132fc61d7c070ea5db5a9782faebee4b9a141685bd448c5ab4723b9bae05",
          "transactionIndex": "0x0",
          "logIndex": "0x0",
          "removed": false
        },
        {
          "address": "0x048255dfef2ebfa7307058ae475a3e2f5ee0df46",
          "topics": [
            "0x78160f0b1b2b32b52a0076d8f0f70888687ba702a4d993d55ac8d9327d57a127",
            "0x0000000000000000000000000000000000000000000000000000000000000010",
            "0x4d32a94791afa5902a69b29b4b44d1aa165a332aa64dec3ab6ca8c72d8b56ffc",
            "0x001292a54e47c86dddb5cb531961a3c3d9f6faa04c755632c6acca5441293b08"
          ],
          "data": "0x11039d948e58aabf982e09eab3f7ce6db7bf72add1d0b04e63f0697eac16024b000000000000000000000000000000000000000000000000000000000000004000000000000000000000000000000000000000000000000000000000000000c0ee05772a542895427ddf02d6cb47b9027da7949441e78297ad0b8b2608b773820000000000000000000000008828fd7431d5bb1962d7e067c103b2324fa6bbec00000000000000000000000097629064a9c06865c5b3832f94bb64a8e47bcad7282866f5067804dadd2e500a0a3d8b5e5d2e5cde385e9ec6a887315613d6f4480000000000000000000000004d4adec97e3e11693f65dedc2d1e6bec784eb2f100000000000000000000000000000000000000000000000000000000000f4240",
          "blockHash": "0x94264038a1716354297a1fec7dd5e71e3263880495fdb220a4098cec6278b883",
          "blockNumber": "0x31",
          "blockTimestamp": "0x696675ce",
          "transactionHash": "0xf7d5132fc61d7c070ea5db5a9782faebee4b9a141685bd448c5ab4723b9bae05",
          "transactionIndex": "0x0",
          "logIndex": "0x1",
          "removed": false
        },
        {
          "address": "0x048255dfef2ebfa7307058ae475a3e2f5ee0df46",
          "topics": [
            "0xc853b9fbc6265708cfc473efd1ce29b19a3616b3edccaeaf71a4a6b778cb010e",
            "0xee05772a542895427ddf02d6cb47b9027da7949441e78297ad0b8b2608b77382"
          ],
          "data": "0x0000000000000000000000000000000000000000000000000000000000002710000000000000000000000000000000000000000000000000000000000000007b00000000000000000000000000000000000000000000000000000000000f1ab5",
          "blockHash": "0x94264038a1716354297a1fec7dd5e71e3263880495fdb220a4098cec6278b883",
          "blockNumber": "0x31",
          "blockTimestamp": "0x696675ce",
          "transactionHash": "0xf7d5132fc61d7c070ea5db5a9782faebee4b9a141685bd448c5ab4723b9bae05",
          "transactionIndex": "0x0",
          "logIndex": "0x2",
          "removed": false
        },
        {
          "address": "0x048255dfef2ebfa7307058ae475a3e2f5ee0df46",
          "topics": [
            "0x78160f0b1b2b32b52a0076d8f0f70888687ba702a4d993d55ac8d9327d57a127",
            "0x0000000000000000000000000000000000000000000000000000000000000011",
            "0x001292a54e47c86dddb5cb531961a3c3d9f6faa04c755632c6acca5441293b08",
            "0xb1f52ec5933fb7337f0d25075bb759c812cfe831052e50bd0b449e31c46a6996"
          ],
          "data": "0xc853b9fbc6265708cfc473efd1ce29b19a3616b3edccaeaf71a4a6b778cb010e00000000000000000000000000000000000000000000000000000000000000400000000000000000000000000000000000000000000000000000000000000080ee05772a542895427ddf02d6cb47b9027da7949441e78297ad0b8b2608b773820000000000000000000000000000000000000000000000000000000000002710000000000000000000000000000000000000000000000000000000000000007b00000000000000000000000000000000000000000000000000000000000f1ab5",
          "blockHash": "0x94264038a1716354297a1fec7dd5e71e3263880495fdb220a4098cec6278b883",
          "blockNumber": "0x31",
          "blockTimestamp": "0x696675ce",
          "transactionHash": "0xf7d5132fc61d7c070ea5db5a9782faebee4b9a141685bd448c5ab4723b9bae05",
          "transactionIndex": "0x0",
          "logIndex": "0x3",
          "removed": false
        },
        {
          "address": "0x048255dfef2ebfa7307058ae475a3e2f5ee0df46",
          "topics": [
            "0x6f81b8ad0780a0febc687a3a73b181433722b4be30f7f0a024169f5161267287",
            "0xee05772a542895427ddf02d6cb47b9027da7949441e78297ad0b8b2608b77382",
            "0x000000000000000000000000d289d1387ae1033a703842d69501d5bec5a6f04e"
          ],
          "data": "0x00000000000000000000000000000000000000000000000000000000000000010000000000000000000000004d4adec97e3e11693f65dedc2d1e6bec784eb2f100000000000000000000000000000000000000000000000000000000000f4240000000000000000000000000d289d1387ae1033a703842d69501d5bec5a6f04e000000000000000000000000000000000000000000000000000000006967c74e00000000000000000000000000000000000000000000000000000000000000c0000000000000000000000000000000000000000000000000000000000000004000000000000000000000000097629064a9c06865c5b3832f94bb64a8e47bcad700000000000000000000000000000000000000000000000000000000000f1ab5",
          "blockHash": "0x94264038a1716354297a1fec7dd5e71e3263880495fdb220a4098cec6278b883",
          "blockNumber": "0x31",
          "blockTimestamp": "0x696675ce",
          "transactionHash": "0xf7d5132fc61d7c070ea5db5a9782faebee4b9a141685bd448c5ab4723b9bae05",
          "transactionIndex": "0x0",
          "logIndex": "0x4",
          "removed": false
        },
        {
          "address": "0x048255dfef2ebfa7307058ae475a3e2f5ee0df46",
          "topics": [
            "0x78160f0b1b2b32b52a0076d8f0f70888687ba702a4d993d55ac8d9327d57a127",
            "0x0000000000000000000000000000000000000000000000000000000000000012",
            "0xb1f52ec5933fb7337f0d25075bb759c812cfe831052e50bd0b449e31c46a6996",
            "0xc393dcc2f4772c8801d0ca7ed6b4630c10b16f49cf67cfb67ecc007bd842f077"
          ],
          "data": "0x6f81b8ad0780a0febc687a3a73b181433722b4be30f7f0a024169f516126728700000000000000000000000000000000000000000000000000000000000000400000000000000000000000000000000000000000000000000000000000000160ee05772a542895427ddf02d6cb47b9027da7949441e78297ad0b8b2608b77382000000000000000000000000d289d1387ae1033a703842d69501d5bec5a6f04e00000000000000000000000000000000000000000000000000000000000000010000000000000000000000004d4adec97e3e11693f65dedc2d1e6bec784eb2f100000000000000000000000000000000000000000000000000000000000f4240000000000000000000000000d289d1387ae1033a703842d69501d5bec5a6f04e000000000000000000000000000000000000000000000000000000006967c74e0000000000000000000000000000000000000000000000000000000000000100000000000000000000000000000000000000000000000000000000000000004000000000000000000000000097629064a9c06865c5b3832f94bb64a8e47bcad700000000000000000000000000000000000000000000000000000000000f1ab5",
          "blockHash": "0x94264038a1716354297a1fec7dd5e71e3263880495fdb220a4098cec6278b883",
          "blockNumber": "0x31",
          "blockTimestamp": "0x696675ce",
          "transactionHash": "0xf7d5132fc61d7c070ea5db5a9782faebee4b9a141685bd448c5ab4723b9bae05",
          "transactionIndex": "0x0",
          "logIndex": "0x5",
          "removed": false
        },
        {
          "address": "0x048255dfef2ebfa7307058ae475a3e2f5ee0df46",
          "topics": [
            "0xbc3f7b7e77a395c156c24db8a8a7850209b2df71a2561292eea221e32bf5d467",
            "0xee05772a542895427ddf02d6cb47b9027da7949441e78297ad0b8b2608b77382",
            "0x000000000000000000000000d289d1387ae1033a703842d69501d5bec5a6f04e"
          ],
          "data": "0x00000000000000000000000000000000000000000000000000000000000f4240",
          "blockHash": "0x94264038a1716354297a1fec7dd5e71e3263880495fdb220a4098cec6278b883",
          "blockNumber": "0x31",
          "blockTimestamp": "0x696675ce",
          "transactionHash": "0xf7d5132fc61d7c070ea5db5a9782faebee4b9a141685bd448c5ab4723b9bae05",
          "transactionIndex": "0x0",
          "logIndex": "0x6",
          "removed": false
        },
        {
          "address": "0x048255dfef2ebfa7307058ae475a3e2f5ee0df46",
          "topics": [
            "0x78160f0b1b2b32b52a0076d8f0f70888687ba702a4d993d55ac8d9327d57a127",
            "0x0000000000000000000000000000000000000000000000000000000000000013",
            "0xc393dcc2f4772c8801d0ca7ed6b4630c10b16f49cf67cfb67ecc007bd842f077",
            "0x385e97a560314e7759ed0870245585b74103990e33c527e2ebcd56069183bab5"
          ],
          "data": "0xbc3f7b7e77a395c156c24db8a8a7850209b2df71a2561292eea221e32bf5d46700000000000000000000000000000000000000000000000000000000000000400000000000000000000000000000000000000000000000000000000000000060ee05772a542895427ddf02d6cb47b9027da7949441e78297ad0b8b2608b77382000000000000000000000000d289d1387ae1033a703842d69501d5bec5a6f04e00000000000000000000000000000000000000000000000000000000000f4240",
          "blockHash": "0x94264038a1716354297a1fec7dd5e71e3263880495fdb220a4098cec6278b883",
          "blockNumber": "0x31",
          "blockTimestamp": "0x696675ce",
          "transactionHash": "0xf7d5132fc61d7c070ea5db5a9782faebee4b9a141685bd448c5ab4723b9bae05",
          "transactionIndex": "0x0",
          "logIndex": "0x7",
          "removed": false
        }
      ],
      "logsBloom": "0x200c0080180000002000000000800000000000000800002000000000000000000000000040810000000000000000000000000000000000000000000001300000000000000000000004000000000010000800000104000004000000000000000000004000500800004000000000840000000000024000000400004000040000000000000000000000000000000000140010000100000000000000000000000000000000000000008000000000000000000000200200000040202000000400000100001000400000000400000000000000000000010200000000000000000000040000002000000000000000000000100000000000000000000000000000004002",
      "type": "0x0",
      "transactionHash": "0xf7d5132fc61d7c070ea5db5a9782faebee4b9a141685bd448c5ab4723b9bae05",
      "transactionIndex": "0x0",
      "blockHash": "0x94264038a1716354297a1fec7dd5e71e3263880495fdb220a4098cec6278b883",
      "blockNumber": "0x31",
      "gasUsed": "0x50d2e",
      "effectiveGasPrice": "0x3b9aca00",
      "blobGasPrice": "0x1",
      "from": "0xd289d1387ae1033a703842d69501d5bec5a6f04e",
      "to": "0x048255dfef2ebfa7307058ae475a3e2f5ee0df46",
      "contractAddress": null
    },
    {
      "status": "0x1",
      "cumulativeGasUsed": "0xac60",
      "logs": [],
      "logsBloom": "0x00000000000000000000000000000000000000000000000000000000000000000000000000000000000000000000000000000000000000000000000000000000000000000000000000000000000000000000000000000000000000000000000000000000000000000000000000000000000000000000000000000000000000000000000000000000000000000000000000000000000000000000000000000000000000000000000000000000000000000000000000000000000000000000000000000000000000000000000000000000000000000000000000000000000000000000000000000000000000000000000000000000000000000000000000000000",
      "type": "0x0",
      "transactionHash": "0x7e8b51ddfb9b1468097cd2205ecbbd894da63a9224b97e3aecc3c85187a097b5",
      "transactionIndex": "0x0",
      "blockHash": "0x6d6e04d953c03592dd0820949b45a088374f7c9ee047d8ba10a916a4b41fbaf0",
      "blockNumber": "0x32",
      "gasUsed": "0xac60",
      "effectiveGasPrice": "0x3b9aca00",
      "blobGasPrice": "0x1",
      "from": "0xd289d1387ae1033a703842d69501d5bec5a6f04e",
      "to": "0x4d4adec97e3e11693f65dedc2d1e6bec784eb2f1",
      "contractAddress": null
    },
    {
      "status": "0x1",
      "cumulativeGasUsed": "0x3d7f7",
      "logs": [
        {
          "address": "0x8828fd7431d5bb1962d7e067c103b2324fa6bbec",
          "topics": [
            "0x7391f14355eff1e559e381f5bf49886a77da7c4fdd33c6fc2e0142269c561c59",
            "0x9b15e8f010c03dd1859359023f3277124cd24f2b7caadece8bf12b36e0d3c022",
            "0x7eb964445de6c2e66bcec24d55b50c465b3b27091b6d503c1897ac7d99ecbe35",
            "0x38cb7bc9535f8b89744a14dd2acfe7dcc993eb5f668dfbcb95bdf21a839e2ec0"
          ],
          "data": "0x805137159b1f1225efc7ae36f6b216b76c0e9bed085c4220b2f702fde8defd0400000000000000000000000000000000000000000000000000000000000000de000000000000000000000000048255dfef2ebfa7307058ae475a3e2f5ee0df46000000000000000000000000000000000000000000000000000000000000000100000000000000000000000000000000000000000000000000000000009896ef0000000000000000000000004d4adec97e3e11693f65dedc2d1e6bec784eb2f10000000000000000000000004d4adec97e3e11693f65dedc2d1e6bec784eb2f10000000000000000000000004ebbaa5bb917c960140992a66a036afadeb623cd0000000000000000000000004ebbaa5bb917c960140992a66a036afadeb623cd",
          "blockHash": "0x7aa1ec8c5a426cb1d5d8001b4dfd2c8710c5e54edf2c969875b02ab1de8a0886",
          "blockNumber": "0x33",
          "blockTimestamp": "0x696675d0",
          "transactionHash": "0xe1f72a71fd02b5a9475b037f7a09ca0b360bdcf63dc30790a6107faa1b0e9ecf",
          "transactionIndex": "0x0",
          "logIndex": "0x0",
          "removed": false
        },
        {
          "address": "0x8828fd7431d5bb1962d7e067c103b2324fa6bbec",
          "topics": [
            "0x78160f0b1b2b32b52a0076d8f0f70888687ba702a4d993d55ac8d9327d57a127",
            "0x0000000000000000000000000000000000000000000000000000000000000010",
            "0xd446d3f2235a5a0cd691ec26fb8bbb34a8b1b694888ddd471baffe04fce3cc5b",
            "0x66e1679d878d4d6f03e568ee09f56887f843166638bf35d8695adde8a0b8717f"
          ],
          "data": "0x7391f14355eff1e559e381f5bf49886a77da7c4fdd33c6fc2e0142269c561c59000000000000000000000000000000000000000000000000000000000000004000000000000000000000000000000000000000000000000000000000000001809b15e8f010c03dd1859359023f3277124cd24f2b7caadece8bf12b36e0d3c0227eb964445de6c2e66bcec24d55b50c465b3b27091b6d503c1897ac7d99ecbe3538cb7bc9535f8b89744a14dd2acfe7dcc993eb5f668dfbcb95bdf21a839e2ec0805137159b1f1225efc7ae36f6b216b76c0e9bed085c4220b2f702fde8defd0400000000000000000000000000000000000000000000000000000000000000de000000000000000000000000048255dfef2ebfa7307058ae475a3e2f5ee0df46000000000000000000000000000000000000000000000000000000000000000100000000000000000000000000000000000000000000000000000000009896ef0000000000000000000000004d4adec97e3e11693f65dedc2d1e6bec784eb2f10000000000000000000000004d4adec97e3e11693f65dedc2d1e6bec784eb2f10000000000000000000000004ebbaa5bb917c960140992a66a036afadeb623cd0000000000000000000000004ebbaa5bb917c960140992a66a036afadeb623cd",
          "blockHash": "0x7aa1ec8c5a426cb1d5d8001b4dfd2c8710c5e54edf2c969875b02ab1de8a0886",
          "blockNumber": "0x33",
          "blockTimestamp": "0x696675d0",
          "transactionHash": "0xe1f72a71fd02b5a9475b037f7a09ca0b360bdcf63dc30790a6107faa1b0e9ecf",
          "transactionIndex": "0x0",
          "logIndex": "0x1",
          "removed": false
        },
        {
          "address": "0x8828fd7431d5bb1962d7e067c103b2324fa6bbec",
          "topics": [
            "0x488f06a9ca9e19e1dd90c764cc79b765e8a3a089ef27d9a0e39dee21c7643188",
            "0xecdcc8f4cd348572262e01fa4a8fed952549b310c3642f522f25a9d5e2ce261c",
            "0x0000000000000000000000004ebbaa5bb917c960140992a66a036afadeb623cd"
          ],
          "data": "0x000000000000000000000000e007a594267d5b9a4f5bf6fd054579eb82f5a057",
          "blockHash": "0x7aa1ec8c5a426cb1d5d8001b4dfd2c8710c5e54edf2c969875b02ab1de8a0886",
          "blockNumber": "0x33",
          "blockTimestamp": "0x696675d0",
          "transactionHash": "0xe1f72a71fd02b5a9475b037f7a09ca0b360bdcf63dc30790a6107faa1b0e9ecf",
          "transactionIndex": "0x0",
          "logIndex": "0x2",
          "removed": false
        },
        {
          "address": "0x8828fd7431d5bb1962d7e067c103b2324fa6bbec",
          "topics": [
            "0x78160f0b1b2b32b52a0076d8f0f70888687ba702a4d993d55ac8d9327d57a127",
            "0x0000000000000000000000000000000000000000000000000000000000000011",
            "0x66e1679d878d4d6f03e568ee09f56887f843166638bf35d8695adde8a0b8717f",
            "0x674ab417dcefac782b088e701957c7ca69b404a256e5ee5f89d1364090f6bb10"
          ],
          "data": "0x488f06a9ca9e19e1dd90c764cc79b765e8a3a089ef27d9a0e39dee21c764318800000000000000000000000000000000000000000000000000000000000000400000000000000000000000000000000000000000000000000000000000000060ecdcc8f4cd348572262e01fa4a8fed952549b310c3642f522f25a9d5e2ce261c0000000000000000000000004ebbaa5bb917c960140992a66a036afadeb623cd000000000000000000000000e007a594267d5b9a4f5bf6fd054579eb82f5a057",
          "blockHash": "0x7aa1ec8c5a426cb1d5d8001b4dfd2c8710c5e54edf2c969875b02ab1de8a0886",
          "blockNumber": "0x33",
          "blockTimestamp": "0x696675d0",
          "transactionHash": "0xe1f72a71fd02b5a9475b037f7a09ca0b360bdcf63dc30790a6107faa1b0e9ecf",
          "transactionIndex": "0x0",
          "logIndex": "0x3",
          "removed": false
        },
        {
          "address": "0x8828fd7431d5bb1962d7e067c103b2324fa6bbec",
          "topics": [
            "0x2dfcf646f953b41d2cd9d30bcf3f6cda5248efcd7733adff3a25e88f35b8afcb",
            "0x9b15e8f010c03dd1859359023f3277124cd24f2b7caadece8bf12b36e0d3c022",
            "0x000000000000000000000000c5ea444a0f556f5b227ec7447294d91086bb692c",
            "0x0000000000000000000000004d4adec97e3e11693f65dedc2d1e6bec784eb2f1"
          ],
          "data": "0x00000000000000000000000000000000000000000000000000000000009896ef00000000000000000000000000000000000000000000000000000000000000de",
          "blockHash": "0x7aa1ec8c5a426cb1d5d8001b4dfd2c8710c5e54edf2c969875b02ab1de8a0886",
          "blockNumber": "0x33",
          "blockTimestamp": "0x696675d0",
          "transactionHash": "0xe1f72a71fd02b5a9475b037f7a09ca0b360bdcf63dc30790a6107faa1b0e9ecf",
          "transactionIndex": "0x0",
          "logIndex": "0x4",
          "removed": false
        },
        {
          "address": "0x8828fd7431d5bb1962d7e067c103b2324fa6bbec",
          "topics": [
            "0x78160f0b1b2b32b52a0076d8f0f70888687ba702a4d993d55ac8d9327d57a127",
            "0x0000000000000000000000000000000000000000000000000000000000000012",
            "0x674ab417dcefac782b088e701957c7ca69b404a256e5ee5f89d1364090f6bb10",
            "0xc5a3932e5f78c0ef3b81c6d84b46d0c21bf2dd31736c379f21c8c742b83abe91"
          ],
          "data": "0x2dfcf646f953b41d2cd9d30bcf3f6cda5248efcd7733adff3a25e88f35b8afcb000000000000000000000000000000000000000000000000000000000000004000000000000000000000000000000000000000000000000000000000000000a09b15e8f010c03dd1859359023f3277124cd24f2b7caadece8bf12b36e0d3c022000000000000000000000000c5ea444a0f556f5b227ec7447294d91086bb692c0000000000000000000000004d4adec97e3e11693f65dedc2d1e6bec784eb2f100000000000000000000000000000000000000000000000000000000009896ef00000000000000000000000000000000000000000000000000000000000000de",
          "blockHash": "0x7aa1ec8c5a426cb1d5d8001b4dfd2c8710c5e54edf2c969875b02ab1de8a0886",
          "blockNumber": "0x33",
          "blockTimestamp": "0x696675d0",
          "transactionHash": "0xe1f72a71fd02b5a9475b037f7a09ca0b360bdcf63dc30790a6107faa1b0e9ecf",
          "transactionIndex": "0x0",
          "logIndex": "0x5",
          "removed": false
        },
        {
          "address": "0x8828fd7431d5bb1962d7e067c103b2324fa6bbec",
          "topics": [
            "0x2e659081f44c4f56a18b00f3f9d136d7ee8396bc79163c4d61363ddcf4a4cb27",
            "0x9b15e8f010c03dd1859359023f3277124cd24f2b7caadece8bf12b36e0d3c022"
          ],
          "data": "0x000000000000000000000000000000000000000000000000000000000000000100000000000000000000000000000000000000000000000000000000009896ef00000000000000000000000000000000000000000000000000000000009896ef000000000000000000000000000000000000000000000000000000000000000000000000000000000000000000000000000000000000000000000000000000000000000000000000000000000000000000000000000000000000000000000000000000000000000000000000c5ea444a0f556f5b227ec7447294d91086bb692c00000000000000000000000000000000000000000000000000000000009896efc5d2460186f7233c927e7db2dcc703c0e500b653ca82273b7bfad8045d85a470",
          "blockHash": "0x7aa1ec8c5a426cb1d5d8001b4dfd2c8710c5e54edf2c969875b02ab1de8a0886",
          "blockNumber": "0x33",
          "blockTimestamp": "0x696675d0",
          "transactionHash": "0xe1f72a71fd02b5a9475b037f7a09ca0b360bdcf63dc30790a6107faa1b0e9ecf",
          "transactionIndex": "0x0",
          "logIndex": "0x6",
          "removed": false
        },
        {
          "address": "0x8828fd7431d5bb1962d7e067c103b2324fa6bbec",
          "topics": [
            "0x78160f0b1b2b32b52a0076d8f0f70888687ba702a4d993d55ac8d9327d57a127",
            "0x0000000000000000000000000000000000000000000000000000000000000013",
            "0xc5a3932e5f78c0ef3b81c6d84b46d0c21bf2dd31736c379f21c8c742b83abe91",
            "0x04aa3299594a98f85ac7900f54d25cd6fa1dcaa908e00dd1addbb90cd2c71825"
          ],
          "data": "0x2e659081f44c4f56a18b00f3f9d136d7ee8396bc79163c4d61363ddcf4a4cb27000000000000000000000000000000000000000000000000000000000000004000000000000000000000000000000000000000000000000000000000000001409b15e8f010c03dd1859359023f3277124cd24f2b7caadece8bf12b36e0d3c022000000000000000000000000000000000000000000000000000000000000000100000000000000000000000000000000000000000000000000000000009896ef00000000000000000000000000000000000000000000000000000000009896ef000000000000000000000000000000000000000000000000000000000000000000000000000000000000000000000000000000000000000000000000000000000000000000000000000000000000000000000000000000000000000000000000000000000000000000000000c5ea444a0f556f5b227ec7447294d91086bb692c00000000000000000000000000000000000000000000000000000000009896efc5d2460186f7233c927e7db2dcc703c0e500b653ca82273b7bfad8045d85a470",
          "blockHash": "0x7aa1ec8c5a426cb1d5d8001b4dfd2c8710c5e54edf2c969875b02ab1de8a0886",
          "blockNumber": "0x33",
          "blockTimestamp": "0x696675d0",
          "transactionHash": "0xe1f72a71fd02b5a9475b037f7a09ca0b360bdcf63dc30790a6107faa1b0e9ecf",
          "transactionIndex": "0x0",
          "logIndex": "0x7",
          "removed": false
        }
      ],
      "logsBloom": "0x20000001100000000020000000800000000000000800000000000000000002000000000040000000000000010000000080000000000000000000000000200000000000000200000001000004400410800000000400000000080000100000000000000020000810000000000400040808000000004000008080000000040000004000000000040080000000000000040005000100000001028000000000000000200000000000400000000000000000100000000010000040000100000400000800201000000018000400000000000000000000000000000400000000000000000000000000000002000000040020200100020000000000008000000400004100",
      "type": "0x0",
      "transactionHash": "0xe1f72a71fd02b5a9475b037f7a09ca0b360bdcf63dc30790a6107faa1b0e9ecf",
      "transactionIndex": "0x0",
      "blockHash": "0x7aa1ec8c5a426cb1d5d8001b4dfd2c8710c5e54edf2c969875b02ab1de8a0886",
      "blockNumber": "0x33",
      "gasUsed": "0x3d7f7",
      "effectiveGasPrice": "0x3b9aca00",
      "blobGasPrice": "0x1",
      "from": "0xd289d1387ae1033a703842d69501d5bec5a6f04e",
      "to": "0x8828fd7431d5bb1962d7e067c103b2324fa6bbec",
      "contractAddress": null
    }
  ],
  "libraries": [],
  "pending": [],
  "returns": {},
  "timestamp": 1768322487691,
  "chain": 111,
  "commit": "24bfcfb"
}