{
  "transactions": [
    {
      "hash": "0x9641ee03018a3142e7c0d37b05ae7446dba97b61b7bb28357dd48191191f94dc",
      "transactionType": "CREATE",
      "contractName": "ExactBridger",
      "contractAddress": "0x0be19c78706c441de4178a2266a650e47160eda7",
      "function": null,
      "arguments": null,
      "transaction": {
        "from": "0xd289d1387ae1033a703842d69501d5bec5a6f04e",
        "value": "0x0",
        "input": "0x60808060405234601557610521908161001a8239f35b5f80fdfe608080604052600436101561001c575b50361561001a575f80fd5b005b5f3560e01c9081631fce5d1114610478575080632267cb0814610450578063463d1fca146104335780637f8945821461035557806384def41c1461033c57806389c905d21461031f578063a678341d14610302578063b14d361d146100ac5763ff7b2edd1461008b575f61000f565b346100a8575f3660031901126100a8576020600654604051908152f35b5f80fd5b60a03660031901126100a8576004356001600160a01b038116908190036100a8576044356001600160a01b03811691602435918390036100a8576084359267ffffffffffffffff84116100a857366023850112156100a85783600401359167ffffffffffffffff83116100a85736602484870101116100a8576bffffffffffffffffffffffff60a01b5f5416175f55826001556bffffffffffffffffffffffff60a01b600254161760025560643560035561016860045461049a565b601f811161029a575b505f601f8211600114610227578192935f92610219575b50508160011b915f199060031b1c1916176004555b34600555600654806101b5575b602082604051908152f35b5f80808093335af13d15610214573d67ffffffffffffffff811161020057604051906101eb601f8201601f1916602001836104d2565b81525f60203d92013e5b156100a857816101aa565b634e487b7160e01b5f52604160045260245ffd5b6101f5565b602492500101358380610188565b601f1982169360045f525f5160206104f55f395f51905f52915f5b86811061027f5750836001959610610263575b505050811b0160045561019d565b01602401355f19600384901b60f8161c19169055838080610255565b90926020600181926024878701013581550194019101610242565b60045f52601f820160051c5f5160206104f55f395f51905f520190602083106102ed575b601f0160051c5f5160206104f55f395f51905f5201905b8181106102e25750610171565b5f81556001016102d5565b5f5160206104f55f395f51905f5291506102be565b346100a8575f3660031901126100a8576020600354604051908152f35b346100a8575f3660031901126100a8576020600154604051908152f35b346100a85760203660031901126100a857600435600655005b346100a8575f3660031901126100a857604051600454905f6103768361049a565b80835260208301936001811690811561041857506001146103cd575b50906103a28160409303826104d2565b8151928391602083525180918160208501528484015e5f828201840152601f01601f19168101030190f35b91905060045f525f5160206104f55f395f51905f52915f905b8082106103fe575090915081016020016103a2610392565b9192600181602092548385880101520191019092916103e6565b60ff1916855250151560051b820160200190506103a2610392565b346100a8575f3660031901126100a8576020600554604051908152f35b346100a8575f3660031901126100a8576002546040516001600160a01b039091168152602090f35b346100a8575f3660031901126100a8575f546001600160a01b03168152602090f35b90600182811c921680156104c8575b60208310146104b457565b634e487b7160e01b5f52602260045260245ffd5b91607f16916104a9565b90601f8019910116810190811067ffffffffffffffff8211176102005760405256fe8a35acfbc15ff81a39ae7d344fd709f28e8600b4aa8c65c6b64bfe7fe36bd19ba164736f6c634300081b000a",
        "nonce": "0xc",
        "chainId": "0x6f"
      },
      "additionalContracts": [],
      "isFixedGasLimit": false
    },
    {
      "hash": "0x5dff21b1310551aebb70c2ceb7eb2a860e457bb41c7ef6fa3224956ff919324a",
      "transactionType": "CALL",
      "contractName": null,
      "contractAddress": "0x8828fd7431d5bb1962d7e067c103b2324fa6bbec",
      "function": "setBridgers(address,address)",
      "arguments": [
        "0x0bE19C78706c441dE4178a2266a650E47160Eda7",
        "0x0bE19C78706c441dE4178a2266a650E47160Eda7"
      ],
      "transaction": {
        "from": "0xd289d1387ae1033a703842d69501d5bec5a6f04e",
        "to": "0x8828fd7431d5bb1962d7e067c103b2324fa6bbec",
        "value": "0x0",
        "input": "0x2b0f3ee40000000000000000000000000be19c78706c441de4178a2266a650e47160eda70000000000000000000000000be19c78706c441de4178a2266a650e47160eda7",
        "nonce": "0xd",
        "chainId": "0x6f"
      },
      "additionalContracts": [],
      "isFixedGasLimit": false
    },
    {
      "hash": "0x0683791d8c580fe05e947e5fc3f38a502d06668756665d3692d8f46476c347fa",
      "transactionType": "CREATE",
      "contractName": "MockQuoter",
      "contractAddress": "0x481e836be187303c64f269bc7fe2c52f7f7c6eef",
      "function": null,
      "arguments": null,
      "transaction": {
        "from": "0xd289d1387ae1033a703842d69501d5bec5a6f04e",
        "value": "0x0",
        "input": "0x6080806040523460155761015b908161001a8239f35b5f80fdfe6080806040526004361015610012575f80fd5b5f3560e01c90816346ee8d001461010957508063520b9355146100c15780636813d78714610091578063d3072d821461006f5763e21a560214610053575f80fd5b3461006b57602036600319011261006b576004355f55005b5f80fd5b3461006b575f36600319011261006b57602060ff600154166040519015158152f35b3461006b57602036600319011261006b5760043580151580910361006b5760ff8019600154169116176001555f80f35b3461006b57608036600319011261006b576100da610122565b506100e3610138565b5060ff600154166100fa5760205f54604051908152f35b631f6b7cef60e11b5f5260045ffd5b3461006b575f36600319011261006b576020905f548152f35b600435906001600160a01b038216820361006b57565b602435906001600160a01b038216820361006b5756fea164736f6c634300081b000a",
        "nonce": "0xe",
        "chainId": "0x6f"
      },
      "additionalContracts": [],
      "isFixedGasLimit": false
    },
    {
      "hash": "0x5442cb8cd2818da051a292177af933a42052362d1c40030812b4acf29bd49b9e",
      "transactionType": "CALL",
      "contractName": "MockQuoter",
      "contractAddress": "0x481e836be187303c64f269bc7fe2c52f7f7c6eef",
      "function": "setAmountOut(uint256)",
      "arguments": [
        "90000000"
      ],
      "transaction": {
        "from": "0xd289d1387ae1033a703842d69501d5bec5a6f04e",
        "to": "0x481e836be187303c64f269bc7fe2c52f7f7c6eef",
        "value": "0x0",
        "input": "0xe21a560200000000000000000000000000000000000000000000000000000000055d4a80",
        "nonce": "0xf",
        "chainId": "0x6f"
      },
      "additionalContracts": [],
      "isFixedGasLimit": false
    },
    {
      "hash": "0x8070a422200e1dbd8d5a1a9099941348b15ef7a124b2908c74084764599671c8",
      "transactionType": "CALL",
      "contractName": null,
      "contractAddress": "0x8828fd7431d5bb1962d7e067c103b2324fa6bbec",
      "function": "setQuoter(address,address)",
      "arguments": [
        "0x4D4aDEc97e3e11693F65dEDC2D1e6Bec784eB2F1",
        "0x481e836bE187303c64F269Bc7fe2C52F7f7c6eEf"
      ],
      "transaction": {
        "from": "0xd289d1387ae1033a703842d69501d5bec5a6f04e",
        "to": "0x8828fd7431d5bb1962d7e067c103b2324fa6bbec",
        "value": "0x0",
        "input": "0x6264257a0000000000000000000000004d4adec97e3e11693f65dedc2d1e6bec784eb2f1000000000000000000000000481e836be187303c64f269bc7fe2c52f7f7c6eef",
        "nonce": "0x10",
        "chainId": "0x6f"
      },
      "additionalContracts": [],
      "isFixedGasLimit": false
    },
    {
      "hash": "0xd0fa060e851badf79c4d2e11fd36f93fbec136506b91f7bdf8306f30af0f8960",
      "transactionType": "CALL",
      "contractName": null,
      "contractAddress": "0x048255dfef2ebfa7307058ae475a3e2f5ee0df46",
      "function": "setRecommendedIntentFee(uint256,uint256)",
      "arguments": [
        "10000",
        "123"
      ],
      "transaction": {
        "from": "0xd289d1387ae1033a703842d69501d5bec5a6f04e",
        "to": "0x048255dfef2ebfa7307058ae475a3e2f5ee0df46",
        "value": "0x0",
        "input": "0xf2af970b0000000000000000000000000000000000000000000000000000000000002710000000000000000000000000000000000000000000000000000000000000007b",
        "nonce": "0x11",
        "chainId": "0x6f"
      },
      "additionalContracts": [],
      "isFixedGasLimit": false
    },
    {
      "hash": "0xfef75832b829aac2e6452ba53f4a9ba013d943049a463a6b53d6e34ac7b415e4",
      "transactionType": "CREATE",
      "contractName": "MockQuoter",
      "contractAddress": "0x6b0f32ae157cf4f7d9b402c4e243e9088207dd87",
      "function": null,
      "arguments": null,
      "transaction": {
        "from": "0xd289d1387ae1033a703842d69501d5bec5a6f04e",
        "value": "0x0",
        "input": "0x6080806040523460155761015b908161001a8239f35b5f80fdfe6080806040526004361015610012575f80fd5b5f3560e01c90816346ee8d001461010957508063520b9355146100c15780636813d78714610091578063d3072d821461006f5763e21a560214610053575f80fd5b3461006b57602036600319011261006b576004355f55005b5f80fd5b3461006b575f36600319011261006b57602060ff600154166040519015158152f35b3461006b57602036600319011261006b5760043580151580910361006b5760ff8019600154169116176001555f80f35b3461006b57608036600319011261006b576100da610122565b506100e3610138565b5060ff600154166100fa5760205f54604051908152f35b631f6b7cef60e11b5f5260045ffd5b3461006b575f36600319011261006b576020905f548152f35b600435906001600160a01b038216820361006b57565b602435906001600160a01b038216820361006b5756fea164736f6c634300081b000a",
        "nonce": "0x12",
        "chainId": "0x6f"
      },
      "additionalContracts": [],
      "isFixedGasLimit": false
    },
    {
      "hash": "0x52a5b66a31ca101099f01ce93ad3ffff416805838b30081bcfa839b252bed4c0",
      "transactionType": "CALL",
      "contractName": "MockQuoter",
      "contractAddress": "0x6b0f32ae157cf4f7d9b402c4e243e9088207dd87",
      "function": "setAmountOut(uint256)",
      "arguments": [
        "90000000"
      ],
      "transaction": {
        "from": "0xd289d1387ae1033a703842d69501d5bec5a6f04e",
        "to": "0x6b0f32ae157cf4f7d9b402c4e243e9088207dd87",
        "value": "0x0",
        "input": "0xe21a560200000000000000000000000000000000000000000000000000000000055d4a80",
        "nonce": "0x13",
        "chainId": "0x6f"
      },
      "additionalContracts": [],
      "isFixedGasLimit": false
    },
    {
      "hash": "0xd22176e8ccd207a296ae7f951f4d5aca52ce6df4d466a5cf64fc80978b22b71e",
      "transactionType": "CALL",
      "contractName": null,
      "contractAddress": "0x8828fd7431d5bb1962d7e067c103b2324fa6bbec",
      "function": "setQuoter(address,address)",
      "arguments": [
        "0x4D4aDEc97e3e11693F65dEDC2D1e6Bec784eB2F1",
        "0x6b0f32ae157CF4F7d9B402c4e243E9088207dD87"
      ],
      "transaction": {
        "from": "0xd289d1387ae1033a703842d69501d5bec5a6f04e",
        "to": "0x8828fd7431d5bb1962d7e067c103b2324fa6bbec",
        "value": "0x0",
        "input": "0x6264257a0000000000000000000000004d4adec97e3e11693f65dedc2d1e6bec784eb2f10000000000000000000000006b0f32ae157cf4f7d9b402c4e243e9088207dd87",
        "nonce": "0x14",
        "chainId": "0x6f"
      },
      "additionalContracts": [],
      "isFixedGasLimit": false
    },
    {
      "hash": "0x0cbf907f623c63537dbd7aa5982b4f17aeadb123eb8f16e7137f38ff384e6ea7",
      "transactionType": "CREATE",
      "contractName": "MockTransportBridger",
      "contractAddress": "0xc5ea444a0f556f5b227ec7447294d91086bb692c",
      "function": null,
      "arguments": null,
      "transaction": {
        "from": "0xd289d1387ae1033a703842d69501d5bec5a6f04e",
        "value": "0x0",
        "input": "0x60808060405234601557610507908161001a8239f35b5f80fdfe6080806040526004361015610012575f80fd5b5f905f3560e01c9081632c368377146103fd5750806347799da8146102d45763b14d361d1461003f575f80fd5b60a03660031901126102d1576004356001600160a01b038116908190036102cf576044356001600160a01b03811691602435918390036102cb576084359267ffffffffffffffff84116102c757366023850112156102c75783600401359067ffffffffffffffff82116102c35736602483870101116102c3576040519260c0840184811067ffffffffffffffff8211176102af5760405283526020830184815260408401918252866020606086019460643586528060246040519a61010d85601f19601f860116018d6104c4565b828c5201838b0137880101526080840186905260a08401878152935187546001600160a01b039182166001600160a01b0319918216178955915160015591516002805491909316911617905551600355825167ffffffffffffffff811161029b5761017960045461048c565b601f8111610238575b5060209485906001601f8411146101d7579482939495926101cc575b50508160011b915f199060031b1c1916176004555b51151560ff801960055416911617600555604051908152f35b015190505f8061019e565b90601f1983169560048352818320925b878110610221575083600195969710610209575b505050811b016004556101b3565b01515f1960f88460031b161c191690555f80806101fb565b9192886001819286850151815501940192016101e7565b600486527f8a35acfbc15ff81a39ae7d344fd709f28e8600b4aa8c65c6b64bfe7fe36bd19b601f830160051c81019160208410610291575b601f0160051c01905b8181106102865750610182565b868155600101610279565b9091508190610270565b634e487b7160e01b85526041600452602485fd5b634e487b7160e01b88526041600452602488fd5b8580fd5b8480fd5b8380fd5b505b80fd5b50346102d157806003193601126102d157805460015460025460035460405160045493946001600160a01b03908116949316918691906103138561048c565b8083526020830195600181169081156103e2575060011461038c575b5061033f8260e0989903836104c4565b60ff6005541693604051988997885260208801526040870152606086015260c060808601525180938160c08701528686015e838301850152151560a0830152601f01601f19168101030190f35b600484529750827f8a35acfbc15ff81a39ae7d344fd709f28e8600b4aa8c65c6b64bfe7fe36bd19b5b8982106103cc57508201602001975061033f61032f565b60018160209254838588010152019101906103b5565b60ff1916875250151560051b8201602001975061033f61032f565b905034610488575f3660031901126104885760055460ff81166104885760ff191660019081176005555f546002549154916001600160a01b039081169116803b1561048857835f604492819583956340c10f1960e01b8552600485015260248401525af1801561047d5761046f575080f35b61047b91505f906104c4565b005b6040513d5f823e3d90fd5b5f80fd5b90600182811c921680156104ba575b60208310146104a657565b634e487b7160e01b5f52602260045260245ffd5b91607f169161049b565b90601f8019910116810190811067ffffffffffffffff8211176104e657604052565b634e487b7160e01b5f52604160045260245ffdfea164736f6c634300081b000a",
        "nonce": "0x15",
        "chainId": "0x6f"
      },
      "additionalContracts": [],
      "isFixedGasLimit": false
    },
    {
      "hash": "0x513c988ae0f0a9d492aa9892b44ecb80d51d6f5440660b7c21ac40ebabac0706",
      "transactionType": "CALL",
      "contractName": null,
      "contractAddress": "0x8828fd7431d5bb1962d7e067c103b2324fa6bbec",
      "function": "setBridgers(address,address)",
      "arguments": [
        "0xC5EA444a0F556f5B227ec7447294d91086BB692c",
        "0xC5EA444a0F556f5B227ec7447294d91086BB692c"
      ],
      "transaction": {
        "from": "0xd289d1387ae1033a703842d69501d5bec5a6f04e",
        "to": "0x8828fd7431d5bb1962d7e067c103b2324fa6bbec",
        "value": "0x0",
        "input": "0x2b0f3ee4000000000000000000000000c5ea444a0f556f5b227ec7447294d91086bb692c000000000000000000000000c5ea444a0f556f5b227ec7447294d91086bb692c",
        "nonce": "0x16",
        "chainId": "0x6f"
      },
      "additionalContracts": [],
      "isFixedGasLimit": false
    },
    {
      "hash": "0xed9ff6741db10b3045ced5a8c60ac486d1a21c494a4d492898e20dab57c564ef",
      "transactionType": "CALL",
      "contractName": null,
      "contractAddress": "0x4d4adec97e3e11693f65dedc2d1e6bec784eb2f1",
      "function": "mint(address,uint256)",
      "arguments": [
        "0x2023A9aE4D68FEA5B1Bef01F207b249c9f2cECBf",
        "123000000"
      ],
      "transaction": {
        "from": "0xd289d1387ae1033a703842d69501d5bec5a6f04e",
        "to": "0x4d4adec97e3e11693f65dedc2d1e6bec784eb2f1",
        "value": "0x0",
        "input": "0x40c10f190000000000000000000000002023a9ae4d68fea5b1bef01f207b249c9f2cecbf000000000000000000000000000000000000000000000000000000000754d4c0",
        "nonce": "0x17",
        "chainId": "0x6f"
      },
      "additionalContracts": [],
      "isFixedGasLimit": false
    },
    {
      "hash": "0x7c502ac501942dd735dc0196df91cdd500c49f19f4e20e4085b732afdc2226c7",
      "transactionType": "CALL",
      "contractName": null,
      "contractAddress": "0x8828fd7431d5bb1962d7e067c103b2324fa6bbec",
      "function": "pullFromReceiver((uint256,address,bool,bytes32,bytes32,uint256,address,address,(address,uint256,bytes)[],bytes))",
      "arguments": [
        "(111, 0xD59d27B9172aD056Cb5C008Dc2BbEFe702123A55, false, 0x0000000000000000000000000000000000000000000000000000000000000000, 0x0000000000000000000000000000000000000000000000000000000000000001, 0, 0x4D4aDEc97e3e11693F65dEDC2D1e6Bec784eB2F1, 0x4D4aDEc97e3e11693F65dEDC2D1e6Bec784eB2F1, [], 0x)"
      ],
      "transaction": {
        "from": "0xd289d1387ae1033a703842d69501d5bec5a6f04e",
        "to": "0x8828fd7431d5bb1962d7e067c103b2324fa6bbec",
        "value": "0x0",
        "input": "0x1ad1087b0000000000000000000000000000000000000000000000000000000000000020000000000000000000000000000000000000000000000000000000000000006f000000000000000000000000d59d27b9172ad056cb5c008dc2bbefe702123a5500000000000000000000000000000000000000000000000000000000000000000000000000000000000000000000000000000000000000000000000000000000000000000000000000000000000000000000000000000000000000000000000100000000000000000000000000000000000000000000000000000000000000000000000000000000000000004d4adec97e3e11693f65dedc2d1e6bec784eb2f10000000000000000000000004d4adec97e3e11693f65dedc2d1e6bec784eb2f10000000000000000000000000000000000000000000000000000000000000140000000000000000000000000000000000000000000000000000000000000016000000000000000000000000000000000000000000000000000000000000000000000000000000000000000000000000000000000000000000000000000000000",
        "nonce": "0x18",
        "chainId": "0x6f"
      },
      "additionalContracts": [],
      "isFixedGasLimit": false
    },
    {
      "hash": "0x36d01de7490a4bb86e8cf80cb286ddabd66ba87a04de7c38e917290146251b60",
      "transactionType": "CALL",
      "contractName": null,
      "contractAddress": "0x4d4adec97e3e11693f65dedc2d1e6bec784eb2f1",
      "function": "mint(address,uint256)",
      "arguments": [
        "0x2023A9aE4D68FEA5B1Bef01F207b249c9f2cECBf",
        "100000000"
      ],
      "transaction": {
        "from": "0xd289d1387ae1033a703842d69501d5bec5a6f04e",
        "to": "0x4d4adec97e3e11693f65dedc2d1e6bec784eb2f1",
        "value": "0x0",
        "input": "0x40c10f190000000000000000000000002023a9ae4d68fea5b1bef01f207b249c9f2cecbf0000000000000000000000000000000000000000000000000000000005f5e100",
        "nonce": "0x19",
        "chainId": "0x6f"
      },
      "additionalContracts": [],
      "isFixedGasLimit": false
    },
    {
      "hash": "0xaedae0178498b2a31bbe450105e800c9fe3ec7f30955749b5cdc3c7afe91bcbf",
      "transactionType": "CALL",
      "contractName": null,
      "contractAddress": "0x8828fd7431d5bb1962d7e067c103b2324fa6bbec",
      "function": "pullFromReceiver((uint256,address,bool,bytes32,bytes32,uint256,address,address,(address,uint256,bytes)[],bytes))",
      "arguments": [
        "(111, 0xD59d27B9172aD056Cb5C008Dc2BbEFe702123A55, false, 0x0000000000000000000000000000000000000000000000000000000000000000, 0x0000000000000000000000000000000000000000000000000000000000000002, 0, 0x4D4aDEc97e3e11693F65dEDC2D1e6Bec784eB2F1, 0xF86C23C1E883ee3B820FB9BE75FF91C9A49EaE75, [(0xF86C23C1E883ee3B820FB9BE75FF91C9A49EaE75, 0, 0x40c10f190000000000000000000000009feb94832da4e52a75a18e6310640cc2cb702ffe0000000000000000000000000000000000000000000000000000000005f5e100)], 0x)"
      ],
      "transaction": {
        "from": "0xd289d1387ae1033a703842d69501d5bec5a6f04e",
        "to": "0x8828fd7431d5bb1962d7e067c103b2324fa6bbec",
        "value": "0x0",
        "input": "0x1ad1087b0000000000000000000000000000000000000000000000000000000000000020000000000000000000000000000000000000000000000000000000000000006f000000000000000000000000d59d27b9172ad056cb5c008dc2bbefe702123a5500000000000000000000000000000000000000000000000000000000000000000000000000000000000000000000000000000000000000000000000000000000000000000000000000000000000000000000000000000000000000000000000200000000000000000000000000000000000000000000000000000000000000000000000000000000000000004d4adec97e3e11693f65dedc2d1e6bec784eb2f1000000000000000000000000f86c23c1e883ee3b820fb9be75ff91c9a49eae750000000000000000000000000000000000000000000000000000000000000140000000000000000000000000000000000000000000000000000000000000026000000000000000000000000000000000000000000000000000000000000000010000000000000000000000000000000000000000000000000000000000000020000000000000000000000000f86c23c1e883ee3b820fb9be75ff91c9a49eae7500000000000000000000000000000000000000000000000000000000000000000000000000000000000000000000000000000000000000000000000000000060000000000000000000000000000000000000000000000000000000000000004440c10f190000000000000000000000009feb94832da4e52a75a18e6310640cc2cb702ffe0000000000000000000000000000000000000000000000000000000005f5e100000000000000000000000000000000000000000000000000000000000000000000000000000000000000000000000000000000000000000000000000",
        "nonce": "0x1a",
        "chainId": "0x6f"
      },
      "additionalContracts": [],
      "isFixedGasLimit": false
    },
    {
      "hash": "0x673bfefe6dd9f3d7d5ccd91876f25c4f64567d358831d72e246a1f258d337556",
      "transactionType": "CALL",
      "contractName": null,
      "contractAddress": "0xf86c23c1e883ee3b820fb9be75ff91c9a49eae75",
      "function": "mint(address,uint256)",
      "arguments": [
        "0xD289D1387ae1033A703842D69501D5bEc5A6f04e",
        "5000000"
      ],
      "transaction": {
        "from": "0xd289d1387ae1033a703842d69501d5bec5a6f04e",
        "to": "0xf86c23c1e883ee3b820fb9be75ff91c9a49eae75",
        "value": "0x0",
        "input": "0x40c10f19000000000000000000000000d289d1387ae1033a703842d69501d5bec5a6f04e00000000000000000000000000000000000000000000000000000000004c4b40",
        "nonce": "0x1b",
        "chainId": "0x6f"
      },
      "additionalContracts": [],
      "isFixedGasLimit": false
    },
    {
      "hash": "0x1193618ca7c4b0908d28701f918a6c723fe1f7d16a10b1871df5bce92b307e0e",
      "transactionType": "CALL",
      "contractName": null,
      "contractAddress": "0xf86c23c1e883ee3b820fb9be75ff91c9a49eae75",
      "function": "approve(address,uint256)",
      "arguments": [
        "0x048255dfEF2eBFA7307058Ae475a3e2F5ee0df46",
        "115792089237316195423570985008687907853269984665640564039457584007913129639935"
      ],
      "transaction": {
        "from": "0xd289d1387ae1033a703842d69501d5bec5a6f04e",
        "to": "0xf86c23c1e883ee3b820fb9be75ff91c9a49eae75",
        "value": "0x0",
        "input": "0x095ea7b3000000000000000000000000048255dfef2ebfa7307058ae475a3e2f5ee0df46ffffffffffffffffffffffffffffffffffffffffffffffffffffffffffffffff",
        "nonce": "0x1c",
        "chainId": "0x6f"
      },
      "additionalContracts": [],
      "isFixedGasLimit": false
    },
    {
      "hash": "0x840e94975a0d11d2e44fc8c102fab2b0c77d74fa7975fc7ef3493d93cf565436",
      "transactionType": "CALL",
      "contractName": null,
      "contractAddress": "0x048255dfef2ebfa7307058ae475a3e2f5ee0df46",
      "function": "createIntent((uint8,bytes,address,address,uint256),uint256)",
      "arguments": [
        "(0, 0x00000000000000000000000000000000000000000000000000000000000000200000000000000000000000002db97a32d5ce8d79f7b7fdc607584a7a35da5e0d00000000000000000000000000000000000000000000000000000000000000400000000000000000000000000000000000000000000000000000000000000002abcd000000000000000000000000000000000000000000000000000000000000, 0xD289D1387ae1033A703842D69501D5bEc5A6f04e, 0xF86C23C1E883ee3B820FB9BE75FF91C9A49EaE75, 5000000)",
        "1768320806"
      ],
      "transaction": {
        "from": "0xd289d1387ae1033a703842d69501d5bec5a6f04e",
        "to": "0x048255dfef2ebfa7307058ae475a3e2f5ee0df46",
        "value": "0x0",
        "input": "0x549f750500000000000000000000000000000000000000000000000000000000000000400000000000000000000000000000000000000000000000000000000069666f26000000000000000000000000000000000000000000000000000000000000000000000000000000000000000000000000000000000000000000000000000000a0000000000000000000000000d289d1387ae1033a703842d69501d5bec5a6f04e000000000000000000000000f86c23c1e883ee3b820fb9be75ff91c9a49eae7500000000000000000000000000000000000000000000000000000000004c4b4000000000000000000000000000000000000000000000000000000000000000a000000000000000000000000000000000000000000000000000000000000000200000000000000000000000002db97a32d5ce8d79f7b7fdc607584a7a35da5e0d00000000000000000000000000000000000000000000000000000000000000400000000000000000000000000000000000000000000000000000000000000002abcd000000000000000000000000000000000000000000000000000000000000",
        "nonce": "0x1d",
        "chainId": "0x6f"
      },
      "additionalContracts": [],
      "isFixedGasLimit": false
    },
    {
      "hash": "0x05c2317c0bed7f97c38ae0b6aa48987e4d1c267ba584761ea2ba850fb1afe1f8",
      "transactionType": "CALL",
      "contractName": null,
      "contractAddress": "0x4d4adec97e3e11693f65dedc2d1e6bec784eb2f1",
      "function": "mint(address,uint256)",
      "arguments": [
        "0xD289D1387ae1033A703842D69501D5bEc5A6f04e",
        "1000000"
      ],
      "transaction": {
        "from": "0xd289d1387ae1033a703842d69501d5bec5a6f04e",
        "to": "0x4d4adec97e3e11693f65dedc2d1e6bec784eb2f1",
        "value": "0x0",
        "input": "0x40c10f19000000000000000000000000d289d1387ae1033a703842d69501d5bec5a6f04e00000000000000000000000000000000000000000000000000000000000f4240",
        "nonce": "0x1e",
        "chainId": "0x6f"
      },
      "additionalContracts": [],
      "isFixedGasLimit": false
    },
    {
      "hash": "0x6e9d34b314c8968de06008f1c77284b05427bc4f4fbcbe14eea5cd6f91441a9f",
      "transactionType": "CALL",
      "contractName": null,
      "contractAddress": "0x4d4adec97e3e11693f65dedc2d1e6bec784eb2f1",
      "function": "approve(address,uint256)",
      "arguments": [
        "0x048255dfEF2eBFA7307058Ae475a3e2F5ee0df46",
        "115792089237316195423570985008687907853269984665640564039457584007913129639935"
      ],
      "transaction": {
        "from": "0xd289d1387ae1033a703842d69501d5bec5a6f04e",
        "to": "0x4d4adec97e3e11693f65dedc2d1e6bec784eb2f1",
        "value": "0x0",
        "input": "0x095ea7b3000000000000000000000000048255dfef2ebfa7307058ae475a3e2f5ee0df46ffffffffffffffffffffffffffffffffffffffffffffffffffffffffffffffff",
        "nonce": "0x1f",
        "chainId": "0x6f"
      },
      "additionalContracts": [],
      "isFixedGasLimit": false
    },
    {
      "hash": "0x1675b88e4d2d10349807aa9a10d74c81f71c2c823869618d108f42535d03e614",
      "transactionType": "CALL",
      "contractName": null,
      "contractAddress": "0x048255dfef2ebfa7307058ae475a3e2f5ee0df46",
      "function": "claimIntent(bytes32)",
      "arguments": [
        "0x116d6f331e650fc656be220201bb40702f5f20f76ba038f3aa6f6a7bf1afd2f1"
      ],
      "transaction": {
        "from": "0xd289d1387ae1033a703842d69501d5bec5a6f04e",
        "to": "0x048255dfef2ebfa7307058ae475a3e2f5ee0df46",
        "value": "0x0",
        "input": "0x40e624cb116d6f331e650fc656be220201bb40702f5f20f76ba038f3aa6f6a7bf1afd2f1",
        "nonce": "0x20",
        "chainId": "0x6f"
      },
      "additionalContracts": [],
      "isFixedGasLimit": false
    },
    {
      "hash": "0x595680c106d52df9f0bf9c3c73426e9007f0bb5985b65f9337516ed69ef1b049",
      "transactionType": "CALL",
      "contractName": null,
      "contractAddress": "0x8c16d2f19a034b7281254f5656c2d1461c6ceb9a",
      "function": "setTx((bytes32,uint256,uint32,bytes21,bytes21,bytes))",
      "arguments": [
        "(0x0000000000000000000000000000000000000000000000000000000000000000, 0, 0, 0x000000000000000000000000000000000000000000, 0x412db97a32d5ce8d79f7b7fdc607584a7a35da5e0d, 0xabcd)"
      ],
      "transaction": {
        "from": "0xd289d1387ae1033a703842d69501d5bec5a6f04e",
        "to": "0x8c16d2f19a034b7281254f5656c2d1461c6ceb9a",
        "value": "0x0",
        "input": "0x3aec07de00000000000000000000000000000000000000000000000000000000000000200000000000000000000000000000000000000000000000000000000000000000000000000000000000000000000000000000000000000000000000000000000000000000000000000000000000000000000000000000000000000000000000000000000000000000000000000000000000000000000000000000000000000000412db97a32d5ce8d79f7b7fdc607584a7a35da5e0d000000000000000000000000000000000000000000000000000000000000000000000000000000000000c00000000000000000000000000000000000000000000000000000000000000002abcd000000000000000000000000000000000000000000000000000000000000",
        "nonce": "0x21",
        "chainId": "0x6f"
      },
      "additionalContracts": [],
      "isFixedGasLimit": false
    },
    {
      "hash": "0xc6c6bf38b85449689c0110e6b425ee5fc591c21938a2a67e5db0f1bb003de939",
      "transactionType": "CALL",
      "contractName": null,
      "contractAddress": "0x048255dfef2ebfa7307058ae475a3e2f5ee0df46",
      "function": "proveIntentFill(bytes32,bytes[20],bytes,bytes32[],uint256)",
      "arguments": [
        "0x116d6f331e650fc656be220201bb40702f5f20f76ba038f3aa6f6a7bf1afd2f1",
        "[0x, 0x, 0x, 0x, 0x, 0x, 0x, 0x, 0x, 0x, 0x, 0x, 0x, 0x, 0x, 0x, 0x, 0x, 0x, 0x]",
        "0x",
        "[]",
        "0"
      ],
      "transaction": {
        "from": "0xd289d1387ae1033a703842d69501d5bec5a6f04e",
        "to": "0x048255dfef2ebfa7307058ae475a3e2f5ee0df46",
        "value": "0x0",
        "input": "0x5c23cc02116d6f331e650fc656be220201bb40702f5f20f76ba038f3aa6f6a7bf1afd2f100000000000000000000000000000000000000000000000000000000000000a000000000000000000000000000000000000000000000000000000000000005a000000000000000000000000000000000000000000000000000000000000005c00000000000000000000000000000000000000000000000000000000000000000000000000000000000000000000000000000000000000000000000000000028000000000000000000000000000000000000000000000000000000000000002a000000000000000000000000000000000000000000000000000000000000002c000000000000000000000000000000000000000000000000000000000000002e00000000000000000000000000000000000000000000000000000000000000300000000000000000000000000000000000000000000000000000000000000032000000000000000000000000000000000000000000000000000000000000003400000000000000000000000000000000000000000000000000000000000000360000000000000000000000000000000000000000000000000000000000000038000000000000000000000000000000000000000000000000000000000000003a000000000000000000000000000000000000000000000000000000000000003c000000000000000000000000000000000000000000000000000000000000003e00000000000000000000000000000000000000000000000000000000000000400000000000000000000000000000000000000000000000000000000000000042000000000000000000000000000000000000000000000000000000000000004400000000000000000000000000000000000000000000000000000000000000460000000000000000000000000000000000000000000000000000000000000048000000000000000000000000000000000000000000000000000000000000004a000000000000000000000000000000000000000000000000000000000000004c000000000000000000000000000000000000000000000000000000000000004e00000000000000000000000000000000000000000000000000000000000000000000000000000000000000000000000000000000000000000000000000000000000000000000000000000000000000000000000000000000000000000000000000000000000000000000000000000000000000000000000000000000000000000000000000000000000000000000000000000000000000000000000000000000000000000000000000000000000000000000000000000000000000000000000000000000000000000000000000000000000000000000000000000000000000000000000000000000000000000000000000000000000000000000000000000000000000000000000000000000000000000000000000000000000000000000000000000000000000000000000000000000000000000000000000000000000000000000000000000000000000000000000000000000000000000000000000000000000000000000000000000000000000000000000000000000000000000000000000000000000000000000000000000000000000000000000000000000000000000000000000000000000000000000000000000000000000000000000000000000000000000000000000000000000000000000000000000000000000000000000000000000000000000000000000000000000000000000000000000000000000000000000000000000000000000000000000000000000000000000000000000000000000000000000000000000000000000000000000000000000000000000000000000000000000000000000000000000000000000000000000000000000000000000000000000000000000000000000000000000000000000000000000000000000000000000000000000000000000000000000000000000000000000000000000000000000000000000000000000000000000000000000000000000000000000",
        "nonce": "0x22",
        "chainId": "0x6f"
      },
      "additionalContracts": [],
      "isFixedGasLimit": false
    },
    {
      "hash": "0x45b14dbbbe8d1e00e14e30ea6da4a9a9a44c19141c3b1562cf19f7e8314f5ff9",
      "transactionType": "CALL",
      "contractName": null,
      "contractAddress": "0x4d4adec97e3e11693f65dedc2d1e6bec784eb2f1",
      "function": "mint(address,uint256)",
      "arguments": [
        "0xD289D1387ae1033A703842D69501D5bEc5A6f04e",
        "2000000"
      ],
      "transaction": {
        "from": "0xd289d1387ae1033a703842d69501d5bec5a6f04e",
        "to": "0x4d4adec97e3e11693f65dedc2d1e6bec784eb2f1",
        "value": "0x0",
        "input": "0x40c10f19000000000000000000000000d289d1387ae1033a703842d69501d5bec5a6f04e00000000000000000000000000000000000000000000000000000000001e8480",
        "nonce": "0x23",
        "chainId": "0x6f"
      },
      "additionalContracts": [],
      "isFixedGasLimit": false
    },
    {
      "hash": "0x63c0f0c60a979577ffd174ff1f9f4b2a65204330c0cd776dd290ae73505a840f",
      "transactionType": "CALL",
      "contractName": null,
      "contractAddress": "0x4d4adec97e3e11693f65dedc2d1e6bec784eb2f1",
      "function": "approve(address,uint256)",
      "arguments": [
        "0x048255dfEF2eBFA7307058Ae475a3e2F5ee0df46",
        "115792089237316195423570985008687907853269984665640564039457584007913129639935"
      ],
      "transaction": {
        "from": "0xd289d1387ae1033a703842d69501d5bec5a6f04e",
        "to": "0x4d4adec97e3e11693f65dedc2d1e6bec784eb2f1",
        "value": "0x0",
        "input": "0x095ea7b3000000000000000000000000048255dfef2ebfa7307058ae475a3e2f5ee0df46ffffffffffffffffffffffffffffffffffffffffffffffffffffffffffffffff",
        "nonce": "0x24",
        "chainId": "0x6f"
      },
      "additionalContracts": [],
      "isFixedGasLimit": false
    },
    {
      "hash": "0x9c1ec38a514c35d59ca085ae040b6b654acc7401bcb5c0c41485dcb65c9fbc8c",
      "transactionType": "CALL",
      "contractName": null,
      "contractAddress": "0x048255dfef2ebfa7307058ae475a3e2f5ee0df46",
      "function": "createIntent((uint8,bytes,address,address,uint256),uint256)",
      "arguments": [
        "(1, 0x000000000000000000000000558b8fe3b86724d9d9433bf8ec2b1a1b223f9d25000000000000000000000000000000000000000000000000000000000012d687, 0xD289D1387ae1033A703842D69501D5bEc5A6f04e, 0x4D4aDEc97e3e11693F65dEDC2D1e6Bec784eB2F1, 2000000)",
        "1768320806"
      ],
      "transaction": {
        "from": "0xd289d1387ae1033a703842d69501d5bec5a6f04e",
        "to": "0x048255dfef2ebfa7307058ae475a3e2f5ee0df46",
        "value": "0x0",
        "input": "0x549f750500000000000000000000000000000000000000000000000000000000000000400000000000000000000000000000000000000000000000000000000069666f26000000000000000000000000000000000000000000000000000000000000000100000000000000000000000000000000000000000000000000000000000000a0000000000000000000000000d289d1387ae1033a703842d69501d5bec5a6f04e0000000000000000000000004d4adec97e3e11693f65dedc2d1e6bec784eb2f100000000000000000000000000000000000000000000000000000000001e84800000000000000000000000000000000000000000000000000000000000000040000000000000000000000000558b8fe3b86724d9d9433bf8ec2b1a1b223f9d25000000000000000000000000000000000000000000000000000000000012d687",
        "nonce": "0x25",
        "chainId": "0x6f"
      },
      "additionalContracts": [],
      "isFixedGasLimit": false
    },
    {
      "hash": "0x8eeeae544a79cb5a55977e241c9bd38cb18bedcf8158889ea1cc6283aceec8b3",
      "transactionType": "CALL",
      "contractName": null,
      "contractAddress": "0x4d4adec97e3e11693f65dedc2d1e6bec784eb2f1",
      "function": "mint(address,uint256)",
      "arguments": [
        "0xD289D1387ae1033A703842D69501D5bEc5A6f04e",
        "1000000"
      ],
      "transaction": {
        "from": "0xd289d1387ae1033a703842d69501d5bec5a6f04e",
        "to": "0x4d4adec97e3e11693f65dedc2d1e6bec784eb2f1",
        "value": "0x0",
        "input": "0x40c10f19000000000000000000000000d289d1387ae1033a703842d69501d5bec5a6f04e00000000000000000000000000000000000000000000000000000000000f4240",
        "nonce": "0x26",
        "chainId": "0x6f"
      },
      "additionalContracts": [],
      "isFixedGasLimit": false
    },
    {
      "hash": "0x87ccc77118d5e8c30a5d79bef72571ad0d64537c8e2e377ff52106655b51e205",
      "transactionType": "CALL",
      "contractName": null,
      "contractAddress": "0x4d4adec97e3e11693f65dedc2d1e6bec784eb2f1",
      "function": "approve(address,uint256)",
      "arguments": [
        "0x048255dfEF2eBFA7307058Ae475a3e2F5ee0df46",
        "115792089237316195423570985008687907853269984665640564039457584007913129639935"
      ],
      "transaction": {
        "from": "0xd289d1387ae1033a703842d69501d5bec5a6f04e",
        "to": "0x4d4adec97e3e11693f65dedc2d1e6bec784eb2f1",
        "value": "0x0",
        "input": "0x095ea7b3000000000000000000000000048255dfef2ebfa7307058ae475a3e2f5ee0df46ffffffffffffffffffffffffffffffffffffffffffffffffffffffffffffffff",
        "nonce": "0x27",
        "chainId": "0x6f"
      },
      "additionalContracts": [],
      "isFixedGasLimit": false
    },
    {
      "hash": "0x4b082fa84931d5bb9cc8b6ca3fd3f862d4913211078fb822f68b24d33db6649b",
      "transactionType": "CALL",
      "contractName": null,
      "contractAddress": "0x048255dfef2ebfa7307058ae475a3e2f5ee0df46",
      "function": "claimIntent(bytes32)",
      "arguments": [
        "0xf1d099b8e1a7adc008db20f7abe2967c4dfcca8790bf13d0e9e893142a781402"
      ],
      "transaction": {
        "from": "0xd289d1387ae1033a703842d69501d5bec5a6f04e",
        "to": "0x048255dfef2ebfa7307058ae475a3e2f5ee0df46",
        "value": "0x0",
        "input": "0x40e624cbf1d099b8e1a7adc008db20f7abe2967c4dfcca8790bf13d0e9e893142a781402",
        "nonce": "0x28",
        "chainId": "0x6f"
      },
      "additionalContracts": [],
      "isFixedGasLimit": false
    },
    {
      "hash": "0x9b10ac3fbd02f7448c38f9766f4fc1b76725518bde0024f5692cbdba944e83c8",
      "transactionType": "CALL",
      "contractName": null,
      "contractAddress": "0x8c16d2f19a034b7281254f5656c2d1461c6ceb9a",
      "function": "setTx((bytes32,uint256,uint32,bytes21,bytes21,bytes))",
      "arguments": [
        "(0x0000000000000000000000000000000000000000000000000000000000000000, 0, 0, 0x000000000000000000000000000000000000000000, 0x41f61c257cc0c129959a9704a59193e15c91853749, 0xa9059cbb000000000000000000000000558b8fe3b86724d9d9433bf8ec2b1a1b223f9d25000000000000000000000000000000000000000000000000000000000012d687)"
      ],
      "transaction": {
        "from": "0xd289d1387ae1033a703842d69501d5bec5a6f04e",
        "to": "0x8c16d2f19a034b7281254f5656c2d1461c6ceb9a",
        "value": "0x0",
        "input": "0x3aec07de0000000000000000000000000000000000000000000000000000000000000020000000000000000000000000000000000000000000000000000000000000000000000000000000000000000000000000000000000000000000000000000000000000000000000000000000000000000000000000000000000000000000000000000000000000000000000000000000000000000000000000000000000000000041f61c257cc0c129959a9704a59193e15c91853749000000000000000000000000000000000000000000000000000000000000000000000000000000000000c00000000000000000000000000000000000000000000000000000000000000044a9059cbb000000000000000000000000558b8fe3b86724d9d9433bf8ec2b1a1b223f9d25000000000000000000000000000000000000000000000000000000000012d68700000000000000000000000000000000000000000000000000000000",
        "nonce": "0x29",
        "chainId": "0x6f"
      },
      "additionalContracts": [],
      "isFixedGasLimit": false
    },
    {
      "hash": "0xdcd4e43ab8f271c05acbd23270052066c7b42b80930a5b2af5a5adf28b2fbd2c",
      "transactionType": "CALL",
      "contractName": null,
      "contractAddress": "0x048255dfef2ebfa7307058ae475a3e2f5ee0df46",
      "function": "proveIntentFill(bytes32,bytes[20],bytes,bytes32[],uint256)",
      "arguments": [
        "0xf1d099b8e1a7adc008db20f7abe2967c4dfcca8790bf13d0e9e893142a781402",
        "[0x, 0x, 0x, 0x, 0x, 0x, 0x, 0x, 0x, 0x, 0x, 0x, 0x, 0x, 0x, 0x, 0x, 0x, 0x, 0x]",
        "0x",
        "[]",
        "0"
      ],
      "transaction": {
        "from": "0xd289d1387ae1033a703842d69501d5bec5a6f04e",
        "to": "0x048255dfef2ebfa7307058ae475a3e2f5ee0df46",
        "value": "0x0",
        "input": "0x5c23cc02f1d099b8e1a7adc008db20f7abe2967c4dfcca8790bf13d0e9e893142a78140200000000000000000000000000000000000000000000000000000000000000a000000000000000000000000000000000000000000000000000000000000005a000000000000000000000000000000000000000000000000000000000000005c00000000000000000000000000000000000000000000000000000000000000000000000000000000000000000000000000000000000000000000000000000028000000000000000000000000000000000000000000000000000000000000002a000000000000000000000000000000000000000000000000000000000000002c000000000000000000000000000000000000000000000000000000000000002e00000000000000000000000000000000000000000000000000000000000000300000000000000000000000000000000000000000000000000000000000000032000000000000000000000000000000000000000000000000000000000000003400000000000000000000000000000000000000000000000000000000000000360000000000000000000000000000000000000000000000000000000000000038000000000000000000000000000000000000000000000000000000000000003a000000000000000000000000000000000000000000000000000000000000003c000000000000000000000000000000000000000000000000000000000000003e00000000000000000000000000000000000000000000000000000000000000400000000000000000000000000000000000000000000000000000000000000042000000000000000000000000000000000000000000000000000000000000004400000000000000000000000000000000000000000000000000000000000000460000000000000000000000000000000000000000000000000000000000000048000000000000000000000000000000000000000000000000000000000000004a000000000000000000000000000000000000000000000000000000000000004c000000000000000000000000000000000000000000000000000000000000004e00000000000000000000000000000000000000000000000000000000000000000000000000000000000000000000000000000000000000000000000000000000000000000000000000000000000000000000000000000000000000000000000000000000000000000000000000000000000000000000000000000000000000000000000000000000000000000000000000000000000000000000000000000000000000000000000000000000000000000000000000000000000000000000000000000000000000000000000000000000000000000000000000000000000000000000000000000000000000000000000000000000000000000000000000000000000000000000000000000000000000000000000000000000000000000000000000000000000000000000000000000000000000000000000000000000000000000000000000000000000000000000000000000000000000000000000000000000000000000000000000000000000000000000000000000000000000000000000000000000000000000000000000000000000000000000000000000000000000000000000000000000000000000000000000000000000000000000000000000000000000000000000000000000000000000000000000000000000000000000000000000000000000000000000000000000000000000000000000000000000000000000000000000000000000000000000000000000000000000000000000000000000000000000000000000000000000000000000000000000000000000000000000000000000000000000000000000000000000000000000000000000000000000000000000000000000000000000000000000000000000000000000000000000000000000000000000000000000000000000000000000000000000000000000000000000000000000000000000000000000000000000000000000000000000000",
        "nonce": "0x2a",
        "chainId": "0x6f"
      },
      "additionalContracts": [],
      "isFixedGasLimit": false
    },
    {
      "hash": "0xd4a3704fdadaf1ab9481eb5a8029329668b8b0b70b4a0ad0acbe10760127fa8f",
      "transactionType": "CALL",
      "contractName": null,
      "contractAddress": "0xf86c23c1e883ee3b820fb9be75ff91c9a49eae75",
      "function": "mint(address,uint256)",
      "arguments": [
        "0xD289D1387ae1033A703842D69501D5bEc5A6f04e",
        "1000000"
      ],
      "transaction": {
        "from": "0xd289d1387ae1033a703842d69501d5bec5a6f04e",
        "to": "0xf86c23c1e883ee3b820fb9be75ff91c9a49eae75",
        "value": "0x0",
        "input": "0x40c10f19000000000000000000000000d289d1387ae1033a703842d69501d5bec5a6f04e00000000000000000000000000000000000000000000000000000000000f4240",
        "nonce": "0x2b",
        "chainId": "0x6f"
      },
      "additionalContracts": [],
      "isFixedGasLimit": false
    },
    {
      "hash": "0xdda00ba795aaf750a19ff23dd6a7124f10b25d69deb1562e29881bcfeb1a3c35",
      "transactionType": "CALL",
      "contractName": null,
      "contractAddress": "0xf86c23c1e883ee3b820fb9be75ff91c9a49eae75",
      "function": "approve(address,uint256)",
      "arguments": [
        "0x048255dfEF2eBFA7307058Ae475a3e2F5ee0df46",
        "115792089237316195423570985008687907853269984665640564039457584007913129639935"
      ],
      "transaction": {
        "from": "0xd289d1387ae1033a703842d69501d5bec5a6f04e",
        "to": "0xf86c23c1e883ee3b820fb9be75ff91c9a49eae75",
        "value": "0x0",
        "input": "0x095ea7b3000000000000000000000000048255dfef2ebfa7307058ae475a3e2f5ee0df46ffffffffffffffffffffffffffffffffffffffffffffffffffffffffffffffff",
        "nonce": "0x2c",
        "chainId": "0x6f"
      },
      "additionalContracts": [],
      "isFixedGasLimit": false
    },
    {
      "hash": "0xf268acc93d567f8dae5693f3da4ef997979f6757af06197ca017a3a5ff9c9f7f",
      "transactionType": "CALL",
      "contractName": null,
      "contractAddress": "0x048255dfef2ebfa7307058ae475a3e2f5ee0df46",
      "function": "createIntent((uint8,bytes,address,address,uint256),uint256)",
      "arguments": [
        "(0, 0x00000000000000000000000000000000000000000000000000000000000000200000000000000000000000005457e258a09ebfb4a2501a9e3d70d37f54f923f300000000000000000000000000000000000000000000000000000000000000400000000000000000000000000000000000000000000000000000000000000002beef000000000000000000000000000000000000000000000000000000000000, 0xD289D1387ae1033A703842D69501D5bEc5A6f04e, 0xF86C23C1E883ee3B820FB9BE75FF91C9A49EaE75, 1000000)",
        "1768320756"
      ],
      "transaction": {
        "from": "0xd289d1387ae1033a703842d69501d5bec5a6f04e",
        "to": "0x048255dfef2ebfa7307058ae475a3e2f5ee0df46",
        "value": "0x0",
        "input": "0x549f750500000000000000000000000000000000000000000000000000000000000000400000000000000000000000000000000000000000000000000000000069666ef4000000000000000000000000000000000000000000000000000000000000000000000000000000000000000000000000000000000000000000000000000000a0000000000000000000000000d289d1387ae1033a703842d69501d5bec5a6f04e000000000000000000000000f86c23c1e883ee3b820fb9be75ff91c9a49eae7500000000000000000000000000000000000000000000000000000000000f424000000000000000000000000000000000000000000000000000000000000000a000000000000000000000000000000000000000000000000000000000000000200000000000000000000000005457e258a09ebfb4a2501a9e3d70d37f54f923f300000000000000000000000000000000000000000000000000000000000000400000000000000000000000000000000000000000000000000000000000000002beef000000000000000000000000000000000000000000000000000000000000",
        "nonce": "0x2d",
        "chainId": "0x6f"
      },
      "additionalContracts": [],
      "isFixedGasLimit": false
    },
    {
      "hash": "0xef6466e3cfd876aaa9fd96b1abdd79fa2716a7ac28fd4e3a9dcb55bcee19ab01",
      "transactionType": "CALL",
      "contractName": null,
      "contractAddress": "0x048255dfef2ebfa7307058ae475a3e2f5ee0df46",
      "function": "closeIntent(bytes32)",
      "arguments": [
        "0x641515381e5ecaa53d8a2a12c7f5395aafe191eb42573bf06c7fca8463b0df6c"
      ],
      "transaction": {
        "from": "0xd289d1387ae1033a703842d69501d5bec5a6f04e",
        "to": "0x048255dfef2ebfa7307058ae475a3e2f5ee0df46",
        "value": "0x0",
        "input": "0x51ead90a641515381e5ecaa53d8a2a12c7f5395aafe191eb42573bf06c7fca8463b0df6c",
        "nonce": "0x2e",
        "chainId": "0x6f"
      },
      "additionalContracts": [],
      "isFixedGasLimit": false
    },
    {
      "hash": "0x8a666372cb7a155f3f9f7822580a72c311adac54acf0953bb30b2ca9b4045838",
      "transactionType": "CALL",
      "contractName": null,
      "contractAddress": "0x4d4adec97e3e11693f65dedc2d1e6bec784eb2f1",
      "function": "mint(address,uint256)",
      "arguments": [
        "0xD289D1387ae1033A703842D69501D5bEc5A6f04e",
        "1000000"
      ],
      "transaction": {
        "from": "0xd289d1387ae1033a703842d69501d5bec5a6f04e",
        "to": "0x4d4adec97e3e11693f65dedc2d1e6bec784eb2f1",
        "value": "0x0",
        "input": "0x40c10f19000000000000000000000000d289d1387ae1033a703842d69501d5bec5a6f04e00000000000000000000000000000000000000000000000000000000000f4240",
        "nonce": "0x2f",
        "chainId": "0x6f"
      },
      "additionalContracts": [],
      "isFixedGasLimit": false
    },
    {
      "hash": "0x1d97966a726dae82365567fd49d43dccd866528bd1697f4b84666c8376e56b41",
      "transactionType": "CALL",
      "contractName": null,
      "contractAddress": "0x4d4adec97e3e11693f65dedc2d1e6bec784eb2f1",
      "function": "approve(address,uint256)",
      "arguments": [
        "0x048255dfEF2eBFA7307058Ae475a3e2F5ee0df46",
        "115792089237316195423570985008687907853269984665640564039457584007913129639935"
      ],
      "transaction": {
        "from": "0xd289d1387ae1033a703842d69501d5bec5a6f04e",
        "to": "0x4d4adec97e3e11693f65dedc2d1e6bec784eb2f1",
        "value": "0x0",
        "input": "0x095ea7b3000000000000000000000000048255dfef2ebfa7307058ae475a3e2f5ee0df46ffffffffffffffffffffffffffffffffffffffffffffffffffffffffffffffff",
        "nonce": "0x30",
        "chainId": "0x6f"
      },
      "additionalContracts": [],
      "isFixedGasLimit": false
    },
    {
      "hash": "0xd951087267c228f5ec4a6459e9ac1a984aa9b2338cde0a7bb240504d457eed41",
      "transactionType": "CALL",
      "contractName": null,
      "contractAddress": "0x048255dfef2ebfa7307058ae475a3e2f5ee0df46",
      "function": "claimVirtualReceiverIntent(address,address,bytes32,address,uint256)",
      "arguments": [
        "0x8828fD7431d5bb1962d7E067C103b2324FA6BBEC",
        "0x97629064A9C06865C5B3832F94bb64a8E47bcAd7",
        "0x282866f5067804dadd2e500a0a3d8b5e5d2e5cde385e9ec6a887315613d6f448",
        "0x4D4aDEc97e3e11693F65dEDC2D1e6Bec784eB2F1",
        "1000000"
      ],
      "transaction": {
        "from": "0xd289d1387ae1033a703842d69501d5bec5a6f04e",
        "to": "0x048255dfef2ebfa7307058ae475a3e2f5ee0df46",
        "value": "0x0",
        "input": "0xaf2440050000000000000000000000008828fd7431d5bb1962d7e067c103b2324fa6bbec00000000000000000000000097629064a9c06865c5b3832f94bb64a8e47bcad7282866f5067804dadd2e500a0a3d8b5e5d2e5cde385e9ec6a887315613d6f4480000000000000000000000004d4adec97e3e11693f65dedc2d1e6bec784eb2f100000000000000000000000000000000000000000000000000000000000f4240",
        "nonce": "0x31",
        "chainId": "0x6f"
      },
      "additionalContracts": [],
      "isFixedGasLimit": false
    },
    {
      "hash": null,
      "transactionType": "CALL",
      "contractName": null,
      "contractAddress": "0x048255dfef2ebfa7307058ae475a3e2f5ee0df46",
      "function": "unclaimIntent(bytes32)",
      "arguments": [
        "0xee05772a542895427ddf02d6cb47b9027da7949441e78297ad0b8b2608b77382"
      ],
      "transaction": {
        "from": "0xd289d1387ae1033a703842d69501d5bec5a6f04e",
        "to": "0x048255dfef2ebfa7307058ae475a3e2f5ee0df46",
        "value": "0x0",
        "input": "0x64a486c4ee05772a542895427ddf02d6cb47b9027da7949441e78297ad0b8b2608b77382",
        "nonce": "0x32",
        "chainId": "0x6f"
      },
      "additionalContracts": [],
      "isFixedGasLimit": false
    },
    {
      "hash": null,
      "transactionType": "CALL",
      "contractName": null,
      "contractAddress": "0x4d4adec97e3e11693f65dedc2d1e6bec784eb2f1",
      "function": "mint(address,uint256)",
      "arguments": [
        "0x4eBbaa5bb917c960140992a66a036aFAdEB623Cd",
        "10000111"
      ],
      "transaction": {
        "from": "0xd289d1387ae1033a703842d69501d5bec5a6f04e",
        "to": "0x4d4adec97e3e11693f65dedc2d1e6bec784eb2f1",
        "value": "0x0",
        "input": "0x40c10f190000000000000000000000004ebbaa5bb917c960140992a66a036afadeb623cd00000000000000000000000000000000000000000000000000000000009896ef",
        "nonce": "0x33",
        "chainId": "0x6f"
      },
      "additionalContracts": [],
      "isFixedGasLimit": false
    },
    {
      "hash": null,
      "transactionType": "CALL",
      "contractName": null,
      "contractAddress": "0x8828fd7431d5bb1962d7e067c103b2324fa6bbec",
      "function": "pullFromReceiver((uint256,address,bool,bytes32,bytes32,uint256,address,address,(address,uint256,bytes)[],bytes))",
      "arguments": [
        "(222, 0x048255dfEF2eBFA7307058Ae475a3e2F5ee0df46, true, 0x805137159b1f1225efc7ae36f6b216b76c0e9bed085c4220b2f702fde8defd04, 0x38cb7bc9535f8b89744a14dd2acfe7dcc993eb5f668dfbcb95bdf21a839e2ec0, 10000111, 0x4D4aDEc97e3e11693F65dEDC2D1e6Bec784eB2F1, 0x4D4aDEc97e3e11693F65dEDC2D1e6Bec784eB2F1, [], 0x)"
      ],
      "transaction": {
        "from": "0xd289d1387ae1033a703842d69501d5bec5a6f04e",
        "to": "0x8828fd7431d5bb1962d7e067c103b2324fa6bbec",
        "value": "0x0",
        "input": "0x1ad1087b000000000000000000000000000000000000000000000000000000000000002000000000000000000000000000000000000000000000000000000000000000de000000000000000000000000048255dfef2ebfa7307058ae475a3e2f5ee0df460000000000000000000000000000000000000000000000000000000000000001805137159b1f1225efc7ae36f6b216b76c0e9bed085c4220b2f702fde8defd0438cb7bc9535f8b89744a14dd2acfe7dcc993eb5f668dfbcb95bdf21a839e2ec000000000000000000000000000000000000000000000000000000000009896ef0000000000000000000000004d4adec97e3e11693f65dedc2d1e6bec784eb2f10000000000000000000000004d4adec97e3e11693f65dedc2d1e6bec784eb2f10000000000000000000000000000000000000000000000000000000000000140000000000000000000000000000000000000000000000000000000000000016000000000000000000000000000000000000000000000000000000000000000000000000000000000000000000000000000000000000000000000000000000000",
        "nonce": "0x34",
        "chainId": "0x6f"
      },
      "additionalContracts": [],
      "isFixedGasLimit": false
    }
  ],
  "receipts": [
    {
      "status": "0x1",
      "cumulativeGasUsed": "0x52451",
      "logs": [],
      "logsBloom": "0x00000000000000000000000000000000000000000000000000000000000000000000000000000000000000000000000000000000000000000000000000000000000000000000000000000000000000000000000000000000000000000000000000000000000000000000000000000000000000000000000000000000000000000000000000000000000000000000000000000000000000000000000000000000000000000000000000000000000000000000000000000000000000000000000000000000000000000000000000000000000000000000000000000000000000000000000000000000000000000000000000000000000000000000000000000000",
      "type": "0x0",
      "transactionHash": "0x9641ee03018a3142e7c0d37b05ae7446dba97b61b7bb28357dd48191191f94dc",
      "transactionIndex": "0x0",
      "blockHash": "0x27a9f64a3f7d4689c86d60ba1ce4edc6155ceb8651c99a7b0187643572754b41",
      "blockNumber": "0xf",
      "gasUsed": "0x52451",
      "effectiveGasPrice": "0x3b9aca00",
      "blobGasPrice": "0x1",
      "from": "0xd289d1387ae1033a703842d69501d5bec5a6f04e",
      "to": null,
      "contractAddress": "0x0be19c78706c441de4178a2266a650e47160eda7"
    },
    {
      "status": "0x1",
      "cumulativeGasUsed": "0xc546",
      "logs": [
        {
          "address": "0x8828fd7431d5bb1962d7e067c103b2324fa6bbec",
          "topics": [
            "0x14c028d3d668eb3454bce44d123ceeeb9fb4e74bee073c41f4001e63f0613094",
            "0x0000000000000000000000000be19c78706c441de4178a2266a650e47160eda7",
            "0x0000000000000000000000000be19c78706c441de4178a2266a650e47160eda7"
          ],
          "data": "0x",
          "blockHash": "0x6262c4fd0d311d8603fab29f2f48fccde2157fef67367344eb0c0c9c4503ae17",
          "blockNumber": "0x10",
          "blockTimestamp": "0x69666f71",
          "transactionHash": "0x5dff21b1310551aebb70c2ceb7eb2a860e457bb41c7ef6fa3224956ff919324a",
          "transactionIndex": "0x0",
          "logIndex": "0x0",
          "removed": false
        },
        {
          "address": "0x8828fd7431d5bb1962d7e067c103b2324fa6bbec",
          "topics": [
            "0x78160f0b1b2b32b52a0076d8f0f70888687ba702a4d993d55ac8d9327d57a127",
            "0x0000000000000000000000000000000000000000000000000000000000000004",
            "0x4bf30bc61cc24b1b55921392a64d52ba1896301edfd3807447f2d47a49a98bfb",
            "0xa12a2d44a06b03d84cca93f6d30ae17c26903ddcc8b79169a1485658002abeff"
          ],
          "data": "0x14c028d3d668eb3454bce44d123ceeeb9fb4e74bee073c41f4001e63f0613094000000000000000000000000000000000000000000000000000000000000004000000000000000000000000000000000000000000000000000000000000000400000000000000000000000000be19c78706c441de4178a2266a650e47160eda70000000000000000000000000be19c78706c441de4178a2266a650e47160eda7",
          "blockHash": "0x6262c4fd0d311d8603fab29f2f48fccde2157fef67367344eb0c0c9c4503ae17",
          "blockNumber": "0x10",
          "blockTimestamp": "0x69666f71",
          "transactionHash": "0x5dff21b1310551aebb70c2ceb7eb2a860e457bb41c7ef6fa3224956ff919324a",
          "transactionIndex": "0x0",
          "logIndex": "0x1",
          "removed": false
        }
      ],
      "logsBloom": "0x00000000000000000000002000000000000000000000000000000000000008000000000000200000000000000000000000000000000000000000000000200000000000800200000000000000000000000000000000000000000000000000000008000020000800000000000400000048000000000200000000000000000000000000000000000000000000000000000000000000000000000000000000000000000000000000000000000000000000000000000000000000002000000000000000000000000000040000000000000010000000008040004000000000000000000400000000000000000000000000000000000000000000000000000000004000",
      "type": "0x0",
      "transactionHash": "0x5dff21b1310551aebb70c2ceb7eb2a860e457bb41c7ef6fa3224956ff919324a",
      "transactionIndex": "0x0",
      "blockHash": "0x6262c4fd0d311d8603fab29f2f48fccde2157fef67367344eb0c0c9c4503ae17",
      "blockNumber": "0x10",
      "gasUsed": "0xc546",
      "effectiveGasPrice": "0x3b9aca00",
      "blobGasPrice": "0x1",
      "from": "0xd289d1387ae1033a703842d69501d5bec5a6f04e",
      "to": "0x8828fd7431d5bb1962d7e067c103b2324fa6bbec",
      "contractAddress": null
    },
    {
      "status": "0x1",
      "cumulativeGasUsed": "0x1f4cb",
      "logs": [],
      "logsBloom": "0x00000000000000000000000000000000000000000000000000000000000000000000000000000000000000000000000000000000000000000000000000000000000000000000000000000000000000000000000000000000000000000000000000000000000000000000000000000000000000000000000000000000000000000000000000000000000000000000000000000000000000000000000000000000000000000000000000000000000000000000000000000000000000000000000000000000000000000000000000000000000000000000000000000000000000000000000000000000000000000000000000000000000000000000000000000000",
      "type": "0x0",
      "transactionHash": "0x0683791d8c580fe05e947e5fc3f38a502d06668756665d3692d8f46476c347fa",
      "transactionIndex": "0x0",
      "blockHash": "0x77d5730c7d9d194b7460f6c0fb45af4a0d4a61b44f588bcd9d06a803efc3989b",
      "blockNumber": "0x11",
      "gasUsed": "0x1f4cb",
      "effectiveGasPrice": "0x3b9aca00",
      "blobGasPrice": "0x1",
      "from": "0xd289d1387ae1033a703842d69501d5bec5a6f04e",
      "to": null,
      "contractAddress": "0x481e836be187303c64f269bc7fe2c52f7f7c6eef"
    },
    {
      "status": "0x1",
      "cumulativeGasUsed": "0xaa2b",
      "logs": [],
      "logsBloom": "0x00000000000000000000000000000000000000000000000000000000000000000000000000000000000000000000000000000000000000000000000000000000000000000000000000000000000000000000000000000000000000000000000000000000000000000000000000000000000000000000000000000000000000000000000000000000000000000000000000000000000000000000000000000000000000000000000000000000000000000000000000000000000000000000000000000000000000000000000000000000000000000000000000000000000000000000000000000000000000000000000000000000000000000000000000000000",
      "type": "0x0",
      "transactionHash": "0x5442cb8cd2818da051a292177af933a42052362d1c40030812b4acf29bd49b9e",
      "transactionIndex": "0x0",
      "blockHash": "0x2285b4bb76d72df2cae183d3b53aa4806afc6be7cf56006a5d5abd76a7578fce",
      "blockNumber": "0x12",
      "gasUsed": "0xaa2b",
      "effectiveGasPrice": "0x3b9aca00",
      "blobGasPrice": "0x1",
      "from": "0xd289d1387ae1033a703842d69501d5bec5a6f04e",
      "to": "0x481e836be187303c64f269bc7fe2c52f7f7c6eef",
      "contractAddress": null
    },
    {
      "status": "0x1",
      "cumulativeGasUsed": "0xb23d",
      "logs": [
        {
          "address": "0x8828fd7431d5bb1962d7e067c103b2324fa6bbec",
          "topics": [
            "0x2e3d7d02ba3c4bd8b1f8995cd3a23ef0193922ebc4ee23249ead4d0ca2e34c68",
            "0x0000000000000000000000004d4adec97e3e11693f65dedc2d1e6bec784eb2f1",
            "0x000000000000000000000000481e836be187303c64f269bc7fe2c52f7f7c6eef"
          ],
          "data": "0x",
          "blockHash": "0xd8271695b6cda50debcbdeb9174f85eb70e4f0e4b648a7cabc63fd972927eadd",
          "blockNumber": "0x13",
          "blockTimestamp": "0x69666f74",
          "transactionHash": "0x8070a422200e1dbd8d5a1a9099941348b15ef7a124b2908c74084764599671c8",
          "transactionIndex": "0x0",
          "logIndex": "0x0",
          "removed": false
        },
        {
          "address": "0x8828fd7431d5bb1962d7e067c103b2324fa6bbec",
          "topics": [
            "0x78160f0b1b2b32b52a0076d8f0f70888687ba702a4d993d55ac8d9327d57a127",
            "0x0000000000000000000000000000000000000000000000000000000000000005",
            "0xa12a2d44a06b03d84cca93f6d30ae17c26903ddcc8b79169a1485658002abeff",
            "0x2a79e79c35f335f6bf9164c51f73f6b76c8422df3657cafd1d716a20899489f7"
          ],
          "data": "0x2e3d7d02ba3c4bd8b1f8995cd3a23ef0193922ebc4ee23249ead4d0ca2e34c68000000000000000000000000000000000000000000000000000000000000004000000000000000000000000000000000000000000000000000000000000000400000000000000000000000004d4adec97e3e11693f65dedc2d1e6bec784eb2f1000000000000000000000000481e836be187303c64f269bc7fe2c52f7f7c6eef",
          "blockHash": "0xd8271695b6cda50debcbdeb9174f85eb70e4f0e4b648a7cabc63fd972927eadd",
          "blockNumber": "0x13",
          "blockTimestamp": "0x69666f74",
          "transactionHash": "0x8070a422200e1dbd8d5a1a9099941348b15ef7a124b2908c74084764599671c8",
          "transactionIndex": "0x0",
          "logIndex": "0x1",
          "removed": false
        }
      ],
      "logsBloom": "0x00000000000000000000000000200000000000000000000000000000000000000000000000200000000000000000000000000000000000000400000000200000000010000200000000000000000000000008000020000000000000000000000000000028000800000000000000000018000000000000000080000000000000000000000000000080000000000000001000800800000000000000000000000000000000000000000000000000000000000000000000000000000000000000000000000000000008000000000000000000000000000040004000000000000000000000000000000000000000000080000000000000000400000000000000004000",
      "type": "0x0",
      "transactionHash": "0x8070a422200e1dbd8d5a1a9099941348b15ef7a124b2908c74084764599671c8",
      "transactionIndex": "0x0",
      "blockHash": "0xd8271695b6cda50debcbdeb9174f85eb70e4f0e4b648a7cabc63fd972927eadd",
      "blockNumber": "0x13",
      "gasUsed": "0xb23d",
      "effectiveGasPrice": "0x3b9aca00",
      "blobGasPrice": "0x1",
      "from": "0xd289d1387ae1033a703842d69501d5bec5a6f04e",
      "to": "0x8828fd7431d5bb1962d7e067c103b2324fa6bbec",
      "contractAddress": null
    },
    {
      "status": "0x1",
      "cumulativeGasUsed": "0x147a0",
      "logs": [
        {
          "address": "0x048255dfef2ebfa7307058ae475a3e2f5ee0df46",
          "topics": [
            "0x9d4c3779a823aa84b20dd2e8551e6ed95addbc562f3bc49b1e688ab785b05d9d"
          ],
          "data": "0x0000000000000000000000000000000000000000000000000000000000002710000000000000000000000000000000000000000000000000000000000000007b",
          "blockHash": "0x6487e398bd49d1febd3fa04239461fc4b9dbb8776c448a4dd1ab1e7cf02ba6cc",
          "blockNumber": "0x14",
          "blockTimestamp": "0x69666f75",
          "transactionHash": "0xd0fa060e851badf79c4d2e11fd36f93fbec136506b91f7bdf8306f30af0f8960",
          "transactionIndex": "0x0",
          "logIndex": "0x0",
          "removed": false
        },
        {
          "address": "0x048255dfef2ebfa7307058ae475a3e2f5ee0df46",
          "topics": [
            "0x78160f0b1b2b32b52a0076d8f0f70888687ba702a4d993d55ac8d9327d57a127",
            "0x0000000000000000000000000000000000000000000000000000000000000003",
            "0x8783ec7480da40a620b655785bf8f00e9966a75183b5e3eb987a845f626d49fd",
            "0xd23b105da2ae7a3241a4f6d8c4198089855b8035b3a9975ca6f350e32e093be1"
          ],
          "data": "0x9d4c3779a823aa84b20dd2e8551e6ed95addbc562f3bc49b1e688ab785b05d9d000000000000000000000000000000000000000000000000000000000000004000000000000000000000000000000000000000000000000000000000000000400000000000000000000000000000000000000000000000000000000000002710000000000000000000000000000000000000000000000000000000000000007b",
          "blockHash": "0x6487e398bd49d1febd3fa04239461fc4b9dbb8776c448a4dd1ab1e7cf02ba6cc",
          "blockNumber": "0x14",
          "blockTimestamp": "0x69666f75",
          "transactionHash": "0xd0fa060e851badf79c4d2e11fd36f93fbec136506b91f7bdf8306f30af0f8960",
          "transactionIndex": "0x0",
          "logIndex": "0x1",
          "removed": false
        }
      ],
      "logsBloom": "0x08000000000000800000000000000000000000000000000000000000000000000000000000000000000000000000000000000002020000000000000000200000000200000000000040000000000000000000000000000000000000000000000000000020000800004000000000000000000000000000000000000000200000000000000000000000000000000000000000000000000000000000000000004000000200000000000000000000000000000000000200800000000000000000400000000000000000000000000000000000000000000200000000000000000000000000000000000000000000000000000000000000000000000000000000004000",
      "type": "0x0",
      "transactionHash": "0xd0fa060e851badf79c4d2e11fd36f93fbec136506b91f7bdf8306f30af0f8960",
      "transactionIndex": "0x0",
      "blockHash": "0x6487e398bd49d1febd3fa04239461fc4b9dbb8776c448a4dd1ab1e7cf02ba6cc",
      "blockNumber": "0x14",
      "gasUsed": "0x147a0",
      "effectiveGasPrice": "0x3b9aca00",
      "blobGasPrice": "0x1",
      "from": "0xd289d1387ae1033a703842d69501d5bec5a6f04e",
      "to": "0x048255dfef2ebfa7307058ae475a3e2f5ee0df46",
      "contractAddress": null
    },
    {
      "status": "0x1",
      "cumulativeGasUsed": "0x1f4cb",
      "logs": [],
      "logsBloom": "0x00000000000000000000000000000000000000000000000000000000000000000000000000000000000000000000000000000000000000000000000000000000000000000000000000000000000000000000000000000000000000000000000000000000000000000000000000000000000000000000000000000000000000000000000000000000000000000000000000000000000000000000000000000000000000000000000000000000000000000000000000000000000000000000000000000000000000000000000000000000000000000000000000000000000000000000000000000000000000000000000000000000000000000000000000000000",
      "type": "0x0",
      "transactionHash": "0xfef75832b829aac2e6452ba53f4a9ba013d943049a463a6b53d6e34ac7b415e4",
      "transactionIndex": "0x0",
      "blockHash": "0x456b6d86c3626d911e88cfc20eb9854fb702321bd7ac3a362921b51ead6c2e7a",
      "blockNumber": "0x15",
      "gasUsed": "0x1f4cb",
      "effectiveGasPrice": "0x3b9aca00",
      "blobGasPrice": "0x1",
      "from": "0xd289d1387ae1033a703842d69501d5bec5a6f04e",
      "to": null,
      "contractAddress": "0x6b0f32ae157cf4f7d9b402c4e243e9088207dd87"
    },
    {
      "status": "0x1",
      "cumulativeGasUsed": "0xaa2b",
      "logs": [],
      "logsBloom": "0x00000000000000000000000000000000000000000000000000000000000000000000000000000000000000000000000000000000000000000000000000000000000000000000000000000000000000000000000000000000000000000000000000000000000000000000000000000000000000000000000000000000000000000000000000000000000000000000000000000000000000000000000000000000000000000000000000000000000000000000000000000000000000000000000000000000000000000000000000000000000000000000000000000000000000000000000000000000000000000000000000000000000000000000000000000000",
      "type": "0x0",
      "transactionHash": "0x52a5b66a31ca101099f01ce93ad3ffff416805838b30081bcfa839b252bed4c0",
      "transactionIndex": "0x0",
      "blockHash": "0x512bf1bceb6cae3e0b44efd16a5cda17794ec907af8ce0041714e1748a2b2a10",
      "blockNumber": "0x16",
      "gasUsed": "0xaa2b",
      "effectiveGasPrice": "0x3b9aca00",
      "blobGasPrice": "0x1",
      "from": "0xd289d1387ae1033a703842d69501d5bec5a6f04e",
      "to": "0x6b0f32ae157cf4f7d9b402c4e243e9088207dd87",
      "contractAddress": null
    },
    {
      "status": "0x1",
      "cumulativeGasUsed": "0xb23d",
      "logs": [
        {
          "address": "0x8828fd7431d5bb1962d7e067c103b2324fa6bbec",
          "topics": [
            "0x2e3d7d02ba3c4bd8b1f8995cd3a23ef0193922ebc4ee23249ead4d0ca2e34c68",
            "0x0000000000000000000000004d4adec97e3e11693f65dedc2d1e6bec784eb2f1",
            "0x0000000000000000000000006b0f32ae157cf4f7d9b402c4e243e9088207dd87"
          ],
          "data": "0x",
          "blockHash": "0x4f60a92cee6f81ae338620e4e22d5c662b8645124a33245540fbaea5909c6a18",
          "blockNumber": "0x17",
          "blockTimestamp": "0x69666f78",
          "transactionHash": "0xd22176e8ccd207a296ae7f951f4d5aca52ce6df4d466a5cf64fc80978b22b71e",
          "transactionIndex": "0x0",
          "logIndex": "0x0",
          "removed": false
        },
        {
          "address": "0x8828fd7431d5bb1962d7e067c103b2324fa6bbec",
          "topics": [
            "0x78160f0b1b2b32b52a0076d8f0f70888687ba702a4d993d55ac8d9327d57a127",
            "0x0000000000000000000000000000000000000000000000000000000000000006",
            "0x2a79e79c35f335f6bf9164c51f73f6b76c8422df3657cafd1d716a20899489f7",
            "0x2a7099e9484054d077876b8ac733969f5580f87f58989a8ddd69f99629b28622"
          ],
          "data": "0x2e3d7d02ba3c4bd8b1f8995cd3a23ef0193922ebc4ee23249ead4d0ca2e34c68000000000000000000000000000000000000000000000000000000000000004000000000000000000000000000000000000000000000000000000000000000400000000000000000000000004d4adec97e3e11693f65dedc2d1e6bec784eb2f10000000000000000000000006b0f32ae157cf4f7d9b402c4e243e9088207dd87",
          "blockHash": "0x4f60a92cee6f81ae338620e4e22d5c662b8645124a33245540fbaea5909c6a18",
          "blockNumber": "0x17",
          "blockTimestamp": "0x69666f78",
          "transactionHash": "0xd22176e8ccd207a296ae7f951f4d5aca52ce6df4d466a5cf64fc80978b22b71e",
          "transactionIndex": "0x0",
          "logIndex": "0x1",
          "removed": false
        }
      ],
      "logsBloom": "0x00000000000000000000000000200000000000000000000000000000000000000000000000000000000000000000000000000000000400000000000000200000000000000200000000002000000004000000000000000000000000000000000000000028000800000000000000000018000000000000000080000000000000000000000400000080000000000000000000800000000000000000000000000000000001000000000000000000000000000000000000000000100000080080010000000000000008000000000000000000000000000000000000000000000000000000000000000000000000000080000000000000000400000000000000004000",
      "type": "0x0",
      "transactionHash": "0xd22176e8ccd207a296ae7f951f4d5aca52ce6df4d466a5cf64fc80978b22b71e",
      "transactionIndex": "0x0",
      "blockHash": "0x4f60a92cee6f81ae338620e4e22d5c662b8645124a33245540fbaea5909c6a18",
      "blockNumber": "0x17",
      "gasUsed": "0xb23d",
      "effectiveGasPrice": "0x3b9aca00",
      "blobGasPrice": "0x1",
      "from": "0xd289d1387ae1033a703842d69501d5bec5a6f04e",
      "to": "0x8828fd7431d5bb1962d7e067c103b2324fa6bbec",
      "contractAddress": null
    },
    {
      "status": "0x1",
      "cumulativeGasUsed": "0x50fb6",
      "logs": [],
      "logsBloom": "0x00000000000000000000000000000000000000000000000000000000000000000000000000000000000000000000000000000000000000000000000000000000000000000000000000000000000000000000000000000000000000000000000000000000000000000000000000000000000000000000000000000000000000000000000000000000000000000000000000000000000000000000000000000000000000000000000000000000000000000000000000000000000000000000000000000000000000000000000000000000000000000000000000000000000000000000000000000000000000000000000000000000000000000000000000000000",
      "type": "0x0",
      "transactionHash": "0x0cbf907f623c63537dbd7aa5982b4f17aeadb123eb8f16e7137f38ff384e6ea7",
      "transactionIndex": "0x0",
      "blockHash": "0x0e2ae7390455c6b85f4314fc1227f56193a1181fdbb60693108f7f633472b287",
      "blockNumber": "0x18",
      "gasUsed": "0x50fb6",
      "effectiveGasPrice": "0x3b9aca00",
      "blobGasPrice": "0x1",
      "from": "0xd289d1387ae1033a703842d69501d5bec5a6f04e",
      "to": null,
      "contractAddress": "0xc5ea444a0f556f5b227ec7447294d91086bb692c"
    },
    {
      "status": "0x1",
      "cumulativeGasUsed": "0xc546",
      "logs": [
        {
          "address": "0x8828fd7431d5bb1962d7e067c103b2324fa6bbec",
          "topics": [
            "0x14c028d3d668eb3454bce44d123ceeeb9fb4e74bee073c41f4001e63f0613094",
            "0x000000000000000000000000c5ea444a0f556f5b227ec7447294d91086bb692c",
            "0x000000000000000000000000c5ea444a0f556f5b227ec7447294d91086bb692c"
          ],
          "data": "0x",
          "blockHash": "0xea0e6e78ac3d4eaa3e1a1daec60bf54f1b524751a0f2e466cc629726f998d6eb",
          "blockNumber": "0x19",
          "blockTimestamp": "0x69666f7a",
          "transactionHash": "0x513c988ae0f0a9d492aa9892b44ecb80d51d6f5440660b7c21ac40ebabac0706",
          "transactionIndex": "0x0",
          "logIndex": "0x0",
          "removed": false
        },
        {
          "address": "0x8828fd7431d5bb1962d7e067c103b2324fa6bbec",
          "topics": [
            "0x78160f0b1b2b32b52a0076d8f0f70888687ba702a4d993d55ac8d9327d57a127",
            "0x0000000000000000000000000000000000000000000000000000000000000007",
            "0x2a7099e9484054d077876b8ac733969f5580f87f58989a8ddd69f99629b28622",
            "0xb0869f04f96fbc6944a06e5a331cb2f2da06f060fed615848c03033ebd6c592b"
          ],
          "data": "0x14c028d3d668eb3454bce44d123ceeeb9fb4e74bee073c41f4001e63f061309400000000000000000000000000000000000000000000000000000000000000400000000000000000000000000000000000000000000000000000000000000040000000000000000000000000c5ea444a0f556f5b227ec7447294d91086bb692c000000000000000000000000c5ea444a0f556f5b227ec7447294d91086bb692c",
          "blockHash": "0xea0e6e78ac3d4eaa3e1a1daec60bf54f1b524751a0f2e466cc629726f998d6eb",
          "blockNumber": "0x19",
          "blockTimestamp": "0x69666f7a",
          "transactionHash": "0x513c988ae0f0a9d492aa9892b44ecb80d51d6f5440660b7c21ac40ebabac0706",
          "transactionIndex": "0x0",
          "logIndex": "0x1",
          "removed": false
        }
      ],
      "logsBloom": "0x00000000000000000000000000000000000000000000000000000000000000000000000000000000000000000000000000001000000000000000000000200000000020000200000001002000000000000000400000000000000000100000000000000020000800000000000200000008000000002000000000000000000000000000000000000000000000000000000000000000000000000000000000000000000000000000000000000000000000000000000000000000100000000000010000000000000000040000000000000010000000000000000000000100000000000400000000000000000000000000000000000000000000000000000400004000",
      "type": "0x0",
      "transactionHash": "0x513c988ae0f0a9d492aa9892b44ecb80d51d6f5440660b7c21ac40ebabac0706",
      "transactionIndex": "0x0",
      "blockHash": "0xea0e6e78ac3d4eaa3e1a1daec60bf54f1b524751a0f2e466cc629726f998d6eb",
      "blockNumber": "0x19",
      "gasUsed": "0xc546",
      "effectiveGasPrice": "0x3b9aca00",
      "blobGasPrice": "0x1",
      "from": "0xd289d1387ae1033a703842d69501d5bec5a6f04e",
      "to": "0x8828fd7431d5bb1962d7e067c103b2324fa6bbec",
      "contractAddress": null
    },
    {
      "status": "0x1",
      "cumulativeGasUsed": "0xac6c",
      "logs": [],
      "logsBloom": "0x00000000000000000000000000000000000000000000000000000000000000000000000000000000000000000000000000000000000000000000000000000000000000000000000000000000000000000000000000000000000000000000000000000000000000000000000000000000000000000000000000000000000000000000000000000000000000000000000000000000000000000000000000000000000000000000000000000000000000000000000000000000000000000000000000000000000000000000000000000000000000000000000000000000000000000000000000000000000000000000000000000000000000000000000000000000",
      "type": "0x0",
      "transactionHash": "0xed9ff6741db10b3045ced5a8c60ac486d1a21c494a4d492898e20dab57c564ef",
      "transactionIndex": "0x0",
      "blockHash": "0x4da83ddc178fed91323b943ec69a68308864146c39f5a5c5a191a0295e078eb5",
      "blockNumber": "0x1a",
      "gasUsed": "0xac6c",
      "effectiveGasPrice": "0x3b9aca00",
      "blobGasPrice": "0x1",
      "from": "0xd289d1387ae1033a703842d69501d5bec5a6f04e",
      "to": "0x4d4adec97e3e11693f65dedc2d1e6bec784eb2f1",
      "contractAddress": null
    },
    {
      "status": "0x1",
      "cumulativeGasUsed": "0x30384",
      "logs": [
        {
          "address": "0x8828fd7431d5bb1962d7e067c103b2324fa6bbec",
          "topics": [
            "0x7391f14355eff1e559e381f5bf49886a77da7c4fdd33c6fc2e0142269c561c59",
            "0x4ce9a4626b22b1c0a7d8cdc47124542908de4e4448da69e4870f34e4b5d4286d",
            "0xdd7cb67cbc9b2e724e3c3436ed7f91b70ab95f42de0014b70c9f2f9eb7380bb7",
            "0x0000000000000000000000000000000000000000000000000000000000000001"
          ],
          "data": "0x0000000000000000000000000000000000000000000000000000000000000000000000000000000000000000000000000000000000000000000000000000006f000000000000000000000000d59d27b9172ad056cb5c008dc2bbefe702123a55000000000000000000000000000000000000000000000000000000000000000000000000000000000000000000000000000000000000000000000000000000000000000000000000000000004d4adec97e3e11693f65dedc2d1e6bec784eb2f10000000000000000000000004d4adec97e3e11693f65dedc2d1e6bec784eb2f10000000000000000000000002023a9ae4d68fea5b1bef01f207b249c9f2cecbf000000000000000000000000b7d1e80ce581d4129bbbcac7f957850629628cd1",
          "blockHash": "0x52f227374c0c897f4d285158b67741fba557912a5899107bd1645f4f87f1a1bc",
          "blockNumber": "0x1b",
          "blockTimestamp": "0x69666f7c",
          "transactionHash": "0x7c502ac501942dd735dc0196df91cdd500c49f19f4e20e4085b732afdc2226c7",
          "transactionIndex": "0x0",
          "logIndex": "0x0",
          "removed": false
        },
        {
          "address": "0x8828fd7431d5bb1962d7e067c103b2324fa6bbec",
          "topics": [
            "0x78160f0b1b2b32b52a0076d8f0f70888687ba702a4d993d55ac8d9327d57a127",
            "0x0000000000000000000000000000000000000000000000000000000000000008",
            "0xb0869f04f96fbc6944a06e5a331cb2f2da06f060fed615848c03033ebd6c592b",
            "0x2d1c5030bc0bdef63c3ea4bfdff1bc7e90f79b2dcf1a06d6fae804c40bec3fc9"
          ],
          "data": "0x7391f14355eff1e559e381f5bf49886a77da7c4fdd33c6fc2e0142269c561c59000000000000000000000000000000000000000000000000000000000000004000000000000000000000000000000000000000000000000000000000000001804ce9a4626b22b1c0a7d8cdc47124542908de4e4448da69e4870f34e4b5d4286ddd7cb67cbc9b2e724e3c3436ed7f91b70ab95f42de0014b70c9f2f9eb7380bb700000000000000000000000000000000000000000000000000000000000000010000000000000000000000000000000000000000000000000000000000000000000000000000000000000000000000000000000000000000000000000000006f000000000000000000000000d59d27b9172ad056cb5c008dc2bbefe702123a55000000000000000000000000000000000000000000000000000000000000000000000000000000000000000000000000000000000000000000000000000000000000000000000000000000004d4adec97e3e11693f65dedc2d1e6bec784eb2f10000000000000000000000004d4adec97e3e11693f65dedc2d1e6bec784eb2f10000000000000000000000002023a9ae4d68fea5b1bef01f207b249c9f2cecbf000000000000000000000000b7d1e80ce581d4129bbbcac7f957850629628cd1",
          "blockHash": "0x52f227374c0c897f4d285158b67741fba557912a5899107bd1645f4f87f1a1bc",
          "blockNumber": "0x1b",
          "blockTimestamp": "0x69666f7c",
          "transactionHash": "0x7c502ac501942dd735dc0196df91cdd500c49f19f4e20e4085b732afdc2226c7",
          "transactionIndex": "0x0",
          "logIndex": "0x1",
          "removed": false
        },
        {
          "address": "0x8828fd7431d5bb1962d7e067c103b2324fa6bbec",
          "topics": [
            "0x488f06a9ca9e19e1dd90c764cc79b765e8a3a089ef27d9a0e39dee21c7643188",
            "0xd6f2d535b097ffa2e4bab1bcd524610b49de81de58781b834552d2d7ce4c0dbe",
            "0x000000000000000000000000b7d1e80ce581d4129bbbcac7f957850629628cd1"
          ],
          "data": "0x000000000000000000000000e007a594267d5b9a4f5bf6fd054579eb82f5a057",
          "blockHash": "0x52f227374c0c897f4d285158b67741fba557912a5899107bd1645f4f87f1a1bc",
          "blockNumber": "0x1b",
          "blockTimestamp": "0x69666f7c",
          "transactionHash": "0x7c502ac501942dd735dc0196df91cdd500c49f19f4e20e4085b732afdc2226c7",
          "transactionIndex": "0x0",
          "logIndex": "0x2",
          "removed": false
        },
        {
          "address": "0x8828fd7431d5bb1962d7e067c103b2324fa6bbec",
          "topics": [
            "0x78160f0b1b2b32b52a0076d8f0f70888687ba702a4d993d55ac8d9327d57a127",
            "0x0000000000000000000000000000000000000000000000000000000000000009",
            "0x2d1c5030bc0bdef63c3ea4bfdff1bc7e90f79b2dcf1a06d6fae804c40bec3fc9",
            "0x4caed72888dd2a9dcf1ecce10613efd1551298530e824a7c8e8bf1188cc3428a"
          ],
          "data": "0x488f06a9ca9e19e1dd90c764cc79b765e8a3a089ef27d9a0e39dee21c764318800000000000000000000000000000000000000000000000000000000000000400000000000000000000000000000000000000000000000000000000000000060d6f2d535b097ffa2e4bab1bcd524610b49de81de58781b834552d2d7ce4c0dbe000000000000000000000000b7d1e80ce581d4129bbbcac7f957850629628cd1000000000000000000000000e007a594267d5b9a4f5bf6fd054579eb82f5a057",
          "blockHash": "0x52f227374c0c897f4d285158b67741fba557912a5899107bd1645f4f87f1a1bc",
          "blockNumber": "0x1b",
          "blockTimestamp": "0x69666f7c",
          "transactionHash": "0x7c502ac501942dd735dc0196df91cdd500c49f19f4e20e4085b732afdc2226c7",
          "transactionIndex": "0x0",
          "logIndex": "0x3",
          "removed": false
        },
        {
          "address": "0x8828fd7431d5bb1962d7e067c103b2324fa6bbec",
          "topics": [
            "0x488f06a9ca9e19e1dd90c764cc79b765e8a3a089ef27d9a0e39dee21c7643188",
            "0xdd7cb67cbc9b2e724e3c3436ed7f91b70ab95f42de0014b70c9f2f9eb7380bb7",
            "0x0000000000000000000000002023a9ae4d68fea5b1bef01f207b249c9f2cecbf"
          ],
          "data": "0x000000000000000000000000e007a594267d5b9a4f5bf6fd054579eb82f5a057",
          "blockHash": "0x52f227374c0c897f4d285158b67741fba557912a5899107bd1645f4f87f1a1bc",
          "blockNumber": "0x1b",
          "blockTimestamp": "0x69666f7c",
          "transactionHash": "0x7c502ac501942dd735dc0196df91cdd500c49f19f4e20e4085b732afdc2226c7",
          "transactionIndex": "0x0",
          "logIndex": "0x4",
          "removed": false
        },
        {
          "address": "0x8828fd7431d5bb1962d7e067c103b2324fa6bbec",
          "topics": [
            "0x78160f0b1b2b32b52a0076d8f0f70888687ba702a4d993d55ac8d9327d57a127",
            "0x000000000000000000000000000000000000000000000000000000000000000a",
            "0x4caed72888dd2a9dcf1ecce10613efd1551298530e824a7c8e8bf1188cc3428a",
            "0xa4b2a72e8cb4bce3981a9a84804ee88bbb217349258152b65264fec2f3baf336"
          ],
          "data": "0x488f06a9ca9e19e1dd90c764cc79b765e8a3a089ef27d9a0e39dee21c764318800000000000000000000000000000000000000000000000000000000000000400000000000000000000000000000000000000000000000000000000000000060dd7cb67cbc9b2e724e3c3436ed7f91b70ab95f42de0014b70c9f2f9eb7380bb70000000000000000000000002023a9ae4d68fea5b1bef01f207b249c9f2cecbf000000000000000000000000e007a594267d5b9a4f5bf6fd054579eb82f5a057",
          "blockHash": "0x52f227374c0c897f4d285158b67741fba557912a5899107bd1645f4f87f1a1bc",
          "blockNumber": "0x1b",
          "blockTimestamp": "0x69666f7c",
          "transactionHash": "0x7c502ac501942dd735dc0196df91cdd500c49f19f4e20e4085b732afdc2226c7",
          "transactionIndex": "0x0",
          "logIndex": "0x5",
          "removed": false
        },
        {
          "address": "0x8828fd7431d5bb1962d7e067c103b2324fa6bbec",
          "topics": [
            "0x2e659081f44c4f56a18b00f3f9d136d7ee8396bc79163c4d61363ddcf4a4cb27",
            "0x4ce9a4626b22b1c0a7d8cdc47124542908de4e4448da69e4870f34e4b5d4286d"
          ],
          "data": "0x0000000000000000000000000000000000000000000000000000000000000000000000000000000000000000000000000000000000000000000000000754d4c0000000000000000000000000000000000000000000000000000000000754d4c000000000000000000000000000000000000000000000000000000000000000000000000000000000000000000000000000000000000000000000000000000000000000000000000000000000000000000000000000000000000000000000000100000000000000000000000000000000000000000000000000000000000000000000000000000000000000000000000000000000000000000000000000000000c5d2460186f7233c927e7db2dcc703c0e500b653ca82273b7bfad8045d85a470",
          "blockHash": "0x52f227374c0c897f4d285158b67741fba557912a5899107bd1645f4f87f1a1bc",
          "blockNumber": "0x1b",
          "blockTimestamp": "0x69666f7c",
          "transactionHash": "0x7c502ac501942dd735dc0196df91cdd500c49f19f4e20e4085b732afdc2226c7",
          "transactionIndex": "0x0",
          "logIndex": "0x6",
          "removed": false
        },
        {
          "address": "0x8828fd7431d5bb1962d7e067c103b2324fa6bbec",
          "topics": [
            "0x78160f0b1b2b32b52a0076d8f0f70888687ba702a4d993d55ac8d9327d57a127",
            "0x000000000000000000000000000000000000000000000000000000000000000b",
            "0xa4b2a72e8cb4bce3981a9a84804ee88bbb217349258152b65264fec2f3baf336",
            "0x205ba6187847697d8ae8dda81dab824ac338d50a73465e4e4d052931533c775e"
          ],
          "data": "0x2e659081f44c4f56a18b00f3f9d136d7ee8396bc79163c4d61363ddcf4a4cb27000000000000000000000000000000000000000000000000000000000000004000000000000000000000000000000000000000000000000000000000000001404ce9a4626b22b1c0a7d8cdc47124542908de4e4448da69e4870f34e4b5d4286d0000000000000000000000000000000000000000000000000000000000000000000000000000000000000000000000000000000000000000000000000754d4c0000000000000000000000000000000000000000000000000000000000754d4c000000000000000000000000000000000000000000000000000000000000000000000000000000000000000000000000000000000000000000000000000000000000000000000000000000000000000000000000000000000000000000000000100000000000000000000000000000000000000000000000000000000000000000000000000000000000000000000000000000000000000000000000000000000c5d2460186f7233c927e7db2dcc703c0e500b653ca82273b7bfad8045d85a470",
          "blockHash": "0x52f227374c0c897f4d285158b67741fba557912a5899107bd1645f4f87f1a1bc",
          "blockNumber": "0x1b",
          "blockTimestamp": "0x69666f7c",
          "transactionHash": "0x7c502ac501942dd735dc0196df91cdd500c49f19f4e20e4085b732afdc2226c7",
          "transactionIndex": "0x0",
          "logIndex": "0x7",
          "removed": false
        }
      ],
      "logsBloom": "0x00000001008000000000004000000000000100000800020000000000000000000000000200000000000000000008000000000000040080000020000000240000000000000284000000000100000040800000400004040000080000000800001000000020000810000000000200000008000001002000000000000000000000000080000000000000010000000000000000001000000000000000000000000000100000000000480000000000000000001000001010000000000100000000000040000000000000000100024000000000002000000000000400000000400040000000000000001000040000000000000100000000000000040000000000804000",
      "type": "0x0",
      "transactionHash": "0x7c502ac501942dd735dc0196df91cdd500c49f19f4e20e4085b732afdc2226c7",
      "transactionIndex": "0x0",
      "blockHash": "0x52f227374c0c897f4d285158b67741fba557912a5899107bd1645f4f87f1a1bc",
      "blockNumber": "0x1b",
      "gasUsed": "0x30384",
      "effectiveGasPrice": "0x3b9aca00",
      "blobGasPrice": "0x1",
      "from": "0xd289d1387ae1033a703842d69501d5bec5a6f04e",
      "to": "0x8828fd7431d5bb1962d7e067c103b2324fa6bbec",
      "contractAddress": null
    },
    {
      "status": "0x1",
      "cumulativeGasUsed": "0xac60",
      "logs": [],
      "logsBloom": "0x00000000000000000000000000000000000000000000000000000000000000000000000000000000000000000000000000000000000000000000000000000000000000000000000000000000000000000000000000000000000000000000000000000000000000000000000000000000000000000000000000000000000000000000000000000000000000000000000000000000000000000000000000000000000000000000000000000000000000000000000000000000000000000000000000000000000000000000000000000000000000000000000000000000000000000000000000000000000000000000000000000000000000000000000000000000",
      "type": "0x0",
      "transactionHash": "0x36d01de7490a4bb86e8cf80cb286ddabd66ba87a04de7c38e917290146251b60",
      "transactionIndex": "0x0",
      "blockHash": "0xf8d863fd6b3ab9204efb8ae7c2d16a440e5462245f4dec256bb8ae9747fb5c34",
      "blockNumber": "0x1c",
      "gasUsed": "0xac60",
      "effectiveGasPrice": "0x3b9aca00",
      "blobGasPrice": "0x1",
      "from": "0xd289d1387ae1033a703842d69501d5bec5a6f04e",
      "to": "0x4d4adec97e3e11693f65dedc2d1e6bec784eb2f1",
      "contractAddress": null
    },
    {
      "status": "0x1",
      "cumulativeGasUsed": "0x3df00",
      "logs": [
        {
          "address": "0x8828fd7431d5bb1962d7e067c103b2324fa6bbec",
          "topics": [
            "0x7391f14355eff1e559e381f5bf49886a77da7c4fdd33c6fc2e0142269c561c59",
            "0xa62b8a7c2f7d736c926aaf6211629e032489b72fb1ef32cf9bc92754aca6fdf5",
            "0xdd7cb67cbc9b2e724e3c3436ed7f91b70ab95f42de0014b70c9f2f9eb7380bb7",
            "0x0000000000000000000000000000000000000000000000000000000000000002"
          ],
          "data": "0x0000000000000000000000000000000000000000000000000000000000000000000000000000000000000000000000000000000000000000000000000000006f000000000000000000000000d59d27b9172ad056cb5c008dc2bbefe702123a55000000000000000000000000000000000000000000000000000000000000000000000000000000000000000000000000000000000000000000000000000000000000000000000000000000004d4adec97e3e11693f65dedc2d1e6bec784eb2f1000000000000000000000000f86c23c1e883ee3b820fb9be75ff91c9a49eae750000000000000000000000002023a9ae4d68fea5b1bef01f207b249c9f2cecbf00000000000000000000000024cd17a955b086861800bac8dd1a6796419bfd2b",
          "blockHash": "0x30e7e2be24fe1cbd01e58533ffc742998bd120103625e48b6f3d49871a09cb46",
          "blockNumber": "0x1d",
          "blockTimestamp": "0x69666f7e",
          "transactionHash": "0xaedae0178498b2a31bbe450105e800c9fe3ec7f30955749b5cdc3c7afe91bcbf",
          "transactionIndex": "0x0",
          "logIndex": "0x0",
          "removed": false
        },
        {
          "address": "0x8828fd7431d5bb1962d7e067c103b2324fa6bbec",
          "topics": [
            "0x78160f0b1b2b32b52a0076d8f0f70888687ba702a4d993d55ac8d9327d57a127",
            "0x000000000000000000000000000000000000000000000000000000000000000c",
            "0x205ba6187847697d8ae8dda81dab824ac338d50a73465e4e4d052931533c775e",
            "0x0d6af4b1b409940b716e50621f70cbd839b2b7fb8a9a87abb684a921e7e6af2d"
          ],
          "data": "0x7391f14355eff1e559e381f5bf49886a77da7c4fdd33c6fc2e0142269c561c5900000000000000000000000000000000000000000000000000000000000000400000000000000000000000000000000000000000000000000000000000000180a62b8a7c2f7d736c926aaf6211629e032489b72fb1ef32cf9bc92754aca6fdf5dd7cb67cbc9b2e724e3c3436ed7f91b70ab95f42de0014b70c9f2f9eb7380bb700000000000000000000000000000000000000000000000000000000000000020000000000000000000000000000000000000000000000000000000000000000000000000000000000000000000000000000000000000000000000000000006f000000000000000000000000d59d27b9172ad056cb5c008dc2bbefe702123a55000000000000000000000000000000000000000000000000000000000000000000000000000000000000000000000000000000000000000000000000000000000000000000000000000000004d4adec97e3e11693f65dedc2d1e6bec784eb2f1000000000000000000000000f86c23c1e883ee3b820fb9be75ff91c9a49eae750000000000000000000000002023a9ae4d68fea5b1bef01f207b249c9f2cecbf00000000000000000000000024cd17a955b086861800bac8dd1a6796419bfd2b",
          "blockHash": "0x30e7e2be24fe1cbd01e58533ffc742998bd120103625e48b6f3d49871a09cb46",
          "blockNumber": "0x1d",
          "blockTimestamp": "0x69666f7e",
          "transactionHash": "0xaedae0178498b2a31bbe450105e800c9fe3ec7f30955749b5cdc3c7afe91bcbf",
          "transactionIndex": "0x0",
          "logIndex": "0x1",
          "removed": false
        },
        {
          "address": "0x8828fd7431d5bb1962d7e067c103b2324fa6bbec",
          "topics": [
            "0x488f06a9ca9e19e1dd90c764cc79b765e8a3a089ef27d9a0e39dee21c7643188",
            "0x0e3586f09a71dfe09b3b3bcf08e01e416e0e8e5ee62f256b89c3b61783a12acd",
            "0x00000000000000000000000024cd17a955b086861800bac8dd1a6796419bfd2b"
          ],
          "data": "0x000000000000000000000000e007a594267d5b9a4f5bf6fd054579eb82f5a057",
          "blockHash": "0x30e7e2be24fe1cbd01e58533ffc742998bd120103625e48b6f3d49871a09cb46",
          "blockNumber": "0x1d",
          "blockTimestamp": "0x69666f7e",
          "transactionHash": "0xaedae0178498b2a31bbe450105e800c9fe3ec7f30955749b5cdc3c7afe91bcbf",
          "transactionIndex": "0x0",
          "logIndex": "0x2",
          "removed": false
        },
        {
          "address": "0x8828fd7431d5bb1962d7e067c103b2324fa6bbec",
          "topics": [
            "0x78160f0b1b2b32b52a0076d8f0f70888687ba702a4d993d55ac8d9327d57a127",
            "0x000000000000000000000000000000000000000000000000000000000000000d",
            "0x0d6af4b1b409940b716e50621f70cbd839b2b7fb8a9a87abb684a921e7e6af2d",
            "0x7c3c9cf557dc713a2d2c786678d7d127925b7902dbae455eed18804d0889e4e0"
          ],
          "data": "0x488f06a9ca9e19e1dd90c764cc79b765e8a3a089ef27d9a0e39dee21c7643188000000000000000000000000000000000000000000000000000000000000004000000000000000000000000000000000000000000000000000000000000000600e3586f09a71dfe09b3b3bcf08e01e416e0e8e5ee62f256b89c3b61783a12acd00000000000000000000000024cd17a955b086861800bac8dd1a6796419bfd2b000000000000000000000000e007a594267d5b9a4f5bf6fd054579eb82f5a057",
          "blockHash": "0x30e7e2be24fe1cbd01e58533ffc742998bd120103625e48b6f3d49871a09cb46",
          "blockNumber": "0x1d",
          "blockTimestamp": "0x69666f7e",
          "transactionHash": "0xaedae0178498b2a31bbe450105e800c9fe3ec7f30955749b5cdc3c7afe91bcbf",
          "transactionIndex": "0x0",
          "logIndex": "0x3",
          "removed": false
        },
        {
          "address": "0x8828fd7431d5bb1962d7e067c103b2324fa6bbec",
          "topics": [
            "0x2f4c76c8d18f45069b0941499205a7fceaaa3caf9e2e6328f6a544cd339120f3",
            "0xa62b8a7c2f7d736c926aaf6211629e032489b72fb1ef32cf9bc92754aca6fdf5",
            "0x0000000000000000000000004d4adec97e3e11693f65dedc2d1e6bec784eb2f1",
            "0x000000000000000000000000f86c23c1e883ee3b820fb9be75ff91c9a49eae75"
          ],
          "data": "0x00000000000000000000000000000000000000000000000000000000055d4a800000000000000000000000000000000000000000000000000000000005f5e100",
          "blockHash": "0x30e7e2be24fe1cbd01e58533ffc742998bd120103625e48b6f3d49871a09cb46",
          "blockNumber": "0x1d",
          "blockTimestamp": "0x69666f7e",
          "transactionHash": "0xaedae0178498b2a31bbe450105e800c9fe3ec7f30955749b5cdc3c7afe91bcbf",
          "transactionIndex": "0x0",
          "logIndex": "0x4",
          "removed": false
        },
        {
          "address": "0x8828fd7431d5bb1962d7e067c103b2324fa6bbec",
          "topics": [
            "0x78160f0b1b2b32b52a0076d8f0f70888687ba702a4d993d55ac8d9327d57a127",
            "0x000000000000000000000000000000000000000000000000000000000000000e",
            "0x7c3c9cf557dc713a2d2c786678d7d127925b7902dbae455eed18804d0889e4e0",
            "0xd9aaa766938a538523ad015e1e56c4edf8571755d5b2b6c5a5392d9fa40c288d"
          ],
          "data": "0x2f4c76c8d18f45069b0941499205a7fceaaa3caf9e2e6328f6a544cd339120f3000000000000000000000000000000000000000000000000000000000000004000000000000000000000000000000000000000000000000000000000000000a0a62b8a7c2f7d736c926aaf6211629e032489b72fb1ef32cf9bc92754aca6fdf50000000000000000000000004d4adec97e3e11693f65dedc2d1e6bec784eb2f1000000000000000000000000f86c23c1e883ee3b820fb9be75ff91c9a49eae7500000000000000000000000000000000000000000000000000000000055d4a800000000000000000000000000000000000000000000000000000000005f5e100",
          "blockHash": "0x30e7e2be24fe1cbd01e58533ffc742998bd120103625e48b6f3d49871a09cb46",
          "blockNumber": "0x1d",
          "blockTimestamp": "0x69666f7e",
          "transactionHash": "0xaedae0178498b2a31bbe450105e800c9fe3ec7f30955749b5cdc3c7afe91bcbf",
          "transactionIndex": "0x0",
          "logIndex": "0x5",
          "removed": false
        },
        {
          "address": "0x8828fd7431d5bb1962d7e067c103b2324fa6bbec",
          "topics": [
            "0x2e659081f44c4f56a18b00f3f9d136d7ee8396bc79163c4d61363ddcf4a4cb27",
            "0xa62b8a7c2f7d736c926aaf6211629e032489b72fb1ef32cf9bc92754aca6fdf5"
          ],
          "data": "0x00000000000000000000000000000000000000000000000000000000000000000000000000000000000000000000000000000000000000000000000005f5e10000000000000000000000000000000000000000000000000000000000055d4a8000000000000000000000000000000000000000000000000000000000009896800000000000000000000000000000000000000000000000000000000000000000000000000000000000000000000000000000000000000000000000000000000100000000000000000000000000000000000000000000000000000000000000000000000000000000000000000000000000000000000000000000000000000000c5d2460186f7233c927e7db2dcc703c0e500b653ca82273b7bfad8045d85a470",
          "blockHash": "0x30e7e2be24fe1cbd01e58533ffc742998bd120103625e48b6f3d49871a09cb46",
          "blockNumber": "0x1d",
          "blockTimestamp": "0x69666f7e",
          "transactionHash": "0xaedae0178498b2a31bbe450105e800c9fe3ec7f30955749b5cdc3c7afe91bcbf",
          "transactionIndex": "0x0",
          "logIndex": "0x6",
          "removed": false
        },
        {
          "address": "0x8828fd7431d5bb1962d7e067c103b2324fa6bbec",
          "topics": [
            "0x78160f0b1b2b32b52a0076d8f0f70888687ba702a4d993d55ac8d9327d57a127",
            "0x000000000000000000000000000000000000000000000000000000000000000f",
            "0xd9aaa766938a538523ad015e1e56c4edf8571755d5b2b6c5a5392d9fa40c288d",
            "0x5cec23e4a9d0462c5d68ea7239792f2b0dadaf32e7a0aabb25d4e9e3b9f48bc9"
          ],
          "data": "0x2e659081f44c4f56a18b00f3f9d136d7ee8396bc79163c4d61363ddcf4a4cb2700000000000000000000000000000000000000000000000000000000000000400000000000000000000000000000000000000000000000000000000000000140a62b8a7c2f7d736c926aaf6211629e032489b72fb1ef32cf9bc92754aca6fdf500000000000000000000000000000000000000000000000000000000000000000000000000000000000000000000000000000000000000000000000005f5e10000000000000000000000000000000000000000000000000000000000055d4a8000000000000000000000000000000000000000000000000000000000009896800000000000000000000000000000000000000000000000000000000000000000000000000000000000000000000000000000000000000000000000000000000100000000000000000000000000000000000000000000000000000000000000000000000000000000000000000000000000000000000000000000000000000000c5d2460186f7233c927e7db2dcc703c0e500b653ca82273b7bfad8045d85a470",
          "blockHash": "0x30e7e2be24fe1cbd01e58533ffc742998bd120103625e48b6f3d49871a09cb46",
          "blockNumber": "0x1d",
          "blockTimestamp": "0x69666f7e",
          "transactionHash": "0xaedae0178498b2a31bbe450105e800c9fe3ec7f30955749b5cdc3c7afe91bcbf",
          "transactionIndex": "0x0",
          "logIndex": "0x7",
          "removed": false
        }
      ],
      "logsBloom": "0x04000001000000000040000000004000000002000800020000800400000000000000000200000200000000400000000000008000000000000000001000200000000000000280000800000100000000800002002000000000080020000802000000200020001800002000000000000008000000002000000080000000000000000000000000000880001040000100000008000000004000000001000000000000000000000000400000000100000000080000000010000020200100000000000000000000000008000100000000000000000000000000000408400404000000220000000200000000000000000000000100000000008000000000010000004000",
      "type": "0x0",
      "transactionHash": "0xaedae0178498b2a31bbe450105e800c9fe3ec7f30955749b5cdc3c7afe91bcbf",
      "transactionIndex": "0x0",
      "blockHash": "0x30e7e2be24fe1cbd01e58533ffc742998bd120103625e48b6f3d49871a09cb46",
      "blockNumber": "0x1d",
      "gasUsed": "0x3df00",
      "effectiveGasPrice": "0x3b9aca00",
      "blobGasPrice": "0x1",
      "from": "0xd289d1387ae1033a703842d69501d5bec5a6f04e",
      "to": "0x8828fd7431d5bb1962d7e067c103b2324fa6bbec",
      "contractAddress": null
    },
    {
      "status": "0x1",
      "cumulativeGasUsed": "0x6994",
      "logs": [],
      "logsBloom": "0x00000000000000000000000000000000000000000000000000000000000000000000000000000000000000000000000000000000000000000000000000000000000000000000000000000000000000000000000000000000000000000000000000000000000000000000000000000000000000000000000000000000000000000000000000000000000000000000000000000000000000000000000000000000000000000000000000000000000000000000000000000000000000000000000000000000000000000000000000000000000000000000000000000000000000000000000000000000000000000000000000000000000000000000000000000000",
      "type": "0x0",
      "transactionHash": "0x673bfefe6dd9f3d7d5ccd91876f25c4f64567d358831d72e246a1f258d337556",
      "transactionIndex": "0x0",
      "blockHash": "0x73f3d410c0fed1c82b4f20c0fd36ee8f12a935b11ad0fe9f3827f093611dfbc8",
      "blockNumber": "0x1e",
      "gasUsed": "0x6994",
      "effectiveGasPrice": "0x3b9aca00",
      "blobGasPrice": "0x1",
      "from": "0xd289d1387ae1033a703842d69501d5bec5a6f04e",
      "to": "0xf86c23c1e883ee3b820fb9be75ff91c9a49eae75",
      "contractAddress": null
    },
    {
      "status": "0x1",
      "cumulativeGasUsed": "0xad94",
      "logs": [],
      "logsBloom": "0x00000000000000000000000000000000000000000000000000000000000000000000000000000000000000000000000000000000000000000000000000000000000000000000000000000000000000000000000000000000000000000000000000000000000000000000000000000000000000000000000000000000000000000000000000000000000000000000000000000000000000000000000000000000000000000000000000000000000000000000000000000000000000000000000000000000000000000000000000000000000000000000000000000000000000000000000000000000000000000000000000000000000000000000000000000000",
      "type": "0x0",
      "transactionHash": "0x1193618ca7c4b0908d28701f918a6c723fe1f7d16a10b1871df5bce92b307e0e",
      "transactionIndex": "0x0",
      "blockHash": "0xfb9b800c5a3ef150f4e845b61950b9618fdd2efbed1b26817f44d46b24b1df60",
      "blockNumber": "0x1f",
      "gasUsed": "0xad94",
      "effectiveGasPrice": "0x3b9aca00",
      "blobGasPrice": "0x1",
      "from": "0xd289d1387ae1033a703842d69501d5bec5a6f04e",
      "to": "0xf86c23c1e883ee3b820fb9be75ff91c9a49eae75",
      "contractAddress": null
    },
    {
      "status": "0x1",
      "cumulativeGasUsed": "0x52d69",
      "logs": [
        {
          "address": "0x048255dfef2ebfa7307058ae475a3e2f5ee0df46",
          "topics": [
            "0x6f81b8ad0780a0febc687a3a73b181433722b4be30f7f0a024169f5161267287",
            "0x116d6f331e650fc656be220201bb40702f5f20f76ba038f3aa6f6a7bf1afd2f1",
            "0x000000000000000000000000d289d1387ae1033a703842d69501d5bec5a6f04e"
          ],
          "data": "0x0000000000000000000000000000000000000000000000000000000000000000000000000000000000000000f86c23c1e883ee3b820fb9be75ff91c9a49eae7500000000000000000000000000000000000000000000000000000000004c4b40000000000000000000000000d289d1387ae1033a703842d69501d5bec5a6f04e0000000000000000000000000000000000000000000000000000000069666f2600000000000000000000000000000000000000000000000000000000000000c000000000000000000000000000000000000000000000000000000000000000a000000000000000000000000000000000000000000000000000000000000000200000000000000000000000002db97a32d5ce8d79f7b7fdc607584a7a35da5e0d00000000000000000000000000000000000000000000000000000000000000400000000000000000000000000000000000000000000000000000000000000002abcd000000000000000000000000000000000000000000000000000000000000",
          "blockHash": "0xf603f25758a19f38ede5fa9765e1d06fdf7c4ea668e789916ee28e649513d057",
          "blockNumber": "0x20",
          "blockTimestamp": "0x69666f81",
          "transactionHash": "0x840e94975a0d11d2e44fc8c102fab2b0c77d74fa7975fc7ef3493d93cf565436",
          "transactionIndex": "0x0",
          "logIndex": "0x0",
          "removed": false
        },
        {
          "address": "0x048255dfef2ebfa7307058ae475a3e2f5ee0df46",
          "topics": [
            "0x78160f0b1b2b32b52a0076d8f0f70888687ba702a4d993d55ac8d9327d57a127",
            "0x0000000000000000000000000000000000000000000000000000000000000004",
            "0xd23b105da2ae7a3241a4f6d8c4198089855b8035b3a9975ca6f350e32e093be1",
            "0xf9079a3923c90a999ffecf57d1312c334759bccc4bed0eeccf68d763d6e1b08a"
          ],
          "data": "0x6f81b8ad0780a0febc687a3a73b181433722b4be30f7f0a024169f5161267287000000000000000000000000000000000000000000000000000000000000004000000000000000000000000000000000000000000000000000000000000001c0116d6f331e650fc656be220201bb40702f5f20f76ba038f3aa6f6a7bf1afd2f1000000000000000000000000d289d1387ae1033a703842d69501d5bec5a6f04e0000000000000000000000000000000000000000000000000000000000000000000000000000000000000000f86c23c1e883ee3b820fb9be75ff91c9a49eae7500000000000000000000000000000000000000000000000000000000004c4b40000000000000000000000000d289d1387ae1033a703842d69501d5bec5a6f04e0000000000000000000000000000000000000000000000000000000069666f26000000000000000000000000000000000000000000000000000000000000010000000000000000000000000000000000000000000000000000000000000000a000000000000000000000000000000000000000000000000000000000000000200000000000000000000000002db97a32d5ce8d79f7b7fdc607584a7a35da5e0d00000000000000000000000000000000000000000000000000000000000000400000000000000000000000000000000000000000000000000000000000000002abcd000000000000000000000000000000000000000000000000000000000000",
          "blockHash": "0xf603f25758a19f38ede5fa9765e1d06fdf7c4ea668e789916ee28e649513d057",
          "blockNumber": "0x20",
          "blockTimestamp": "0x69666f81",
          "transactionHash": "0x840e94975a0d11d2e44fc8c102fab2b0c77d74fa7975fc7ef3493d93cf565436",
          "transactionIndex": "0x0",
          "logIndex": "0x1",
          "removed": false
        },
        {
          "address": "0x048255dfef2ebfa7307058ae475a3e2f5ee0df46",
          "topics": [
            "0x0544741ff6f2708047138c8f3a68abb994e628666dba785f685ff1035274f9fb",
            "0x116d6f331e650fc656be220201bb40702f5f20f76ba038f3aa6f6a7bf1afd2f1",
            "0x000000000000000000000000d289d1387ae1033a703842d69501d5bec5a6f04e"
          ],
          "data": "0x000000000000000000000000f86c23c1e883ee3b820fb9be75ff91c9a49eae7500000000000000000000000000000000000000000000000000000000004c4b40",
          "blockHash": "0xf603f25758a19f38ede5fa9765e1d06fdf7c4ea668e789916ee28e649513d057",
          "blockNumber": "0x20",
          "blockTimestamp": "0x69666f81",
          "transactionHash": "0x840e94975a0d11d2e44fc8c102fab2b0c77d74fa7975fc7ef3493d93cf565436",
          "transactionIndex": "0x0",
          "logIndex": "0x2",
          "removed": false
        },
        {
          "address": "0x048255dfef2ebfa7307058ae475a3e2f5ee0df46",
          "topics": [
            "0x78160f0b1b2b32b52a0076d8f0f70888687ba702a4d993d55ac8d9327d57a127",
            "0x0000000000000000000000000000000000000000000000000000000000000005",
            "0xf9079a3923c90a999ffecf57d1312c334759bccc4bed0eeccf68d763d6e1b08a",
            "0x8b064fdbd9752aa98b03ca80ff5b259bd4f3990e572a8feaacac497604473bc1"
          ],
          "data": "0x0544741ff6f2708047138c8f3a68abb994e628666dba785f685ff1035274f9fb00000000000000000000000000000000000000000000000000000000000000400000000000000000000000000000000000000000000000000000000000000080116d6f331e650fc656be220201bb40702f5f20f76ba038f3aa6f6a7bf1afd2f1000000000000000000000000d289d1387ae1033a703842d69501d5bec5a6f04e000000000000000000000000f86c23c1e883ee3b820fb9be75ff91c9a49eae7500000000000000000000000000000000000000000000000000000000004c4b40",
          "blockHash": "0xf603f25758a19f38ede5fa9765e1d06fdf7c4ea668e789916ee28e649513d057",
          "blockNumber": "0x20",
          "blockTimestamp": "0x69666f81",
          "transactionHash": "0x840e94975a0d11d2e44fc8c102fab2b0c77d74fa7975fc7ef3493d93cf565436",
          "transactionIndex": "0x0",
          "logIndex": "0x3",
          "removed": false
        }
      ],
      "logsBloom": "0x08000000000000000000000000000000000000000000000000000000000000000000000000000000000000080000000000000000000000000000000000200100000010001080000044000000000000000004000500000000000000000000000008000000000800804000000000000000000000000000000000000000208000000000000000000000000000000000001000000800000000000000000000000000000000000000000020000000000000000000200200000000202000000000000000000000400000000000020001000000000000008200000000000000000000000080000000000000000000000000100000000000000000000000000000004000",
      "type": "0x0",
      "transactionHash": "0x840e94975a0d11d2e44fc8c102fab2b0c77d74fa7975fc7ef3493d93cf565436",
      "transactionIndex": "0x0",
      "blockHash": "0xf603f25758a19f38ede5fa9765e1d06fdf7c4ea668e789916ee28e649513d057",
      "blockNumber": "0x20",
      "gasUsed": "0x52d69",
      "effectiveGasPrice": "0x3b9aca00",
      "blobGasPrice": "0x1",
      "from": "0xd289d1387ae1033a703842d69501d5bec5a6f04e",
      "to": "0x048255dfef2ebfa7307058ae475a3e2f5ee0df46",
      "contractAddress": null
    },
    {
      "status": "0x1",
      "cumulativeGasUsed": "0xac60",
      "logs": [],
      "logsBloom": "0x00000000000000000000000000000000000000000000000000000000000000000000000000000000000000000000000000000000000000000000000000000000000000000000000000000000000000000000000000000000000000000000000000000000000000000000000000000000000000000000000000000000000000000000000000000000000000000000000000000000000000000000000000000000000000000000000000000000000000000000000000000000000000000000000000000000000000000000000000000000000000000000000000000000000000000000000000000000000000000000000000000000000000000000000000000000",
      "type": "0x0",
      "transactionHash": "0x05c2317c0bed7f97c38ae0b6aa48987e4d1c267ba584761ea2ba850fb1afe1f8",
      "transactionIndex": "0x0",
      "blockHash": "0x747e7cae3e53b1978cece57792c9c983cbaafe7942078bd4ac38f3680fe057e7",
      "blockNumber": "0x21",
      "gasUsed": "0xac60",
      "effectiveGasPrice": "0x3b9aca00",
      "blobGasPrice": "0x1",
      "from": "0xd289d1387ae1033a703842d69501d5bec5a6f04e",
      "to": "0x4d4adec97e3e11693f65dedc2d1e6bec784eb2f1",
      "contractAddress": null
    },
    {
      "status": "0x1",
      "cumulativeGasUsed": "0xad94",
      "logs": [],
      "logsBloom": "0x00000000000000000000000000000000000000000000000000000000000000000000000000000000000000000000000000000000000000000000000000000000000000000000000000000000000000000000000000000000000000000000000000000000000000000000000000000000000000000000000000000000000000000000000000000000000000000000000000000000000000000000000000000000000000000000000000000000000000000000000000000000000000000000000000000000000000000000000000000000000000000000000000000000000000000000000000000000000000000000000000000000000000000000000000000000",
      "type": "0x0",
      "transactionHash": "0x6e9d34b314c8968de06008f1c77284b05427bc4f4fbcbe14eea5cd6f91441a9f",
      "transactionIndex": "0x0",
      "blockHash": "0xa8a98c47edea5de0fdbdeec0f3e3d04dbd024463ed372e24d78903dfd575463a",
      "blockNumber": "0x22",
      "gasUsed": "0xad94",
      "effectiveGasPrice": "0x3b9aca00",
      "blobGasPrice": "0x1",
      "from": "0xd289d1387ae1033a703842d69501d5bec5a6f04e",
      "to": "0x4d4adec97e3e11693f65dedc2d1e6bec784eb2f1",
      "contractAddress": null
    },
    {
      "status": "0x1",
      "cumulativeGasUsed": "0x17623",
      "logs": [
        {
          "address": "0x048255dfef2ebfa7307058ae475a3e2f5ee0df46",
          "topics": [
            "0xbc3f7b7e77a395c156c24db8a8a7850209b2df71a2561292eea221e32bf5d467",
            "0x116d6f331e650fc656be220201bb40702f5f20f76ba038f3aa6f6a7bf1afd2f1",
            "0x000000000000000000000000d289d1387ae1033a703842d69501d5bec5a6f04e"
          ],
          "data": "0x00000000000000000000000000000000000000000000000000000000000f4240",
          "blockHash": "0xef658522d872b2389ff17332fef0b6e982d92cfd2734c0a19f659c27fc261e1d",
          "blockNumber": "0x23",
          "blockTimestamp": "0x69666f84",
          "transactionHash": "0x1675b88e4d2d10349807aa9a10d74c81f71c2c823869618d108f42535d03e614",
          "transactionIndex": "0x0",
          "logIndex": "0x0",
          "removed": false
        },
        {
          "address": "0x048255dfef2ebfa7307058ae475a3e2f5ee0df46",
          "topics": [
            "0x78160f0b1b2b32b52a0076d8f0f70888687ba702a4d993d55ac8d9327d57a127",
            "0x0000000000000000000000000000000000000000000000000000000000000006",
            "0x8b064fdbd9752aa98b03ca80ff5b259bd4f3990e572a8feaacac497604473bc1",
            "0x3a9b1399af91148968a341c7329a8befaeca140345bcbe4132ce58d6c7b1bac5"
          ],
          "data": "0xbc3f7b7e77a395c156c24db8a8a7850209b2df71a2561292eea221e32bf5d46700000000000000000000000000000000000000000000000000000000000000400000000000000000000000000000000000000000000000000000000000000060116d6f331e650fc656be220201bb40702f5f20f76ba038f3aa6f6a7bf1afd2f1000000000000000000000000d289d1387ae1033a703842d69501d5bec5a6f04e00000000000000000000000000000000000000000000000000000000000f4240",
          "blockHash": "0xef658522d872b2389ff17332fef0b6e982d92cfd2734c0a19f659c27fc261e1d",
          "blockNumber": "0x23",
          "blockTimestamp": "0x69666f84",
          "transactionHash": "0x1675b88e4d2d10349807aa9a10d74c81f71c2c823869618d108f42535d03e614",
          "transactionIndex": "0x0",
          "logIndex": "0x1",
          "removed": false
        }
      ],
      "logsBloom": "0x00000000000000002000000000000000000000000000000000000000000000000000000000000000000000080000000000000000000400000000000000200100000000001000000004000000000000000000000400000004000000000000000000000000000800004000000000000000000000000000000000000000000000000000000400000000000800000800000000000000000000000000000000000000000000000000000000000000000000020000000200000000000000080000000000000000400000000000000001000000000000000200000000000000000000000080000000000000000000000000100000000000000000000000000000004002",
      "type": "0x0",
      "transactionHash": "0x1675b88e4d2d10349807aa9a10d74c81f71c2c823869618d108f42535d03e614",
      "transactionIndex": "0x0",
      "blockHash": "0xef658522d872b2389ff17332fef0b6e982d92cfd2734c0a19f659c27fc261e1d",
      "blockNumber": "0x23",
      "gasUsed": "0x17623",
      "effectiveGasPrice": "0x3b9aca00",
      "blobGasPrice": "0x1",
      "from": "0xd289d1387ae1033a703842d69501d5bec5a6f04e",
      "to": "0x048255dfef2ebfa7307058ae475a3e2f5ee0df46",
      "contractAddress": null
    },
    {
      "status": "0x1",
      "cumulativeGasUsed": "0x121f6",
      "logs": [],
      "logsBloom": "0x00000000000000000000000000000000000000000000000000000000000000000000000000000000000000000000000000000000000000000000000000000000000000000000000000000000000000000000000000000000000000000000000000000000000000000000000000000000000000000000000000000000000000000000000000000000000000000000000000000000000000000000000000000000000000000000000000000000000000000000000000000000000000000000000000000000000000000000000000000000000000000000000000000000000000000000000000000000000000000000000000000000000000000000000000000000",
      "type": "0x0",
      "transactionHash": "0x595680c106d52df9f0bf9c3c73426e9007f0bb5985b65f9337516ed69ef1b049",
      "transactionIndex": "0x0",
      "blockHash": "0x62a3541a1401e0722c25479a376a5eeaa6a652a3238321f4d6621bb36b4ca85f",
      "blockNumber": "0x24",
      "gasUsed": "0x121f6",
      "effectiveGasPrice": "0x3b9aca00",
      "blobGasPrice": "0x1",
      "from": "0xd289d1387ae1033a703842d69501d5bec5a6f04e",
      "to": "0x8c16d2f19a034b7281254f5656c2d1461c6ceb9a",
      "contractAddress": null
    },
    {
      "status": "0x1",
      "cumulativeGasUsed": "0x2a95a",
      "logs": [
        {
          "address": "0x048255dfef2ebfa7307058ae475a3e2f5ee0df46",
          "topics": [
            "0xfa797585c9827d59a7694ef382241f1a03ced6a1a2b4353b35939abc4d04b286",
            "0x116d6f331e650fc656be220201bb40702f5f20f76ba038f3aa6f6a7bf1afd2f1",
            "0x000000000000000000000000d289d1387ae1033a703842d69501d5bec5a6f04e"
          ],
          "data": "0x00000000000000000000000000000000000000000000000000000000000000000000000000000000000000000000000000000000000000000000000000000000",
          "blockHash": "0xddf72d9ab2fcf6739d75c75b18bc4b4307d7ce5780337045f654ae9973e8b153",
          "blockNumber": "0x25",
          "blockTimestamp": "0x69666f86",
          "transactionHash": "0xc6c6bf38b85449689c0110e6b425ee5fc591c21938a2a67e5db0f1bb003de939",
          "transactionIndex": "0x0",
          "logIndex": "0x0",
          "removed": false
        },
        {
          "address": "0x048255dfef2ebfa7307058ae475a3e2f5ee0df46",
          "topics": [
            "0x78160f0b1b2b32b52a0076d8f0f70888687ba702a4d993d55ac8d9327d57a127",
            "0x0000000000000000000000000000000000000000000000000000000000000007",
            "0x3a9b1399af91148968a341c7329a8befaeca140345bcbe4132ce58d6c7b1bac5",
            "0xdab7ba9c960e2481695ffef20f645c5c4f8f6bb9c76cbcdb690b234dc44d70f9"
          ],
          "data": "0xfa797585c9827d59a7694ef382241f1a03ced6a1a2b4353b35939abc4d04b28600000000000000000000000000000000000000000000000000000000000000400000000000000000000000000000000000000000000000000000000000000080116d6f331e650fc656be220201bb40702f5f20f76ba038f3aa6f6a7bf1afd2f1000000000000000000000000d289d1387ae1033a703842d69501d5bec5a6f04e00000000000000000000000000000000000000000000000000000000000000000000000000000000000000000000000000000000000000000000000000000000",
          "blockHash": "0xddf72d9ab2fcf6739d75c75b18bc4b4307d7ce5780337045f654ae9973e8b153",
          "blockNumber": "0x25",
          "blockTimestamp": "0x69666f86",
          "transactionHash": "0xc6c6bf38b85449689c0110e6b425ee5fc591c21938a2a67e5db0f1bb003de939",
          "transactionIndex": "0x0",
          "logIndex": "0x1",
          "removed": false
        },
        {
          "address": "0x048255dfef2ebfa7307058ae475a3e2f5ee0df46",
          "topics": [
            "0x16bfb64ae70b8a9bbda28deb27a1cbc5ec3e6497481714344c221b46c0777f35",
            "0x116d6f331e650fc656be220201bb40702f5f20f76ba038f3aa6f6a7bf1afd2f1",
            "0x000000000000000000000000d289d1387ae1033a703842d69501d5bec5a6f04e"
          ],
          "data": "0x000000000000000000000000f86c23c1e883ee3b820fb9be75ff91c9a49eae7500000000000000000000000000000000000000000000000000000000004c4b400000000000000000000000004d4adec97e3e11693f65dedc2d1e6bec784eb2f100000000000000000000000000000000000000000000000000000000000f4240",
          "blockHash": "0xddf72d9ab2fcf6739d75c75b18bc4b4307d7ce5780337045f654ae9973e8b153",
          "blockNumber": "0x25",
          "blockTimestamp": "0x69666f86",
          "transactionHash": "0xc6c6bf38b85449689c0110e6b425ee5fc591c21938a2a67e5db0f1bb003de939",
          "transactionIndex": "0x0",
          "logIndex": "0x2",
          "removed": false
        },
        {
          "address": "0x048255dfef2ebfa7307058ae475a3e2f5ee0df46",
          "topics": [
            "0x78160f0b1b2b32b52a0076d8f0f70888687ba702a4d993d55ac8d9327d57a127",
            "0x0000000000000000000000000000000000000000000000000000000000000008",
            "0xdab7ba9c960e2481695ffef20f645c5c4f8f6bb9c76cbcdb690b234dc44d70f9",
            "0xe6e27101333e667eefc37ba99da978ff5b78a641c3fd43360d056d7d718f9b11"
          ],
          "data": "0x16bfb64ae70b8a9bbda28deb27a1cbc5ec3e6497481714344c221b46c0777f35000000000000000000000000000000000000000000000000000000000000004000000000000000000000000000000000000000000000000000000000000000c0116d6f331e650fc656be220201bb40702f5f20f76ba038f3aa6f6a7bf1afd2f1000000000000000000000000d289d1387ae1033a703842d69501d5bec5a6f04e000000000000000000000000f86c23c1e883ee3b820fb9be75ff91c9a49eae7500000000000000000000000000000000000000000000000000000000004c4b400000000000000000000000004d4adec97e3e11693f65dedc2d1e6bec784eb2f100000000000000000000000000000000000000000000000000000000000f4240",
          "blockHash": "0xddf72d9ab2fcf6739d75c75b18bc4b4307d7ce5780337045f654ae9973e8b153",
          "blockNumber": "0x25",
          "blockTimestamp": "0x69666f86",
          "transactionHash": "0xc6c6bf38b85449689c0110e6b425ee5fc591c21938a2a67e5db0f1bb003de939",
          "transactionIndex": "0x0",
          "logIndex": "0x3",
          "removed": false
        }
      ],
      "logsBloom": "0x000000000000000000000000000000000000000000000000000000000000880000000000000000000000000000000002000010000000800000020000002000000000200010000000040000001000000000000004000000000000000000000000000000000108000040000000000000000000000000000000002000000000000000800000000000000008000008000000000000000000000000000a0000000000000000000000000000000002000000020000000200000000000000000000000050000000400000000000000000000000000000000200000000000100000000000080000000000000000000000000100000000000000000000000000002004000",
      "type": "0x0",
      "transactionHash": "0xc6c6bf38b85449689c0110e6b425ee5fc591c21938a2a67e5db0f1bb003de939",
      "transactionIndex": "0x0",
      "blockHash": "0xddf72d9ab2fcf6739d75c75b18bc4b4307d7ce5780337045f654ae9973e8b153",
      "blockNumber": "0x25",
      "gasUsed": "0x2a95a",
      "effectiveGasPrice": "0x3b9aca00",
      "blobGasPrice": "0x1",
      "from": "0xd289d1387ae1033a703842d69501d5bec5a6f04e",
      "to": "0x048255dfef2ebfa7307058ae475a3e2f5ee0df46",
      "contractAddress": null
    },
    {
      "status": "0x1",
      "cumulativeGasUsed": "0x6994",
      "logs": [],
      "logsBloom": "0x00000000000000000000000000000000000000000000000000000000000000000000000000000000000000000000000000000000000000000000000000000000000000000000000000000000000000000000000000000000000000000000000000000000000000000000000000000000000000000000000000000000000000000000000000000000000000000000000000000000000000000000000000000000000000000000000000000000000000000000000000000000000000000000000000000000000000000000000000000000000000000000000000000000000000000000000000000000000000000000000000000000000000000000000000000000",
      "type": "0x0",
      "transactionHash": "0x45b14dbbbe8d1e00e14e30ea6da4a9a9a44c19141c3b1562cf19f7e8314f5ff9",
      "transactionIndex": "0x0",
      "blockHash": "0xb07d50b59afe5e6136d6b689ac53817cb4c2c28f9e3213d24ddf6d6a23719075",
      "blockNumber": "0x26",
      "gasUsed": "0x6994",
      "effectiveGasPrice": "0x3b9aca00",
      "blobGasPrice": "0x1",
      "from": "0xd289d1387ae1033a703842d69501d5bec5a6f04e",
      "to": "0x4d4adec97e3e11693f65dedc2d1e6bec784eb2f1",
      "contractAddress": null
    },
    {
      "status": "0x1",
      "cumulativeGasUsed": "0x5fd8",
      "logs": [],
      "logsBloom": "0x00000000000000000000000000000000000000000000000000000000000000000000000000000000000000000000000000000000000000000000000000000000000000000000000000000000000000000000000000000000000000000000000000000000000000000000000000000000000000000000000000000000000000000000000000000000000000000000000000000000000000000000000000000000000000000000000000000000000000000000000000000000000000000000000000000000000000000000000000000000000000000000000000000000000000000000000000000000000000000000000000000000000000000000000000000000",
      "type": "0x0",
      "transactionHash": "0x63c0f0c60a979577ffd174ff1f9f4b2a65204330c0cd776dd290ae73505a840f",
      "transactionIndex": "0x0",
      "blockHash": "0x37e8b1480a6dd06978a200cdaa71c20a139f59e38f723be8b8ff9e6903c6998c",
      "blockNumber": "0x27",
      "gasUsed": "0x5fd8",
      "effectiveGasPrice": "0x3b9aca00",
      "blobGasPrice": "0x1",
      "from": "0xd289d1387ae1033a703842d69501d5bec5a6f04e",
      "to": "0x4d4adec97e3e11693f65dedc2d1e6bec784eb2f1",
      "contractAddress": null
    },
    {
      "status": "0x1",
      "cumulativeGasUsed": "0x46ef3",
      "logs": [
        {
          "address": "0x048255dfef2ebfa7307058ae475a3e2f5ee0df46",
          "topics": [
            "0x6f81b8ad0780a0febc687a3a73b181433722b4be30f7f0a024169f5161267287",
            "0xf1d099b8e1a7adc008db20f7abe2967c4dfcca8790bf13d0e9e893142a781402",
            "0x000000000000000000000000d289d1387ae1033a703842d69501d5bec5a6f04e"
          ],
          "data": "0x00000000000000000000000000000000000000000000000000000000000000010000000000000000000000004d4adec97e3e11693f65dedc2d1e6bec784eb2f100000000000000000000000000000000000000000000000000000000001e8480000000000000000000000000d289d1387ae1033a703842d69501d5bec5a6f04e0000000000000000000000000000000000000000000000000000000069666f2600000000000000000000000000000000000000000000000000000000000000c00000000000000000000000000000000000000000000000000000000000000040000000000000000000000000558b8fe3b86724d9d9433bf8ec2b1a1b223f9d25000000000000000000000000000000000000000000000000000000000012d687",
          "blockHash": "0x983176ff85ced9827c88a542c1f0004f2c3ba7faf326e3bcf3a626f581fbb7a6",
          "blockNumber": "0x28",
          "blockTimestamp": "0x69666f89",
          "transactionHash": "0x9c1ec38a514c35d59ca085ae040b6b654acc7401bcb5c0c41485dcb65c9fbc8c",
          "transactionIndex": "0x0",
          "logIndex": "0x0",
          "removed": false
        },
        {
          "address": "0x048255dfef2ebfa7307058ae475a3e2f5ee0df46",
          "topics": [
            "0x78160f0b1b2b32b52a0076d8f0f70888687ba702a4d993d55ac8d9327d57a127",
            "0x0000000000000000000000000000000000000000000000000000000000000009",
            "0xe6e27101333e667eefc37ba99da978ff5b78a641c3fd43360d056d7d718f9b11",
            "0xfc8c35237e12d71aa00765919f68432c18a275301b5a759549e2ebbf94c15e14"
          ],
          "data": "0x6f81b8ad0780a0febc687a3a73b181433722b4be30f7f0a024169f516126728700000000000000000000000000000000000000000000000000000000000000400000000000000000000000000000000000000000000000000000000000000160f1d099b8e1a7adc008db20f7abe2967c4dfcca8790bf13d0e9e893142a781402000000000000000000000000d289d1387ae1033a703842d69501d5bec5a6f04e00000000000000000000000000000000000000000000000000000000000000010000000000000000000000004d4adec97e3e11693f65dedc2d1e6bec784eb2f100000000000000000000000000000000000000000000000000000000001e8480000000000000000000000000d289d1387ae1033a703842d69501d5bec5a6f04e0000000000000000000000000000000000000000000000000000000069666f2600000000000000000000000000000000000000000000000000000000000001000000000000000000000000000000000000000000000000000000000000000040000000000000000000000000558b8fe3b86724d9d9433bf8ec2b1a1b223f9d25000000000000000000000000000000000000000000000000000000000012d687",
          "blockHash": "0x983176ff85ced9827c88a542c1f0004f2c3ba7faf326e3bcf3a626f581fbb7a6",
          "blockNumber": "0x28",
          "blockTimestamp": "0x69666f89",
          "transactionHash": "0x9c1ec38a514c35d59ca085ae040b6b654acc7401bcb5c0c41485dcb65c9fbc8c",
          "transactionIndex": "0x0",
          "logIndex": "0x1",
          "removed": false
        },
        {
          "address": "0x048255dfef2ebfa7307058ae475a3e2f5ee0df46",
          "topics": [
            "0x0544741ff6f2708047138c8f3a68abb994e628666dba785f685ff1035274f9fb",
            "0xf1d099b8e1a7adc008db20f7abe2967c4dfcca8790bf13d0e9e893142a781402",
            "0x000000000000000000000000d289d1387ae1033a703842d69501d5bec5a6f04e"
          ],
          "data": "0x0000000000000000000000004d4adec97e3e11693f65dedc2d1e6bec784eb2f100000000000000000000000000000000000000000000000000000000001e8480",
          "blockHash": "0x983176ff85ced9827c88a542c1f0004f2c3ba7faf326e3bcf3a626f581fbb7a6",
          "blockNumber": "0x28",
          "blockTimestamp": "0x69666f89",
          "transactionHash": "0x9c1ec38a514c35d59ca085ae040b6b654acc7401bcb5c0c41485dcb65c9fbc8c",
          "transactionIndex": "0x0",
          "logIndex": "0x2",
          "removed": false
        },
        {
          "address": "0x048255dfef2ebfa7307058ae475a3e2f5ee0df46",
          "topics": [
            "0x78160f0b1b2b32b52a0076d8f0f70888687ba702a4d993d55ac8d9327d57a127",
            "0x000000000000000000000000000000000000000000000000000000000000000a",
            "0xfc8c35237e12d71aa00765919f68432c18a275301b5a759549e2ebbf94c15e14",
            "0xfcab215663fcb288a9520a3a2c96b27b9522a9239a32e12d944074d51f153a6f"
          ],
          "data": "0x0544741ff6f2708047138c8f3a68abb994e628666dba785f685ff1035274f9fb00000000000000000000000000000000000000000000000000000000000000400000000000000000000000000000000000000000000000000000000000000080f1d099b8e1a7adc008db20f7abe2967c4dfcca8790bf13d0e9e893142a781402000000000000000000000000d289d1387ae1033a703842d69501d5bec5a6f04e0000000000000000000000004d4adec97e3e11693f65dedc2d1e6bec784eb2f100000000000000000000000000000000000000000000000000000000001e8480",
          "blockHash": "0x983176ff85ced9827c88a542c1f0004f2c3ba7faf326e3bcf3a626f581fbb7a6",
          "blockNumber": "0x28",
          "blockTimestamp": "0x69666f89",
          "transactionHash": "0x9c1ec38a514c35d59ca085ae040b6b654acc7401bcb5c0c41485dcb65c9fbc8c",
          "transactionIndex": "0x0",
          "logIndex": "0x3",
          "removed": false
        }
      ],
      "logsBloom": "0x00000000000000000000000000020020000000100000000000000000000000000000000000000000000000000000000000000000040000000020000000200000000000000000000004000000100000000004000100000000000000800000000000000000000800004000000000000000000000000000000000200000008000000000000005000000010000000000000000001000000000000000080000000000000000000000000000000000000400000000200200000000200000000080000000000000400000000000020000000000000000000200000000000000000000000000000000000000000000000000100000000000000000000100000000804000",
      "type": "0x0",
      "transactionHash": "0x9c1ec38a514c35d59ca085ae040b6b654acc7401bcb5c0c41485dcb65c9fbc8c",
      "transactionIndex": "0x0",
      "blockHash": "0x983176ff85ced9827c88a542c1f0004f2c3ba7faf326e3bcf3a626f581fbb7a6",
      "blockNumber": "0x28",
      "gasUsed": "0x46ef3",
      "effectiveGasPrice": "0x3b9aca00",
      "blobGasPrice": "0x1",
      "from": "0xd289d1387ae1033a703842d69501d5bec5a6f04e",
      "to": "0x048255dfef2ebfa7307058ae475a3e2f5ee0df46",
      "contractAddress": null
    },
    {
      "status": "0x1",
      "cumulativeGasUsed": "0x6994",
      "logs": [],
      "logsBloom": "0x00000000000000000000000000000000000000000000000000000000000000000000000000000000000000000000000000000000000000000000000000000000000000000000000000000000000000000000000000000000000000000000000000000000000000000000000000000000000000000000000000000000000000000000000000000000000000000000000000000000000000000000000000000000000000000000000000000000000000000000000000000000000000000000000000000000000000000000000000000000000000000000000000000000000000000000000000000000000000000000000000000000000000000000000000000000",
      "type": "0x0",
      "transactionHash": "0x8eeeae544a79cb5a55977e241c9bd38cb18bedcf8158889ea1cc6283aceec8b3",
      "transactionIndex": "0x0",
      "blockHash": "0xbbeec7a96fb11b9a5fa366fae8a998fe9140954112ca08daf267858518a72d47",
      "blockNumber": "0x29",
      "gasUsed": "0x6994",
      "effectiveGasPrice": "0x3b9aca00",
      "blobGasPrice": "0x1",
      "from": "0xd289d1387ae1033a703842d69501d5bec5a6f04e",
      "to": "0x4d4adec97e3e11693f65dedc2d1e6bec784eb2f1",
      "contractAddress": null
    },
    {
      "status": "0x1",
      "cumulativeGasUsed": "0x5fd8",
      "logs": [],
      "logsBloom": "0x00000000000000000000000000000000000000000000000000000000000000000000000000000000000000000000000000000000000000000000000000000000000000000000000000000000000000000000000000000000000000000000000000000000000000000000000000000000000000000000000000000000000000000000000000000000000000000000000000000000000000000000000000000000000000000000000000000000000000000000000000000000000000000000000000000000000000000000000000000000000000000000000000000000000000000000000000000000000000000000000000000000000000000000000000000000",
      "type": "0x0",
      "transactionHash": "0x87ccc77118d5e8c30a5d79bef72571ad0d64537c8e2e377ff52106655b51e205",
      "transactionIndex": "0x0",
      "blockHash": "0xdd9821c1fd2e9042632b9a8e3c26908bf91c7b50f7113f6a605e3aa8aedae762",
      "blockNumber": "0x2a",
      "gasUsed": "0x5fd8",
      "effectiveGasPrice": "0x3b9aca00",
      "blobGasPrice": "0x1",
      "from": "0xd289d1387ae1033a703842d69501d5bec5a6f04e",
      "to": "0x4d4adec97e3e11693f65dedc2d1e6bec784eb2f1",
      "contractAddress": null
    },
    {
      "status": "0x1",
      "cumulativeGasUsed": "0x14617",
      "logs": [
        {
          "address": "0x048255dfef2ebfa7307058ae475a3e2f5ee0df46",
          "topics": [
            "0xbc3f7b7e77a395c156c24db8a8a7850209b2df71a2561292eea221e32bf5d467",
            "0xf1d099b8e1a7adc008db20f7abe2967c4dfcca8790bf13d0e9e893142a781402",
            "0x000000000000000000000000d289d1387ae1033a703842d69501d5bec5a6f04e"
          ],
          "data": "0x00000000000000000000000000000000000000000000000000000000000f4240",
          "blockHash": "0xcccf98de8110541a2199d5dfc37ce489d6473ab2e4dc0f876b722b7ae8e5edb9",
          "blockNumber": "0x2b",
          "blockTimestamp": "0x69666f8c",
          "transactionHash": "0x4b082fa84931d5bb9cc8b6ca3fd3f862d4913211078fb822f68b24d33db6649b",
          "transactionIndex": "0x0",
          "logIndex": "0x0",
          "removed": false
        },
        {
          "address": "0x048255dfef2ebfa7307058ae475a3e2f5ee0df46",
          "topics": [
            "0x78160f0b1b2b32b52a0076d8f0f70888687ba702a4d993d55ac8d9327d57a127",
            "0x000000000000000000000000000000000000000000000000000000000000000b",
            "0xfcab215663fcb288a9520a3a2c96b27b9522a9239a32e12d944074d51f153a6f",
            "0xe2835939fe1c1e79be0ea58d76264608dcf9066f12a34f251e3b4b8b5475033b"
          ],
          "data": "0xbc3f7b7e77a395c156c24db8a8a7850209b2df71a2561292eea221e32bf5d46700000000000000000000000000000000000000000000000000000000000000400000000000000000000000000000000000000000000000000000000000000060f1d099b8e1a7adc008db20f7abe2967c4dfcca8790bf13d0e9e893142a781402000000000000000000000000d289d1387ae1033a703842d69501d5bec5a6f04e00000000000000000000000000000000000000000000000000000000000f4240",
          "blockHash": "0xcccf98de8110541a2199d5dfc37ce489d6473ab2e4dc0f876b722b7ae8e5edb9",
          "blockNumber": "0x2b",
          "blockTimestamp": "0x69666f8c",
          "transactionHash": "0x4b082fa84931d5bb9cc8b6ca3fd3f862d4913211078fb822f68b24d33db6649b",
          "transactionIndex": "0x0",
          "logIndex": "0x1",
          "removed": false
        }
      ],
      "logsBloom": "0x00000000000000002000004000020020000000000000000000000000000000000000000000000000000000000000000000000000000000000000000000200000000000000000000004000000000000000000000000000004000000800000000000000000000800004000000000000000000000000000000000000000000000000000000001000000000000000080000000000000000000000000000000000000000000000000000000000002000400000000000200000000000000000000000000000000400000000000000000000000002000000200000000000000000000000000000000000000000000000000100000000100000000040100000000004002",
      "type": "0x0",
      "transactionHash": "0x4b082fa84931d5bb9cc8b6ca3fd3f862d4913211078fb822f68b24d33db6649b",
      "transactionIndex": "0x0",
      "blockHash": "0xcccf98de8110541a2199d5dfc37ce489d6473ab2e4dc0f876b722b7ae8e5edb9",
      "blockNumber": "0x2b",
      "gasUsed": "0x14617",
      "effectiveGasPrice": "0x3b9aca00",
      "blobGasPrice": "0x1",
      "from": "0xd289d1387ae1033a703842d69501d5bec5a6f04e",
      "to": "0x048255dfef2ebfa7307058ae475a3e2f5ee0df46",
      "contractAddress": null
    },
    {
      "status": "0x1",
      "cumulativeGasUsed": "0x1a29b",
      "logs": [],
      "logsBloom": "0x00000000000000000000000000000000000000000000000000000000000000000000000000000000000000000000000000000000000000000000000000000000000000000000000000000000000000000000000000000000000000000000000000000000000000000000000000000000000000000000000000000000000000000000000000000000000000000000000000000000000000000000000000000000000000000000000000000000000000000000000000000000000000000000000000000000000000000000000000000000000000000000000000000000000000000000000000000000000000000000000000000000000000000000000000000000",
      "type": "0x0",
      "transactionHash": "0x9b10ac3fbd02f7448c38f9766f4fc1b76725518bde0024f5692cbdba944e83c8",
      "transactionIndex": "0x0",
      "blockHash": "0xd7290d59d011b4de7166886fa1668ebd14487cce36ed72cf5721131107ad026c",
      "blockNumber": "0x2c",
      "gasUsed": "0x1a29b",
      "effectiveGasPrice": "0x3b9aca00",
      "blobGasPrice": "0x1",
      "from": "0xd289d1387ae1033a703842d69501d5bec5a6f04e",
      "to": "0x8c16d2f19a034b7281254f5656c2d1461c6ceb9a",
      "contractAddress": null
    },
    {
      "status": "0x1",
      "cumulativeGasUsed": "0x212aa",
      "logs": [
        {
          "address": "0x048255dfef2ebfa7307058ae475a3e2f5ee0df46",
          "topics": [
            "0xfa797585c9827d59a7694ef382241f1a03ced6a1a2b4353b35939abc4d04b286",
            "0xf1d099b8e1a7adc008db20f7abe2967c4dfcca8790bf13d0e9e893142a781402",
            "0x000000000000000000000000d289d1387ae1033a703842d69501d5bec5a6f04e"
          ],
          "data": "0x00000000000000000000000000000000000000000000000000000000000000000000000000000000000000000000000000000000000000000000000000000000",
          "blockHash": "0xa06943bb04aea24c1a2f9c4f523901840dfeab8380dae379ad8c03db86a8213e",
          "blockNumber": "0x2d",
          "blockTimestamp": "0x69666f8e",
          "transactionHash": "0xdcd4e43ab8f271c05acbd23270052066c7b42b80930a5b2af5a5adf28b2fbd2c",
          "transactionIndex": "0x0",
          "logIndex": "0x0",
          "removed": false
        },
        {
          "address": "0x048255dfef2ebfa7307058ae475a3e2f5ee0df46",
          "topics": [
            "0x78160f0b1b2b32b52a0076d8f0f70888687ba702a4d993d55ac8d9327d57a127",
            "0x000000000000000000000000000000000000000000000000000000000000000c",
            "0xe2835939fe1c1e79be0ea58d76264608dcf9066f12a34f251e3b4b8b5475033b",
            "0x85dba607c766754aa01e9b90e0c13ba9752f43beaa668a9ade8023fe74ac2073"
          ],
          "data": "0xfa797585c9827d59a7694ef382241f1a03ced6a1a2b4353b35939abc4d04b28600000000000000000000000000000000000000000000000000000000000000400000000000000000000000000000000000000000000000000000000000000080f1d099b8e1a7adc008db20f7abe2967c4dfcca8790bf13d0e9e893142a781402000000000000000000000000d289d1387ae1033a703842d69501d5bec5a6f04e00000000000000000000000000000000000000000000000000000000000000000000000000000000000000000000000000000000000000000000000000000000",
          "blockHash": "0xa06943bb04aea24c1a2f9c4f523901840dfeab8380dae379ad8c03db86a8213e",
          "blockNumber": "0x2d",
          "blockTimestamp": "0x69666f8e",
          "transactionHash": "0xdcd4e43ab8f271c05acbd23270052066c7b42b80930a5b2af5a5adf28b2fbd2c",
          "transactionIndex": "0x0",
          "logIndex": "0x1",
          "removed": false
        },
        {
          "address": "0x048255dfef2ebfa7307058ae475a3e2f5ee0df46",
          "topics": [
            "0x16bfb64ae70b8a9bbda28deb27a1cbc5ec3e6497481714344c221b46c0777f35",
            "0xf1d099b8e1a7adc008db20f7abe2967c4dfcca8790bf13d0e9e893142a781402",
            "0x000000000000000000000000d289d1387ae1033a703842d69501d5bec5a6f04e"
          ],
          "data": "0x0000000000000000000000004d4adec97e3e11693f65dedc2d1e6bec784eb2f100000000000000000000000000000000000000000000000000000000001e84800000000000000000000000004d4adec97e3e11693f65dedc2d1e6bec784eb2f100000000000000000000000000000000000000000000000000000000000f4240",
          "blockHash": "0xa06943bb04aea24c1a2f9c4f523901840dfeab8380dae379ad8c03db86a8213e",
          "blockNumber": "0x2d",
          "blockTimestamp": "0x69666f8e",
          "transactionHash": "0xdcd4e43ab8f271c05acbd23270052066c7b42b80930a5b2af5a5adf28b2fbd2c",
          "transactionIndex": "0x0",
          "logIndex": "0x2",
          "removed": false
        },
        {
          "address": "0x048255dfef2ebfa7307058ae475a3e2f5ee0df46",
          "topics": [
            "0x78160f0b1b2b32b52a0076d8f0f70888687ba702a4d993d55ac8d9327d57a127",
            "0x000000000000000000000000000000000000000000000000000000000000000d",
            "0x85dba607c766754aa01e9b90e0c13ba9752f43beaa668a9ade8023fe74ac2073",
            "0x26a3c61592749d0511db4668aa21f726782ba0441d64703e7c08ffcd650606e0"
          ],
          "data": "0x16bfb64ae70b8a9bbda28deb27a1cbc5ec3e6497481714344c221b46c0777f35000000000000000000000000000000000000000000000000000000000000004000000000000000000000000000000000000000000000000000000000000000c0f1d099b8e1a7adc008db20f7abe2967c4dfcca8790bf13d0e9e893142a781402000000000000000000000000d289d1387ae1033a703842d69501d5bec5a6f04e0000000000000000000000004d4adec97e3e11693f65dedc2d1e6bec784eb2f100000000000000000000000000000000000000000000000000000000001e84800000000000000000000000004d4adec97e3e11693f65dedc2d1e6bec784eb2f100000000000000000000000000000000000000000000000000000000000f4240",
          "blockHash": "0xa06943bb04aea24c1a2f9c4f523901840dfeab8380dae379ad8c03db86a8213e",
          "blockNumber": "0x2d",
          "blockTimestamp": "0x69666f8e",
          "transactionHash": "0xdcd4e43ab8f271c05acbd23270052066c7b42b80930a5b2af5a5adf28b2fbd2c",
          "transactionIndex": "0x0",
          "logIndex": "0x3",
          "removed": false
        }
      ],
      "logsBloom": "0x00000000000000000040000000020020200002000000000000000000000080000000000000000200000000000000000200000000000000000002000000200010000000000000000004000000000000000002000000000000000000000000000000000000000800004000000000000000000000000000000000000000000000000000000001000000000000000080000000000000000000000000000000004000000000000000000000000002000000000000420200000000000000000000000010000000400000000020000000000000000000000200000000000000000000220000000000000000000000000000100000000100000000000000000002004000",
      "type": "0x0",
      "transactionHash": "0xdcd4e43ab8f271c05acbd23270052066c7b42b80930a5b2af5a5adf28b2fbd2c",
      "transactionIndex": "0x0",
      "blockHash": "0xa06943bb04aea24c1a2f9c4f523901840dfeab8380dae379ad8c03db86a8213e",
      "blockNumber": "0x2d",
      "gasUsed": "0x212aa",
      "effectiveGasPrice": "0x3b9aca00",
      "blobGasPrice": "0x1",
      "from": "0xd289d1387ae1033a703842d69501d5bec5a6f04e",
      "to": "0x048255dfef2ebfa7307058ae475a3e2f5ee0df46",
      "contractAddress": null
    },
    {
      "status": "0x1",
      "cumulativeGasUsed": "0x6994",
      "logs": [],
      "logsBloom": "0x00000000000000000000000000000000000000000000000000000000000000000000000000000000000000000000000000000000000000000000000000000000000000000000000000000000000000000000000000000000000000000000000000000000000000000000000000000000000000000000000000000000000000000000000000000000000000000000000000000000000000000000000000000000000000000000000000000000000000000000000000000000000000000000000000000000000000000000000000000000000000000000000000000000000000000000000000000000000000000000000000000000000000000000000000000000",
      "type": "0x0",
      "transactionHash": "0xd4a3704fdadaf1ab9481eb5a8029329668b8b0b70b4a0ad0acbe10760127fa8f",
      "transactionIndex": "0x0",
      "blockHash": "0xa1f9c32e2d68964d74189a2a4be592fb9be1d851c8a88a02f610b4b1cd6a13c3",
      "blockNumber": "0x2e",
      "gasUsed": "0x6994",
      "effectiveGasPrice": "0x3b9aca00",
      "blobGasPrice": "0x1",
      "from": "0xd289d1387ae1033a703842d69501d5bec5a6f04e",
      "to": "0xf86c23c1e883ee3b820fb9be75ff91c9a49eae75",
      "contractAddress": null
    },
    {
      "status": "0x1",
      "cumulativeGasUsed": "0x5fd8",
      "logs": [],
      "logsBloom": "0x00000000000000000000000000000000000000000000000000000000000000000000000000000000000000000000000000000000000000000000000000000000000000000000000000000000000000000000000000000000000000000000000000000000000000000000000000000000000000000000000000000000000000000000000000000000000000000000000000000000000000000000000000000000000000000000000000000000000000000000000000000000000000000000000000000000000000000000000000000000000000000000000000000000000000000000000000000000000000000000000000000000000000000000000000000000",
      "type": "0x0",
      "transactionHash": "0xdda00ba795aaf750a19ff23dd6a7124f10b25d69deb1562e29881bcfeb1a3c35",
      "transactionIndex": "0x0",
      "blockHash": "0x2f76fe384d3697f24fa86315742d7f27c4e2e66c33d1490edf5a06d0f651d452",
      "blockNumber": "0x2f",
      "gasUsed": "0x5fd8",
      "effectiveGasPrice": "0x3b9aca00",
      "blobGasPrice": "0x1",
      "from": "0xd289d1387ae1033a703842d69501d5bec5a6f04e",
      "to": "0xf86c23c1e883ee3b820fb9be75ff91c9a49eae75",
      "contractAddress": null
    },
    {
      "status": "0x1",
      "cumulativeGasUsed": "0x52d69",
      "logs": [
        {
          "address": "0x048255dfef2ebfa7307058ae475a3e2f5ee0df46",
          "topics": [
            "0x6f81b8ad0780a0febc687a3a73b181433722b4be30f7f0a024169f5161267287",
            "0x641515381e5ecaa53d8a2a12c7f5395aafe191eb42573bf06c7fca8463b0df6c",
            "0x000000000000000000000000d289d1387ae1033a703842d69501d5bec5a6f04e"
          ],
          "data": "0x0000000000000000000000000000000000000000000000000000000000000000000000000000000000000000f86c23c1e883ee3b820fb9be75ff91c9a49eae7500000000000000000000000000000000000000000000000000000000000f4240000000000000000000000000d289d1387ae1033a703842d69501d5bec5a6f04e0000000000000000000000000000000000000000000000000000000069666ef400000000000000000000000000000000000000000000000000000000000000c000000000000000000000000000000000000000000000000000000000000000a000000000000000000000000000000000000000000000000000000000000000200000000000000000000000005457e258a09ebfb4a2501a9e3d70d37f54f923f300000000000000000000000000000000000000000000000000000000000000400000000000000000000000000000000000000000000000000000000000000002beef000000000000000000000000000000000000000000000000000000000000",
          "blockHash": "0xf44de724f09fdcdba2d09bc2f303c3898fe5890fa004a7c1720a73aa3359a550",
          "blockNumber": "0x30",
          "blockTimestamp": "0x69666f91",
          "transactionHash": "0xf268acc93d567f8dae5693f3da4ef997979f6757af06197ca017a3a5ff9c9f7f",
          "transactionIndex": "0x0",
          "logIndex": "0x0",
          "removed": false
        },
        {
          "address": "0x048255dfef2ebfa7307058ae475a3e2f5ee0df46",
          "topics": [
            "0x78160f0b1b2b32b52a0076d8f0f70888687ba702a4d993d55ac8d9327d57a127",
            "0x000000000000000000000000000000000000000000000000000000000000000e",
            "0x26a3c61592749d0511db4668aa21f726782ba0441d64703e7c08ffcd650606e0",
            "0x87542a76e6ac14e443c3b11005e44b11d4d5f882f9786f83e31f65b17e7f9561"
          ],
          "data": "0x6f81b8ad0780a0febc687a3a73b181433722b4be30f7f0a024169f5161267287000000000000000000000000000000000000000000000000000000000000004000000000000000000000000000000000000000000000000000000000000001c0641515381e5ecaa53d8a2a12c7f5395aafe191eb42573bf06c7fca8463b0df6c000000000000000000000000d289d1387ae1033a703842d69501d5bec5a6f04e0000000000000000000000000000000000000000000000000000000000000000000000000000000000000000f86c23c1e883ee3b820fb9be75ff91c9a49eae7500000000000000000000000000000000000000000000000000000000000f4240000000000000000000000000d289d1387ae1033a703842d69501d5bec5a6f04e0000000000000000000000000000000000000000000000000000000069666ef4000000000000000000000000000000000000000000000000000000000000010000000000000000000000000000000000000000000000000000000000000000a000000000000000000000000000000000000000000000000000000000000000200000000000000000000000005457e258a09ebfb4a2501a9e3d70d37f54f923f300000000000000000000000000000000000000000000000000000000000000400000000000000000000000000000000000000000000000000000000000000002beef000000000000000000000000000000000000000000000000000000000000",
          "blockHash": "0xf44de724f09fdcdba2d09bc2f303c3898fe5890fa004a7c1720a73aa3359a550",
          "blockNumber": "0x30",
          "blockTimestamp": "0x69666f91",
          "transactionHash": "0xf268acc93d567f8dae5693f3da4ef997979f6757af06197ca017a3a5ff9c9f7f",
          "transactionIndex": "0x0",
          "logIndex": "0x1",
          "removed": false
        },
        {
          "address": "0x048255dfef2ebfa7307058ae475a3e2f5ee0df46",
          "topics": [
            "0x0544741ff6f2708047138c8f3a68abb994e628666dba785f685ff1035274f9fb",
            "0x641515381e5ecaa53d8a2a12c7f5395aafe191eb42573bf06c7fca8463b0df6c",
            "0x000000000000000000000000d289d1387ae1033a703842d69501d5bec5a6f04e"
          ],
          "data": "0x000000000000000000000000f86c23c1e883ee3b820fb9be75ff91c9a49eae7500000000000000000000000000000000000000000000000000000000000f4240",
          "blockHash": "0xf44de724f09fdcdba2d09bc2f303c3898fe5890fa004a7c1720a73aa3359a550",
          "blockNumber": "0x30",
          "blockTimestamp": "0x69666f91",
          "transactionHash": "0xf268acc93d567f8dae5693f3da4ef997979f6757af06197ca017a3a5ff9c9f7f",
          "transactionIndex": "0x0",
          "logIndex": "0x2",
          "removed": false
        },
        {
          "address": "0x048255dfef2ebfa7307058ae475a3e2f5ee0df46",
          "topics": [
            "0x78160f0b1b2b32b52a0076d8f0f70888687ba702a4d993d55ac8d9327d57a127",
            "0x000000000000000000000000000000000000000000000000000000000000000f",
            "0x87542a76e6ac14e443c3b11005e44b11d4d5f882f9786f83e31f65b17e7f9561",
            "0x0980caf597a40faf46294bef38cdd63088dd931a0cc0b044e7f69665d09d33ae"
          ],
          "data": "0x0544741ff6f2708047138c8f3a68abb994e628666dba785f685ff1035274f9fb00000000000000000000000000000000000000000000000000000000000000400000000000000000000000000000000000000000000000000000000000000080641515381e5ecaa53d8a2a12c7f5395aafe191eb42573bf06c7fca8463b0df6c000000000000000000000000d289d1387ae1033a703842d69501d5bec5a6f04e000000000000000000000000f86c23c1e883ee3b820fb9be75ff91c9a49eae7500000000000000000000000000000000000000000000000000000000000f4240",
          "blockHash": "0xf44de724f09fdcdba2d09bc2f303c3898fe5890fa004a7c1720a73aa3359a550",
          "blockNumber": "0x30",
          "blockTimestamp": "0x69666f91",
          "transactionHash": "0xf268acc93d567f8dae5693f3da4ef997979f6757af06197ca017a3a5ff9c9f7f",
          "transactionIndex": "0x0",
          "logIndex": "0x3",
          "removed": false
        }
      ],
      "logsBloom": "0x00040000000000000000000000000000200000000000000000000000000000000000000000000000000040000000000000000080000000000000000000200010000000000000000804000000000000000004000100000000000000000002000000000000000800004000000000000000000000000000200000000000008000000000000000000800000000000000000008000000010000000000000000000000000000000000000000000002000000000000200200000020200000000000000000000000400000000020020000000000000000000200000000000000008000000000000200000000000000000000100000080200000000000000000000004000",
      "type": "0x0",
      "transactionHash": "0xf268acc93d567f8dae5693f3da4ef997979f6757af06197ca017a3a5ff9c9f7f",
      "transactionIndex": "0x0",
      "blockHash": "0xf44de724f09fdcdba2d09bc2f303c3898fe5890fa004a7c1720a73aa3359a550",
      "blockNumber": "0x30",
      "gasUsed": "0x52d69",
      "effectiveGasPrice": "0x3b9aca00",
      "blobGasPrice": "0x1",
      "from": "0xd289d1387ae1033a703842d69501d5bec5a6f04e",
      "to": "0x048255dfef2ebfa7307058ae475a3e2f5ee0df46",
      "contractAddress": null
    },
    {
      "status": "0x1",
      "cumulativeGasUsed": "0x17083",
      "logs": [
        {
          "address": "0x048255dfef2ebfa7307058ae475a3e2f5ee0df46",
          "topics": [
            "0x6db2da0f661d59d5a9c767b6ba61a9c192765a6aab952e5e53ea77175332f13d",
            "0x641515381e5ecaa53d8a2a12c7f5395aafe191eb42573bf06c7fca8463b0df6c",
            "0x000000000000000000000000d289d1387ae1033a703842d69501d5bec5a6f04e"
          ],
          "data": "0x000000000000000000000000000000000000000000000000000000000000000000000000000000000000000000000000000000000000000000000000000000010000000000000000000000000000000000000000000000000000000000000000000000000000000000000000d289d1387ae1033a703842d69501d5bec5a6f04e000000000000000000000000f86c23c1e883ee3b820fb9be75ff91c9a49eae7500000000000000000000000000000000000000000000000000000000000f42400000000000000000000000004d4adec97e3e11693f65dedc2d1e6bec784eb2f1000000000000000000000000000000000000000000000000000000000000000000000000000000000000000000000000000000000000000000000000000000000000000000000000000000000000000000000000000000000000000000000000",
          "blockHash": "0x5b3a905020c35ad0d198f6a267c56263e462fad3503924534c2fa3d7f5a090ad",
          "blockNumber": "0x31",
          "blockTimestamp": "0x69666f92",
          "transactionHash": "0xef6466e3cfd876aaa9fd96b1abdd79fa2716a7ac28fd4e3a9dcb55bcee19ab01",
          "transactionIndex": "0x0",
          "logIndex": "0x0",
          "removed": false
        },
        {
          "address": "0x048255dfef2ebfa7307058ae475a3e2f5ee0df46",
          "topics": [
            "0x78160f0b1b2b32b52a0076d8f0f70888687ba702a4d993d55ac8d9327d57a127",
            "0x0000000000000000000000000000000000000000000000000000000000000010",
            "0x0980caf597a40faf46294bef38cdd63088dd931a0cc0b044e7f69665d09d33ae",
            "0x39e9f67d286ded576afb95fa7617feb41968129adf3c466b6abba1f0748348ee"
          ],
          "data": "0x6db2da0f661d59d5a9c767b6ba61a9c192765a6aab952e5e53ea77175332f13d00000000000000000000000000000000000000000000000000000000000000400000000000000000000000000000000000000000000000000000000000000180641515381e5ecaa53d8a2a12c7f5395aafe191eb42573bf06c7fca8463b0df6c000000000000000000000000d289d1387ae1033a703842d69501d5bec5a6f04e000000000000000000000000000000000000000000000000000000000000000000000000000000000000000000000000000000000000000000000000000000010000000000000000000000000000000000000000000000000000000000000000000000000000000000000000d289d1387ae1033a703842d69501d5bec5a6f04e000000000000000000000000f86c23c1e883ee3b820fb9be75ff91c9a49eae7500000000000000000000000000000000000000000000000000000000000f42400000000000000000000000004d4adec97e3e11693f65dedc2d1e6bec784eb2f1000000000000000000000000000000000000000000000000000000000000000000000000000000000000000000000000000000000000000000000000000000000000000000000000000000000000000000000000000000000000000000000000",
          "blockHash": "0x5b3a905020c35ad0d198f6a267c56263e462fad3503924534c2fa3d7f5a090ad",
          "blockNumber": "0x31",
          "blockTimestamp": "0x69666f92",
          "transactionHash": "0xef6466e3cfd876aaa9fd96b1abdd79fa2716a7ac28fd4e3a9dcb55bcee19ab01",
          "transactionIndex": "0x0",
          "logIndex": "0x1",
          "removed": false
        }
      ],
      "logsBloom": "0x00040000100000000000000000000000000004000000000000000000000000000000000000000000000040000000000000000080000000000000000000200000000000000000000004000000000000000000000000000000000000000000000000000000000800004000010000000000000000000000200000000000040000000000000001000000000000040000000000000100000000000000000000000000000000000000000000000000000000000000000200000000000080000000000000000000400000000000000000000000000004000200000000000000000000000000000000000000000000000000100000080200000000000000000000004000",
      "type": "0x0",
      "transactionHash": "0xef6466e3cfd876aaa9fd96b1abdd79fa2716a7ac28fd4e3a9dcb55bcee19ab01",
      "transactionIndex": "0x0",
      "blockHash": "0x5b3a905020c35ad0d198f6a267c56263e462fad3503924534c2fa3d7f5a090ad",
      "blockNumber": "0x31",
      "gasUsed": "0x17083",
      "effectiveGasPrice": "0x3b9aca00",
      "blobGasPrice": "0x1",
      "from": "0xd289d1387ae1033a703842d69501d5bec5a6f04e",
      "to": "0x048255dfef2ebfa7307058ae475a3e2f5ee0df46",
      "contractAddress": null
    },
    {
      "status": "0x1",
      "cumulativeGasUsed": "0x6994",
      "logs": [],
      "logsBloom": "0x00000000000000000000000000000000000000000000000000000000000000000000000000000000000000000000000000000000000000000000000000000000000000000000000000000000000000000000000000000000000000000000000000000000000000000000000000000000000000000000000000000000000000000000000000000000000000000000000000000000000000000000000000000000000000000000000000000000000000000000000000000000000000000000000000000000000000000000000000000000000000000000000000000000000000000000000000000000000000000000000000000000000000000000000000000000",
      "type": "0x0",
      "transactionHash": "0x8a666372cb7a155f3f9f7822580a72c311adac54acf0953bb30b2ca9b4045838",
      "transactionIndex": "0x0",
      "blockHash": "0xc393de119afcffacaab703fb4357ba491c01d2fa2f4c64f1ec650076f34104fc",
      "blockNumber": "0x32",
      "gasUsed": "0x6994",
      "effectiveGasPrice": "0x3b9aca00",
      "blobGasPrice": "0x1",
      "from": "0xd289d1387ae1033a703842d69501d5bec5a6f04e",
      "to": "0x4d4adec97e3e11693f65dedc2d1e6bec784eb2f1",
      "contractAddress": null
    },
    {
      "status": "0x1",
      "cumulativeGasUsed": "0x5fd8",
      "logs": [],
      "logsBloom": "0x00000000000000000000000000000000000000000000000000000000000000000000000000000000000000000000000000000000000000000000000000000000000000000000000000000000000000000000000000000000000000000000000000000000000000000000000000000000000000000000000000000000000000000000000000000000000000000000000000000000000000000000000000000000000000000000000000000000000000000000000000000000000000000000000000000000000000000000000000000000000000000000000000000000000000000000000000000000000000000000000000000000000000000000000000000000",
      "type": "0x0",
      "transactionHash": "0x1d97966a726dae82365567fd49d43dccd866528bd1697f4b84666c8376e56b41",
      "transactionIndex": "0x0",
      "blockHash": "0x8365358767989ae627c490d0edf388c71d3f1b2df25f8eb0202b10a9f5608659",
      "blockNumber": "0x33",
      "gasUsed": "0x5fd8",
      "effectiveGasPrice": "0x3b9aca00",
      "blobGasPrice": "0x1",
      "from": "0xd289d1387ae1033a703842d69501d5bec5a6f04e",
      "to": "0x4d4adec97e3e11693f65dedc2d1e6bec784eb2f1",
      "contractAddress": null
    },
    {
      "status": "0x1",
      "cumulativeGasUsed": "0x50d2e",
      "logs": [
        {
          "address": "0x048255dfef2ebfa7307058ae475a3e2f5ee0df46",
          "topics": [
            "0x11039d948e58aabf982e09eab3f7ce6db7bf72add1d0b04e63f0697eac16024b",
            "0xee05772a542895427ddf02d6cb47b9027da7949441e78297ad0b8b2608b77382",
            "0x0000000000000000000000008828fd7431d5bb1962d7e067c103b2324fa6bbec",
            "0x00000000000000000000000097629064a9c06865c5b3832f94bb64a8e47bcad7"
          ],
          "data": "0x282866f5067804dadd2e500a0a3d8b5e5d2e5cde385e9ec6a887315613d6f4480000000000000000000000004d4adec97e3e11693f65dedc2d1e6bec784eb2f100000000000000000000000000000000000000000000000000000000000f4240",
          "blockHash": "0xe74636b507adebf4cc82dd0f9095006781b31e6a1de9034e4f55b615c34ef090",
          "blockNumber": "0x34",
          "blockTimestamp": "0x69666f95",
          "transactionHash": "0xd951087267c228f5ec4a6459e9ac1a984aa9b2338cde0a7bb240504d457eed41",
          "transactionIndex": "0x0",
          "logIndex": "0x0",
          "removed": false
        },
        {
          "address": "0x048255dfef2ebfa7307058ae475a3e2f5ee0df46",
          "topics": [
            "0x78160f0b1b2b32b52a0076d8f0f70888687ba702a4d993d55ac8d9327d57a127",
            "0x0000000000000000000000000000000000000000000000000000000000000011",
            "0x39e9f67d286ded576afb95fa7617feb41968129adf3c466b6abba1f0748348ee",
            "0x786a9ee3e94024d100f4af4f8ae7d6c7b12de9420c8016d4571c115673bbd3fe"
          ],
          "data": "0x11039d948e58aabf982e09eab3f7ce6db7bf72add1d0b04e63f0697eac16024b000000000000000000000000000000000000000000000000000000000000004000000000000000000000000000000000000000000000000000000000000000c0ee05772a542895427ddf02d6cb47b9027da7949441e78297ad0b8b2608b773820000000000000000000000008828fd7431d5bb1962d7e067c103b2324fa6bbec00000000000000000000000097629064a9c06865c5b3832f94bb64a8e47bcad7282866f5067804dadd2e500a0a3d8b5e5d2e5cde385e9ec6a887315613d6f4480000000000000000000000004d4adec97e3e11693f65dedc2d1e6bec784eb2f100000000000000000000000000000000000000000000000000000000000f4240",
          "blockHash": "0xe74636b507adebf4cc82dd0f9095006781b31e6a1de9034e4f55b615c34ef090",
          "blockNumber": "0x34",
          "blockTimestamp": "0x69666f95",
          "transactionHash": "0xd951087267c228f5ec4a6459e9ac1a984aa9b2338cde0a7bb240504d457eed41",
          "transactionIndex": "0x0",
          "logIndex": "0x1",
          "removed": false
        },
        {
          "address": "0x048255dfef2ebfa7307058ae475a3e2f5ee0df46",
          "topics": [
            "0xc853b9fbc6265708cfc473efd1ce29b19a3616b3edccaeaf71a4a6b778cb010e",
            "0xee05772a542895427ddf02d6cb47b9027da7949441e78297ad0b8b2608b77382"
          ],
          "data": "0x0000000000000000000000000000000000000000000000000000000000002710000000000000000000000000000000000000000000000000000000000000007b00000000000000000000000000000000000000000000000000000000000f1ab5",
          "blockHash": "0xe74636b507adebf4cc82dd0f9095006781b31e6a1de9034e4f55b615c34ef090",
          "blockNumber": "0x34",
          "blockTimestamp": "0x69666f95",
          "transactionHash": "0xd951087267c228f5ec4a6459e9ac1a984aa9b2338cde0a7bb240504d457eed41",
          "transactionIndex": "0x0",
          "logIndex": "0x2",
          "removed": false
        },
        {
          "address": "0x048255dfef2ebfa7307058ae475a3e2f5ee0df46",
          "topics": [
            "0x78160f0b1b2b32b52a0076d8f0f70888687ba702a4d993d55ac8d9327d57a127",
            "0x0000000000000000000000000000000000000000000000000000000000000012",
            "0x786a9ee3e94024d100f4af4f8ae7d6c7b12de9420c8016d4571c115673bbd3fe",
            "0x214a8db47011a4b27554d74aa82594935c2782da6aed2c3973e9f91160ae5138"
          ],
          "data": "0xc853b9fbc6265708cfc473efd1ce29b19a3616b3edccaeaf71a4a6b778cb010e00000000000000000000000000000000000000000000000000000000000000400000000000000000000000000000000000000000000000000000000000000080ee05772a542895427ddf02d6cb47b9027da7949441e78297ad0b8b2608b773820000000000000000000000000000000000000000000000000000000000002710000000000000000000000000000000000000000000000000000000000000007b00000000000000000000000000000000000000000000000000000000000f1ab5",
          "blockHash": "0xe74636b507adebf4cc82dd0f9095006781b31e6a1de9034e4f55b615c34ef090",
          "blockNumber": "0x34",
          "blockTimestamp": "0x69666f95",
          "transactionHash": "0xd951087267c228f5ec4a6459e9ac1a984aa9b2338cde0a7bb240504d457eed41",
          "transactionIndex": "0x0",
          "logIndex": "0x3",
          "removed": false
        },
        {
          "address": "0x048255dfef2ebfa7307058ae475a3e2f5ee0df46",
          "topics": [
            "0x6f81b8ad0780a0febc687a3a73b181433722b4be30f7f0a024169f5161267287",
            "0xee05772a542895427ddf02d6cb47b9027da7949441e78297ad0b8b2608b77382",
            "0x000000000000000000000000d289d1387ae1033a703842d69501d5bec5a6f04e"
          ],
          "data": "0x00000000000000000000000000000000000000000000000000000000000000010000000000000000000000004d4adec97e3e11693f65dedc2d1e6bec784eb2f100000000000000000000000000000000000000000000000000000000000f4240000000000000000000000000d289d1387ae1033a703842d69501d5bec5a6f04e000000000000000000000000000000000000000000000000000000006967c11500000000000000000000000000000000000000000000000000000000000000c0000000000000000000000000000000000000000000000000000000000000004000000000000000000000000097629064a9c06865c5b3832f94bb64a8e47bcad700000000000000000000000000000000000000000000000000000000000f1ab5",
          "blockHash": "0xe74636b507adebf4cc82dd0f9095006781b31e6a1de9034e4f55b615c34ef090",
          "blockNumber": "0x34",
          "blockTimestamp": "0x69666f95",
          "transactionHash": "0xd951087267c228f5ec4a6459e9ac1a984aa9b2338cde0a7bb240504d457eed41",
          "transactionIndex": "0x0",
          "logIndex": "0x4",
          "removed": false
        },
        {
          "address": "0x048255dfef2ebfa7307058ae475a3e2f5ee0df46",
          "topics": [
            "0x78160f0b1b2b32b52a0076d8f0f70888687ba702a4d993d55ac8d9327d57a127",
            "0x0000000000000000000000000000000000000000000000000000000000000013",
            "0x214a8db47011a4b27554d74aa82594935c2782da6aed2c3973e9f91160ae5138",
            "0x4487230abfdad7c8d5af3c486823ee794c3d9c6c0c2a31e145490448df8df485"
          ],
          "data": "0x6f81b8ad0780a0febc687a3a73b181433722b4be30f7f0a024169f516126728700000000000000000000000000000000000000000000000000000000000000400000000000000000000000000000000000000000000000000000000000000160ee05772a542895427ddf02d6cb47b9027da7949441e78297ad0b8b2608b77382000000000000000000000000d289d1387ae1033a703842d69501d5bec5a6f04e00000000000000000000000000000000000000000000000000000000000000010000000000000000000000004d4adec97e3e11693f65dedc2d1e6bec784eb2f100000000000000000000000000000000000000000000000000000000000f4240000000000000000000000000d289d1387ae1033a703842d69501d5bec5a6f04e000000000000000000000000000000000000000000000000000000006967c1150000000000000000000000000000000000000000000000000000000000000100000000000000000000000000000000000000000000000000000000000000004000000000000000000000000097629064a9c06865c5b3832f94bb64a8e47bcad700000000000000000000000000000000000000000000000000000000000f1ab5",
          "blockHash": "0xe74636b507adebf4cc82dd0f9095006781b31e6a1de9034e4f55b615c34ef090",
          "blockNumber": "0x34",
          "blockTimestamp": "0x69666f95",
          "transactionHash": "0xd951087267c228f5ec4a6459e9ac1a984aa9b2338cde0a7bb240504d457eed41",
          "transactionIndex": "0x0",
          "logIndex": "0x5",
          "removed": false
        },
        {
          "address": "0x048255dfef2ebfa7307058ae475a3e2f5ee0df46",
          "topics": [
            "0xbc3f7b7e77a395c156c24db8a8a7850209b2df71a2561292eea221e32bf5d467",
            "0xee05772a542895427ddf02d6cb47b9027da7949441e78297ad0b8b2608b77382",
            "0x000000000000000000000000d289d1387ae1033a703842d69501d5bec5a6f04e"
          ],
          "data": "0x00000000000000000000000000000000000000000000000000000000000f4240",
          "blockHash": "0xe74636b507adebf4cc82dd0f9095006781b31e6a1de9034e4f55b615c34ef090",
          "blockNumber": "0x34",
          "blockTimestamp": "0x69666f95",
          "transactionHash": "0xd951087267c228f5ec4a6459e9ac1a984aa9b2338cde0a7bb240504d457eed41",
          "transactionIndex": "0x0",
          "logIndex": "0x6",
          "removed": false
        },
        {
          "address": "0x048255dfef2ebfa7307058ae475a3e2f5ee0df46",
          "topics": [
            "0x78160f0b1b2b32b52a0076d8f0f70888687ba702a4d993d55ac8d9327d57a127",
            "0x0000000000000000000000000000000000000000000000000000000000000014",
            "0x4487230abfdad7c8d5af3c486823ee794c3d9c6c0c2a31e145490448df8df485",
            "0x5769ff04278089d9c498c73073911d8db8c378e7a45f6252d72fc7d9cc0419ab"
          ],
          "data": "0xbc3f7b7e77a395c156c24db8a8a7850209b2df71a2561292eea221e32bf5d46700000000000000000000000000000000000000000000000000000000000000400000000000000000000000000000000000000000000000000000000000000060ee05772a542895427ddf02d6cb47b9027da7949441e78297ad0b8b2608b77382000000000000000000000000d289d1387ae1033a703842d69501d5bec5a6f04e00000000000000000000000000000000000000000000000000000000000f4240",
          "blockHash": "0xe74636b507adebf4cc82dd0f9095006781b31e6a1de9034e4f55b615c34ef090",
          "blockNumber": "0x34",
          "blockTimestamp": "0x69666f95",
          "transactionHash": "0xd951087267c228f5ec4a6459e9ac1a984aa9b2338cde0a7bb240504d457eed41",
          "transactionIndex": "0x0",
          "logIndex": "0x7",
          "removed": false
        }
      ],
      "logsBloom": "0x20000000080000002000000000800000000004000000002000000000000000000000000040000000002000200000000000002000000000000000000001300000000000000000000004000000000000000800000104000004000000000000000000000000100800004000000000040000000000024080000000000000040000000000000001000002000800000000140010000000000400000000000000000000000000000000000020000100000000000000200200400040202002200400000100001000400000000402000000000000000004011200000000000000000000000000000000000000000000000000100000000000000000000000000000004002",
      "type": "0x0",
      "transactionHash": "0xd951087267c228f5ec4a6459e9ac1a984aa9b2338cde0a7bb240504d457eed41",
      "transactionIndex": "0x0",
      "blockHash": "0xe74636b507adebf4cc82dd0f9095006781b31e6a1de9034e4f55b615c34ef090",
      "blockNumber": "0x34",
      "gasUsed": "0x50d2e",
      "effectiveGasPrice": "0x3b9aca00",
      "blobGasPrice": "0x1",
      "from": "0xd289d1387ae1033a703842d69501d5bec5a6f04e",
      "to": "0x048255dfef2ebfa7307058ae475a3e2f5ee0df46",
      "contractAddress": null
    }
  ],
  "libraries": [],
  "pending": [],
  "returns": {},
  "timestamp": 1768320766511,
  "chain": 111,
  "commit": "24bfcfb"
}