{
  "transactions": [
    {
      "hash": "0x7bc7cd8f60151c3203742a0ae4182f1c9849671ec2396b347a85d4e47766c013",
      "transactionType": "CREATE",
      "contractName": "ExactBridger",
      "contractAddress": "0x0be19c78706c441de4178a2266a650e47160eda7",
      "function": null,
      "arguments": null,
      "transaction": {
        "from": "0xd289d1387ae1033a703842d69501d5bec5a6f04e",
        "value": "0x0",
        "input": "0x60808060405234601557610521908161001a8239f35b5f80fdfe608080604052600436101561001c575b50361561001a575f80fd5b005b5f3560e01c9081631fce5d1114610478575080632267cb0814610450578063463d1fca146104335780637f8945821461035557806384def41c1461033c57806389c905d21461031f578063a678341d14610302578063b14d361d146100ac5763ff7b2edd1461008b575f61000f565b346100a8575f3660031901126100a8576020600654604051908152f35b5f80fd5b60a03660031901126100a8576004356001600160a01b038116908190036100a8576044356001600160a01b03811691602435918390036100a8576084359267ffffffffffffffff84116100a857366023850112156100a85783600401359167ffffffffffffffff83116100a85736602484870101116100a8576bffffffffffffffffffffffff60a01b5f5416175f55826001556bffffffffffffffffffffffff60a01b600254161760025560643560035561016860045461049a565b601f811161029a575b505f601f8211600114610227578192935f92610219575b50508160011b915f199060031b1c1916176004555b34600555600654806101b5575b602082604051908152f35b5f80808093335af13d15610214573d67ffffffffffffffff811161020057604051906101eb601f8201601f1916602001836104d2565b81525f60203d92013e5b156100a857816101aa565b634e487b7160e01b5f52604160045260245ffd5b6101f5565b602492500101358380610188565b601f1982169360045f525f5160206104f55f395f51905f52915f5b86811061027f5750836001959610610263575b505050811b0160045561019d565b01602401355f19600384901b60f8161c19169055838080610255565b90926020600181926024878701013581550194019101610242565b60045f52601f820160051c5f5160206104f55f395f51905f520190602083106102ed575b601f0160051c5f5160206104f55f395f51905f5201905b8181106102e25750610171565b5f81556001016102d5565b5f5160206104f55f395f51905f5291506102be565b346100a8575f3660031901126100a8576020600354604051908152f35b346100a8575f3660031901126100a8576020600154604051908152f35b346100a85760203660031901126100a857600435600655005b346100a8575f3660031901126100a857604051600454905f6103768361049a565b80835260208301936001811690811561041857506001146103cd575b50906103a28160409303826104d2565b8151928391602083525180918160208501528484015e5f828201840152601f01601f19168101030190f35b91905060045f525f5160206104f55f395f51905f52915f905b8082106103fe575090915081016020016103a2610392565b9192600181602092548385880101520191019092916103e6565b60ff1916855250151560051b820160200190506103a2610392565b346100a8575f3660031901126100a8576020600554604051908152f35b346100a8575f3660031901126100a8576002546040516001600160a01b039091168152602090f35b346100a8575f3660031901126100a8575f546001600160a01b03168152602090f35b90600182811c921680156104c8575b60208310146104b457565b634e487b7160e01b5f52602260045260245ffd5b91607f16916104a9565b90601f8019910116810190811067ffffffffffffffff8211176102005760405256fe8a35acfbc15ff81a39ae7d344fd709f28e8600b4aa8c65c6b64bfe7fe36bd19ba164736f6c634300081b000a",
        "nonce": "0xc",
        "chainId": "0x1bc"
      },
      "additionalContracts": [],
      "isFixedGasLimit": false
    },
    {
      "hash": "0x7229f9dc24caa654c63e7128331481239f501956fab5ef0d85ea817518bd82b8",
      "transactionType": "CALL",
      "contractName": null,
      "contractAddress": "0x8828fd7431d5bb1962d7e067c103b2324fa6bbec",
      "function": "setBridgers(address,address)",
      "arguments": [
        "0x0bE19C78706c441dE4178a2266a650E47160Eda7",
        "0x0bE19C78706c441dE4178a2266a650E47160Eda7"
      ],
      "transaction": {
        "from": "0xd289d1387ae1033a703842d69501d5bec5a6f04e",
        "to": "0x8828fd7431d5bb1962d7e067c103b2324fa6bbec",
        "value": "0x0",
        "input": "0x2b0f3ee40000000000000000000000000be19c78706c441de4178a2266a650e47160eda70000000000000000000000000be19c78706c441de4178a2266a650e47160eda7",
        "nonce": "0xd",
        "chainId": "0x1bc"
      },
      "additionalContracts": [],
      "isFixedGasLimit": false
    },
    {
      "hash": "0x9b963a4bc6ecf2346e7adf12b492217d66c5a337c414d6f99e799b36873251a0",
      "transactionType": "CREATE",
      "contractName": "MockQuoter",
      "contractAddress": "0x481e836be187303c64f269bc7fe2c52f7f7c6eef",
      "function": null,
      "arguments": null,
      "transaction": {
        "from": "0xd289d1387ae1033a703842d69501d5bec5a6f04e",
        "value": "0x0",
        "input": "0x6080806040523460155761015b908161001a8239f35b5f80fdfe6080806040526004361015610012575f80fd5b5f3560e01c90816346ee8d001461010957508063520b9355146100c15780636813d78714610091578063d3072d821461006f5763e21a560214610053575f80fd5b3461006b57602036600319011261006b576004355f55005b5f80fd5b3461006b575f36600319011261006b57602060ff600154166040519015158152f35b3461006b57602036600319011261006b5760043580151580910361006b5760ff8019600154169116176001555f80f35b3461006b57608036600319011261006b576100da610122565b506100e3610138565b5060ff600154166100fa5760205f54604051908152f35b631f6b7cef60e11b5f5260045ffd5b3461006b575f36600319011261006b576020905f548152f35b600435906001600160a01b038216820361006b57565b602435906001600160a01b038216820361006b5756fea164736f6c634300081b000a",
        "nonce": "0xe",
        "chainId": "0x1bc"
      },
      "additionalContracts": [],
      "isFixedGasLimit": false
    },
    {
      "hash": "0x78ead996c6665faaad59b3859eeea0c11bb264da3b06a1f216e1c860aa3b51d1",
      "transactionType": "CALL",
      "contractName": "MockQuoter",
      "contractAddress": "0x481e836be187303c64f269bc7fe2c52f7f7c6eef",
      "function": "setAmountOut(uint256)",
      "arguments": [
        "90000000"
      ],
      "transaction": {
        "from": "0xd289d1387ae1033a703842d69501d5bec5a6f04e",
        "to": "0x481e836be187303c64f269bc7fe2c52f7f7c6eef",
        "value": "0x0",
        "input": "0xe21a560200000000000000000000000000000000000000000000000000000000055d4a80",
        "nonce": "0xf",
        "chainId": "0x1bc"
      },
      "additionalContracts": [],
      "isFixedGasLimit": false
    },
    {
      "hash": "0x4b635eba678338a1f568eedc66fc507bbbfd26ce178bef78a4aa6e8c17afc29d",
      "transactionType": "CALL",
      "contractName": null,
      "contractAddress": "0x8828fd7431d5bb1962d7e067c103b2324fa6bbec",
      "function": "setQuoter(address,address)",
      "arguments": [
        "0x4D4aDEc97e3e11693F65dEDC2D1e6Bec784eB2F1",
        "0x481e836bE187303c64F269Bc7fe2C52F7f7c6eEf"
      ],
      "transaction": {
        "from": "0xd289d1387ae1033a703842d69501d5bec5a6f04e",
        "to": "0x8828fd7431d5bb1962d7e067c103b2324fa6bbec",
        "value": "0x0",
        "input": "0x6264257a0000000000000000000000004d4adec97e3e11693f65dedc2d1e6bec784eb2f1000000000000000000000000481e836be187303c64f269bc7fe2c52f7f7c6eef",
        "nonce": "0x10",
        "chainId": "0x1bc"
      },
      "additionalContracts": [],
      "isFixedGasLimit": false
    },
    {
      "hash": "0x753de042ae1f2a5129fe9044782f80d45c55603f6995fadad7b8b51e3a3d4044",
      "transactionType": "CALL",
      "contractName": null,
      "contractAddress": "0x048255dfef2ebfa7307058ae475a3e2f5ee0df46",
      "function": "setRecommendedIntentFee(uint256,uint256)",
      "arguments": [
        "10000",
        "123"
      ],
      "transaction": {
        "from": "0xd289d1387ae1033a703842d69501d5bec5a6f04e",
        "to": "0x048255dfef2ebfa7307058ae475a3e2f5ee0df46",
        "value": "0x0",
        "input": "0xf2af970b0000000000000000000000000000000000000000000000000000000000002710000000000000000000000000000000000000000000000000000000000000007b",
        "nonce": "0x11",
        "chainId": "0x1bc"
      },
      "additionalContracts": [],
      "isFixedGasLimit": false
    },
    {
      "hash": "0x8707a197319b71fc0982327eeae8cc21df02d42fe186154c00944ef03f33cf10",
      "transactionType": "CREATE",
      "contractName": "MockQuoter",
      "contractAddress": "0x6b0f32ae157cf4f7d9b402c4e243e9088207dd87",
      "function": null,
      "arguments": null,
      "transaction": {
        "from": "0xd289d1387ae1033a703842d69501d5bec5a6f04e",
        "value": "0x0",
        "input": "0x6080806040523460155761015b908161001a8239f35b5f80fdfe6080806040526004361015610012575f80fd5b5f3560e01c90816346ee8d001461010957508063520b9355146100c15780636813d78714610091578063d3072d821461006f5763e21a560214610053575f80fd5b3461006b57602036600319011261006b576004355f55005b5f80fd5b3461006b575f36600319011261006b57602060ff600154166040519015158152f35b3461006b57602036600319011261006b5760043580151580910361006b5760ff8019600154169116176001555f80f35b3461006b57608036600319011261006b576100da610122565b506100e3610138565b5060ff600154166100fa5760205f54604051908152f35b631f6b7cef60e11b5f5260045ffd5b3461006b575f36600319011261006b576020905f548152f35b600435906001600160a01b038216820361006b57565b602435906001600160a01b038216820361006b5756fea164736f6c634300081b000a",
        "nonce": "0x12",
        "chainId": "0x1bc"
      },
      "additionalContracts": [],
      "isFixedGasLimit": false
    },
    {
      "hash": "0xaf999a2900874b24a9435a05f50dc149b0efcdfb2d3e9df20e6e9ec12bada379",
      "transactionType": "CALL",
      "contractName": "MockQuoter",
      "contractAddress": "0x6b0f32ae157cf4f7d9b402c4e243e9088207dd87",
      "function": "setAmountOut(uint256)",
      "arguments": [
        "90000000"
      ],
      "transaction": {
        "from": "0xd289d1387ae1033a703842d69501d5bec5a6f04e",
        "to": "0x6b0f32ae157cf4f7d9b402c4e243e9088207dd87",
        "value": "0x0",
        "input": "0xe21a560200000000000000000000000000000000000000000000000000000000055d4a80",
        "nonce": "0x13",
        "chainId": "0x1bc"
      },
      "additionalContracts": [],
      "isFixedGasLimit": false
    },
    {
      "hash": "0xafdca55f2e0800f57137546d4a95c28041789555878d8571f7b124d106d50f4d",
      "transactionType": "CALL",
      "contractName": null,
      "contractAddress": "0x8828fd7431d5bb1962d7e067c103b2324fa6bbec",
      "function": "setQuoter(address,address)",
      "arguments": [
        "0x4D4aDEc97e3e11693F65dEDC2D1e6Bec784eB2F1",
        "0x6b0f32ae157CF4F7d9B402c4e243E9088207dD87"
      ],
      "transaction": {
        "from": "0xd289d1387ae1033a703842d69501d5bec5a6f04e",
        "to": "0x8828fd7431d5bb1962d7e067c103b2324fa6bbec",
        "value": "0x0",
        "input": "0x6264257a0000000000000000000000004d4adec97e3e11693f65dedc2d1e6bec784eb2f10000000000000000000000006b0f32ae157cf4f7d9b402c4e243e9088207dd87",
        "nonce": "0x14",
        "chainId": "0x1bc"
      },
      "additionalContracts": [],
      "isFixedGasLimit": false
    },
    {
      "hash": "0x98fc17cdb726df30d803f2bd22fd3857476915d4e5b0d42b8033d4812cb70688",
      "transactionType": "CREATE",
      "contractName": "MockTransportBridger",
      "contractAddress": "0xc5ea444a0f556f5b227ec7447294d91086bb692c",
      "function": null,
      "arguments": null,
      "transaction": {
        "from": "0xd289d1387ae1033a703842d69501d5bec5a6f04e",
        "value": "0x0",
        "input": "0x60808060405234601557610507908161001a8239f35b5f80fdfe6080806040526004361015610012575f80fd5b5f905f3560e01c9081632c368377146103fd5750806347799da8146102d45763b14d361d1461003f575f80fd5b60a03660031901126102d1576004356001600160a01b038116908190036102cf576044356001600160a01b03811691602435918390036102cb576084359267ffffffffffffffff84116102c757366023850112156102c75783600401359067ffffffffffffffff82116102c35736602483870101116102c3576040519260c0840184811067ffffffffffffffff8211176102af5760405283526020830184815260408401918252866020606086019460643586528060246040519a61010d85601f19601f860116018d6104c4565b828c5201838b0137880101526080840186905260a08401878152935187546001600160a01b039182166001600160a01b0319918216178955915160015591516002805491909316911617905551600355825167ffffffffffffffff811161029b5761017960045461048c565b601f8111610238575b5060209485906001601f8411146101d7579482939495926101cc575b50508160011b915f199060031b1c1916176004555b51151560ff801960055416911617600555604051908152f35b015190505f8061019e565b90601f1983169560048352818320925b878110610221575083600195969710610209575b505050811b016004556101b3565b01515f1960f88460031b161c191690555f80806101fb565b9192886001819286850151815501940192016101e7565b600486527f8a35acfbc15ff81a39ae7d344fd709f28e8600b4aa8c65c6b64bfe7fe36bd19b601f830160051c81019160208410610291575b601f0160051c01905b8181106102865750610182565b868155600101610279565b9091508190610270565b634e487b7160e01b85526041600452602485fd5b634e487b7160e01b88526041600452602488fd5b8580fd5b8480fd5b8380fd5b505b80fd5b50346102d157806003193601126102d157805460015460025460035460405160045493946001600160a01b03908116949316918691906103138561048c565b8083526020830195600181169081156103e2575060011461038c575b5061033f8260e0989903836104c4565b60ff6005541693604051988997885260208801526040870152606086015260c060808601525180938160c08701528686015e838301850152151560a0830152601f01601f19168101030190f35b600484529750827f8a35acfbc15ff81a39ae7d344fd709f28e8600b4aa8c65c6b64bfe7fe36bd19b5b8982106103cc57508201602001975061033f61032f565b60018160209254838588010152019101906103b5565b60ff1916875250151560051b8201602001975061033f61032f565b905034610488575f3660031901126104885760055460ff81166104885760ff191660019081176005555f546002549154916001600160a01b039081169116803b1561048857835f604492819583956340c10f1960e01b8552600485015260248401525af1801561047d5761046f575080f35b61047b91505f906104c4565b005b6040513d5f823e3d90fd5b5f80fd5b90600182811c921680156104ba575b60208310146104a657565b634e487b7160e01b5f52602260045260245ffd5b91607f169161049b565b90601f8019910116810190811067ffffffffffffffff8211176104e657604052565b634e487b7160e01b5f52604160045260245ffdfea164736f6c634300081b000a",
        "nonce": "0x15",
        "chainId": "0x1bc"
      },
      "additionalContracts": [],
      "isFixedGasLimit": false
    },
    {
      "hash": "0xe67de811d159470a785d44c395fd4d06b45bb1186bbab9ba48c52f6051805029",
      "transactionType": "CALL",
      "contractName": null,
      "contractAddress": "0x8828fd7431d5bb1962d7e067c103b2324fa6bbec",
      "function": "setBridgers(address,address)",
      "arguments": [
        "0xC5EA444a0F556f5B227ec7447294d91086BB692c",
        "0xC5EA444a0F556f5B227ec7447294d91086BB692c"
      ],
      "transaction": {
        "from": "0xd289d1387ae1033a703842d69501d5bec5a6f04e",
        "to": "0x8828fd7431d5bb1962d7e067c103b2324fa6bbec",
        "value": "0x0",
        "input": "0x2b0f3ee4000000000000000000000000c5ea444a0f556f5b227ec7447294d91086bb692c000000000000000000000000c5ea444a0f556f5b227ec7447294d91086bb692c",
        "nonce": "0x16",
        "chainId": "0x1bc"
      },
      "additionalContracts": [],
      "isFixedGasLimit": false
    },
    {
      "hash": "0x76e07334de2febfe9242ceb3d13bf8b2cac85c95d49434c7e13491a8a0192028",
      "transactionType": "CALL",
      "contractName": null,
      "contractAddress": "0x4d4adec97e3e11693f65dedc2d1e6bec784eb2f1",
      "function": "mint(address,uint256)",
      "arguments": [
        "0x6607Fda2D454a9B800d0b18E0ddb7497DA2a79D0",
        "123000000"
      ],
      "transaction": {
        "from": "0xd289d1387ae1033a703842d69501d5bec5a6f04e",
        "to": "0x4d4adec97e3e11693f65dedc2d1e6bec784eb2f1",
        "value": "0x0",
        "input": "0x40c10f190000000000000000000000006607fda2d454a9b800d0b18e0ddb7497da2a79d0000000000000000000000000000000000000000000000000000000000754d4c0",
        "nonce": "0x17",
        "chainId": "0x1bc"
      },
      "additionalContracts": [],
      "isFixedGasLimit": false
    },
    {
      "hash": "0xd3e0fc662955b74efebc8da7e0de020d9c814c8acdd79f63162cfd2ee94227ca",
      "transactionType": "CALL",
      "contractName": null,
      "contractAddress": "0x8828fd7431d5bb1962d7e067c103b2324fa6bbec",
      "function": "pullFromReceiver((uint256,address,bool,bytes32,bytes32,uint256,address,address,(address,uint256,bytes)[],bytes))",
      "arguments": [
        "(444, 0xD59d27B9172aD056Cb5C008Dc2BbEFe702123A55, false, 0x0000000000000000000000000000000000000000000000000000000000000000, 0x0000000000000000000000000000000000000000000000000000000000000001, 0, 0x4D4aDEc97e3e11693F65dEDC2D1e6Bec784eB2F1, 0x4D4aDEc97e3e11693F65dEDC2D1e6Bec784eB2F1, [], 0x)"
      ],
      "transaction": {
        "from": "0xd289d1387ae1033a703842d69501d5bec5a6f04e",
        "to": "0x8828fd7431d5bb1962d7e067c103b2324fa6bbec",
        "value": "0x0",
        "input": "0x1ad1087b000000000000000000000000000000000000000000000000000000000000002000000000000000000000000000000000000000000000000000000000000001bc000000000000000000000000d59d27b9172ad056cb5c008dc2bbefe702123a5500000000000000000000000000000000000000000000000000000000000000000000000000000000000000000000000000000000000000000000000000000000000000000000000000000000000000000000000000000000000000000000000100000000000000000000000000000000000000000000000000000000000000000000000000000000000000004d4adec97e3e11693f65dedc2d1e6bec784eb2f10000000000000000000000004d4adec97e3e11693f65dedc2d1e6bec784eb2f10000000000000000000000000000000000000000000000000000000000000140000000000000000000000000000000000000000000000000000000000000016000000000000000000000000000000000000000000000000000000000000000000000000000000000000000000000000000000000000000000000000000000000",
        "nonce": "0x18",
        "chainId": "0x1bc"
      },
      "additionalContracts": [],
      "isFixedGasLimit": false
    },
    {
      "hash": "0x9e4873b7b3b08c07882efaf057a281026bfe098d607e1d494b05f3061c0193f1",
      "transactionType": "CALL",
      "contractName": null,
      "contractAddress": "0x4d4adec97e3e11693f65dedc2d1e6bec784eb2f1",
      "function": "mint(address,uint256)",
      "arguments": [
        "0x6607Fda2D454a9B800d0b18E0ddb7497DA2a79D0",
        "100000000"
      ],
      "transaction": {
        "from": "0xd289d1387ae1033a703842d69501d5bec5a6f04e",
        "to": "0x4d4adec97e3e11693f65dedc2d1e6bec784eb2f1",
        "value": "0x0",
        "input": "0x40c10f190000000000000000000000006607fda2d454a9b800d0b18e0ddb7497da2a79d00000000000000000000000000000000000000000000000000000000005f5e100",
        "nonce": "0x19",
        "chainId": "0x1bc"
      },
      "additionalContracts": [],
      "isFixedGasLimit": false
    },
    {
      "hash": "0x8772375a183db88e302698098239d0ae5926afd00e7098aaae49accb27c504c1",
      "transactionType": "CALL",
      "contractName": null,
      "contractAddress": "0x8828fd7431d5bb1962d7e067c103b2324fa6bbec",
      "function": "pullFromReceiver((uint256,address,bool,bytes32,bytes32,uint256,address,address,(address,uint256,bytes)[],bytes))",
      "arguments": [
        "(444, 0xD59d27B9172aD056Cb5C008Dc2BbEFe702123A55, false, 0x0000000000000000000000000000000000000000000000000000000000000000, 0x0000000000000000000000000000000000000000000000000000000000000002, 0, 0x4D4aDEc97e3e11693F65dEDC2D1e6Bec784eB2F1, 0xF86C23C1E883ee3B820FB9BE75FF91C9A49EaE75, [(0xF86C23C1E883ee3B820FB9BE75FF91C9A49EaE75, 0, 0x40c10f190000000000000000000000009feb94832da4e52a75a18e6310640cc2cb702ffe0000000000000000000000000000000000000000000000000000000005f5e100)], 0x)"
      ],
      "transaction": {
        "from": "0xd289d1387ae1033a703842d69501d5bec5a6f04e",
        "to": "0x8828fd7431d5bb1962d7e067c103b2324fa6bbec",
        "value": "0x0",
        "input": "0x1ad1087b000000000000000000000000000000000000000000000000000000000000002000000000000000000000000000000000000000000000000000000000000001bc000000000000000000000000d59d27b9172ad056cb5c008dc2bbefe702123a5500000000000000000000000000000000000000000000000000000000000000000000000000000000000000000000000000000000000000000000000000000000000000000000000000000000000000000000000000000000000000000000000200000000000000000000000000000000000000000000000000000000000000000000000000000000000000004d4adec97e3e11693f65dedc2d1e6bec784eb2f1000000000000000000000000f86c23c1e883ee3b820fb9be75ff91c9a49eae750000000000000000000000000000000000000000000000000000000000000140000000000000000000000000000000000000000000000000000000000000026000000000000000000000000000000000000000000000000000000000000000010000000000000000000000000000000000000000000000000000000000000020000000000000000000000000f86c23c1e883ee3b820fb9be75ff91c9a49eae7500000000000000000000000000000000000000000000000000000000000000000000000000000000000000000000000000000000000000000000000000000060000000000000000000000000000000000000000000000000000000000000004440c10f190000000000000000000000009feb94832da4e52a75a18e6310640cc2cb702ffe0000000000000000000000000000000000000000000000000000000005f5e100000000000000000000000000000000000000000000000000000000000000000000000000000000000000000000000000000000000000000000000000",
        "nonce": "0x1a",
        "chainId": "0x1bc"
      },
      "additionalContracts": [],
      "isFixedGasLimit": false
    },
    {
      "hash": "0x99a490a0cb512bd8acbd9ba83cd74903b97f102a0980d9331b127e210092ea4a",
      "transactionType": "CALL",
      "contractName": null,
      "contractAddress": "0xf86c23c1e883ee3b820fb9be75ff91c9a49eae75",
      "function": "mint(address,uint256)",
      "arguments": [
        "0xD289D1387ae1033A703842D69501D5bEc5A6f04e",
        "5000000"
      ],
      "transaction": {
        "from": "0xd289d1387ae1033a703842d69501d5bec5a6f04e",
        "to": "0xf86c23c1e883ee3b820fb9be75ff91c9a49eae75",
        "value": "0x0",
        "input": "0x40c10f19000000000000000000000000d289d1387ae1033a703842d69501d5bec5a6f04e00000000000000000000000000000000000000000000000000000000004c4b40",
        "nonce": "0x1b",
        "chainId": "0x1bc"
      },
      "additionalContracts": [],
      "isFixedGasLimit": false
    },
    {
      "hash": "0xbaf30e1ceee235b9e2226e7745bbc93540de9002bd5e91b4a5a94aabf575e933",
      "transactionType": "CALL",
      "contractName": null,
      "contractAddress": "0xf86c23c1e883ee3b820fb9be75ff91c9a49eae75",
      "function": "approve(address,uint256)",
      "arguments": [
        "0x048255dfEF2eBFA7307058Ae475a3e2F5ee0df46",
        "115792089237316195423570985008687907853269984665640564039457584007913129639935"
      ],
      "transaction": {
        "from": "0xd289d1387ae1033a703842d69501d5bec5a6f04e",
        "to": "0xf86c23c1e883ee3b820fb9be75ff91c9a49eae75",
        "value": "0x0",
        "input": "0x095ea7b3000000000000000000000000048255dfef2ebfa7307058ae475a3e2f5ee0df46ffffffffffffffffffffffffffffffffffffffffffffffffffffffffffffffff",
        "nonce": "0x1c",
        "chainId": "0x1bc"
      },
      "additionalContracts": [],
      "isFixedGasLimit": false
    },
    {
      "hash": "0x386adbd690ef7eb08133ae186e49013acf91a5876ca90b2238ab9974ecd32917",
      "transactionType": "CALL",
      "contractName": null,
      "contractAddress": "0x048255dfef2ebfa7307058ae475a3e2f5ee0df46",
      "function": "createIntent((uint8,bytes,address,address,uint256),uint256)",
      "arguments": [
        "(0, 0x00000000000000000000000000000000000000000000000000000000000000200000000000000000000000002db97a32d5ce8d79f7b7fdc607584a7a35da5e0d00000000000000000000000000000000000000000000000000000000000000400000000000000000000000000000000000000000000000000000000000000002abcd000000000000000000000000000000000000000000000000000000000000, 0xD289D1387ae1033A703842D69501D5bEc5A6f04e, 0xF86C23C1E883ee3B820FB9BE75FF91C9A49EaE75, 5000000)",
        "1768322533"
      ],
      "transaction": {
        "from": "0xd289d1387ae1033a703842d69501d5bec5a6f04e",
        "to": "0x048255dfef2ebfa7307058ae475a3e2f5ee0df46",
        "value": "0x0",
        "input": "0x549f7505000000000000000000000000000000000000000000000000000000000000004000000000000000000000000000000000000000000000000000000000696675e5000000000000000000000000000000000000000000000000000000000000000000000000000000000000000000000000000000000000000000000000000000a0000000000000000000000000d289d1387ae1033a703842d69501d5bec5a6f04e000000000000000000000000f86c23c1e883ee3b820fb9be75ff91c9a49eae7500000000000000000000000000000000000000000000000000000000004c4b4000000000000000000000000000000000000000000000000000000000000000a000000000000000000000000000000000000000000000000000000000000000200000000000000000000000002db97a32d5ce8d79f7b7fdc607584a7a35da5e0d00000000000000000000000000000000000000000000000000000000000000400000000000000000000000000000000000000000000000000000000000000002abcd000000000000000000000000000000000000000000000000000000000000",
        "nonce": "0x1d",
        "chainId": "0x1bc"
      },
      "additionalContracts": [],
      "isFixedGasLimit": false
    },
    {
      "hash": "0x2f56d4330b5b3ad7b5028d1250bc95815cd0739f9567a863280626fe3d8c0997",
      "transactionType": "CALL",
      "contractName": null,
      "contractAddress": "0x4d4adec97e3e11693f65dedc2d1e6bec784eb2f1",
      "function": "mint(address,uint256)",
      "arguments": [
        "0xD289D1387ae1033A703842D69501D5bEc5A6f04e",
        "1000000"
      ],
      "transaction": {
        "from": "0xd289d1387ae1033a703842d69501d5bec5a6f04e",
        "to": "0x4d4adec97e3e11693f65dedc2d1e6bec784eb2f1",
        "value": "0x0",
        "input": "0x40c10f19000000000000000000000000d289d1387ae1033a703842d69501d5bec5a6f04e00000000000000000000000000000000000000000000000000000000000f4240",
        "nonce": "0x1e",
        "chainId": "0x1bc"
      },
      "additionalContracts": [],
      "isFixedGasLimit": false
    },
    {
      "hash": "0x4eb45a21ced9b9898440a556d8dd5fd801e3a9bfea125b9cbde5947b9f9cb711",
      "transactionType": "CALL",
      "contractName": null,
      "contractAddress": "0x4d4adec97e3e11693f65dedc2d1e6bec784eb2f1",
      "function": "approve(address,uint256)",
      "arguments": [
        "0x048255dfEF2eBFA7307058Ae475a3e2F5ee0df46",
        "115792089237316195423570985008687907853269984665640564039457584007913129639935"
      ],
      "transaction": {
        "from": "0xd289d1387ae1033a703842d69501d5bec5a6f04e",
        "to": "0x4d4adec97e3e11693f65dedc2d1e6bec784eb2f1",
        "value": "0x0",
        "input": "0x095ea7b3000000000000000000000000048255dfef2ebfa7307058ae475a3e2f5ee0df46ffffffffffffffffffffffffffffffffffffffffffffffffffffffffffffffff",
        "nonce": "0x1f",
        "chainId": "0x1bc"
      },
      "additionalContracts": [],
      "isFixedGasLimit": false
    },
    {
      "hash": "0x1e8be4a7be1cad6c4bbf90b1495c5aa3ffb160bc184d00ce873cd9cded9b3cfb",
      "transactionType": "CALL",
      "contractName": null,
      "contractAddress": "0x048255dfef2ebfa7307058ae475a3e2f5ee0df46",
      "function": "claimIntent(bytes32)",
      "arguments": [
        "0xa3573853cd51aee00704a918bdae35ffd85cda62ed5fb1c74fdc4509c4d06457"
      ],
      "transaction": {
        "from": "0xd289d1387ae1033a703842d69501d5bec5a6f04e",
        "to": "0x048255dfef2ebfa7307058ae475a3e2f5ee0df46",
        "value": "0x0",
        "input": "0x40e624cba3573853cd51aee00704a918bdae35ffd85cda62ed5fb1c74fdc4509c4d06457",
        "nonce": "0x20",
        "chainId": "0x1bc"
      },
      "additionalContracts": [],
      "isFixedGasLimit": false
    },
    {
      "hash": "0x8619ab75d24cac45344936d5f3e256abbf174855bdc202424887b8c6b6a4ea45",
      "transactionType": "CALL",
      "contractName": null,
      "contractAddress": "0x8c16d2f19a034b7281254f5656c2d1461c6ceb9a",
      "function": "setTx((bytes32,uint256,uint32,bytes21,bytes21,bytes))",
      "arguments": [
        "(0x0000000000000000000000000000000000000000000000000000000000000000, 0, 0, 0x000000000000000000000000000000000000000000, 0x412db97a32d5ce8d79f7b7fdc607584a7a35da5e0d, 0xabcd)"
      ],
      "transaction": {
        "from": "0xd289d1387ae1033a703842d69501d5bec5a6f04e",
        "to": "0x8c16d2f19a034b7281254f5656c2d1461c6ceb9a",
        "value": "0x0",
        "input": "0x3aec07de00000000000000000000000000000000000000000000000000000000000000200000000000000000000000000000000000000000000000000000000000000000000000000000000000000000000000000000000000000000000000000000000000000000000000000000000000000000000000000000000000000000000000000000000000000000000000000000000000000000000000000000000000000000412db97a32d5ce8d79f7b7fdc607584a7a35da5e0d000000000000000000000000000000000000000000000000000000000000000000000000000000000000c00000000000000000000000000000000000000000000000000000000000000002abcd000000000000000000000000000000000000000000000000000000000000",
        "nonce": "0x21",
        "chainId": "0x1bc"
      },
      "additionalContracts": [],
      "isFixedGasLimit": false
    },
    {
      "hash": "0x3bb84969617a96dc96359dd1a42bd63f8ae012a2a54dc2745897267796ed6b49",
      "transactionType": "CALL",
      "contractName": null,
      "contractAddress": "0x048255dfef2ebfa7307058ae475a3e2f5ee0df46",
      "function": "proveIntentFill(bytes32,bytes[20],bytes,bytes32[],uint256)",
      "arguments": [
        "0xa3573853cd51aee00704a918bdae35ffd85cda62ed5fb1c74fdc4509c4d06457",
        "[0x, 0x, 0x, 0x, 0x, 0x, 0x, 0x, 0x, 0x, 0x, 0x, 0x, 0x, 0x, 0x, 0x, 0x, 0x, 0x]",
        "0x",
        "[]",
        "0"
      ],
      "transaction": {
        "from": "0xd289d1387ae1033a703842d69501d5bec5a6f04e",
        "to": "0x048255dfef2ebfa7307058ae475a3e2f5ee0df46",
        "value": "0x0",
        "input": "0x5c23cc02a3573853cd51aee00704a918bdae35ffd85cda62ed5fb1c74fdc4509c4d0645700000000000000000000000000000000000000000000000000000000000000a000000000000000000000000000000000000000000000000000000000000005a000000000000000000000000000000000000000000000000000000000000005c00000000000000000000000000000000000000000000000000000000000000000000000000000000000000000000000000000000000000000000000000000028000000000000000000000000000000000000000000000000000000000000002a000000000000000000000000000000000000000000000000000000000000002c000000000000000000000000000000000000000000000000000000000000002e00000000000000000000000000000000000000000000000000000000000000300000000000000000000000000000000000000000000000000000000000000032000000000000000000000000000000000000000000000000000000000000003400000000000000000000000000000000000000000000000000000000000000360000000000000000000000000000000000000000000000000000000000000038000000000000000000000000000000000000000000000000000000000000003a000000000000000000000000000000000000000000000000000000000000003c000000000000000000000000000000000000000000000000000000000000003e00000000000000000000000000000000000000000000000000000000000000400000000000000000000000000000000000000000000000000000000000000042000000000000000000000000000000000000000000000000000000000000004400000000000000000000000000000000000000000000000000000000000000460000000000000000000000000000000000000000000000000000000000000048000000000000000000000000000000000000000000000000000000000000004a000000000000000000000000000000000000000000000000000000000000004c000000000000000000000000000000000000000000000000000000000000004e00000000000000000000000000000000000000000000000000000000000000000000000000000000000000000000000000000000000000000000000000000000000000000000000000000000000000000000000000000000000000000000000000000000000000000000000000000000000000000000000000000000000000000000000000000000000000000000000000000000000000000000000000000000000000000000000000000000000000000000000000000000000000000000000000000000000000000000000000000000000000000000000000000000000000000000000000000000000000000000000000000000000000000000000000000000000000000000000000000000000000000000000000000000000000000000000000000000000000000000000000000000000000000000000000000000000000000000000000000000000000000000000000000000000000000000000000000000000000000000000000000000000000000000000000000000000000000000000000000000000000000000000000000000000000000000000000000000000000000000000000000000000000000000000000000000000000000000000000000000000000000000000000000000000000000000000000000000000000000000000000000000000000000000000000000000000000000000000000000000000000000000000000000000000000000000000000000000000000000000000000000000000000000000000000000000000000000000000000000000000000000000000000000000000000000000000000000000000000000000000000000000000000000000000000000000000000000000000000000000000000000000000000000000000000000000000000000000000000000000000000000000000000000000000000000000000000000000000000000000000000000000000000000000000000000",
        "nonce": "0x22",
        "chainId": "0x1bc"
      },
      "additionalContracts": [],
      "isFixedGasLimit": false
    },
    {
      "hash": "0x2251ad25c50f35a00c86806b0e949118cf365a5a0571f8a114c0e850a766963e",
      "transactionType": "CALL",
      "contractName": null,
      "contractAddress": "0x4d4adec97e3e11693f65dedc2d1e6bec784eb2f1",
      "function": "mint(address,uint256)",
      "arguments": [
        "0xD289D1387ae1033A703842D69501D5bEc5A6f04e",
        "2000000"
      ],
      "transaction": {
        "from": "0xd289d1387ae1033a703842d69501d5bec5a6f04e",
        "to": "0x4d4adec97e3e11693f65dedc2d1e6bec784eb2f1",
        "value": "0x0",
        "input": "0x40c10f19000000000000000000000000d289d1387ae1033a703842d69501d5bec5a6f04e00000000000000000000000000000000000000000000000000000000001e8480",
        "nonce": "0x23",
        "chainId": "0x1bc"
      },
      "additionalContracts": [],
      "isFixedGasLimit": false
    },
    {
      "hash": "0xf9efb66edb2a556a0fdffc4bbf2b33fa01f6db51c69048612237363ee78c386f",
      "transactionType": "CALL",
      "contractName": null,
      "contractAddress": "0x4d4adec97e3e11693f65dedc2d1e6bec784eb2f1",
      "function": "approve(address,uint256)",
      "arguments": [
        "0x048255dfEF2eBFA7307058Ae475a3e2F5ee0df46",
        "115792089237316195423570985008687907853269984665640564039457584007913129639935"
      ],
      "transaction": {
        "from": "0xd289d1387ae1033a703842d69501d5bec5a6f04e",
        "to": "0x4d4adec97e3e11693f65dedc2d1e6bec784eb2f1",
        "value": "0x0",
        "input": "0x095ea7b3000000000000000000000000048255dfef2ebfa7307058ae475a3e2f5ee0df46ffffffffffffffffffffffffffffffffffffffffffffffffffffffffffffffff",
        "nonce": "0x24",
        "chainId": "0x1bc"
      },
      "additionalContracts": [],
      "isFixedGasLimit": false
    },
    {
      "hash": "0xcd53f443a157ed91c1209511211ac7a64001dc8e7f0e115cdeac9c2ce6a78f78",
      "transactionType": "CALL",
      "contractName": null,
      "contractAddress": "0x048255dfef2ebfa7307058ae475a3e2f5ee0df46",
      "function": "createIntent((uint8,bytes,address,address,uint256),uint256)",
      "arguments": [
        "(1, 0x000000000000000000000000558b8fe3b86724d9d9433bf8ec2b1a1b223f9d25000000000000000000000000000000000000000000000000000000000012d687, 0xD289D1387ae1033A703842D69501D5bEc5A6f04e, 0x4D4aDEc97e3e11693F65dEDC2D1e6Bec784eB2F1, 2000000)",
        "1768322533"
      ],
      "transaction": {
        "from": "0xd289d1387ae1033a703842d69501d5bec5a6f04e",
        "to": "0x048255dfef2ebfa7307058ae475a3e2f5ee0df46",
        "value": "0x0",
        "input": "0x549f7505000000000000000000000000000000000000000000000000000000000000004000000000000000000000000000000000000000000000000000000000696675e5000000000000000000000000000000000000000000000000000000000000000100000000000000000000000000000000000000000000000000000000000000a0000000000000000000000000d289d1387ae1033a703842d69501d5bec5a6f04e0000000000000000000000004d4adec97e3e11693f65dedc2d1e6bec784eb2f100000000000000000000000000000000000000000000000000000000001e84800000000000000000000000000000000000000000000000000000000000000040000000000000000000000000558b8fe3b86724d9d9433bf8ec2b1a1b223f9d25000000000000000000000000000000000000000000000000000000000012d687",
        "nonce": "0x25",
        "chainId": "0x1bc"
      },
      "additionalContracts": [],
      "isFixedGasLimit": false
    },
    {
      "hash": "0xfed417558ae0dfc9fa69f6b3e26a183ad2c0e6e3f749d50b0f79d57610d88a9f",
      "transactionType": "CALL",
      "contractName": null,
      "contractAddress": "0x4d4adec97e3e11693f65dedc2d1e6bec784eb2f1",
      "function": "mint(address,uint256)",
      "arguments": [
        "0xD289D1387ae1033A703842D69501D5bEc5A6f04e",
        "1000000"
      ],
      "transaction": {
        "from": "0xd289d1387ae1033a703842d69501d5bec5a6f04e",
        "to": "0x4d4adec97e3e11693f65dedc2d1e6bec784eb2f1",
        "value": "0x0",
        "input": "0x40c10f19000000000000000000000000d289d1387ae1033a703842d69501d5bec5a6f04e00000000000000000000000000000000000000000000000000000000000f4240",
        "nonce": "0x26",
        "chainId": "0x1bc"
      },
      "additionalContracts": [],
      "isFixedGasLimit": false
    },
    {
      "hash": "0x5dad83edb1c33f042f8ec27cad814b69c77182c0206e0574b45277e9c76f8b1b",
      "transactionType": "CALL",
      "contractName": null,
      "contractAddress": "0x4d4adec97e3e11693f65dedc2d1e6bec784eb2f1",
      "function": "approve(address,uint256)",
      "arguments": [
        "0x048255dfEF2eBFA7307058Ae475a3e2F5ee0df46",
        "115792089237316195423570985008687907853269984665640564039457584007913129639935"
      ],
      "transaction": {
        "from": "0xd289d1387ae1033a703842d69501d5bec5a6f04e",
        "to": "0x4d4adec97e3e11693f65dedc2d1e6bec784eb2f1",
        "value": "0x0",
        "input": "0x095ea7b3000000000000000000000000048255dfef2ebfa7307058ae475a3e2f5ee0df46ffffffffffffffffffffffffffffffffffffffffffffffffffffffffffffffff",
        "nonce": "0x27",
        "chainId": "0x1bc"
      },
      "additionalContracts": [],
      "isFixedGasLimit": false
    },
    {
      "hash": "0x3d768fee28050b22fcc2d899d11d9aa6ab1fd2a6444d86d58e3229b9261cbf4e",
      "transactionType": "CALL",
      "contractName": null,
      "contractAddress": "0x048255dfef2ebfa7307058ae475a3e2f5ee0df46",
      "function": "claimIntent(bytes32)",
      "arguments": [
        "0x9c5668eca5a4c40788145e30ed18cf7fd39e52233dfaffbabbdea366803bf0a0"
      ],
      "transaction": {
        "from": "0xd289d1387ae1033a703842d69501d5bec5a6f04e",
        "to": "0x048255dfef2ebfa7307058ae475a3e2f5ee0df46",
        "value": "0x0",
        "input": "0x40e624cb9c5668eca5a4c40788145e30ed18cf7fd39e52233dfaffbabbdea366803bf0a0",
        "nonce": "0x28",
        "chainId": "0x1bc"
      },
      "additionalContracts": [],
      "isFixedGasLimit": false
    },
    {
      "hash": "0xa3d26f21215aa99883ccaaabb519c76754ecac5db3eeb1cb2951af78b1885e87",
      "transactionType": "CALL",
      "contractName": null,
      "contractAddress": "0x8c16d2f19a034b7281254f5656c2d1461c6ceb9a",
      "function": "setTx((bytes32,uint256,uint32,bytes21,bytes21,bytes))",
      "arguments": [
        "(0x0000000000000000000000000000000000000000000000000000000000000000, 0, 0, 0x000000000000000000000000000000000000000000, 0x41f61c257cc0c129959a9704a59193e15c91853749, 0xa9059cbb000000000000000000000000558b8fe3b86724d9d9433bf8ec2b1a1b223f9d25000000000000000000000000000000000000000000000000000000000012d687)"
      ],
      "transaction": {
        "from": "0xd289d1387ae1033a703842d69501d5bec5a6f04e",
        "to": "0x8c16d2f19a034b7281254f5656c2d1461c6ceb9a",
        "value": "0x0",
        "input": "0x3aec07de0000000000000000000000000000000000000000000000000000000000000020000000000000000000000000000000000000000000000000000000000000000000000000000000000000000000000000000000000000000000000000000000000000000000000000000000000000000000000000000000000000000000000000000000000000000000000000000000000000000000000000000000000000000041f61c257cc0c129959a9704a59193e15c91853749000000000000000000000000000000000000000000000000000000000000000000000000000000000000c00000000000000000000000000000000000000000000000000000000000000044a9059cbb000000000000000000000000558b8fe3b86724d9d9433bf8ec2b1a1b223f9d25000000000000000000000000000000000000000000000000000000000012d68700000000000000000000000000000000000000000000000000000000",
        "nonce": "0x29",
        "chainId": "0x1bc"
      },
      "additionalContracts": [],
      "isFixedGasLimit": false
    },
    {
      "hash": "0x431a44ff40be16863224427d7730a26cac853d9b0e6f02c0c1796c5eee54452a",
      "transactionType": "CALL",
      "contractName": null,
      "contractAddress": "0x048255dfef2ebfa7307058ae475a3e2f5ee0df46",
      "function": "proveIntentFill(bytes32,bytes[20],bytes,bytes32[],uint256)",
      "arguments": [
        "0x9c5668eca5a4c40788145e30ed18cf7fd39e52233dfaffbabbdea366803bf0a0",
        "[0x, 0x, 0x, 0x, 0x, 0x, 0x, 0x, 0x, 0x, 0x, 0x, 0x, 0x, 0x, 0x, 0x, 0x, 0x, 0x]",
        "0x",
        "[]",
        "0"
      ],
      "transaction": {
        "from": "0xd289d1387ae1033a703842d69501d5bec5a6f04e",
        "to": "0x048255dfef2ebfa7307058ae475a3e2f5ee0df46",
        "value": "0x0",
        "input": "0x5c23cc029c5668eca5a4c40788145e30ed18cf7fd39e52233dfaffbabbdea366803bf0a000000000000000000000000000000000000000000000000000000000000000a000000000000000000000000000000000000000000000000000000000000005a000000000000000000000000000000000000000000000000000000000000005c00000000000000000000000000000000000000000000000000000000000000000000000000000000000000000000000000000000000000000000000000000028000000000000000000000000000000000000000000000000000000000000002a000000000000000000000000000000000000000000000000000000000000002c000000000000000000000000000000000000000000000000000000000000002e00000000000000000000000000000000000000000000000000000000000000300000000000000000000000000000000000000000000000000000000000000032000000000000000000000000000000000000000000000000000000000000003400000000000000000000000000000000000000000000000000000000000000360000000000000000000000000000000000000000000000000000000000000038000000000000000000000000000000000000000000000000000000000000003a000000000000000000000000000000000000000000000000000000000000003c000000000000000000000000000000000000000000000000000000000000003e00000000000000000000000000000000000000000000000000000000000000400000000000000000000000000000000000000000000000000000000000000042000000000000000000000000000000000000000000000000000000000000004400000000000000000000000000000000000000000000000000000000000000460000000000000000000000000000000000000000000000000000000000000048000000000000000000000000000000000000000000000000000000000000004a000000000000000000000000000000000000000000000000000000000000004c000000000000000000000000000000000000000000000000000000000000004e00000000000000000000000000000000000000000000000000000000000000000000000000000000000000000000000000000000000000000000000000000000000000000000000000000000000000000000000000000000000000000000000000000000000000000000000000000000000000000000000000000000000000000000000000000000000000000000000000000000000000000000000000000000000000000000000000000000000000000000000000000000000000000000000000000000000000000000000000000000000000000000000000000000000000000000000000000000000000000000000000000000000000000000000000000000000000000000000000000000000000000000000000000000000000000000000000000000000000000000000000000000000000000000000000000000000000000000000000000000000000000000000000000000000000000000000000000000000000000000000000000000000000000000000000000000000000000000000000000000000000000000000000000000000000000000000000000000000000000000000000000000000000000000000000000000000000000000000000000000000000000000000000000000000000000000000000000000000000000000000000000000000000000000000000000000000000000000000000000000000000000000000000000000000000000000000000000000000000000000000000000000000000000000000000000000000000000000000000000000000000000000000000000000000000000000000000000000000000000000000000000000000000000000000000000000000000000000000000000000000000000000000000000000000000000000000000000000000000000000000000000000000000000000000000000000000000000000000000000000000000000000000000000000000000000",
        "nonce": "0x2a",
        "chainId": "0x1bc"
      },
      "additionalContracts": [],
      "isFixedGasLimit": false
    },
    {
      "hash": "0x3cfe4d3def108d512f118812e99980805c2613a669372cae3d633a56843e7cd6",
      "transactionType": "CALL",
      "contractName": null,
      "contractAddress": "0xf86c23c1e883ee3b820fb9be75ff91c9a49eae75",
      "function": "mint(address,uint256)",
      "arguments": [
        "0xD289D1387ae1033A703842D69501D5bEc5A6f04e",
        "1000000"
      ],
      "transaction": {
        "from": "0xd289d1387ae1033a703842d69501d5bec5a6f04e",
        "to": "0xf86c23c1e883ee3b820fb9be75ff91c9a49eae75",
        "value": "0x0",
        "input": "0x40c10f19000000000000000000000000d289d1387ae1033a703842d69501d5bec5a6f04e00000000000000000000000000000000000000000000000000000000000f4240",
        "nonce": "0x2b",
        "chainId": "0x1bc"
      },
      "additionalContracts": [],
      "isFixedGasLimit": false
    },
    {
      "hash": "0x9041eb280fbb4358404c02716074cab410c6307832ffee46435dabe265bf587b",
      "transactionType": "CALL",
      "contractName": null,
      "contractAddress": "0xf86c23c1e883ee3b820fb9be75ff91c9a49eae75",
      "function": "approve(address,uint256)",
      "arguments": [
        "0x048255dfEF2eBFA7307058Ae475a3e2F5ee0df46",
        "115792089237316195423570985008687907853269984665640564039457584007913129639935"
      ],
      "transaction": {
        "from": "0xd289d1387ae1033a703842d69501d5bec5a6f04e",
        "to": "0xf86c23c1e883ee3b820fb9be75ff91c9a49eae75",
        "value": "0x0",
        "input": "0x095ea7b3000000000000000000000000048255dfef2ebfa7307058ae475a3e2f5ee0df46ffffffffffffffffffffffffffffffffffffffffffffffffffffffffffffffff",
        "nonce": "0x2c",
        "chainId": "0x1bc"
      },
      "additionalContracts": [],
      "isFixedGasLimit": false
    },
    {
      "hash": "0x11391e719a9c843086597c7e56dbdcea84cbc2bca0c264a3d9ced0a1b7fb5676",
      "transactionType": "CALL",
      "contractName": null,
      "contractAddress": "0x048255dfef2ebfa7307058ae475a3e2f5ee0df46",
      "function": "createIntent((uint8,bytes,address,address,uint256),uint256)",
      "arguments": [
        "(0, 0x00000000000000000000000000000000000000000000000000000000000000200000000000000000000000005457e258a09ebfb4a2501a9e3d70d37f54f923f300000000000000000000000000000000000000000000000000000000000000400000000000000000000000000000000000000000000000000000000000000002beef000000000000000000000000000000000000000000000000000000000000, 0xD289D1387ae1033A703842D69501D5bEc5A6f04e, 0xF86C23C1E883ee3B820FB9BE75FF91C9A49EaE75, 1000000)",
        "1768322533"
      ],
      "transaction": {
        "from": "0xd289d1387ae1033a703842d69501d5bec5a6f04e",
        "to": "0x048255dfef2ebfa7307058ae475a3e2f5ee0df46",
        "value": "0x0",
        "input": "0x549f7505000000000000000000000000000000000000000000000000000000000000004000000000000000000000000000000000000000000000000000000000696675e5000000000000000000000000000000000000000000000000000000000000000000000000000000000000000000000000000000000000000000000000000000a0000000000000000000000000d289d1387ae1033a703842d69501d5bec5a6f04e000000000000000000000000f86c23c1e883ee3b820fb9be75ff91c9a49eae7500000000000000000000000000000000000000000000000000000000000f424000000000000000000000000000000000000000000000000000000000000000a000000000000000000000000000000000000000000000000000000000000000200000000000000000000000005457e258a09ebfb4a2501a9e3d70d37f54f923f300000000000000000000000000000000000000000000000000000000000000400000000000000000000000000000000000000000000000000000000000000002beef000000000000000000000000000000000000000000000000000000000000",
        "nonce": "0x2d",
        "chainId": "0x1bc"
      },
      "additionalContracts": [],
      "isFixedGasLimit": false
    },
    {
      "hash": "0xfc7396c2a2e51ae3a3b5def07a6ff9cecab38bda018abb50626fd642c2d9713f",
      "transactionType": "CALL",
      "contractName": null,
      "contractAddress": "0x4d4adec97e3e11693f65dedc2d1e6bec784eb2f1",
      "function": "mint(address,uint256)",
      "arguments": [
        "0xD289D1387ae1033A703842D69501D5bEc5A6f04e",
        "1000000"
      ],
      "transaction": {
        "from": "0xd289d1387ae1033a703842d69501d5bec5a6f04e",
        "to": "0x4d4adec97e3e11693f65dedc2d1e6bec784eb2f1",
        "value": "0x0",
        "input": "0x40c10f19000000000000000000000000d289d1387ae1033a703842d69501d5bec5a6f04e00000000000000000000000000000000000000000000000000000000000f4240",
        "nonce": "0x2e",
        "chainId": "0x1bc"
      },
      "additionalContracts": [],
      "isFixedGasLimit": false
    },
    {
      "hash": "0x2909a77014f5dc610f372b5bd09d57957b88c7db95b8d4f932eec59ec14a676e",
      "transactionType": "CALL",
      "contractName": null,
      "contractAddress": "0x4d4adec97e3e11693f65dedc2d1e6bec784eb2f1",
      "function": "approve(address,uint256)",
      "arguments": [
        "0x048255dfEF2eBFA7307058Ae475a3e2F5ee0df46",
        "115792089237316195423570985008687907853269984665640564039457584007913129639935"
      ],
      "transaction": {
        "from": "0xd289d1387ae1033a703842d69501d5bec5a6f04e",
        "to": "0x4d4adec97e3e11693f65dedc2d1e6bec784eb2f1",
        "value": "0x0",
        "input": "0x095ea7b3000000000000000000000000048255dfef2ebfa7307058ae475a3e2f5ee0df46ffffffffffffffffffffffffffffffffffffffffffffffffffffffffffffffff",
        "nonce": "0x2f",
        "chainId": "0x1bc"
      },
      "additionalContracts": [],
      "isFixedGasLimit": false
    },
    {
      "hash": "0xcd59a627782cae5af53bb33530ac671f07558a9b0b6d38149ec5001d43ff3c54",
      "transactionType": "CALL",
      "contractName": null,
      "contractAddress": "0x048255dfef2ebfa7307058ae475a3e2f5ee0df46",
      "function": "claimVirtualReceiverIntent(address,address,bytes32,address,uint256)",
      "arguments": [
        "0x8828fD7431d5bb1962d7E067C103b2324FA6BBEC",
        "0x97629064A9C06865C5B3832F94bb64a8E47bcAd7",
        "0x282866f5067804dadd2e500a0a3d8b5e5d2e5cde385e9ec6a887315613d6f448",
        "0x4D4aDEc97e3e11693F65dEDC2D1e6Bec784eB2F1",
        "1000000"
      ],
      "transaction": {
        "from": "0xd289d1387ae1033a703842d69501d5bec5a6f04e",
        "to": "0x048255dfef2ebfa7307058ae475a3e2f5ee0df46",
        "value": "0x0",
        "input": "0xaf2440050000000000000000000000008828fd7431d5bb1962d7e067c103b2324fa6bbec00000000000000000000000097629064a9c06865c5b3832f94bb64a8e47bcad7282866f5067804dadd2e500a0a3d8b5e5d2e5cde385e9ec6a887315613d6f4480000000000000000000000004d4adec97e3e11693f65dedc2d1e6bec784eb2f100000000000000000000000000000000000000000000000000000000000f4240",
        "nonce": "0x30",
        "chainId": "0x1bc"
      },
      "additionalContracts": [],
      "isFixedGasLimit": false
    },
    {
      "hash": "0x64e2fcdf1bfaab2165407d335037d6a5e13a34ab7d29d6a9c538ed92ef403ca7",
      "transactionType": "CALL",
      "contractName": null,
      "contractAddress": "0x4d4adec97e3e11693f65dedc2d1e6bec784eb2f1",
      "function": "mint(address,uint256)",
      "arguments": [
        "0x1A8d6663d71Dd8aEb9d90C08BBDb80b7f3624783",
        "10000444"
      ],
      "transaction": {
        "from": "0xd289d1387ae1033a703842d69501d5bec5a6f04e",
        "to": "0x4d4adec97e3e11693f65dedc2d1e6bec784eb2f1",
        "value": "0x0",
        "input": "0x40c10f190000000000000000000000001a8d6663d71dd8aeb9d90c08bbdb80b7f3624783000000000000000000000000000000000000000000000000000000000098983c",
        "nonce": "0x31",
        "chainId": "0x1bc"
      },
      "additionalContracts": [],
      "isFixedGasLimit": false
    },
    {
      "hash": "0xcbe5d9d7bd237d30eaa12fff350841b24b1e6853f3791ba777cb2bc199979a3a",
      "transactionType": "CALL",
      "contractName": null,
      "contractAddress": "0x8828fd7431d5bb1962d7e067c103b2324fa6bbec",
      "function": "pullFromReceiver((uint256,address,bool,bytes32,bytes32,uint256,address,address,(address,uint256,bytes)[],bytes))",
      "arguments": [
        "(222, 0x048255dfEF2eBFA7307058Ae475a3e2F5ee0df46, true, 0x805137159b1f1225efc7ae36f6b216b76c0e9bed085c4220b2f702fde8defd04, 0x38cb7bc9535f8b89744a14dd2acfe7dcc993eb5f668dfbcb95bdf21a839e2ec0, 10000444, 0x4D4aDEc97e3e11693F65dEDC2D1e6Bec784eB2F1, 0x4D4aDEc97e3e11693F65dEDC2D1e6Bec784eB2F1, [], 0x)"
      ],
      "transaction": {
        "from": "0xd289d1387ae1033a703842d69501d5bec5a6f04e",
        "to": "0x8828fd7431d5bb1962d7e067c103b2324fa6bbec",
        "value": "0x0",
        "input": "0x1ad1087b000000000000000000000000000000000000000000000000000000000000002000000000000000000000000000000000000000000000000000000000000000de000000000000000000000000048255dfef2ebfa7307058ae475a3e2f5ee0df460000000000000000000000000000000000000000000000000000000000000001805137159b1f1225efc7ae36f6b216b76c0e9bed085c4220b2f702fde8defd0438cb7bc9535f8b89744a14dd2acfe7dcc993eb5f668dfbcb95bdf21a839e2ec0000000000000000000000000000000000000000000000000000000000098983c0000000000000000000000004d4adec97e3e11693f65dedc2d1e6bec784eb2f10000000000000000000000004d4adec97e3e11693f65dedc2d1e6bec784eb2f10000000000000000000000000000000000000000000000000000000000000140000000000000000000000000000000000000000000000000000000000000016000000000000000000000000000000000000000000000000000000000000000000000000000000000000000000000000000000000000000000000000000000000",
        "nonce": "0x32",
        "chainId": "0x1bc"
      },
      "additionalContracts": [],
      "isFixedGasLimit": false
    }
  ],
  "receipts": [
    {
      "status": "0x1",
      "cumulativeGasUsed": "0x52451",
      "logs": [],
      "logsBloom": "0x00000000000000000000000000000000000000000000000000000000000000000000000000000000000000000000000000000000000000000000000000000000000000000000000000000000000000000000000000000000000000000000000000000000000000000000000000000000000000000000000000000000000000000000000000000000000000000000000000000000000000000000000000000000000000000000000000000000000000000000000000000000000000000000000000000000000000000000000000000000000000000000000000000000000000000000000000000000000000000000000000000000000000000000000000000000",
      "type": "0x0",
      "transactionHash": "0x7bc7cd8f60151c3203742a0ae4182f1c9849671ec2396b347a85d4e47766c013",
      "transactionIndex": "0x0",
      "blockHash": "0x19f2cd8b0fea42c0f23f29e9f7caacadb8ec9458f221f5b267b2aa3068998e1b",
      "blockNumber": "0xd",
      "gasUsed": "0x52451",
      "effectiveGasPrice": "0x3b9aca00",
      "blobGasPrice": "0x1",
      "from": "0xd289d1387ae1033a703842d69501d5bec5a6f04e",
      "to": null,
      "contractAddress": "0x0be19c78706c441de4178a2266a650e47160eda7"
    },
    {
      "status": "0x1",
      "cumulativeGasUsed": "0xc546",
      "logs": [
        {
          "address": "0x8828fd7431d5bb1962d7e067c103b2324fa6bbec",
          "topics": [
            "0x14c028d3d668eb3454bce44d123ceeeb9fb4e74bee073c41f4001e63f0613094",
            "0x0000000000000000000000000be19c78706c441de4178a2266a650e47160eda7",
            "0x0000000000000000000000000be19c78706c441de4178a2266a650e47160eda7"
          ],
          "data": "0x",
          "blockHash": "0xf2dc08a732fe7aaeb07364f39afdfb275e211d6c22655348caae446fcb599938",
          "blockNumber": "0xe",
          "blockTimestamp": "0x696675ab",
          "transactionHash": "0x7229f9dc24caa654c63e7128331481239f501956fab5ef0d85ea817518bd82b8",
          "transactionIndex": "0x0",
          "logIndex": "0x0",
          "removed": false
        },
        {
          "address": "0x8828fd7431d5bb1962d7e067c103b2324fa6bbec",
          "topics": [
            "0x78160f0b1b2b32b52a0076d8f0f70888687ba702a4d993d55ac8d9327d57a127",
            "0x0000000000000000000000000000000000000000000000000000000000000004",
            "0xf44aa7391b92f263754f302d23d3a37602e5f335e30573fe5241feb4420c7656",
            "0x990bb2cb8a3a17f5fe96e221503b5860cd8b817024422b3a037f964c99420806"
          ],
          "data": "0x14c028d3d668eb3454bce44d123ceeeb9fb4e74bee073c41f4001e63f0613094000000000000000000000000000000000000000000000000000000000000004000000000000000000000000000000000000000000000000000000000000000400000000000000000000000000be19c78706c441de4178a2266a650e47160eda70000000000000000000000000be19c78706c441de4178a2266a650e47160eda7",
          "blockHash": "0xf2dc08a732fe7aaeb07364f39afdfb275e211d6c22655348caae446fcb599938",
          "blockNumber": "0xe",
          "blockTimestamp": "0x696675ab",
          "transactionHash": "0x7229f9dc24caa654c63e7128331481239f501956fab5ef0d85ea817518bd82b8",
          "transactionIndex": "0x0",
          "logIndex": "0x1",
          "removed": false
        }
      ],
      "logsBloom": "0x00000000000000000000000000000000000000000000000000020000000000000000000000000000000000000000000000000000000000000000000000200000000080800200000000000000000000000200000000000000000000000000000008000020000880000000000400000008000000000200000000000000000000000000000000000000000000000000000000000000000000000000000000000000000000000000000000000000000000000000100000000000002000000000000000000000000000040000000000000010000000008000000000000000000004000400000000000000000000000000000000000000000000000000000000004000",
      "type": "0x0",
      "transactionHash": "0x7229f9dc24caa654c63e7128331481239f501956fab5ef0d85ea817518bd82b8",
      "transactionIndex": "0x0",
      "blockHash": "0xf2dc08a732fe7aaeb07364f39afdfb275e211d6c22655348caae446fcb599938",
      "blockNumber": "0xe",
      "gasUsed": "0xc546",
      "effectiveGasPrice": "0x3b9aca00",
      "blobGasPrice": "0x1",
      "from": "0xd289d1387ae1033a703842d69501d5bec5a6f04e",
      "to": "0x8828fd7431d5bb1962d7e067c103b2324fa6bbec",
      "contractAddress": null
    },
    {
      "status": "0x1",
      "cumulativeGasUsed": "0x1f4cb",
      "logs": [],
      "logsBloom": "0x00000000000000000000000000000000000000000000000000000000000000000000000000000000000000000000000000000000000000000000000000000000000000000000000000000000000000000000000000000000000000000000000000000000000000000000000000000000000000000000000000000000000000000000000000000000000000000000000000000000000000000000000000000000000000000000000000000000000000000000000000000000000000000000000000000000000000000000000000000000000000000000000000000000000000000000000000000000000000000000000000000000000000000000000000000000",
      "type": "0x0",
      "transactionHash": "0x9b963a4bc6ecf2346e7adf12b492217d66c5a337c414d6f99e799b36873251a0",
      "transactionIndex": "0x0",
      "blockHash": "0xcb121bd5871ddab2dc1050ac082a8a9673c65059c95ed6cf414a16d2b333ca61",
      "blockNumber": "0xf",
      "gasUsed": "0x1f4cb",
      "effectiveGasPrice": "0x3b9aca00",
      "blobGasPrice": "0x1",
      "from": "0xd289d1387ae1033a703842d69501d5bec5a6f04e",
      "to": null,
      "contractAddress": "0x481e836be187303c64f269bc7fe2c52f7f7c6eef"
    },
    {
      "status": "0x1",
      "cumulativeGasUsed": "0xaa2b",
      "logs": [],
      "logsBloom": "0x00000000000000000000000000000000000000000000000000000000000000000000000000000000000000000000000000000000000000000000000000000000000000000000000000000000000000000000000000000000000000000000000000000000000000000000000000000000000000000000000000000000000000000000000000000000000000000000000000000000000000000000000000000000000000000000000000000000000000000000000000000000000000000000000000000000000000000000000000000000000000000000000000000000000000000000000000000000000000000000000000000000000000000000000000000000",
      "type": "0x0",
      "transactionHash": "0x78ead996c6665faaad59b3859eeea0c11bb264da3b06a1f216e1c860aa3b51d1",
      "transactionIndex": "0x0",
      "blockHash": "0xd9ac7f1324bde29e52fc31543f60474c45ac94be74c3bafd5fa9d492fb35965d",
      "blockNumber": "0x10",
      "gasUsed": "0xaa2b",
      "effectiveGasPrice": "0x3b9aca00",
      "blobGasPrice": "0x1",
      "from": "0xd289d1387ae1033a703842d69501d5bec5a6f04e",
      "to": "0x481e836be187303c64f269bc7fe2c52f7f7c6eef",
      "contractAddress": null
    },
    {
      "status": "0x1",
      "cumulativeGasUsed": "0xb23d",
      "logs": [
        {
          "address": "0x8828fd7431d5bb1962d7e067c103b2324fa6bbec",
          "topics": [
            "0x2e3d7d02ba3c4bd8b1f8995cd3a23ef0193922ebc4ee23249ead4d0ca2e34c68",
            "0x0000000000000000000000004d4adec97e3e11693f65dedc2d1e6bec784eb2f1",
            "0x000000000000000000000000481e836be187303c64f269bc7fe2c52f7f7c6eef"
          ],
          "data": "0x",
          "blockHash": "0x91ae96513492cc9a0c6f12d5a5bcecf46173b934132cfb4163981f3103f1d572",
          "blockNumber": "0x11",
          "blockTimestamp": "0x696675ae",
          "transactionHash": "0x4b635eba678338a1f568eedc66fc507bbbfd26ce178bef78a4aa6e8c17afc29d",
          "transactionIndex": "0x0",
          "logIndex": "0x0",
          "removed": false
        },
        {
          "address": "0x8828fd7431d5bb1962d7e067c103b2324fa6bbec",
          "topics": [
            "0x78160f0b1b2b32b52a0076d8f0f70888687ba702a4d993d55ac8d9327d57a127",
            "0x0000000000000000000000000000000000000000000000000000000000000005",
            "0x990bb2cb8a3a17f5fe96e221503b5860cd8b817024422b3a037f964c99420806",
            "0xa9d233236720f1bf5a80f2c387b9cf582b0ef0ea91885ff37a04529ff8e27fa3"
          ],
          "data": "0x2e3d7d02ba3c4bd8b1f8995cd3a23ef0193922ebc4ee23249ead4d0ca2e34c68000000000000000000000000000000000000000000000000000000000000004000000000000000000000000000000000000000000000000000000000000000400000000000000000000000004d4adec97e3e11693f65dedc2d1e6bec784eb2f1000000000000000000000000481e836be187303c64f269bc7fe2c52f7f7c6eef",
          "blockHash": "0x91ae96513492cc9a0c6f12d5a5bcecf46173b934132cfb4163981f3103f1d572",
          "blockNumber": "0x11",
          "blockTimestamp": "0x696675ae",
          "transactionHash": "0x4b635eba678338a1f568eedc66fc507bbbfd26ce178bef78a4aa6e8c17afc29d",
          "transactionIndex": "0x0",
          "logIndex": "0x1",
          "removed": false
        }
      ],
      "logsBloom": "0x00000000000000000000000000200000000000000000000000020000000000000000000000000000000000000000000000000000000000000400000000200000000010000200000000000000000000000008000020000000000000000000000000000020000880000000000000000008000000000000000082000000800000000000000000000080000000000000001000000800000000000000000000000000000000000000000000000000000000000000100000000000000000000000000000000000000008000000000000000000000000000000000000000000000001000000000000000000000000000080000000000000000400000000000000004000",
      "type": "0x0",
      "transactionHash": "0x4b635eba678338a1f568eedc66fc507bbbfd26ce178bef78a4aa6e8c17afc29d",
      "transactionIndex": "0x0",
      "blockHash": "0x91ae96513492cc9a0c6f12d5a5bcecf46173b934132cfb4163981f3103f1d572",
      "blockNumber": "0x11",
      "gasUsed": "0xb23d",
      "effectiveGasPrice": "0x3b9aca00",
      "blobGasPrice": "0x1",
      "from": "0xd289d1387ae1033a703842d69501d5bec5a6f04e",
      "to": "0x8828fd7431d5bb1962d7e067c103b2324fa6bbec",
      "contractAddress": null
    },
    {
      "status": "0x1",
      "cumulativeGasUsed": "0x147a0",
      "logs": [
        {
          "address": "0x048255dfef2ebfa7307058ae475a3e2f5ee0df46",
          "topics": [
            "0x9d4c3779a823aa84b20dd2e8551e6ed95addbc562f3bc49b1e688ab785b05d9d"
          ],
          "data": "0x0000000000000000000000000000000000000000000000000000000000002710000000000000000000000000000000000000000000000000000000000000007b",
          "blockHash": "0x638ddfb16fb82210c4efa06e0bbeee3a1ce1ff261ee595140addabd87fd72399",
          "blockNumber": "0x12",
          "blockTimestamp": "0x696675af",
          "transactionHash": "0x753de042ae1f2a5129fe9044782f80d45c55603f6995fadad7b8b51e3a3d4044",
          "transactionIndex": "0x0",
          "logIndex": "0x0",
          "removed": false
        },
        {
          "address": "0x048255dfef2ebfa7307058ae475a3e2f5ee0df46",
          "topics": [
            "0x78160f0b1b2b32b52a0076d8f0f70888687ba702a4d993d55ac8d9327d57a127",
            "0x0000000000000000000000000000000000000000000000000000000000000003",
            "0xd5f74e76bc10810da1c1a307eb6a36f6d085dc05f0bd56cd589b9203bcba9cb6",
            "0x87052e0d018f9a102c7197e1a281473f4776302150ed5e11d427630d32d493ce"
          ],
          "data": "0x9d4c3779a823aa84b20dd2e8551e6ed95addbc562f3bc49b1e688ab785b05d9d000000000000000000000000000000000000000000000000000000000000004000000000000000000000000000000000000000000000000000000000000000400000000000000000000000000000000000000000000000000000000000002710000000000000000000000000000000000000000000000000000000000000007b",
          "blockHash": "0x638ddfb16fb82210c4efa06e0bbeee3a1ce1ff261ee595140addabd87fd72399",
          "blockNumber": "0x12",
          "blockTimestamp": "0x696675af",
          "transactionHash": "0x753de042ae1f2a5129fe9044782f80d45c55603f6995fadad7b8b51e3a3d4044",
          "transactionIndex": "0x0",
          "logIndex": "0x1",
          "removed": false
        }
      ],
      "logsBloom": "0x00002000000000800000000000000000000000000000000000000000000800000000000000000000000000000000000000000002020000000000000000200000000000000000000000000000000000000000000000010000000000000000000000000020000800004000000000000000000000000000000000000000000000000000000000000000000000000000000000000000000000000000000000000000000000000000000000000000000080000000000200800000000000000000400000000000000000000800000000000000000000001200000000000000000000000000000000000000000000000000000000000000000000000000000000004000",
      "type": "0x0",
      "transactionHash": "0x753de042ae1f2a5129fe9044782f80d45c55603f6995fadad7b8b51e3a3d4044",
      "transactionIndex": "0x0",
      "blockHash": "0x638ddfb16fb82210c4efa06e0bbeee3a1ce1ff261ee595140addabd87fd72399",
      "blockNumber": "0x12",
      "gasUsed": "0x147a0",
      "effectiveGasPrice": "0x3b9aca00",
      "blobGasPrice": "0x1",
      "from": "0xd289d1387ae1033a703842d69501d5bec5a6f04e",
      "to": "0x048255dfef2ebfa7307058ae475a3e2f5ee0df46",
      "contractAddress": null
    },
    {
      "status": "0x1",
      "cumulativeGasUsed": "0x1f4cb",
      "logs": [],
      "logsBloom": "0x00000000000000000000000000000000000000000000000000000000000000000000000000000000000000000000000000000000000000000000000000000000000000000000000000000000000000000000000000000000000000000000000000000000000000000000000000000000000000000000000000000000000000000000000000000000000000000000000000000000000000000000000000000000000000000000000000000000000000000000000000000000000000000000000000000000000000000000000000000000000000000000000000000000000000000000000000000000000000000000000000000000000000000000000000000000",
      "type": "0x0",
      "transactionHash": "0x8707a197319b71fc0982327eeae8cc21df02d42fe186154c00944ef03f33cf10",
      "transactionIndex": "0x0",
      "blockHash": "0xdf99b4feb5c2ae825cc78f91d4db57cdf3c5cb70f2949741fbe76b8263800d84",
      "blockNumber": "0x13",
      "gasUsed": "0x1f4cb",
      "effectiveGasPrice": "0x3b9aca00",
      "blobGasPrice": "0x1",
      "from": "0xd289d1387ae1033a703842d69501d5bec5a6f04e",
      "to": null,
      "contractAddress": "0x6b0f32ae157cf4f7d9b402c4e243e9088207dd87"
    },
    {
      "status": "0x1",
      "cumulativeGasUsed": "0xaa2b",
      "logs": [],
      "logsBloom": "0x00000000000000000000000000000000000000000000000000000000000000000000000000000000000000000000000000000000000000000000000000000000000000000000000000000000000000000000000000000000000000000000000000000000000000000000000000000000000000000000000000000000000000000000000000000000000000000000000000000000000000000000000000000000000000000000000000000000000000000000000000000000000000000000000000000000000000000000000000000000000000000000000000000000000000000000000000000000000000000000000000000000000000000000000000000000",
      "type": "0x0",
      "transactionHash": "0xaf999a2900874b24a9435a05f50dc149b0efcdfb2d3e9df20e6e9ec12bada379",
      "transactionIndex": "0x0",
      "blockHash": "0xb455a031c0c6b7a6950c679918f197559852263a892e41d02a2f7a90b6e62785",
      "blockNumber": "0x14",
      "gasUsed": "0xaa2b",
      "effectiveGasPrice": "0x3b9aca00",
      "blobGasPrice": "0x1",
      "from": "0xd289d1387ae1033a703842d69501d5bec5a6f04e",
      "to": "0x6b0f32ae157cf4f7d9b402c4e243e9088207dd87",
      "contractAddress": null
    },
    {
      "status": "0x1",
      "cumulativeGasUsed": "0xb23d",
      "logs": [
        {
          "address": "0x8828fd7431d5bb1962d7e067c103b2324fa6bbec",
          "topics": [
            "0x2e3d7d02ba3c4bd8b1f8995cd3a23ef0193922ebc4ee23249ead4d0ca2e34c68",
            "0x0000000000000000000000004d4adec97e3e11693f65dedc2d1e6bec784eb2f1",
            "0x0000000000000000000000006b0f32ae157cf4f7d9b402c4e243e9088207dd87"
          ],
          "data": "0x",
          "blockHash": "0x2056ccb9b5165ff888ab600cb8e8fc6d9adad3c7471e6dff7b42eab42e74b311",
          "blockNumber": "0x15",
          "blockTimestamp": "0x696675b2",
          "transactionHash": "0xafdca55f2e0800f57137546d4a95c28041789555878d8571f7b124d106d50f4d",
          "transactionIndex": "0x0",
          "logIndex": "0x0",
          "removed": false
        },
        {
          "address": "0x8828fd7431d5bb1962d7e067c103b2324fa6bbec",
          "topics": [
            "0x78160f0b1b2b32b52a0076d8f0f70888687ba702a4d993d55ac8d9327d57a127",
            "0x0000000000000000000000000000000000000000000000000000000000000006",
            "0xa9d233236720f1bf5a80f2c387b9cf582b0ef0ea91885ff37a04529ff8e27fa3",
            "0x5a39ce3b5338748d6e9d43febb234355e3c542085e2451914b6d95d8dcda8d41"
          ],
          "data": "0x2e3d7d02ba3c4bd8b1f8995cd3a23ef0193922ebc4ee23249ead4d0ca2e34c68000000000000000000000000000000000000000000000000000000000000004000000000000000000000000000000000000000000000000000000000000000400000000000000000000000004d4adec97e3e11693f65dedc2d1e6bec784eb2f10000000000000000000000006b0f32ae157cf4f7d9b402c4e243e9088207dd87",
          "blockHash": "0x2056ccb9b5165ff888ab600cb8e8fc6d9adad3c7471e6dff7b42eab42e74b311",
          "blockNumber": "0x15",
          "blockTimestamp": "0x696675b2",
          "transactionHash": "0xafdca55f2e0800f57137546d4a95c28041789555878d8571f7b124d106d50f4d",
          "transactionIndex": "0x0",
          "logIndex": "0x1",
          "removed": false
        }
      ],
      "logsBloom": "0x00000000000000000000000000200000000000000000000000000000000000000000000000000000400000000000000000000001000400000000000000200000000000000200000000000000000004000000000000000000000000000000000000000020000800000000000000000008000000000000000082000000800000000000000400000080000000000000000000000000000000000000000000000000000001000000000000000000000000000000000000000000000000080080000000000000000008000000000000000000000000000000000000000000000001000000000000000000000000000080000000000000000400000000020000004000",
      "type": "0x0",
      "transactionHash": "0xafdca55f2e0800f57137546d4a95c28041789555878d8571f7b124d106d50f4d",
      "transactionIndex": "0x0",
      "blockHash": "0x2056ccb9b5165ff888ab600cb8e8fc6d9adad3c7471e6dff7b42eab42e74b311",
      "blockNumber": "0x15",
      "gasUsed": "0xb23d",
      "effectiveGasPrice": "0x3b9aca00",
      "blobGasPrice": "0x1",
      "from": "0xd289d1387ae1033a703842d69501d5bec5a6f04e",
      "to": "0x8828fd7431d5bb1962d7e067c103b2324fa6bbec",
      "contractAddress": null
    },
    {
      "status": "0x1",
      "cumulativeGasUsed": "0x50fb6",
      "logs": [],
      "logsBloom": "0x00000000000000000000000000000000000000000000000000000000000000000000000000000000000000000000000000000000000000000000000000000000000000000000000000000000000000000000000000000000000000000000000000000000000000000000000000000000000000000000000000000000000000000000000000000000000000000000000000000000000000000000000000000000000000000000000000000000000000000000000000000000000000000000000000000000000000000000000000000000000000000000000000000000000000000000000000000000000000000000000000000000000000000000000000000000",
      "type": "0x0",
      "transactionHash": "0x98fc17cdb726df30d803f2bd22fd3857476915d4e5b0d42b8033d4812cb70688",
      "transactionIndex": "0x0",
      "blockHash": "0xfdc4a67fb6842a6f0cebd092ddbdeb9ebbd272aeb2233102699b75711ad127dd",
      "blockNumber": "0x16",
      "gasUsed": "0x50fb6",
      "effectiveGasPrice": "0x3b9aca00",
      "blobGasPrice": "0x1",
      "from": "0xd289d1387ae1033a703842d69501d5bec5a6f04e",
      "to": null,
      "contractAddress": "0xc5ea444a0f556f5b227ec7447294d91086bb692c"
    },
    {
      "status": "0x1",
      "cumulativeGasUsed": "0xc546",
      "logs": [
        {
          "address": "0x8828fd7431d5bb1962d7e067c103b2324fa6bbec",
          "topics": [
            "0x14c028d3d668eb3454bce44d123ceeeb9fb4e74bee073c41f4001e63f0613094",
            "0x000000000000000000000000c5ea444a0f556f5b227ec7447294d91086bb692c",
            "0x000000000000000000000000c5ea444a0f556f5b227ec7447294d91086bb692c"
          ],
          "data": "0x",
          "blockHash": "0xd725f3d47bc3497a20904fdce14c0734d8045b8fb58a0a9e40a882491f5cdbff",
          "blockNumber": "0x17",
          "blockTimestamp": "0x696675b4",
          "transactionHash": "0xe67de811d159470a785d44c395fd4d06b45bb1186bbab9ba48c52f6051805029",
          "transactionIndex": "0x0",
          "logIndex": "0x0",
          "removed": false
        },
        {
          "address": "0x8828fd7431d5bb1962d7e067c103b2324fa6bbec",
          "topics": [
            "0x78160f0b1b2b32b52a0076d8f0f70888687ba702a4d993d55ac8d9327d57a127",
            "0x0000000000000000000000000000000000000000000000000000000000000007",
            "0x5a39ce3b5338748d6e9d43febb234355e3c542085e2451914b6d95d8dcda8d41",
            "0xba8874590bb5ca8e6b697e03a0723113310c4c8bfcefeba36e6d903682b23796"
          ],
          "data": "0x14c028d3d668eb3454bce44d123ceeeb9fb4e74bee073c41f4001e63f061309400000000000000000000000000000000000000000000000000000000000000400000000000000000000000000000000000000000000000000000000000000040000000000000000000000000c5ea444a0f556f5b227ec7447294d91086bb692c000000000000000000000000c5ea444a0f556f5b227ec7447294d91086bb692c",
          "blockHash": "0xd725f3d47bc3497a20904fdce14c0734d8045b8fb58a0a9e40a882491f5cdbff",
          "blockNumber": "0x17",
          "blockTimestamp": "0x696675b4",
          "transactionHash": "0xe67de811d159470a785d44c395fd4d06b45bb1186bbab9ba48c52f6051805029",
          "transactionIndex": "0x0",
          "logIndex": "0x1",
          "removed": false
        }
      ],
      "logsBloom": "0x00000000000000000000000000000000000000000000000000000000000000000000000008000000400000000000000000001001000000000000000000200000000020001200000001080000000000000000000000000000000000100000000000000020000800000000000000000008000000000000000000000000000000000000000000000000000000000000000000000000000000000000000000000000000000000000000000000000000000000000000000000000000000000000000000000000000000040000000000000010000000000000000000000100000000000400000000000000000000000000000000000000000000000000020400004000",
      "type": "0x0",
      "transactionHash": "0xe67de811d159470a785d44c395fd4d06b45bb1186bbab9ba48c52f6051805029",
      "transactionIndex": "0x0",
      "blockHash": "0xd725f3d47bc3497a20904fdce14c0734d8045b8fb58a0a9e40a882491f5cdbff",
      "blockNumber": "0x17",
      "gasUsed": "0xc546",
      "effectiveGasPrice": "0x3b9aca00",
      "blobGasPrice": "0x1",
      "from": "0xd289d1387ae1033a703842d69501d5bec5a6f04e",
      "to": "0x8828fd7431d5bb1962d7e067c103b2324fa6bbec",
      "contractAddress": null
    },
    {
      "status": "0x1",
      "cumulativeGasUsed": "0xac60",
      "logs": [],
      "logsBloom": "0x00000000000000000000000000000000000000000000000000000000000000000000000000000000000000000000000000000000000000000000000000000000000000000000000000000000000000000000000000000000000000000000000000000000000000000000000000000000000000000000000000000000000000000000000000000000000000000000000000000000000000000000000000000000000000000000000000000000000000000000000000000000000000000000000000000000000000000000000000000000000000000000000000000000000000000000000000000000000000000000000000000000000000000000000000000000",
      "type": "0x0",
      "transactionHash": "0x76e07334de2febfe9242ceb3d13bf8b2cac85c95d49434c7e13491a8a0192028",
      "transactionIndex": "0x0",
      "blockHash": "0x6d82f8468aef78461df2ac4871d11bea72affdbc6f1f688bd078422e30dde6e7",
      "blockNumber": "0x18",
      "gasUsed": "0xac60",
      "effectiveGasPrice": "0x3b9aca00",
      "blobGasPrice": "0x1",
      "from": "0xd289d1387ae1033a703842d69501d5bec5a6f04e",
      "to": "0x4d4adec97e3e11693f65dedc2d1e6bec784eb2f1",
      "contractAddress": null
    },
    {
      "status": "0x1",
      "cumulativeGasUsed": "0x30390",
      "logs": [
        {
          "address": "0x8828fd7431d5bb1962d7e067c103b2324fa6bbec",
          "topics": [
            "0x7391f14355eff1e559e381f5bf49886a77da7c4fdd33c6fc2e0142269c561c59",
            "0x8ece8d3805aa939f567ab7a2cf061970419abc67280669c83dd379f20bafd1d8",
            "0xd641bc2fe120a8d11cfc804503957d616122e9635d4c05d8cc594d82bb849cf9",
            "0x0000000000000000000000000000000000000000000000000000000000000001"
          ],
          "data": "0x000000000000000000000000000000000000000000000000000000000000000000000000000000000000000000000000000000000000000000000000000001bc000000000000000000000000d59d27b9172ad056cb5c008dc2bbefe702123a55000000000000000000000000000000000000000000000000000000000000000000000000000000000000000000000000000000000000000000000000000000000000000000000000000000004d4adec97e3e11693f65dedc2d1e6bec784eb2f10000000000000000000000004d4adec97e3e11693f65dedc2d1e6bec784eb2f10000000000000000000000006607fda2d454a9b800d0b18e0ddb7497da2a79d0000000000000000000000000025cee1ae5dbeafc5b52ba0cddf8d0ec15e565b3",
          "blockHash": "0xa008d5be3bcf9e825a163e8c6de98b9a5b2f46fb89754884761ccc28f2a270ee",
          "blockNumber": "0x19",
          "blockTimestamp": "0x696675b6",
          "transactionHash": "0xd3e0fc662955b74efebc8da7e0de020d9c814c8acdd79f63162cfd2ee94227ca",
          "transactionIndex": "0x0",
          "logIndex": "0x0",
          "removed": false
        },
        {
          "address": "0x8828fd7431d5bb1962d7e067c103b2324fa6bbec",
          "topics": [
            "0x78160f0b1b2b32b52a0076d8f0f70888687ba702a4d993d55ac8d9327d57a127",
            "0x0000000000000000000000000000000000000000000000000000000000000008",
            "0xba8874590bb5ca8e6b697e03a0723113310c4c8bfcefeba36e6d903682b23796",
            "0x6fb493cf664e2b9d737a84f80c807fd014a5b6a7551aaf3bdaaf9f95095ddcd4"
          ],
          "data": "0x7391f14355eff1e559e381f5bf49886a77da7c4fdd33c6fc2e0142269c561c59000000000000000000000000000000000000000000000000000000000000004000000000000000000000000000000000000000000000000000000000000001808ece8d3805aa939f567ab7a2cf061970419abc67280669c83dd379f20bafd1d8d641bc2fe120a8d11cfc804503957d616122e9635d4c05d8cc594d82bb849cf90000000000000000000000000000000000000000000000000000000000000001000000000000000000000000000000000000000000000000000000000000000000000000000000000000000000000000000000000000000000000000000001bc000000000000000000000000d59d27b9172ad056cb5c008dc2bbefe702123a55000000000000000000000000000000000000000000000000000000000000000000000000000000000000000000000000000000000000000000000000000000000000000000000000000000004d4adec97e3e11693f65dedc2d1e6bec784eb2f10000000000000000000000004d4adec97e3e11693f65dedc2d1e6bec784eb2f10000000000000000000000006607fda2d454a9b800d0b18e0ddb7497da2a79d0000000000000000000000000025cee1ae5dbeafc5b52ba0cddf8d0ec15e565b3",
          "blockHash": "0xa008d5be3bcf9e825a163e8c6de98b9a5b2f46fb89754884761ccc28f2a270ee",
          "blockNumber": "0x19",
          "blockTimestamp": "0x696675b6",
          "transactionHash": "0xd3e0fc662955b74efebc8da7e0de020d9c814c8acdd79f63162cfd2ee94227ca",
          "transactionIndex": "0x0",
          "logIndex": "0x1",
          "removed": false
        },
        {
          "address": "0x8828fd7431d5bb1962d7e067c103b2324fa6bbec",
          "topics": [
            "0x488f06a9ca9e19e1dd90c764cc79b765e8a3a089ef27d9a0e39dee21c7643188",
            "0x8a40b333cda03fbb9ca371e979b5f64f3d60f54a61d5ca72a61d82c4e98eeb64",
            "0x000000000000000000000000025cee1ae5dbeafc5b52ba0cddf8d0ec15e565b3"
          ],
          "data": "0x000000000000000000000000e007a594267d5b9a4f5bf6fd054579eb82f5a057",
          "blockHash": "0xa008d5be3bcf9e825a163e8c6de98b9a5b2f46fb89754884761ccc28f2a270ee",
          "blockNumber": "0x19",
          "blockTimestamp": "0x696675b6",
          "transactionHash": "0xd3e0fc662955b74efebc8da7e0de020d9c814c8acdd79f63162cfd2ee94227ca",
          "transactionIndex": "0x0",
          "logIndex": "0x2",
          "removed": false
        },
        {
          "address": "0x8828fd7431d5bb1962d7e067c103b2324fa6bbec",
          "topics": [
            "0x78160f0b1b2b32b52a0076d8f0f70888687ba702a4d993d55ac8d9327d57a127",
            "0x0000000000000000000000000000000000000000000000000000000000000009",
            "0x6fb493cf664e2b9d737a84f80c807fd014a5b6a7551aaf3bdaaf9f95095ddcd4",
            "0x0dd779088c0b6d15c0bcd175907e2c6f478723651c164f2944179b7e6436dbb9"
          ],
          "data": "0x488f06a9ca9e19e1dd90c764cc79b765e8a3a089ef27d9a0e39dee21c7643188000000000000000000000000000000000000000000000000000000000000004000000000000000000000000000000000000000000000000000000000000000608a40b333cda03fbb9ca371e979b5f64f3d60f54a61d5ca72a61d82c4e98eeb64000000000000000000000000025cee1ae5dbeafc5b52ba0cddf8d0ec15e565b3000000000000000000000000e007a594267d5b9a4f5bf6fd054579eb82f5a057",
          "blockHash": "0xa008d5be3bcf9e825a163e8c6de98b9a5b2f46fb89754884761ccc28f2a270ee",
          "blockNumber": "0x19",
          "blockTimestamp": "0x696675b6",
          "transactionHash": "0xd3e0fc662955b74efebc8da7e0de020d9c814c8acdd79f63162cfd2ee94227ca",
          "transactionIndex": "0x0",
          "logIndex": "0x3",
          "removed": false
        },
        {
          "address": "0x8828fd7431d5bb1962d7e067c103b2324fa6bbec",
          "topics": [
            "0x488f06a9ca9e19e1dd90c764cc79b765e8a3a089ef27d9a0e39dee21c7643188",
            "0xd641bc2fe120a8d11cfc804503957d616122e9635d4c05d8cc594d82bb849cf9",
            "0x0000000000000000000000006607fda2d454a9b800d0b18e0ddb7497da2a79d0"
          ],
          "data": "0x000000000000000000000000e007a594267d5b9a4f5bf6fd054579eb82f5a057",
          "blockHash": "0xa008d5be3bcf9e825a163e8c6de98b9a5b2f46fb89754884761ccc28f2a270ee",
          "blockNumber": "0x19",
          "blockTimestamp": "0x696675b6",
          "transactionHash": "0xd3e0fc662955b74efebc8da7e0de020d9c814c8acdd79f63162cfd2ee94227ca",
          "transactionIndex": "0x0",
          "logIndex": "0x4",
          "removed": false
        },
        {
          "address": "0x8828fd7431d5bb1962d7e067c103b2324fa6bbec",
          "topics": [
            "0x78160f0b1b2b32b52a0076d8f0f70888687ba702a4d993d55ac8d9327d57a127",
            "0x000000000000000000000000000000000000000000000000000000000000000a",
            "0x0dd779088c0b6d15c0bcd175907e2c6f478723651c164f2944179b7e6436dbb9",
            "0x6a823dc01ae44e689a10fe9268c278deff220db20108eb718b13c9f160608b59"
          ],
          "data": "0x488f06a9ca9e19e1dd90c764cc79b765e8a3a089ef27d9a0e39dee21c764318800000000000000000000000000000000000000000000000000000000000000400000000000000000000000000000000000000000000000000000000000000060d641bc2fe120a8d11cfc804503957d616122e9635d4c05d8cc594d82bb849cf90000000000000000000000006607fda2d454a9b800d0b18e0ddb7497da2a79d0000000000000000000000000e007a594267d5b9a4f5bf6fd054579eb82f5a057",
          "blockHash": "0xa008d5be3bcf9e825a163e8c6de98b9a5b2f46fb89754884761ccc28f2a270ee",
          "blockNumber": "0x19",
          "blockTimestamp": "0x696675b6",
          "transactionHash": "0xd3e0fc662955b74efebc8da7e0de020d9c814c8acdd79f63162cfd2ee94227ca",
          "transactionIndex": "0x0",
          "logIndex": "0x5",
          "removed": false
        },
        {
          "address": "0x8828fd7431d5bb1962d7e067c103b2324fa6bbec",
          "topics": [
            "0x2e659081f44c4f56a18b00f3f9d136d7ee8396bc79163c4d61363ddcf4a4cb27",
            "0x8ece8d3805aa939f567ab7a2cf061970419abc67280669c83dd379f20bafd1d8"
          ],
          "data": "0x0000000000000000000000000000000000000000000000000000000000000000000000000000000000000000000000000000000000000000000000000754d4c0000000000000000000000000000000000000000000000000000000000754d4c000000000000000000000000000000000000000000000000000000000000000000000000000000000000000000000000000000000000000000000000000000000000000000000000000000000000000000000000000000000000000000000000100000000000000000000000000000000000000000000000000000000000000000000000000000000000000000000000000000000000000000000000000000000c5d2460186f7233c927e7db2dcc703c0e500b653ca82273b7bfad8045d85a470",
          "blockHash": "0xa008d5be3bcf9e825a163e8c6de98b9a5b2f46fb89754884761ccc28f2a270ee",
          "blockNumber": "0x19",
          "blockTimestamp": "0x696675b6",
          "transactionHash": "0xd3e0fc662955b74efebc8da7e0de020d9c814c8acdd79f63162cfd2ee94227ca",
          "transactionIndex": "0x0",
          "logIndex": "0x6",
          "removed": false
        },
        {
          "address": "0x8828fd7431d5bb1962d7e067c103b2324fa6bbec",
          "topics": [
            "0x78160f0b1b2b32b52a0076d8f0f70888687ba702a4d993d55ac8d9327d57a127",
            "0x000000000000000000000000000000000000000000000000000000000000000b",
            "0x6a823dc01ae44e689a10fe9268c278deff220db20108eb718b13c9f160608b59",
            "0xc67aca91042e8a80ea64d7534cf305dbd4bb000b7a228628d72808cf08444752"
          ],
          "data": "0x2e659081f44c4f56a18b00f3f9d136d7ee8396bc79163c4d61363ddcf4a4cb27000000000000000000000000000000000000000000000000000000000000004000000000000000000000000000000000000000000000000000000000000001408ece8d3805aa939f567ab7a2cf061970419abc67280669c83dd379f20bafd1d80000000000000000000000000000000000000000000000000000000000000000000000000000000000000000000000000000000000000000000000000754d4c0000000000000000000000000000000000000000000000000000000000754d4c000000000000000000000000000000000000000000000000000000000000000000000000000000000000000000000000000000000000000000000000000000000000000000000000000000000000000000000000000000000000000000000000100000000000000000000000000000000000000000000000000000000000000000000000000000000000000000000000000000000000000000000000000000000c5d2460186f7233c927e7db2dcc703c0e500b653ca82273b7bfad8045d85a470",
          "blockHash": "0xa008d5be3bcf9e825a163e8c6de98b9a5b2f46fb89754884761ccc28f2a270ee",
          "blockNumber": "0x19",
          "blockTimestamp": "0x696675b6",
          "transactionHash": "0xd3e0fc662955b74efebc8da7e0de020d9c814c8acdd79f63162cfd2ee94227ca",
          "transactionIndex": "0x0",
          "logIndex": "0x7",
          "removed": false
        }
      ],
      "logsBloom": "0x00000001008000000000004000000000000000000800000000000000000000000000000008000000000000000000000000000000040080000020000000240000000000001200000000080000000002c000001000000400000800000000000000000000204008000000400000000000080000000000000000000000020000000100800000000000000100000020000000000010000000000000000008000000008000004000004000000000000000000000000000100000040001008000040080400000000000000000000000000000001020000000004004002004000000400002000000000000000c0000000000000100000000000000040000404800804000",
      "type": "0x0",
      "transactionHash": "0xd3e0fc662955b74efebc8da7e0de020d9c814c8acdd79f63162cfd2ee94227ca",
      "transactionIndex": "0x0",
      "blockHash": "0xa008d5be3bcf9e825a163e8c6de98b9a5b2f46fb89754884761ccc28f2a270ee",
      "blockNumber": "0x19",
      "gasUsed": "0x30390",
      "effectiveGasPrice": "0x3b9aca00",
      "blobGasPrice": "0x1",
      "from": "0xd289d1387ae1033a703842d69501d5bec5a6f04e",
      "to": "0x8828fd7431d5bb1962d7e067c103b2324fa6bbec",
      "contractAddress": null
    },
    {
      "status": "0x1",
      "cumulativeGasUsed": "0xac54",
      "logs": [],
      "logsBloom": "0x00000000000000000000000000000000000000000000000000000000000000000000000000000000000000000000000000000000000000000000000000000000000000000000000000000000000000000000000000000000000000000000000000000000000000000000000000000000000000000000000000000000000000000000000000000000000000000000000000000000000000000000000000000000000000000000000000000000000000000000000000000000000000000000000000000000000000000000000000000000000000000000000000000000000000000000000000000000000000000000000000000000000000000000000000000000",
      "type": "0x0",
      "transactionHash": "0x9e4873b7b3b08c07882efaf057a281026bfe098d607e1d494b05f3061c0193f1",
      "transactionIndex": "0x0",
      "blockHash": "0x87ac3536caa3c88baaf7c9cfa5d97b8444331e7c70588ec5ca6a715a5ab05886",
      "blockNumber": "0x1a",
      "gasUsed": "0xac54",
      "effectiveGasPrice": "0x3b9aca00",
      "blobGasPrice": "0x1",
      "from": "0xd289d1387ae1033a703842d69501d5bec5a6f04e",
      "to": "0x4d4adec97e3e11693f65dedc2d1e6bec784eb2f1",
      "contractAddress": null
    },
    {
      "status": "0x1",
      "cumulativeGasUsed": "0x3df0a",
      "logs": [
        {
          "address": "0x8828fd7431d5bb1962d7e067c103b2324fa6bbec",
          "topics": [
            "0x7391f14355eff1e559e381f5bf49886a77da7c4fdd33c6fc2e0142269c561c59",
            "0x66a743ad1362b3ab2aed0333e4ee51b4f4b51421bd50d6413a524eb58b88b113",
            "0xd641bc2fe120a8d11cfc804503957d616122e9635d4c05d8cc594d82bb849cf9",
            "0x0000000000000000000000000000000000000000000000000000000000000002"
          ],
          "data": "0x000000000000000000000000000000000000000000000000000000000000000000000000000000000000000000000000000000000000000000000000000001bc000000000000000000000000d59d27b9172ad056cb5c008dc2bbefe702123a55000000000000000000000000000000000000000000000000000000000000000000000000000000000000000000000000000000000000000000000000000000000000000000000000000000004d4adec97e3e11693f65dedc2d1e6bec784eb2f1000000000000000000000000f86c23c1e883ee3b820fb9be75ff91c9a49eae750000000000000000000000006607fda2d454a9b800d0b18e0ddb7497da2a79d0000000000000000000000000096207e4d3347cee4c85416b96c012821452b712",
          "blockHash": "0x27285ef7d6649343bb3ec827f0eb2cd35823881e2a2a33dd87f9fb195b24892f",
          "blockNumber": "0x1b",
          "blockTimestamp": "0x696675b8",
          "transactionHash": "0x8772375a183db88e302698098239d0ae5926afd00e7098aaae49accb27c504c1",
          "transactionIndex": "0x0",
          "logIndex": "0x0",
          "removed": false
        },
        {
          "address": "0x8828fd7431d5bb1962d7e067c103b2324fa6bbec",
          "topics": [
            "0x78160f0b1b2b32b52a0076d8f0f70888687ba702a4d993d55ac8d9327d57a127",
            "0x000000000000000000000000000000000000000000000000000000000000000c",
            "0xc67aca91042e8a80ea64d7534cf305dbd4bb000b7a228628d72808cf08444752",
            "0x8fd16ce002f4b659b09244d61948924f47fd0aa7aabac6fcc874ed3162981955"
          ],
          "data": "0x7391f14355eff1e559e381f5bf49886a77da7c4fdd33c6fc2e0142269c561c590000000000000000000000000000000000000000000000000000000000000040000000000000000000000000000000000000000000000000000000000000018066a743ad1362b3ab2aed0333e4ee51b4f4b51421bd50d6413a524eb58b88b113d641bc2fe120a8d11cfc804503957d616122e9635d4c05d8cc594d82bb849cf90000000000000000000000000000000000000000000000000000000000000002000000000000000000000000000000000000000000000000000000000000000000000000000000000000000000000000000000000000000000000000000001bc000000000000000000000000d59d27b9172ad056cb5c008dc2bbefe702123a55000000000000000000000000000000000000000000000000000000000000000000000000000000000000000000000000000000000000000000000000000000000000000000000000000000004d4adec97e3e11693f65dedc2d1e6bec784eb2f1000000000000000000000000f86c23c1e883ee3b820fb9be75ff91c9a49eae750000000000000000000000006607fda2d454a9b800d0b18e0ddb7497da2a79d0000000000000000000000000096207e4d3347cee4c85416b96c012821452b712",
          "blockHash": "0x27285ef7d6649343bb3ec827f0eb2cd35823881e2a2a33dd87f9fb195b24892f",
          "blockNumber": "0x1b",
          "blockTimestamp": "0x696675b8",
          "transactionHash": "0x8772375a183db88e302698098239d0ae5926afd00e7098aaae49accb27c504c1",
          "transactionIndex": "0x0",
          "logIndex": "0x1",
          "removed": false
        },
        {
          "address": "0x8828fd7431d5bb1962d7e067c103b2324fa6bbec",
          "topics": [
            "0x488f06a9ca9e19e1dd90c764cc79b765e8a3a089ef27d9a0e39dee21c7643188",
            "0xe361584a8f096017b2172091d31b75fb8d22e735e55f2542da625482f40b53a0",
            "0x000000000000000000000000096207e4d3347cee4c85416b96c012821452b712"
          ],
          "data": "0x000000000000000000000000e007a594267d5b9a4f5bf6fd054579eb82f5a057",
          "blockHash": "0x27285ef7d6649343bb3ec827f0eb2cd35823881e2a2a33dd87f9fb195b24892f",
          "blockNumber": "0x1b",
          "blockTimestamp": "0x696675b8",
          "transactionHash": "0x8772375a183db88e302698098239d0ae5926afd00e7098aaae49accb27c504c1",
          "transactionIndex": "0x0",
          "logIndex": "0x2",
          "removed": false
        },
        {
          "address": "0x8828fd7431d5bb1962d7e067c103b2324fa6bbec",
          "topics": [
            "0x78160f0b1b2b32b52a0076d8f0f70888687ba702a4d993d55ac8d9327d57a127",
            "0x000000000000000000000000000000000000000000000000000000000000000d",
            "0x8fd16ce002f4b659b09244d61948924f47fd0aa7aabac6fcc874ed3162981955",
            "0x2448bd593d94b1a069108afa1c6e4a604e6022f404cad6e60eaa35c427c4cd85"
          ],
          "data": "0x488f06a9ca9e19e1dd90c764cc79b765e8a3a089ef27d9a0e39dee21c764318800000000000000000000000000000000000000000000000000000000000000400000000000000000000000000000000000000000000000000000000000000060e361584a8f096017b2172091d31b75fb8d22e735e55f2542da625482f40b53a0000000000000000000000000096207e4d3347cee4c85416b96c012821452b712000000000000000000000000e007a594267d5b9a4f5bf6fd054579eb82f5a057",
          "blockHash": "0x27285ef7d6649343bb3ec827f0eb2cd35823881e2a2a33dd87f9fb195b24892f",
          "blockNumber": "0x1b",
          "blockTimestamp": "0x696675b8",
          "transactionHash": "0x8772375a183db88e302698098239d0ae5926afd00e7098aaae49accb27c504c1",
          "transactionIndex": "0x0",
          "logIndex": "0x3",
          "removed": false
        },
        {
          "address": "0x8828fd7431d5bb1962d7e067c103b2324fa6bbec",
          "topics": [
            "0x2f4c76c8d18f45069b0941499205a7fceaaa3caf9e2e6328f6a544cd339120f3",
            "0x66a743ad1362b3ab2aed0333e4ee51b4f4b51421bd50d6413a524eb58b88b113",
            "0x0000000000000000000000004d4adec97e3e11693f65dedc2d1e6bec784eb2f1",
            "0x000000000000000000000000f86c23c1e883ee3b820fb9be75ff91c9a49eae75"
          ],
          "data": "0x00000000000000000000000000000000000000000000000000000000055d4a800000000000000000000000000000000000000000000000000000000005f5e100",
          "blockHash": "0x27285ef7d6649343bb3ec827f0eb2cd35823881e2a2a33dd87f9fb195b24892f",
          "blockNumber": "0x1b",
          "blockTimestamp": "0x696675b8",
          "transactionHash": "0x8772375a183db88e302698098239d0ae5926afd00e7098aaae49accb27c504c1",
          "transactionIndex": "0x0",
          "logIndex": "0x4",
          "removed": false
        },
        {
          "address": "0x8828fd7431d5bb1962d7e067c103b2324fa6bbec",
          "topics": [
            "0x78160f0b1b2b32b52a0076d8f0f70888687ba702a4d993d55ac8d9327d57a127",
            "0x000000000000000000000000000000000000000000000000000000000000000e",
            "0x2448bd593d94b1a069108afa1c6e4a604e6022f404cad6e60eaa35c427c4cd85",
            "0x127ce0391514f1158fd6c42ae7e4663ae2164b4a4dda58e4aaf794521cfc1428"
          ],
          "data": "0x2f4c76c8d18f45069b0941499205a7fceaaa3caf9e2e6328f6a544cd339120f3000000000000000000000000000000000000000000000000000000000000004000000000000000000000000000000000000000000000000000000000000000a066a743ad1362b3ab2aed0333e4ee51b4f4b51421bd50d6413a524eb58b88b1130000000000000000000000004d4adec97e3e11693f65dedc2d1e6bec784eb2f1000000000000000000000000f86c23c1e883ee3b820fb9be75ff91c9a49eae7500000000000000000000000000000000000000000000000000000000055d4a800000000000000000000000000000000000000000000000000000000005f5e100",
          "blockHash": "0x27285ef7d6649343bb3ec827f0eb2cd35823881e2a2a33dd87f9fb195b24892f",
          "blockNumber": "0x1b",
          "blockTimestamp": "0x696675b8",
          "transactionHash": "0x8772375a183db88e302698098239d0ae5926afd00e7098aaae49accb27c504c1",
          "transactionIndex": "0x0",
          "logIndex": "0x5",
          "removed": false
        },
        {
          "address": "0x8828fd7431d5bb1962d7e067c103b2324fa6bbec",
          "topics": [
            "0x2e659081f44c4f56a18b00f3f9d136d7ee8396bc79163c4d61363ddcf4a4cb27",
            "0x66a743ad1362b3ab2aed0333e4ee51b4f4b51421bd50d6413a524eb58b88b113"
          ],
          "data": "0x00000000000000000000000000000000000000000000000000000000000000000000000000000000000000000000000000000000000000000000000005f5e10000000000000000000000000000000000000000000000000000000000055d4a8000000000000000000000000000000000000000000000000000000000009896800000000000000000000000000000000000000000000000000000000000000000000000000000000000000000000000000000000000000000000000000000000100000000000000000000000000000000000000000000000000000000000000000000000000000000000000000000000000000000000000000000000000000000c5d2460186f7233c927e7db2dcc703c0e500b653ca82273b7bfad8045d85a470",
          "blockHash": "0x27285ef7d6649343bb3ec827f0eb2cd35823881e2a2a33dd87f9fb195b24892f",
          "blockNumber": "0x1b",
          "blockTimestamp": "0x696675b8",
          "transactionHash": "0x8772375a183db88e302698098239d0ae5926afd00e7098aaae49accb27c504c1",
          "transactionIndex": "0x0",
          "logIndex": "0x6",
          "removed": false
        },
        {
          "address": "0x8828fd7431d5bb1962d7e067c103b2324fa6bbec",
          "topics": [
            "0x78160f0b1b2b32b52a0076d8f0f70888687ba702a4d993d55ac8d9327d57a127",
            "0x000000000000000000000000000000000000000000000000000000000000000f",
            "0x127ce0391514f1158fd6c42ae7e4663ae2164b4a4dda58e4aaf794521cfc1428",
            "0x142a89b269ae2fa040e48966c86c28069373fc2bf5df890cc9f4ddac0fb95331"
          ],
          "data": "0x2e659081f44c4f56a18b00f3f9d136d7ee8396bc79163c4d61363ddcf4a4cb270000000000000000000000000000000000000000000000000000000000000040000000000000000000000000000000000000000000000000000000000000014066a743ad1362b3ab2aed0333e4ee51b4f4b51421bd50d6413a524eb58b88b11300000000000000000000000000000000000000000000000000000000000000000000000000000000000000000000000000000000000000000000000005f5e10000000000000000000000000000000000000000000000000000000000055d4a8000000000000000000000000000000000000000000000000000000000009896800000000000000000000000000000000000000000000000000000000000000000000000000000000000000000000000000000000000000000000000000000000100000000000000000000000000000000000000000000000000000000000000000000000000000000000000000000000000000000000000000000000000000000c5d2460186f7233c927e7db2dcc703c0e500b653ca82273b7bfad8045d85a470",
          "blockHash": "0x27285ef7d6649343bb3ec827f0eb2cd35823881e2a2a33dd87f9fb195b24892f",
          "blockNumber": "0x1b",
          "blockTimestamp": "0x696675b8",
          "transactionHash": "0x8772375a183db88e302698098239d0ae5926afd00e7098aaae49accb27c504c1",
          "transactionIndex": "0x0",
          "logIndex": "0x7",
          "removed": false
        }
      ],
      "logsBloom": "0x04000001008080000040000000000000000002000800000000800000000000000000100000000200000000000000020000000000000000000000000000200200000000000200000900000000000002800202000000000000080000000002000000020020000800000000000000400018000000000000000080000800000000000000000000400880001040002000000008000000000000000000800000000000000000400000400000000100000000080000000010000820200100000000000000000000000008000000100000000000000200000000000600000000000000220000000210000808000000400000000100000000008000040000404000004000",
      "type": "0x0",
      "transactionHash": "0x8772375a183db88e302698098239d0ae5926afd00e7098aaae49accb27c504c1",
      "transactionIndex": "0x0",
      "blockHash": "0x27285ef7d6649343bb3ec827f0eb2cd35823881e2a2a33dd87f9fb195b24892f",
      "blockNumber": "0x1b",
      "gasUsed": "0x3df0a",
      "effectiveGasPrice": "0x3b9aca00",
      "blobGasPrice": "0x1",
      "from": "0xd289d1387ae1033a703842d69501d5bec5a6f04e",
      "to": "0x8828fd7431d5bb1962d7e067c103b2324fa6bbec",
      "contractAddress": null
    },
    {
      "status": "0x1",
      "cumulativeGasUsed": "0x6994",
      "logs": [],
      "logsBloom": "0x00000000000000000000000000000000000000000000000000000000000000000000000000000000000000000000000000000000000000000000000000000000000000000000000000000000000000000000000000000000000000000000000000000000000000000000000000000000000000000000000000000000000000000000000000000000000000000000000000000000000000000000000000000000000000000000000000000000000000000000000000000000000000000000000000000000000000000000000000000000000000000000000000000000000000000000000000000000000000000000000000000000000000000000000000000000",
      "type": "0x0",
      "transactionHash": "0x99a490a0cb512bd8acbd9ba83cd74903b97f102a0980d9331b127e210092ea4a",
      "transactionIndex": "0x0",
      "blockHash": "0x054ff0f41478d9aa3edfd93ec2321e3121071434673fd525dab45a9efe19a37f",
      "blockNumber": "0x1c",
      "gasUsed": "0x6994",
      "effectiveGasPrice": "0x3b9aca00",
      "blobGasPrice": "0x1",
      "from": "0xd289d1387ae1033a703842d69501d5bec5a6f04e",
      "to": "0xf86c23c1e883ee3b820fb9be75ff91c9a49eae75",
      "contractAddress": null
    },
    {
      "status": "0x1",
      "cumulativeGasUsed": "0xad94",
      "logs": [],
      "logsBloom": "0x00000000000000000000000000000000000000000000000000000000000000000000000000000000000000000000000000000000000000000000000000000000000000000000000000000000000000000000000000000000000000000000000000000000000000000000000000000000000000000000000000000000000000000000000000000000000000000000000000000000000000000000000000000000000000000000000000000000000000000000000000000000000000000000000000000000000000000000000000000000000000000000000000000000000000000000000000000000000000000000000000000000000000000000000000000000",
      "type": "0x0",
      "transactionHash": "0xbaf30e1ceee235b9e2226e7745bbc93540de9002bd5e91b4a5a94aabf575e933",
      "transactionIndex": "0x0",
      "blockHash": "0x1d287518837023d8775619553b5085ebf232c5527b3871a708d25fecb0916cf0",
      "blockNumber": "0x1d",
      "gasUsed": "0xad94",
      "effectiveGasPrice": "0x3b9aca00",
      "blobGasPrice": "0x1",
      "from": "0xd289d1387ae1033a703842d69501d5bec5a6f04e",
      "to": "0xf86c23c1e883ee3b820fb9be75ff91c9a49eae75",
      "contractAddress": null
    },
    {
      "status": "0x1",
      "cumulativeGasUsed": "0x52d69",
      "logs": [
        {
          "address": "0x048255dfef2ebfa7307058ae475a3e2f5ee0df46",
          "topics": [
            "0x6f81b8ad0780a0febc687a3a73b181433722b4be30f7f0a024169f5161267287",
            "0xa3573853cd51aee00704a918bdae35ffd85cda62ed5fb1c74fdc4509c4d06457",
            "0x000000000000000000000000d289d1387ae1033a703842d69501d5bec5a6f04e"
          ],
          "data": "0x0000000000000000000000000000000000000000000000000000000000000000000000000000000000000000f86c23c1e883ee3b820fb9be75ff91c9a49eae7500000000000000000000000000000000000000000000000000000000004c4b40000000000000000000000000d289d1387ae1033a703842d69501d5bec5a6f04e00000000000000000000000000000000000000000000000000000000696675e500000000000000000000000000000000000000000000000000000000000000c000000000000000000000000000000000000000000000000000000000000000a000000000000000000000000000000000000000000000000000000000000000200000000000000000000000002db97a32d5ce8d79f7b7fdc607584a7a35da5e0d00000000000000000000000000000000000000000000000000000000000000400000000000000000000000000000000000000000000000000000000000000002abcd000000000000000000000000000000000000000000000000000000000000",
          "blockHash": "0x2a787b23421e52e3f25c07112f3d44f94e6522f35e7819158f69090b5deaa2d2",
          "blockNumber": "0x1e",
          "blockTimestamp": "0x696675bb",
          "transactionHash": "0x386adbd690ef7eb08133ae186e49013acf91a5876ca90b2238ab9974ecd32917",
          "transactionIndex": "0x0",
          "logIndex": "0x0",
          "removed": false
        },
        {
          "address": "0x048255dfef2ebfa7307058ae475a3e2f5ee0df46",
          "topics": [
            "0x78160f0b1b2b32b52a0076d8f0f70888687ba702a4d993d55ac8d9327d57a127",
            "0x0000000000000000000000000000000000000000000000000000000000000004",
            "0x87052e0d018f9a102c7197e1a281473f4776302150ed5e11d427630d32d493ce",
            "0xff5e348e9ad2588190a32da79960e49d045b9500be5f5bd777f1715fe7310dee"
          ],
          "data": "0x6f81b8ad0780a0febc687a3a73b181433722b4be30f7f0a024169f5161267287000000000000000000000000000000000000000000000000000000000000004000000000000000000000000000000000000000000000000000000000000001c0a3573853cd51aee00704a918bdae35ffd85cda62ed5fb1c74fdc4509c4d06457000000000000000000000000d289d1387ae1033a703842d69501d5bec5a6f04e0000000000000000000000000000000000000000000000000000000000000000000000000000000000000000f86c23c1e883ee3b820fb9be75ff91c9a49eae7500000000000000000000000000000000000000000000000000000000004c4b40000000000000000000000000d289d1387ae1033a703842d69501d5bec5a6f04e00000000000000000000000000000000000000000000000000000000696675e5000000000000000000000000000000000000000000000000000000000000010000000000000000000000000000000000000000000000000000000000000000a000000000000000000000000000000000000000000000000000000000000000200000000000000000000000002db97a32d5ce8d79f7b7fdc607584a7a35da5e0d00000000000000000000000000000000000000000000000000000000000000400000000000000000000000000000000000000000000000000000000000000002abcd000000000000000000000000000000000000000000000000000000000000",
          "blockHash": "0x2a787b23421e52e3f25c07112f3d44f94e6522f35e7819158f69090b5deaa2d2",
          "blockNumber": "0x1e",
          "blockTimestamp": "0x696675bb",
          "transactionHash": "0x386adbd690ef7eb08133ae186e49013acf91a5876ca90b2238ab9974ecd32917",
          "transactionIndex": "0x0",
          "logIndex": "0x1",
          "removed": false
        },
        {
          "address": "0x048255dfef2ebfa7307058ae475a3e2f5ee0df46",
          "topics": [
            "0x0544741ff6f2708047138c8f3a68abb994e628666dba785f685ff1035274f9fb",
            "0xa3573853cd51aee00704a918bdae35ffd85cda62ed5fb1c74fdc4509c4d06457",
            "0x000000000000000000000000d289d1387ae1033a703842d69501d5bec5a6f04e"
          ],
          "data": "0x000000000000000000000000f86c23c1e883ee3b820fb9be75ff91c9a49eae7500000000000000000000000000000000000000000000000000000000004c4b40",
          "blockHash": "0x2a787b23421e52e3f25c07112f3d44f94e6522f35e7819158f69090b5deaa2d2",
          "blockNumber": "0x1e",
          "blockTimestamp": "0x696675bb",
          "transactionHash": "0x386adbd690ef7eb08133ae186e49013acf91a5876ca90b2238ab9974ecd32917",
          "transactionIndex": "0x0",
          "logIndex": "0x2",
          "removed": false
        },
        {
          "address": "0x048255dfef2ebfa7307058ae475a3e2f5ee0df46",
          "topics": [
            "0x78160f0b1b2b32b52a0076d8f0f70888687ba702a4d993d55ac8d9327d57a127",
            "0x0000000000000000000000000000000000000000000000000000000000000005",
            "0xff5e348e9ad2588190a32da79960e49d045b9500be5f5bd777f1715fe7310dee",
            "0x43cf3b52b7be846fb408b9a121b2650cf38b55f51f8553dca50a67bf223a4bab"
          ],
          "data": "0x0544741ff6f2708047138c8f3a68abb994e628666dba785f685ff1035274f9fb00000000000000000000000000000000000000000000000000000000000000400000000000000000000000000000000000000000000000000000000000000080a3573853cd51aee00704a918bdae35ffd85cda62ed5fb1c74fdc4509c4d06457000000000000000000000000d289d1387ae1033a703842d69501d5bec5a6f04e000000000000000000000000f86c23c1e883ee3b820fb9be75ff91c9a49eae7500000000000000000000000000000000000000000000000000000000004c4b40",
          "blockHash": "0x2a787b23421e52e3f25c07112f3d44f94e6522f35e7819158f69090b5deaa2d2",
          "blockNumber": "0x1e",
          "blockTimestamp": "0x696675bb",
          "transactionHash": "0x386adbd690ef7eb08133ae186e49013acf91a5876ca90b2238ab9974ecd32917",
          "transactionIndex": "0x0",
          "logIndex": "0x3",
          "removed": false
        }
      ],
      "logsBloom": "0x00002001000001000000020000000000000000000000000000000000000800000000000200000000004000000000000000000000000000000000000000200000000010080000000004000000000000000004000100000000000000000000200008000000000800004000000000000000000000000000000000000000008000000000000000000000000000020000001000000800000000000000000000000000000000000000000000000000000000000000200200000000202000000000000000000000400000000800020000000000000000008200000000000000000000000000000000000000000000000008100000000000000000000000000000004000",
      "type": "0x0",
      "transactionHash": "0x386adbd690ef7eb08133ae186e49013acf91a5876ca90b2238ab9974ecd32917",
      "transactionIndex": "0x0",
      "blockHash": "0x2a787b23421e52e3f25c07112f3d44f94e6522f35e7819158f69090b5deaa2d2",
      "blockNumber": "0x1e",
      "gasUsed": "0x52d69",
      "effectiveGasPrice": "0x3b9aca00",
      "blobGasPrice": "0x1",
      "from": "0xd289d1387ae1033a703842d69501d5bec5a6f04e",
      "to": "0x048255dfef2ebfa7307058ae475a3e2f5ee0df46",
      "contractAddress": null
    },
    {
      "status": "0x1",
      "cumulativeGasUsed": "0xac60",
      "logs": [],
      "logsBloom": "0x00000000000000000000000000000000000000000000000000000000000000000000000000000000000000000000000000000000000000000000000000000000000000000000000000000000000000000000000000000000000000000000000000000000000000000000000000000000000000000000000000000000000000000000000000000000000000000000000000000000000000000000000000000000000000000000000000000000000000000000000000000000000000000000000000000000000000000000000000000000000000000000000000000000000000000000000000000000000000000000000000000000000000000000000000000000",
      "type": "0x0",
      "transactionHash": "0x2f56d4330b5b3ad7b5028d1250bc95815cd0739f9567a863280626fe3d8c0997",
      "transactionIndex": "0x0",
      "blockHash": "0xf99d16aaa6c70e6988b08e53b0bccf397394b1fefdb9c792d3de4a8a044dde7a",
      "blockNumber": "0x1f",
      "gasUsed": "0xac60",
      "effectiveGasPrice": "0x3b9aca00",
      "blobGasPrice": "0x1",
      "from": "0xd289d1387ae1033a703842d69501d5bec5a6f04e",
      "to": "0x4d4adec97e3e11693f65dedc2d1e6bec784eb2f1",
      "contractAddress": null
    },
    {
      "status": "0x1",
      "cumulativeGasUsed": "0xad94",
      "logs": [],
      "logsBloom": "0x00000000000000000000000000000000000000000000000000000000000000000000000000000000000000000000000000000000000000000000000000000000000000000000000000000000000000000000000000000000000000000000000000000000000000000000000000000000000000000000000000000000000000000000000000000000000000000000000000000000000000000000000000000000000000000000000000000000000000000000000000000000000000000000000000000000000000000000000000000000000000000000000000000000000000000000000000000000000000000000000000000000000000000000000000000000",
      "type": "0x0",
      "transactionHash": "0x4eb45a21ced9b9898440a556d8dd5fd801e3a9bfea125b9cbde5947b9f9cb711",
      "transactionIndex": "0x0",
      "blockHash": "0x3ccc0e8941602c6057e7d89882da8ef81ccb23e16c60d31280aff31375c02435",
      "blockNumber": "0x20",
      "gasUsed": "0xad94",
      "effectiveGasPrice": "0x3b9aca00",
      "blobGasPrice": "0x1",
      "from": "0xd289d1387ae1033a703842d69501d5bec5a6f04e",
      "to": "0x4d4adec97e3e11693f65dedc2d1e6bec784eb2f1",
      "contractAddress": null
    },
    {
      "status": "0x1",
      "cumulativeGasUsed": "0x17623",
      "logs": [
        {
          "address": "0x048255dfef2ebfa7307058ae475a3e2f5ee0df46",
          "topics": [
            "0xbc3f7b7e77a395c156c24db8a8a7850209b2df71a2561292eea221e32bf5d467",
            "0xa3573853cd51aee00704a918bdae35ffd85cda62ed5fb1c74fdc4509c4d06457",
            "0x000000000000000000000000d289d1387ae1033a703842d69501d5bec5a6f04e"
          ],
          "data": "0x00000000000000000000000000000000000000000000000000000000000f4240",
          "blockHash": "0xe8599aec35f63e8721d8e372f199562898a187bd0533d1c1094543cccdba09b7",
          "blockNumber": "0x21",
          "blockTimestamp": "0x696675be",
          "transactionHash": "0x1e8be4a7be1cad6c4bbf90b1495c5aa3ffb160bc184d00ce873cd9cded9b3cfb",
          "transactionIndex": "0x0",
          "logIndex": "0x0",
          "removed": false
        },
        {
          "address": "0x048255dfef2ebfa7307058ae475a3e2f5ee0df46",
          "topics": [
            "0x78160f0b1b2b32b52a0076d8f0f70888687ba702a4d993d55ac8d9327d57a127",
            "0x0000000000000000000000000000000000000000000000000000000000000006",
            "0x43cf3b52b7be846fb408b9a121b2650cf38b55f51f8553dca50a67bf223a4bab",
            "0xd109075acec12770df0314c8e6eefeaabc383f3715271e75f1f91c54399ca869"
          ],
          "data": "0xbc3f7b7e77a395c156c24db8a8a7850209b2df71a2561292eea221e32bf5d46700000000000000000000000000000000000000000000000000000000000000400000000000000000000000000000000000000000000000000000000000000060a3573853cd51aee00704a918bdae35ffd85cda62ed5fb1c74fdc4509c4d06457000000000000000000000000d289d1387ae1033a703842d69501d5bec5a6f04e00000000000000000000000000000000000000000000000000000000000f4240",
          "blockHash": "0xe8599aec35f63e8721d8e372f199562898a187bd0533d1c1094543cccdba09b7",
          "blockNumber": "0x21",
          "blockTimestamp": "0x696675be",
          "transactionHash": "0x1e8be4a7be1cad6c4bbf90b1495c5aa3ffb160bc184d00ce873cd9cded9b3cfb",
          "transactionIndex": "0x0",
          "logIndex": "0x1",
          "removed": false
        }
      ],
      "logsBloom": "0x00000000000000002000020000000000000000000002000000000000000000000000000200000000000000000000000000000000000400000000000000200000000000080000000004000000000000000000000008000004000000000000200000000000000800004000000000000000000000000000000000000000000000000000000400000000800000020000000000000000000000000000000000000000000000000000000000000000000000000000000200000000000000080000000000000000400000000000000000000000000000000200000000000000000000000000000000000000000000000008100000000000000000000000000000004002",
      "type": "0x0",
      "transactionHash": "0x1e8be4a7be1cad6c4bbf90b1495c5aa3ffb160bc184d00ce873cd9cded9b3cfb",
      "transactionIndex": "0x0",
      "blockHash": "0xe8599aec35f63e8721d8e372f199562898a187bd0533d1c1094543cccdba09b7",
      "blockNumber": "0x21",
      "gasUsed": "0x17623",
      "effectiveGasPrice": "0x3b9aca00",
      "blobGasPrice": "0x1",
      "from": "0xd289d1387ae1033a703842d69501d5bec5a6f04e",
      "to": "0x048255dfef2ebfa7307058ae475a3e2f5ee0df46",
      "contractAddress": null
    },
    {
      "status": "0x1",
      "cumulativeGasUsed": "0x121f6",
      "logs": [],
      "logsBloom": "0x00000000000000000000000000000000000000000000000000000000000000000000000000000000000000000000000000000000000000000000000000000000000000000000000000000000000000000000000000000000000000000000000000000000000000000000000000000000000000000000000000000000000000000000000000000000000000000000000000000000000000000000000000000000000000000000000000000000000000000000000000000000000000000000000000000000000000000000000000000000000000000000000000000000000000000000000000000000000000000000000000000000000000000000000000000000",
      "type": "0x0",
      "transactionHash": "0x8619ab75d24cac45344936d5f3e256abbf174855bdc202424887b8c6b6a4ea45",
      "transactionIndex": "0x0",
      "blockHash": "0xfece7ccce991a5ea0fa8f37bbee5aa6458af996209885b448456874e87be5af1",
      "blockNumber": "0x22",
      "gasUsed": "0x121f6",
      "effectiveGasPrice": "0x3b9aca00",
      "blobGasPrice": "0x1",
      "from": "0xd289d1387ae1033a703842d69501d5bec5a6f04e",
      "to": "0x8c16d2f19a034b7281254f5656c2d1461c6ceb9a",
      "contractAddress": null
    },
    {
      "status": "0x1",
      "cumulativeGasUsed": "0x2a95a",
      "logs": [
        {
          "address": "0x048255dfef2ebfa7307058ae475a3e2f5ee0df46",
          "topics": [
            "0xfa797585c9827d59a7694ef382241f1a03ced6a1a2b4353b35939abc4d04b286",
            "0xa3573853cd51aee00704a918bdae35ffd85cda62ed5fb1c74fdc4509c4d06457",
            "0x000000000000000000000000d289d1387ae1033a703842d69501d5bec5a6f04e"
          ],
          "data": "0x00000000000000000000000000000000000000000000000000000000000000000000000000000000000000000000000000000000000000000000000000000000",
          "blockHash": "0x8fd9b43b30ef3f9329783d1389441b14e66dd4bcd16e56a9994db5f7bc55025d",
          "blockNumber": "0x23",
          "blockTimestamp": "0x696675c0",
          "transactionHash": "0x3bb84969617a96dc96359dd1a42bd63f8ae012a2a54dc2745897267796ed6b49",
          "transactionIndex": "0x0",
          "logIndex": "0x0",
          "removed": false
        },
        {
          "address": "0x048255dfef2ebfa7307058ae475a3e2f5ee0df46",
          "topics": [
            "0x78160f0b1b2b32b52a0076d8f0f70888687ba702a4d993d55ac8d9327d57a127",
            "0x0000000000000000000000000000000000000000000000000000000000000007",
            "0xd109075acec12770df0314c8e6eefeaabc383f3715271e75f1f91c54399ca869",
            "0x0bcf2df7842d969b1d20bcd6cd1c44aaafbf3123c6fd91c5f85765b0f42d6794"
          ],
          "data": "0xfa797585c9827d59a7694ef382241f1a03ced6a1a2b4353b35939abc4d04b28600000000000000000000000000000000000000000000000000000000000000400000000000000000000000000000000000000000000000000000000000000080a3573853cd51aee00704a918bdae35ffd85cda62ed5fb1c74fdc4509c4d06457000000000000000000000000d289d1387ae1033a703842d69501d5bec5a6f04e00000000000000000000000000000000000000000000000000000000000000000000000000000000000000000000000000000000000000000000000000000000",
          "blockHash": "0x8fd9b43b30ef3f9329783d1389441b14e66dd4bcd16e56a9994db5f7bc55025d",
          "blockNumber": "0x23",
          "blockTimestamp": "0x696675c0",
          "transactionHash": "0x3bb84969617a96dc96359dd1a42bd63f8ae012a2a54dc2745897267796ed6b49",
          "transactionIndex": "0x0",
          "logIndex": "0x1",
          "removed": false
        },
        {
          "address": "0x048255dfef2ebfa7307058ae475a3e2f5ee0df46",
          "topics": [
            "0x16bfb64ae70b8a9bbda28deb27a1cbc5ec3e6497481714344c221b46c0777f35",
            "0xa3573853cd51aee00704a918bdae35ffd85cda62ed5fb1c74fdc4509c4d06457",
            "0x000000000000000000000000d289d1387ae1033a703842d69501d5bec5a6f04e"
          ],
          "data": "0x000000000000000000000000f86c23c1e883ee3b820fb9be75ff91c9a49eae7500000000000000000000000000000000000000000000000000000000004c4b400000000000000000000000004d4adec97e3e11693f65dedc2d1e6bec784eb2f100000000000000000000000000000000000000000000000000000000000f4240",
          "blockHash": "0x8fd9b43b30ef3f9329783d1389441b14e66dd4bcd16e56a9994db5f7bc55025d",
          "blockNumber": "0x23",
          "blockTimestamp": "0x696675c0",
          "transactionHash": "0x3bb84969617a96dc96359dd1a42bd63f8ae012a2a54dc2745897267796ed6b49",
          "transactionIndex": "0x0",
          "logIndex": "0x2",
          "removed": false
        },
        {
          "address": "0x048255dfef2ebfa7307058ae475a3e2f5ee0df46",
          "topics": [
            "0x78160f0b1b2b32b52a0076d8f0f70888687ba702a4d993d55ac8d9327d57a127",
            "0x0000000000000000000000000000000000000000000000000000000000000008",
            "0x0bcf2df7842d969b1d20bcd6cd1c44aaafbf3123c6fd91c5f85765b0f42d6794",
            "0xf4d9af3729c05e7d6dae9f506ea166cbb29120be1064976952398b42df6a71a9"
          ],
          "data": "0x16bfb64ae70b8a9bbda28deb27a1cbc5ec3e6497481714344c221b46c0777f35000000000000000000000000000000000000000000000000000000000000004000000000000000000000000000000000000000000000000000000000000000c0a3573853cd51aee00704a918bdae35ffd85cda62ed5fb1c74fdc4509c4d06457000000000000000000000000d289d1387ae1033a703842d69501d5bec5a6f04e000000000000000000000000f86c23c1e883ee3b820fb9be75ff91c9a49eae7500000000000000000000000000000000000000000000000000000000004c4b400000000000000000000000004d4adec97e3e11693f65dedc2d1e6bec784eb2f100000000000000000000000000000000000000000000000000000000000f4240",
          "blockHash": "0x8fd9b43b30ef3f9329783d1389441b14e66dd4bcd16e56a9994db5f7bc55025d",
          "blockNumber": "0x23",
          "blockTimestamp": "0x696675c0",
          "transactionHash": "0x3bb84969617a96dc96359dd1a42bd63f8ae012a2a54dc2745897267796ed6b49",
          "transactionIndex": "0x0",
          "logIndex": "0x3",
          "removed": false
        }
      ],
      "logsBloom": "0x00000000000000000000000000000000000000000002000000000000000080000000000000000000000000000000000200001000000080000002002000200000000020080000000004000000000000000000000008002000000000000000200100000000000800004000200000000000000000000000000000000000000000000080000000000000800000020000000000000000000000000000000000000000000004000000000000000802000000000000000200000000000000000000000050000000400000000000000000000000000000000200000000000100000000000000000000000000000000000000100000000000000000000000000002004000",
      "type": "0x0",
      "transactionHash": "0x3bb84969617a96dc96359dd1a42bd63f8ae012a2a54dc2745897267796ed6b49",
      "transactionIndex": "0x0",
      "blockHash": "0x8fd9b43b30ef3f9329783d1389441b14e66dd4bcd16e56a9994db5f7bc55025d",
      "blockNumber": "0x23",
      "gasUsed": "0x2a95a",
      "effectiveGasPrice": "0x3b9aca00",
      "blobGasPrice": "0x1",
      "from": "0xd289d1387ae1033a703842d69501d5bec5a6f04e",
      "to": "0x048255dfef2ebfa7307058ae475a3e2f5ee0df46",
      "contractAddress": null
    },
    {
      "status": "0x1",
      "cumulativeGasUsed": "0x6994",
      "logs": [],
      "logsBloom": "0x00000000000000000000000000000000000000000000000000000000000000000000000000000000000000000000000000000000000000000000000000000000000000000000000000000000000000000000000000000000000000000000000000000000000000000000000000000000000000000000000000000000000000000000000000000000000000000000000000000000000000000000000000000000000000000000000000000000000000000000000000000000000000000000000000000000000000000000000000000000000000000000000000000000000000000000000000000000000000000000000000000000000000000000000000000000",
      "type": "0x0",
      "transactionHash": "0x2251ad25c50f35a00c86806b0e949118cf365a5a0571f8a114c0e850a766963e",
      "transactionIndex": "0x0",
      "blockHash": "0xdc94a4f6edffef11a1b254f79144a686a93f92bcebf14ff2a72acea6fd16abd5",
      "blockNumber": "0x24",
      "gasUsed": "0x6994",
      "effectiveGasPrice": "0x3b9aca00",
      "blobGasPrice": "0x1",
      "from": "0xd289d1387ae1033a703842d69501d5bec5a6f04e",
      "to": "0x4d4adec97e3e11693f65dedc2d1e6bec784eb2f1",
      "contractAddress": null
    },
    {
      "status": "0x1",
      "cumulativeGasUsed": "0x5fd8",
      "logs": [],
      "logsBloom": "0x00000000000000000000000000000000000000000000000000000000000000000000000000000000000000000000000000000000000000000000000000000000000000000000000000000000000000000000000000000000000000000000000000000000000000000000000000000000000000000000000000000000000000000000000000000000000000000000000000000000000000000000000000000000000000000000000000000000000000000000000000000000000000000000000000000000000000000000000000000000000000000000000000000000000000000000000000000000000000000000000000000000000000000000000000000000",
      "type": "0x0",
      "transactionHash": "0xf9efb66edb2a556a0fdffc4bbf2b33fa01f6db51c69048612237363ee78c386f",
      "transactionIndex": "0x0",
      "blockHash": "0x99d7b639fe00c30d28220c23ea865e70872d9b428bb392bc863db1e733138c6f",
      "blockNumber": "0x25",
      "gasUsed": "0x5fd8",
      "effectiveGasPrice": "0x3b9aca00",
      "blobGasPrice": "0x1",
      "from": "0xd289d1387ae1033a703842d69501d5bec5a6f04e",
      "to": "0x4d4adec97e3e11693f65dedc2d1e6bec784eb2f1",
      "contractAddress": null
    },
    {
      "status": "0x1",
      "cumulativeGasUsed": "0x46ef3",
      "logs": [
        {
          "address": "0x048255dfef2ebfa7307058ae475a3e2f5ee0df46",
          "topics": [
            "0x6f81b8ad0780a0febc687a3a73b181433722b4be30f7f0a024169f5161267287",
            "0x9c5668eca5a4c40788145e30ed18cf7fd39e52233dfaffbabbdea366803bf0a0",
            "0x000000000000000000000000d289d1387ae1033a703842d69501d5bec5a6f04e"
          ],
          "data": "0x00000000000000000000000000000000000000000000000000000000000000010000000000000000000000004d4adec97e3e11693f65dedc2d1e6bec784eb2f100000000000000000000000000000000000000000000000000000000001e8480000000000000000000000000d289d1387ae1033a703842d69501d5bec5a6f04e00000000000000000000000000000000000000000000000000000000696675e500000000000000000000000000000000000000000000000000000000000000c00000000000000000000000000000000000000000000000000000000000000040000000000000000000000000558b8fe3b86724d9d9433bf8ec2b1a1b223f9d25000000000000000000000000000000000000000000000000000000000012d687",
          "blockHash": "0x54bf74de8342add86ba3564dfa7c471e86a7804ec1b761a5e77ab5326320acc1",
          "blockNumber": "0x26",
          "blockTimestamp": "0x696675c3",
          "transactionHash": "0xcd53f443a157ed91c1209511211ac7a64001dc8e7f0e115cdeac9c2ce6a78f78",
          "transactionIndex": "0x0",
          "logIndex": "0x0",
          "removed": false
        },
        {
          "address": "0x048255dfef2ebfa7307058ae475a3e2f5ee0df46",
          "topics": [
            "0x78160f0b1b2b32b52a0076d8f0f70888687ba702a4d993d55ac8d9327d57a127",
            "0x0000000000000000000000000000000000000000000000000000000000000009",
            "0xf4d9af3729c05e7d6dae9f506ea166cbb29120be1064976952398b42df6a71a9",
            "0xe6e582d0b0cd202a294614b6e2c210ca3ed6b8cb78cb54ae69397a9bd70a8e2b"
          ],
          "data": "0x6f81b8ad0780a0febc687a3a73b181433722b4be30f7f0a024169f5161267287000000000000000000000000000000000000000000000000000000000000004000000000000000000000000000000000000000000000000000000000000001609c5668eca5a4c40788145e30ed18cf7fd39e52233dfaffbabbdea366803bf0a0000000000000000000000000d289d1387ae1033a703842d69501d5bec5a6f04e00000000000000000000000000000000000000000000000000000000000000010000000000000000000000004d4adec97e3e11693f65dedc2d1e6bec784eb2f100000000000000000000000000000000000000000000000000000000001e8480000000000000000000000000d289d1387ae1033a703842d69501d5bec5a6f04e00000000000000000000000000000000000000000000000000000000696675e500000000000000000000000000000000000000000000000000000000000001000000000000000000000000000000000000000000000000000000000000000040000000000000000000000000558b8fe3b86724d9d9433bf8ec2b1a1b223f9d25000000000000000000000000000000000000000000000000000000000012d687",
          "blockHash": "0x54bf74de8342add86ba3564dfa7c471e86a7804ec1b761a5e77ab5326320acc1",
          "blockNumber": "0x26",
          "blockTimestamp": "0x696675c3",
          "transactionHash": "0xcd53f443a157ed91c1209511211ac7a64001dc8e7f0e115cdeac9c2ce6a78f78",
          "transactionIndex": "0x0",
          "logIndex": "0x1",
          "removed": false
        },
        {
          "address": "0x048255dfef2ebfa7307058ae475a3e2f5ee0df46",
          "topics": [
            "0x0544741ff6f2708047138c8f3a68abb994e628666dba785f685ff1035274f9fb",
            "0x9c5668eca5a4c40788145e30ed18cf7fd39e52233dfaffbabbdea366803bf0a0",
            "0x000000000000000000000000d289d1387ae1033a703842d69501d5bec5a6f04e"
          ],
          "data": "0x0000000000000000000000004d4adec97e3e11693f65dedc2d1e6bec784eb2f100000000000000000000000000000000000000000000000000000000001e8480",
          "blockHash": "0x54bf74de8342add86ba3564dfa7c471e86a7804ec1b761a5e77ab5326320acc1",
          "blockNumber": "0x26",
          "blockTimestamp": "0x696675c3",
          "transactionHash": "0xcd53f443a157ed91c1209511211ac7a64001dc8e7f0e115cdeac9c2ce6a78f78",
          "transactionIndex": "0x0",
          "logIndex": "0x2",
          "removed": false
        },
        {
          "address": "0x048255dfef2ebfa7307058ae475a3e2f5ee0df46",
          "topics": [
            "0x78160f0b1b2b32b52a0076d8f0f70888687ba702a4d993d55ac8d9327d57a127",
            "0x000000000000000000000000000000000000000000000000000000000000000a",
            "0xe6e582d0b0cd202a294614b6e2c210ca3ed6b8cb78cb54ae69397a9bd70a8e2b",
            "0x8ed486987d0060855b3935e717c35620c4c904fa2e54d70146b8f2fc0695ca39"
          ],
          "data": "0x0544741ff6f2708047138c8f3a68abb994e628666dba785f685ff1035274f9fb000000000000000000000000000000000000000000000000000000000000004000000000000000000000000000000000000000000000000000000000000000809c5668eca5a4c40788145e30ed18cf7fd39e52233dfaffbabbdea366803bf0a0000000000000000000000000d289d1387ae1033a703842d69501d5bec5a6f04e0000000000000000000000004d4adec97e3e11693f65dedc2d1e6bec784eb2f100000000000000000000000000000000000000000000000000000000001e8480",
          "blockHash": "0x54bf74de8342add86ba3564dfa7c471e86a7804ec1b761a5e77ab5326320acc1",
          "blockNumber": "0x26",
          "blockTimestamp": "0x696675c3",
          "transactionHash": "0xcd53f443a157ed91c1209511211ac7a64001dc8e7f0e115cdeac9c2ce6a78f78",
          "transactionIndex": "0x0",
          "logIndex": "0x3",
          "removed": false
        }
      ],
      "logsBloom": "0x00000100000000000000000000004000000000000000000800000000000000000000000000000004000000000000000000000000040000000020000000202000000000000000000004000000000001000004000100000000000000000000000100000000000800004000200000000000000000000000000000000000008000000000000000000000010000000000000200001000000000000000000000000000000104000000000000000000000000000000200200000000200000000000000000000000400000000000020000000000000000000200000000000000000000010000000000000000000000000000100000000000000000000000000000804000",
      "type": "0x0",
      "transactionHash": "0xcd53f443a157ed91c1209511211ac7a64001dc8e7f0e115cdeac9c2ce6a78f78",
      "transactionIndex": "0x0",
      "blockHash": "0x54bf74de8342add86ba3564dfa7c471e86a7804ec1b761a5e77ab5326320acc1",
      "blockNumber": "0x26",
      "gasUsed": "0x46ef3",
      "effectiveGasPrice": "0x3b9aca00",
      "blobGasPrice": "0x1",
      "from": "0xd289d1387ae1033a703842d69501d5bec5a6f04e",
      "to": "0x048255dfef2ebfa7307058ae475a3e2f5ee0df46",
      "contractAddress": null
    },
    {
      "status": "0x1",
      "cumulativeGasUsed": "0x6994",
      "logs": [],
      "logsBloom": "0x00000000000000000000000000000000000000000000000000000000000000000000000000000000000000000000000000000000000000000000000000000000000000000000000000000000000000000000000000000000000000000000000000000000000000000000000000000000000000000000000000000000000000000000000000000000000000000000000000000000000000000000000000000000000000000000000000000000000000000000000000000000000000000000000000000000000000000000000000000000000000000000000000000000000000000000000000000000000000000000000000000000000000000000000000000000",
      "type": "0x0",
      "transactionHash": "0xfed417558ae0dfc9fa69f6b3e26a183ad2c0e6e3f749d50b0f79d57610d88a9f",
      "transactionIndex": "0x0",
      "blockHash": "0x4c1a54b02715af93c0e01d72c4a853b6e9331f2aa6f2e8dc79e9fc0328723d02",
      "blockNumber": "0x27",
      "gasUsed": "0x6994",
      "effectiveGasPrice": "0x3b9aca00",
      "blobGasPrice": "0x1",
      "from": "0xd289d1387ae1033a703842d69501d5bec5a6f04e",
      "to": "0x4d4adec97e3e11693f65dedc2d1e6bec784eb2f1",
      "contractAddress": null
    },
    {
      "status": "0x1",
      "cumulativeGasUsed": "0x5fd8",
      "logs": [],
      "logsBloom": "0x00000000000000000000000000000000000000000000000000000000000000000000000000000000000000000000000000000000000000000000000000000000000000000000000000000000000000000000000000000000000000000000000000000000000000000000000000000000000000000000000000000000000000000000000000000000000000000000000000000000000000000000000000000000000000000000000000000000000000000000000000000000000000000000000000000000000000000000000000000000000000000000000000000000000000000000000000000000000000000000000000000000000000000000000000000000",
      "type": "0x0",
      "transactionHash": "0x5dad83edb1c33f042f8ec27cad814b69c77182c0206e0574b45277e9c76f8b1b",
      "transactionIndex": "0x0",
      "blockHash": "0x3a7cf4c8b0e9f239d9c88fa97c9804a77e160dbdd7efdebf95402ea973fbf3be",
      "blockNumber": "0x28",
      "gasUsed": "0x5fd8",
      "effectiveGasPrice": "0x3b9aca00",
      "blobGasPrice": "0x1",
      "from": "0xd289d1387ae1033a703842d69501d5bec5a6f04e",
      "to": "0x4d4adec97e3e11693f65dedc2d1e6bec784eb2f1",
      "contractAddress": null
    },
    {
      "status": "0x1",
      "cumulativeGasUsed": "0x14617",
      "logs": [
        {
          "address": "0x048255dfef2ebfa7307058ae475a3e2f5ee0df46",
          "topics": [
            "0xbc3f7b7e77a395c156c24db8a8a7850209b2df71a2561292eea221e32bf5d467",
            "0x9c5668eca5a4c40788145e30ed18cf7fd39e52233dfaffbabbdea366803bf0a0",
            "0x000000000000000000000000d289d1387ae1033a703842d69501d5bec5a6f04e"
          ],
          "data": "0x00000000000000000000000000000000000000000000000000000000000f4240",
          "blockHash": "0xddf5da4e78faa6d3d00983171c8ecd24a8a90582357a55ef970c45470c52026a",
          "blockNumber": "0x29",
          "blockTimestamp": "0x696675c6",
          "transactionHash": "0x3d768fee28050b22fcc2d899d11d9aa6ab1fd2a6444d86d58e3229b9261cbf4e",
          "transactionIndex": "0x0",
          "logIndex": "0x0",
          "removed": false
        },
        {
          "address": "0x048255dfef2ebfa7307058ae475a3e2f5ee0df46",
          "topics": [
            "0x78160f0b1b2b32b52a0076d8f0f70888687ba702a4d993d55ac8d9327d57a127",
            "0x000000000000000000000000000000000000000000000000000000000000000b",
            "0x8ed486987d0060855b3935e717c35620c4c904fa2e54d70146b8f2fc0695ca39",
            "0xc91aeb1de0517d7c1741285f0d07ca3a1e20dc5544d57047a5dc7654c4a418b7"
          ],
          "data": "0xbc3f7b7e77a395c156c24db8a8a7850209b2df71a2561292eea221e32bf5d467000000000000000000000000000000000000000000000000000000000000004000000000000000000000000000000000000000000000000000000000000000609c5668eca5a4c40788145e30ed18cf7fd39e52233dfaffbabbdea366803bf0a0000000000000000000000000d289d1387ae1033a703842d69501d5bec5a6f04e00000000000000000000000000000000000000000000000000000000000f4240",
          "blockHash": "0xddf5da4e78faa6d3d00983171c8ecd24a8a90582357a55ef970c45470c52026a",
          "blockNumber": "0x29",
          "blockTimestamp": "0x696675c6",
          "transactionHash": "0x3d768fee28050b22fcc2d899d11d9aa6ab1fd2a6444d86d58e3229b9261cbf4e",
          "transactionIndex": "0x0",
          "logIndex": "0x1",
          "removed": false
        }
      ],
      "logsBloom": "0x00000100000000002000004000004000000000000000000800000000000000000000000000000004000000000000000000000000000000000000000000202000000002000000000004000002000000000000000000080004000000000000000000000000000800004000000000000000000000000000000000000000000000000000000000000000000000000000000000000000000000000000000000000000000100000000000000000000000000000000000200000000000000000000000000000000400000000000000000000000002000000200000000000000000000000000000000000000000000000000100000000000000000040000000000004002",
      "type": "0x0",
      "transactionHash": "0x3d768fee28050b22fcc2d899d11d9aa6ab1fd2a6444d86d58e3229b9261cbf4e",
      "transactionIndex": "0x0",
      "blockHash": "0xddf5da4e78faa6d3d00983171c8ecd24a8a90582357a55ef970c45470c52026a",
      "blockNumber": "0x29",
      "gasUsed": "0x14617",
      "effectiveGasPrice": "0x3b9aca00",
      "blobGasPrice": "0x1",
      "from": "0xd289d1387ae1033a703842d69501d5bec5a6f04e",
      "to": "0x048255dfef2ebfa7307058ae475a3e2f5ee0df46",
      "contractAddress": null
    },
    {
      "status": "0x1",
      "cumulativeGasUsed": "0x1a29b",
      "logs": [],
      "logsBloom": "0x00000000000000000000000000000000000000000000000000000000000000000000000000000000000000000000000000000000000000000000000000000000000000000000000000000000000000000000000000000000000000000000000000000000000000000000000000000000000000000000000000000000000000000000000000000000000000000000000000000000000000000000000000000000000000000000000000000000000000000000000000000000000000000000000000000000000000000000000000000000000000000000000000000000000000000000000000000000000000000000000000000000000000000000000000000000",
      "type": "0x0",
      "transactionHash": "0xa3d26f21215aa99883ccaaabb519c76754ecac5db3eeb1cb2951af78b1885e87",
      "transactionIndex": "0x0",
      "blockHash": "0x40b6312f0961eb285be567f9b0aa9970713370006a8738dac7eaab66802c7ca7",
      "blockNumber": "0x2a",
      "gasUsed": "0x1a29b",
      "effectiveGasPrice": "0x3b9aca00",
      "blobGasPrice": "0x1",
      "from": "0xd289d1387ae1033a703842d69501d5bec5a6f04e",
      "to": "0x8c16d2f19a034b7281254f5656c2d1461c6ceb9a",
      "contractAddress": null
    },
    {
      "status": "0x1",
      "cumulativeGasUsed": "0x212aa",
      "logs": [
        {
          "address": "0x048255dfef2ebfa7307058ae475a3e2f5ee0df46",
          "topics": [
            "0xfa797585c9827d59a7694ef382241f1a03ced6a1a2b4353b35939abc4d04b286",
            "0x9c5668eca5a4c40788145e30ed18cf7fd39e52233dfaffbabbdea366803bf0a0",
            "0x000000000000000000000000d289d1387ae1033a703842d69501d5bec5a6f04e"
          ],
          "data": "0x00000000000000000000000000000000000000000000000000000000000000000000000000000000000000000000000000000000000000000000000000000000",
          "blockHash": "0xca146345e39fef4729ead0591572a9b5d7dc940c9173ab40c60366f2f3a17b1b",
          "blockNumber": "0x2b",
          "blockTimestamp": "0x696675c8",
          "transactionHash": "0x431a44ff40be16863224427d7730a26cac853d9b0e6f02c0c1796c5eee54452a",
          "transactionIndex": "0x0",
          "logIndex": "0x0",
          "removed": false
        },
        {
          "address": "0x048255dfef2ebfa7307058ae475a3e2f5ee0df46",
          "topics": [
            "0x78160f0b1b2b32b52a0076d8f0f70888687ba702a4d993d55ac8d9327d57a127",
            "0x000000000000000000000000000000000000000000000000000000000000000c",
            "0xc91aeb1de0517d7c1741285f0d07ca3a1e20dc5544d57047a5dc7654c4a418b7",
            "0x976b6ff79ab46bd50c9ee0236848ff9410b9dcaa67f6784a376ed611ea87fda5"
          ],
          "data": "0xfa797585c9827d59a7694ef382241f1a03ced6a1a2b4353b35939abc4d04b286000000000000000000000000000000000000000000000000000000000000004000000000000000000000000000000000000000000000000000000000000000809c5668eca5a4c40788145e30ed18cf7fd39e52233dfaffbabbdea366803bf0a0000000000000000000000000d289d1387ae1033a703842d69501d5bec5a6f04e00000000000000000000000000000000000000000000000000000000000000000000000000000000000000000000000000000000000000000000000000000000",
          "blockHash": "0xca146345e39fef4729ead0591572a9b5d7dc940c9173ab40c60366f2f3a17b1b",
          "blockNumber": "0x2b",
          "blockTimestamp": "0x696675c8",
          "transactionHash": "0x431a44ff40be16863224427d7730a26cac853d9b0e6f02c0c1796c5eee54452a",
          "transactionIndex": "0x0",
          "logIndex": "0x1",
          "removed": false
        },
        {
          "address": "0x048255dfef2ebfa7307058ae475a3e2f5ee0df46",
          "topics": [
            "0x16bfb64ae70b8a9bbda28deb27a1cbc5ec3e6497481714344c221b46c0777f35",
            "0x9c5668eca5a4c40788145e30ed18cf7fd39e52233dfaffbabbdea366803bf0a0",
            "0x000000000000000000000000d289d1387ae1033a703842d69501d5bec5a6f04e"
          ],
          "data": "0x0000000000000000000000004d4adec97e3e11693f65dedc2d1e6bec784eb2f100000000000000000000000000000000000000000000000000000000001e84800000000000000000000000004d4adec97e3e11693f65dedc2d1e6bec784eb2f100000000000000000000000000000000000000000000000000000000000f4240",
          "blockHash": "0xca146345e39fef4729ead0591572a9b5d7dc940c9173ab40c60366f2f3a17b1b",
          "blockNumber": "0x2b",
          "blockTimestamp": "0x696675c8",
          "transactionHash": "0x431a44ff40be16863224427d7730a26cac853d9b0e6f02c0c1796c5eee54452a",
          "transactionIndex": "0x0",
          "logIndex": "0x2",
          "removed": false
        },
        {
          "address": "0x048255dfef2ebfa7307058ae475a3e2f5ee0df46",
          "topics": [
            "0x78160f0b1b2b32b52a0076d8f0f70888687ba702a4d993d55ac8d9327d57a127",
            "0x000000000000000000000000000000000000000000000000000000000000000d",
            "0x976b6ff79ab46bd50c9ee0236848ff9410b9dcaa67f6784a376ed611ea87fda5",
            "0xfb3e5a9683ff479d3f96fed106d8c4220585da07babe5bc8a028f3c098aedcd9"
          ],
          "data": "0x16bfb64ae70b8a9bbda28deb27a1cbc5ec3e6497481714344c221b46c0777f35000000000000000000000000000000000000000000000000000000000000004000000000000000000000000000000000000000000000000000000000000000c09c5668eca5a4c40788145e30ed18cf7fd39e52233dfaffbabbdea366803bf0a0000000000000000000000000d289d1387ae1033a703842d69501d5bec5a6f04e0000000000000000000000004d4adec97e3e11693f65dedc2d1e6bec784eb2f100000000000000000000000000000000000000000000000000000000001e84800000000000000000000000004d4adec97e3e11693f65dedc2d1e6bec784eb2f100000000000000000000000000000000000000000000000000000000000f4240",
          "blockHash": "0xca146345e39fef4729ead0591572a9b5d7dc940c9173ab40c60366f2f3a17b1b",
          "blockNumber": "0x2b",
          "blockTimestamp": "0x696675c8",
          "transactionHash": "0x431a44ff40be16863224427d7730a26cac853d9b0e6f02c0c1796c5eee54452a",
          "transactionIndex": "0x0",
          "logIndex": "0x3",
          "removed": false
        }
      ],
      "logsBloom": "0x00000100000000000040000000004000000002000000000800000000000080000000000000000200000000000000000200000000000000000002000000200000000002000000000004000002000000000002000000080000000000000000000000000000000800004000200000000000000000000000002000000000000000000008008000000000000000000000000000000000000000000000000000000000000000000000800000000002000000000000000200000000000000000000000010000000400000000020000000000000000000000200000000000000000000220000000000000000000000000000100000000000000000000000000002004000",
      "type": "0x0",
      "transactionHash": "0x431a44ff40be16863224427d7730a26cac853d9b0e6f02c0c1796c5eee54452a",
      "transactionIndex": "0x0",
      "blockHash": "0xca146345e39fef4729ead0591572a9b5d7dc940c9173ab40c60366f2f3a17b1b",
      "blockNumber": "0x2b",
      "gasUsed": "0x212aa",
      "effectiveGasPrice": "0x3b9aca00",
      "blobGasPrice": "0x1",
      "from": "0xd289d1387ae1033a703842d69501d5bec5a6f04e",
      "to": "0x048255dfef2ebfa7307058ae475a3e2f5ee0df46",
      "contractAddress": null
    },
    {
      "status": "0x1",
      "cumulativeGasUsed": "0x6994",
      "logs": [],
      "logsBloom": "0x00000000000000000000000000000000000000000000000000000000000000000000000000000000000000000000000000000000000000000000000000000000000000000000000000000000000000000000000000000000000000000000000000000000000000000000000000000000000000000000000000000000000000000000000000000000000000000000000000000000000000000000000000000000000000000000000000000000000000000000000000000000000000000000000000000000000000000000000000000000000000000000000000000000000000000000000000000000000000000000000000000000000000000000000000000000",
      "type": "0x0",
      "transactionHash": "0x3cfe4d3def108d512f118812e99980805c2613a669372cae3d633a56843e7cd6",
      "transactionIndex": "0x0",
      "blockHash": "0x30276a5ecba52d158e5c8c6ab0a9b8b8e5a10c253ba08edd42ebcb6317cdd883",
      "blockNumber": "0x2c",
      "gasUsed": "0x6994",
      "effectiveGasPrice": "0x3b9aca00",
      "blobGasPrice": "0x1",
      "from": "0xd289d1387ae1033a703842d69501d5bec5a6f04e",
      "to": "0xf86c23c1e883ee3b820fb9be75ff91c9a49eae75",
      "contractAddress": null
    },
    {
      "status": "0x1",
      "cumulativeGasUsed": "0x5fd8",
      "logs": [],
      "logsBloom": "0x00000000000000000000000000000000000000000000000000000000000000000000000000000000000000000000000000000000000000000000000000000000000000000000000000000000000000000000000000000000000000000000000000000000000000000000000000000000000000000000000000000000000000000000000000000000000000000000000000000000000000000000000000000000000000000000000000000000000000000000000000000000000000000000000000000000000000000000000000000000000000000000000000000000000000000000000000000000000000000000000000000000000000000000000000000000",
      "type": "0x0",
      "transactionHash": "0x9041eb280fbb4358404c02716074cab410c6307832ffee46435dabe265bf587b",
      "transactionIndex": "0x0",
      "blockHash": "0x6f4613c6f6c66fb315ad656ff989d629f7dda9a22ff638c7039a5a10ff40e5fb",
      "blockNumber": "0x2d",
      "gasUsed": "0x5fd8",
      "effectiveGasPrice": "0x3b9aca00",
      "blobGasPrice": "0x1",
      "from": "0xd289d1387ae1033a703842d69501d5bec5a6f04e",
      "to": "0xf86c23c1e883ee3b820fb9be75ff91c9a49eae75",
      "contractAddress": null
    },
    {
      "status": "0x1",
      "cumulativeGasUsed": "0x52d69",
      "logs": [
        {
          "address": "0x048255dfef2ebfa7307058ae475a3e2f5ee0df46",
          "topics": [
            "0x6f81b8ad0780a0febc687a3a73b181433722b4be30f7f0a024169f5161267287",
            "0xceee63362ce5c16402dad8fd4e3ca0bcabf2e89d099a04b8f644d62aecf8acf0",
            "0x000000000000000000000000d289d1387ae1033a703842d69501d5bec5a6f04e"
          ],
          "data": "0x0000000000000000000000000000000000000000000000000000000000000000000000000000000000000000f86c23c1e883ee3b820fb9be75ff91c9a49eae7500000000000000000000000000000000000000000000000000000000000f4240000000000000000000000000d289d1387ae1033a703842d69501d5bec5a6f04e00000000000000000000000000000000000000000000000000000000696675e500000000000000000000000000000000000000000000000000000000000000c000000000000000000000000000000000000000000000000000000000000000a000000000000000000000000000000000000000000000000000000000000000200000000000000000000000005457e258a09ebfb4a2501a9e3d70d37f54f923f300000000000000000000000000000000000000000000000000000000000000400000000000000000000000000000000000000000000000000000000000000002beef000000000000000000000000000000000000000000000000000000000000",
          "blockHash": "0x8401eefb0aafd0ebc8c9c53a18fb32766db6c04aebe7cd2ba6bf913cce0d74c0",
          "blockNumber": "0x2e",
          "blockTimestamp": "0x696675cb",
          "transactionHash": "0x11391e719a9c843086597c7e56dbdcea84cbc2bca0c264a3d9ced0a1b7fb5676",
          "transactionIndex": "0x0",
          "logIndex": "0x0",
          "removed": false
        },
        {
          "address": "0x048255dfef2ebfa7307058ae475a3e2f5ee0df46",
          "topics": [
            "0x78160f0b1b2b32b52a0076d8f0f70888687ba702a4d993d55ac8d9327d57a127",
            "0x000000000000000000000000000000000000000000000000000000000000000e",
            "0xfb3e5a9683ff479d3f96fed106d8c4220585da07babe5bc8a028f3c098aedcd9",
            "0xf89f96b5a20179e2267b1b61cf709c8a356443b4d0b4bc5f414344f74a9bb5f5"
          ],
          "data": "0x6f81b8ad0780a0febc687a3a73b181433722b4be30f7f0a024169f5161267287000000000000000000000000000000000000000000000000000000000000004000000000000000000000000000000000000000000000000000000000000001c0ceee63362ce5c16402dad8fd4e3ca0bcabf2e89d099a04b8f644d62aecf8acf0000000000000000000000000d289d1387ae1033a703842d69501d5bec5a6f04e0000000000000000000000000000000000000000000000000000000000000000000000000000000000000000f86c23c1e883ee3b820fb9be75ff91c9a49eae7500000000000000000000000000000000000000000000000000000000000f4240000000000000000000000000d289d1387ae1033a703842d69501d5bec5a6f04e00000000000000000000000000000000000000000000000000000000696675e5000000000000000000000000000000000000000000000000000000000000010000000000000000000000000000000000000000000000000000000000000000a000000000000000000000000000000000000000000000000000000000000000200000000000000000000000005457e258a09ebfb4a2501a9e3d70d37f54f923f300000000000000000000000000000000000000000000000000000000000000400000000000000000000000000000000000000000000000000000000000000002beef000000000000000000000000000000000000000000000000000000000000",
          "blockHash": "0x8401eefb0aafd0ebc8c9c53a18fb32766db6c04aebe7cd2ba6bf913cce0d74c0",
          "blockNumber": "0x2e",
          "blockTimestamp": "0x696675cb",
          "transactionHash": "0x11391e719a9c843086597c7e56dbdcea84cbc2bca0c264a3d9ced0a1b7fb5676",
          "transactionIndex": "0x0",
          "logIndex": "0x1",
          "removed": false
        },
        {
          "address": "0x048255dfef2ebfa7307058ae475a3e2f5ee0df46",
          "topics": [
            "0x0544741ff6f2708047138c8f3a68abb994e628666dba785f685ff1035274f9fb",
            "0xceee63362ce5c16402dad8fd4e3ca0bcabf2e89d099a04b8f644d62aecf8acf0",
            "0x000000000000000000000000d289d1387ae1033a703842d69501d5bec5a6f04e"
          ],
          "data": "0x000000000000000000000000f86c23c1e883ee3b820fb9be75ff91c9a49eae7500000000000000000000000000000000000000000000000000000000000f4240",
          "blockHash": "0x8401eefb0aafd0ebc8c9c53a18fb32766db6c04aebe7cd2ba6bf913cce0d74c0",
          "blockNumber": "0x2e",
          "blockTimestamp": "0x696675cb",
          "transactionHash": "0x11391e719a9c843086597c7e56dbdcea84cbc2bca0c264a3d9ced0a1b7fb5676",
          "transactionIndex": "0x0",
          "logIndex": "0x2",
          "removed": false
        },
        {
          "address": "0x048255dfef2ebfa7307058ae475a3e2f5ee0df46",
          "topics": [
            "0x78160f0b1b2b32b52a0076d8f0f70888687ba702a4d993d55ac8d9327d57a127",
            "0x000000000000000000000000000000000000000000000000000000000000000f",
            "0xf89f96b5a20179e2267b1b61cf709c8a356443b4d0b4bc5f414344f74a9bb5f5",
            "0x4d32a94791afa5902a69b29b4b44d1aa165a332aa64dec3ab6ca8c72d8b56ffc"
          ],
          "data": "0x0544741ff6f2708047138c8f3a68abb994e628666dba785f685ff1035274f9fb00000000000000000000000000000000000000000000000000000000000000400000000000000000000000000000000000000000000000000000000000000080ceee63362ce5c16402dad8fd4e3ca0bcabf2e89d099a04b8f644d62aecf8acf0000000000000000000000000d289d1387ae1033a703842d69501d5bec5a6f04e000000000000000000000000f86c23c1e883ee3b820fb9be75ff91c9a49eae7500000000000000000000000000000000000000000000000000000000000f4240",
          "blockHash": "0x8401eefb0aafd0ebc8c9c53a18fb32766db6c04aebe7cd2ba6bf913cce0d74c0",
          "blockNumber": "0x2e",
          "blockTimestamp": "0x696675cb",
          "transactionHash": "0x11391e719a9c843086597c7e56dbdcea84cbc2bca0c264a3d9ced0a1b7fb5676",
          "transactionIndex": "0x0",
          "logIndex": "0x3",
          "removed": false
        }
      ],
      "logsBloom": "0x00080000000000000000000000000000000000000000000000000000000000000000400000000000000000000000000000000000000000000000000002200000000000000000000804000000000000000004000100000000000000000002000000004000000800004000000000000000000000000000000000000000008000000008008000000800000000400000000008000000000080000000000000000000000000000000808000000000000000000000200200000020200000000000000000000000400000000008020000000000000000000200000000000000000001000000000200000000000000000000100000000000000000000000000000004000",
      "type": "0x0",
      "transactionHash": "0x11391e719a9c843086597c7e56dbdcea84cbc2bca0c264a3d9ced0a1b7fb5676",
      "transactionIndex": "0x0",
      "blockHash": "0x8401eefb0aafd0ebc8c9c53a18fb32766db6c04aebe7cd2ba6bf913cce0d74c0",
      "blockNumber": "0x2e",
      "gasUsed": "0x52d69",
      "effectiveGasPrice": "0x3b9aca00",
      "blobGasPrice": "0x1",
      "from": "0xd289d1387ae1033a703842d69501d5bec5a6f04e",
      "to": "0x048255dfef2ebfa7307058ae475a3e2f5ee0df46",
      "contractAddress": null
    },
    {
      "status": "0x1",
      "cumulativeGasUsed": "0x6994",
      "logs": [],
      "logsBloom": "0x00000000000000000000000000000000000000000000000000000000000000000000000000000000000000000000000000000000000000000000000000000000000000000000000000000000000000000000000000000000000000000000000000000000000000000000000000000000000000000000000000000000000000000000000000000000000000000000000000000000000000000000000000000000000000000000000000000000000000000000000000000000000000000000000000000000000000000000000000000000000000000000000000000000000000000000000000000000000000000000000000000000000000000000000000000000",
      "type": "0x0",
      "transactionHash": "0xfc7396c2a2e51ae3a3b5def07a6ff9cecab38bda018abb50626fd642c2d9713f",
      "transactionIndex": "0x0",
      "blockHash": "0xe498b2fd208e1574222c611a8ef52cccc325adf7773e0c0f4528e75fc0062032",
      "blockNumber": "0x2f",
      "gasUsed": "0x6994",
      "effectiveGasPrice": "0x3b9aca00",
      "blobGasPrice": "0x1",
      "from": "0xd289d1387ae1033a703842d69501d5bec5a6f04e",
      "to": "0x4d4adec97e3e11693f65dedc2d1e6bec784eb2f1",
      "contractAddress": null
    },
    {
      "status": "0x1",
      "cumulativeGasUsed": "0x5fd8",
      "logs": [],
      "logsBloom": "0x00000000000000000000000000000000000000000000000000000000000000000000000000000000000000000000000000000000000000000000000000000000000000000000000000000000000000000000000000000000000000000000000000000000000000000000000000000000000000000000000000000000000000000000000000000000000000000000000000000000000000000000000000000000000000000000000000000000000000000000000000000000000000000000000000000000000000000000000000000000000000000000000000000000000000000000000000000000000000000000000000000000000000000000000000000000",
      "type": "0x0",
      "transactionHash": "0x2909a77014f5dc610f372b5bd09d57957b88c7db95b8d4f932eec59ec14a676e",
      "transactionIndex": "0x0",
      "blockHash": "0x5c6cbca91db805eede1454cf86bfede87d81555745c8b6a849fd8c72365dc077",
      "blockNumber": "0x30",
      "gasUsed": "0x5fd8",
      "effectiveGasPrice": "0x3b9aca00",
      "blobGasPrice": "0x1",
      "from": "0xd289d1387ae1033a703842d69501d5bec5a6f04e",
      "to": "0x4d4adec97e3e11693f65dedc2d1e6bec784eb2f1",
      "contractAddress": null
    },
    {
      "status": "0x1",
      "cumulativeGasUsed": "0x50d2e",
      "logs": [
        {
          "address": "0x048255dfef2ebfa7307058ae475a3e2f5ee0df46",
          "topics": [
            "0x11039d948e58aabf982e09eab3f7ce6db7bf72add1d0b04e63f0697eac16024b",
            "0xee05772a542895427ddf02d6cb47b9027da7949441e78297ad0b8b2608b77382",
            "0x0000000000000000000000008828fd7431d5bb1962d7e067c103b2324fa6bbec",
            "0x00000000000000000000000097629064a9c06865c5b3832f94bb64a8e47bcad7"
          ],
          "data": "0x282866f5067804dadd2e500a0a3d8b5e5d2e5cde385e9ec6a887315613d6f4480000000000000000000000004d4adec97e3e11693f65dedc2d1e6bec784eb2f100000000000000000000000000000000000000000000000000000000000f4240",
          "blockHash": "0xc9d93b812498d2fae629a631a3bbeaf8e9b9705328cac01086df98358ff24b46",
          "blockNumber": "0x31",
          "blockTimestamp": "0x696675ce",
          "transactionHash": "0xcd59a627782cae5af53bb33530ac671f07558a9b0b6d38149ec5001d43ff3c54",
          "transactionIndex": "0x0",
          "logIndex": "0x0",
          "removed": false
        },
        {
          "address": "0x048255dfef2ebfa7307058ae475a3e2f5ee0df46",
          "topics": [
            "0x78160f0b1b2b32b52a0076d8f0f70888687ba702a4d993d55ac8d9327d57a127",
            "0x0000000000000000000000000000000000000000000000000000000000000010",
            "0x4d32a94791afa5902a69b29b4b44d1aa165a332aa64dec3ab6ca8c72d8b56ffc",
            "0x001292a54e47c86dddb5cb531961a3c3d9f6faa04c755632c6acca5441293b08"
          ],
          "data": "0x11039d948e58aabf982e09eab3f7ce6db7bf72add1d0b04e63f0697eac16024b000000000000000000000000000000000000000000000000000000000000004000000000000000000000000000000000000000000000000000000000000000c0ee05772a542895427ddf02d6cb47b9027da7949441e78297ad0b8b2608b773820000000000000000000000008828fd7431d5bb1962d7e067c103b2324fa6bbec00000000000000000000000097629064a9c06865c5b3832f94bb64a8e47bcad7282866f5067804dadd2e500a0a3d8b5e5d2e5cde385e9ec6a887315613d6f4480000000000000000000000004d4adec97e3e11693f65dedc2d1e6bec784eb2f100000000000000000000000000000000000000000000000000000000000f4240",
          "blockHash": "0xc9d93b812498d2fae629a631a3bbeaf8e9b9705328cac01086df98358ff24b46",
          "blockNumber": "0x31",
          "blockTimestamp": "0x696675ce",
          "transactionHash": "0xcd59a627782cae5af53bb33530ac671f07558a9b0b6d38149ec5001d43ff3c54",
          "transactionIndex": "0x0",
          "logIndex": "0x1",
          "removed": false
        },
        {
          "address": "0x048255dfef2ebfa7307058ae475a3e2f5ee0df46",
          "topics": [
            "0xc853b9fbc6265708cfc473efd1ce29b19a3616b3edccaeaf71a4a6b778cb010e",
            "0xee05772a542895427ddf02d6cb47b9027da7949441e78297ad0b8b2608b77382"
          ],
          "data": "0x0000000000000000000000000000000000000000000000000000000000002710000000000000000000000000000000000000000000000000000000000000007b00000000000000000000000000000000000000000000000000000000000f1ab5",
          "blockHash": "0xc9d93b812498d2fae629a631a3bbeaf8e9b9705328cac01086df98358ff24b46",
          "blockNumber": "0x31",
          "blockTimestamp": "0x696675ce",
          "transactionHash": "0xcd59a627782cae5af53bb33530ac671f07558a9b0b6d38149ec5001d43ff3c54",
          "transactionIndex": "0x0",
          "logIndex": "0x2",
          "removed": false
        },
        {
          "address": "0x048255dfef2ebfa7307058ae475a3e2f5ee0df46",
          "topics": [
            "0x78160f0b1b2b32b52a0076d8f0f70888687ba702a4d993d55ac8d9327d57a127",
            "0x0000000000000000000000000000000000000000000000000000000000000011",
            "0x001292a54e47c86dddb5cb531961a3c3d9f6faa04c755632c6acca5441293b08",
            "0xb1f52ec5933fb7337f0d25075bb759c812cfe831052e50bd0b449e31c46a6996"
          ],
          "data": "0xc853b9fbc6265708cfc473efd1ce29b19a3616b3edccaeaf71a4a6b778cb010e00000000000000000000000000000000000000000000000000000000000000400000000000000000000000000000000000000000000000000000000000000080ee05772a542895427ddf02d6cb47b9027da7949441e78297ad0b8b2608b773820000000000000000000000000000000000000000000000000000000000002710000000000000000000000000000000000000000000000000000000000000007b00000000000000000000000000000000000000000000000000000000000f1ab5",
          "blockHash": "0xc9d93b812498d2fae629a631a3bbeaf8e9b9705328cac01086df98358ff24b46",
          "blockNumber": "0x31",
          "blockTimestamp": "0x696675ce",
          "transactionHash": "0xcd59a627782cae5af53bb33530ac671f07558a9b0b6d38149ec5001d43ff3c54",
          "transactionIndex": "0x0",
          "logIndex": "0x3",
          "removed": false
        },
        {
          "address": "0x048255dfef2ebfa7307058ae475a3e2f5ee0df46",
          "topics": [
            "0x6f81b8ad0780a0febc687a3a73b181433722b4be30f7f0a024169f5161267287",
            "0xee05772a542895427ddf02d6cb47b9027da7949441e78297ad0b8b2608b77382",
            "0x000000000000000000000000d289d1387ae1033a703842d69501d5bec5a6f04e"
          ],
          "data": "0x00000000000000000000000000000000000000000000000000000000000000010000000000000000000000004d4adec97e3e11693f65dedc2d1e6bec784eb2f100000000000000000000000000000000000000000000000000000000000f4240000000000000000000000000d289d1387ae1033a703842d69501d5bec5a6f04e000000000000000000000000000000000000000000000000000000006967c74e00000000000000000000000000000000000000000000000000000000000000c0000000000000000000000000000000000000000000000000000000000000004000000000000000000000000097629064a9c06865c5b3832f94bb64a8e47bcad700000000000000000000000000000000000000000000000000000000000f1ab5",
          "blockHash": "0xc9d93b812498d2fae629a631a3bbeaf8e9b9705328cac01086df98358ff24b46",
          "blockNumber": "0x31",
          "blockTimestamp": "0x696675ce",
          "transactionHash": "0xcd59a627782cae5af53bb33530ac671f07558a9b0b6d38149ec5001d43ff3c54",
          "transactionIndex": "0x0",
          "logIndex": "0x4",
          "removed": false
        },
        {
          "address": "0x048255dfef2ebfa7307058ae475a3e2f5ee0df46",
          "topics": [
            "0x78160f0b1b2b32b52a0076d8f0f70888687ba702a4d993d55ac8d9327d57a127",
            "0x0000000000000000000000000000000000000000000000000000000000000012",
            "0xb1f52ec5933fb7337f0d25075bb759c812cfe831052e50bd0b449e31c46a6996",
            "0xc393dcc2f4772c8801d0ca7ed6b4630c10b16f49cf67cfb67ecc007bd842f077"
          ],
          "data": "0x6f81b8ad0780a0febc687a3a73b181433722b4be30f7f0a024169f516126728700000000000000000000000000000000000000000000000000000000000000400000000000000000000000000000000000000000000000000000000000000160ee05772a542895427ddf02d6cb47b9027da7949441e78297ad0b8b2608b77382000000000000000000000000d289d1387ae1033a703842d69501d5bec5a6f04e00000000000000000000000000000000000000000000000000000000000000010000000000000000000000004d4adec97e3e11693f65dedc2d1e6bec784eb2f100000000000000000000000000000000000000000000000000000000000f4240000000000000000000000000d289d1387ae1033a703842d69501d5bec5a6f04e000000000000000000000000000000000000000000000000000000006967c74e0000000000000000000000000000000000000000000000000000000000000100000000000000000000000000000000000000000000000000000000000000004000000000000000000000000097629064a9c06865c5b3832f94bb64a8e47bcad700000000000000000000000000000000000000000000000000000000000f1ab5",
          "blockHash": "0xc9d93b812498d2fae629a631a3bbeaf8e9b9705328cac01086df98358ff24b46",
          "blockNumber": "0x31",
          "blockTimestamp": "0x696675ce",
          "transactionHash": "0xcd59a627782cae5af53bb33530ac671f07558a9b0b6d38149ec5001d43ff3c54",
          "transactionIndex": "0x0",
          "logIndex": "0x5",
          "removed": false
        },
        {
          "address": "0x048255dfef2ebfa7307058ae475a3e2f5ee0df46",
          "topics": [
            "0xbc3f7b7e77a395c156c24db8a8a7850209b2df71a2561292eea221e32bf5d467",
            "0xee05772a542895427ddf02d6cb47b9027da7949441e78297ad0b8b2608b77382",
            "0x000000000000000000000000d289d1387ae1033a703842d69501d5bec5a6f04e"
          ],
          "data": "0x00000000000000000000000000000000000000000000000000000000000f4240",
          "blockHash": "0xc9d93b812498d2fae629a631a3bbeaf8e9b9705328cac01086df98358ff24b46",
          "blockNumber": "0x31",
          "blockTimestamp": "0x696675ce",
          "transactionHash": "0xcd59a627782cae5af53bb33530ac671f07558a9b0b6d38149ec5001d43ff3c54",
          "transactionIndex": "0x0",
          "logIndex": "0x6",
          "removed": false
        },
        {
          "address": "0x048255dfef2ebfa7307058ae475a3e2f5ee0df46",
          "topics": [
            "0x78160f0b1b2b32b52a0076d8f0f70888687ba702a4d993d55ac8d9327d57a127",
            "0x0000000000000000000000000000000000000000000000000000000000000013",
            "0xc393dcc2f4772c8801d0ca7ed6b4630c10b16f49cf67cfb67ecc007bd842f077",
            "0x385e97a560314e7759ed0870245585b74103990e33c527e2ebcd56069183bab5"
          ],
          "data": "0xbc3f7b7e77a395c156c24db8a8a7850209b2df71a2561292eea221e32bf5d46700000000000000000000000000000000000000000000000000000000000000400000000000000000000000000000000000000000000000000000000000000060ee05772a542895427ddf02d6cb47b9027da7949441e78297ad0b8b2608b77382000000000000000000000000d289d1387ae1033a703842d69501d5bec5a6f04e00000000000000000000000000000000000000000000000000000000000f4240",
          "blockHash": "0xc9d93b812498d2fae629a631a3bbeaf8e9b9705328cac01086df98358ff24b46",
          "blockNumber": "0x31",
          "blockTimestamp": "0x696675ce",
          "transactionHash": "0xcd59a627782cae5af53bb33530ac671f07558a9b0b6d38149ec5001d43ff3c54",
          "transactionIndex": "0x0",
          "logIndex": "0x7",
          "removed": false
        }
      ],
      "logsBloom": "0x200c0080180000002000000000800000000000000800002000000000000000000000000040810000000000000000000000000000000000000000000001300000000000000000000004000000000010000800000104000004000000000000000000004000500800004000000000840000000000024000000400004000040000000000000000000000000000000000140010000100000000000000000000000000000000000000008000000000000000000000200200000040202000000400000100001000400000000400000000000000000000010200000000000000000000040000002000000000000000000000100000000000000000000000000000004002",
      "type": "0x0",
      "transactionHash": "0xcd59a627782cae5af53bb33530ac671f07558a9b0b6d38149ec5001d43ff3c54",
      "transactionIndex": "0x0",
      "blockHash": "0xc9d93b812498d2fae629a631a3bbeaf8e9b9705328cac01086df98358ff24b46",
      "blockNumber": "0x31",
      "gasUsed": "0x50d2e",
      "effectiveGasPrice": "0x3b9aca00",
      "blobGasPrice": "0x1",
      "from": "0xd289d1387ae1033a703842d69501d5bec5a6f04e",
      "to": "0x048255dfef2ebfa7307058ae475a3e2f5ee0df46",
      "contractAddress": null
    },
    {
      "status": "0x1",
      "cumulativeGasUsed": "0xac60",
      "logs": [],
      "logsBloom": "0x00000000000000000000000000000000000000000000000000000000000000000000000000000000000000000000000000000000000000000000000000000000000000000000000000000000000000000000000000000000000000000000000000000000000000000000000000000000000000000000000000000000000000000000000000000000000000000000000000000000000000000000000000000000000000000000000000000000000000000000000000000000000000000000000000000000000000000000000000000000000000000000000000000000000000000000000000000000000000000000000000000000000000000000000000000000",
      "type": "0x0",
      "transactionHash": "0x64e2fcdf1bfaab2165407d335037d6a5e13a34ab7d29d6a9c538ed92ef403ca7",
      "transactionIndex": "0x0",
      "blockHash": "0xb25a716f40029a5ce9a9a95e6682096a87165130116c6eb8943ca4c5288052ab",
      "blockNumber": "0x32",
      "gasUsed": "0xac60",
      "effectiveGasPrice": "0x3b9aca00",
      "blobGasPrice": "0x1",
      "from": "0xd289d1387ae1033a703842d69501d5bec5a6f04e",
      "to": "0x4d4adec97e3e11693f65dedc2d1e6bec784eb2f1",
      "contractAddress": null
    },
    {
      "status": "0x1",
      "cumulativeGasUsed": "0x3d7f7",
      "logs": [
        {
          "address": "0x8828fd7431d5bb1962d7e067c103b2324fa6bbec",
          "topics": [
            "0x7391f14355eff1e559e381f5bf49886a77da7c4fdd33c6fc2e0142269c561c59",
            "0x39f7cee325f73ecacb1adc2e83b54a8d98a7670dbff3a1be1b9127ecae7643f6",
            "0x7eb964445de6c2e66bcec24d55b50c465b3b27091b6d503c1897ac7d99ecbe35",
            "0x38cb7bc9535f8b89744a14dd2acfe7dcc993eb5f668dfbcb95bdf21a839e2ec0"
          ],
          "data": "0x805137159b1f1225efc7ae36f6b216b76c0e9bed085c4220b2f702fde8defd0400000000000000000000000000000000000000000000000000000000000000de000000000000000000000000048255dfef2ebfa7307058ae475a3e2f5ee0df460000000000000000000000000000000000000000000000000000000000000001000000000000000000000000000000000000000000000000000000000098983c0000000000000000000000004d4adec97e3e11693f65dedc2d1e6bec784eb2f10000000000000000000000004d4adec97e3e11693f65dedc2d1e6bec784eb2f10000000000000000000000001a8d6663d71dd8aeb9d90c08bbdb80b7f36247830000000000000000000000001a8d6663d71dd8aeb9d90c08bbdb80b7f3624783",
          "blockHash": "0xd066ae4c546c645d9366855e48c593034bc0396c43900de3ef636c039589bb9d",
          "blockNumber": "0x33",
          "blockTimestamp": "0x696675d0",
          "transactionHash": "0xcbe5d9d7bd237d30eaa12fff350841b24b1e6853f3791ba777cb2bc199979a3a",
          "transactionIndex": "0x0",
          "logIndex": "0x0",
          "removed": false
        },
        {
          "address": "0x8828fd7431d5bb1962d7e067c103b2324fa6bbec",
          "topics": [
            "0x78160f0b1b2b32b52a0076d8f0f70888687ba702a4d993d55ac8d9327d57a127",
            "0x0000000000000000000000000000000000000000000000000000000000000010",
            "0x142a89b269ae2fa040e48966c86c28069373fc2bf5df890cc9f4ddac0fb95331",
            "0xe7936ec397faef2ef33e7a38f75e562749ac57afe64300e28f332a7de5ec1d25"
          ],
          "data": "0x7391f14355eff1e559e381f5bf49886a77da7c4fdd33c6fc2e0142269c561c590000000000000000000000000000000000000000000000000000000000000040000000000000000000000000000000000000000000000000000000000000018039f7cee325f73ecacb1adc2e83b54a8d98a7670dbff3a1be1b9127ecae7643f67eb964445de6c2e66bcec24d55b50c465b3b27091b6d503c1897ac7d99ecbe3538cb7bc9535f8b89744a14dd2acfe7dcc993eb5f668dfbcb95bdf21a839e2ec0805137159b1f1225efc7ae36f6b216b76c0e9bed085c4220b2f702fde8defd0400000000000000000000000000000000000000000000000000000000000000de000000000000000000000000048255dfef2ebfa7307058ae475a3e2f5ee0df460000000000000000000000000000000000000000000000000000000000000001000000000000000000000000000000000000000000000000000000000098983c0000000000000000000000004d4adec97e3e11693f65dedc2d1e6bec784eb2f10000000000000000000000004d4adec97e3e11693f65dedc2d1e6bec784eb2f10000000000000000000000001a8d6663d71dd8aeb9d90c08bbdb80b7f36247830000000000000000000000001a8d6663d71dd8aeb9d90c08bbdb80b7f3624783",
          "blockHash": "0xd066ae4c546c645d9366855e48c593034bc0396c43900de3ef636c039589bb9d",
          "blockNumber": "0x33",
          "blockTimestamp": "0x696675d0",
          "transactionHash": "0xcbe5d9d7bd237d30eaa12fff350841b24b1e6853f3791ba777cb2bc199979a3a",
          "transactionIndex": "0x0",
          "logIndex": "0x1",
          "removed": false
        },
        {
          "address": "0x8828fd7431d5bb1962d7e067c103b2324fa6bbec",
          "topics": [
            "0x488f06a9ca9e19e1dd90c764cc79b765e8a3a089ef27d9a0e39dee21c7643188",
            "0x9e9ff42b12a82f00eebbbab16cfa643f508f9161d185379a4b30a6805e50e630",
            "0x0000000000000000000000001a8d6663d71dd8aeb9d90c08bbdb80b7f3624783"
          ],
          "data": "0x000000000000000000000000e007a594267d5b9a4f5bf6fd054579eb82f5a057",
          "blockHash": "0xd066ae4c546c645d9366855e48c593034bc0396c43900de3ef636c039589bb9d",
          "blockNumber": "0x33",
          "blockTimestamp": "0x696675d0",
          "transactionHash": "0xcbe5d9d7bd237d30eaa12fff350841b24b1e6853f3791ba777cb2bc199979a3a",
          "transactionIndex": "0x0",
          "logIndex": "0x2",
          "removed": false
        },
        {
          "address": "0x8828fd7431d5bb1962d7e067c103b2324fa6bbec",
          "topics": [
            "0x78160f0b1b2b32b52a0076d8f0f70888687ba702a4d993d55ac8d9327d57a127",
            "0x0000000000000000000000000000000000000000000000000000000000000011",
            "0xe7936ec397faef2ef33e7a38f75e562749ac57afe64300e28f332a7de5ec1d25",
            "0x1c7320b13da02f4b9e0ec98f5ae16c8145ca57487d7a6600619fb1315141f6a7"
          ],
          "data": "0x488f06a9ca9e19e1dd90c764cc79b765e8a3a089ef27d9a0e39dee21c7643188000000000000000000000000000000000000000000000000000000000000004000000000000000000000000000000000000000000000000000000000000000609e9ff42b12a82f00eebbbab16cfa643f508f9161d185379a4b30a6805e50e6300000000000000000000000001a8d6663d71dd8aeb9d90c08bbdb80b7f3624783000000000000000000000000e007a594267d5b9a4f5bf6fd054579eb82f5a057",
          "blockHash": "0xd066ae4c546c645d9366855e48c593034bc0396c43900de3ef636c039589bb9d",
          "blockNumber": "0x33",
          "blockTimestamp": "0x696675d0",
          "transactionHash": "0xcbe5d9d7bd237d30eaa12fff350841b24b1e6853f3791ba777cb2bc199979a3a",
          "transactionIndex": "0x0",
          "logIndex": "0x3",
          "removed": false
        },
        {
          "address": "0x8828fd7431d5bb1962d7e067c103b2324fa6bbec",
          "topics": [
            "0x2dfcf646f953b41d2cd9d30bcf3f6cda5248efcd7733adff3a25e88f35b8afcb",
            "0x39f7cee325f73ecacb1adc2e83b54a8d98a7670dbff3a1be1b9127ecae7643f6",
            "0x000000000000000000000000c5ea444a0f556f5b227ec7447294d91086bb692c",
            "0x0000000000000000000000004d4adec97e3e11693f65dedc2d1e6bec784eb2f1"
          ],
          "data": "0x000000000000000000000000000000000000000000000000000000000098983c00000000000000000000000000000000000000000000000000000000000000de",
          "blockHash": "0xd066ae4c546c645d9366855e48c593034bc0396c43900de3ef636c039589bb9d",
          "blockNumber": "0x33",
          "blockTimestamp": "0x696675d0",
          "transactionHash": "0xcbe5d9d7bd237d30eaa12fff350841b24b1e6853f3791ba777cb2bc199979a3a",
          "transactionIndex": "0x0",
          "logIndex": "0x4",
          "removed": false
        },
        {
          "address": "0x8828fd7431d5bb1962d7e067c103b2324fa6bbec",
          "topics": [
            "0x78160f0b1b2b32b52a0076d8f0f70888687ba702a4d993d55ac8d9327d57a127",
            "0x0000000000000000000000000000000000000000000000000000000000000012",
            "0x1c7320b13da02f4b9e0ec98f5ae16c8145ca57487d7a6600619fb1315141f6a7",
            "0x32ca4f60bbccb56f379bbfac6e51ee6335aa62fff45de5b15c0ec06add99877f"
          ],
          "data": "0x2dfcf646f953b41d2cd9d30bcf3f6cda5248efcd7733adff3a25e88f35b8afcb000000000000000000000000000000000000000000000000000000000000004000000000000000000000000000000000000000000000000000000000000000a039f7cee325f73ecacb1adc2e83b54a8d98a7670dbff3a1be1b9127ecae7643f6000000000000000000000000c5ea444a0f556f5b227ec7447294d91086bb692c0000000000000000000000004d4adec97e3e11693f65dedc2d1e6bec784eb2f1000000000000000000000000000000000000000000000000000000000098983c00000000000000000000000000000000000000000000000000000000000000de",
          "blockHash": "0xd066ae4c546c645d9366855e48c593034bc0396c43900de3ef636c039589bb9d",
          "blockNumber": "0x33",
          "blockTimestamp": "0x696675d0",
          "transactionHash": "0xcbe5d9d7bd237d30eaa12fff350841b24b1e6853f3791ba777cb2bc199979a3a",
          "transactionIndex": "0x0",
          "logIndex": "0x5",
          "removed": false
        },
        {
          "address": "0x8828fd7431d5bb1962d7e067c103b2324fa6bbec",
          "topics": [
            "0x2e659081f44c4f56a18b00f3f9d136d7ee8396bc79163c4d61363ddcf4a4cb27",
            "0x39f7cee325f73ecacb1adc2e83b54a8d98a7670dbff3a1be1b9127ecae7643f6"
          ],
          "data": "0x0000000000000000000000000000000000000000000000000000000000000001000000000000000000000000000000000000000000000000000000000098983c000000000000000000000000000000000000000000000000000000000098983c000000000000000000000000000000000000000000000000000000000000000000000000000000000000000000000000000000000000000000000000000000000000000000000000000000000000000000000000000000000000000000000000000000000000000000000000c5ea444a0f556f5b227ec7447294d91086bb692c000000000000000000000000000000000000000000000000000000000098983cc5d2460186f7233c927e7db2dcc703c0e500b653ca82273b7bfad8045d85a470",
          "blockHash": "0xd066ae4c546c645d9366855e48c593034bc0396c43900de3ef636c039589bb9d",
          "blockNumber": "0x33",
          "blockTimestamp": "0x696675d0",
          "transactionHash": "0xcbe5d9d7bd237d30eaa12fff350841b24b1e6853f3791ba777cb2bc199979a3a",
          "transactionIndex": "0x0",
          "logIndex": "0x6",
          "removed": false
        },
        {
          "address": "0x8828fd7431d5bb1962d7e067c103b2324fa6bbec",
          "topics": [
            "0x78160f0b1b2b32b52a0076d8f0f70888687ba702a4d993d55ac8d9327d57a127",
            "0x0000000000000000000000000000000000000000000000000000000000000013",
            "0x32ca4f60bbccb56f379bbfac6e51ee6335aa62fff45de5b15c0ec06add99877f",
            "0xe13374ae0288eefa6eb88b276d07ed455529ff5138beb25aa13e24dc62ac5fc5"
          ],
          "data": "0x2e659081f44c4f56a18b00f3f9d136d7ee8396bc79163c4d61363ddcf4a4cb270000000000000000000000000000000000000000000000000000000000000040000000000000000000000000000000000000000000000000000000000000014039f7cee325f73ecacb1adc2e83b54a8d98a7670dbff3a1be1b9127ecae7643f60000000000000000000000000000000000000000000000000000000000000001000000000000000000000000000000000000000000000000000000000098983c000000000000000000000000000000000000000000000000000000000098983c000000000000000000000000000000000000000000000000000000000000000000000000000000000000000000000000000000000000000000000000000000000000000000000000000000000000000000000000000000000000000000000000000000000000000000000000c5ea444a0f556f5b227ec7447294d91086bb692c000000000000000000000000000000000000000000000000000000000098983cc5d2460186f7233c927e7db2dcc703c0e500b653ca82273b7bfad8045d85a470",
          "blockHash": "0xd066ae4c546c645d9366855e48c593034bc0396c43900de3ef636c039589bb9d",
          "blockNumber": "0x33",
          "blockTimestamp": "0x696675d0",
          "transactionHash": "0xcbe5d9d7bd237d30eaa12fff350841b24b1e6853f3791ba777cb2bc199979a3a",
          "transactionIndex": "0x0",
          "logIndex": "0x7",
          "removed": false
        }
      ],
      "logsBloom": "0x200080011000000000000000008000000000000008000000000000000000020000001002400000000200020000000000000000000000000010001000002000000000000002000020011000104000008000000000001000000c0000100000000000000020000800000000000400040008000000004000000080000800040000000000000000040080000000000000040000000120000000020000000600000000000000000000400000000000000000000000000010010040080100000400800000201000000008000400000000000000000001000000000400000000000000000000400000080002000000440000000100000000000000000200000400004000",
      "type": "0x0",
      "transactionHash": "0xcbe5d9d7bd237d30eaa12fff350841b24b1e6853f3791ba777cb2bc199979a3a",
      "transactionIndex": "0x0",
      "blockHash": "0xd066ae4c546c645d9366855e48c593034bc0396c43900de3ef636c039589bb9d",
      "blockNumber": "0x33",
      "gasUsed": "0x3d7f7",
      "effectiveGasPrice": "0x3b9aca00",
      "blobGasPrice": "0x1",
      "from": "0xd289d1387ae1033a703842d69501d5bec5a6f04e",
      "to": "0x8828fd7431d5bb1962d7e067c103b2324fa6bbec",
      "contractAddress": null
    }
  ],
  "libraries": [],
  "pending": [],
  "returns": {},
  "timestamp": 1768322509668,
  "chain": 444,
  "commit": "24bfcfb"
}