{
  "transactions": [
    {
      "hash": "0x7bc7cd8f60151c3203742a0ae4182f1c9849671ec2396b347a85d4e47766c013",
      "transactionType": "CREATE",
      "contractName": "ExactBridger",
      "contractAddress": "0x0be19c78706c441de4178a2266a650e47160eda7",
      "function": null,
      "arguments": null,
      "transaction": {
        "from": "0xd289d1387ae1033a703842d69501d5bec5a6f04e",
        "value": "0x0",
        "input": "0x60808060405234601557610521908161001a8239f35b5f80fdfe608080604052600436101561001c575b50361561001a575f80fd5b005b5f3560e01c9081631fce5d1114610478575080632267cb0814610450578063463d1fca146104335780637f8945821461035557806384def41c1461033c57806389c905d21461031f578063a678341d14610302578063b14d361d146100ac5763ff7b2edd1461008b575f61000f565b346100a8575f3660031901126100a8576020600654604051908152f35b5f80fd5b60a03660031901126100a8576004356001600160a01b038116908190036100a8576044356001600160a01b03811691602435918390036100a8576084359267ffffffffffffffff84116100a857366023850112156100a85783600401359167ffffffffffffffff83116100a85736602484870101116100a8576bffffffffffffffffffffffff60a01b5f5416175f55826001556bffffffffffffffffffffffff60a01b600254161760025560643560035561016860045461049a565b601f811161029a575b505f601f8211600114610227578192935f92610219575b50508160011b915f199060031b1c1916176004555b34600555600654806101b5575b602082604051908152f35b5f80808093335af13d15610214573d67ffffffffffffffff811161020057604051906101eb601f8201601f1916602001836104d2565b81525f60203d92013e5b156100a857816101aa565b634e487b7160e01b5f52604160045260245ffd5b6101f5565b602492500101358380610188565b601f1982169360045f525f5160206104f55f395f51905f52915f5b86811061027f5750836001959610610263575b505050811b0160045561019d565b01602401355f19600384901b60f8161c19169055838080610255565b90926020600181926024878701013581550194019101610242565b60045f52601f820160051c5f5160206104f55f395f51905f520190602083106102ed575b601f0160051c5f5160206104f55f395f51905f5201905b8181106102e25750610171565b5f81556001016102d5565b5f5160206104f55f395f51905f5291506102be565b346100a8575f3660031901126100a8576020600354604051908152f35b346100a8575f3660031901126100a8576020600154604051908152f35b346100a85760203660031901126100a857600435600655005b346100a8575f3660031901126100a857604051600454905f6103768361049a565b80835260208301936001811690811561041857506001146103cd575b50906103a28160409303826104d2565b8151928391602083525180918160208501528484015e5f828201840152601f01601f19168101030190f35b91905060045f525f5160206104f55f395f51905f52915f905b8082106103fe575090915081016020016103a2610392565b9192600181602092548385880101520191019092916103e6565b60ff1916855250151560051b820160200190506103a2610392565b346100a8575f3660031901126100a8576020600554604051908152f35b346100a8575f3660031901126100a8576002546040516001600160a01b039091168152602090f35b346100a8575f3660031901126100a8575f546001600160a01b03168152602090f35b90600182811c921680156104c8575b60208310146104b457565b634e487b7160e01b5f52602260045260245ffd5b91607f16916104a9565b90601f8019910116810190811067ffffffffffffffff8211176102005760405256fe8a35acfbc15ff81a39ae7d344fd709f28e8600b4aa8c65c6b64bfe7fe36bd19ba164736f6c634300081b000a",
        "nonce": "0xc",
        "chainId": "0x1bc"
      },
      "additionalContracts": [],
      "isFixedGasLimit": false
    },
    {
      "hash": "0x7229f9dc24caa654c63e7128331481239f501956fab5ef0d85ea817518bd82b8",
      "transactionType": "CALL",
      "contractName": null,
      "contractAddress": "0x8828fd7431d5bb1962d7e067c103b2324fa6bbec",
      "function": "setBridgers(address,address)",
      "arguments": [
        "0x0bE19C78706c441dE4178a2266a650E47160Eda7",
        "0x0bE19C78706c441dE4178a2266a650E47160Eda7"
      ],
      "transaction": {
        "from": "0xd289d1387ae1033a703842d69501d5bec5a6f04e",
        "to": "0x8828fd7431d5bb1962d7e067c103b2324fa6bbec",
        "value": "0x0",
        "input": "0x2b0f3ee40000000000000000000000000be19c78706c441de4178a2266a650e47160eda70000000000000000000000000be19c78706c441de4178a2266a650e47160eda7",
        "nonce": "0xd",
        "chainId": "0x1bc"
      },
      "additionalContracts": [],
      "isFixedGasLimit": false
    },
    {
      "hash": "0x9b963a4bc6ecf2346e7adf12b492217d66c5a337c414d6f99e799b36873251a0",
      "transactionType": "CREATE",
      "contractName": "MockQuoter",
      "contractAddress": "0x481e836be187303c64f269bc7fe2c52f7f7c6eef",
      "function": null,
      "arguments": null,
      "transaction": {
        "from": "0xd289d1387ae1033a703842d69501d5bec5a6f04e",
        "value": "0x0",
        "input": "0x6080806040523460155761015b908161001a8239f35b5f80fdfe6080806040526004361015610012575f80fd5b5f3560e01c90816346ee8d001461010957508063520b9355146100c15780636813d78714610091578063d3072d821461006f5763e21a560214610053575f80fd5b3461006b57602036600319011261006b576004355f55005b5f80fd5b3461006b575f36600319011261006b57602060ff600154166040519015158152f35b3461006b57602036600319011261006b5760043580151580910361006b5760ff8019600154169116176001555f80f35b3461006b57608036600319011261006b576100da610122565b506100e3610138565b5060ff600154166100fa5760205f54604051908152f35b631f6b7cef60e11b5f5260045ffd5b3461006b575f36600319011261006b576020905f548152f35b600435906001600160a01b038216820361006b57565b602435906001600160a01b038216820361006b5756fea164736f6c634300081b000a",
        "nonce": "0xe",
        "chainId": "0x1bc"
      },
      "additionalContracts": [],
      "isFixedGasLimit": false
    },
    {
      "hash": "0x78ead996c6665faaad59b3859eeea0c11bb264da3b06a1f216e1c860aa3b51d1",
      "transactionType": "CALL",
      "contractName": "MockQuoter",
      "contractAddress": "0x481e836be187303c64f269bc7fe2c52f7f7c6eef",
      "function": "setAmountOut(uint256)",
      "arguments": [
        "90000000"
      ],
      "transaction": {
        "from": "0xd289d1387ae1033a703842d69501d5bec5a6f04e",
        "to": "0x481e836be187303c64f269bc7fe2c52f7f7c6eef",
        "value": "0x0",
        "input": "0xe21a560200000000000000000000000000000000000000000000000000000000055d4a80",
        "nonce": "0xf",
        "chainId": "0x1bc"
      },
      "additionalContracts": [],
      "isFixedGasLimit": false
    },
    {
      "hash": "0x4b635eba678338a1f568eedc66fc507bbbfd26ce178bef78a4aa6e8c17afc29d",
      "transactionType": "CALL",
      "contractName": null,
      "contractAddress": "0x8828fd7431d5bb1962d7e067c103b2324fa6bbec",
      "function": "setQuoter(address,address)",
      "arguments": [
        "0x4D4aDEc97e3e11693F65dEDC2D1e6Bec784eB2F1",
        "0x481e836bE187303c64F269Bc7fe2C52F7f7c6eEf"
      ],
      "transaction": {
        "from": "0xd289d1387ae1033a703842d69501d5bec5a6f04e",
        "to": "0x8828fd7431d5bb1962d7e067c103b2324fa6bbec",
        "value": "0x0",
        "input": "0x6264257a0000000000000000000000004d4adec97e3e11693f65dedc2d1e6bec784eb2f1000000000000000000000000481e836be187303c64f269bc7fe2c52f7f7c6eef",
        "nonce": "0x10",
        "chainId": "0x1bc"
      },
      "additionalContracts": [],
      "isFixedGasLimit": false
    },
    {
      "hash": "0x753de042ae1f2a5129fe9044782f80d45c55603f6995fadad7b8b51e3a3d4044",
      "transactionType": "CALL",
      "contractName": null,
      "contractAddress": "0x048255dfef2ebfa7307058ae475a3e2f5ee0df46",
      "function": "setRecommendedIntentFee(uint256,uint256)",
      "arguments": [
        "10000",
        "123"
      ],
      "transaction": {
        "from": "0xd289d1387ae1033a703842d69501d5bec5a6f04e",
        "to": "0x048255dfef2ebfa7307058ae475a3e2f5ee0df46",
        "value": "0x0",
        "input": "0xf2af970b0000000000000000000000000000000000000000000000000000000000002710000000000000000000000000000000000000000000000000000000000000007b",
        "nonce": "0x11",
        "chainId": "0x1bc"
      },
      "additionalContracts": [],
      "isFixedGasLimit": false
    },
    {
      "hash": "0x8707a197319b71fc0982327eeae8cc21df02d42fe186154c00944ef03f33cf10",
      "transactionType": "CREATE",
      "contractName": "MockQuoter",
      "contractAddress": "0x6b0f32ae157cf4f7d9b402c4e243e9088207dd87",
      "function": null,
      "arguments": null,
      "transaction": {
        "from": "0xd289d1387ae1033a703842d69501d5bec5a6f04e",
        "value": "0x0",
        "input": "0x6080806040523460155761015b908161001a8239f35b5f80fdfe6080806040526004361015610012575f80fd5b5f3560e01c90816346ee8d001461010957508063520b9355146100c15780636813d78714610091578063d3072d821461006f5763e21a560214610053575f80fd5b3461006b57602036600319011261006b576004355f55005b5f80fd5b3461006b575f36600319011261006b57602060ff600154166040519015158152f35b3461006b57602036600319011261006b5760043580151580910361006b5760ff8019600154169116176001555f80f35b3461006b57608036600319011261006b576100da610122565b506100e3610138565b5060ff600154166100fa5760205f54604051908152f35b631f6b7cef60e11b5f5260045ffd5b3461006b575f36600319011261006b576020905f548152f35b600435906001600160a01b038216820361006b57565b602435906001600160a01b038216820361006b5756fea164736f6c634300081b000a",
        "nonce": "0x12",
        "chainId": "0x1bc"
      },
      "additionalContracts": [],
      "isFixedGasLimit": false
    },
    {
      "hash": "0xaf999a2900874b24a9435a05f50dc149b0efcdfb2d3e9df20e6e9ec12bada379",
      "transactionType": "CALL",
      "contractName": "MockQuoter",
      "contractAddress": "0x6b0f32ae157cf4f7d9b402c4e243e9088207dd87",
      "function": "setAmountOut(uint256)",
      "arguments": [
        "90000000"
      ],
      "transaction": {
        "from": "0xd289d1387ae1033a703842d69501d5bec5a6f04e",
        "to": "0x6b0f32ae157cf4f7d9b402c4e243e9088207dd87",
        "value": "0x0",
        "input": "0xe21a560200000000000000000000000000000000000000000000000000000000055d4a80",
        "nonce": "0x13",
        "chainId": "0x1bc"
      },
      "additionalContracts": [],
      "isFixedGasLimit": false
    },
    {
      "hash": "0xafdca55f2e0800f57137546d4a95c28041789555878d8571f7b124d106d50f4d",
      "transactionType": "CALL",
      "contractName": null,
      "contractAddress": "0x8828fd7431d5bb1962d7e067c103b2324fa6bbec",
      "function": "setQuoter(address,address)",
      "arguments": [
        "0x4D4aDEc97e3e11693F65dEDC2D1e6Bec784eB2F1",
        "0x6b0f32ae157CF4F7d9B402c4e243E9088207dD87"
      ],
      "transaction": {
        "from": "0xd289d1387ae1033a703842d69501d5bec5a6f04e",
        "to": "0x8828fd7431d5bb1962d7e067c103b2324fa6bbec",
        "value": "0x0",
        "input": "0x6264257a0000000000000000000000004d4adec97e3e11693f65dedc2d1e6bec784eb2f10000000000000000000000006b0f32ae157cf4f7d9b402c4e243e9088207dd87",
        "nonce": "0x14",
        "chainId": "0x1bc"
      },
      "additionalContracts": [],
      "isFixedGasLimit": false
    },
    {
      "hash": "0x98fc17cdb726df30d803f2bd22fd3857476915d4e5b0d42b8033d4812cb70688",
      "transactionType": "CREATE",
      "contractName": "MockTransportBridger",
      "contractAddress": "0xc5ea444a0f556f5b227ec7447294d91086bb692c",
      "function": null,
      "arguments": null,
      "transaction": {
        "from": "0xd289d1387ae1033a703842d69501d5bec5a6f04e",
        "value": "0x0",
        "input": "0x60808060405234601557610507908161001a8239f35b5f80fdfe6080806040526004361015610012575f80fd5b5f905f3560e01c9081632c368377146103fd5750806347799da8146102d45763b14d361d1461003f575f80fd5b60a03660031901126102d1576004356001600160a01b038116908190036102cf576044356001600160a01b03811691602435918390036102cb576084359267ffffffffffffffff84116102c757366023850112156102c75783600401359067ffffffffffffffff82116102c35736602483870101116102c3576040519260c0840184811067ffffffffffffffff8211176102af5760405283526020830184815260408401918252866020606086019460643586528060246040519a61010d85601f19601f860116018d6104c4565b828c5201838b0137880101526080840186905260a08401878152935187546001600160a01b039182166001600160a01b0319918216178955915160015591516002805491909316911617905551600355825167ffffffffffffffff811161029b5761017960045461048c565b601f8111610238575b5060209485906001601f8411146101d7579482939495926101cc575b50508160011b915f199060031b1c1916176004555b51151560ff801960055416911617600555604051908152f35b015190505f8061019e565b90601f1983169560048352818320925b878110610221575083600195969710610209575b505050811b016004556101b3565b01515f1960f88460031b161c191690555f80806101fb565b9192886001819286850151815501940192016101e7565b600486527f8a35acfbc15ff81a39ae7d344fd709f28e8600b4aa8c65c6b64bfe7fe36bd19b601f830160051c81019160208410610291575b601f0160051c01905b8181106102865750610182565b868155600101610279565b9091508190610270565b634e487b7160e01b85526041600452602485fd5b634e487b7160e01b88526041600452602488fd5b8580fd5b8480fd5b8380fd5b505b80fd5b50346102d157806003193601126102d157805460015460025460035460405160045493946001600160a01b03908116949316918691906103138561048c565b8083526020830195600181169081156103e2575060011461038c575b5061033f8260e0989903836104c4565b60ff6005541693604051988997885260208801526040870152606086015260c060808601525180938160c08701528686015e838301850152151560a0830152601f01601f19168101030190f35b600484529750827f8a35acfbc15ff81a39ae7d344fd709f28e8600b4aa8c65c6b64bfe7fe36bd19b5b8982106103cc57508201602001975061033f61032f565b60018160209254838588010152019101906103b5565b60ff1916875250151560051b8201602001975061033f61032f565b905034610488575f3660031901126104885760055460ff81166104885760ff191660019081176005555f546002549154916001600160a01b039081169116803b1561048857835f604492819583956340c10f1960e01b8552600485015260248401525af1801561047d5761046f575080f35b61047b91505f906104c4565b005b6040513d5f823e3d90fd5b5f80fd5b90600182811c921680156104ba575b60208310146104a657565b634e487b7160e01b5f52602260045260245ffd5b91607f169161049b565b90601f8019910116810190811067ffffffffffffffff8211176104e657604052565b634e487b7160e01b5f52604160045260245ffdfea164736f6c634300081b000a",
        "nonce": "0x15",
        "chainId": "0x1bc"
      },
      "additionalContracts": [],
      "isFixedGasLimit": false
    },
    {
      "hash": "0xe67de811d159470a785d44c395fd4d06b45bb1186bbab9ba48c52f6051805029",
      "transactionType": "CALL",
      "contractName": null,
      "contractAddress": "0x8828fd7431d5bb1962d7e067c103b2324fa6bbec",
      "function": "setBridgers(address,address)",
      "arguments": [
        "0xC5EA444a0F556f5B227ec7447294d91086BB692c",
        "0xC5EA444a0F556f5B227ec7447294d91086BB692c"
      ],
      "transaction": {
        "from": "0xd289d1387ae1033a703842d69501d5bec5a6f04e",
        "to": "0x8828fd7431d5bb1962d7e067c103b2324fa6bbec",
        "value": "0x0",
        "input": "0x2b0f3ee4000000000000000000000000c5ea444a0f556f5b227ec7447294d91086bb692c000000000000000000000000c5ea444a0f556f5b227ec7447294d91086bb692c",
        "nonce": "0x16",
        "chainId": "0x1bc"
      },
      "additionalContracts": [],
      "isFixedGasLimit": false
    },
    {
      "hash": "0x76e07334de2febfe9242ceb3d13bf8b2cac85c95d49434c7e13491a8a0192028",
      "transactionType": "CALL",
      "contractName": null,
      "contractAddress": "0x4d4adec97e3e11693f65dedc2d1e6bec784eb2f1",
      "function": "mint(address,uint256)",
      "arguments": [
        "0x6607Fda2D454a9B800d0b18E0ddb7497DA2a79D0",
        "123000000"
      ],
      "transaction": {
        "from": "0xd289d1387ae1033a703842d69501d5bec5a6f04e",
        "to": "0x4d4adec97e3e11693f65dedc2d1e6bec784eb2f1",
        "value": "0x0",
        "input": "0x40c10f190000000000000000000000006607fda2d454a9b800d0b18e0ddb7497da2a79d0000000000000000000000000000000000000000000000000000000000754d4c0",
        "nonce": "0x17",
        "chainId": "0x1bc"
      },
      "additionalContracts": [],
      "isFixedGasLimit": false
    },
    {
      "hash": "0xd3e0fc662955b74efebc8da7e0de020d9c814c8acdd79f63162cfd2ee94227ca",
      "transactionType": "CALL",
      "contractName": null,
      "contractAddress": "0x8828fd7431d5bb1962d7e067c103b2324fa6bbec",
      "function": "pullFromReceiver((uint256,address,bool,bytes32,bytes32,uint256,address,address,(address,uint256,bytes)[],bytes))",
      "arguments": [
        "(444, 0xD59d27B9172aD056Cb5C008Dc2BbEFe702123A55, false, 0x0000000000000000000000000000000000000000000000000000000000000000, 0x0000000000000000000000000000000000000000000000000000000000000001, 0, 0x4D4aDEc97e3e11693F65dEDC2D1e6Bec784eB2F1, 0x4D4aDEc97e3e11693F65dEDC2D1e6Bec784eB2F1, [], 0x)"
      ],
      "transaction": {
        "from": "0xd289d1387ae1033a703842d69501d5bec5a6f04e",
        "to": "0x8828fd7431d5bb1962d7e067c103b2324fa6bbec",
        "value": "0x0",
        "input": "0x1ad1087b000000000000000000000000000000000000000000000000000000000000002000000000000000000000000000000000000000000000000000000000000001bc000000000000000000000000d59d27b9172ad056cb5c008dc2bbefe702123a5500000000000000000000000000000000000000000000000000000000000000000000000000000000000000000000000000000000000000000000000000000000000000000000000000000000000000000000000000000000000000000000000100000000000000000000000000000000000000000000000000000000000000000000000000000000000000004d4adec97e3e11693f65dedc2d1e6bec784eb2f10000000000000000000000004d4adec97e3e11693f65dedc2d1e6bec784eb2f10000000000000000000000000000000000000000000000000000000000000140000000000000000000000000000000000000000000000000000000000000016000000000000000000000000000000000000000000000000000000000000000000000000000000000000000000000000000000000000000000000000000000000",
        "nonce": "0x18",
        "chainId": "0x1bc"
      },
      "additionalContracts": [],
      "isFixedGasLimit": false
    },
    {
      "hash": "0x9e4873b7b3b08c07882efaf057a281026bfe098d607e1d494b05f3061c0193f1",
      "transactionType": "CALL",
      "contractName": null,
      "contractAddress": "0x4d4adec97e3e11693f65dedc2d1e6bec784eb2f1",
      "function": "mint(address,uint256)",
      "arguments": [
        "0x6607Fda2D454a9B800d0b18E0ddb7497DA2a79D0",
        "100000000"
      ],
      "transaction": {
        "from": "0xd289d1387ae1033a703842d69501d5bec5a6f04e",
        "to": "0x4d4adec97e3e11693f65dedc2d1e6bec784eb2f1",
        "value": "0x0",
        "input": "0x40c10f190000000000000000000000006607fda2d454a9b800d0b18e0ddb7497da2a79d00000000000000000000000000000000000000000000000000000000005f5e100",
        "nonce": "0x19",
        "chainId": "0x1bc"
      },
      "additionalContracts": [],
      "isFixedGasLimit": false
    },
    {
      "hash": "0x8772375a183db88e302698098239d0ae5926afd00e7098aaae49accb27c504c1",
      "transactionType": "CALL",
      "contractName": null,
      "contractAddress": "0x8828fd7431d5bb1962d7e067c103b2324fa6bbec",
      "function": "pullFromReceiver((uint256,address,bool,bytes32,bytes32,uint256,address,address,(address,uint256,bytes)[],bytes))",
      "arguments": [
        "(444, 0xD59d27B9172aD056Cb5C008Dc2BbEFe702123A55, false, 0x0000000000000000000000000000000000000000000000000000000000000000, 0x0000000000000000000000000000000000000000000000000000000000000002, 0, 0x4D4aDEc97e3e11693F65dEDC2D1e6Bec784eB2F1, 0xF86C23C1E883ee3B820FB9BE75FF91C9A49EaE75, [(0xF86C23C1E883ee3B820FB9BE75FF91C9A49EaE75, 0, 0x40c10f190000000000000000000000009feb94832da4e52a75a18e6310640cc2cb702ffe0000000000000000000000000000000000000000000000000000000005f5e100)], 0x)"
      ],
      "transaction": {
        "from": "0xd289d1387ae1033a703842d69501d5bec5a6f04e",
        "to": "0x8828fd7431d5bb1962d7e067c103b2324fa6bbec",
        "value": "0x0",
        "input": "0x1ad1087b000000000000000000000000000000000000000000000000000000000000002000000000000000000000000000000000000000000000000000000000000001bc000000000000000000000000d59d27b9172ad056cb5c008dc2bbefe702123a5500000000000000000000000000000000000000000000000000000000000000000000000000000000000000000000000000000000000000000000000000000000000000000000000000000000000000000000000000000000000000000000000200000000000000000000000000000000000000000000000000000000000000000000000000000000000000004d4adec97e3e11693f65dedc2d1e6bec784eb2f1000000000000000000000000f86c23c1e883ee3b820fb9be75ff91c9a49eae750000000000000000000000000000000000000000000000000000000000000140000000000000000000000000000000000000000000000000000000000000026000000000000000000000000000000000000000000000000000000000000000010000000000000000000000000000000000000000000000000000000000000020000000000000000000000000f86c23c1e883ee3b820fb9be75ff91c9a49eae7500000000000000000000000000000000000000000000000000000000000000000000000000000000000000000000000000000000000000000000000000000060000000000000000000000000000000000000000000000000000000000000004440c10f190000000000000000000000009feb94832da4e52a75a18e6310640cc2cb702ffe0000000000000000000000000000000000000000000000000000000005f5e100000000000000000000000000000000000000000000000000000000000000000000000000000000000000000000000000000000000000000000000000",
        "nonce": "0x1a",
        "chainId": "0x1bc"
      },
      "additionalContracts": [],
      "isFixedGasLimit": false
    },
    {
      "hash": "0x99a490a0cb512bd8acbd9ba83cd74903b97f102a0980d9331b127e210092ea4a",
      "transactionType": "CALL",
      "contractName": null,
      "contractAddress": "0xf86c23c1e883ee3b820fb9be75ff91c9a49eae75",
      "function": "mint(address,uint256)",
      "arguments": [
        "0xD289D1387ae1033A703842D69501D5bEc5A6f04e",
        "5000000"
      ],
      "transaction": {
        "from": "0xd289d1387ae1033a703842d69501d5bec5a6f04e",
        "to": "0xf86c23c1e883ee3b820fb9be75ff91c9a49eae75",
        "value": "0x0",
        "input": "0x40c10f19000000000000000000000000d289d1387ae1033a703842d69501d5bec5a6f04e00000000000000000000000000000000000000000000000000000000004c4b40",
        "nonce": "0x1b",
        "chainId": "0x1bc"
      },
      "additionalContracts": [],
      "isFixedGasLimit": false
    },
    {
      "hash": "0xbaf30e1ceee235b9e2226e7745bbc93540de9002bd5e91b4a5a94aabf575e933",
      "transactionType": "CALL",
      "contractName": null,
      "contractAddress": "0xf86c23c1e883ee3b820fb9be75ff91c9a49eae75",
      "function": "approve(address,uint256)",
      "arguments": [
        "0x048255dfEF2eBFA7307058Ae475a3e2F5ee0df46",
        "115792089237316195423570985008687907853269984665640564039457584007913129639935"
      ],
      "transaction": {
        "from": "0xd289d1387ae1033a703842d69501d5bec5a6f04e",
        "to": "0xf86c23c1e883ee3b820fb9be75ff91c9a49eae75",
        "value": "0x0",
        "input": "0x095ea7b3000000000000000000000000048255dfef2ebfa7307058ae475a3e2f5ee0df46ffffffffffffffffffffffffffffffffffffffffffffffffffffffffffffffff",
        "nonce": "0x1c",
        "chainId": "0x1bc"
      },
      "additionalContracts": [],
      "isFixedGasLimit": false
    },
    {
      "hash": "0x6fd36c6271e9ec6cd5ed853ae06d42ecd671a07a27b33fa1cc0b0d90ca8541be",
      "transactionType": "CALL",
      "contractName": null,
      "contractAddress": "0x048255dfef2ebfa7307058ae475a3e2f5ee0df46",
      "function": "createIntent((uint8,bytes,address,address,uint256),uint256)",
      "arguments": [
        "(0, 0x00000000000000000000000000000000000000000000000000000000000000200000000000000000000000002db97a32d5ce8d79f7b7fdc607584a7a35da5e0d00000000000000000000000000000000000000000000000000000000000000400000000000000000000000000000000000000000000000000000000000000002abcd000000000000000000000000000000000000000000000000000000000000, 0xD289D1387ae1033A703842D69501D5bEc5A6f04e, 0xF86C23C1E883ee3B820FB9BE75FF91C9A49EaE75, 5000000)",
        "1768313738"
      ],
      "transaction": {
        "from": "0xd289d1387ae1033a703842d69501d5bec5a6f04e",
        "to": "0x048255dfef2ebfa7307058ae475a3e2f5ee0df46",
        "value": "0x0",
        "input": "0x549f75050000000000000000000000000000000000000000000000000000000000000040000000000000000000000000000000000000000000000000000000006966538a000000000000000000000000000000000000000000000000000000000000000000000000000000000000000000000000000000000000000000000000000000a0000000000000000000000000d289d1387ae1033a703842d69501d5bec5a6f04e000000000000000000000000f86c23c1e883ee3b820fb9be75ff91c9a49eae7500000000000000000000000000000000000000000000000000000000004c4b4000000000000000000000000000000000000000000000000000000000000000a000000000000000000000000000000000000000000000000000000000000000200000000000000000000000002db97a32d5ce8d79f7b7fdc607584a7a35da5e0d00000000000000000000000000000000000000000000000000000000000000400000000000000000000000000000000000000000000000000000000000000002abcd000000000000000000000000000000000000000000000000000000000000",
        "nonce": "0x1d",
        "chainId": "0x1bc"
      },
      "additionalContracts": [],
      "isFixedGasLimit": false
    },
    {
      "hash": "0x2f56d4330b5b3ad7b5028d1250bc95815cd0739f9567a863280626fe3d8c0997",
      "transactionType": "CALL",
      "contractName": null,
      "contractAddress": "0x4d4adec97e3e11693f65dedc2d1e6bec784eb2f1",
      "function": "mint(address,uint256)",
      "arguments": [
        "0xD289D1387ae1033A703842D69501D5bEc5A6f04e",
        "1000000"
      ],
      "transaction": {
        "from": "0xd289d1387ae1033a703842d69501d5bec5a6f04e",
        "to": "0x4d4adec97e3e11693f65dedc2d1e6bec784eb2f1",
        "value": "0x0",
        "input": "0x40c10f19000000000000000000000000d289d1387ae1033a703842d69501d5bec5a6f04e00000000000000000000000000000000000000000000000000000000000f4240",
        "nonce": "0x1e",
        "chainId": "0x1bc"
      },
      "additionalContracts": [],
      "isFixedGasLimit": false
    },
    {
      "hash": "0x4eb45a21ced9b9898440a556d8dd5fd801e3a9bfea125b9cbde5947b9f9cb711",
      "transactionType": "CALL",
      "contractName": null,
      "contractAddress": "0x4d4adec97e3e11693f65dedc2d1e6bec784eb2f1",
      "function": "approve(address,uint256)",
      "arguments": [
        "0x048255dfEF2eBFA7307058Ae475a3e2F5ee0df46",
        "115792089237316195423570985008687907853269984665640564039457584007913129639935"
      ],
      "transaction": {
        "from": "0xd289d1387ae1033a703842d69501d5bec5a6f04e",
        "to": "0x4d4adec97e3e11693f65dedc2d1e6bec784eb2f1",
        "value": "0x0",
        "input": "0x095ea7b3000000000000000000000000048255dfef2ebfa7307058ae475a3e2f5ee0df46ffffffffffffffffffffffffffffffffffffffffffffffffffffffffffffffff",
        "nonce": "0x1f",
        "chainId": "0x1bc"
      },
      "additionalContracts": [],
      "isFixedGasLimit": false
    },
    {
      "hash": "0x96167404bd654cf97c92b0e9eee4dfe0714c5602022e23bd022052a9e4ccb7d8",
      "transactionType": "CALL",
      "contractName": null,
      "contractAddress": "0x048255dfef2ebfa7307058ae475a3e2f5ee0df46",
      "function": "claimIntent(bytes32)",
      "arguments": [
        "0xc4dd899f8c5d9109bbf4b23b47b0442af8bd53714bc35752ac16331c3cc6d425"
      ],
      "transaction": {
        "from": "0xd289d1387ae1033a703842d69501d5bec5a6f04e",
        "to": "0x048255dfef2ebfa7307058ae475a3e2f5ee0df46",
        "value": "0x0",
        "input": "0x40e624cbc4dd899f8c5d9109bbf4b23b47b0442af8bd53714bc35752ac16331c3cc6d425",
        "nonce": "0x20",
        "chainId": "0x1bc"
      },
      "additionalContracts": [],
      "isFixedGasLimit": false
    },
    {
      "hash": "0x8619ab75d24cac45344936d5f3e256abbf174855bdc202424887b8c6b6a4ea45",
      "transactionType": "CALL",
      "contractName": null,
      "contractAddress": "0x8c16d2f19a034b7281254f5656c2d1461c6ceb9a",
      "function": "setTx((bytes32,uint256,uint32,bytes21,bytes21,bytes))",
      "arguments": [
        "(0x0000000000000000000000000000000000000000000000000000000000000000, 0, 0, 0x000000000000000000000000000000000000000000, 0x412db97a32d5ce8d79f7b7fdc607584a7a35da5e0d, 0xabcd)"
      ],
      "transaction": {
        "from": "0xd289d1387ae1033a703842d69501d5bec5a6f04e",
        "to": "0x8c16d2f19a034b7281254f5656c2d1461c6ceb9a",
        "value": "0x0",
        "input": "0x3aec07de00000000000000000000000000000000000000000000000000000000000000200000000000000000000000000000000000000000000000000000000000000000000000000000000000000000000000000000000000000000000000000000000000000000000000000000000000000000000000000000000000000000000000000000000000000000000000000000000000000000000000000000000000000000412db97a32d5ce8d79f7b7fdc607584a7a35da5e0d000000000000000000000000000000000000000000000000000000000000000000000000000000000000c00000000000000000000000000000000000000000000000000000000000000002abcd000000000000000000000000000000000000000000000000000000000000",
        "nonce": "0x21",
        "chainId": "0x1bc"
      },
      "additionalContracts": [],
      "isFixedGasLimit": false
    },
    {
      "hash": "0x9d5a80c7eeccc71a7239ab31e5b619368d9fad334aa8444c57507b81030f32d6",
      "transactionType": "CALL",
      "contractName": null,
      "contractAddress": "0x048255dfef2ebfa7307058ae475a3e2f5ee0df46",
      "function": "proveIntentFill(bytes32,bytes[20],bytes,bytes32[],uint256)",
      "arguments": [
        "0xc4dd899f8c5d9109bbf4b23b47b0442af8bd53714bc35752ac16331c3cc6d425",
        "[0x, 0x, 0x, 0x, 0x, 0x, 0x, 0x, 0x, 0x, 0x, 0x, 0x, 0x, 0x, 0x, 0x, 0x, 0x, 0x]",
        "0x",
        "[]",
        "0"
      ],
      "transaction": {
        "from": "0xd289d1387ae1033a703842d69501d5bec5a6f04e",
        "to": "0x048255dfef2ebfa7307058ae475a3e2f5ee0df46",
        "value": "0x0",
        "input": "0x5c23cc02c4dd899f8c5d9109bbf4b23b47b0442af8bd53714bc35752ac16331c3cc6d42500000000000000000000000000000000000000000000000000000000000000a000000000000000000000000000000000000000000000000000000000000005a000000000000000000000000000000000000000000000000000000000000005c00000000000000000000000000000000000000000000000000000000000000000000000000000000000000000000000000000000000000000000000000000028000000000000000000000000000000000000000000000000000000000000002a000000000000000000000000000000000000000000000000000000000000002c000000000000000000000000000000000000000000000000000000000000002e00000000000000000000000000000000000000000000000000000000000000300000000000000000000000000000000000000000000000000000000000000032000000000000000000000000000000000000000000000000000000000000003400000000000000000000000000000000000000000000000000000000000000360000000000000000000000000000000000000000000000000000000000000038000000000000000000000000000000000000000000000000000000000000003a000000000000000000000000000000000000000000000000000000000000003c000000000000000000000000000000000000000000000000000000000000003e00000000000000000000000000000000000000000000000000000000000000400000000000000000000000000000000000000000000000000000000000000042000000000000000000000000000000000000000000000000000000000000004400000000000000000000000000000000000000000000000000000000000000460000000000000000000000000000000000000000000000000000000000000048000000000000000000000000000000000000000000000000000000000000004a000000000000000000000000000000000000000000000000000000000000004c000000000000000000000000000000000000000000000000000000000000004e00000000000000000000000000000000000000000000000000000000000000000000000000000000000000000000000000000000000000000000000000000000000000000000000000000000000000000000000000000000000000000000000000000000000000000000000000000000000000000000000000000000000000000000000000000000000000000000000000000000000000000000000000000000000000000000000000000000000000000000000000000000000000000000000000000000000000000000000000000000000000000000000000000000000000000000000000000000000000000000000000000000000000000000000000000000000000000000000000000000000000000000000000000000000000000000000000000000000000000000000000000000000000000000000000000000000000000000000000000000000000000000000000000000000000000000000000000000000000000000000000000000000000000000000000000000000000000000000000000000000000000000000000000000000000000000000000000000000000000000000000000000000000000000000000000000000000000000000000000000000000000000000000000000000000000000000000000000000000000000000000000000000000000000000000000000000000000000000000000000000000000000000000000000000000000000000000000000000000000000000000000000000000000000000000000000000000000000000000000000000000000000000000000000000000000000000000000000000000000000000000000000000000000000000000000000000000000000000000000000000000000000000000000000000000000000000000000000000000000000000000000000000000000000000000000000000000000000000000000000000000000000000000000000000000000",
        "nonce": "0x22",
        "chainId": "0x1bc"
      },
      "additionalContracts": [],
      "isFixedGasLimit": false
    },
    {
      "hash": "0x2251ad25c50f35a00c86806b0e949118cf365a5a0571f8a114c0e850a766963e",
      "transactionType": "CALL",
      "contractName": null,
      "contractAddress": "0x4d4adec97e3e11693f65dedc2d1e6bec784eb2f1",
      "function": "mint(address,uint256)",
      "arguments": [
        "0xD289D1387ae1033A703842D69501D5bEc5A6f04e",
        "2000000"
      ],
      "transaction": {
        "from": "0xd289d1387ae1033a703842d69501d5bec5a6f04e",
        "to": "0x4d4adec97e3e11693f65dedc2d1e6bec784eb2f1",
        "value": "0x0",
        "input": "0x40c10f19000000000000000000000000d289d1387ae1033a703842d69501d5bec5a6f04e00000000000000000000000000000000000000000000000000000000001e8480",
        "nonce": "0x23",
        "chainId": "0x1bc"
      },
      "additionalContracts": [],
      "isFixedGasLimit": false
    },
    {
      "hash": "0xf9efb66edb2a556a0fdffc4bbf2b33fa01f6db51c69048612237363ee78c386f",
      "transactionType": "CALL",
      "contractName": null,
      "contractAddress": "0x4d4adec97e3e11693f65dedc2d1e6bec784eb2f1",
      "function": "approve(address,uint256)",
      "arguments": [
        "0x048255dfEF2eBFA7307058Ae475a3e2F5ee0df46",
        "115792089237316195423570985008687907853269984665640564039457584007913129639935"
      ],
      "transaction": {
        "from": "0xd289d1387ae1033a703842d69501d5bec5a6f04e",
        "to": "0x4d4adec97e3e11693f65dedc2d1e6bec784eb2f1",
        "value": "0x0",
        "input": "0x095ea7b3000000000000000000000000048255dfef2ebfa7307058ae475a3e2f5ee0df46ffffffffffffffffffffffffffffffffffffffffffffffffffffffffffffffff",
        "nonce": "0x24",
        "chainId": "0x1bc"
      },
      "additionalContracts": [],
      "isFixedGasLimit": false
    },
    {
      "hash": "0xf35e4bd0694ee92a0363faf0d606956d1b0c9c8a468b2f48bfaef713104535c5",
      "transactionType": "CALL",
      "contractName": null,
      "contractAddress": "0x048255dfef2ebfa7307058ae475a3e2f5ee0df46",
      "function": "createIntent((uint8,bytes,address,address,uint256),uint256)",
      "arguments": [
        "(1, 0x000000000000000000000000558b8fe3b86724d9d9433bf8ec2b1a1b223f9d25000000000000000000000000000000000000000000000000000000000012d687, 0xD289D1387ae1033A703842D69501D5bEc5A6f04e, 0x4D4aDEc97e3e11693F65dEDC2D1e6Bec784eB2F1, 2000000)",
        "1768313738"
      ],
      "transaction": {
        "from": "0xd289d1387ae1033a703842d69501d5bec5a6f04e",
        "to": "0x048255dfef2ebfa7307058ae475a3e2f5ee0df46",
        "value": "0x0",
        "input": "0x549f75050000000000000000000000000000000000000000000000000000000000000040000000000000000000000000000000000000000000000000000000006966538a000000000000000000000000000000000000000000000000000000000000000100000000000000000000000000000000000000000000000000000000000000a0000000000000000000000000d289d1387ae1033a703842d69501d5bec5a6f04e0000000000000000000000004d4adec97e3e11693f65dedc2d1e6bec784eb2f100000000000000000000000000000000000000000000000000000000001e84800000000000000000000000000000000000000000000000000000000000000040000000000000000000000000558b8fe3b86724d9d9433bf8ec2b1a1b223f9d25000000000000000000000000000000000000000000000000000000000012d687",
        "nonce": "0x25",
        "chainId": "0x1bc"
      },
      "additionalContracts": [],
      "isFixedGasLimit": false
    },
    {
      "hash": "0xfed417558ae0dfc9fa69f6b3e26a183ad2c0e6e3f749d50b0f79d57610d88a9f",
      "transactionType": "CALL",
      "contractName": null,
      "contractAddress": "0x4d4adec97e3e11693f65dedc2d1e6bec784eb2f1",
      "function": "mint(address,uint256)",
      "arguments": [
        "0xD289D1387ae1033A703842D69501D5bEc5A6f04e",
        "1000000"
      ],
      "transaction": {
        "from": "0xd289d1387ae1033a703842d69501d5bec5a6f04e",
        "to": "0x4d4adec97e3e11693f65dedc2d1e6bec784eb2f1",
        "value": "0x0",
        "input": "0x40c10f19000000000000000000000000d289d1387ae1033a703842d69501d5bec5a6f04e00000000000000000000000000000000000000000000000000000000000f4240",
        "nonce": "0x26",
        "chainId": "0x1bc"
      },
      "additionalContracts": [],
      "isFixedGasLimit": false
    },
    {
      "hash": "0x5dad83edb1c33f042f8ec27cad814b69c77182c0206e0574b45277e9c76f8b1b",
      "transactionType": "CALL",
      "contractName": null,
      "contractAddress": "0x4d4adec97e3e11693f65dedc2d1e6bec784eb2f1",
      "function": "approve(address,uint256)",
      "arguments": [
        "0x048255dfEF2eBFA7307058Ae475a3e2F5ee0df46",
        "115792089237316195423570985008687907853269984665640564039457584007913129639935"
      ],
      "transaction": {
        "from": "0xd289d1387ae1033a703842d69501d5bec5a6f04e",
        "to": "0x4d4adec97e3e11693f65dedc2d1e6bec784eb2f1",
        "value": "0x0",
        "input": "0x095ea7b3000000000000000000000000048255dfef2ebfa7307058ae475a3e2f5ee0df46ffffffffffffffffffffffffffffffffffffffffffffffffffffffffffffffff",
        "nonce": "0x27",
        "chainId": "0x1bc"
      },
      "additionalContracts": [],
      "isFixedGasLimit": false
    },
    {
      "hash": "0xe9d4a13b6e72d7b113c58c4e76690c7d65d73b032e3cb5f0a733d5596b456dfd",
      "transactionType": "CALL",
      "contractName": null,
      "contractAddress": "0x048255dfef2ebfa7307058ae475a3e2f5ee0df46",
      "function": "claimIntent(bytes32)",
      "arguments": [
        "0xfdb98344b9cb55b99a21cdb84d4a3eed3e28eab75edb73a3c5a1306e592639dc"
      ],
      "transaction": {
        "from": "0xd289d1387ae1033a703842d69501d5bec5a6f04e",
        "to": "0x048255dfef2ebfa7307058ae475a3e2f5ee0df46",
        "value": "0x0",
        "input": "0x40e624cbfdb98344b9cb55b99a21cdb84d4a3eed3e28eab75edb73a3c5a1306e592639dc",
        "nonce": "0x28",
        "chainId": "0x1bc"
      },
      "additionalContracts": [],
      "isFixedGasLimit": false
    },
    {
      "hash": "0xa3d26f21215aa99883ccaaabb519c76754ecac5db3eeb1cb2951af78b1885e87",
      "transactionType": "CALL",
      "contractName": null,
      "contractAddress": "0x8c16d2f19a034b7281254f5656c2d1461c6ceb9a",
      "function": "setTx((bytes32,uint256,uint32,bytes21,bytes21,bytes))",
      "arguments": [
        "(0x0000000000000000000000000000000000000000000000000000000000000000, 0, 0, 0x000000000000000000000000000000000000000000, 0x41f61c257cc0c129959a9704a59193e15c91853749, 0xa9059cbb000000000000000000000000558b8fe3b86724d9d9433bf8ec2b1a1b223f9d25000000000000000000000000000000000000000000000000000000000012d687)"
      ],
      "transaction": {
        "from": "0xd289d1387ae1033a703842d69501d5bec5a6f04e",
        "to": "0x8c16d2f19a034b7281254f5656c2d1461c6ceb9a",
        "value": "0x0",
        "input": "0x3aec07de0000000000000000000000000000000000000000000000000000000000000020000000000000000000000000000000000000000000000000000000000000000000000000000000000000000000000000000000000000000000000000000000000000000000000000000000000000000000000000000000000000000000000000000000000000000000000000000000000000000000000000000000000000000041f61c257cc0c129959a9704a59193e15c91853749000000000000000000000000000000000000000000000000000000000000000000000000000000000000c00000000000000000000000000000000000000000000000000000000000000044a9059cbb000000000000000000000000558b8fe3b86724d9d9433bf8ec2b1a1b223f9d25000000000000000000000000000000000000000000000000000000000012d68700000000000000000000000000000000000000000000000000000000",
        "nonce": "0x29",
        "chainId": "0x1bc"
      },
      "additionalContracts": [],
      "isFixedGasLimit": false
    },
    {
      "hash": "0x186b922a067d7a4293ef217f1be0b239ab2515ebfd0b5970cac025b8a27dd120",
      "transactionType": "CALL",
      "contractName": null,
      "contractAddress": "0x048255dfef2ebfa7307058ae475a3e2f5ee0df46",
      "function": "proveIntentFill(bytes32,bytes[20],bytes,bytes32[],uint256)",
      "arguments": [
        "0xfdb98344b9cb55b99a21cdb84d4a3eed3e28eab75edb73a3c5a1306e592639dc",
        "[0x, 0x, 0x, 0x, 0x, 0x, 0x, 0x, 0x, 0x, 0x, 0x, 0x, 0x, 0x, 0x, 0x, 0x, 0x, 0x]",
        "0x",
        "[]",
        "0"
      ],
      "transaction": {
        "from": "0xd289d1387ae1033a703842d69501d5bec5a6f04e",
        "to": "0x048255dfef2ebfa7307058ae475a3e2f5ee0df46",
        "value": "0x0",
        "input": "0x5c23cc02fdb98344b9cb55b99a21cdb84d4a3eed3e28eab75edb73a3c5a1306e592639dc00000000000000000000000000000000000000000000000000000000000000a000000000000000000000000000000000000000000000000000000000000005a000000000000000000000000000000000000000000000000000000000000005c00000000000000000000000000000000000000000000000000000000000000000000000000000000000000000000000000000000000000000000000000000028000000000000000000000000000000000000000000000000000000000000002a000000000000000000000000000000000000000000000000000000000000002c000000000000000000000000000000000000000000000000000000000000002e00000000000000000000000000000000000000000000000000000000000000300000000000000000000000000000000000000000000000000000000000000032000000000000000000000000000000000000000000000000000000000000003400000000000000000000000000000000000000000000000000000000000000360000000000000000000000000000000000000000000000000000000000000038000000000000000000000000000000000000000000000000000000000000003a000000000000000000000000000000000000000000000000000000000000003c000000000000000000000000000000000000000000000000000000000000003e00000000000000000000000000000000000000000000000000000000000000400000000000000000000000000000000000000000000000000000000000000042000000000000000000000000000000000000000000000000000000000000004400000000000000000000000000000000000000000000000000000000000000460000000000000000000000000000000000000000000000000000000000000048000000000000000000000000000000000000000000000000000000000000004a000000000000000000000000000000000000000000000000000000000000004c000000000000000000000000000000000000000000000000000000000000004e00000000000000000000000000000000000000000000000000000000000000000000000000000000000000000000000000000000000000000000000000000000000000000000000000000000000000000000000000000000000000000000000000000000000000000000000000000000000000000000000000000000000000000000000000000000000000000000000000000000000000000000000000000000000000000000000000000000000000000000000000000000000000000000000000000000000000000000000000000000000000000000000000000000000000000000000000000000000000000000000000000000000000000000000000000000000000000000000000000000000000000000000000000000000000000000000000000000000000000000000000000000000000000000000000000000000000000000000000000000000000000000000000000000000000000000000000000000000000000000000000000000000000000000000000000000000000000000000000000000000000000000000000000000000000000000000000000000000000000000000000000000000000000000000000000000000000000000000000000000000000000000000000000000000000000000000000000000000000000000000000000000000000000000000000000000000000000000000000000000000000000000000000000000000000000000000000000000000000000000000000000000000000000000000000000000000000000000000000000000000000000000000000000000000000000000000000000000000000000000000000000000000000000000000000000000000000000000000000000000000000000000000000000000000000000000000000000000000000000000000000000000000000000000000000000000000000000000000000000000000000000000000000000000000000000",
        "nonce": "0x2a",
        "chainId": "0x1bc"
      },
      "additionalContracts": [],
      "isFixedGasLimit": false
    },
    {
      "hash": "0x3cfe4d3def108d512f118812e99980805c2613a669372cae3d633a56843e7cd6",
      "transactionType": "CALL",
      "contractName": null,
      "contractAddress": "0xf86c23c1e883ee3b820fb9be75ff91c9a49eae75",
      "function": "mint(address,uint256)",
      "arguments": [
        "0xD289D1387ae1033A703842D69501D5bEc5A6f04e",
        "1000000"
      ],
      "transaction": {
        "from": "0xd289d1387ae1033a703842d69501d5bec5a6f04e",
        "to": "0xf86c23c1e883ee3b820fb9be75ff91c9a49eae75",
        "value": "0x0",
        "input": "0x40c10f19000000000000000000000000d289d1387ae1033a703842d69501d5bec5a6f04e00000000000000000000000000000000000000000000000000000000000f4240",
        "nonce": "0x2b",
        "chainId": "0x1bc"
      },
      "additionalContracts": [],
      "isFixedGasLimit": false
    },
    {
      "hash": "0x9041eb280fbb4358404c02716074cab410c6307832ffee46435dabe265bf587b",
      "transactionType": "CALL",
      "contractName": null,
      "contractAddress": "0xf86c23c1e883ee3b820fb9be75ff91c9a49eae75",
      "function": "approve(address,uint256)",
      "arguments": [
        "0x048255dfEF2eBFA7307058Ae475a3e2F5ee0df46",
        "115792089237316195423570985008687907853269984665640564039457584007913129639935"
      ],
      "transaction": {
        "from": "0xd289d1387ae1033a703842d69501d5bec5a6f04e",
        "to": "0xf86c23c1e883ee3b820fb9be75ff91c9a49eae75",
        "value": "0x0",
        "input": "0x095ea7b3000000000000000000000000048255dfef2ebfa7307058ae475a3e2f5ee0df46ffffffffffffffffffffffffffffffffffffffffffffffffffffffffffffffff",
        "nonce": "0x2c",
        "chainId": "0x1bc"
      },
      "additionalContracts": [],
      "isFixedGasLimit": false
    },
    {
      "hash": "0x1dbc2a9ef773a86244b490c3af58e7660de146813e28383a74af04e188a9abde",
      "transactionType": "CALL",
      "contractName": null,
      "contractAddress": "0x048255dfef2ebfa7307058ae475a3e2f5ee0df46",
      "function": "createIntent((uint8,bytes,address,address,uint256),uint256)",
      "arguments": [
        "(0, 0x00000000000000000000000000000000000000000000000000000000000000200000000000000000000000005457e258a09ebfb4a2501a9e3d70d37f54f923f300000000000000000000000000000000000000000000000000000000000000400000000000000000000000000000000000000000000000000000000000000002beef000000000000000000000000000000000000000000000000000000000000, 0xD289D1387ae1033A703842D69501D5bEc5A6f04e, 0xF86C23C1E883ee3B820FB9BE75FF91C9A49EaE75, 1000000)",
        "1"
      ],
      "transaction": {
        "from": "0xd289d1387ae1033a703842d69501d5bec5a6f04e",
        "to": "0x048255dfef2ebfa7307058ae475a3e2f5ee0df46",
        "value": "0x0",
        "input": "0x549f750500000000000000000000000000000000000000000000000000000000000000400000000000000000000000000000000000000000000000000000000000000001000000000000000000000000000000000000000000000000000000000000000000000000000000000000000000000000000000000000000000000000000000a0000000000000000000000000d289d1387ae1033a703842d69501d5bec5a6f04e000000000000000000000000f86c23c1e883ee3b820fb9be75ff91c9a49eae7500000000000000000000000000000000000000000000000000000000000f424000000000000000000000000000000000000000000000000000000000000000a000000000000000000000000000000000000000000000000000000000000000200000000000000000000000005457e258a09ebfb4a2501a9e3d70d37f54f923f300000000000000000000000000000000000000000000000000000000000000400000000000000000000000000000000000000000000000000000000000000002beef000000000000000000000000000000000000000000000000000000000000",
        "nonce": "0x2d",
        "chainId": "0x1bc"
      },
      "additionalContracts": [],
      "isFixedGasLimit": false
    },
    {
      "hash": "0x9438a2988aae822415b3eae4d41e58ac49a984bd82101f72ed93da8690071682",
      "transactionType": "CALL",
      "contractName": null,
      "contractAddress": "0x048255dfef2ebfa7307058ae475a3e2f5ee0df46",
      "function": "closeIntent(bytes32)",
      "arguments": [
        "0x15b9517f84e81219f907e347d0894b01e0d21e5729f301eef26bc1aa086b15e8"
      ],
      "transaction": {
        "from": "0xd289d1387ae1033a703842d69501d5bec5a6f04e",
        "to": "0x048255dfef2ebfa7307058ae475a3e2f5ee0df46",
        "value": "0x0",
        "input": "0x51ead90a15b9517f84e81219f907e347d0894b01e0d21e5729f301eef26bc1aa086b15e8",
        "nonce": "0x2e",
        "chainId": "0x1bc"
      },
      "additionalContracts": [],
      "isFixedGasLimit": false
    },
    {
      "hash": "0xe3e00cbfbb1eaa75e893c94ed084eaac10b7360f2fc94bcd2158d19b7445e752",
      "transactionType": "CALL",
      "contractName": null,
      "contractAddress": "0x4d4adec97e3e11693f65dedc2d1e6bec784eb2f1",
      "function": "mint(address,uint256)",
      "arguments": [
        "0x1A8d6663d71Dd8aEb9d90C08BBDb80b7f3624783",
        "10000444"
      ],
      "transaction": {
        "from": "0xd289d1387ae1033a703842d69501d5bec5a6f04e",
        "to": "0x4d4adec97e3e11693f65dedc2d1e6bec784eb2f1",
        "value": "0x0",
        "input": "0x40c10f190000000000000000000000001a8d6663d71dd8aeb9d90c08bbdb80b7f3624783000000000000000000000000000000000000000000000000000000000098983c",
        "nonce": "0x2f",
        "chainId": "0x1bc"
      },
      "additionalContracts": [],
      "isFixedGasLimit": false
    },
    {
      "hash": "0xd0a8a97b16a42d39d3202033047b5370199b4abf26edd368e1b6f43f82569faf",
      "transactionType": "CALL",
      "contractName": null,
      "contractAddress": "0x8828fd7431d5bb1962d7e067c103b2324fa6bbec",
      "function": "pullFromReceiver((uint256,address,bool,bytes32,bytes32,uint256,address,address,(address,uint256,bytes)[],bytes))",
      "arguments": [
        "(222, 0x048255dfEF2eBFA7307058Ae475a3e2F5ee0df46, true, 0x805137159b1f1225efc7ae36f6b216b76c0e9bed085c4220b2f702fde8defd04, 0x38cb7bc9535f8b89744a14dd2acfe7dcc993eb5f668dfbcb95bdf21a839e2ec0, 10000444, 0x4D4aDEc97e3e11693F65dEDC2D1e6Bec784eB2F1, 0x4D4aDEc97e3e11693F65dEDC2D1e6Bec784eB2F1, [], 0x)"
      ],
      "transaction": {
        "from": "0xd289d1387ae1033a703842d69501d5bec5a6f04e",
        "to": "0x8828fd7431d5bb1962d7e067c103b2324fa6bbec",
        "value": "0x0",
        "input": "0x1ad1087b000000000000000000000000000000000000000000000000000000000000002000000000000000000000000000000000000000000000000000000000000000de000000000000000000000000048255dfef2ebfa7307058ae475a3e2f5ee0df460000000000000000000000000000000000000000000000000000000000000001805137159b1f1225efc7ae36f6b216b76c0e9bed085c4220b2f702fde8defd0438cb7bc9535f8b89744a14dd2acfe7dcc993eb5f668dfbcb95bdf21a839e2ec0000000000000000000000000000000000000000000000000000000000098983c0000000000000000000000004d4adec97e3e11693f65dedc2d1e6bec784eb2f10000000000000000000000004d4adec97e3e11693f65dedc2d1e6bec784eb2f10000000000000000000000000000000000000000000000000000000000000140000000000000000000000000000000000000000000000000000000000000016000000000000000000000000000000000000000000000000000000000000000000000000000000000000000000000000000000000000000000000000000000000",
        "nonce": "0x30",
        "chainId": "0x1bc"
      },
      "additionalContracts": [],
      "isFixedGasLimit": false
    }
  ],
  "receipts": [
    {
      "status": "0x1",
      "cumulativeGasUsed": "0x52451",
      "logs": [],
      "logsBloom": "0x00000000000000000000000000000000000000000000000000000000000000000000000000000000000000000000000000000000000000000000000000000000000000000000000000000000000000000000000000000000000000000000000000000000000000000000000000000000000000000000000000000000000000000000000000000000000000000000000000000000000000000000000000000000000000000000000000000000000000000000000000000000000000000000000000000000000000000000000000000000000000000000000000000000000000000000000000000000000000000000000000000000000000000000000000000000",
      "type": "0x0",
      "transactionHash": "0x7bc7cd8f60151c3203742a0ae4182f1c9849671ec2396b347a85d4e47766c013",
      "transactionIndex": "0x0",
      "blockHash": "0x9781323564ee096ee48c679e10f1491af5674f034d741907c48eecf8dd210051",
      "blockNumber": "0xd",
      "gasUsed": "0x52451",
      "effectiveGasPrice": "0x3b9aca00",
      "blobGasPrice": "0x1",
      "from": "0xd289d1387ae1033a703842d69501d5bec5a6f04e",
      "to": null,
      "contractAddress": "0x0be19c78706c441de4178a2266a650e47160eda7"
    },
    {
      "status": "0x1",
      "cumulativeGasUsed": "0xc546",
      "logs": [
        {
          "address": "0x8828fd7431d5bb1962d7e067c103b2324fa6bbec",
          "topics": [
            "0x14c028d3d668eb3454bce44d123ceeeb9fb4e74bee073c41f4001e63f0613094",
            "0x0000000000000000000000000be19c78706c441de4178a2266a650e47160eda7",
            "0x0000000000000000000000000be19c78706c441de4178a2266a650e47160eda7"
          ],
          "data": "0x",
          "blockHash": "0x74649d41adfef1e3235d61add6cc9b4c81cdb3f0f567266790fa343cd1f79bb9",
          "blockNumber": "0xe",
          "blockTimestamp": "0x69665368",
          "transactionHash": "0x7229f9dc24caa654c63e7128331481239f501956fab5ef0d85ea817518bd82b8",
          "transactionIndex": "0x0",
          "logIndex": "0x0",
          "removed": false
        },
        {
          "address": "0x8828fd7431d5bb1962d7e067c103b2324fa6bbec",
          "topics": [
            "0x78160f0b1b2b32b52a0076d8f0f70888687ba702a4d993d55ac8d9327d57a127",
            "0x0000000000000000000000000000000000000000000000000000000000000004",
            "0x562dab927834a98cf6c702791d7eafa3b967616a2e1389bd57073d0f7028186a",
            "0x948549d1589be014d9e621d63e5a2994c11b6faae77bd7178dfb381a90ede0ea"
          ],
          "data": "0x14c028d3d668eb3454bce44d123ceeeb9fb4e74bee073c41f4001e63f0613094000000000000000000000000000000000000000000000000000000000000004000000000000000000000000000000000000000000000000000000000000000400000000000000000000000000be19c78706c441de4178a2266a650e47160eda70000000000000000000000000be19c78706c441de4178a2266a650e47160eda7",
          "blockHash": "0x74649d41adfef1e3235d61add6cc9b4c81cdb3f0f567266790fa343cd1f79bb9",
          "blockNumber": "0xe",
          "blockTimestamp": "0x69665368",
          "transactionHash": "0x7229f9dc24caa654c63e7128331481239f501956fab5ef0d85ea817518bd82b8",
          "transactionIndex": "0x0",
          "logIndex": "0x1",
          "removed": false
        }
      ],
      "logsBloom": "0x00000000000000000000000000000000000000000000000000200000000000000000000000000000000000000000000000000000000000800000000000200000000000800200000000010000000000000000000000000000000000000000000008000020000800000000000400000008000000000200000000000000000000000000000000000400000000000000000000000000000000000000000000000000000000000000000000000000000000000000000000000000002000000000000000000000000000040000000000000010000000008000000000000000000000001400000000000000000000000040000000000000000000000000000000004000",
      "type": "0x0",
      "transactionHash": "0x7229f9dc24caa654c63e7128331481239f501956fab5ef0d85ea817518bd82b8",
      "transactionIndex": "0x0",
      "blockHash": "0x74649d41adfef1e3235d61add6cc9b4c81cdb3f0f567266790fa343cd1f79bb9",
      "blockNumber": "0xe",
      "gasUsed": "0xc546",
      "effectiveGasPrice": "0x3b9aca00",
      "blobGasPrice": "0x1",
      "from": "0xd289d1387ae1033a703842d69501d5bec5a6f04e",
      "to": "0x8828fd7431d5bb1962d7e067c103b2324fa6bbec",
      "contractAddress": null
    },
    {
      "status": "0x1",
      "cumulativeGasUsed": "0x1f4cb",
      "logs": [],
      "logsBloom": "0x00000000000000000000000000000000000000000000000000000000000000000000000000000000000000000000000000000000000000000000000000000000000000000000000000000000000000000000000000000000000000000000000000000000000000000000000000000000000000000000000000000000000000000000000000000000000000000000000000000000000000000000000000000000000000000000000000000000000000000000000000000000000000000000000000000000000000000000000000000000000000000000000000000000000000000000000000000000000000000000000000000000000000000000000000000000",
      "type": "0x0",
      "transactionHash": "0x9b963a4bc6ecf2346e7adf12b492217d66c5a337c414d6f99e799b36873251a0",
      "transactionIndex": "0x0",
      "blockHash": "0xa9be903117ee6c59aefab17e0a076d5feebde700ffd666eeb22bcd2a5c5c209d",
      "blockNumber": "0xf",
      "gasUsed": "0x1f4cb",
      "effectiveGasPrice": "0x3b9aca00",
      "blobGasPrice": "0x1",
      "from": "0xd289d1387ae1033a703842d69501d5bec5a6f04e",
      "to": null,
      "contractAddress": "0x481e836be187303c64f269bc7fe2c52f7f7c6eef"
    },
    {
      "status": "0x1",
      "cumulativeGasUsed": "0xaa2b",
      "logs": [],
      "logsBloom": "0x00000000000000000000000000000000000000000000000000000000000000000000000000000000000000000000000000000000000000000000000000000000000000000000000000000000000000000000000000000000000000000000000000000000000000000000000000000000000000000000000000000000000000000000000000000000000000000000000000000000000000000000000000000000000000000000000000000000000000000000000000000000000000000000000000000000000000000000000000000000000000000000000000000000000000000000000000000000000000000000000000000000000000000000000000000000",
      "type": "0x0",
      "transactionHash": "0x78ead996c6665faaad59b3859eeea0c11bb264da3b06a1f216e1c860aa3b51d1",
      "transactionIndex": "0x0",
      "blockHash": "0x31f4d6de85863dacaf1dba99f34cb30ebef4fa861eccb08a28a8ecd1b6498bd1",
      "blockNumber": "0x10",
      "gasUsed": "0xaa2b",
      "effectiveGasPrice": "0x3b9aca00",
      "blobGasPrice": "0x1",
      "from": "0xd289d1387ae1033a703842d69501d5bec5a6f04e",
      "to": "0x481e836be187303c64f269bc7fe2c52f7f7c6eef",
      "contractAddress": null
    },
    {
      "status": "0x1",
      "cumulativeGasUsed": "0xb23d",
      "logs": [
        {
          "address": "0x8828fd7431d5bb1962d7e067c103b2324fa6bbec",
          "topics": [
            "0x2e3d7d02ba3c4bd8b1f8995cd3a23ef0193922ebc4ee23249ead4d0ca2e34c68",
            "0x0000000000000000000000004d4adec97e3e11693f65dedc2d1e6bec784eb2f1",
            "0x000000000000000000000000481e836be187303c64f269bc7fe2c52f7f7c6eef"
          ],
          "data": "0x",
          "blockHash": "0x99d566a9b299094bcaf32422b46048e619d91dc1daf799ea384b996c4c27a204",
          "blockNumber": "0x11",
          "blockTimestamp": "0x69665368",
          "transactionHash": "0x4b635eba678338a1f568eedc66fc507bbbfd26ce178bef78a4aa6e8c17afc29d",
          "transactionIndex": "0x0",
          "logIndex": "0x0",
          "removed": false
        },
        {
          "address": "0x8828fd7431d5bb1962d7e067c103b2324fa6bbec",
          "topics": [
            "0x78160f0b1b2b32b52a0076d8f0f70888687ba702a4d993d55ac8d9327d57a127",
            "0x0000000000000000000000000000000000000000000000000000000000000005",
            "0x948549d1589be014d9e621d63e5a2994c11b6faae77bd7178dfb381a90ede0ea",
            "0x49e03399854c392ed635d7cbe3e59629c5368b73130a4d998e4b12775626b9f5"
          ],
          "data": "0x2e3d7d02ba3c4bd8b1f8995cd3a23ef0193922ebc4ee23249ead4d0ca2e34c68000000000000000000000000000000000000000000000000000000000000004000000000000000000000000000000000000000000000000000000000000000400000000000000000000000004d4adec97e3e11693f65dedc2d1e6bec784eb2f1000000000000000000000000481e836be187303c64f269bc7fe2c52f7f7c6eef",
          "blockHash": "0x99d566a9b299094bcaf32422b46048e619d91dc1daf799ea384b996c4c27a204",
          "blockNumber": "0x11",
          "blockTimestamp": "0x69665368",
          "transactionHash": "0x4b635eba678338a1f568eedc66fc507bbbfd26ce178bef78a4aa6e8c17afc29d",
          "transactionIndex": "0x0",
          "logIndex": "0x1",
          "removed": false
        }
      ],
      "logsBloom": "0x000000000000000000000000002000000000000000000000002000000000000000000000000000000000000000000000000000000000008004000000002000000000100002000000000000000000000000080000200040000000000000000000000000200008000000000000000000080000000000000000800000000000000000000000000000800000000000000010000008000000000000000000000000000000001000000000000000000000000000000000000000000000000000000000000000000000080000000000000000000000000000000000000000000000000000000000000000000000000000c0000800000000000400000000000000004000",
      "type": "0x0",
      "transactionHash": "0x4b635eba678338a1f568eedc66fc507bbbfd26ce178bef78a4aa6e8c17afc29d",
      "transactionIndex": "0x0",
      "blockHash": "0x99d566a9b299094bcaf32422b46048e619d91dc1daf799ea384b996c4c27a204",
      "blockNumber": "0x11",
      "gasUsed": "0xb23d",
      "effectiveGasPrice": "0x3b9aca00",
      "blobGasPrice": "0x1",
      "from": "0xd289d1387ae1033a703842d69501d5bec5a6f04e",
      "to": "0x8828fd7431d5bb1962d7e067c103b2324fa6bbec",
      "contractAddress": null
    },
    {
      "status": "0x1",
      "cumulativeGasUsed": "0x147a0",
      "logs": [
        {
          "address": "0x048255dfef2ebfa7307058ae475a3e2f5ee0df46",
          "topics": [
            "0x9d4c3779a823aa84b20dd2e8551e6ed95addbc562f3bc49b1e688ab785b05d9d"
          ],
          "data": "0x0000000000000000000000000000000000000000000000000000000000002710000000000000000000000000000000000000000000000000000000000000007b",
          "blockHash": "0xb82151ed7156b6c079a3ddae08f396309939b088a779a408d830e16b735d737e",
          "blockNumber": "0x12",
          "blockTimestamp": "0x69665368",
          "transactionHash": "0x753de042ae1f2a5129fe9044782f80d45c55603f6995fadad7b8b51e3a3d4044",
          "transactionIndex": "0x0",
          "logIndex": "0x0",
          "removed": false
        },
        {
          "address": "0x048255dfef2ebfa7307058ae475a3e2f5ee0df46",
          "topics": [
            "0x78160f0b1b2b32b52a0076d8f0f70888687ba702a4d993d55ac8d9327d57a127",
            "0x0000000000000000000000000000000000000000000000000000000000000003",
            "0x42e9f2ab8a74685373b697dc41eb6e8e51d74a0525c317bee66ecc043ea54794",
            "0xb1803b7afb4117b26c10b82377b025e172ea8e3eadddcd749960203a93e8ecf2"
          ],
          "data": "0x9d4c3779a823aa84b20dd2e8551e6ed95addbc562f3bc49b1e688ab785b05d9d000000000000000000000000000000000000000000000000000000000000004000000000000000000000000000000000000000000000000000000000000000400000000000000000000000000000000000000000000000000000000000002710000000000000000000000000000000000000000000000000000000000000007b",
          "blockHash": "0xb82151ed7156b6c079a3ddae08f396309939b088a779a408d830e16b735d737e",
          "blockNumber": "0x12",
          "blockTimestamp": "0x69665368",
          "transactionHash": "0x753de042ae1f2a5129fe9044782f80d45c55603f6995fadad7b8b51e3a3d4044",
          "transactionIndex": "0x0",
          "logIndex": "0x1",
          "removed": false
        }
      ],
      "logsBloom": "0x00000000000000800000000000000000000000000000000000000000000000000000000000000100000000004000200000000002020000000000000000200000000000000000008000000000000000000000000000000000000000000000000000000020000800004000000000000000000000000000000000000000000000000000000000000000000000000000000000000000000000000000000000000000000000000000000000000000000000102000000200800000000000000000400000000000000000000000000000000000000000000200000000000000000000000000000000000000000000000000000000000000000000000000000000004000",
      "type": "0x0",
      "transactionHash": "0x753de042ae1f2a5129fe9044782f80d45c55603f6995fadad7b8b51e3a3d4044",
      "transactionIndex": "0x0",
      "blockHash": "0xb82151ed7156b6c079a3ddae08f396309939b088a779a408d830e16b735d737e",
      "blockNumber": "0x12",
      "gasUsed": "0x147a0",
      "effectiveGasPrice": "0x3b9aca00",
      "blobGasPrice": "0x1",
      "from": "0xd289d1387ae1033a703842d69501d5bec5a6f04e",
      "to": "0x048255dfef2ebfa7307058ae475a3e2f5ee0df46",
      "contractAddress": null
    },
    {
      "status": "0x1",
      "cumulativeGasUsed": "0x1f4cb",
      "logs": [],
      "logsBloom": "0x00000000000000000000000000000000000000000000000000000000000000000000000000000000000000000000000000000000000000000000000000000000000000000000000000000000000000000000000000000000000000000000000000000000000000000000000000000000000000000000000000000000000000000000000000000000000000000000000000000000000000000000000000000000000000000000000000000000000000000000000000000000000000000000000000000000000000000000000000000000000000000000000000000000000000000000000000000000000000000000000000000000000000000000000000000000",
      "type": "0x0",
      "transactionHash": "0x8707a197319b71fc0982327eeae8cc21df02d42fe186154c00944ef03f33cf10",
      "transactionIndex": "0x0",
      "blockHash": "0x235ce49e634e4d8e2eb6e827be7551522d7211a6c17fcf6d7569aeebaf68c376",
      "blockNumber": "0x13",
      "gasUsed": "0x1f4cb",
      "effectiveGasPrice": "0x3b9aca00",
      "blobGasPrice": "0x1",
      "from": "0xd289d1387ae1033a703842d69501d5bec5a6f04e",
      "to": null,
      "contractAddress": "0x6b0f32ae157cf4f7d9b402c4e243e9088207dd87"
    },
    {
      "status": "0x1",
      "cumulativeGasUsed": "0xaa2b",
      "logs": [],
      "logsBloom": "0x00000000000000000000000000000000000000000000000000000000000000000000000000000000000000000000000000000000000000000000000000000000000000000000000000000000000000000000000000000000000000000000000000000000000000000000000000000000000000000000000000000000000000000000000000000000000000000000000000000000000000000000000000000000000000000000000000000000000000000000000000000000000000000000000000000000000000000000000000000000000000000000000000000000000000000000000000000000000000000000000000000000000000000000000000000000",
      "type": "0x0",
      "transactionHash": "0xaf999a2900874b24a9435a05f50dc149b0efcdfb2d3e9df20e6e9ec12bada379",
      "transactionIndex": "0x0",
      "blockHash": "0xde707410e1d144d6b921cc56cf94602e5d9f0f54df53a00553e9c00fa8d33ab1",
      "blockNumber": "0x14",
      "gasUsed": "0xaa2b",
      "effectiveGasPrice": "0x3b9aca00",
      "blobGasPrice": "0x1",
      "from": "0xd289d1387ae1033a703842d69501d5bec5a6f04e",
      "to": "0x6b0f32ae157cf4f7d9b402c4e243e9088207dd87",
      "contractAddress": null
    },
    {
      "status": "0x1",
      "cumulativeGasUsed": "0xb23d",
      "logs": [
        {
          "address": "0x8828fd7431d5bb1962d7e067c103b2324fa6bbec",
          "topics": [
            "0x2e3d7d02ba3c4bd8b1f8995cd3a23ef0193922ebc4ee23249ead4d0ca2e34c68",
            "0x0000000000000000000000004d4adec97e3e11693f65dedc2d1e6bec784eb2f1",
            "0x0000000000000000000000006b0f32ae157cf4f7d9b402c4e243e9088207dd87"
          ],
          "data": "0x",
          "blockHash": "0xb14f64b9990f48cc427b92a283d6f9d8b03c08fb1b6f37069057f986c9ae3ed6",
          "blockNumber": "0x15",
          "blockTimestamp": "0x69665368",
          "transactionHash": "0xafdca55f2e0800f57137546d4a95c28041789555878d8571f7b124d106d50f4d",
          "transactionIndex": "0x0",
          "logIndex": "0x0",
          "removed": false
        },
        {
          "address": "0x8828fd7431d5bb1962d7e067c103b2324fa6bbec",
          "topics": [
            "0x78160f0b1b2b32b52a0076d8f0f70888687ba702a4d993d55ac8d9327d57a127",
            "0x0000000000000000000000000000000000000000000000000000000000000006",
            "0x49e03399854c392ed635d7cbe3e59629c5368b73130a4d998e4b12775626b9f5",
            "0x848439990cfe2c09d01ca0c6e5897fc38f58223cb4c3da6e7ca32ed64fe58805"
          ],
          "data": "0x2e3d7d02ba3c4bd8b1f8995cd3a23ef0193922ebc4ee23249ead4d0ca2e34c68000000000000000000000000000000000000000000000000000000000000004000000000000000000000000000000000000000000000000000000000000000400000000000000000000000004d4adec97e3e11693f65dedc2d1e6bec784eb2f10000000000000000000000006b0f32ae157cf4f7d9b402c4e243e9088207dd87",
          "blockHash": "0xb14f64b9990f48cc427b92a283d6f9d8b03c08fb1b6f37069057f986c9ae3ed6",
          "blockNumber": "0x15",
          "blockTimestamp": "0x69665368",
          "transactionHash": "0xafdca55f2e0800f57137546d4a95c28041789555878d8571f7b124d106d50f4d",
          "transactionIndex": "0x0",
          "logIndex": "0x1",
          "removed": false
        }
      ],
      "logsBloom": "0x00000000000000000020000000200000000000000000000000000000000000000000000000000000000000000000000000000000000400000000000000200000000000000200000000000000000004000000000000004000000000000000000000000020000800000000008000000008000000000000000080000000000000000000000400000080000000000000000000000000000000000000000000000000000001100000000000000000000000000000000000000000000000080080000000000000000008000020000000000000000000000000000000000000000000000000000000000000000000000080000800000000000400000000000000004000",
      "type": "0x0",
      "transactionHash": "0xafdca55f2e0800f57137546d4a95c28041789555878d8571f7b124d106d50f4d",
      "transactionIndex": "0x0",
      "blockHash": "0xb14f64b9990f48cc427b92a283d6f9d8b03c08fb1b6f37069057f986c9ae3ed6",
      "blockNumber": "0x15",
      "gasUsed": "0xb23d",
      "effectiveGasPrice": "0x3b9aca00",
      "blobGasPrice": "0x1",
      "from": "0xd289d1387ae1033a703842d69501d5bec5a6f04e",
      "to": "0x8828fd7431d5bb1962d7e067c103b2324fa6bbec",
      "contractAddress": null
    },
    {
      "status": "0x1",
      "cumulativeGasUsed": "0x50fb6",
      "logs": [],
      "logsBloom": "0x00000000000000000000000000000000000000000000000000000000000000000000000000000000000000000000000000000000000000000000000000000000000000000000000000000000000000000000000000000000000000000000000000000000000000000000000000000000000000000000000000000000000000000000000000000000000000000000000000000000000000000000000000000000000000000000000000000000000000000000000000000000000000000000000000000000000000000000000000000000000000000000000000000000000000000000000000000000000000000000000000000000000000000000000000000000",
      "type": "0x0",
      "transactionHash": "0x98fc17cdb726df30d803f2bd22fd3857476915d4e5b0d42b8033d4812cb70688",
      "transactionIndex": "0x0",
      "blockHash": "0xb01649864dcb162182f8b280b08c894a7171825e621fb48c6d8a78020ea42343",
      "blockNumber": "0x16",
      "gasUsed": "0x50fb6",
      "effectiveGasPrice": "0x3b9aca00",
      "blobGasPrice": "0x1",
      "from": "0xd289d1387ae1033a703842d69501d5bec5a6f04e",
      "to": null,
      "contractAddress": "0xc5ea444a0f556f5b227ec7447294d91086bb692c"
    },
    {
      "status": "0x1",
      "cumulativeGasUsed": "0xc546",
      "logs": [
        {
          "address": "0x8828fd7431d5bb1962d7e067c103b2324fa6bbec",
          "topics": [
            "0x14c028d3d668eb3454bce44d123ceeeb9fb4e74bee073c41f4001e63f0613094",
            "0x000000000000000000000000c5ea444a0f556f5b227ec7447294d91086bb692c",
            "0x000000000000000000000000c5ea444a0f556f5b227ec7447294d91086bb692c"
          ],
          "data": "0x",
          "blockHash": "0x4af4eef58571fe0f92f4572be799e6e002d3bd22639eb82d72b2a6d290c9c7c1",
          "blockNumber": "0x17",
          "blockTimestamp": "0x69665368",
          "transactionHash": "0xe67de811d159470a785d44c395fd4d06b45bb1186bbab9ba48c52f6051805029",
          "transactionIndex": "0x0",
          "logIndex": "0x0",
          "removed": false
        },
        {
          "address": "0x8828fd7431d5bb1962d7e067c103b2324fa6bbec",
          "topics": [
            "0x78160f0b1b2b32b52a0076d8f0f70888687ba702a4d993d55ac8d9327d57a127",
            "0x0000000000000000000000000000000000000000000000000000000000000007",
            "0x848439990cfe2c09d01ca0c6e5897fc38f58223cb4c3da6e7ca32ed64fe58805",
            "0x4b4a7c5f6187a2d33d25922842efaa57bcf2ae8dc7ec35fce9fe9f19b6c8f431"
          ],
          "data": "0x14c028d3d668eb3454bce44d123ceeeb9fb4e74bee073c41f4001e63f061309400000000000000000000000000000000000000000000000000000000000000400000000000000000000000000000000000000000000000000000000000000040000000000000000000000000c5ea444a0f556f5b227ec7447294d91086bb692c000000000000000000000000c5ea444a0f556f5b227ec7447294d91086bb692c",
          "blockHash": "0x4af4eef58571fe0f92f4572be799e6e002d3bd22639eb82d72b2a6d290c9c7c1",
          "blockNumber": "0x17",
          "blockTimestamp": "0x69665368",
          "transactionHash": "0xe67de811d159470a785d44c395fd4d06b45bb1186bbab9ba48c52f6051805029",
          "transactionIndex": "0x0",
          "logIndex": "0x1",
          "removed": false
        }
      ],
      "logsBloom": "0x00000000000000000120000000000000000000000000000000000000000000000000000000000000000000000000000000001000000000000000000000200000000020000200000001000000000000000000000000000000000000100000000000000020000800000000008000000008000000000000000000000000000000000000000000000000000000000000000000000000000000000000000000000000000000000000000000000000000000000000000000000008000000000000000000000000000000040020000000000010000000000000000000000100000000000400000000000100000000000000000000000000000000000000000400004000",
      "type": "0x0",
      "transactionHash": "0xe67de811d159470a785d44c395fd4d06b45bb1186bbab9ba48c52f6051805029",
      "transactionIndex": "0x0",
      "blockHash": "0x4af4eef58571fe0f92f4572be799e6e002d3bd22639eb82d72b2a6d290c9c7c1",
      "blockNumber": "0x17",
      "gasUsed": "0xc546",
      "effectiveGasPrice": "0x3b9aca00",
      "blobGasPrice": "0x1",
      "from": "0xd289d1387ae1033a703842d69501d5bec5a6f04e",
      "to": "0x8828fd7431d5bb1962d7e067c103b2324fa6bbec",
      "contractAddress": null
    },
    {
      "status": "0x1",
      "cumulativeGasUsed": "0xac60",
      "logs": [],
      "logsBloom": "0x00000000000000000000000000000000000000000000000000000000000000000000000000000000000000000000000000000000000000000000000000000000000000000000000000000000000000000000000000000000000000000000000000000000000000000000000000000000000000000000000000000000000000000000000000000000000000000000000000000000000000000000000000000000000000000000000000000000000000000000000000000000000000000000000000000000000000000000000000000000000000000000000000000000000000000000000000000000000000000000000000000000000000000000000000000000",
      "type": "0x0",
      "transactionHash": "0x76e07334de2febfe9242ceb3d13bf8b2cac85c95d49434c7e13491a8a0192028",
      "transactionIndex": "0x0",
      "blockHash": "0xe3bf7d19d97dde5896c422f608044d5eb5db7ff6590a94784a80b1979547d016",
      "blockNumber": "0x18",
      "gasUsed": "0xac60",
      "effectiveGasPrice": "0x3b9aca00",
      "blobGasPrice": "0x1",
      "from": "0xd289d1387ae1033a703842d69501d5bec5a6f04e",
      "to": "0x4d4adec97e3e11693f65dedc2d1e6bec784eb2f1",
      "contractAddress": null
    },
    {
      "status": "0x1",
      "cumulativeGasUsed": "0x30390",
      "logs": [
        {
          "address": "0x8828fd7431d5bb1962d7e067c103b2324fa6bbec",
          "topics": [
            "0x7391f14355eff1e559e381f5bf49886a77da7c4fdd33c6fc2e0142269c561c59",
            "0x8ece8d3805aa939f567ab7a2cf061970419abc67280669c83dd379f20bafd1d8",
            "0xd641bc2fe120a8d11cfc804503957d616122e9635d4c05d8cc594d82bb849cf9",
            "0x0000000000000000000000000000000000000000000000000000000000000001"
          ],
          "data": "0x000000000000000000000000000000000000000000000000000000000000000000000000000000000000000000000000000000000000000000000000000001bc000000000000000000000000d59d27b9172ad056cb5c008dc2bbefe702123a55000000000000000000000000000000000000000000000000000000000000000000000000000000000000000000000000000000000000000000000000000000000000000000000000000000004d4adec97e3e11693f65dedc2d1e6bec784eb2f10000000000000000000000004d4adec97e3e11693f65dedc2d1e6bec784eb2f10000000000000000000000006607fda2d454a9b800d0b18e0ddb7497da2a79d0000000000000000000000000025cee1ae5dbeafc5b52ba0cddf8d0ec15e565b3",
          "blockHash": "0x1a1f9d13dda896462dd833a5222f9e36a821a03de0e66e1ef41e93a0d1ee775a",
          "blockNumber": "0x19",
          "blockTimestamp": "0x69665368",
          "transactionHash": "0xd3e0fc662955b74efebc8da7e0de020d9c814c8acdd79f63162cfd2ee94227ca",
          "transactionIndex": "0x0",
          "logIndex": "0x0",
          "removed": false
        },
        {
          "address": "0x8828fd7431d5bb1962d7e067c103b2324fa6bbec",
          "topics": [
            "0x78160f0b1b2b32b52a0076d8f0f70888687ba702a4d993d55ac8d9327d57a127",
            "0x0000000000000000000000000000000000000000000000000000000000000008",
            "0x4b4a7c5f6187a2d33d25922842efaa57bcf2ae8dc7ec35fce9fe9f19b6c8f431",
            "0xa79b3a15ebad6bc5110923c0e75d9882f3d169b08c9c358be4f4af87f98ccba6"
          ],
          "data": "0x7391f14355eff1e559e381f5bf49886a77da7c4fdd33c6fc2e0142269c561c59000000000000000000000000000000000000000000000000000000000000004000000000000000000000000000000000000000000000000000000000000001808ece8d3805aa939f567ab7a2cf061970419abc67280669c83dd379f20bafd1d8d641bc2fe120a8d11cfc804503957d616122e9635d4c05d8cc594d82bb849cf90000000000000000000000000000000000000000000000000000000000000001000000000000000000000000000000000000000000000000000000000000000000000000000000000000000000000000000000000000000000000000000001bc000000000000000000000000d59d27b9172ad056cb5c008dc2bbefe702123a55000000000000000000000000000000000000000000000000000000000000000000000000000000000000000000000000000000000000000000000000000000000000000000000000000000004d4adec97e3e11693f65dedc2d1e6bec784eb2f10000000000000000000000004d4adec97e3e11693f65dedc2d1e6bec784eb2f10000000000000000000000006607fda2d454a9b800d0b18e0ddb7497da2a79d0000000000000000000000000025cee1ae5dbeafc5b52ba0cddf8d0ec15e565b3",
          "blockHash": "0x1a1f9d13dda896462dd833a5222f9e36a821a03de0e66e1ef41e93a0d1ee775a",
          "blockNumber": "0x19",
          "blockTimestamp": "0x69665368",
          "transactionHash": "0xd3e0fc662955b74efebc8da7e0de020d9c814c8acdd79f63162cfd2ee94227ca",
          "transactionIndex": "0x0",
          "logIndex": "0x1",
          "removed": false
        },
        {
          "address": "0x8828fd7431d5bb1962d7e067c103b2324fa6bbec",
          "topics": [
            "0x488f06a9ca9e19e1dd90c764cc79b765e8a3a089ef27d9a0e39dee21c7643188",
            "0x8a40b333cda03fbb9ca371e979b5f64f3d60f54a61d5ca72a61d82c4e98eeb64",
            "0x000000000000000000000000025cee1ae5dbeafc5b52ba0cddf8d0ec15e565b3"
          ],
          "data": "0x000000000000000000000000e007a594267d5b9a4f5bf6fd054579eb82f5a057",
          "blockHash": "0x1a1f9d13dda896462dd833a5222f9e36a821a03de0e66e1ef41e93a0d1ee775a",
          "blockNumber": "0x19",
          "blockTimestamp": "0x69665368",
          "transactionHash": "0xd3e0fc662955b74efebc8da7e0de020d9c814c8acdd79f63162cfd2ee94227ca",
          "transactionIndex": "0x0",
          "logIndex": "0x2",
          "removed": false
        },
        {
          "address": "0x8828fd7431d5bb1962d7e067c103b2324fa6bbec",
          "topics": [
            "0x78160f0b1b2b32b52a0076d8f0f70888687ba702a4d993d55ac8d9327d57a127",
            "0x0000000000000000000000000000000000000000000000000000000000000009",
            "0xa79b3a15ebad6bc5110923c0e75d9882f3d169b08c9c358be4f4af87f98ccba6",
            "0x31b839b41a4f979420e2f251435aade3ec1b973d05ad80e0433110553a511bae"
          ],
          "data": "0x488f06a9ca9e19e1dd90c764cc79b765e8a3a089ef27d9a0e39dee21c7643188000000000000000000000000000000000000000000000000000000000000004000000000000000000000000000000000000000000000000000000000000000608a40b333cda03fbb9ca371e979b5f64f3d60f54a61d5ca72a61d82c4e98eeb64000000000000000000000000025cee1ae5dbeafc5b52ba0cddf8d0ec15e565b3000000000000000000000000e007a594267d5b9a4f5bf6fd054579eb82f5a057",
          "blockHash": "0x1a1f9d13dda896462dd833a5222f9e36a821a03de0e66e1ef41e93a0d1ee775a",
          "blockNumber": "0x19",
          "blockTimestamp": "0x69665368",
          "transactionHash": "0xd3e0fc662955b74efebc8da7e0de020d9c814c8acdd79f63162cfd2ee94227ca",
          "transactionIndex": "0x0",
          "logIndex": "0x3",
          "removed": false
        },
        {
          "address": "0x8828fd7431d5bb1962d7e067c103b2324fa6bbec",
          "topics": [
            "0x488f06a9ca9e19e1dd90c764cc79b765e8a3a089ef27d9a0e39dee21c7643188",
            "0xd641bc2fe120a8d11cfc804503957d616122e9635d4c05d8cc594d82bb849cf9",
            "0x0000000000000000000000006607fda2d454a9b800d0b18e0ddb7497da2a79d0"
          ],
          "data": "0x000000000000000000000000e007a594267d5b9a4f5bf6fd054579eb82f5a057",
          "blockHash": "0x1a1f9d13dda896462dd833a5222f9e36a821a03de0e66e1ef41e93a0d1ee775a",
          "blockNumber": "0x19",
          "blockTimestamp": "0x69665368",
          "transactionHash": "0xd3e0fc662955b74efebc8da7e0de020d9c814c8acdd79f63162cfd2ee94227ca",
          "transactionIndex": "0x0",
          "logIndex": "0x4",
          "removed": false
        },
        {
          "address": "0x8828fd7431d5bb1962d7e067c103b2324fa6bbec",
          "topics": [
            "0x78160f0b1b2b32b52a0076d8f0f70888687ba702a4d993d55ac8d9327d57a127",
            "0x000000000000000000000000000000000000000000000000000000000000000a",
            "0x31b839b41a4f979420e2f251435aade3ec1b973d05ad80e0433110553a511bae",
            "0xfc4d6d1e855668aff3c4d531265ab5a6cf6c6ddccbc2ac92afeea2675be8a589"
          ],
          "data": "0x488f06a9ca9e19e1dd90c764cc79b765e8a3a089ef27d9a0e39dee21c764318800000000000000000000000000000000000000000000000000000000000000400000000000000000000000000000000000000000000000000000000000000060d641bc2fe120a8d11cfc804503957d616122e9635d4c05d8cc594d82bb849cf90000000000000000000000006607fda2d454a9b800d0b18e0ddb7497da2a79d0000000000000000000000000e007a594267d5b9a4f5bf6fd054579eb82f5a057",
          "blockHash": "0x1a1f9d13dda896462dd833a5222f9e36a821a03de0e66e1ef41e93a0d1ee775a",
          "blockNumber": "0x19",
          "blockTimestamp": "0x69665368",
          "transactionHash": "0xd3e0fc662955b74efebc8da7e0de020d9c814c8acdd79f63162cfd2ee94227ca",
          "transactionIndex": "0x0",
          "logIndex": "0x5",
          "removed": false
        },
        {
          "address": "0x8828fd7431d5bb1962d7e067c103b2324fa6bbec",
          "topics": [
            "0x2e659081f44c4f56a18b00f3f9d136d7ee8396bc79163c4d61363ddcf4a4cb27",
            "0x8ece8d3805aa939f567ab7a2cf061970419abc67280669c83dd379f20bafd1d8"
          ],
          "data": "0x0000000000000000000000000000000000000000000000000000000000000000000000000000000000000000000000000000000000000000000000000754d4c0000000000000000000000000000000000000000000000000000000000754d4c000000000000000000000000000000000000000000000000000000000000000000000000000000000000000000000000000000000000000000000000000000000000000000000000000000000000000000000000000000000000000000000000100000000000000000000000000000000000000000000000000000000000000000000000000000000000000000000000000000000000000000000000000000000c5d2460186f7233c927e7db2dcc703c0e500b653ca82273b7bfad8045d85a470",
          "blockHash": "0x1a1f9d13dda896462dd833a5222f9e36a821a03de0e66e1ef41e93a0d1ee775a",
          "blockNumber": "0x19",
          "blockTimestamp": "0x69665368",
          "transactionHash": "0xd3e0fc662955b74efebc8da7e0de020d9c814c8acdd79f63162cfd2ee94227ca",
          "transactionIndex": "0x0",
          "logIndex": "0x6",
          "removed": false
        },
        {
          "address": "0x8828fd7431d5bb1962d7e067c103b2324fa6bbec",
          "topics": [
            "0x78160f0b1b2b32b52a0076d8f0f70888687ba702a4d993d55ac8d9327d57a127",
            "0x000000000000000000000000000000000000000000000000000000000000000b",
            "0xfc4d6d1e855668aff3c4d531265ab5a6cf6c6ddccbc2ac92afeea2675be8a589",
            "0x39169ae63248d50483ebcf9542ebec820292d777f4b3f2964cbad45bb58c4129"
          ],
          "data": "0x2e659081f44c4f56a18b00f3f9d136d7ee8396bc79163c4d61363ddcf4a4cb27000000000000000000000000000000000000000000000000000000000000004000000000000000000000000000000000000000000000000000000000000001408ece8d3805aa939f567ab7a2cf061970419abc67280669c83dd379f20bafd1d80000000000000000000000000000000000000000000000000000000000000000000000000000000000000000000000000000000000000000000000000754d4c0000000000000000000000000000000000000000000000000000000000754d4c000000000000000000000000000000000000000000000000000000000000000000000000000000000000000000000000000000000000000000000000000000000000000000000000000000000000000000000000000000000000000000000000100000000000000000000000000000000000000000000000000000000000000000000000000000000000000000000000000000000000000000000000000000000c5d2460186f7233c927e7db2dcc703c0e500b653ca82273b7bfad8045d85a470",
          "blockHash": "0x1a1f9d13dda896462dd833a5222f9e36a821a03de0e66e1ef41e93a0d1ee775a",
          "blockNumber": "0x19",
          "blockTimestamp": "0x69665368",
          "transactionHash": "0xd3e0fc662955b74efebc8da7e0de020d9c814c8acdd79f63162cfd2ee94227ca",
          "transactionIndex": "0x0",
          "logIndex": "0x7",
          "removed": false
        }
      ],
      "logsBloom": "0x20000011008800000100004000000000000000000800000000000000080000000000000000000000000000000000000000000000040080000020000008240000000000000200000000000000000002c0000000000004000008000000000000001010002040080000004000000000800800000000000000000000000000001000008000000000000001000000000000000000100000000000000000080000000080000040000040000000000000000000000000001000000c000100800004008040000000800000000000000000000000102200000000400400000000000040000000000000000100000000000000000100800000000000040000000000804000",
      "type": "0x0",
      "transactionHash": "0xd3e0fc662955b74efebc8da7e0de020d9c814c8acdd79f63162cfd2ee94227ca",
      "transactionIndex": "0x0",
      "blockHash": "0x1a1f9d13dda896462dd833a5222f9e36a821a03de0e66e1ef41e93a0d1ee775a",
      "blockNumber": "0x19",
      "gasUsed": "0x30390",
      "effectiveGasPrice": "0x3b9aca00",
      "blobGasPrice": "0x1",
      "from": "0xd289d1387ae1033a703842d69501d5bec5a6f04e",
      "to": "0x8828fd7431d5bb1962d7e067c103b2324fa6bbec",
      "contractAddress": null
    },
    {
      "status": "0x1",
      "cumulativeGasUsed": "0xac54",
      "logs": [],
      "logsBloom": "0x00000000000000000000000000000000000000000000000000000000000000000000000000000000000000000000000000000000000000000000000000000000000000000000000000000000000000000000000000000000000000000000000000000000000000000000000000000000000000000000000000000000000000000000000000000000000000000000000000000000000000000000000000000000000000000000000000000000000000000000000000000000000000000000000000000000000000000000000000000000000000000000000000000000000000000000000000000000000000000000000000000000000000000000000000000000",
      "type": "0x0",
      "transactionHash": "0x9e4873b7b3b08c07882efaf057a281026bfe098d607e1d494b05f3061c0193f1",
      "transactionIndex": "0x0",
      "blockHash": "0xa189de792df21819948822364d3f6c6f4447e1ca7a136bd45f9e64f6a4e0abd2",
      "blockNumber": "0x1a",
      "gasUsed": "0xac54",
      "effectiveGasPrice": "0x3b9aca00",
      "blobGasPrice": "0x1",
      "from": "0xd289d1387ae1033a703842d69501d5bec5a6f04e",
      "to": "0x4d4adec97e3e11693f65dedc2d1e6bec784eb2f1",
      "contractAddress": null
    },
    {
      "status": "0x1",
      "cumulativeGasUsed": "0x3df0a",
      "logs": [
        {
          "address": "0x8828fd7431d5bb1962d7e067c103b2324fa6bbec",
          "topics": [
            "0x7391f14355eff1e559e381f5bf49886a77da7c4fdd33c6fc2e0142269c561c59",
            "0x66a743ad1362b3ab2aed0333e4ee51b4f4b51421bd50d6413a524eb58b88b113",
            "0xd641bc2fe120a8d11cfc804503957d616122e9635d4c05d8cc594d82bb849cf9",
            "0x0000000000000000000000000000000000000000000000000000000000000002"
          ],
          "data": "0x000000000000000000000000000000000000000000000000000000000000000000000000000000000000000000000000000000000000000000000000000001bc000000000000000000000000d59d27b9172ad056cb5c008dc2bbefe702123a55000000000000000000000000000000000000000000000000000000000000000000000000000000000000000000000000000000000000000000000000000000000000000000000000000000004d4adec97e3e11693f65dedc2d1e6bec784eb2f1000000000000000000000000f86c23c1e883ee3b820fb9be75ff91c9a49eae750000000000000000000000006607fda2d454a9b800d0b18e0ddb7497da2a79d0000000000000000000000000096207e4d3347cee4c85416b96c012821452b712",
          "blockHash": "0xbcecd4bf0cfd63c07001e57755adaa4a63c1e0f3e4744b2fa6bd1fa6d8a42bec",
          "blockNumber": "0x1b",
          "blockTimestamp": "0x69665368",
          "transactionHash": "0x8772375a183db88e302698098239d0ae5926afd00e7098aaae49accb27c504c1",
          "transactionIndex": "0x0",
          "logIndex": "0x0",
          "removed": false
        },
        {
          "address": "0x8828fd7431d5bb1962d7e067c103b2324fa6bbec",
          "topics": [
            "0x78160f0b1b2b32b52a0076d8f0f70888687ba702a4d993d55ac8d9327d57a127",
            "0x000000000000000000000000000000000000000000000000000000000000000c",
            "0x39169ae63248d50483ebcf9542ebec820292d777f4b3f2964cbad45bb58c4129",
            "0x672fa61172e6e42ef97a7f89cd15f4b6bd7e1989826028898cf546eb214eab42"
          ],
          "data": "0x7391f14355eff1e559e381f5bf49886a77da7c4fdd33c6fc2e0142269c561c590000000000000000000000000000000000000000000000000000000000000040000000000000000000000000000000000000000000000000000000000000018066a743ad1362b3ab2aed0333e4ee51b4f4b51421bd50d6413a524eb58b88b113d641bc2fe120a8d11cfc804503957d616122e9635d4c05d8cc594d82bb849cf90000000000000000000000000000000000000000000000000000000000000002000000000000000000000000000000000000000000000000000000000000000000000000000000000000000000000000000000000000000000000000000001bc000000000000000000000000d59d27b9172ad056cb5c008dc2bbefe702123a55000000000000000000000000000000000000000000000000000000000000000000000000000000000000000000000000000000000000000000000000000000000000000000000000000000004d4adec97e3e11693f65dedc2d1e6bec784eb2f1000000000000000000000000f86c23c1e883ee3b820fb9be75ff91c9a49eae750000000000000000000000006607fda2d454a9b800d0b18e0ddb7497da2a79d0000000000000000000000000096207e4d3347cee4c85416b96c012821452b712",
          "blockHash": "0xbcecd4bf0cfd63c07001e57755adaa4a63c1e0f3e4744b2fa6bd1fa6d8a42bec",
          "blockNumber": "0x1b",
          "blockTimestamp": "0x69665368",
          "transactionHash": "0x8772375a183db88e302698098239d0ae5926afd00e7098aaae49accb27c504c1",
          "transactionIndex": "0x0",
          "logIndex": "0x1",
          "removed": false
        },
        {
          "address": "0x8828fd7431d5bb1962d7e067c103b2324fa6bbec",
          "topics": [
            "0x488f06a9ca9e19e1dd90c764cc79b765e8a3a089ef27d9a0e39dee21c7643188",
            "0xe361584a8f096017b2172091d31b75fb8d22e735e55f2542da625482f40b53a0",
            "0x000000000000000000000000096207e4d3347cee4c85416b96c012821452b712"
          ],
          "data": "0x000000000000000000000000e007a594267d5b9a4f5bf6fd054579eb82f5a057",
          "blockHash": "0xbcecd4bf0cfd63c07001e57755adaa4a63c1e0f3e4744b2fa6bd1fa6d8a42bec",
          "blockNumber": "0x1b",
          "blockTimestamp": "0x69665368",
          "transactionHash": "0x8772375a183db88e302698098239d0ae5926afd00e7098aaae49accb27c504c1",
          "transactionIndex": "0x0",
          "logIndex": "0x2",
          "removed": false
        },
        {
          "address": "0x8828fd7431d5bb1962d7e067c103b2324fa6bbec",
          "topics": [
            "0x78160f0b1b2b32b52a0076d8f0f70888687ba702a4d993d55ac8d9327d57a127",
            "0x000000000000000000000000000000000000000000000000000000000000000d",
            "0x672fa61172e6e42ef97a7f89cd15f4b6bd7e1989826028898cf546eb214eab42",
            "0x8bdb43636c555a66fc58444ed8d2e50f36a0409eefee174ca3ffcde1711e2a06"
          ],
          "data": "0x488f06a9ca9e19e1dd90c764cc79b765e8a3a089ef27d9a0e39dee21c764318800000000000000000000000000000000000000000000000000000000000000400000000000000000000000000000000000000000000000000000000000000060e361584a8f096017b2172091d31b75fb8d22e735e55f2542da625482f40b53a0000000000000000000000000096207e4d3347cee4c85416b96c012821452b712000000000000000000000000e007a594267d5b9a4f5bf6fd054579eb82f5a057",
          "blockHash": "0xbcecd4bf0cfd63c07001e57755adaa4a63c1e0f3e4744b2fa6bd1fa6d8a42bec",
          "blockNumber": "0x1b",
          "blockTimestamp": "0x69665368",
          "transactionHash": "0x8772375a183db88e302698098239d0ae5926afd00e7098aaae49accb27c504c1",
          "transactionIndex": "0x0",
          "logIndex": "0x3",
          "removed": false
        },
        {
          "address": "0x8828fd7431d5bb1962d7e067c103b2324fa6bbec",
          "topics": [
            "0x2f4c76c8d18f45069b0941499205a7fceaaa3caf9e2e6328f6a544cd339120f3",
            "0x66a743ad1362b3ab2aed0333e4ee51b4f4b51421bd50d6413a524eb58b88b113",
            "0x0000000000000000000000004d4adec97e3e11693f65dedc2d1e6bec784eb2f1",
            "0x000000000000000000000000f86c23c1e883ee3b820fb9be75ff91c9a49eae75"
          ],
          "data": "0x00000000000000000000000000000000000000000000000000000000055d4a800000000000000000000000000000000000000000000000000000000005f5e100",
          "blockHash": "0xbcecd4bf0cfd63c07001e57755adaa4a63c1e0f3e4744b2fa6bd1fa6d8a42bec",
          "blockNumber": "0x1b",
          "blockTimestamp": "0x69665368",
          "transactionHash": "0x8772375a183db88e302698098239d0ae5926afd00e7098aaae49accb27c504c1",
          "transactionIndex": "0x0",
          "logIndex": "0x4",
          "removed": false
        },
        {
          "address": "0x8828fd7431d5bb1962d7e067c103b2324fa6bbec",
          "topics": [
            "0x78160f0b1b2b32b52a0076d8f0f70888687ba702a4d993d55ac8d9327d57a127",
            "0x000000000000000000000000000000000000000000000000000000000000000e",
            "0x8bdb43636c555a66fc58444ed8d2e50f36a0409eefee174ca3ffcde1711e2a06",
            "0x59cad6e77fce03489ce2d0b040b3356539d609699acc8c13747496bc26fb9da3"
          ],
          "data": "0x2f4c76c8d18f45069b0941499205a7fceaaa3caf9e2e6328f6a544cd339120f3000000000000000000000000000000000000000000000000000000000000004000000000000000000000000000000000000000000000000000000000000000a066a743ad1362b3ab2aed0333e4ee51b4f4b51421bd50d6413a524eb58b88b1130000000000000000000000004d4adec97e3e11693f65dedc2d1e6bec784eb2f1000000000000000000000000f86c23c1e883ee3b820fb9be75ff91c9a49eae7500000000000000000000000000000000000000000000000000000000055d4a800000000000000000000000000000000000000000000000000000000005f5e100",
          "blockHash": "0xbcecd4bf0cfd63c07001e57755adaa4a63c1e0f3e4744b2fa6bd1fa6d8a42bec",
          "blockNumber": "0x1b",
          "blockTimestamp": "0x69665368",
          "transactionHash": "0x8772375a183db88e302698098239d0ae5926afd00e7098aaae49accb27c504c1",
          "transactionIndex": "0x0",
          "logIndex": "0x5",
          "removed": false
        },
        {
          "address": "0x8828fd7431d5bb1962d7e067c103b2324fa6bbec",
          "topics": [
            "0x2e659081f44c4f56a18b00f3f9d136d7ee8396bc79163c4d61363ddcf4a4cb27",
            "0x66a743ad1362b3ab2aed0333e4ee51b4f4b51421bd50d6413a524eb58b88b113"
          ],
          "data": "0x00000000000000000000000000000000000000000000000000000000000000000000000000000000000000000000000000000000000000000000000005f5e10000000000000000000000000000000000000000000000000000000000055d4a8000000000000000000000000000000000000000000000000000000000009896800000000000000000000000000000000000000000000000000000000000000000000000000000000000000000000000000000000000000000000000000000000100000000000000000000000000000000000000000000000000000000000000000000000000000000000000000000000000000000000000000000000000000000c5d2460186f7233c927e7db2dcc703c0e500b653ca82273b7bfad8045d85a470",
          "blockHash": "0xbcecd4bf0cfd63c07001e57755adaa4a63c1e0f3e4744b2fa6bd1fa6d8a42bec",
          "blockNumber": "0x1b",
          "blockTimestamp": "0x69665368",
          "transactionHash": "0x8772375a183db88e302698098239d0ae5926afd00e7098aaae49accb27c504c1",
          "transactionIndex": "0x0",
          "logIndex": "0x6",
          "removed": false
        },
        {
          "address": "0x8828fd7431d5bb1962d7e067c103b2324fa6bbec",
          "topics": [
            "0x78160f0b1b2b32b52a0076d8f0f70888687ba702a4d993d55ac8d9327d57a127",
            "0x000000000000000000000000000000000000000000000000000000000000000f",
            "0x59cad6e77fce03489ce2d0b040b3356539d609699acc8c13747496bc26fb9da3",
            "0x810b747ac3f24845cdf00f02c882e44fa4360ae5b49c895854a17f3423da14d2"
          ],
          "data": "0x2e659081f44c4f56a18b00f3f9d136d7ee8396bc79163c4d61363ddcf4a4cb270000000000000000000000000000000000000000000000000000000000000040000000000000000000000000000000000000000000000000000000000000014066a743ad1362b3ab2aed0333e4ee51b4f4b51421bd50d6413a524eb58b88b11300000000000000000000000000000000000000000000000000000000000000000000000000000000000000000000000000000000000000000000000005f5e10000000000000000000000000000000000000000000000000000000000055d4a8000000000000000000000000000000000000000000000000000000000009896800000000000000000000000000000000000000000000000000000000000000000000000000000000000000000000000000000000000000000000000000000000100000000000000000000000000000000000000000000000000000000000000000000000000000000000000000000000000000000000000000000000000000000c5d2460186f7233c927e7db2dcc703c0e500b653ca82273b7bfad8045d85a470",
          "blockHash": "0xbcecd4bf0cfd63c07001e57755adaa4a63c1e0f3e4744b2fa6bd1fa6d8a42bec",
          "blockNumber": "0x1b",
          "blockTimestamp": "0x69665368",
          "transactionHash": "0x8772375a183db88e302698098239d0ae5926afd00e7098aaae49accb27c504c1",
          "transactionIndex": "0x0",
          "logIndex": "0x7",
          "removed": false
        }
      ],
      "logsBloom": "0x24000001008880010040000000000000000002000c00000000800000000000000400000000100200000000000000000000000000000000000000000000200200000000000200000800000000000002800202000004000000080000000002000000020020000800000000000400000008000000000000000080000000000000000000000000000880001040000000000008000000000000000000000000004000400000400000400000000100000000080000000010000820200100000000000000000000000008000100100000000000020200000000000400000000000000220000000200000108000000000000000100000000008002040000000000004000",
      "type": "0x0",
      "transactionHash": "0x8772375a183db88e302698098239d0ae5926afd00e7098aaae49accb27c504c1",
      "transactionIndex": "0x0",
      "blockHash": "0xbcecd4bf0cfd63c07001e57755adaa4a63c1e0f3e4744b2fa6bd1fa6d8a42bec",
      "blockNumber": "0x1b",
      "gasUsed": "0x3df0a",
      "effectiveGasPrice": "0x3b9aca00",
      "blobGasPrice": "0x1",
      "from": "0xd289d1387ae1033a703842d69501d5bec5a6f04e",
      "to": "0x8828fd7431d5bb1962d7e067c103b2324fa6bbec",
      "contractAddress": null
    },
    {
      "status": "0x1",
      "cumulativeGasUsed": "0x6994",
      "logs": [],
      "logsBloom": "0x00000000000000000000000000000000000000000000000000000000000000000000000000000000000000000000000000000000000000000000000000000000000000000000000000000000000000000000000000000000000000000000000000000000000000000000000000000000000000000000000000000000000000000000000000000000000000000000000000000000000000000000000000000000000000000000000000000000000000000000000000000000000000000000000000000000000000000000000000000000000000000000000000000000000000000000000000000000000000000000000000000000000000000000000000000000",
      "type": "0x0",
      "transactionHash": "0x99a490a0cb512bd8acbd9ba83cd74903b97f102a0980d9331b127e210092ea4a",
      "transactionIndex": "0x0",
      "blockHash": "0xece038ac2515a6d08efcb74be4d2b12709127026d4a6ec4021f15748b2cfc60e",
      "blockNumber": "0x1c",
      "gasUsed": "0x6994",
      "effectiveGasPrice": "0x3b9aca00",
      "blobGasPrice": "0x1",
      "from": "0xd289d1387ae1033a703842d69501d5bec5a6f04e",
      "to": "0xf86c23c1e883ee3b820fb9be75ff91c9a49eae75",
      "contractAddress": null
    },
    {
      "status": "0x1",
      "cumulativeGasUsed": "0xad94",
      "logs": [],
      "logsBloom": "0x00000000000000000000000000000000000000000000000000000000000000000000000000000000000000000000000000000000000000000000000000000000000000000000000000000000000000000000000000000000000000000000000000000000000000000000000000000000000000000000000000000000000000000000000000000000000000000000000000000000000000000000000000000000000000000000000000000000000000000000000000000000000000000000000000000000000000000000000000000000000000000000000000000000000000000000000000000000000000000000000000000000000000000000000000000000",
      "type": "0x0",
      "transactionHash": "0xbaf30e1ceee235b9e2226e7745bbc93540de9002bd5e91b4a5a94aabf575e933",
      "transactionIndex": "0x0",
      "blockHash": "0xd8d60289e096d1b92e15850d450d48fa68ab53c3d239ce085375a6caf852db7f",
      "blockNumber": "0x1d",
      "gasUsed": "0xad94",
      "effectiveGasPrice": "0x3b9aca00",
      "blobGasPrice": "0x1",
      "from": "0xd289d1387ae1033a703842d69501d5bec5a6f04e",
      "to": "0xf86c23c1e883ee3b820fb9be75ff91c9a49eae75",
      "contractAddress": null
    },
    {
      "status": "0x1",
      "cumulativeGasUsed": "0x52d69",
      "logs": [
        {
          "address": "0x048255dfef2ebfa7307058ae475a3e2f5ee0df46",
          "topics": [
            "0x6f81b8ad0780a0febc687a3a73b181433722b4be30f7f0a024169f5161267287",
            "0xc4dd899f8c5d9109bbf4b23b47b0442af8bd53714bc35752ac16331c3cc6d425",
            "0x000000000000000000000000d289d1387ae1033a703842d69501d5bec5a6f04e"
          ],
          "data": "0x0000000000000000000000000000000000000000000000000000000000000000000000000000000000000000f86c23c1e883ee3b820fb9be75ff91c9a49eae7500000000000000000000000000000000000000000000000000000000004c4b40000000000000000000000000d289d1387ae1033a703842d69501d5bec5a6f04e000000000000000000000000000000000000000000000000000000006966538a00000000000000000000000000000000000000000000000000000000000000c000000000000000000000000000000000000000000000000000000000000000a000000000000000000000000000000000000000000000000000000000000000200000000000000000000000002db97a32d5ce8d79f7b7fdc607584a7a35da5e0d00000000000000000000000000000000000000000000000000000000000000400000000000000000000000000000000000000000000000000000000000000002abcd000000000000000000000000000000000000000000000000000000000000",
          "blockHash": "0x6363de845584cb655e92641c60be696c681b4609c4e74bff62c80b3197901183",
          "blockNumber": "0x1e",
          "blockTimestamp": "0x69665368",
          "transactionHash": "0x6fd36c6271e9ec6cd5ed853ae06d42ecd671a07a27b33fa1cc0b0d90ca8541be",
          "transactionIndex": "0x0",
          "logIndex": "0x0",
          "removed": false
        },
        {
          "address": "0x048255dfef2ebfa7307058ae475a3e2f5ee0df46",
          "topics": [
            "0x78160f0b1b2b32b52a0076d8f0f70888687ba702a4d993d55ac8d9327d57a127",
            "0x0000000000000000000000000000000000000000000000000000000000000004",
            "0xb1803b7afb4117b26c10b82377b025e172ea8e3eadddcd749960203a93e8ecf2",
            "0x47b0b8424de020fd1e54a4f500fc6405fcfd481a6844365bfcef2a00d5b097bc"
          ],
          "data": "0x6f81b8ad0780a0febc687a3a73b181433722b4be30f7f0a024169f5161267287000000000000000000000000000000000000000000000000000000000000004000000000000000000000000000000000000000000000000000000000000001c0c4dd899f8c5d9109bbf4b23b47b0442af8bd53714bc35752ac16331c3cc6d425000000000000000000000000d289d1387ae1033a703842d69501d5bec5a6f04e0000000000000000000000000000000000000000000000000000000000000000000000000000000000000000f86c23c1e883ee3b820fb9be75ff91c9a49eae7500000000000000000000000000000000000000000000000000000000004c4b40000000000000000000000000d289d1387ae1033a703842d69501d5bec5a6f04e000000000000000000000000000000000000000000000000000000006966538a000000000000000000000000000000000000000000000000000000000000010000000000000000000000000000000000000000000000000000000000000000a000000000000000000000000000000000000000000000000000000000000000200000000000000000000000002db97a32d5ce8d79f7b7fdc607584a7a35da5e0d00000000000000000000000000000000000000000000000000000000000000400000000000000000000000000000000000000000000000000000000000000002abcd000000000000000000000000000000000000000000000000000000000000",
          "blockHash": "0x6363de845584cb655e92641c60be696c681b4609c4e74bff62c80b3197901183",
          "blockNumber": "0x1e",
          "blockTimestamp": "0x69665368",
          "transactionHash": "0x6fd36c6271e9ec6cd5ed853ae06d42ecd671a07a27b33fa1cc0b0d90ca8541be",
          "transactionIndex": "0x0",
          "logIndex": "0x1",
          "removed": false
        },
        {
          "address": "0x048255dfef2ebfa7307058ae475a3e2f5ee0df46",
          "topics": [
            "0x0544741ff6f2708047138c8f3a68abb994e628666dba785f685ff1035274f9fb",
            "0xc4dd899f8c5d9109bbf4b23b47b0442af8bd53714bc35752ac16331c3cc6d425",
            "0x000000000000000000000000d289d1387ae1033a703842d69501d5bec5a6f04e"
          ],
          "data": "0x000000000000000000000000f86c23c1e883ee3b820fb9be75ff91c9a49eae7500000000000000000000000000000000000000000000000000000000004c4b40",
          "blockHash": "0x6363de845584cb655e92641c60be696c681b4609c4e74bff62c80b3197901183",
          "blockNumber": "0x1e",
          "blockTimestamp": "0x69665368",
          "transactionHash": "0x6fd36c6271e9ec6cd5ed853ae06d42ecd671a07a27b33fa1cc0b0d90ca8541be",
          "transactionIndex": "0x0",
          "logIndex": "0x2",
          "removed": false
        },
        {
          "address": "0x048255dfef2ebfa7307058ae475a3e2f5ee0df46",
          "topics": [
            "0x78160f0b1b2b32b52a0076d8f0f70888687ba702a4d993d55ac8d9327d57a127",
            "0x0000000000000000000000000000000000000000000000000000000000000005",
            "0x47b0b8424de020fd1e54a4f500fc6405fcfd481a6844365bfcef2a00d5b097bc",
            "0x546d8fd4584145eebe649ce39c5ec62220efdc1211f7573c0e1a7122a1c615c0"
          ],
          "data": "0x0544741ff6f2708047138c8f3a68abb994e628666dba785f685ff1035274f9fb00000000000000000000000000000000000000000000000000000000000000400000000000000000000000000000000000000000000000000000000000000080c4dd899f8c5d9109bbf4b23b47b0442af8bd53714bc35752ac16331c3cc6d425000000000000000000000000d289d1387ae1033a703842d69501d5bec5a6f04e000000000000000000000000f86c23c1e883ee3b820fb9be75ff91c9a49eae7500000000000000000000000000000000000000000000000000000000004c4b40",
          "blockHash": "0x6363de845584cb655e92641c60be696c681b4609c4e74bff62c80b3197901183",
          "blockNumber": "0x1e",
          "blockTimestamp": "0x69665368",
          "transactionHash": "0x6fd36c6271e9ec6cd5ed853ae06d42ecd671a07a27b33fa1cc0b0d90ca8541be",
          "transactionIndex": "0x0",
          "logIndex": "0x3",
          "removed": false
        }
      ],
      "logsBloom": "0x00002000000000000000000000000000000000000000000000000000200000000000000000000000000000004000000000000080000000000000000000200000000010000000000004000000200000000004000100000000000000000000000008000000000800004004000000000000000000000000000000000000008000000000000000000000000000400000001000000800100000000000000000000000000000000000800000000000000000102000200200000000202000000000000000000000400000000000020000800000000000008200000000000000000000000000000000000000000000000000100000000000000000000000000000004000",
      "type": "0x0",
      "transactionHash": "0x6fd36c6271e9ec6cd5ed853ae06d42ecd671a07a27b33fa1cc0b0d90ca8541be",
      "transactionIndex": "0x0",
      "blockHash": "0x6363de845584cb655e92641c60be696c681b4609c4e74bff62c80b3197901183",
      "blockNumber": "0x1e",
      "gasUsed": "0x52d69",
      "effectiveGasPrice": "0x3b9aca00",
      "blobGasPrice": "0x1",
      "from": "0xd289d1387ae1033a703842d69501d5bec5a6f04e",
      "to": "0x048255dfef2ebfa7307058ae475a3e2f5ee0df46",
      "contractAddress": null
    },
    {
      "status": "0x1",
      "cumulativeGasUsed": "0xac60",
      "logs": [],
      "logsBloom": "0x00000000000000000000000000000000000000000000000000000000000000000000000000000000000000000000000000000000000000000000000000000000000000000000000000000000000000000000000000000000000000000000000000000000000000000000000000000000000000000000000000000000000000000000000000000000000000000000000000000000000000000000000000000000000000000000000000000000000000000000000000000000000000000000000000000000000000000000000000000000000000000000000000000000000000000000000000000000000000000000000000000000000000000000000000000000",
      "type": "0x0",
      "transactionHash": "0x2f56d4330b5b3ad7b5028d1250bc95815cd0739f9567a863280626fe3d8c0997",
      "transactionIndex": "0x0",
      "blockHash": "0x139af58e89d985ef17fc127f3c6298bbcccc3b84c22690fe5d9081301d4ac94d",
      "blockNumber": "0x1f",
      "gasUsed": "0xac60",
      "effectiveGasPrice": "0x3b9aca00",
      "blobGasPrice": "0x1",
      "from": "0xd289d1387ae1033a703842d69501d5bec5a6f04e",
      "to": "0x4d4adec97e3e11693f65dedc2d1e6bec784eb2f1",
      "contractAddress": null
    },
    {
      "status": "0x1",
      "cumulativeGasUsed": "0xad94",
      "logs": [],
      "logsBloom": "0x00000000000000000000000000000000000000000000000000000000000000000000000000000000000000000000000000000000000000000000000000000000000000000000000000000000000000000000000000000000000000000000000000000000000000000000000000000000000000000000000000000000000000000000000000000000000000000000000000000000000000000000000000000000000000000000000000000000000000000000000000000000000000000000000000000000000000000000000000000000000000000000000000000000000000000000000000000000000000000000000000000000000000000000000000000000",
      "type": "0x0",
      "transactionHash": "0x4eb45a21ced9b9898440a556d8dd5fd801e3a9bfea125b9cbde5947b9f9cb711",
      "transactionIndex": "0x0",
      "blockHash": "0xa0f336c78f97592d1fc95a1ea79d93a30576b02318d43e56cd412ef7b864eb4e",
      "blockNumber": "0x20",
      "gasUsed": "0xad94",
      "effectiveGasPrice": "0x3b9aca00",
      "blobGasPrice": "0x1",
      "from": "0xd289d1387ae1033a703842d69501d5bec5a6f04e",
      "to": "0x4d4adec97e3e11693f65dedc2d1e6bec784eb2f1",
      "contractAddress": null
    },
    {
      "status": "0x1",
      "cumulativeGasUsed": "0x17623",
      "logs": [
        {
          "address": "0x048255dfef2ebfa7307058ae475a3e2f5ee0df46",
          "topics": [
            "0xbc3f7b7e77a395c156c24db8a8a7850209b2df71a2561292eea221e32bf5d467",
            "0xc4dd899f8c5d9109bbf4b23b47b0442af8bd53714bc35752ac16331c3cc6d425",
            "0x000000000000000000000000d289d1387ae1033a703842d69501d5bec5a6f04e"
          ],
          "data": "0x00000000000000000000000000000000000000000000000000000000000f4240",
          "blockHash": "0xdd750285eaa35bfb4b49f9dc04e0b0f79c88be6edce95a4075eef772740a7eeb",
          "blockNumber": "0x21",
          "blockTimestamp": "0x69665368",
          "transactionHash": "0x96167404bd654cf97c92b0e9eee4dfe0714c5602022e23bd022052a9e4ccb7d8",
          "transactionIndex": "0x0",
          "logIndex": "0x0",
          "removed": false
        },
        {
          "address": "0x048255dfef2ebfa7307058ae475a3e2f5ee0df46",
          "topics": [
            "0x78160f0b1b2b32b52a0076d8f0f70888687ba702a4d993d55ac8d9327d57a127",
            "0x0000000000000000000000000000000000000000000000000000000000000006",
            "0x546d8fd4584145eebe649ce39c5ec62220efdc1211f7573c0e1a7122a1c615c0",
            "0x9052901c053044cd2d37ca75cc50209450b9e1722997c7c5dc09871696454bc1"
          ],
          "data": "0xbc3f7b7e77a395c156c24db8a8a7850209b2df71a2561292eea221e32bf5d46700000000000000000000000000000000000000000000000000000000000000400000000000000000000000000000000000000000000000000000000000000060c4dd899f8c5d9109bbf4b23b47b0442af8bd53714bc35752ac16331c3cc6d425000000000000000000000000d289d1387ae1033a703842d69501d5bec5a6f04e00000000000000000000000000000000000000000000000000000000000f4240",
          "blockHash": "0xdd750285eaa35bfb4b49f9dc04e0b0f79c88be6edce95a4075eef772740a7eeb",
          "blockNumber": "0x21",
          "blockTimestamp": "0x69665368",
          "transactionHash": "0x96167404bd654cf97c92b0e9eee4dfe0714c5602022e23bd022052a9e4ccb7d8",
          "transactionIndex": "0x0",
          "logIndex": "0x1",
          "removed": false
        }
      ],
      "logsBloom": "0x00002000000000002000000000000000000000000000000000000000000000000000000000000000000000000000000000000000000400000000000000200000000000000000000004000000200000000000000000000004000000000000000000000000000800004004000000000000000000000000000000000000000000000008000420000000000000400000000000000000000000000000000000000000000000000000800000000000000000000000000200000000000000080000000000000000400000000000000000800008000000000200000000000000000000000000000000000000000000000000100000000000000000000000000000004002",
      "type": "0x0",
      "transactionHash": "0x96167404bd654cf97c92b0e9eee4dfe0714c5602022e23bd022052a9e4ccb7d8",
      "transactionIndex": "0x0",
      "blockHash": "0xdd750285eaa35bfb4b49f9dc04e0b0f79c88be6edce95a4075eef772740a7eeb",
      "blockNumber": "0x21",
      "gasUsed": "0x17623",
      "effectiveGasPrice": "0x3b9aca00",
      "blobGasPrice": "0x1",
      "from": "0xd289d1387ae1033a703842d69501d5bec5a6f04e",
      "to": "0x048255dfef2ebfa7307058ae475a3e2f5ee0df46",
      "contractAddress": null
    },
    {
      "status": "0x1",
      "cumulativeGasUsed": "0x121f6",
      "logs": [],
      "logsBloom": "0x00000000000000000000000000000000000000000000000000000000000000000000000000000000000000000000000000000000000000000000000000000000000000000000000000000000000000000000000000000000000000000000000000000000000000000000000000000000000000000000000000000000000000000000000000000000000000000000000000000000000000000000000000000000000000000000000000000000000000000000000000000000000000000000000000000000000000000000000000000000000000000000000000000000000000000000000000000000000000000000000000000000000000000000000000000000",
      "type": "0x0",
      "transactionHash": "0x8619ab75d24cac45344936d5f3e256abbf174855bdc202424887b8c6b6a4ea45",
      "transactionIndex": "0x0",
      "blockHash": "0xd72f7df1c8a10133c5d536af3dd3fb05df649ebc6af5fa371b9757557f399e96",
      "blockNumber": "0x22",
      "gasUsed": "0x121f6",
      "effectiveGasPrice": "0x3b9aca00",
      "blobGasPrice": "0x1",
      "from": "0xd289d1387ae1033a703842d69501d5bec5a6f04e",
      "to": "0x8c16d2f19a034b7281254f5656c2d1461c6ceb9a",
      "contractAddress": null
    },
    {
      "status": "0x1",
      "cumulativeGasUsed": "0x29e6a",
      "logs": [
        {
          "address": "0x048255dfef2ebfa7307058ae475a3e2f5ee0df46",
          "topics": [
            "0xfa797585c9827d59a7694ef382241f1a03ced6a1a2b4353b35939abc4d04b286",
            "0xc4dd899f8c5d9109bbf4b23b47b0442af8bd53714bc35752ac16331c3cc6d425",
            "0x000000000000000000000000d289d1387ae1033a703842d69501d5bec5a6f04e"
          ],
          "data": "0x00000000000000000000000000000000000000000000000000000000000000000000000000000000000000000000000000000000000000000000000000000000",
          "blockHash": "0xb0173b0d149601d692720bd18479d7a43e757027117c969aa891d1b6a91f7683",
          "blockNumber": "0x23",
          "blockTimestamp": "0x69665368",
          "transactionHash": "0x9d5a80c7eeccc71a7239ab31e5b619368d9fad334aa8444c57507b81030f32d6",
          "transactionIndex": "0x0",
          "logIndex": "0x0",
          "removed": false
        },
        {
          "address": "0x048255dfef2ebfa7307058ae475a3e2f5ee0df46",
          "topics": [
            "0x78160f0b1b2b32b52a0076d8f0f70888687ba702a4d993d55ac8d9327d57a127",
            "0x0000000000000000000000000000000000000000000000000000000000000007",
            "0x9052901c053044cd2d37ca75cc50209450b9e1722997c7c5dc09871696454bc1",
            "0xd04ae6e9a9d7ee5271081d6f72e2ec02de9b2b28de2e803fa2b75ab386db516b"
          ],
          "data": "0xfa797585c9827d59a7694ef382241f1a03ced6a1a2b4353b35939abc4d04b28600000000000000000000000000000000000000000000000000000000000000400000000000000000000000000000000000000000000000000000000000000080c4dd899f8c5d9109bbf4b23b47b0442af8bd53714bc35752ac16331c3cc6d425000000000000000000000000d289d1387ae1033a703842d69501d5bec5a6f04e00000000000000000000000000000000000000000000000000000000000000000000000000000000000000000000000000000000000000000000000000000000",
          "blockHash": "0xb0173b0d149601d692720bd18479d7a43e757027117c969aa891d1b6a91f7683",
          "blockNumber": "0x23",
          "blockTimestamp": "0x69665368",
          "transactionHash": "0x9d5a80c7eeccc71a7239ab31e5b619368d9fad334aa8444c57507b81030f32d6",
          "transactionIndex": "0x0",
          "logIndex": "0x1",
          "removed": false
        },
        {
          "address": "0x048255dfef2ebfa7307058ae475a3e2f5ee0df46",
          "topics": [
            "0x16bfb64ae70b8a9bbda28deb27a1cbc5ec3e6497481714344c221b46c0777f35",
            "0xc4dd899f8c5d9109bbf4b23b47b0442af8bd53714bc35752ac16331c3cc6d425",
            "0x000000000000000000000000d289d1387ae1033a703842d69501d5bec5a6f04e"
          ],
          "data": "0x000000000000000000000000f86c23c1e883ee3b820fb9be75ff91c9a49eae7500000000000000000000000000000000000000000000000000000000004c4b400000000000000000000000004d4adec97e3e11693f65dedc2d1e6bec784eb2f100000000000000000000000000000000000000000000000000000000000f4240",
          "blockHash": "0xb0173b0d149601d692720bd18479d7a43e757027117c969aa891d1b6a91f7683",
          "blockNumber": "0x23",
          "blockTimestamp": "0x69665368",
          "transactionHash": "0x9d5a80c7eeccc71a7239ab31e5b619368d9fad334aa8444c57507b81030f32d6",
          "transactionIndex": "0x0",
          "logIndex": "0x2",
          "removed": false
        },
        {
          "address": "0x048255dfef2ebfa7307058ae475a3e2f5ee0df46",
          "topics": [
            "0x78160f0b1b2b32b52a0076d8f0f70888687ba702a4d993d55ac8d9327d57a127",
            "0x0000000000000000000000000000000000000000000000000000000000000008",
            "0xd04ae6e9a9d7ee5271081d6f72e2ec02de9b2b28de2e803fa2b75ab386db516b",
            "0xc8f65295cd1b3002f3794be058b405763acbaef83784d77f5b11be732bf2375e"
          ],
          "data": "0x16bfb64ae70b8a9bbda28deb27a1cbc5ec3e6497481714344c221b46c0777f35000000000000000000000000000000000000000000000000000000000000004000000000000000000000000000000000000000000000000000000000000000c0c4dd899f8c5d9109bbf4b23b47b0442af8bd53714bc35752ac16331c3cc6d425000000000000000000000000d289d1387ae1033a703842d69501d5bec5a6f04e000000000000000000000000f86c23c1e883ee3b820fb9be75ff91c9a49eae7500000000000000000000000000000000000000000000000000000000004c4b400000000000000000000000004d4adec97e3e11693f65dedc2d1e6bec784eb2f100000000000000000000000000000000000000000000000000000000000f4240",
          "blockHash": "0xb0173b0d149601d692720bd18479d7a43e757027117c969aa891d1b6a91f7683",
          "blockNumber": "0x23",
          "blockTimestamp": "0x69665368",
          "transactionHash": "0x9d5a80c7eeccc71a7239ab31e5b619368d9fad334aa8444c57507b81030f32d6",
          "transactionIndex": "0x0",
          "logIndex": "0x3",
          "removed": false
        }
      ],
      "logsBloom": "0x00000000000000000000000000000000000000000000000000000000000080000000000000000000000000000000000200001000000080000083000000200000000820000000000014000000200000000000000000000000000000000000000000000000000800004000000000000000000000000000000000000000000000000088000020000000000000400000000000000000000000000000000000000000000000000000000000000402000000000000000200000000000000000000000050000000400000000000000000800008000000000200000000000100000000000000000000000000000000000000100000000000000000020000000002004000",
      "type": "0x0",
      "transactionHash": "0x9d5a80c7eeccc71a7239ab31e5b619368d9fad334aa8444c57507b81030f32d6",
      "transactionIndex": "0x0",
      "blockHash": "0xb0173b0d149601d692720bd18479d7a43e757027117c969aa891d1b6a91f7683",
      "blockNumber": "0x23",
      "gasUsed": "0x29e6a",
      "effectiveGasPrice": "0x3b9aca00",
      "blobGasPrice": "0x1",
      "from": "0xd289d1387ae1033a703842d69501d5bec5a6f04e",
      "to": "0x048255dfef2ebfa7307058ae475a3e2f5ee0df46",
      "contractAddress": null
    },
    {
      "status": "0x1",
      "cumulativeGasUsed": "0x6994",
      "logs": [],
      "logsBloom": "0x00000000000000000000000000000000000000000000000000000000000000000000000000000000000000000000000000000000000000000000000000000000000000000000000000000000000000000000000000000000000000000000000000000000000000000000000000000000000000000000000000000000000000000000000000000000000000000000000000000000000000000000000000000000000000000000000000000000000000000000000000000000000000000000000000000000000000000000000000000000000000000000000000000000000000000000000000000000000000000000000000000000000000000000000000000000",
      "type": "0x0",
      "transactionHash": "0x2251ad25c50f35a00c86806b0e949118cf365a5a0571f8a114c0e850a766963e",
      "transactionIndex": "0x0",
      "blockHash": "0xaed14ddcbef33c3ae9af375ab38e0eaab717946b82bb3072fd6bd8c00319d62d",
      "blockNumber": "0x24",
      "gasUsed": "0x6994",
      "effectiveGasPrice": "0x3b9aca00",
      "blobGasPrice": "0x1",
      "from": "0xd289d1387ae1033a703842d69501d5bec5a6f04e",
      "to": "0x4d4adec97e3e11693f65dedc2d1e6bec784eb2f1",
      "contractAddress": null
    },
    {
      "status": "0x1",
      "cumulativeGasUsed": "0x5fd8",
      "logs": [],
      "logsBloom": "0x00000000000000000000000000000000000000000000000000000000000000000000000000000000000000000000000000000000000000000000000000000000000000000000000000000000000000000000000000000000000000000000000000000000000000000000000000000000000000000000000000000000000000000000000000000000000000000000000000000000000000000000000000000000000000000000000000000000000000000000000000000000000000000000000000000000000000000000000000000000000000000000000000000000000000000000000000000000000000000000000000000000000000000000000000000000",
      "type": "0x0",
      "transactionHash": "0xf9efb66edb2a556a0fdffc4bbf2b33fa01f6db51c69048612237363ee78c386f",
      "transactionIndex": "0x0",
      "blockHash": "0x9e21e9f10b92f96182e9c72d9fd1e06e65e7aef4d03eaf6f5bbd9a8342ea5050",
      "blockNumber": "0x25",
      "gasUsed": "0x5fd8",
      "effectiveGasPrice": "0x3b9aca00",
      "blobGasPrice": "0x1",
      "from": "0xd289d1387ae1033a703842d69501d5bec5a6f04e",
      "to": "0x4d4adec97e3e11693f65dedc2d1e6bec784eb2f1",
      "contractAddress": null
    },
    {
      "status": "0x1",
      "cumulativeGasUsed": "0x46ef3",
      "logs": [
        {
          "address": "0x048255dfef2ebfa7307058ae475a3e2f5ee0df46",
          "topics": [
            "0x6f81b8ad0780a0febc687a3a73b181433722b4be30f7f0a024169f5161267287",
            "0xfdb98344b9cb55b99a21cdb84d4a3eed3e28eab75edb73a3c5a1306e592639dc",
            "0x000000000000000000000000d289d1387ae1033a703842d69501d5bec5a6f04e"
          ],
          "data": "0x00000000000000000000000000000000000000000000000000000000000000010000000000000000000000004d4adec97e3e11693f65dedc2d1e6bec784eb2f100000000000000000000000000000000000000000000000000000000001e8480000000000000000000000000d289d1387ae1033a703842d69501d5bec5a6f04e000000000000000000000000000000000000000000000000000000006966538a00000000000000000000000000000000000000000000000000000000000000c00000000000000000000000000000000000000000000000000000000000000040000000000000000000000000558b8fe3b86724d9d9433bf8ec2b1a1b223f9d25000000000000000000000000000000000000000000000000000000000012d687",
          "blockHash": "0xd6f72a7f481efb4805050c33c2a779fb8d1c4087e17a78349191cd369205264b",
          "blockNumber": "0x26",
          "blockTimestamp": "0x69665368",
          "transactionHash": "0xf35e4bd0694ee92a0363faf0d606956d1b0c9c8a468b2f48bfaef713104535c5",
          "transactionIndex": "0x0",
          "logIndex": "0x0",
          "removed": false
        },
        {
          "address": "0x048255dfef2ebfa7307058ae475a3e2f5ee0df46",
          "topics": [
            "0x78160f0b1b2b32b52a0076d8f0f70888687ba702a4d993d55ac8d9327d57a127",
            "0x0000000000000000000000000000000000000000000000000000000000000009",
            "0xc8f65295cd1b3002f3794be058b405763acbaef83784d77f5b11be732bf2375e",
            "0x38e28e2f7201cddcc7ef4e94668971ef50858107cb0dd0fc4a766db3401b13f6"
          ],
          "data": "0x6f81b8ad0780a0febc687a3a73b181433722b4be30f7f0a024169f516126728700000000000000000000000000000000000000000000000000000000000000400000000000000000000000000000000000000000000000000000000000000160fdb98344b9cb55b99a21cdb84d4a3eed3e28eab75edb73a3c5a1306e592639dc000000000000000000000000d289d1387ae1033a703842d69501d5bec5a6f04e00000000000000000000000000000000000000000000000000000000000000010000000000000000000000004d4adec97e3e11693f65dedc2d1e6bec784eb2f100000000000000000000000000000000000000000000000000000000001e8480000000000000000000000000d289d1387ae1033a703842d69501d5bec5a6f04e000000000000000000000000000000000000000000000000000000006966538a00000000000000000000000000000000000000000000000000000000000001000000000000000000000000000000000000000000000000000000000000000040000000000000000000000000558b8fe3b86724d9d9433bf8ec2b1a1b223f9d25000000000000000000000000000000000000000000000000000000000012d687",
          "blockHash": "0xd6f72a7f481efb4805050c33c2a779fb8d1c4087e17a78349191cd369205264b",
          "blockNumber": "0x26",
          "blockTimestamp": "0x69665368",
          "transactionHash": "0xf35e4bd0694ee92a0363faf0d606956d1b0c9c8a468b2f48bfaef713104535c5",
          "transactionIndex": "0x0",
          "logIndex": "0x1",
          "removed": false
        },
        {
          "address": "0x048255dfef2ebfa7307058ae475a3e2f5ee0df46",
          "topics": [
            "0x0544741ff6f2708047138c8f3a68abb994e628666dba785f685ff1035274f9fb",
            "0xfdb98344b9cb55b99a21cdb84d4a3eed3e28eab75edb73a3c5a1306e592639dc",
            "0x000000000000000000000000d289d1387ae1033a703842d69501d5bec5a6f04e"
          ],
          "data": "0x0000000000000000000000004d4adec97e3e11693f65dedc2d1e6bec784eb2f100000000000000000000000000000000000000000000000000000000001e8480",
          "blockHash": "0xd6f72a7f481efb4805050c33c2a779fb8d1c4087e17a78349191cd369205264b",
          "blockNumber": "0x26",
          "blockTimestamp": "0x69665368",
          "transactionHash": "0xf35e4bd0694ee92a0363faf0d606956d1b0c9c8a468b2f48bfaef713104535c5",
          "transactionIndex": "0x0",
          "logIndex": "0x2",
          "removed": false
        },
        {
          "address": "0x048255dfef2ebfa7307058ae475a3e2f5ee0df46",
          "topics": [
            "0x78160f0b1b2b32b52a0076d8f0f70888687ba702a4d993d55ac8d9327d57a127",
            "0x000000000000000000000000000000000000000000000000000000000000000a",
            "0x38e28e2f7201cddcc7ef4e94668971ef50858107cb0dd0fc4a766db3401b13f6",
            "0x310f204509faa104153a2968a862bb7260eddb7acd6ac7b2a5057953410ab5d3"
          ],
          "data": "0x0544741ff6f2708047138c8f3a68abb994e628666dba785f685ff1035274f9fb00000000000000000000000000000000000000000000000000000000000000400000000000000000000000000000000000000000000000000000000000000080fdb98344b9cb55b99a21cdb84d4a3eed3e28eab75edb73a3c5a1306e592639dc000000000000000000000000d289d1387ae1033a703842d69501d5bec5a6f04e0000000000000000000000004d4adec97e3e11693f65dedc2d1e6bec784eb2f100000000000000000000000000000000000000000000000000000000001e8480",
          "blockHash": "0xd6f72a7f481efb4805050c33c2a779fb8d1c4087e17a78349191cd369205264b",
          "blockNumber": "0x26",
          "blockTimestamp": "0x69665368",
          "transactionHash": "0xf35e4bd0694ee92a0363faf0d606956d1b0c9c8a468b2f48bfaef713104535c5",
          "transactionIndex": "0x0",
          "logIndex": "0x3",
          "removed": false
        }
      ],
      "logsBloom": "0x00000000000000000000000000000000000000000000000000000000000000000000000000000800000000008000000000000000040004020021000000200000000000000000000004000000000000000004000100000000000000000000000000000000000a00004000000000000100000000000000000000000000008000000000000000000000010000000000000000001000000000000000000000000000000002000000000000000400000000000000200200000000200000000000000000000000400000000000020000000000000000000200000000000000000000000000000008000000000000000000100000000000000000020000001000804000",
      "type": "0x0",
      "transactionHash": "0xf35e4bd0694ee92a0363faf0d606956d1b0c9c8a468b2f48bfaef713104535c5",
      "transactionIndex": "0x0",
      "blockHash": "0xd6f72a7f481efb4805050c33c2a779fb8d1c4087e17a78349191cd369205264b",
      "blockNumber": "0x26",
      "gasUsed": "0x46ef3",
      "effectiveGasPrice": "0x3b9aca00",
      "blobGasPrice": "0x1",
      "from": "0xd289d1387ae1033a703842d69501d5bec5a6f04e",
      "to": "0x048255dfef2ebfa7307058ae475a3e2f5ee0df46",
      "contractAddress": null
    },
    {
      "status": "0x1",
      "cumulativeGasUsed": "0x6994",
      "logs": [],
      "logsBloom": "0x00000000000000000000000000000000000000000000000000000000000000000000000000000000000000000000000000000000000000000000000000000000000000000000000000000000000000000000000000000000000000000000000000000000000000000000000000000000000000000000000000000000000000000000000000000000000000000000000000000000000000000000000000000000000000000000000000000000000000000000000000000000000000000000000000000000000000000000000000000000000000000000000000000000000000000000000000000000000000000000000000000000000000000000000000000000",
      "type": "0x0",
      "transactionHash": "0xfed417558ae0dfc9fa69f6b3e26a183ad2c0e6e3f749d50b0f79d57610d88a9f",
      "transactionIndex": "0x0",
      "blockHash": "0x6e503212fd3db35f0cf07c3bf50198ddf4b84c94a4c45a9bc521bb8ca576b816",
      "blockNumber": "0x27",
      "gasUsed": "0x6994",
      "effectiveGasPrice": "0x3b9aca00",
      "blobGasPrice": "0x1",
      "from": "0xd289d1387ae1033a703842d69501d5bec5a6f04e",
      "to": "0x4d4adec97e3e11693f65dedc2d1e6bec784eb2f1",
      "contractAddress": null
    },
    {
      "status": "0x1",
      "cumulativeGasUsed": "0x5fd8",
      "logs": [],
      "logsBloom": "0x00000000000000000000000000000000000000000000000000000000000000000000000000000000000000000000000000000000000000000000000000000000000000000000000000000000000000000000000000000000000000000000000000000000000000000000000000000000000000000000000000000000000000000000000000000000000000000000000000000000000000000000000000000000000000000000000000000000000000000000000000000000000000000000000000000000000000000000000000000000000000000000000000000000000000000000000000000000000000000000000000000000000000000000000000000000",
      "type": "0x0",
      "transactionHash": "0x5dad83edb1c33f042f8ec27cad814b69c77182c0206e0574b45277e9c76f8b1b",
      "transactionIndex": "0x0",
      "blockHash": "0xc80a64aaeac44cfafda78350cc1bcb4f701af5b94c26f121f95619d283d432ac",
      "blockNumber": "0x28",
      "gasUsed": "0x5fd8",
      "effectiveGasPrice": "0x3b9aca00",
      "blobGasPrice": "0x1",
      "from": "0xd289d1387ae1033a703842d69501d5bec5a6f04e",
      "to": "0x4d4adec97e3e11693f65dedc2d1e6bec784eb2f1",
      "contractAddress": null
    },
    {
      "status": "0x1",
      "cumulativeGasUsed": "0x14617",
      "logs": [
        {
          "address": "0x048255dfef2ebfa7307058ae475a3e2f5ee0df46",
          "topics": [
            "0xbc3f7b7e77a395c156c24db8a8a7850209b2df71a2561292eea221e32bf5d467",
            "0xfdb98344b9cb55b99a21cdb84d4a3eed3e28eab75edb73a3c5a1306e592639dc",
            "0x000000000000000000000000d289d1387ae1033a703842d69501d5bec5a6f04e"
          ],
          "data": "0x00000000000000000000000000000000000000000000000000000000000f4240",
          "blockHash": "0x3155b210680bf6451d397cb0e91a4a000ffcaa676212e70ae9d23659cb6349f6",
          "blockNumber": "0x29",
          "blockTimestamp": "0x69665368",
          "transactionHash": "0xe9d4a13b6e72d7b113c58c4e76690c7d65d73b032e3cb5f0a733d5596b456dfd",
          "transactionIndex": "0x0",
          "logIndex": "0x0",
          "removed": false
        },
        {
          "address": "0x048255dfef2ebfa7307058ae475a3e2f5ee0df46",
          "topics": [
            "0x78160f0b1b2b32b52a0076d8f0f70888687ba702a4d993d55ac8d9327d57a127",
            "0x000000000000000000000000000000000000000000000000000000000000000b",
            "0x310f204509faa104153a2968a862bb7260eddb7acd6ac7b2a5057953410ab5d3",
            "0x6dd11345c6558550b93d54a4ce9b1f51805c57a19edcc30fd606ac138bc369b9"
          ],
          "data": "0xbc3f7b7e77a395c156c24db8a8a7850209b2df71a2561292eea221e32bf5d46700000000000000000000000000000000000000000000000000000000000000400000000000000000000000000000000000000000000000000000000000000060fdb98344b9cb55b99a21cdb84d4a3eed3e28eab75edb73a3c5a1306e592639dc000000000000000000000000d289d1387ae1033a703842d69501d5bec5a6f04e00000000000000000000000000000000000000000000000000000000000f4240",
          "blockHash": "0x3155b210680bf6451d397cb0e91a4a000ffcaa676212e70ae9d23659cb6349f6",
          "blockNumber": "0x29",
          "blockTimestamp": "0x69665368",
          "transactionHash": "0xe9d4a13b6e72d7b113c58c4e76690c7d65d73b032e3cb5f0a733d5596b456dfd",
          "transactionIndex": "0x0",
          "logIndex": "0x1",
          "removed": false
        }
      ],
      "logsBloom": "0x00000000000000002000004000000002000000000000000400000000000000000000000000000000000000000000000000000000000004020000000000200000000000000000000004000000000000000000000000000004000000000000000000000000000a00004000000000000100000000000000000000000000000000000000000000000000000000000010000000000000000000000000000000000000000000000000000000000000000000000000000200000000000000000000000000000000400000000000000000000000002000000200000000000000000000000000000008000000000000000000100000000000000000040000001000004002",
      "type": "0x0",
      "transactionHash": "0xe9d4a13b6e72d7b113c58c4e76690c7d65d73b032e3cb5f0a733d5596b456dfd",
      "transactionIndex": "0x0",
      "blockHash": "0x3155b210680bf6451d397cb0e91a4a000ffcaa676212e70ae9d23659cb6349f6",
      "blockNumber": "0x29",
      "gasUsed": "0x14617",
      "effectiveGasPrice": "0x3b9aca00",
      "blobGasPrice": "0x1",
      "from": "0xd289d1387ae1033a703842d69501d5bec5a6f04e",
      "to": "0x048255dfef2ebfa7307058ae475a3e2f5ee0df46",
      "contractAddress": null
    },
    {
      "status": "0x1",
      "cumulativeGasUsed": "0x1a29b",
      "logs": [],
      "logsBloom": "0x00000000000000000000000000000000000000000000000000000000000000000000000000000000000000000000000000000000000000000000000000000000000000000000000000000000000000000000000000000000000000000000000000000000000000000000000000000000000000000000000000000000000000000000000000000000000000000000000000000000000000000000000000000000000000000000000000000000000000000000000000000000000000000000000000000000000000000000000000000000000000000000000000000000000000000000000000000000000000000000000000000000000000000000000000000000",
      "type": "0x0",
      "transactionHash": "0xa3d26f21215aa99883ccaaabb519c76754ecac5db3eeb1cb2951af78b1885e87",
      "transactionIndex": "0x0",
      "blockHash": "0x4442db040780f44bb41f38046d0f467a07200f9d8ee41f0bcd38bcd32708257d",
      "blockNumber": "0x2a",
      "gasUsed": "0x1a29b",
      "effectiveGasPrice": "0x3b9aca00",
      "blobGasPrice": "0x1",
      "from": "0xd289d1387ae1033a703842d69501d5bec5a6f04e",
      "to": "0x8c16d2f19a034b7281254f5656c2d1461c6ceb9a",
      "contractAddress": null
    },
    {
      "status": "0x1",
      "cumulativeGasUsed": "0x207ba",
      "logs": [
        {
          "address": "0x048255dfef2ebfa7307058ae475a3e2f5ee0df46",
          "topics": [
            "0xfa797585c9827d59a7694ef382241f1a03ced6a1a2b4353b35939abc4d04b286",
            "0xfdb98344b9cb55b99a21cdb84d4a3eed3e28eab75edb73a3c5a1306e592639dc",
            "0x000000000000000000000000d289d1387ae1033a703842d69501d5bec5a6f04e"
          ],
          "data": "0x00000000000000000000000000000000000000000000000000000000000000000000000000000000000000000000000000000000000000000000000000000000",
          "blockHash": "0xbf36be0820aa92db7a58afe1f7903bf0c38849fe724a8cb17346f45f73ea8e93",
          "blockNumber": "0x2b",
          "blockTimestamp": "0x69665368",
          "transactionHash": "0x186b922a067d7a4293ef217f1be0b239ab2515ebfd0b5970cac025b8a27dd120",
          "transactionIndex": "0x0",
          "logIndex": "0x0",
          "removed": false
        },
        {
          "address": "0x048255dfef2ebfa7307058ae475a3e2f5ee0df46",
          "topics": [
            "0x78160f0b1b2b32b52a0076d8f0f70888687ba702a4d993d55ac8d9327d57a127",
            "0x000000000000000000000000000000000000000000000000000000000000000c",
            "0x6dd11345c6558550b93d54a4ce9b1f51805c57a19edcc30fd606ac138bc369b9",
            "0xc9e711283b9c7c02030c5621cc188b1ada7390e65fcc7df7dd96e6514cdbf91d"
          ],
          "data": "0xfa797585c9827d59a7694ef382241f1a03ced6a1a2b4353b35939abc4d04b28600000000000000000000000000000000000000000000000000000000000000400000000000000000000000000000000000000000000000000000000000000080fdb98344b9cb55b99a21cdb84d4a3eed3e28eab75edb73a3c5a1306e592639dc000000000000000000000000d289d1387ae1033a703842d69501d5bec5a6f04e00000000000000000000000000000000000000000000000000000000000000000000000000000000000000000000000000000000000000000000000000000000",
          "blockHash": "0xbf36be0820aa92db7a58afe1f7903bf0c38849fe724a8cb17346f45f73ea8e93",
          "blockNumber": "0x2b",
          "blockTimestamp": "0x69665368",
          "transactionHash": "0x186b922a067d7a4293ef217f1be0b239ab2515ebfd0b5970cac025b8a27dd120",
          "transactionIndex": "0x0",
          "logIndex": "0x1",
          "removed": false
        },
        {
          "address": "0x048255dfef2ebfa7307058ae475a3e2f5ee0df46",
          "topics": [
            "0x16bfb64ae70b8a9bbda28deb27a1cbc5ec3e6497481714344c221b46c0777f35",
            "0xfdb98344b9cb55b99a21cdb84d4a3eed3e28eab75edb73a3c5a1306e592639dc",
            "0x000000000000000000000000d289d1387ae1033a703842d69501d5bec5a6f04e"
          ],
          "data": "0x0000000000000000000000004d4adec97e3e11693f65dedc2d1e6bec784eb2f100000000000000000000000000000000000000000000000000000000001e84800000000000000000000000004d4adec97e3e11693f65dedc2d1e6bec784eb2f100000000000000000000000000000000000000000000000000000000000f4240",
          "blockHash": "0xbf36be0820aa92db7a58afe1f7903bf0c38849fe724a8cb17346f45f73ea8e93",
          "blockNumber": "0x2b",
          "blockTimestamp": "0x69665368",
          "transactionHash": "0x186b922a067d7a4293ef217f1be0b239ab2515ebfd0b5970cac025b8a27dd120",
          "transactionIndex": "0x0",
          "logIndex": "0x2",
          "removed": false
        },
        {
          "address": "0x048255dfef2ebfa7307058ae475a3e2f5ee0df46",
          "topics": [
            "0x78160f0b1b2b32b52a0076d8f0f70888687ba702a4d993d55ac8d9327d57a127",
            "0x000000000000000000000000000000000000000000000000000000000000000d",
            "0xc9e711283b9c7c02030c5621cc188b1ada7390e65fcc7df7dd96e6514cdbf91d",
            "0xf2d1345fc0c229a6e557dfdaa926b017c5e01988c3a801ebad83577597ed33d4"
          ],
          "data": "0x16bfb64ae70b8a9bbda28deb27a1cbc5ec3e6497481714344c221b46c0777f35000000000000000000000000000000000000000000000000000000000000004000000000000000000000000000000000000000000000000000000000000000c0fdb98344b9cb55b99a21cdb84d4a3eed3e28eab75edb73a3c5a1306e592639dc000000000000000000000000d289d1387ae1033a703842d69501d5bec5a6f04e0000000000000000000000004d4adec97e3e11693f65dedc2d1e6bec784eb2f100000000000000000000000000000000000000000000000000000000001e84800000000000000000000000004d4adec97e3e11693f65dedc2d1e6bec784eb2f100000000000000000000000000000000000000000000000000000000000f4240",
          "blockHash": "0xbf36be0820aa92db7a58afe1f7903bf0c38849fe724a8cb17346f45f73ea8e93",
          "blockNumber": "0x2b",
          "blockTimestamp": "0x69665368",
          "transactionHash": "0x186b922a067d7a4293ef217f1be0b239ab2515ebfd0b5970cac025b8a27dd120",
          "transactionIndex": "0x0",
          "logIndex": "0x3",
          "removed": false
        }
      ],
      "logsBloom": "0x40000000000000000040000000000002000002000000000400000000000080000000000000000200000000000000000200000000000000000002000000200000000000000000000004000000000000000002000000200000000000000000000000000000000a00004000000000000100000000000000008000000000000000000000000000000000000000000010000000000000000000000000000000000000000000000000000000000002000000000000000200000000000000000000000010000000400000000001000000000000000000008200000000000000000010220000000008000000000000000000100000000000000000000000000002004000",
      "type": "0x0",
      "transactionHash": "0x186b922a067d7a4293ef217f1be0b239ab2515ebfd0b5970cac025b8a27dd120",
      "transactionIndex": "0x0",
      "blockHash": "0xbf36be0820aa92db7a58afe1f7903bf0c38849fe724a8cb17346f45f73ea8e93",
      "blockNumber": "0x2b",
      "gasUsed": "0x207ba",
      "effectiveGasPrice": "0x3b9aca00",
      "blobGasPrice": "0x1",
      "from": "0xd289d1387ae1033a703842d69501d5bec5a6f04e",
      "to": "0x048255dfef2ebfa7307058ae475a3e2f5ee0df46",
      "contractAddress": null
    },
    {
      "status": "0x1",
      "cumulativeGasUsed": "0x6994",
      "logs": [],
      "logsBloom": "0x00000000000000000000000000000000000000000000000000000000000000000000000000000000000000000000000000000000000000000000000000000000000000000000000000000000000000000000000000000000000000000000000000000000000000000000000000000000000000000000000000000000000000000000000000000000000000000000000000000000000000000000000000000000000000000000000000000000000000000000000000000000000000000000000000000000000000000000000000000000000000000000000000000000000000000000000000000000000000000000000000000000000000000000000000000000",
      "type": "0x0",
      "transactionHash": "0x3cfe4d3def108d512f118812e99980805c2613a669372cae3d633a56843e7cd6",
      "transactionIndex": "0x0",
      "blockHash": "0x770891bf687fa859b4f5a04831c1cbf4cc71b9d66bfb8ef3d7eaf9e6f7ce37f3",
      "blockNumber": "0x2c",
      "gasUsed": "0x6994",
      "effectiveGasPrice": "0x3b9aca00",
      "blobGasPrice": "0x1",
      "from": "0xd289d1387ae1033a703842d69501d5bec5a6f04e",
      "to": "0xf86c23c1e883ee3b820fb9be75ff91c9a49eae75",
      "contractAddress": null
    },
    {
      "status": "0x1",
      "cumulativeGasUsed": "0x5fd8",
      "logs": [],
      "logsBloom": "0x00000000000000000000000000000000000000000000000000000000000000000000000000000000000000000000000000000000000000000000000000000000000000000000000000000000000000000000000000000000000000000000000000000000000000000000000000000000000000000000000000000000000000000000000000000000000000000000000000000000000000000000000000000000000000000000000000000000000000000000000000000000000000000000000000000000000000000000000000000000000000000000000000000000000000000000000000000000000000000000000000000000000000000000000000000000",
      "type": "0x0",
      "transactionHash": "0x9041eb280fbb4358404c02716074cab410c6307832ffee46435dabe265bf587b",
      "transactionIndex": "0x0",
      "blockHash": "0x685c2724306586432530e3d509797d3415070d62d2e45eb7e4c91e68875fbe19",
      "blockNumber": "0x2d",
      "gasUsed": "0x5fd8",
      "effectiveGasPrice": "0x3b9aca00",
      "blobGasPrice": "0x1",
      "from": "0xd289d1387ae1033a703842d69501d5bec5a6f04e",
      "to": "0xf86c23c1e883ee3b820fb9be75ff91c9a49eae75",
      "contractAddress": null
    },
    {
      "status": "0x1",
      "cumulativeGasUsed": "0x52d45",
      "logs": [
        {
          "address": "0x048255dfef2ebfa7307058ae475a3e2f5ee0df46",
          "topics": [
            "0x6f81b8ad0780a0febc687a3a73b181433722b4be30f7f0a024169f5161267287",
            "0x15b9517f84e81219f907e347d0894b01e0d21e5729f301eef26bc1aa086b15e8",
            "0x000000000000000000000000d289d1387ae1033a703842d69501d5bec5a6f04e"
          ],
          "data": "0x0000000000000000000000000000000000000000000000000000000000000000000000000000000000000000f86c23c1e883ee3b820fb9be75ff91c9a49eae7500000000000000000000000000000000000000000000000000000000000f4240000000000000000000000000d289d1387ae1033a703842d69501d5bec5a6f04e000000000000000000000000000000000000000000000000000000000000000100000000000000000000000000000000000000000000000000000000000000c000000000000000000000000000000000000000000000000000000000000000a000000000000000000000000000000000000000000000000000000000000000200000000000000000000000005457e258a09ebfb4a2501a9e3d70d37f54f923f300000000000000000000000000000000000000000000000000000000000000400000000000000000000000000000000000000000000000000000000000000002beef000000000000000000000000000000000000000000000000000000000000",
          "blockHash": "0xac51d3057bb2254572c8efaa0780231c9d78d70afc2ebee45922b899216a9f6c",
          "blockNumber": "0x2e",
          "blockTimestamp": "0x69665368",
          "transactionHash": "0x1dbc2a9ef773a86244b490c3af58e7660de146813e28383a74af04e188a9abde",
          "transactionIndex": "0x0",
          "logIndex": "0x0",
          "removed": false
        },
        {
          "address": "0x048255dfef2ebfa7307058ae475a3e2f5ee0df46",
          "topics": [
            "0x78160f0b1b2b32b52a0076d8f0f70888687ba702a4d993d55ac8d9327d57a127",
            "0x000000000000000000000000000000000000000000000000000000000000000e",
            "0xf2d1345fc0c229a6e557dfdaa926b017c5e01988c3a801ebad83577597ed33d4",
            "0xcfeb605bb84b14ef67ef8d6cd508df64c4987db873ffd4f40fc29b64693a37ff"
          ],
          "data": "0x6f81b8ad0780a0febc687a3a73b181433722b4be30f7f0a024169f5161267287000000000000000000000000000000000000000000000000000000000000004000000000000000000000000000000000000000000000000000000000000001c015b9517f84e81219f907e347d0894b01e0d21e5729f301eef26bc1aa086b15e8000000000000000000000000d289d1387ae1033a703842d69501d5bec5a6f04e0000000000000000000000000000000000000000000000000000000000000000000000000000000000000000f86c23c1e883ee3b820fb9be75ff91c9a49eae7500000000000000000000000000000000000000000000000000000000000f4240000000000000000000000000d289d1387ae1033a703842d69501d5bec5a6f04e0000000000000000000000000000000000000000000000000000000000000001000000000000000000000000000000000000000000000000000000000000010000000000000000000000000000000000000000000000000000000000000000a000000000000000000000000000000000000000000000000000000000000000200000000000000000000000005457e258a09ebfb4a2501a9e3d70d37f54f923f300000000000000000000000000000000000000000000000000000000000000400000000000000000000000000000000000000000000000000000000000000002beef000000000000000000000000000000000000000000000000000000000000",
          "blockHash": "0xac51d3057bb2254572c8efaa0780231c9d78d70afc2ebee45922b899216a9f6c",
          "blockNumber": "0x2e",
          "blockTimestamp": "0x69665368",
          "transactionHash": "0x1dbc2a9ef773a86244b490c3af58e7660de146813e28383a74af04e188a9abde",
          "transactionIndex": "0x0",
          "logIndex": "0x1",
          "removed": false
        },
        {
          "address": "0x048255dfef2ebfa7307058ae475a3e2f5ee0df46",
          "topics": [
            "0x0544741ff6f2708047138c8f3a68abb994e628666dba785f685ff1035274f9fb",
            "0x15b9517f84e81219f907e347d0894b01e0d21e5729f301eef26bc1aa086b15e8",
            "0x000000000000000000000000d289d1387ae1033a703842d69501d5bec5a6f04e"
          ],
          "data": "0x000000000000000000000000f86c23c1e883ee3b820fb9be75ff91c9a49eae7500000000000000000000000000000000000000000000000000000000000f4240",
          "blockHash": "0xac51d3057bb2254572c8efaa0780231c9d78d70afc2ebee45922b899216a9f6c",
          "blockNumber": "0x2e",
          "blockTimestamp": "0x69665368",
          "transactionHash": "0x1dbc2a9ef773a86244b490c3af58e7660de146813e28383a74af04e188a9abde",
          "transactionIndex": "0x0",
          "logIndex": "0x2",
          "removed": false
        },
        {
          "address": "0x048255dfef2ebfa7307058ae475a3e2f5ee0df46",
          "topics": [
            "0x78160f0b1b2b32b52a0076d8f0f70888687ba702a4d993d55ac8d9327d57a127",
            "0x000000000000000000000000000000000000000000000000000000000000000f",
            "0xcfeb605bb84b14ef67ef8d6cd508df64c4987db873ffd4f40fc29b64693a37ff",
            "0x0d8e5317a6b2b3541aeaebce86dfaea6ed65eb90a563d752a284435dfe0bee74"
          ],
          "data": "0x0544741ff6f2708047138c8f3a68abb994e628666dba785f685ff1035274f9fb0000000000000000000000000000000000000000000000000000000000000040000000000000000000000000000000000000000000000000000000000000008015b9517f84e81219f907e347d0894b01e0d21e5729f301eef26bc1aa086b15e8000000000000000000000000d289d1387ae1033a703842d69501d5bec5a6f04e000000000000000000000000f86c23c1e883ee3b820fb9be75ff91c9a49eae7500000000000000000000000000000000000000000000000000000000000f4240",
          "blockHash": "0xac51d3057bb2254572c8efaa0780231c9d78d70afc2ebee45922b899216a9f6c",
          "blockNumber": "0x2e",
          "blockTimestamp": "0x69665368",
          "transactionHash": "0x1dbc2a9ef773a86244b490c3af58e7660de146813e28383a74af04e188a9abde",
          "transactionIndex": "0x0",
          "logIndex": "0x3",
          "removed": false
        }
      ],
      "logsBloom": "0x40000000000000000000000000000000000000000000000000000000000000000100000000000000040000000000000040000000000000000000000000200000000000000000000804000000000000000004000100000000000000000002000000000000000800004000000000000000000000002000008000000000008000000000020000000800002000000000000008000000000000000000000000000000000000008000000000000000000000000000200200000020200080000000000000000000400000000000020000000000000000000200000000000000000010000000000200000000000000000000100000400000000000000000000000004000",
      "type": "0x0",
      "transactionHash": "0x1dbc2a9ef773a86244b490c3af58e7660de146813e28383a74af04e188a9abde",
      "transactionIndex": "0x0",
      "blockHash": "0xac51d3057bb2254572c8efaa0780231c9d78d70afc2ebee45922b899216a9f6c",
      "blockNumber": "0x2e",
      "gasUsed": "0x52d45",
      "effectiveGasPrice": "0x3b9aca00",
      "blobGasPrice": "0x1",
      "from": "0xd289d1387ae1033a703842d69501d5bec5a6f04e",
      "to": "0x048255dfef2ebfa7307058ae475a3e2f5ee0df46",
      "contractAddress": null
    },
    {
      "status": "0x1",
      "cumulativeGasUsed": "0x17083",
      "logs": [
        {
          "address": "0x048255dfef2ebfa7307058ae475a3e2f5ee0df46",
          "topics": [
            "0x6db2da0f661d59d5a9c767b6ba61a9c192765a6aab952e5e53ea77175332f13d",
            "0x15b9517f84e81219f907e347d0894b01e0d21e5729f301eef26bc1aa086b15e8",
            "0x000000000000000000000000d289d1387ae1033a703842d69501d5bec5a6f04e"
          ],
          "data": "0x000000000000000000000000000000000000000000000000000000000000000000000000000000000000000000000000000000000000000000000000000000010000000000000000000000000000000000000000000000000000000000000000000000000000000000000000d289d1387ae1033a703842d69501d5bec5a6f04e000000000000000000000000f86c23c1e883ee3b820fb9be75ff91c9a49eae7500000000000000000000000000000000000000000000000000000000000f42400000000000000000000000004d4adec97e3e11693f65dedc2d1e6bec784eb2f1000000000000000000000000000000000000000000000000000000000000000000000000000000000000000000000000000000000000000000000000000000000000000000000000000000000000000000000000000000000000000000000000",
          "blockHash": "0xd1342559601ab54911d4b85e3e850fbca0190f3b7c395ecc6b3ec8ec0f7d2cc6",
          "blockNumber": "0x2f",
          "blockTimestamp": "0x69665368",
          "transactionHash": "0x9438a2988aae822415b3eae4d41e58ac49a984bd82101f72ed93da8690071682",
          "transactionIndex": "0x0",
          "logIndex": "0x0",
          "removed": false
        },
        {
          "address": "0x048255dfef2ebfa7307058ae475a3e2f5ee0df46",
          "topics": [
            "0x78160f0b1b2b32b52a0076d8f0f70888687ba702a4d993d55ac8d9327d57a127",
            "0x0000000000000000000000000000000000000000000000000000000000000010",
            "0x0d8e5317a6b2b3541aeaebce86dfaea6ed65eb90a563d752a284435dfe0bee74",
            "0xde39b24237eb6adb74e5fc3674f87e9856ec1b5a9d02406b9722a99b08918c9d"
          ],
          "data": "0x6db2da0f661d59d5a9c767b6ba61a9c192765a6aab952e5e53ea77175332f13d0000000000000000000000000000000000000000000000000000000000000040000000000000000000000000000000000000000000000000000000000000018015b9517f84e81219f907e347d0894b01e0d21e5729f301eef26bc1aa086b15e8000000000000000000000000d289d1387ae1033a703842d69501d5bec5a6f04e000000000000000000000000000000000000000000000000000000000000000000000000000000000000000000000000000000000000000000000000000000010000000000000000000000000000000000000000000000000000000000000000000000000000000000000000d289d1387ae1033a703842d69501d5bec5a6f04e000000000000000000000000f86c23c1e883ee3b820fb9be75ff91c9a49eae7500000000000000000000000000000000000000000000000000000000000f42400000000000000000000000004d4adec97e3e11693f65dedc2d1e6bec784eb2f1000000000000000000000000000000000000000000000000000000000000000000000000000000000000000000000000000000000000000000000000000000000000000000000000000000000000000000000000000000000000000000000000",
          "blockHash": "0xd1342559601ab54911d4b85e3e850fbca0190f3b7c395ecc6b3ec8ec0f7d2cc6",
          "blockNumber": "0x2f",
          "blockTimestamp": "0x69665368",
          "transactionHash": "0x9438a2988aae822415b3eae4d41e58ac49a984bd82101f72ed93da8690071682",
          "transactionIndex": "0x0",
          "logIndex": "0x1",
          "removed": false
        }
      ],
      "logsBloom": "0x00000000100000002000000000000000000000000000000000000000000000000120000000000000040000000000000040000000000000000000000000200000000000000000000004000000000000000000000000000000000000000000000000000000000800004000010000000000000000002000000000000000040000000000020000000000000000040000000000000100000000000000000000000000000000000000000000000000000000000000000200000000000080000000000000000000400000000000000000000000000000001200000000000000000000000000000000000000000000000000100000400000000000000000000000004000",
      "type": "0x0",
      "transactionHash": "0x9438a2988aae822415b3eae4d41e58ac49a984bd82101f72ed93da8690071682",
      "transactionIndex": "0x0",
      "blockHash": "0xd1342559601ab54911d4b85e3e850fbca0190f3b7c395ecc6b3ec8ec0f7d2cc6",
      "blockNumber": "0x2f",
      "gasUsed": "0x17083",
      "effectiveGasPrice": "0x3b9aca00",
      "blobGasPrice": "0x1",
      "from": "0xd289d1387ae1033a703842d69501d5bec5a6f04e",
      "to": "0x048255dfef2ebfa7307058ae475a3e2f5ee0df46",
      "contractAddress": null
    },
    {
      "status": "0x1",
      "cumulativeGasUsed": "0xac60",
      "logs": [],
      "logsBloom": "0x00000000000000000000000000000000000000000000000000000000000000000000000000000000000000000000000000000000000000000000000000000000000000000000000000000000000000000000000000000000000000000000000000000000000000000000000000000000000000000000000000000000000000000000000000000000000000000000000000000000000000000000000000000000000000000000000000000000000000000000000000000000000000000000000000000000000000000000000000000000000000000000000000000000000000000000000000000000000000000000000000000000000000000000000000000000",
      "type": "0x0",
      "transactionHash": "0xe3e00cbfbb1eaa75e893c94ed084eaac10b7360f2fc94bcd2158d19b7445e752",
      "transactionIndex": "0x0",
      "blockHash": "0xb22c9ec13d951d133e885e1b5c2bb360e4b11fb10375f4fe81e1263a79a913e3",
      "blockNumber": "0x30",
      "gasUsed": "0xac60",
      "effectiveGasPrice": "0x3b9aca00",
      "blobGasPrice": "0x1",
      "from": "0xd289d1387ae1033a703842d69501d5bec5a6f04e",
      "to": "0x4d4adec97e3e11693f65dedc2d1e6bec784eb2f1",
      "contractAddress": null
    },
    {
      "status": "0x1",
      "cumulativeGasUsed": "0x3d7f7",
      "logs": [
        {
          "address": "0x8828fd7431d5bb1962d7e067c103b2324fa6bbec",
          "topics": [
            "0x7391f14355eff1e559e381f5bf49886a77da7c4fdd33c6fc2e0142269c561c59",
            "0x39f7cee325f73ecacb1adc2e83b54a8d98a7670dbff3a1be1b9127ecae7643f6",
            "0x7eb964445de6c2e66bcec24d55b50c465b3b27091b6d503c1897ac7d99ecbe35",
            "0x38cb7bc9535f8b89744a14dd2acfe7dcc993eb5f668dfbcb95bdf21a839e2ec0"
          ],
          "data": "0x805137159b1f1225efc7ae36f6b216b76c0e9bed085c4220b2f702fde8defd0400000000000000000000000000000000000000000000000000000000000000de000000000000000000000000048255dfef2ebfa7307058ae475a3e2f5ee0df460000000000000000000000000000000000000000000000000000000000000001000000000000000000000000000000000000000000000000000000000098983c0000000000000000000000004d4adec97e3e11693f65dedc2d1e6bec784eb2f10000000000000000000000004d4adec97e3e11693f65dedc2d1e6bec784eb2f10000000000000000000000001a8d6663d71dd8aeb9d90c08bbdb80b7f36247830000000000000000000000001a8d6663d71dd8aeb9d90c08bbdb80b7f3624783",
          "blockHash": "0x8e808c0ee75adf773deef88064faf506c365160487969ad625885fdd2751b786",
          "blockNumber": "0x31",
          "blockTimestamp": "0x69665368",
          "transactionHash": "0xd0a8a97b16a42d39d3202033047b5370199b4abf26edd368e1b6f43f82569faf",
          "transactionIndex": "0x0",
          "logIndex": "0x0",
          "removed": false
        },
        {
          "address": "0x8828fd7431d5bb1962d7e067c103b2324fa6bbec",
          "topics": [
            "0x78160f0b1b2b32b52a0076d8f0f70888687ba702a4d993d55ac8d9327d57a127",
            "0x0000000000000000000000000000000000000000000000000000000000000010",
            "0x810b747ac3f24845cdf00f02c882e44fa4360ae5b49c895854a17f3423da14d2",
            "0x019388d06c96b230a5173cce7496053eabc0bbd19b247298113f476dfe2c9989"
          ],
          "data": "0x7391f14355eff1e559e381f5bf49886a77da7c4fdd33c6fc2e0142269c561c590000000000000000000000000000000000000000000000000000000000000040000000000000000000000000000000000000000000000000000000000000018039f7cee325f73ecacb1adc2e83b54a8d98a7670dbff3a1be1b9127ecae7643f67eb964445de6c2e66bcec24d55b50c465b3b27091b6d503c1897ac7d99ecbe3538cb7bc9535f8b89744a14dd2acfe7dcc993eb5f668dfbcb95bdf21a839e2ec0805137159b1f1225efc7ae36f6b216b76c0e9bed085c4220b2f702fde8defd0400000000000000000000000000000000000000000000000000000000000000de000000000000000000000000048255dfef2ebfa7307058ae475a3e2f5ee0df460000000000000000000000000000000000000000000000000000000000000001000000000000000000000000000000000000000000000000000000000098983c0000000000000000000000004d4adec97e3e11693f65dedc2d1e6bec784eb2f10000000000000000000000004d4adec97e3e11693f65dedc2d1e6bec784eb2f10000000000000000000000001a8d6663d71dd8aeb9d90c08bbdb80b7f36247830000000000000000000000001a8d6663d71dd8aeb9d90c08bbdb80b7f3624783",
          "blockHash": "0x8e808c0ee75adf773deef88064faf506c365160487969ad625885fdd2751b786",
          "blockNumber": "0x31",
          "blockTimestamp": "0x69665368",
          "transactionHash": "0xd0a8a97b16a42d39d3202033047b5370199b4abf26edd368e1b6f43f82569faf",
          "transactionIndex": "0x0",
          "logIndex": "0x1",
          "removed": false
        },
        {
          "address": "0x8828fd7431d5bb1962d7e067c103b2324fa6bbec",
          "topics": [
            "0x488f06a9ca9e19e1dd90c764cc79b765e8a3a089ef27d9a0e39dee21c7643188",
            "0x9e9ff42b12a82f00eebbbab16cfa643f508f9161d185379a4b30a6805e50e630",
            "0x0000000000000000000000001a8d6663d71dd8aeb9d90c08bbdb80b7f3624783"
          ],
          "data": "0x000000000000000000000000e007a594267d5b9a4f5bf6fd054579eb82f5a057",
          "blockHash": "0x8e808c0ee75adf773deef88064faf506c365160487969ad625885fdd2751b786",
          "blockNumber": "0x31",
          "blockTimestamp": "0x69665368",
          "transactionHash": "0xd0a8a97b16a42d39d3202033047b5370199b4abf26edd368e1b6f43f82569faf",
          "transactionIndex": "0x0",
          "logIndex": "0x2",
          "removed": false
        },
        {
          "address": "0x8828fd7431d5bb1962d7e067c103b2324fa6bbec",
          "topics": [
            "0x78160f0b1b2b32b52a0076d8f0f70888687ba702a4d993d55ac8d9327d57a127",
            "0x0000000000000000000000000000000000000000000000000000000000000011",
            "0x019388d06c96b230a5173cce7496053eabc0bbd19b247298113f476dfe2c9989",
            "0xb0a1eb78ac7fb81216b18b00fbcc9a4827f1ae6dabce363b1121dd3eb7038b1e"
          ],
          "data": "0x488f06a9ca9e19e1dd90c764cc79b765e8a3a089ef27d9a0e39dee21c7643188000000000000000000000000000000000000000000000000000000000000004000000000000000000000000000000000000000000000000000000000000000609e9ff42b12a82f00eebbbab16cfa643f508f9161d185379a4b30a6805e50e6300000000000000000000000001a8d6663d71dd8aeb9d90c08bbdb80b7f3624783000000000000000000000000e007a594267d5b9a4f5bf6fd054579eb82f5a057",
          "blockHash": "0x8e808c0ee75adf773deef88064faf506c365160487969ad625885fdd2751b786",
          "blockNumber": "0x31",
          "blockTimestamp": "0x69665368",
          "transactionHash": "0xd0a8a97b16a42d39d3202033047b5370199b4abf26edd368e1b6f43f82569faf",
          "transactionIndex": "0x0",
          "logIndex": "0x3",
          "removed": false
        },
        {
          "address": "0x8828fd7431d5bb1962d7e067c103b2324fa6bbec",
          "topics": [
            "0x2dfcf646f953b41d2cd9d30bcf3f6cda5248efcd7733adff3a25e88f35b8afcb",
            "0x39f7cee325f73ecacb1adc2e83b54a8d98a7670dbff3a1be1b9127ecae7643f6",
            "0x000000000000000000000000c5ea444a0f556f5b227ec7447294d91086bb692c",
            "0x0000000000000000000000004d4adec97e3e11693f65dedc2d1e6bec784eb2f1"
          ],
          "data": "0x000000000000000000000000000000000000000000000000000000000098983c00000000000000000000000000000000000000000000000000000000000000de",
          "blockHash": "0x8e808c0ee75adf773deef88064faf506c365160487969ad625885fdd2751b786",
          "blockNumber": "0x31",
          "blockTimestamp": "0x69665368",
          "transactionHash": "0xd0a8a97b16a42d39d3202033047b5370199b4abf26edd368e1b6f43f82569faf",
          "transactionIndex": "0x0",
          "logIndex": "0x4",
          "removed": false
        },
        {
          "address": "0x8828fd7431d5bb1962d7e067c103b2324fa6bbec",
          "topics": [
            "0x78160f0b1b2b32b52a0076d8f0f70888687ba702a4d993d55ac8d9327d57a127",
            "0x0000000000000000000000000000000000000000000000000000000000000012",
            "0xb0a1eb78ac7fb81216b18b00fbcc9a4827f1ae6dabce363b1121dd3eb7038b1e",
            "0xb64c5138e66bc70acd0d811ab87c16a8047637dd306381e3b6471dd901057c8d"
          ],
          "data": "0x2dfcf646f953b41d2cd9d30bcf3f6cda5248efcd7733adff3a25e88f35b8afcb000000000000000000000000000000000000000000000000000000000000004000000000000000000000000000000000000000000000000000000000000000a039f7cee325f73ecacb1adc2e83b54a8d98a7670dbff3a1be1b9127ecae7643f6000000000000000000000000c5ea444a0f556f5b227ec7447294d91086bb692c0000000000000000000000004d4adec97e3e11693f65dedc2d1e6bec784eb2f1000000000000000000000000000000000000000000000000000000000098983c00000000000000000000000000000000000000000000000000000000000000de",
          "blockHash": "0x8e808c0ee75adf773deef88064faf506c365160487969ad625885fdd2751b786",
          "blockNumber": "0x31",
          "blockTimestamp": "0x69665368",
          "transactionHash": "0xd0a8a97b16a42d39d3202033047b5370199b4abf26edd368e1b6f43f82569faf",
          "transactionIndex": "0x0",
          "logIndex": "0x5",
          "removed": false
        },
        {
          "address": "0x8828fd7431d5bb1962d7e067c103b2324fa6bbec",
          "topics": [
            "0x2e659081f44c4f56a18b00f3f9d136d7ee8396bc79163c4d61363ddcf4a4cb27",
            "0x39f7cee325f73ecacb1adc2e83b54a8d98a7670dbff3a1be1b9127ecae7643f6"
          ],
          "data": "0x0000000000000000000000000000000000000000000000000000000000000001000000000000000000000000000000000000000000000000000000000098983c000000000000000000000000000000000000000000000000000000000098983c000000000000000000000000000000000000000000000000000000000000000000000000000000000000000000000000000000000000000000000000000000000000000000000000000000000000000000000000000000000000000000000000000000000000000000000000c5ea444a0f556f5b227ec7447294d91086bb692c000000000000000000000000000000000000000000000000000000000098983cc5d2460186f7233c927e7db2dcc703c0e500b653ca82273b7bfad8045d85a470",
          "blockHash": "0x8e808c0ee75adf773deef88064faf506c365160487969ad625885fdd2751b786",
          "blockNumber": "0x31",
          "blockTimestamp": "0x69665368",
          "transactionHash": "0xd0a8a97b16a42d39d3202033047b5370199b4abf26edd368e1b6f43f82569faf",
          "transactionIndex": "0x0",
          "logIndex": "0x6",
          "removed": false
        },
        {
          "address": "0x8828fd7431d5bb1962d7e067c103b2324fa6bbec",
          "topics": [
            "0x78160f0b1b2b32b52a0076d8f0f70888687ba702a4d993d55ac8d9327d57a127",
            "0x0000000000000000000000000000000000000000000000000000000000000013",
            "0xb64c5138e66bc70acd0d811ab87c16a8047637dd306381e3b6471dd901057c8d",
            "0xce7a317c53a8608cbd0956b3fd880a5161591698818e86edb271b52a4d7ce2aa"
          ],
          "data": "0x2e659081f44c4f56a18b00f3f9d136d7ee8396bc79163c4d61363ddcf4a4cb270000000000000000000000000000000000000000000000000000000000000040000000000000000000000000000000000000000000000000000000000000014039f7cee325f73ecacb1adc2e83b54a8d98a7670dbff3a1be1b9127ecae7643f60000000000000000000000000000000000000000000000000000000000000001000000000000000000000000000000000000000000000000000000000098983c000000000000000000000000000000000000000000000000000000000098983c000000000000000000000000000000000000000000000000000000000000000000000000000000000000000000000000000000000000000000000000000000000000000000000000000000000000000000000000000000000000000000000000000000000000000000000000c5ea444a0f556f5b227ec7447294d91086bb692c000000000000000000000000000000000000000000000000000000000098983cc5d2460186f7233c927e7db2dcc703c0e500b653ca82273b7bfad8045d85a470",
          "blockHash": "0x8e808c0ee75adf773deef88064faf506c365160487969ad625885fdd2751b786",
          "blockNumber": "0x31",
          "blockTimestamp": "0x69665368",
          "transactionHash": "0xd0a8a97b16a42d39d3202033047b5370199b4abf26edd368e1b6f43f82569faf",
          "transactionIndex": "0x0",
          "logIndex": "0x7",
          "removed": false
        }
      ],
      "logsBloom": "0x200000011000000000000000008000000000000008000000000000000000020000000000401000000200000000000000000000000000000000001000002000000000000002000000010000004000008000000000040000002c0000100000000000000020000800000000000400044088000000004000000080000000040000000000400000040080000000000000040000000120000000020000000000000000000000000000400000000000000000000000000010010840080100000400000000201000010008000508000004000000000001000800000400000000000000000000400000080002000000840000000100000000000000000000000400004000",
      "type": "0x0",
      "transactionHash": "0xd0a8a97b16a42d39d3202033047b5370199b4abf26edd368e1b6f43f82569faf",
      "transactionIndex": "0x0",
      "blockHash": "0x8e808c0ee75adf773deef88064faf506c365160487969ad625885fdd2751b786",
      "blockNumber": "0x31",
      "gasUsed": "0x3d7f7",
      "effectiveGasPrice": "0x3b9aca00",
      "blobGasPrice": "0x1",
      "from": "0xd289d1387ae1033a703842d69501d5bec5a6f04e",
      "to": "0x8828fd7431d5bb1962d7e067c103b2324fa6bbec",
      "contractAddress": null
    }
  ],
  "libraries": [],
  "pending": [],
  "returns": {},
  "timestamp": 1768313704728,
  "chain": 444,
  "commit": "24bfcfb"
}