{
  "transactions": [
    {
      "hash": "0x0bd00aafbb67c67bf0d7afc58065ef5a70ff3bcaa705d25ae06c399210b95d62",
      "transactionType": "CREATE",
      "contractName": "ExactBridger",
      "contractAddress": "0x0be19c78706c441de4178a2266a650e47160eda7",
      "function": null,
      "arguments": null,
      "transaction": {
        "from": "0xd289d1387ae1033a703842d69501d5bec5a6f04e",
        "value": "0x0",
        "input": "0x60808060405234601557610521908161001a8239f35b5f80fdfe608080604052600436101561001c575b50361561001a575f80fd5b005b5f3560e01c9081631fce5d1114610478575080632267cb0814610450578063463d1fca146104335780637f8945821461035557806384def41c1461033c57806389c905d21461031f578063a678341d14610302578063b14d361d146100ac5763ff7b2edd1461008b575f61000f565b346100a8575f3660031901126100a8576020600654604051908152f35b5f80fd5b60a03660031901126100a8576004356001600160a01b038116908190036100a8576044356001600160a01b03811691602435918390036100a8576084359267ffffffffffffffff84116100a857366023850112156100a85783600401359167ffffffffffffffff83116100a85736602484870101116100a8576bffffffffffffffffffffffff60a01b5f5416175f55826001556bffffffffffffffffffffffff60a01b600254161760025560643560035561016860045461049a565b601f811161029a575b505f601f8211600114610227578192935f92610219575b50508160011b915f199060031b1c1916176004555b34600555600654806101b5575b602082604051908152f35b5f80808093335af13d15610214573d67ffffffffffffffff811161020057604051906101eb601f8201601f1916602001836104d2565b81525f60203d92013e5b156100a857816101aa565b634e487b7160e01b5f52604160045260245ffd5b6101f5565b602492500101358380610188565b601f1982169360045f525f5160206104f55f395f51905f52915f5b86811061027f5750836001959610610263575b505050811b0160045561019d565b01602401355f19600384901b60f8161c19169055838080610255565b90926020600181926024878701013581550194019101610242565b60045f52601f820160051c5f5160206104f55f395f51905f520190602083106102ed575b601f0160051c5f5160206104f55f395f51905f5201905b8181106102e25750610171565b5f81556001016102d5565b5f5160206104f55f395f51905f5291506102be565b346100a8575f3660031901126100a8576020600354604051908152f35b346100a8575f3660031901126100a8576020600154604051908152f35b346100a85760203660031901126100a857600435600655005b346100a8575f3660031901126100a857604051600454905f6103768361049a565b80835260208301936001811690811561041857506001146103cd575b50906103a28160409303826104d2565b8151928391602083525180918160208501528484015e5f828201840152601f01601f19168101030190f35b91905060045f525f5160206104f55f395f51905f52915f905b8082106103fe575090915081016020016103a2610392565b9192600181602092548385880101520191019092916103e6565b60ff1916855250151560051b820160200190506103a2610392565b346100a8575f3660031901126100a8576020600554604051908152f35b346100a8575f3660031901126100a8576002546040516001600160a01b039091168152602090f35b346100a8575f3660031901126100a8575f546001600160a01b03168152602090f35b90600182811c921680156104c8575b60208310146104b457565b634e487b7160e01b5f52602260045260245ffd5b91607f16916104a9565b90601f8019910116810190811067ffffffffffffffff8211176102005760405256fe8a35acfbc15ff81a39ae7d344fd709f28e8600b4aa8c65c6b64bfe7fe36bd19ba164736f6c634300081b000a",
        "nonce": "0xc",
        "chainId": "0x14d"
      },
      "additionalContracts": [],
      "isFixedGasLimit": false
    },
    {
      "hash": "0x9aa65cbff63a528b3f793efd281b1da51e6c122799e0dcf89cf4c57b275c98d6",
      "transactionType": "CALL",
      "contractName": null,
      "contractAddress": "0x8828fd7431d5bb1962d7e067c103b2324fa6bbec",
      "function": "setBridgers(address,address)",
      "arguments": [
        "0x0bE19C78706c441dE4178a2266a650E47160Eda7",
        "0x0bE19C78706c441dE4178a2266a650E47160Eda7"
      ],
      "transaction": {
        "from": "0xd289d1387ae1033a703842d69501d5bec5a6f04e",
        "to": "0x8828fd7431d5bb1962d7e067c103b2324fa6bbec",
        "value": "0x0",
        "input": "0x2b0f3ee40000000000000000000000000be19c78706c441de4178a2266a650e47160eda70000000000000000000000000be19c78706c441de4178a2266a650e47160eda7",
        "nonce": "0xd",
        "chainId": "0x14d"
      },
      "additionalContracts": [],
      "isFixedGasLimit": false
    },
    {
      "hash": "0xb9dcb1338c908c0674de52a2aeaea5fbe365295091a395696d56375f7a640d56",
      "transactionType": "CREATE",
      "contractName": "MockQuoter",
      "contractAddress": "0x481e836be187303c64f269bc7fe2c52f7f7c6eef",
      "function": null,
      "arguments": null,
      "transaction": {
        "from": "0xd289d1387ae1033a703842d69501d5bec5a6f04e",
        "value": "0x0",
        "input": "0x6080806040523460155761015b908161001a8239f35b5f80fdfe6080806040526004361015610012575f80fd5b5f3560e01c90816346ee8d001461010957508063520b9355146100c15780636813d78714610091578063d3072d821461006f5763e21a560214610053575f80fd5b3461006b57602036600319011261006b576004355f55005b5f80fd5b3461006b575f36600319011261006b57602060ff600154166040519015158152f35b3461006b57602036600319011261006b5760043580151580910361006b5760ff8019600154169116176001555f80f35b3461006b57608036600319011261006b576100da610122565b506100e3610138565b5060ff600154166100fa5760205f54604051908152f35b631f6b7cef60e11b5f5260045ffd5b3461006b575f36600319011261006b576020905f548152f35b600435906001600160a01b038216820361006b57565b602435906001600160a01b038216820361006b5756fea164736f6c634300081b000a",
        "nonce": "0xe",
        "chainId": "0x14d"
      },
      "additionalContracts": [],
      "isFixedGasLimit": false
    },
    {
      "hash": "0xa2d30251956de9976b77663cf7ef3c88b3579fad96010a8c72180300080f5de7",
      "transactionType": "CALL",
      "contractName": "MockQuoter",
      "contractAddress": "0x481e836be187303c64f269bc7fe2c52f7f7c6eef",
      "function": "setAmountOut(uint256)",
      "arguments": [
        "90000000"
      ],
      "transaction": {
        "from": "0xd289d1387ae1033a703842d69501d5bec5a6f04e",
        "to": "0x481e836be187303c64f269bc7fe2c52f7f7c6eef",
        "value": "0x0",
        "input": "0xe21a560200000000000000000000000000000000000000000000000000000000055d4a80",
        "nonce": "0xf",
        "chainId": "0x14d"
      },
      "additionalContracts": [],
      "isFixedGasLimit": false
    },
    {
      "hash": "0xf724177c1161a7e15a716e0acf18383f08aa68a5e83c51a24ad7b8974fec3761",
      "transactionType": "CALL",
      "contractName": null,
      "contractAddress": "0x8828fd7431d5bb1962d7e067c103b2324fa6bbec",
      "function": "setQuoter(address,address)",
      "arguments": [
        "0x4D4aDEc97e3e11693F65dEDC2D1e6Bec784eB2F1",
        "0x481e836bE187303c64F269Bc7fe2C52F7f7c6eEf"
      ],
      "transaction": {
        "from": "0xd289d1387ae1033a703842d69501d5bec5a6f04e",
        "to": "0x8828fd7431d5bb1962d7e067c103b2324fa6bbec",
        "value": "0x0",
        "input": "0x6264257a0000000000000000000000004d4adec97e3e11693f65dedc2d1e6bec784eb2f1000000000000000000000000481e836be187303c64f269bc7fe2c52f7f7c6eef",
        "nonce": "0x10",
        "chainId": "0x14d"
      },
      "additionalContracts": [],
      "isFixedGasLimit": false
    },
    {
      "hash": "0xe1637935c59f388458161687b1ef7ccacd756684d52950d43fd1cf6735a96f1b",
      "transactionType": "CALL",
      "contractName": null,
      "contractAddress": "0x048255dfef2ebfa7307058ae475a3e2f5ee0df46",
      "function": "setRecommendedIntentFee(uint256,uint256)",
      "arguments": [
        "10000",
        "123"
      ],
      "transaction": {
        "from": "0xd289d1387ae1033a703842d69501d5bec5a6f04e",
        "to": "0x048255dfef2ebfa7307058ae475a3e2f5ee0df46",
        "value": "0x0",
        "input": "0xf2af970b0000000000000000000000000000000000000000000000000000000000002710000000000000000000000000000000000000000000000000000000000000007b",
        "nonce": "0x11",
        "chainId": "0x14d"
      },
      "additionalContracts": [],
      "isFixedGasLimit": false
    },
    {
      "hash": "0x209b5ee5d897e109dfc958ee4bacd5b2991aaca81948db2cf3090c58b37f2dc2",
      "transactionType": "CREATE",
      "contractName": "MockQuoter",
      "contractAddress": "0x6b0f32ae157cf4f7d9b402c4e243e9088207dd87",
      "function": null,
      "arguments": null,
      "transaction": {
        "from": "0xd289d1387ae1033a703842d69501d5bec5a6f04e",
        "value": "0x0",
        "input": "0x6080806040523460155761015b908161001a8239f35b5f80fdfe6080806040526004361015610012575f80fd5b5f3560e01c90816346ee8d001461010957508063520b9355146100c15780636813d78714610091578063d3072d821461006f5763e21a560214610053575f80fd5b3461006b57602036600319011261006b576004355f55005b5f80fd5b3461006b575f36600319011261006b57602060ff600154166040519015158152f35b3461006b57602036600319011261006b5760043580151580910361006b5760ff8019600154169116176001555f80f35b3461006b57608036600319011261006b576100da610122565b506100e3610138565b5060ff600154166100fa5760205f54604051908152f35b631f6b7cef60e11b5f5260045ffd5b3461006b575f36600319011261006b576020905f548152f35b600435906001600160a01b038216820361006b57565b602435906001600160a01b038216820361006b5756fea164736f6c634300081b000a",
        "nonce": "0x12",
        "chainId": "0x14d"
      },
      "additionalContracts": [],
      "isFixedGasLimit": false
    },
    {
      "hash": "0x401604e058bfa88a55dced171ce64a920f2201f77fde49f210f234c9c1e1725c",
      "transactionType": "CALL",
      "contractName": "MockQuoter",
      "contractAddress": "0x6b0f32ae157cf4f7d9b402c4e243e9088207dd87",
      "function": "setAmountOut(uint256)",
      "arguments": [
        "90000000"
      ],
      "transaction": {
        "from": "0xd289d1387ae1033a703842d69501d5bec5a6f04e",
        "to": "0x6b0f32ae157cf4f7d9b402c4e243e9088207dd87",
        "value": "0x0",
        "input": "0xe21a560200000000000000000000000000000000000000000000000000000000055d4a80",
        "nonce": "0x13",
        "chainId": "0x14d"
      },
      "additionalContracts": [],
      "isFixedGasLimit": false
    },
    {
      "hash": "0x2fde58b6f721adf32041ecee797eba3d651b5f8e568b73c8d55e755322ae8319",
      "transactionType": "CALL",
      "contractName": null,
      "contractAddress": "0x8828fd7431d5bb1962d7e067c103b2324fa6bbec",
      "function": "setQuoter(address,address)",
      "arguments": [
        "0x4D4aDEc97e3e11693F65dEDC2D1e6Bec784eB2F1",
        "0x6b0f32ae157CF4F7d9B402c4e243E9088207dD87"
      ],
      "transaction": {
        "from": "0xd289d1387ae1033a703842d69501d5bec5a6f04e",
        "to": "0x8828fd7431d5bb1962d7e067c103b2324fa6bbec",
        "value": "0x0",
        "input": "0x6264257a0000000000000000000000004d4adec97e3e11693f65dedc2d1e6bec784eb2f10000000000000000000000006b0f32ae157cf4f7d9b402c4e243e9088207dd87",
        "nonce": "0x14",
        "chainId": "0x14d"
      },
      "additionalContracts": [],
      "isFixedGasLimit": false
    },
    {
      "hash": "0x049742a1cabc77723bf21a7a074bf850c642f851372bc230fe2f10ed90bed8d4",
      "transactionType": "CREATE",
      "contractName": "MockTransportBridger",
      "contractAddress": "0xc5ea444a0f556f5b227ec7447294d91086bb692c",
      "function": null,
      "arguments": null,
      "transaction": {
        "from": "0xd289d1387ae1033a703842d69501d5bec5a6f04e",
        "value": "0x0",
        "input": "0x60808060405234601557610507908161001a8239f35b5f80fdfe6080806040526004361015610012575f80fd5b5f905f3560e01c9081632c368377146103fd5750806347799da8146102d45763b14d361d1461003f575f80fd5b60a03660031901126102d1576004356001600160a01b038116908190036102cf576044356001600160a01b03811691602435918390036102cb576084359267ffffffffffffffff84116102c757366023850112156102c75783600401359067ffffffffffffffff82116102c35736602483870101116102c3576040519260c0840184811067ffffffffffffffff8211176102af5760405283526020830184815260408401918252866020606086019460643586528060246040519a61010d85601f19601f860116018d6104c4565b828c5201838b0137880101526080840186905260a08401878152935187546001600160a01b039182166001600160a01b0319918216178955915160015591516002805491909316911617905551600355825167ffffffffffffffff811161029b5761017960045461048c565b601f8111610238575b5060209485906001601f8411146101d7579482939495926101cc575b50508160011b915f199060031b1c1916176004555b51151560ff801960055416911617600555604051908152f35b015190505f8061019e565b90601f1983169560048352818320925b878110610221575083600195969710610209575b505050811b016004556101b3565b01515f1960f88460031b161c191690555f80806101fb565b9192886001819286850151815501940192016101e7565b600486527f8a35acfbc15ff81a39ae7d344fd709f28e8600b4aa8c65c6b64bfe7fe36bd19b601f830160051c81019160208410610291575b601f0160051c01905b8181106102865750610182565b868155600101610279565b9091508190610270565b634e487b7160e01b85526041600452602485fd5b634e487b7160e01b88526041600452602488fd5b8580fd5b8480fd5b8380fd5b505b80fd5b50346102d157806003193601126102d157805460015460025460035460405160045493946001600160a01b03908116949316918691906103138561048c565b8083526020830195600181169081156103e2575060011461038c575b5061033f8260e0989903836104c4565b60ff6005541693604051988997885260208801526040870152606086015260c060808601525180938160c08701528686015e838301850152151560a0830152601f01601f19168101030190f35b600484529750827f8a35acfbc15ff81a39ae7d344fd709f28e8600b4aa8c65c6b64bfe7fe36bd19b5b8982106103cc57508201602001975061033f61032f565b60018160209254838588010152019101906103b5565b60ff1916875250151560051b8201602001975061033f61032f565b905034610488575f3660031901126104885760055460ff81166104885760ff191660019081176005555f546002549154916001600160a01b039081169116803b1561048857835f604492819583956340c10f1960e01b8552600485015260248401525af1801561047d5761046f575080f35b61047b91505f906104c4565b005b6040513d5f823e3d90fd5b5f80fd5b90600182811c921680156104ba575b60208310146104a657565b634e487b7160e01b5f52602260045260245ffd5b91607f169161049b565b90601f8019910116810190811067ffffffffffffffff8211176104e657604052565b634e487b7160e01b5f52604160045260245ffdfea164736f6c634300081b000a",
        "nonce": "0x15",
        "chainId": "0x14d"
      },
      "additionalContracts": [],
      "isFixedGasLimit": false
    },
    {
      "hash": "0xd77f69c0220e9c917abac00f67b0be3357dfb3fa94fb7244724ebf00b6163ab5",
      "transactionType": "CALL",
      "contractName": null,
      "contractAddress": "0x8828fd7431d5bb1962d7e067c103b2324fa6bbec",
      "function": "setBridgers(address,address)",
      "arguments": [
        "0xC5EA444a0F556f5B227ec7447294d91086BB692c",
        "0xC5EA444a0F556f5B227ec7447294d91086BB692c"
      ],
      "transaction": {
        "from": "0xd289d1387ae1033a703842d69501d5bec5a6f04e",
        "to": "0x8828fd7431d5bb1962d7e067c103b2324fa6bbec",
        "value": "0x0",
        "input": "0x2b0f3ee4000000000000000000000000c5ea444a0f556f5b227ec7447294d91086bb692c000000000000000000000000c5ea444a0f556f5b227ec7447294d91086bb692c",
        "nonce": "0x16",
        "chainId": "0x14d"
      },
      "additionalContracts": [],
      "isFixedGasLimit": false
    },
    {
      "hash": "0x4df0fe94c202468901b9316d1bb846761fd4a00a6c75fe821afa7a0bf04aa896",
      "transactionType": "CALL",
      "contractName": null,
      "contractAddress": "0x4d4adec97e3e11693f65dedc2d1e6bec784eb2f1",
      "function": "mint(address,uint256)",
      "arguments": [
        "0xed87227a182E5A8fC74B1D40D80Db6208741C435",
        "123000000"
      ],
      "transaction": {
        "from": "0xd289d1387ae1033a703842d69501d5bec5a6f04e",
        "to": "0x4d4adec97e3e11693f65dedc2d1e6bec784eb2f1",
        "value": "0x0",
        "input": "0x40c10f19000000000000000000000000ed87227a182e5a8fc74b1d40d80db6208741c435000000000000000000000000000000000000000000000000000000000754d4c0",
        "nonce": "0x17",
        "chainId": "0x14d"
      },
      "additionalContracts": [],
      "isFixedGasLimit": false
    },
    {
      "hash": "0x891413bda4f1988031044ccaaf836f37e6ec733847357bfe573d6d0e34ffb85f",
      "transactionType": "CALL",
      "contractName": null,
      "contractAddress": "0x8828fd7431d5bb1962d7e067c103b2324fa6bbec",
      "function": "pullFromReceiver((uint256,address,bool,bytes32,bytes32,uint256,address,address,(address,uint256,bytes)[],bytes))",
      "arguments": [
        "(333, 0xD59d27B9172aD056Cb5C008Dc2BbEFe702123A55, false, 0x0000000000000000000000000000000000000000000000000000000000000000, 0x0000000000000000000000000000000000000000000000000000000000000001, 0, 0x4D4aDEc97e3e11693F65dEDC2D1e6Bec784eB2F1, 0x4D4aDEc97e3e11693F65dEDC2D1e6Bec784eB2F1, [], 0x)"
      ],
      "transaction": {
        "from": "0xd289d1387ae1033a703842d69501d5bec5a6f04e",
        "to": "0x8828fd7431d5bb1962d7e067c103b2324fa6bbec",
        "value": "0x0",
        "input": "0x1ad1087b0000000000000000000000000000000000000000000000000000000000000020000000000000000000000000000000000000000000000000000000000000014d000000000000000000000000d59d27b9172ad056cb5c008dc2bbefe702123a5500000000000000000000000000000000000000000000000000000000000000000000000000000000000000000000000000000000000000000000000000000000000000000000000000000000000000000000000000000000000000000000000100000000000000000000000000000000000000000000000000000000000000000000000000000000000000004d4adec97e3e11693f65dedc2d1e6bec784eb2f10000000000000000000000004d4adec97e3e11693f65dedc2d1e6bec784eb2f10000000000000000000000000000000000000000000000000000000000000140000000000000000000000000000000000000000000000000000000000000016000000000000000000000000000000000000000000000000000000000000000000000000000000000000000000000000000000000000000000000000000000000",
        "nonce": "0x18",
        "chainId": "0x14d"
      },
      "additionalContracts": [],
      "isFixedGasLimit": false
    },
    {
      "hash": "0x69f070f5563bca8333368fbdf915569ce367bb972188576858f828a52beed83f",
      "transactionType": "CALL",
      "contractName": null,
      "contractAddress": "0x4d4adec97e3e11693f65dedc2d1e6bec784eb2f1",
      "function": "mint(address,uint256)",
      "arguments": [
        "0xed87227a182E5A8fC74B1D40D80Db6208741C435",
        "100000000"
      ],
      "transaction": {
        "from": "0xd289d1387ae1033a703842d69501d5bec5a6f04e",
        "to": "0x4d4adec97e3e11693f65dedc2d1e6bec784eb2f1",
        "value": "0x0",
        "input": "0x40c10f19000000000000000000000000ed87227a182e5a8fc74b1d40d80db6208741c4350000000000000000000000000000000000000000000000000000000005f5e100",
        "nonce": "0x19",
        "chainId": "0x14d"
      },
      "additionalContracts": [],
      "isFixedGasLimit": false
    },
    {
      "hash": "0x27599f162bb8b14fad8b0f9ac38214c1ab979c22769bbeeb328528526a2604df",
      "transactionType": "CALL",
      "contractName": null,
      "contractAddress": "0x8828fd7431d5bb1962d7e067c103b2324fa6bbec",
      "function": "pullFromReceiver((uint256,address,bool,bytes32,bytes32,uint256,address,address,(address,uint256,bytes)[],bytes))",
      "arguments": [
        "(333, 0xD59d27B9172aD056Cb5C008Dc2BbEFe702123A55, false, 0x0000000000000000000000000000000000000000000000000000000000000000, 0x0000000000000000000000000000000000000000000000000000000000000002, 0, 0x4D4aDEc97e3e11693F65dEDC2D1e6Bec784eB2F1, 0xF86C23C1E883ee3B820FB9BE75FF91C9A49EaE75, [(0xF86C23C1E883ee3B820FB9BE75FF91C9A49EaE75, 0, 0x40c10f190000000000000000000000009feb94832da4e52a75a18e6310640cc2cb702ffe0000000000000000000000000000000000000000000000000000000005f5e100)], 0x)"
      ],
      "transaction": {
        "from": "0xd289d1387ae1033a703842d69501d5bec5a6f04e",
        "to": "0x8828fd7431d5bb1962d7e067c103b2324fa6bbec",
        "value": "0x0",
        "input": "0x1ad1087b0000000000000000000000000000000000000000000000000000000000000020000000000000000000000000000000000000000000000000000000000000014d000000000000000000000000d59d27b9172ad056cb5c008dc2bbefe702123a5500000000000000000000000000000000000000000000000000000000000000000000000000000000000000000000000000000000000000000000000000000000000000000000000000000000000000000000000000000000000000000000000200000000000000000000000000000000000000000000000000000000000000000000000000000000000000004d4adec97e3e11693f65dedc2d1e6bec784eb2f1000000000000000000000000f86c23c1e883ee3b820fb9be75ff91c9a49eae750000000000000000000000000000000000000000000000000000000000000140000000000000000000000000000000000000000000000000000000000000026000000000000000000000000000000000000000000000000000000000000000010000000000000000000000000000000000000000000000000000000000000020000000000000000000000000f86c23c1e883ee3b820fb9be75ff91c9a49eae7500000000000000000000000000000000000000000000000000000000000000000000000000000000000000000000000000000000000000000000000000000060000000000000000000000000000000000000000000000000000000000000004440c10f190000000000000000000000009feb94832da4e52a75a18e6310640cc2cb702ffe0000000000000000000000000000000000000000000000000000000005f5e100000000000000000000000000000000000000000000000000000000000000000000000000000000000000000000000000000000000000000000000000",
        "nonce": "0x1a",
        "chainId": "0x14d"
      },
      "additionalContracts": [],
      "isFixedGasLimit": false
    },
    {
      "hash": "0x9472e58502d4d723e2eeef1f18ff94885d1a210ed9e477cc91f10315440a1042",
      "transactionType": "CALL",
      "contractName": null,
      "contractAddress": "0xf86c23c1e883ee3b820fb9be75ff91c9a49eae75",
      "function": "mint(address,uint256)",
      "arguments": [
        "0xD289D1387ae1033A703842D69501D5bEc5A6f04e",
        "5000000"
      ],
      "transaction": {
        "from": "0xd289d1387ae1033a703842d69501d5bec5a6f04e",
        "to": "0xf86c23c1e883ee3b820fb9be75ff91c9a49eae75",
        "value": "0x0",
        "input": "0x40c10f19000000000000000000000000d289d1387ae1033a703842d69501d5bec5a6f04e00000000000000000000000000000000000000000000000000000000004c4b40",
        "nonce": "0x1b",
        "chainId": "0x14d"
      },
      "additionalContracts": [],
      "isFixedGasLimit": false
    },
    {
      "hash": "0x67d41d08660a1ab45f6df271f0e5ee4c8aad68765b5a2429fdfba21ff9bb4a37",
      "transactionType": "CALL",
      "contractName": null,
      "contractAddress": "0xf86c23c1e883ee3b820fb9be75ff91c9a49eae75",
      "function": "approve(address,uint256)",
      "arguments": [
        "0x048255dfEF2eBFA7307058Ae475a3e2F5ee0df46",
        "115792089237316195423570985008687907853269984665640564039457584007913129639935"
      ],
      "transaction": {
        "from": "0xd289d1387ae1033a703842d69501d5bec5a6f04e",
        "to": "0xf86c23c1e883ee3b820fb9be75ff91c9a49eae75",
        "value": "0x0",
        "input": "0x095ea7b3000000000000000000000000048255dfef2ebfa7307058ae475a3e2f5ee0df46ffffffffffffffffffffffffffffffffffffffffffffffffffffffffffffffff",
        "nonce": "0x1c",
        "chainId": "0x14d"
      },
      "additionalContracts": [],
      "isFixedGasLimit": false
    },
    {
      "hash": "0x9212d5aaa121c922692b81aead0564a6da64bb78eb839130c8449fcf82307c77",
      "transactionType": "CALL",
      "contractName": null,
      "contractAddress": "0x048255dfef2ebfa7307058ae475a3e2f5ee0df46",
      "function": "createIntent((uint8,bytes,address,address,uint256),uint256)",
      "arguments": [
        "(0, 0x00000000000000000000000000000000000000000000000000000000000000200000000000000000000000002db97a32d5ce8d79f7b7fdc607584a7a35da5e0d00000000000000000000000000000000000000000000000000000000000000400000000000000000000000000000000000000000000000000000000000000002abcd000000000000000000000000000000000000000000000000000000000000, 0xD289D1387ae1033A703842D69501D5bEc5A6f04e, 0xF86C23C1E883ee3B820FB9BE75FF91C9A49EaE75, 5000000)",
        "1768313610"
      ],
      "transaction": {
        "from": "0xd289d1387ae1033a703842d69501d5bec5a6f04e",
        "to": "0x048255dfef2ebfa7307058ae475a3e2f5ee0df46",
        "value": "0x0",
        "input": "0x549f75050000000000000000000000000000000000000000000000000000000000000040000000000000000000000000000000000000000000000000000000006966530a000000000000000000000000000000000000000000000000000000000000000000000000000000000000000000000000000000000000000000000000000000a0000000000000000000000000d289d1387ae1033a703842d69501d5bec5a6f04e000000000000000000000000f86c23c1e883ee3b820fb9be75ff91c9a49eae7500000000000000000000000000000000000000000000000000000000004c4b4000000000000000000000000000000000000000000000000000000000000000a000000000000000000000000000000000000000000000000000000000000000200000000000000000000000002db97a32d5ce8d79f7b7fdc607584a7a35da5e0d00000000000000000000000000000000000000000000000000000000000000400000000000000000000000000000000000000000000000000000000000000002abcd000000000000000000000000000000000000000000000000000000000000",
        "nonce": "0x1d",
        "chainId": "0x14d"
      },
      "additionalContracts": [],
      "isFixedGasLimit": false
    },
    {
      "hash": "0x78466f8e95a6cec097ab890b86e387f2f2510d6b867e6361019c9da11d46732a",
      "transactionType": "CALL",
      "contractName": null,
      "contractAddress": "0x4d4adec97e3e11693f65dedc2d1e6bec784eb2f1",
      "function": "mint(address,uint256)",
      "arguments": [
        "0xD289D1387ae1033A703842D69501D5bEc5A6f04e",
        "1000000"
      ],
      "transaction": {
        "from": "0xd289d1387ae1033a703842d69501d5bec5a6f04e",
        "to": "0x4d4adec97e3e11693f65dedc2d1e6bec784eb2f1",
        "value": "0x0",
        "input": "0x40c10f19000000000000000000000000d289d1387ae1033a703842d69501d5bec5a6f04e00000000000000000000000000000000000000000000000000000000000f4240",
        "nonce": "0x1e",
        "chainId": "0x14d"
      },
      "additionalContracts": [],
      "isFixedGasLimit": false
    },
    {
      "hash": "0xfb981c298895dafec66687e6e26ca5de950cf4e8ba033cb601abdc1d6a638242",
      "transactionType": "CALL",
      "contractName": null,
      "contractAddress": "0x4d4adec97e3e11693f65dedc2d1e6bec784eb2f1",
      "function": "approve(address,uint256)",
      "arguments": [
        "0x048255dfEF2eBFA7307058Ae475a3e2F5ee0df46",
        "115792089237316195423570985008687907853269984665640564039457584007913129639935"
      ],
      "transaction": {
        "from": "0xd289d1387ae1033a703842d69501d5bec5a6f04e",
        "to": "0x4d4adec97e3e11693f65dedc2d1e6bec784eb2f1",
        "value": "0x0",
        "input": "0x095ea7b3000000000000000000000000048255dfef2ebfa7307058ae475a3e2f5ee0df46ffffffffffffffffffffffffffffffffffffffffffffffffffffffffffffffff",
        "nonce": "0x1f",
        "chainId": "0x14d"
      },
      "additionalContracts": [],
      "isFixedGasLimit": false
    },
    {
      "hash": "0xd8317f2fdffa2966db99199f7a095fdeefb7f299319181ebb9f9254b37f28522",
      "transactionType": "CALL",
      "contractName": null,
      "contractAddress": "0x048255dfef2ebfa7307058ae475a3e2f5ee0df46",
      "function": "claimIntent(bytes32)",
      "arguments": [
        "0x5abb16a9f87b2d44d6039ee6558e1c9ab79699b29548c3b05661fcd8c9f62eb8"
      ],
      "transaction": {
        "from": "0xd289d1387ae1033a703842d69501d5bec5a6f04e",
        "to": "0x048255dfef2ebfa7307058ae475a3e2f5ee0df46",
        "value": "0x0",
        "input": "0x40e624cb5abb16a9f87b2d44d6039ee6558e1c9ab79699b29548c3b05661fcd8c9f62eb8",
        "nonce": "0x20",
        "chainId": "0x14d"
      },
      "additionalContracts": [],
      "isFixedGasLimit": false
    },
    {
      "hash": "0xb714f5ac36b192383bedb54a0bba093c620ff93399a19848334bfc7de47d6257",
      "transactionType": "CALL",
      "contractName": null,
      "contractAddress": "0x8c16d2f19a034b7281254f5656c2d1461c6ceb9a",
      "function": "setTx((bytes32,uint256,uint32,bytes21,bytes21,bytes))",
      "arguments": [
        "(0x0000000000000000000000000000000000000000000000000000000000000000, 0, 0, 0x000000000000000000000000000000000000000000, 0x412db97a32d5ce8d79f7b7fdc607584a7a35da5e0d, 0xabcd)"
      ],
      "transaction": {
        "from": "0xd289d1387ae1033a703842d69501d5bec5a6f04e",
        "to": "0x8c16d2f19a034b7281254f5656c2d1461c6ceb9a",
        "value": "0x0",
        "input": "0x3aec07de00000000000000000000000000000000000000000000000000000000000000200000000000000000000000000000000000000000000000000000000000000000000000000000000000000000000000000000000000000000000000000000000000000000000000000000000000000000000000000000000000000000000000000000000000000000000000000000000000000000000000000000000000000000412db97a32d5ce8d79f7b7fdc607584a7a35da5e0d000000000000000000000000000000000000000000000000000000000000000000000000000000000000c00000000000000000000000000000000000000000000000000000000000000002abcd000000000000000000000000000000000000000000000000000000000000",
        "nonce": "0x21",
        "chainId": "0x14d"
      },
      "additionalContracts": [],
      "isFixedGasLimit": false
    },
    {
      "hash": "0xd6f6f55557f01f47ff9a4f516ce32388b72a171a64720afee0bcc2eaf816a82a",
      "transactionType": "CALL",
      "contractName": null,
      "contractAddress": "0x048255dfef2ebfa7307058ae475a3e2f5ee0df46",
      "function": "proveIntentFill(bytes32,bytes[20],bytes,bytes32[],uint256)",
      "arguments": [
        "0x5abb16a9f87b2d44d6039ee6558e1c9ab79699b29548c3b05661fcd8c9f62eb8",
        "[0x, 0x, 0x, 0x, 0x, 0x, 0x, 0x, 0x, 0x, 0x, 0x, 0x, 0x, 0x, 0x, 0x, 0x, 0x, 0x]",
        "0x",
        "[]",
        "0"
      ],
      "transaction": {
        "from": "0xd289d1387ae1033a703842d69501d5bec5a6f04e",
        "to": "0x048255dfef2ebfa7307058ae475a3e2f5ee0df46",
        "value": "0x0",
        "input": "0x5c23cc025abb16a9f87b2d44d6039ee6558e1c9ab79699b29548c3b05661fcd8c9f62eb800000000000000000000000000000000000000000000000000000000000000a000000000000000000000000000000000000000000000000000000000000005a000000000000000000000000000000000000000000000000000000000000005c00000000000000000000000000000000000000000000000000000000000000000000000000000000000000000000000000000000000000000000000000000028000000000000000000000000000000000000000000000000000000000000002a000000000000000000000000000000000000000000000000000000000000002c000000000000000000000000000000000000000000000000000000000000002e00000000000000000000000000000000000000000000000000000000000000300000000000000000000000000000000000000000000000000000000000000032000000000000000000000000000000000000000000000000000000000000003400000000000000000000000000000000000000000000000000000000000000360000000000000000000000000000000000000000000000000000000000000038000000000000000000000000000000000000000000000000000000000000003a000000000000000000000000000000000000000000000000000000000000003c000000000000000000000000000000000000000000000000000000000000003e00000000000000000000000000000000000000000000000000000000000000400000000000000000000000000000000000000000000000000000000000000042000000000000000000000000000000000000000000000000000000000000004400000000000000000000000000000000000000000000000000000000000000460000000000000000000000000000000000000000000000000000000000000048000000000000000000000000000000000000000000000000000000000000004a000000000000000000000000000000000000000000000000000000000000004c000000000000000000000000000000000000000000000000000000000000004e00000000000000000000000000000000000000000000000000000000000000000000000000000000000000000000000000000000000000000000000000000000000000000000000000000000000000000000000000000000000000000000000000000000000000000000000000000000000000000000000000000000000000000000000000000000000000000000000000000000000000000000000000000000000000000000000000000000000000000000000000000000000000000000000000000000000000000000000000000000000000000000000000000000000000000000000000000000000000000000000000000000000000000000000000000000000000000000000000000000000000000000000000000000000000000000000000000000000000000000000000000000000000000000000000000000000000000000000000000000000000000000000000000000000000000000000000000000000000000000000000000000000000000000000000000000000000000000000000000000000000000000000000000000000000000000000000000000000000000000000000000000000000000000000000000000000000000000000000000000000000000000000000000000000000000000000000000000000000000000000000000000000000000000000000000000000000000000000000000000000000000000000000000000000000000000000000000000000000000000000000000000000000000000000000000000000000000000000000000000000000000000000000000000000000000000000000000000000000000000000000000000000000000000000000000000000000000000000000000000000000000000000000000000000000000000000000000000000000000000000000000000000000000000000000000000000000000000000000000000000000000000000000000000000000000",
        "nonce": "0x22",
        "chainId": "0x14d"
      },
      "additionalContracts": [],
      "isFixedGasLimit": false
    },
    {
      "hash": "0x0a2b025e54d798396bcc4d25e729364f018d01b9de9918368b81ec89df0f7e63",
      "transactionType": "CALL",
      "contractName": null,
      "contractAddress": "0x4d4adec97e3e11693f65dedc2d1e6bec784eb2f1",
      "function": "mint(address,uint256)",
      "arguments": [
        "0xD289D1387ae1033A703842D69501D5bEc5A6f04e",
        "2000000"
      ],
      "transaction": {
        "from": "0xd289d1387ae1033a703842d69501d5bec5a6f04e",
        "to": "0x4d4adec97e3e11693f65dedc2d1e6bec784eb2f1",
        "value": "0x0",
        "input": "0x40c10f19000000000000000000000000d289d1387ae1033a703842d69501d5bec5a6f04e00000000000000000000000000000000000000000000000000000000001e8480",
        "nonce": "0x23",
        "chainId": "0x14d"
      },
      "additionalContracts": [],
      "isFixedGasLimit": false
    },
    {
      "hash": "0x7ea72e5993dc68e9aae677584dd7924b37542cf6803f9122078b9aa549581694",
      "transactionType": "CALL",
      "contractName": null,
      "contractAddress": "0x4d4adec97e3e11693f65dedc2d1e6bec784eb2f1",
      "function": "approve(address,uint256)",
      "arguments": [
        "0x048255dfEF2eBFA7307058Ae475a3e2F5ee0df46",
        "115792089237316195423570985008687907853269984665640564039457584007913129639935"
      ],
      "transaction": {
        "from": "0xd289d1387ae1033a703842d69501d5bec5a6f04e",
        "to": "0x4d4adec97e3e11693f65dedc2d1e6bec784eb2f1",
        "value": "0x0",
        "input": "0x095ea7b3000000000000000000000000048255dfef2ebfa7307058ae475a3e2f5ee0df46ffffffffffffffffffffffffffffffffffffffffffffffffffffffffffffffff",
        "nonce": "0x24",
        "chainId": "0x14d"
      },
      "additionalContracts": [],
      "isFixedGasLimit": false
    },
    {
      "hash": "0x300423e1b7811a4c98b5789ca095a5a982d7bc0394b3999fcdba000a7aaae901",
      "transactionType": "CALL",
      "contractName": null,
      "contractAddress": "0x048255dfef2ebfa7307058ae475a3e2f5ee0df46",
      "function": "createIntent((uint8,bytes,address,address,uint256),uint256)",
      "arguments": [
        "(1, 0x000000000000000000000000558b8fe3b86724d9d9433bf8ec2b1a1b223f9d25000000000000000000000000000000000000000000000000000000000012d687, 0xD289D1387ae1033A703842D69501D5bEc5A6f04e, 0x4D4aDEc97e3e11693F65dEDC2D1e6Bec784eB2F1, 2000000)",
        "1768313610"
      ],
      "transaction": {
        "from": "0xd289d1387ae1033a703842d69501d5bec5a6f04e",
        "to": "0x048255dfef2ebfa7307058ae475a3e2f5ee0df46",
        "value": "0x0",
        "input": "0x549f75050000000000000000000000000000000000000000000000000000000000000040000000000000000000000000000000000000000000000000000000006966530a000000000000000000000000000000000000000000000000000000000000000100000000000000000000000000000000000000000000000000000000000000a0000000000000000000000000d289d1387ae1033a703842d69501d5bec5a6f04e0000000000000000000000004d4adec97e3e11693f65dedc2d1e6bec784eb2f100000000000000000000000000000000000000000000000000000000001e84800000000000000000000000000000000000000000000000000000000000000040000000000000000000000000558b8fe3b86724d9d9433bf8ec2b1a1b223f9d25000000000000000000000000000000000000000000000000000000000012d687",
        "nonce": "0x25",
        "chainId": "0x14d"
      },
      "additionalContracts": [],
      "isFixedGasLimit": false
    },
    {
      "hash": "0x1c5a6f087ddd01a80266dcc4087775bee248903bc54c495275af6efc654a725e",
      "transactionType": "CALL",
      "contractName": null,
      "contractAddress": "0x4d4adec97e3e11693f65dedc2d1e6bec784eb2f1",
      "function": "mint(address,uint256)",
      "arguments": [
        "0xD289D1387ae1033A703842D69501D5bEc5A6f04e",
        "1000000"
      ],
      "transaction": {
        "from": "0xd289d1387ae1033a703842d69501d5bec5a6f04e",
        "to": "0x4d4adec97e3e11693f65dedc2d1e6bec784eb2f1",
        "value": "0x0",
        "input": "0x40c10f19000000000000000000000000d289d1387ae1033a703842d69501d5bec5a6f04e00000000000000000000000000000000000000000000000000000000000f4240",
        "nonce": "0x26",
        "chainId": "0x14d"
      },
      "additionalContracts": [],
      "isFixedGasLimit": false
    },
    {
      "hash": "0x14ad21e0465b8f1bf65dbb49dc6d80fe8c9db2523dc493fcadf887416d373978",
      "transactionType": "CALL",
      "contractName": null,
      "contractAddress": "0x4d4adec97e3e11693f65dedc2d1e6bec784eb2f1",
      "function": "approve(address,uint256)",
      "arguments": [
        "0x048255dfEF2eBFA7307058Ae475a3e2F5ee0df46",
        "115792089237316195423570985008687907853269984665640564039457584007913129639935"
      ],
      "transaction": {
        "from": "0xd289d1387ae1033a703842d69501d5bec5a6f04e",
        "to": "0x4d4adec97e3e11693f65dedc2d1e6bec784eb2f1",
        "value": "0x0",
        "input": "0x095ea7b3000000000000000000000000048255dfef2ebfa7307058ae475a3e2f5ee0df46ffffffffffffffffffffffffffffffffffffffffffffffffffffffffffffffff",
        "nonce": "0x27",
        "chainId": "0x14d"
      },
      "additionalContracts": [],
      "isFixedGasLimit": false
    },
    {
      "hash": "0xef0bd2177a73707f1329a1c9cd51814e414b15c5f0bba04eff12298902da8785",
      "transactionType": "CALL",
      "contractName": null,
      "contractAddress": "0x048255dfef2ebfa7307058ae475a3e2f5ee0df46",
      "function": "claimIntent(bytes32)",
      "arguments": [
        "0x121c30ba75b76a9356c9bc0f0d21559e3193f4ceeeec5d7c5bb17b7b69f0ea4f"
      ],
      "transaction": {
        "from": "0xd289d1387ae1033a703842d69501d5bec5a6f04e",
        "to": "0x048255dfef2ebfa7307058ae475a3e2f5ee0df46",
        "value": "0x0",
        "input": "0x40e624cb121c30ba75b76a9356c9bc0f0d21559e3193f4ceeeec5d7c5bb17b7b69f0ea4f",
        "nonce": "0x28",
        "chainId": "0x14d"
      },
      "additionalContracts": [],
      "isFixedGasLimit": false
    },
    {
      "hash": "0x00b79c3452bdb35d9094c2a84d9713d43984b55d56f94d3c5e00452ed02ce923",
      "transactionType": "CALL",
      "contractName": null,
      "contractAddress": "0x8c16d2f19a034b7281254f5656c2d1461c6ceb9a",
      "function": "setTx((bytes32,uint256,uint32,bytes21,bytes21,bytes))",
      "arguments": [
        "(0x0000000000000000000000000000000000000000000000000000000000000000, 0, 0, 0x000000000000000000000000000000000000000000, 0x41f61c257cc0c129959a9704a59193e15c91853749, 0xa9059cbb000000000000000000000000558b8fe3b86724d9d9433bf8ec2b1a1b223f9d25000000000000000000000000000000000000000000000000000000000012d687)"
      ],
      "transaction": {
        "from": "0xd289d1387ae1033a703842d69501d5bec5a6f04e",
        "to": "0x8c16d2f19a034b7281254f5656c2d1461c6ceb9a",
        "value": "0x0",
        "input": "0x3aec07de0000000000000000000000000000000000000000000000000000000000000020000000000000000000000000000000000000000000000000000000000000000000000000000000000000000000000000000000000000000000000000000000000000000000000000000000000000000000000000000000000000000000000000000000000000000000000000000000000000000000000000000000000000000041f61c257cc0c129959a9704a59193e15c91853749000000000000000000000000000000000000000000000000000000000000000000000000000000000000c00000000000000000000000000000000000000000000000000000000000000044a9059cbb000000000000000000000000558b8fe3b86724d9d9433bf8ec2b1a1b223f9d25000000000000000000000000000000000000000000000000000000000012d68700000000000000000000000000000000000000000000000000000000",
        "nonce": "0x29",
        "chainId": "0x14d"
      },
      "additionalContracts": [],
      "isFixedGasLimit": false
    },
    {
      "hash": "0x43c6f30e98cd3588f7d6be8d5ceb1c4bd0533db0ff173e40a25861fb477437ba",
      "transactionType": "CALL",
      "contractName": null,
      "contractAddress": "0x048255dfef2ebfa7307058ae475a3e2f5ee0df46",
      "function": "proveIntentFill(bytes32,bytes[20],bytes,bytes32[],uint256)",
      "arguments": [
        "0x121c30ba75b76a9356c9bc0f0d21559e3193f4ceeeec5d7c5bb17b7b69f0ea4f",
        "[0x, 0x, 0x, 0x, 0x, 0x, 0x, 0x, 0x, 0x, 0x, 0x, 0x, 0x, 0x, 0x, 0x, 0x, 0x, 0x]",
        "0x",
        "[]",
        "0"
      ],
      "transaction": {
        "from": "0xd289d1387ae1033a703842d69501d5bec5a6f04e",
        "to": "0x048255dfef2ebfa7307058ae475a3e2f5ee0df46",
        "value": "0x0",
        "input": "0x5c23cc02121c30ba75b76a9356c9bc0f0d21559e3193f4ceeeec5d7c5bb17b7b69f0ea4f00000000000000000000000000000000000000000000000000000000000000a000000000000000000000000000000000000000000000000000000000000005a000000000000000000000000000000000000000000000000000000000000005c00000000000000000000000000000000000000000000000000000000000000000000000000000000000000000000000000000000000000000000000000000028000000000000000000000000000000000000000000000000000000000000002a000000000000000000000000000000000000000000000000000000000000002c000000000000000000000000000000000000000000000000000000000000002e00000000000000000000000000000000000000000000000000000000000000300000000000000000000000000000000000000000000000000000000000000032000000000000000000000000000000000000000000000000000000000000003400000000000000000000000000000000000000000000000000000000000000360000000000000000000000000000000000000000000000000000000000000038000000000000000000000000000000000000000000000000000000000000003a000000000000000000000000000000000000000000000000000000000000003c000000000000000000000000000000000000000000000000000000000000003e00000000000000000000000000000000000000000000000000000000000000400000000000000000000000000000000000000000000000000000000000000042000000000000000000000000000000000000000000000000000000000000004400000000000000000000000000000000000000000000000000000000000000460000000000000000000000000000000000000000000000000000000000000048000000000000000000000000000000000000000000000000000000000000004a000000000000000000000000000000000000000000000000000000000000004c000000000000000000000000000000000000000000000000000000000000004e00000000000000000000000000000000000000000000000000000000000000000000000000000000000000000000000000000000000000000000000000000000000000000000000000000000000000000000000000000000000000000000000000000000000000000000000000000000000000000000000000000000000000000000000000000000000000000000000000000000000000000000000000000000000000000000000000000000000000000000000000000000000000000000000000000000000000000000000000000000000000000000000000000000000000000000000000000000000000000000000000000000000000000000000000000000000000000000000000000000000000000000000000000000000000000000000000000000000000000000000000000000000000000000000000000000000000000000000000000000000000000000000000000000000000000000000000000000000000000000000000000000000000000000000000000000000000000000000000000000000000000000000000000000000000000000000000000000000000000000000000000000000000000000000000000000000000000000000000000000000000000000000000000000000000000000000000000000000000000000000000000000000000000000000000000000000000000000000000000000000000000000000000000000000000000000000000000000000000000000000000000000000000000000000000000000000000000000000000000000000000000000000000000000000000000000000000000000000000000000000000000000000000000000000000000000000000000000000000000000000000000000000000000000000000000000000000000000000000000000000000000000000000000000000000000000000000000000000000000000000000000000000000000000000000000",
        "nonce": "0x2a",
        "chainId": "0x14d"
      },
      "additionalContracts": [],
      "isFixedGasLimit": false
    },
    {
      "hash": "0xd0320ea4101225e3cdf0058c477936642fac4dcaca976e91576a4ef8209222a1",
      "transactionType": "CALL",
      "contractName": null,
      "contractAddress": "0xf86c23c1e883ee3b820fb9be75ff91c9a49eae75",
      "function": "mint(address,uint256)",
      "arguments": [
        "0xD289D1387ae1033A703842D69501D5bEc5A6f04e",
        "1000000"
      ],
      "transaction": {
        "from": "0xd289d1387ae1033a703842d69501d5bec5a6f04e",
        "to": "0xf86c23c1e883ee3b820fb9be75ff91c9a49eae75",
        "value": "0x0",
        "input": "0x40c10f19000000000000000000000000d289d1387ae1033a703842d69501d5bec5a6f04e00000000000000000000000000000000000000000000000000000000000f4240",
        "nonce": "0x2b",
        "chainId": "0x14d"
      },
      "additionalContracts": [],
      "isFixedGasLimit": false
    },
    {
      "hash": "0x9ba2356eba8d92e29a09975d422f7a521e444f1e961e2ba70fe2dbc28213ae9b",
      "transactionType": "CALL",
      "contractName": null,
      "contractAddress": "0xf86c23c1e883ee3b820fb9be75ff91c9a49eae75",
      "function": "approve(address,uint256)",
      "arguments": [
        "0x048255dfEF2eBFA7307058Ae475a3e2F5ee0df46",
        "115792089237316195423570985008687907853269984665640564039457584007913129639935"
      ],
      "transaction": {
        "from": "0xd289d1387ae1033a703842d69501d5bec5a6f04e",
        "to": "0xf86c23c1e883ee3b820fb9be75ff91c9a49eae75",
        "value": "0x0",
        "input": "0x095ea7b3000000000000000000000000048255dfef2ebfa7307058ae475a3e2f5ee0df46ffffffffffffffffffffffffffffffffffffffffffffffffffffffffffffffff",
        "nonce": "0x2c",
        "chainId": "0x14d"
      },
      "additionalContracts": [],
      "isFixedGasLimit": false
    },
    {
      "hash": "0xdf9febf9be0dae05381e4625c6ea28a6c906924069f532bcefc5c62879f43b6e",
      "transactionType": "CALL",
      "contractName": null,
      "contractAddress": "0x048255dfef2ebfa7307058ae475a3e2f5ee0df46",
      "function": "createIntent((uint8,bytes,address,address,uint256),uint256)",
      "arguments": [
        "(0, 0x00000000000000000000000000000000000000000000000000000000000000200000000000000000000000005457e258a09ebfb4a2501a9e3d70d37f54f923f300000000000000000000000000000000000000000000000000000000000000400000000000000000000000000000000000000000000000000000000000000002beef000000000000000000000000000000000000000000000000000000000000, 0xD289D1387ae1033A703842D69501D5bEc5A6f04e, 0xF86C23C1E883ee3B820FB9BE75FF91C9A49EaE75, 1000000)",
        "1"
      ],
      "transaction": {
        "from": "0xd289d1387ae1033a703842d69501d5bec5a6f04e",
        "to": "0x048255dfef2ebfa7307058ae475a3e2f5ee0df46",
        "value": "0x0",
        "input": "0x549f750500000000000000000000000000000000000000000000000000000000000000400000000000000000000000000000000000000000000000000000000000000001000000000000000000000000000000000000000000000000000000000000000000000000000000000000000000000000000000000000000000000000000000a0000000000000000000000000d289d1387ae1033a703842d69501d5bec5a6f04e000000000000000000000000f86c23c1e883ee3b820fb9be75ff91c9a49eae7500000000000000000000000000000000000000000000000000000000000f424000000000000000000000000000000000000000000000000000000000000000a000000000000000000000000000000000000000000000000000000000000000200000000000000000000000005457e258a09ebfb4a2501a9e3d70d37f54f923f300000000000000000000000000000000000000000000000000000000000000400000000000000000000000000000000000000000000000000000000000000002beef000000000000000000000000000000000000000000000000000000000000",
        "nonce": "0x2d",
        "chainId": "0x14d"
      },
      "additionalContracts": [],
      "isFixedGasLimit": false
    },
    {
      "hash": "0x25955bd7ab1a92c65c59326657b4f91d21bafc700fb5375a9a12363b37d554fb",
      "transactionType": "CALL",
      "contractName": null,
      "contractAddress": "0x048255dfef2ebfa7307058ae475a3e2f5ee0df46",
      "function": "closeIntent(bytes32)",
      "arguments": [
        "0x15b9517f84e81219f907e347d0894b01e0d21e5729f301eef26bc1aa086b15e8"
      ],
      "transaction": {
        "from": "0xd289d1387ae1033a703842d69501d5bec5a6f04e",
        "to": "0x048255dfef2ebfa7307058ae475a3e2f5ee0df46",
        "value": "0x0",
        "input": "0x51ead90a15b9517f84e81219f907e347d0894b01e0d21e5729f301eef26bc1aa086b15e8",
        "nonce": "0x2e",
        "chainId": "0x14d"
      },
      "additionalContracts": [],
      "isFixedGasLimit": false
    },
    {
      "hash": "0xb6a8f3b9deae1eb7e331a012bc5a53500543da1ae7702867e71b94963ba23d13",
      "transactionType": "CALL",
      "contractName": null,
      "contractAddress": "0x4d4adec97e3e11693f65dedc2d1e6bec784eb2f1",
      "function": "mint(address,uint256)",
      "arguments": [
        "0x861529c93D74a2d9b8d7d0009b7c183dceb54e3E",
        "10000333"
      ],
      "transaction": {
        "from": "0xd289d1387ae1033a703842d69501d5bec5a6f04e",
        "to": "0x4d4adec97e3e11693f65dedc2d1e6bec784eb2f1",
        "value": "0x0",
        "input": "0x40c10f19000000000000000000000000861529c93d74a2d9b8d7d0009b7c183dceb54e3e00000000000000000000000000000000000000000000000000000000009897cd",
        "nonce": "0x2f",
        "chainId": "0x14d"
      },
      "additionalContracts": [],
      "isFixedGasLimit": false
    },
    {
      "hash": "0x2f1aa65ff22cdb4d1dee8226ee8b48be78c4de85700e0880923abacae688c712",
      "transactionType": "CALL",
      "contractName": null,
      "contractAddress": "0x8828fd7431d5bb1962d7e067c103b2324fa6bbec",
      "function": "pullFromReceiver((uint256,address,bool,bytes32,bytes32,uint256,address,address,(address,uint256,bytes)[],bytes))",
      "arguments": [
        "(222, 0x048255dfEF2eBFA7307058Ae475a3e2F5ee0df46, true, 0x805137159b1f1225efc7ae36f6b216b76c0e9bed085c4220b2f702fde8defd04, 0x38cb7bc9535f8b89744a14dd2acfe7dcc993eb5f668dfbcb95bdf21a839e2ec0, 10000333, 0x4D4aDEc97e3e11693F65dEDC2D1e6Bec784eB2F1, 0x4D4aDEc97e3e11693F65dEDC2D1e6Bec784eB2F1, [], 0x)"
      ],
      "transaction": {
        "from": "0xd289d1387ae1033a703842d69501d5bec5a6f04e",
        "to": "0x8828fd7431d5bb1962d7e067c103b2324fa6bbec",
        "value": "0x0",
        "input": "0x1ad1087b000000000000000000000000000000000000000000000000000000000000002000000000000000000000000000000000000000000000000000000000000000de000000000000000000000000048255dfef2ebfa7307058ae475a3e2f5ee0df460000000000000000000000000000000000000000000000000000000000000001805137159b1f1225efc7ae36f6b216b76c0e9bed085c4220b2f702fde8defd0438cb7bc9535f8b89744a14dd2acfe7dcc993eb5f668dfbcb95bdf21a839e2ec000000000000000000000000000000000000000000000000000000000009897cd0000000000000000000000004d4adec97e3e11693f65dedc2d1e6bec784eb2f10000000000000000000000004d4adec97e3e11693f65dedc2d1e6bec784eb2f10000000000000000000000000000000000000000000000000000000000000140000000000000000000000000000000000000000000000000000000000000016000000000000000000000000000000000000000000000000000000000000000000000000000000000000000000000000000000000000000000000000000000000",
        "nonce": "0x30",
        "chainId": "0x14d"
      },
      "additionalContracts": [],
      "isFixedGasLimit": false
    }
  ],
  "receipts": [
    {
      "status": "0x1",
      "cumulativeGasUsed": "0x52451",
      "logs": [],
      "logsBloom": "0x00000000000000000000000000000000000000000000000000000000000000000000000000000000000000000000000000000000000000000000000000000000000000000000000000000000000000000000000000000000000000000000000000000000000000000000000000000000000000000000000000000000000000000000000000000000000000000000000000000000000000000000000000000000000000000000000000000000000000000000000000000000000000000000000000000000000000000000000000000000000000000000000000000000000000000000000000000000000000000000000000000000000000000000000000000000",
      "type": "0x0",
      "transactionHash": "0x0bd00aafbb67c67bf0d7afc58065ef5a70ff3bcaa705d25ae06c399210b95d62",
      "transactionIndex": "0x0",
      "blockHash": "0x39b85e55f0f3a127fc4c62a017584db6df5bd7472805c0f336fb0f81d20f5df9",
      "blockNumber": "0xd",
      "gasUsed": "0x52451",
      "effectiveGasPrice": "0x3b9aca00",
      "blobGasPrice": "0x1",
      "from": "0xd289d1387ae1033a703842d69501d5bec5a6f04e",
      "to": null,
      "contractAddress": "0x0be19c78706c441de4178a2266a650e47160eda7"
    },
    {
      "status": "0x1",
      "cumulativeGasUsed": "0xc546",
      "logs": [
        {
          "address": "0x8828fd7431d5bb1962d7e067c103b2324fa6bbec",
          "topics": [
            "0x14c028d3d668eb3454bce44d123ceeeb9fb4e74bee073c41f4001e63f0613094",
            "0x0000000000000000000000000be19c78706c441de4178a2266a650e47160eda7",
            "0x0000000000000000000000000be19c78706c441de4178a2266a650e47160eda7"
          ],
          "data": "0x",
          "blockHash": "0xbba643317a8e53d44710781d037ff622f06b8e0c4679b47cb83a1c1107a4ad02",
          "blockNumber": "0xe",
          "blockTimestamp": "0x696652e8",
          "transactionHash": "0x9aa65cbff63a528b3f793efd281b1da51e6c122799e0dcf89cf4c57b275c98d6",
          "transactionIndex": "0x0",
          "logIndex": "0x0",
          "removed": false
        },
        {
          "address": "0x8828fd7431d5bb1962d7e067c103b2324fa6bbec",
          "topics": [
            "0x78160f0b1b2b32b52a0076d8f0f70888687ba702a4d993d55ac8d9327d57a127",
            "0x0000000000000000000000000000000000000000000000000000000000000004",
            "0x8ddac13d3a4fa3cff4f06d16f77e8861d68c0da422d0817ba6d3680485612190",
            "0x7452c47953a41a752fac969d4e35297427f299870739b936407d8382e20fb28c"
          ],
          "data": "0x14c028d3d668eb3454bce44d123ceeeb9fb4e74bee073c41f4001e63f0613094000000000000000000000000000000000000000000000000000000000000004000000000000000000000000000000000000000000000000000000000000000400000000000000000000000000be19c78706c441de4178a2266a650e47160eda70000000000000000000000000be19c78706c441de4178a2266a650e47160eda7",
          "blockHash": "0xbba643317a8e53d44710781d037ff622f06b8e0c4679b47cb83a1c1107a4ad02",
          "blockNumber": "0xe",
          "blockTimestamp": "0x696652e8",
          "transactionHash": "0x9aa65cbff63a528b3f793efd281b1da51e6c122799e0dcf89cf4c57b275c98d6",
          "transactionIndex": "0x0",
          "logIndex": "0x1",
          "removed": false
        }
      ],
      "logsBloom": "0x00000000000000000000000000001000000000000000000000000000000000008000000000000000000000000000000000000000000000000000004000200000000000800200000000000000000000000000000000000000000000000000000008000020000800000000000400000008000000000200000000000000000000000000000000000000000000000000000000000000000000000000000000000000000000000000000000000000000000000000000000000000002000000000000000000000000001040000000000000090000000008000000000000000000000000400000000000000000000000000000000000000000000040000000000004000",
      "type": "0x0",
      "transactionHash": "0x9aa65cbff63a528b3f793efd281b1da51e6c122799e0dcf89cf4c57b275c98d6",
      "transactionIndex": "0x0",
      "blockHash": "0xbba643317a8e53d44710781d037ff622f06b8e0c4679b47cb83a1c1107a4ad02",
      "blockNumber": "0xe",
      "gasUsed": "0xc546",
      "effectiveGasPrice": "0x3b9aca00",
      "blobGasPrice": "0x1",
      "from": "0xd289d1387ae1033a703842d69501d5bec5a6f04e",
      "to": "0x8828fd7431d5bb1962d7e067c103b2324fa6bbec",
      "contractAddress": null
    },
    {
      "status": "0x1",
      "cumulativeGasUsed": "0x1f4cb",
      "logs": [],
      "logsBloom": "0x00000000000000000000000000000000000000000000000000000000000000000000000000000000000000000000000000000000000000000000000000000000000000000000000000000000000000000000000000000000000000000000000000000000000000000000000000000000000000000000000000000000000000000000000000000000000000000000000000000000000000000000000000000000000000000000000000000000000000000000000000000000000000000000000000000000000000000000000000000000000000000000000000000000000000000000000000000000000000000000000000000000000000000000000000000000",
      "type": "0x0",
      "transactionHash": "0xb9dcb1338c908c0674de52a2aeaea5fbe365295091a395696d56375f7a640d56",
      "transactionIndex": "0x0",
      "blockHash": "0xf747708cbeb075982721fddc2cbf1215cd2130b685bc2f286179fd68c8dbb781",
      "blockNumber": "0xf",
      "gasUsed": "0x1f4cb",
      "effectiveGasPrice": "0x3b9aca00",
      "blobGasPrice": "0x1",
      "from": "0xd289d1387ae1033a703842d69501d5bec5a6f04e",
      "to": null,
      "contractAddress": "0x481e836be187303c64f269bc7fe2c52f7f7c6eef"
    },
    {
      "status": "0x1",
      "cumulativeGasUsed": "0xaa2b",
      "logs": [],
      "logsBloom": "0x00000000000000000000000000000000000000000000000000000000000000000000000000000000000000000000000000000000000000000000000000000000000000000000000000000000000000000000000000000000000000000000000000000000000000000000000000000000000000000000000000000000000000000000000000000000000000000000000000000000000000000000000000000000000000000000000000000000000000000000000000000000000000000000000000000000000000000000000000000000000000000000000000000000000000000000000000000000000000000000000000000000000000000000000000000000",
      "type": "0x0",
      "transactionHash": "0xa2d30251956de9976b77663cf7ef3c88b3579fad96010a8c72180300080f5de7",
      "transactionIndex": "0x0",
      "blockHash": "0xf6e1eff6d5258d2c518e450ef595b454ea908a537aace74661265a09ef70d92c",
      "blockNumber": "0x10",
      "gasUsed": "0xaa2b",
      "effectiveGasPrice": "0x3b9aca00",
      "blobGasPrice": "0x1",
      "from": "0xd289d1387ae1033a703842d69501d5bec5a6f04e",
      "to": "0x481e836be187303c64f269bc7fe2c52f7f7c6eef",
      "contractAddress": null
    },
    {
      "status": "0x1",
      "cumulativeGasUsed": "0xb23d",
      "logs": [
        {
          "address": "0x8828fd7431d5bb1962d7e067c103b2324fa6bbec",
          "topics": [
            "0x2e3d7d02ba3c4bd8b1f8995cd3a23ef0193922ebc4ee23249ead4d0ca2e34c68",
            "0x0000000000000000000000004d4adec97e3e11693f65dedc2d1e6bec784eb2f1",
            "0x000000000000000000000000481e836be187303c64f269bc7fe2c52f7f7c6eef"
          ],
          "data": "0x",
          "blockHash": "0xf5245fde2f820848660fe4902e31b8db8f7abfc7936f49562dd7e019804d115d",
          "blockNumber": "0x11",
          "blockTimestamp": "0x696652e8",
          "transactionHash": "0xf724177c1161a7e15a716e0acf18383f08aa68a5e83c51a24ad7b8974fec3761",
          "transactionIndex": "0x0",
          "logIndex": "0x0",
          "removed": false
        },
        {
          "address": "0x8828fd7431d5bb1962d7e067c103b2324fa6bbec",
          "topics": [
            "0x78160f0b1b2b32b52a0076d8f0f70888687ba702a4d993d55ac8d9327d57a127",
            "0x0000000000000000000000000000000000000000000000000000000000000005",
            "0x7452c47953a41a752fac969d4e35297427f299870739b936407d8382e20fb28c",
            "0xe0b248bad585072e032e91a48da03365e95cde9fcae35a805a12d8f4480bf964"
          ],
          "data": "0x2e3d7d02ba3c4bd8b1f8995cd3a23ef0193922ebc4ee23249ead4d0ca2e34c68000000000000000000000000000000000000000000000000000000000000004000000000000000000000000000000000000000000000000000000000000000400000000000000000000000004d4adec97e3e11693f65dedc2d1e6bec784eb2f1000000000000000000000000481e836be187303c64f269bc7fe2c52f7f7c6eef",
          "blockHash": "0xf5245fde2f820848660fe4902e31b8db8f7abfc7936f49562dd7e019804d115d",
          "blockNumber": "0x11",
          "blockTimestamp": "0x696652e8",
          "transactionHash": "0xf724177c1161a7e15a716e0acf18383f08aa68a5e83c51a24ad7b8974fec3761",
          "transactionIndex": "0x0",
          "logIndex": "0x1",
          "removed": false
        }
      ],
      "logsBloom": "0x00000000000000010000000000201000000000000000000000000000000000000000000000000000000000000000000000000000000000000400000000200000000010000200000000000000000000000008000020000000000000000000000000000020000800000000000000000008000000000000000080000000000000000000000000000080000000000000001000000800000000000000000000000000000000000000000000000000000000000000000000000000000000000000000000000000000809040000000000000000000000000000000000000000000000000000000000000000000000000080000000000000000400040000000000004000",
      "type": "0x0",
      "transactionHash": "0xf724177c1161a7e15a716e0acf18383f08aa68a5e83c51a24ad7b8974fec3761",
      "transactionIndex": "0x0",
      "blockHash": "0xf5245fde2f820848660fe4902e31b8db8f7abfc7936f49562dd7e019804d115d",
      "blockNumber": "0x11",
      "gasUsed": "0xb23d",
      "effectiveGasPrice": "0x3b9aca00",
      "blobGasPrice": "0x1",
      "from": "0xd289d1387ae1033a703842d69501d5bec5a6f04e",
      "to": "0x8828fd7431d5bb1962d7e067c103b2324fa6bbec",
      "contractAddress": null
    },
    {
      "status": "0x1",
      "cumulativeGasUsed": "0x147a0",
      "logs": [
        {
          "address": "0x048255dfef2ebfa7307058ae475a3e2f5ee0df46",
          "topics": [
            "0x9d4c3779a823aa84b20dd2e8551e6ed95addbc562f3bc49b1e688ab785b05d9d"
          ],
          "data": "0x0000000000000000000000000000000000000000000000000000000000002710000000000000000000000000000000000000000000000000000000000000007b",
          "blockHash": "0x8e6b41bd8b3ae19e694bdd70ccffffb33d6f7c964d94ab35163db96adf32701d",
          "blockNumber": "0x12",
          "blockTimestamp": "0x696652e8",
          "transactionHash": "0xe1637935c59f388458161687b1ef7ccacd756684d52950d43fd1cf6735a96f1b",
          "transactionIndex": "0x0",
          "logIndex": "0x0",
          "removed": false
        },
        {
          "address": "0x048255dfef2ebfa7307058ae475a3e2f5ee0df46",
          "topics": [
            "0x78160f0b1b2b32b52a0076d8f0f70888687ba702a4d993d55ac8d9327d57a127",
            "0x0000000000000000000000000000000000000000000000000000000000000003",
            "0xb9c3069c69fb7b73ec0d0b781c58dbd3d1a122788b61132a6a5bb9bd1ec113f8",
            "0x3bdce975a12b732b6e55032fad3feb57085aec2a17314b4998a4a5fee9ab5a43"
          ],
          "data": "0x9d4c3779a823aa84b20dd2e8551e6ed95addbc562f3bc49b1e688ab785b05d9d000000000000000000000000000000000000000000000000000000000000004000000000000000000000000000000000000000000000000000000000000000400000000000000000000000000000000000000000000000000000000000002710000000000000000000000000000000000000000000000000000000000000007b",
          "blockHash": "0x8e6b41bd8b3ae19e694bdd70ccffffb33d6f7c964d94ab35163db96adf32701d",
          "blockNumber": "0x12",
          "blockTimestamp": "0x696652e8",
          "transactionHash": "0xe1637935c59f388458161687b1ef7ccacd756684d52950d43fd1cf6735a96f1b",
          "transactionIndex": "0x0",
          "logIndex": "0x1",
          "removed": false
        }
      ],
      "logsBloom": "0x00000000000000800000000000000000000000000000000000000000000000000000000020000000000000000000000000000002020000000000000000200000000000000000000000000000000000000000000000000000000000000000000000000020000800004000000000000000000000000000080000000000000000000000000000000000000000000000000000000000000000000000000000000000000000000000000000080000000000000000010200800000000000000000400000000000000000000000000000000000000000000200000000000000000000020000000000000000000000000000000000400000000000000000000000004000",
      "type": "0x0",
      "transactionHash": "0xe1637935c59f388458161687b1ef7ccacd756684d52950d43fd1cf6735a96f1b",
      "transactionIndex": "0x0",
      "blockHash": "0x8e6b41bd8b3ae19e694bdd70ccffffb33d6f7c964d94ab35163db96adf32701d",
      "blockNumber": "0x12",
      "gasUsed": "0x147a0",
      "effectiveGasPrice": "0x3b9aca00",
      "blobGasPrice": "0x1",
      "from": "0xd289d1387ae1033a703842d69501d5bec5a6f04e",
      "to": "0x048255dfef2ebfa7307058ae475a3e2f5ee0df46",
      "contractAddress": null
    },
    {
      "status": "0x1",
      "cumulativeGasUsed": "0x1f4cb",
      "logs": [],
      "logsBloom": "0x00000000000000000000000000000000000000000000000000000000000000000000000000000000000000000000000000000000000000000000000000000000000000000000000000000000000000000000000000000000000000000000000000000000000000000000000000000000000000000000000000000000000000000000000000000000000000000000000000000000000000000000000000000000000000000000000000000000000000000000000000000000000000000000000000000000000000000000000000000000000000000000000000000000000000000000000000000000000000000000000000000000000000000000000000000000",
      "type": "0x0",
      "transactionHash": "0x209b5ee5d897e109dfc958ee4bacd5b2991aaca81948db2cf3090c58b37f2dc2",
      "transactionIndex": "0x0",
      "blockHash": "0x3247944578ecfdaadbee8ab22c3cfb34ff971cebdde87c0c9bd00a51d66711a5",
      "blockNumber": "0x13",
      "gasUsed": "0x1f4cb",
      "effectiveGasPrice": "0x3b9aca00",
      "blobGasPrice": "0x1",
      "from": "0xd289d1387ae1033a703842d69501d5bec5a6f04e",
      "to": null,
      "contractAddress": "0x6b0f32ae157cf4f7d9b402c4e243e9088207dd87"
    },
    {
      "status": "0x1",
      "cumulativeGasUsed": "0xaa2b",
      "logs": [],
      "logsBloom": "0x00000000000000000000000000000000000000000000000000000000000000000000000000000000000000000000000000000000000000000000000000000000000000000000000000000000000000000000000000000000000000000000000000000000000000000000000000000000000000000000000000000000000000000000000000000000000000000000000000000000000000000000000000000000000000000000000000000000000000000000000000000000000000000000000000000000000000000000000000000000000000000000000000000000000000000000000000000000000000000000000000000000000000000000000000000000",
      "type": "0x0",
      "transactionHash": "0x401604e058bfa88a55dced171ce64a920f2201f77fde49f210f234c9c1e1725c",
      "transactionIndex": "0x0",
      "blockHash": "0xb4bc8ffc15a7ea55a0cc42170905011daf6a79180d0e58cd236c6eb0bca8ffec",
      "blockNumber": "0x14",
      "gasUsed": "0xaa2b",
      "effectiveGasPrice": "0x3b9aca00",
      "blobGasPrice": "0x1",
      "from": "0xd289d1387ae1033a703842d69501d5bec5a6f04e",
      "to": "0x6b0f32ae157cf4f7d9b402c4e243e9088207dd87",
      "contractAddress": null
    },
    {
      "status": "0x1",
      "cumulativeGasUsed": "0xb23d",
      "logs": [
        {
          "address": "0x8828fd7431d5bb1962d7e067c103b2324fa6bbec",
          "topics": [
            "0x2e3d7d02ba3c4bd8b1f8995cd3a23ef0193922ebc4ee23249ead4d0ca2e34c68",
            "0x0000000000000000000000004d4adec97e3e11693f65dedc2d1e6bec784eb2f1",
            "0x0000000000000000000000006b0f32ae157cf4f7d9b402c4e243e9088207dd87"
          ],
          "data": "0x",
          "blockHash": "0x3e1a736237a35239d20f969c004b0d3c3c852b69d424272df14c1a34a5aa8e68",
          "blockNumber": "0x15",
          "blockTimestamp": "0x696652e8",
          "transactionHash": "0x2fde58b6f721adf32041ecee797eba3d651b5f8e568b73c8d55e755322ae8319",
          "transactionIndex": "0x0",
          "logIndex": "0x0",
          "removed": false
        },
        {
          "address": "0x8828fd7431d5bb1962d7e067c103b2324fa6bbec",
          "topics": [
            "0x78160f0b1b2b32b52a0076d8f0f70888687ba702a4d993d55ac8d9327d57a127",
            "0x0000000000000000000000000000000000000000000000000000000000000006",
            "0xe0b248bad585072e032e91a48da03365e95cde9fcae35a805a12d8f4480bf964",
            "0x17a400de8f9f2fccad648fe1ac94fc09db9a427559a61eff7933e3ae91dac258"
          ],
          "data": "0x2e3d7d02ba3c4bd8b1f8995cd3a23ef0193922ebc4ee23249ead4d0ca2e34c68000000000000000000000000000000000000000000000000000000000000004000000000000000000000000000000000000000000000000000000000000000400000000000000000000000004d4adec97e3e11693f65dedc2d1e6bec784eb2f10000000000000000000000006b0f32ae157cf4f7d9b402c4e243e9088207dd87",
          "blockHash": "0x3e1a736237a35239d20f969c004b0d3c3c852b69d424272df14c1a34a5aa8e68",
          "blockNumber": "0x15",
          "blockTimestamp": "0x696652e8",
          "transactionHash": "0x2fde58b6f721adf32041ecee797eba3d651b5f8e568b73c8d55e755322ae8319",
          "transactionIndex": "0x0",
          "logIndex": "0x1",
          "removed": false
        }
      ],
      "logsBloom": "0x00000000000000010000000000200000000000000000000000000000000000000000000000000000000000000000000000000000000400000000000000200000000000000200000000000000000004000000200000000000000000400000000000000020000800000000000000000008100000000000000080000000000000000000000400000080000000000000000000000000000000000000000000000000000001000000000000000000000000000000000000000000000000080080000000000000000808040000000000000000000000000000000000000000000000000000000000000000000000000080000000000000000400000000000000004000",
      "type": "0x0",
      "transactionHash": "0x2fde58b6f721adf32041ecee797eba3d651b5f8e568b73c8d55e755322ae8319",
      "transactionIndex": "0x0",
      "blockHash": "0x3e1a736237a35239d20f969c004b0d3c3c852b69d424272df14c1a34a5aa8e68",
      "blockNumber": "0x15",
      "gasUsed": "0xb23d",
      "effectiveGasPrice": "0x3b9aca00",
      "blobGasPrice": "0x1",
      "from": "0xd289d1387ae1033a703842d69501d5bec5a6f04e",
      "to": "0x8828fd7431d5bb1962d7e067c103b2324fa6bbec",
      "contractAddress": null
    },
    {
      "status": "0x1",
      "cumulativeGasUsed": "0x50fb6",
      "logs": [],
      "logsBloom": "0x00000000000000000000000000000000000000000000000000000000000000000000000000000000000000000000000000000000000000000000000000000000000000000000000000000000000000000000000000000000000000000000000000000000000000000000000000000000000000000000000000000000000000000000000000000000000000000000000000000000000000000000000000000000000000000000000000000000000000000000000000000000000000000000000000000000000000000000000000000000000000000000000000000000000000000000000000000000000000000000000000000000000000000000000000000000",
      "type": "0x0",
      "transactionHash": "0x049742a1cabc77723bf21a7a074bf850c642f851372bc230fe2f10ed90bed8d4",
      "transactionIndex": "0x0",
      "blockHash": "0xc84b1762b764078650a9bab37122cb9a496e33b2a9e647c79e05ddaccfe73c9d",
      "blockNumber": "0x16",
      "gasUsed": "0x50fb6",
      "effectiveGasPrice": "0x3b9aca00",
      "blobGasPrice": "0x1",
      "from": "0xd289d1387ae1033a703842d69501d5bec5a6f04e",
      "to": null,
      "contractAddress": "0xc5ea444a0f556f5b227ec7447294d91086bb692c"
    },
    {
      "status": "0x1",
      "cumulativeGasUsed": "0xc546",
      "logs": [
        {
          "address": "0x8828fd7431d5bb1962d7e067c103b2324fa6bbec",
          "topics": [
            "0x14c028d3d668eb3454bce44d123ceeeb9fb4e74bee073c41f4001e63f0613094",
            "0x000000000000000000000000c5ea444a0f556f5b227ec7447294d91086bb692c",
            "0x000000000000000000000000c5ea444a0f556f5b227ec7447294d91086bb692c"
          ],
          "data": "0x",
          "blockHash": "0x6555a36c0b77fe6c86aab2bc949b6b81e467ab855d11f8534785e4ccf0400f1f",
          "blockNumber": "0x17",
          "blockTimestamp": "0x696652e8",
          "transactionHash": "0xd77f69c0220e9c917abac00f67b0be3357dfb3fa94fb7244724ebf00b6163ab5",
          "transactionIndex": "0x0",
          "logIndex": "0x0",
          "removed": false
        },
        {
          "address": "0x8828fd7431d5bb1962d7e067c103b2324fa6bbec",
          "topics": [
            "0x78160f0b1b2b32b52a0076d8f0f70888687ba702a4d993d55ac8d9327d57a127",
            "0x0000000000000000000000000000000000000000000000000000000000000007",
            "0x17a400de8f9f2fccad648fe1ac94fc09db9a427559a61eff7933e3ae91dac258",
            "0x245702698b2e1ede4e25ef72f27cb31b36289ac2a118961809b75fe3848a9843"
          ],
          "data": "0x14c028d3d668eb3454bce44d123ceeeb9fb4e74bee073c41f4001e63f061309400000000000000000000000000000000000000000000000000000000000000400000000000000000000000000000000000000000000000000000000000000040000000000000000000000000c5ea444a0f556f5b227ec7447294d91086bb692c000000000000000000000000c5ea444a0f556f5b227ec7447294d91086bb692c",
          "blockHash": "0x6555a36c0b77fe6c86aab2bc949b6b81e467ab855d11f8534785e4ccf0400f1f",
          "blockNumber": "0x17",
          "blockTimestamp": "0x696652e8",
          "transactionHash": "0xd77f69c0220e9c917abac00f67b0be3357dfb3fa94fb7244724ebf00b6163ab5",
          "transactionIndex": "0x0",
          "logIndex": "0x1",
          "removed": false
        }
      ],
      "logsBloom": "0x00000000000000000000000000000000000000000000000000000000000000000000000000000000000000000000000000001000000000000000000000200000000020000200000001000000000000000000200000000000000000500000000000000020000800000000000000000008100000000000000000000000000000000000000000000000000000000000000000000000000000000000000000000000000000000000000000000000000000000000000000000000000000000000000000000000000000041000000000000010000000000000000040000100000000000400000200000000000000000000000000000000000000000000000400004000",
      "type": "0x0",
      "transactionHash": "0xd77f69c0220e9c917abac00f67b0be3357dfb3fa94fb7244724ebf00b6163ab5",
      "transactionIndex": "0x0",
      "blockHash": "0x6555a36c0b77fe6c86aab2bc949b6b81e467ab855d11f8534785e4ccf0400f1f",
      "blockNumber": "0x17",
      "gasUsed": "0xc546",
      "effectiveGasPrice": "0x3b9aca00",
      "blobGasPrice": "0x1",
      "from": "0xd289d1387ae1033a703842d69501d5bec5a6f04e",
      "to": "0x8828fd7431d5bb1962d7e067c103b2324fa6bbec",
      "contractAddress": null
    },
    {
      "status": "0x1",
      "cumulativeGasUsed": "0xac6c",
      "logs": [],
      "logsBloom": "0x00000000000000000000000000000000000000000000000000000000000000000000000000000000000000000000000000000000000000000000000000000000000000000000000000000000000000000000000000000000000000000000000000000000000000000000000000000000000000000000000000000000000000000000000000000000000000000000000000000000000000000000000000000000000000000000000000000000000000000000000000000000000000000000000000000000000000000000000000000000000000000000000000000000000000000000000000000000000000000000000000000000000000000000000000000000",
      "type": "0x0",
      "transactionHash": "0x4df0fe94c202468901b9316d1bb846761fd4a00a6c75fe821afa7a0bf04aa896",
      "transactionIndex": "0x0",
      "blockHash": "0x83b068d77f8d55399ea934c624686263a0c62b66db3c192ff8b4199d72cb87e1",
      "blockNumber": "0x18",
      "gasUsed": "0xac6c",
      "effectiveGasPrice": "0x3b9aca00",
      "blobGasPrice": "0x1",
      "from": "0xd289d1387ae1033a703842d69501d5bec5a6f04e",
      "to": "0x4d4adec97e3e11693f65dedc2d1e6bec784eb2f1",
      "contractAddress": null
    },
    {
      "status": "0x1",
      "cumulativeGasUsed": "0x30390",
      "logs": [
        {
          "address": "0x8828fd7431d5bb1962d7e067c103b2324fa6bbec",
          "topics": [
            "0x7391f14355eff1e559e381f5bf49886a77da7c4fdd33c6fc2e0142269c561c59",
            "0x2eca69742163858d1db9adc288336919f87c2626936291b6f1311977c7800ed8",
            "0x8856e936a3cdfae958688c88129a96d47c3c0d2ae8313ffbaab6d66489e00174",
            "0x0000000000000000000000000000000000000000000000000000000000000001"
          ],
          "data": "0x0000000000000000000000000000000000000000000000000000000000000000000000000000000000000000000000000000000000000000000000000000014d000000000000000000000000d59d27b9172ad056cb5c008dc2bbefe702123a55000000000000000000000000000000000000000000000000000000000000000000000000000000000000000000000000000000000000000000000000000000000000000000000000000000004d4adec97e3e11693f65dedc2d1e6bec784eb2f10000000000000000000000004d4adec97e3e11693f65dedc2d1e6bec784eb2f1000000000000000000000000ed87227a182e5a8fc74b1d40d80db6208741c435000000000000000000000000ad37e25f58e986e1672e95d23b331a90554a72d5",
          "blockHash": "0x08d87e426d116bbf5495bda0d1252c0c577e864830313301bedbb6fda5dbd99d",
          "blockNumber": "0x19",
          "blockTimestamp": "0x696652e8",
          "transactionHash": "0x891413bda4f1988031044ccaaf836f37e6ec733847357bfe573d6d0e34ffb85f",
          "transactionIndex": "0x0",
          "logIndex": "0x0",
          "removed": false
        },
        {
          "address": "0x8828fd7431d5bb1962d7e067c103b2324fa6bbec",
          "topics": [
            "0x78160f0b1b2b32b52a0076d8f0f70888687ba702a4d993d55ac8d9327d57a127",
            "0x0000000000000000000000000000000000000000000000000000000000000008",
            "0x245702698b2e1ede4e25ef72f27cb31b36289ac2a118961809b75fe3848a9843",
            "0xa7aaac9b2bfd06c5ec8cf231f99a9fc77c20211f4a56363557752d144ab2a825"
          ],
          "data": "0x7391f14355eff1e559e381f5bf49886a77da7c4fdd33c6fc2e0142269c561c59000000000000000000000000000000000000000000000000000000000000004000000000000000000000000000000000000000000000000000000000000001802eca69742163858d1db9adc288336919f87c2626936291b6f1311977c7800ed88856e936a3cdfae958688c88129a96d47c3c0d2ae8313ffbaab6d66489e0017400000000000000000000000000000000000000000000000000000000000000010000000000000000000000000000000000000000000000000000000000000000000000000000000000000000000000000000000000000000000000000000014d000000000000000000000000d59d27b9172ad056cb5c008dc2bbefe702123a55000000000000000000000000000000000000000000000000000000000000000000000000000000000000000000000000000000000000000000000000000000000000000000000000000000004d4adec97e3e11693f65dedc2d1e6bec784eb2f10000000000000000000000004d4adec97e3e11693f65dedc2d1e6bec784eb2f1000000000000000000000000ed87227a182e5a8fc74b1d40d80db6208741c435000000000000000000000000ad37e25f58e986e1672e95d23b331a90554a72d5",
          "blockHash": "0x08d87e426d116bbf5495bda0d1252c0c577e864830313301bedbb6fda5dbd99d",
          "blockNumber": "0x19",
          "blockTimestamp": "0x696652e8",
          "transactionHash": "0x891413bda4f1988031044ccaaf836f37e6ec733847357bfe573d6d0e34ffb85f",
          "transactionIndex": "0x0",
          "logIndex": "0x1",
          "removed": false
        },
        {
          "address": "0x8828fd7431d5bb1962d7e067c103b2324fa6bbec",
          "topics": [
            "0x488f06a9ca9e19e1dd90c764cc79b765e8a3a089ef27d9a0e39dee21c7643188",
            "0x78a874d51ba6291372c95de59089ea611c00921ec5e2c816f77aba409c60230e",
            "0x000000000000000000000000ad37e25f58e986e1672e95d23b331a90554a72d5"
          ],
          "data": "0x000000000000000000000000e007a594267d5b9a4f5bf6fd054579eb82f5a057",
          "blockHash": "0x08d87e426d116bbf5495bda0d1252c0c577e864830313301bedbb6fda5dbd99d",
          "blockNumber": "0x19",
          "blockTimestamp": "0x696652e8",
          "transactionHash": "0x891413bda4f1988031044ccaaf836f37e6ec733847357bfe573d6d0e34ffb85f",
          "transactionIndex": "0x0",
          "logIndex": "0x2",
          "removed": false
        },
        {
          "address": "0x8828fd7431d5bb1962d7e067c103b2324fa6bbec",
          "topics": [
            "0x78160f0b1b2b32b52a0076d8f0f70888687ba702a4d993d55ac8d9327d57a127",
            "0x0000000000000000000000000000000000000000000000000000000000000009",
            "0xa7aaac9b2bfd06c5ec8cf231f99a9fc77c20211f4a56363557752d144ab2a825",
            "0x62a3c7c10196db67c683692dbd440da5af05e99c477a40913127f2ec08d4b6c9"
          ],
          "data": "0x488f06a9ca9e19e1dd90c764cc79b765e8a3a089ef27d9a0e39dee21c76431880000000000000000000000000000000000000000000000000000000000000040000000000000000000000000000000000000000000000000000000000000006078a874d51ba6291372c95de59089ea611c00921ec5e2c816f77aba409c60230e000000000000000000000000ad37e25f58e986e1672e95d23b331a90554a72d5000000000000000000000000e007a594267d5b9a4f5bf6fd054579eb82f5a057",
          "blockHash": "0x08d87e426d116bbf5495bda0d1252c0c577e864830313301bedbb6fda5dbd99d",
          "blockNumber": "0x19",
          "blockTimestamp": "0x696652e8",
          "transactionHash": "0x891413bda4f1988031044ccaaf836f37e6ec733847357bfe573d6d0e34ffb85f",
          "transactionIndex": "0x0",
          "logIndex": "0x3",
          "removed": false
        },
        {
          "address": "0x8828fd7431d5bb1962d7e067c103b2324fa6bbec",
          "topics": [
            "0x488f06a9ca9e19e1dd90c764cc79b765e8a3a089ef27d9a0e39dee21c7643188",
            "0x8856e936a3cdfae958688c88129a96d47c3c0d2ae8313ffbaab6d66489e00174",
            "0x000000000000000000000000ed87227a182e5a8fc74b1d40d80db6208741c435"
          ],
          "data": "0x000000000000000000000000e007a594267d5b9a4f5bf6fd054579eb82f5a057",
          "blockHash": "0x08d87e426d116bbf5495bda0d1252c0c577e864830313301bedbb6fda5dbd99d",
          "blockNumber": "0x19",
          "blockTimestamp": "0x696652e8",
          "transactionHash": "0x891413bda4f1988031044ccaaf836f37e6ec733847357bfe573d6d0e34ffb85f",
          "transactionIndex": "0x0",
          "logIndex": "0x4",
          "removed": false
        },
        {
          "address": "0x8828fd7431d5bb1962d7e067c103b2324fa6bbec",
          "topics": [
            "0x78160f0b1b2b32b52a0076d8f0f70888687ba702a4d993d55ac8d9327d57a127",
            "0x000000000000000000000000000000000000000000000000000000000000000a",
            "0x62a3c7c10196db67c683692dbd440da5af05e99c477a40913127f2ec08d4b6c9",
            "0x52a7ea5f5a9b6d53be60cc47a022ebc5eb6c9688674830ebc31d2da22110f549"
          ],
          "data": "0x488f06a9ca9e19e1dd90c764cc79b765e8a3a089ef27d9a0e39dee21c7643188000000000000000000000000000000000000000000000000000000000000004000000000000000000000000000000000000000000000000000000000000000608856e936a3cdfae958688c88129a96d47c3c0d2ae8313ffbaab6d66489e00174000000000000000000000000ed87227a182e5a8fc74b1d40d80db6208741c435000000000000000000000000e007a594267d5b9a4f5bf6fd054579eb82f5a057",
          "blockHash": "0x08d87e426d116bbf5495bda0d1252c0c577e864830313301bedbb6fda5dbd99d",
          "blockNumber": "0x19",
          "blockTimestamp": "0x696652e8",
          "transactionHash": "0x891413bda4f1988031044ccaaf836f37e6ec733847357bfe573d6d0e34ffb85f",
          "transactionIndex": "0x0",
          "logIndex": "0x5",
          "removed": false
        },
        {
          "address": "0x8828fd7431d5bb1962d7e067c103b2324fa6bbec",
          "topics": [
            "0x2e659081f44c4f56a18b00f3f9d136d7ee8396bc79163c4d61363ddcf4a4cb27",
            "0x2eca69742163858d1db9adc288336919f87c2626936291b6f1311977c7800ed8"
          ],
          "data": "0x0000000000000000000000000000000000000000000000000000000000000000000000000000000000000000000000000000000000000000000000000754d4c0000000000000000000000000000000000000000000000000000000000754d4c000000000000000000000000000000000000000000000000000000000000000000000000000000000000000000000000000000000000000000000000000000000000000000000000000000000000000000000000000000000000000000000000100000000000000000000000000000000000000000000000000000000000000000000000000000000000000000000000000000000000000000000000000000000c5d2460186f7233c927e7db2dcc703c0e500b653ca82273b7bfad8045d85a470",
          "blockHash": "0x08d87e426d116bbf5495bda0d1252c0c577e864830313301bedbb6fda5dbd99d",
          "blockNumber": "0x19",
          "blockTimestamp": "0x696652e8",
          "transactionHash": "0x891413bda4f1988031044ccaaf836f37e6ec733847357bfe573d6d0e34ffb85f",
          "transactionIndex": "0x0",
          "logIndex": "0x6",
          "removed": false
        },
        {
          "address": "0x8828fd7431d5bb1962d7e067c103b2324fa6bbec",
          "topics": [
            "0x78160f0b1b2b32b52a0076d8f0f70888687ba702a4d993d55ac8d9327d57a127",
            "0x000000000000000000000000000000000000000000000000000000000000000b",
            "0x52a7ea5f5a9b6d53be60cc47a022ebc5eb6c9688674830ebc31d2da22110f549",
            "0xfde7852e1bed4b63945ec7b81a6b13e101cc6da578936e26a9a92680aca70aae"
          ],
          "data": "0x2e659081f44c4f56a18b00f3f9d136d7ee8396bc79163c4d61363ddcf4a4cb27000000000000000000000000000000000000000000000000000000000000004000000000000000000000000000000000000000000000000000000000000001402eca69742163858d1db9adc288336919f87c2626936291b6f1311977c7800ed80000000000000000000000000000000000000000000000000000000000000000000000000000000000000000000000000000000000000000000000000754d4c0000000000000000000000000000000000000000000000000000000000754d4c000000000000000000000000000000000000000000000000000000000000000000000000000000000000000000000000000000000000000000000000000000000000000000000000000000000000000000000000000000000000000000000000100000000000000000000000000000000000000000000000000000000000000000000000000000000000000000000000000000000000000000000000000000000c5d2460186f7233c927e7db2dcc703c0e500b653ca82273b7bfad8045d85a470",
          "blockHash": "0x08d87e426d116bbf5495bda0d1252c0c577e864830313301bedbb6fda5dbd99d",
          "blockNumber": "0x19",
          "blockTimestamp": "0x696652e8",
          "transactionHash": "0x891413bda4f1988031044ccaaf836f37e6ec733847357bfe573d6d0e34ffb85f",
          "transactionIndex": "0x0",
          "logIndex": "0x7",
          "removed": false
        }
      ],
      "logsBloom": "0x0000000100000000000000400000000000000000080000000000000000000000000000000000000000000100000000000000000004008000002000008024080000018010020800000000000000000080000000000004000008000000000000000080002000080000000000080000000a0080000000000000000000000000200000800000000000000100000008000004000010400000000000000001000000000000040000204000000000001000000000020040100000000001000000000000400000000000000010000000000000000020000000000004400200000000c0000000000200000000000000000000000100040020000400040000000000804000",
      "type": "0x0",
      "transactionHash": "0x891413bda4f1988031044ccaaf836f37e6ec733847357bfe573d6d0e34ffb85f",
      "transactionIndex": "0x0",
      "blockHash": "0x08d87e426d116bbf5495bda0d1252c0c577e864830313301bedbb6fda5dbd99d",
      "blockNumber": "0x19",
      "gasUsed": "0x30390",
      "effectiveGasPrice": "0x3b9aca00",
      "blobGasPrice": "0x1",
      "from": "0xd289d1387ae1033a703842d69501d5bec5a6f04e",
      "to": "0x8828fd7431d5bb1962d7e067c103b2324fa6bbec",
      "contractAddress": null
    },
    {
      "status": "0x1",
      "cumulativeGasUsed": "0xac60",
      "logs": [],
      "logsBloom": "0x00000000000000000000000000000000000000000000000000000000000000000000000000000000000000000000000000000000000000000000000000000000000000000000000000000000000000000000000000000000000000000000000000000000000000000000000000000000000000000000000000000000000000000000000000000000000000000000000000000000000000000000000000000000000000000000000000000000000000000000000000000000000000000000000000000000000000000000000000000000000000000000000000000000000000000000000000000000000000000000000000000000000000000000000000000000",
      "type": "0x0",
      "transactionHash": "0x69f070f5563bca8333368fbdf915569ce367bb972188576858f828a52beed83f",
      "transactionIndex": "0x0",
      "blockHash": "0xd8ee4c98033bdea3ad65284b0036db3ddfefd661ce7f9e20eba06cabd314a6a4",
      "blockNumber": "0x1a",
      "gasUsed": "0xac60",
      "effectiveGasPrice": "0x3b9aca00",
      "blobGasPrice": "0x1",
      "from": "0xd289d1387ae1033a703842d69501d5bec5a6f04e",
      "to": "0x4d4adec97e3e11693f65dedc2d1e6bec784eb2f1",
      "contractAddress": null
    },
    {
      "status": "0x1",
      "cumulativeGasUsed": "0x3df0a",
      "logs": [
        {
          "address": "0x8828fd7431d5bb1962d7e067c103b2324fa6bbec",
          "topics": [
            "0x7391f14355eff1e559e381f5bf49886a77da7c4fdd33c6fc2e0142269c561c59",
            "0x84769369b2ccc797d45e690e43c16706681366804ad95c0c83787b6c1cdf0bc4",
            "0x8856e936a3cdfae958688c88129a96d47c3c0d2ae8313ffbaab6d66489e00174",
            "0x0000000000000000000000000000000000000000000000000000000000000002"
          ],
          "data": "0x0000000000000000000000000000000000000000000000000000000000000000000000000000000000000000000000000000000000000000000000000000014d000000000000000000000000d59d27b9172ad056cb5c008dc2bbefe702123a55000000000000000000000000000000000000000000000000000000000000000000000000000000000000000000000000000000000000000000000000000000000000000000000000000000004d4adec97e3e11693f65dedc2d1e6bec784eb2f1000000000000000000000000f86c23c1e883ee3b820fb9be75ff91c9a49eae75000000000000000000000000ed87227a182e5a8fc74b1d40d80db6208741c4350000000000000000000000008cfa8767685352692f92589f7370b558d9896abf",
          "blockHash": "0xed9902473dab020670a21eabc8d4220db3e87c7adc84f6b251094fe80d0840d0",
          "blockNumber": "0x1b",
          "blockTimestamp": "0x696652e8",
          "transactionHash": "0x27599f162bb8b14fad8b0f9ac38214c1ab979c22769bbeeb328528526a2604df",
          "transactionIndex": "0x0",
          "logIndex": "0x0",
          "removed": false
        },
        {
          "address": "0x8828fd7431d5bb1962d7e067c103b2324fa6bbec",
          "topics": [
            "0x78160f0b1b2b32b52a0076d8f0f70888687ba702a4d993d55ac8d9327d57a127",
            "0x000000000000000000000000000000000000000000000000000000000000000c",
            "0xfde7852e1bed4b63945ec7b81a6b13e101cc6da578936e26a9a92680aca70aae",
            "0x2ac5477f0f3da8e626fb7749d5356164ced246fd94137392e3d27384cc6f2a3f"
          ],
          "data": "0x7391f14355eff1e559e381f5bf49886a77da7c4fdd33c6fc2e0142269c561c590000000000000000000000000000000000000000000000000000000000000040000000000000000000000000000000000000000000000000000000000000018084769369b2ccc797d45e690e43c16706681366804ad95c0c83787b6c1cdf0bc48856e936a3cdfae958688c88129a96d47c3c0d2ae8313ffbaab6d66489e0017400000000000000000000000000000000000000000000000000000000000000020000000000000000000000000000000000000000000000000000000000000000000000000000000000000000000000000000000000000000000000000000014d000000000000000000000000d59d27b9172ad056cb5c008dc2bbefe702123a55000000000000000000000000000000000000000000000000000000000000000000000000000000000000000000000000000000000000000000000000000000000000000000000000000000004d4adec97e3e11693f65dedc2d1e6bec784eb2f1000000000000000000000000f86c23c1e883ee3b820fb9be75ff91c9a49eae75000000000000000000000000ed87227a182e5a8fc74b1d40d80db6208741c4350000000000000000000000008cfa8767685352692f92589f7370b558d9896abf",
          "blockHash": "0xed9902473dab020670a21eabc8d4220db3e87c7adc84f6b251094fe80d0840d0",
          "blockNumber": "0x1b",
          "blockTimestamp": "0x696652e8",
          "transactionHash": "0x27599f162bb8b14fad8b0f9ac38214c1ab979c22769bbeeb328528526a2604df",
          "transactionIndex": "0x0",
          "logIndex": "0x1",
          "removed": false
        },
        {
          "address": "0x8828fd7431d5bb1962d7e067c103b2324fa6bbec",
          "topics": [
            "0x488f06a9ca9e19e1dd90c764cc79b765e8a3a089ef27d9a0e39dee21c7643188",
            "0x3e1c428ad1108116564831377d59e16f10ba20cd640960f08674c072311f8b0d",
            "0x0000000000000000000000008cfa8767685352692f92589f7370b558d9896abf"
          ],
          "data": "0x000000000000000000000000e007a594267d5b9a4f5bf6fd054579eb82f5a057",
          "blockHash": "0xed9902473dab020670a21eabc8d4220db3e87c7adc84f6b251094fe80d0840d0",
          "blockNumber": "0x1b",
          "blockTimestamp": "0x696652e8",
          "transactionHash": "0x27599f162bb8b14fad8b0f9ac38214c1ab979c22769bbeeb328528526a2604df",
          "transactionIndex": "0x0",
          "logIndex": "0x2",
          "removed": false
        },
        {
          "address": "0x8828fd7431d5bb1962d7e067c103b2324fa6bbec",
          "topics": [
            "0x78160f0b1b2b32b52a0076d8f0f70888687ba702a4d993d55ac8d9327d57a127",
            "0x000000000000000000000000000000000000000000000000000000000000000d",
            "0x2ac5477f0f3da8e626fb7749d5356164ced246fd94137392e3d27384cc6f2a3f",
            "0x1ef48d9c4f35fcae6ced67988d3d79103cbff198cf8a7210945aeb1786022057"
          ],
          "data": "0x488f06a9ca9e19e1dd90c764cc79b765e8a3a089ef27d9a0e39dee21c7643188000000000000000000000000000000000000000000000000000000000000004000000000000000000000000000000000000000000000000000000000000000603e1c428ad1108116564831377d59e16f10ba20cd640960f08674c072311f8b0d0000000000000000000000008cfa8767685352692f92589f7370b558d9896abf000000000000000000000000e007a594267d5b9a4f5bf6fd054579eb82f5a057",
          "blockHash": "0xed9902473dab020670a21eabc8d4220db3e87c7adc84f6b251094fe80d0840d0",
          "blockNumber": "0x1b",
          "blockTimestamp": "0x696652e8",
          "transactionHash": "0x27599f162bb8b14fad8b0f9ac38214c1ab979c22769bbeeb328528526a2604df",
          "transactionIndex": "0x0",
          "logIndex": "0x3",
          "removed": false
        },
        {
          "address": "0x8828fd7431d5bb1962d7e067c103b2324fa6bbec",
          "topics": [
            "0x2f4c76c8d18f45069b0941499205a7fceaaa3caf9e2e6328f6a544cd339120f3",
            "0x84769369b2ccc797d45e690e43c16706681366804ad95c0c83787b6c1cdf0bc4",
            "0x0000000000000000000000004d4adec97e3e11693f65dedc2d1e6bec784eb2f1",
            "0x000000000000000000000000f86c23c1e883ee3b820fb9be75ff91c9a49eae75"
          ],
          "data": "0x00000000000000000000000000000000000000000000000000000000055d4a800000000000000000000000000000000000000000000000000000000005f5e100",
          "blockHash": "0xed9902473dab020670a21eabc8d4220db3e87c7adc84f6b251094fe80d0840d0",
          "blockNumber": "0x1b",
          "blockTimestamp": "0x696652e8",
          "transactionHash": "0x27599f162bb8b14fad8b0f9ac38214c1ab979c22769bbeeb328528526a2604df",
          "transactionIndex": "0x0",
          "logIndex": "0x4",
          "removed": false
        },
        {
          "address": "0x8828fd7431d5bb1962d7e067c103b2324fa6bbec",
          "topics": [
            "0x78160f0b1b2b32b52a0076d8f0f70888687ba702a4d993d55ac8d9327d57a127",
            "0x000000000000000000000000000000000000000000000000000000000000000e",
            "0x1ef48d9c4f35fcae6ced67988d3d79103cbff198cf8a7210945aeb1786022057",
            "0x0343f99de792832c531b921e1f0f75e8f7feb00c366588791a7907bedb2240a9"
          ],
          "data": "0x2f4c76c8d18f45069b0941499205a7fceaaa3caf9e2e6328f6a544cd339120f3000000000000000000000000000000000000000000000000000000000000004000000000000000000000000000000000000000000000000000000000000000a084769369b2ccc797d45e690e43c16706681366804ad95c0c83787b6c1cdf0bc40000000000000000000000004d4adec97e3e11693f65dedc2d1e6bec784eb2f1000000000000000000000000f86c23c1e883ee3b820fb9be75ff91c9a49eae7500000000000000000000000000000000000000000000000000000000055d4a800000000000000000000000000000000000000000000000000000000005f5e100",
          "blockHash": "0xed9902473dab020670a21eabc8d4220db3e87c7adc84f6b251094fe80d0840d0",
          "blockNumber": "0x1b",
          "blockTimestamp": "0x696652e8",
          "transactionHash": "0x27599f162bb8b14fad8b0f9ac38214c1ab979c22769bbeeb328528526a2604df",
          "transactionIndex": "0x0",
          "logIndex": "0x5",
          "removed": false
        },
        {
          "address": "0x8828fd7431d5bb1962d7e067c103b2324fa6bbec",
          "topics": [
            "0x2e659081f44c4f56a18b00f3f9d136d7ee8396bc79163c4d61363ddcf4a4cb27",
            "0x84769369b2ccc797d45e690e43c16706681366804ad95c0c83787b6c1cdf0bc4"
          ],
          "data": "0x00000000000000000000000000000000000000000000000000000000000000000000000000000000000000000000000000000000000000000000000005f5e10000000000000000000000000000000000000000000000000000000000055d4a8000000000000000000000000000000000000000000000000000000000009896800000000000000000000000000000000000000000000000000000000000000000000000000000000000000000000000000000000000000000000000000000000100000000000000000000000000000000000000000000000000000000000000000000000000000000000000000000000000000000000000000000000000000000c5d2460186f7233c927e7db2dcc703c0e500b653ca82273b7bfad8045d85a470",
          "blockHash": "0xed9902473dab020670a21eabc8d4220db3e87c7adc84f6b251094fe80d0840d0",
          "blockNumber": "0x1b",
          "blockTimestamp": "0x696652e8",
          "transactionHash": "0x27599f162bb8b14fad8b0f9ac38214c1ab979c22769bbeeb328528526a2604df",
          "transactionIndex": "0x0",
          "logIndex": "0x6",
          "removed": false
        },
        {
          "address": "0x8828fd7431d5bb1962d7e067c103b2324fa6bbec",
          "topics": [
            "0x78160f0b1b2b32b52a0076d8f0f70888687ba702a4d993d55ac8d9327d57a127",
            "0x000000000000000000000000000000000000000000000000000000000000000f",
            "0x0343f99de792832c531b921e1f0f75e8f7feb00c366588791a7907bedb2240a9",
            "0x29f0ccc15a45085d7eb8b4356d773b5c8fbe372f0fa2adc6143462f34fa76713"
          ],
          "data": "0x2e659081f44c4f56a18b00f3f9d136d7ee8396bc79163c4d61363ddcf4a4cb270000000000000000000000000000000000000000000000000000000000000040000000000000000000000000000000000000000000000000000000000000014084769369b2ccc797d45e690e43c16706681366804ad95c0c83787b6c1cdf0bc400000000000000000000000000000000000000000000000000000000000000000000000000000000000000000000000000000000000000000000000005f5e10000000000000000000000000000000000000000000000000000000000055d4a8000000000000000000000000000000000000000000000000000000000009896800000000000000000000000000000000000000000000000000000000000000000000000000000000000000000000000000000000000000000000000000000000100000000000000000000000000000000000000000000000000000000000000000000000000000000000000000000000000000000000000000000000000000000c5d2460186f7233c927e7db2dcc703c0e500b653ca82273b7bfad8045d85a470",
          "blockHash": "0xed9902473dab020670a21eabc8d4220db3e87c7adc84f6b251094fe80d0840d0",
          "blockNumber": "0x1b",
          "blockTimestamp": "0x696652e8",
          "transactionHash": "0x27599f162bb8b14fad8b0f9ac38214c1ab979c22769bbeeb328528526a2604df",
          "transactionIndex": "0x0",
          "logIndex": "0x7",
          "removed": false
        }
      ],
      "logsBloom": "0x0400000100000000004000000000000000020200080000000080000001000000000000800000020000010040000000000000000001000000000000080020000000000010020800080000000000000080000200000000000008000000000210000000002000080000000000080000040a0000000000000000800000200000000000000000000008800210400002000000080000000008000000000001001010000000000000004000000001001000000800000000100000a0208100000000000000000000000008000008000000000000000000000000000400010000000000220000000200040000000000000000000100000000008000000000000000004000",
      "type": "0x0",
      "transactionHash": "0x27599f162bb8b14fad8b0f9ac38214c1ab979c22769bbeeb328528526a2604df",
      "transactionIndex": "0x0",
      "blockHash": "0xed9902473dab020670a21eabc8d4220db3e87c7adc84f6b251094fe80d0840d0",
      "blockNumber": "0x1b",
      "gasUsed": "0x3df0a",
      "effectiveGasPrice": "0x3b9aca00",
      "blobGasPrice": "0x1",
      "from": "0xd289d1387ae1033a703842d69501d5bec5a6f04e",
      "to": "0x8828fd7431d5bb1962d7e067c103b2324fa6bbec",
      "contractAddress": null
    },
    {
      "status": "0x1",
      "cumulativeGasUsed": "0x6994",
      "logs": [],
      "logsBloom": "0x00000000000000000000000000000000000000000000000000000000000000000000000000000000000000000000000000000000000000000000000000000000000000000000000000000000000000000000000000000000000000000000000000000000000000000000000000000000000000000000000000000000000000000000000000000000000000000000000000000000000000000000000000000000000000000000000000000000000000000000000000000000000000000000000000000000000000000000000000000000000000000000000000000000000000000000000000000000000000000000000000000000000000000000000000000000",
      "type": "0x0",
      "transactionHash": "0x9472e58502d4d723e2eeef1f18ff94885d1a210ed9e477cc91f10315440a1042",
      "transactionIndex": "0x0",
      "blockHash": "0x2296fc25dff7c6e82be88cd6c8f5f978c1da18fe3eba0df7d851205a058a7141",
      "blockNumber": "0x1c",
      "gasUsed": "0x6994",
      "effectiveGasPrice": "0x3b9aca00",
      "blobGasPrice": "0x1",
      "from": "0xd289d1387ae1033a703842d69501d5bec5a6f04e",
      "to": "0xf86c23c1e883ee3b820fb9be75ff91c9a49eae75",
      "contractAddress": null
    },
    {
      "status": "0x1",
      "cumulativeGasUsed": "0xad94",
      "logs": [],
      "logsBloom": "0x00000000000000000000000000000000000000000000000000000000000000000000000000000000000000000000000000000000000000000000000000000000000000000000000000000000000000000000000000000000000000000000000000000000000000000000000000000000000000000000000000000000000000000000000000000000000000000000000000000000000000000000000000000000000000000000000000000000000000000000000000000000000000000000000000000000000000000000000000000000000000000000000000000000000000000000000000000000000000000000000000000000000000000000000000000000",
      "type": "0x0",
      "transactionHash": "0x67d41d08660a1ab45f6df271f0e5ee4c8aad68765b5a2429fdfba21ff9bb4a37",
      "transactionIndex": "0x0",
      "blockHash": "0x22ac661601139a02dd7c5a8b30c3307d511dc95e2942f31f582895ccc217aee1",
      "blockNumber": "0x1d",
      "gasUsed": "0xad94",
      "effectiveGasPrice": "0x3b9aca00",
      "blobGasPrice": "0x1",
      "from": "0xd289d1387ae1033a703842d69501d5bec5a6f04e",
      "to": "0xf86c23c1e883ee3b820fb9be75ff91c9a49eae75",
      "contractAddress": null
    },
    {
      "status": "0x1",
      "cumulativeGasUsed": "0x52d69",
      "logs": [
        {
          "address": "0x048255dfef2ebfa7307058ae475a3e2f5ee0df46",
          "topics": [
            "0x6f81b8ad0780a0febc687a3a73b181433722b4be30f7f0a024169f5161267287",
            "0x5abb16a9f87b2d44d6039ee6558e1c9ab79699b29548c3b05661fcd8c9f62eb8",
            "0x000000000000000000000000d289d1387ae1033a703842d69501d5bec5a6f04e"
          ],
          "data": "0x0000000000000000000000000000000000000000000000000000000000000000000000000000000000000000f86c23c1e883ee3b820fb9be75ff91c9a49eae7500000000000000000000000000000000000000000000000000000000004c4b40000000000000000000000000d289d1387ae1033a703842d69501d5bec5a6f04e000000000000000000000000000000000000000000000000000000006966530a00000000000000000000000000000000000000000000000000000000000000c000000000000000000000000000000000000000000000000000000000000000a000000000000000000000000000000000000000000000000000000000000000200000000000000000000000002db97a32d5ce8d79f7b7fdc607584a7a35da5e0d00000000000000000000000000000000000000000000000000000000000000400000000000000000000000000000000000000000000000000000000000000002abcd000000000000000000000000000000000000000000000000000000000000",
          "blockHash": "0x8c26ca3cb8b3864c246117fc61da898eef321a51b865227aec89c4baac624354",
          "blockNumber": "0x1e",
          "blockTimestamp": "0x696652e8",
          "transactionHash": "0x9212d5aaa121c922692b81aead0564a6da64bb78eb839130c8449fcf82307c77",
          "transactionIndex": "0x0",
          "logIndex": "0x0",
          "removed": false
        },
        {
          "address": "0x048255dfef2ebfa7307058ae475a3e2f5ee0df46",
          "topics": [
            "0x78160f0b1b2b32b52a0076d8f0f70888687ba702a4d993d55ac8d9327d57a127",
            "0x0000000000000000000000000000000000000000000000000000000000000004",
            "0x3bdce975a12b732b6e55032fad3feb57085aec2a17314b4998a4a5fee9ab5a43",
            "0x7c9875d83c5aee2f6f0e897acc7eb714e80bf44bd020d51169c914a3c2e691d5"
          ],
          "data": "0x6f81b8ad0780a0febc687a3a73b181433722b4be30f7f0a024169f5161267287000000000000000000000000000000000000000000000000000000000000004000000000000000000000000000000000000000000000000000000000000001c05abb16a9f87b2d44d6039ee6558e1c9ab79699b29548c3b05661fcd8c9f62eb8000000000000000000000000d289d1387ae1033a703842d69501d5bec5a6f04e0000000000000000000000000000000000000000000000000000000000000000000000000000000000000000f86c23c1e883ee3b820fb9be75ff91c9a49eae7500000000000000000000000000000000000000000000000000000000004c4b40000000000000000000000000d289d1387ae1033a703842d69501d5bec5a6f04e000000000000000000000000000000000000000000000000000000006966530a000000000000000000000000000000000000000000000000000000000000010000000000000000000000000000000000000000000000000000000000000000a000000000000000000000000000000000000000000000000000000000000000200000000000000000000000002db97a32d5ce8d79f7b7fdc607584a7a35da5e0d00000000000000000000000000000000000000000000000000000000000000400000000000000000000000000000000000000000000000000000000000000002abcd000000000000000000000000000000000000000000000000000000000000",
          "blockHash": "0x8c26ca3cb8b3864c246117fc61da898eef321a51b865227aec89c4baac624354",
          "blockNumber": "0x1e",
          "blockTimestamp": "0x696652e8",
          "transactionHash": "0x9212d5aaa121c922692b81aead0564a6da64bb78eb839130c8449fcf82307c77",
          "transactionIndex": "0x0",
          "logIndex": "0x1",
          "removed": false
        },
        {
          "address": "0x048255dfef2ebfa7307058ae475a3e2f5ee0df46",
          "topics": [
            "0x0544741ff6f2708047138c8f3a68abb994e628666dba785f685ff1035274f9fb",
            "0x5abb16a9f87b2d44d6039ee6558e1c9ab79699b29548c3b05661fcd8c9f62eb8",
            "0x000000000000000000000000d289d1387ae1033a703842d69501d5bec5a6f04e"
          ],
          "data": "0x000000000000000000000000f86c23c1e883ee3b820fb9be75ff91c9a49eae7500000000000000000000000000000000000000000000000000000000004c4b40",
          "blockHash": "0x8c26ca3cb8b3864c246117fc61da898eef321a51b865227aec89c4baac624354",
          "blockNumber": "0x1e",
          "blockTimestamp": "0x696652e8",
          "transactionHash": "0x9212d5aaa121c922692b81aead0564a6da64bb78eb839130c8449fcf82307c77",
          "transactionIndex": "0x0",
          "logIndex": "0x2",
          "removed": false
        },
        {
          "address": "0x048255dfef2ebfa7307058ae475a3e2f5ee0df46",
          "topics": [
            "0x78160f0b1b2b32b52a0076d8f0f70888687ba702a4d993d55ac8d9327d57a127",
            "0x0000000000000000000000000000000000000000000000000000000000000005",
            "0x7c9875d83c5aee2f6f0e897acc7eb714e80bf44bd020d51169c914a3c2e691d5",
            "0xaa473062837919ccf0e7402028e9354a2372abf13a3a7937f89e733fc13ef562"
          ],
          "data": "0x0544741ff6f2708047138c8f3a68abb994e628666dba785f685ff1035274f9fb000000000000000000000000000000000000000000000000000000000000004000000000000000000000000000000000000000000000000000000000000000805abb16a9f87b2d44d6039ee6558e1c9ab79699b29548c3b05661fcd8c9f62eb8000000000000000000000000d289d1387ae1033a703842d69501d5bec5a6f04e000000000000000000000000f86c23c1e883ee3b820fb9be75ff91c9a49eae7500000000000000000000000000000000000000000000000000000000004c4b40",
          "blockHash": "0x8c26ca3cb8b3864c246117fc61da898eef321a51b865227aec89c4baac624354",
          "blockNumber": "0x1e",
          "blockTimestamp": "0x696652e8",
          "transactionHash": "0x9212d5aaa121c922692b81aead0564a6da64bb78eb839130c8449fcf82307c77",
          "transactionIndex": "0x0",
          "logIndex": "0x3",
          "removed": false
        }
      ],
      "logsBloom": "0x00000000000000000100000000000000400000000000000000000000000000000000000020000000000000000000000000000000000000000000000000200000000010000000000004000000000000000004000100000000000000000000000008000004000800004000080000000000000000000000000000000000008000000000000000000000000000000000001000000808000000000000010000000000000000000000000000080000000000000000200200000000202000000000000000000000400000000000020000000000000000008200002000000000000000020000000000000000000000000000108000000000000000000000008000004000",
      "type": "0x0",
      "transactionHash": "0x9212d5aaa121c922692b81aead0564a6da64bb78eb839130c8449fcf82307c77",
      "transactionIndex": "0x0",
      "blockHash": "0x8c26ca3cb8b3864c246117fc61da898eef321a51b865227aec89c4baac624354",
      "blockNumber": "0x1e",
      "gasUsed": "0x52d69",
      "effectiveGasPrice": "0x3b9aca00",
      "blobGasPrice": "0x1",
      "from": "0xd289d1387ae1033a703842d69501d5bec5a6f04e",
      "to": "0x048255dfef2ebfa7307058ae475a3e2f5ee0df46",
      "contractAddress": null
    },
    {
      "status": "0x1",
      "cumulativeGasUsed": "0xac60",
      "logs": [],
      "logsBloom": "0x00000000000000000000000000000000000000000000000000000000000000000000000000000000000000000000000000000000000000000000000000000000000000000000000000000000000000000000000000000000000000000000000000000000000000000000000000000000000000000000000000000000000000000000000000000000000000000000000000000000000000000000000000000000000000000000000000000000000000000000000000000000000000000000000000000000000000000000000000000000000000000000000000000000000000000000000000000000000000000000000000000000000000000000000000000000",
      "type": "0x0",
      "transactionHash": "0x78466f8e95a6cec097ab890b86e387f2f2510d6b867e6361019c9da11d46732a",
      "transactionIndex": "0x0",
      "blockHash": "0x6d6999f348cfc5256c15066385b24e382e508b6ad9ad6b983383f30472e06df3",
      "blockNumber": "0x1f",
      "gasUsed": "0xac60",
      "effectiveGasPrice": "0x3b9aca00",
      "blobGasPrice": "0x1",
      "from": "0xd289d1387ae1033a703842d69501d5bec5a6f04e",
      "to": "0x4d4adec97e3e11693f65dedc2d1e6bec784eb2f1",
      "contractAddress": null
    },
    {
      "status": "0x1",
      "cumulativeGasUsed": "0xad94",
      "logs": [],
      "logsBloom": "0x00000000000000000000000000000000000000000000000000000000000000000000000000000000000000000000000000000000000000000000000000000000000000000000000000000000000000000000000000000000000000000000000000000000000000000000000000000000000000000000000000000000000000000000000000000000000000000000000000000000000000000000000000000000000000000000000000000000000000000000000000000000000000000000000000000000000000000000000000000000000000000000000000000000000000000000000000000000000000000000000000000000000000000000000000000000",
      "type": "0x0",
      "transactionHash": "0xfb981c298895dafec66687e6e26ca5de950cf4e8ba033cb601abdc1d6a638242",
      "transactionIndex": "0x0",
      "blockHash": "0x6cc7bf801e70e81b221b440314b869e9037e2ccde5ba20c6a542452e8ae76bed",
      "blockNumber": "0x20",
      "gasUsed": "0xad94",
      "effectiveGasPrice": "0x3b9aca00",
      "blobGasPrice": "0x1",
      "from": "0xd289d1387ae1033a703842d69501d5bec5a6f04e",
      "to": "0x4d4adec97e3e11693f65dedc2d1e6bec784eb2f1",
      "contractAddress": null
    },
    {
      "status": "0x1",
      "cumulativeGasUsed": "0x17623",
      "logs": [
        {
          "address": "0x048255dfef2ebfa7307058ae475a3e2f5ee0df46",
          "topics": [
            "0xbc3f7b7e77a395c156c24db8a8a7850209b2df71a2561292eea221e32bf5d467",
            "0x5abb16a9f87b2d44d6039ee6558e1c9ab79699b29548c3b05661fcd8c9f62eb8",
            "0x000000000000000000000000d289d1387ae1033a703842d69501d5bec5a6f04e"
          ],
          "data": "0x00000000000000000000000000000000000000000000000000000000000f4240",
          "blockHash": "0x95f824bad5f3da0858c0d298d74efd8116c601868682b15b7b3e6cdeb9915702",
          "blockNumber": "0x21",
          "blockTimestamp": "0x696652e8",
          "transactionHash": "0xd8317f2fdffa2966db99199f7a095fdeefb7f299319181ebb9f9254b37f28522",
          "transactionIndex": "0x0",
          "logIndex": "0x0",
          "removed": false
        },
        {
          "address": "0x048255dfef2ebfa7307058ae475a3e2f5ee0df46",
          "topics": [
            "0x78160f0b1b2b32b52a0076d8f0f70888687ba702a4d993d55ac8d9327d57a127",
            "0x0000000000000000000000000000000000000000000000000000000000000006",
            "0xaa473062837919ccf0e7402028e9354a2372abf13a3a7937f89e733fc13ef562",
            "0xa92d2c4b51809729c438cd2b0e9b75a60efd6182c61da14c5f5add65c91a10e8"
          ],
          "data": "0xbc3f7b7e77a395c156c24db8a8a7850209b2df71a2561292eea221e32bf5d467000000000000000000000000000000000000000000000000000000000000004000000000000000000000000000000000000000000000000000000000000000605abb16a9f87b2d44d6039ee6558e1c9ab79699b29548c3b05661fcd8c9f62eb8000000000000000000000000d289d1387ae1033a703842d69501d5bec5a6f04e00000000000000000000000000000000000000000000000000000000000f4240",
          "blockHash": "0x95f824bad5f3da0858c0d298d74efd8116c601868682b15b7b3e6cdeb9915702",
          "blockNumber": "0x21",
          "blockTimestamp": "0x696652e8",
          "transactionHash": "0xd8317f2fdffa2966db99199f7a095fdeefb7f299319181ebb9f9254b37f28522",
          "transactionIndex": "0x0",
          "logIndex": "0x1",
          "removed": false
        }
      ],
      "logsBloom": "0x00000000000000002100000000000000400000000000000000000000000000000000000000000000000000000000000000000000000400000000000000200000000000000000000004000000000000000000000000000004000000000000000000000800000800004000000000000000000000000000000000000000000000000000000400000000000000000000000000000008000000000000010100000000000000000000000000000000000000000000000200000000000000080000000000000000400000000000000000000000000000000200000000000000000000000000000000000000000400000000108000000000000000000000008000004002",
      "type": "0x0",
      "transactionHash": "0xd8317f2fdffa2966db99199f7a095fdeefb7f299319181ebb9f9254b37f28522",
      "transactionIndex": "0x0",
      "blockHash": "0x95f824bad5f3da0858c0d298d74efd8116c601868682b15b7b3e6cdeb9915702",
      "blockNumber": "0x21",
      "gasUsed": "0x17623",
      "effectiveGasPrice": "0x3b9aca00",
      "blobGasPrice": "0x1",
      "from": "0xd289d1387ae1033a703842d69501d5bec5a6f04e",
      "to": "0x048255dfef2ebfa7307058ae475a3e2f5ee0df46",
      "contractAddress": null
    },
    {
      "status": "0x1",
      "cumulativeGasUsed": "0x121f6",
      "logs": [],
      "logsBloom": "0x00000000000000000000000000000000000000000000000000000000000000000000000000000000000000000000000000000000000000000000000000000000000000000000000000000000000000000000000000000000000000000000000000000000000000000000000000000000000000000000000000000000000000000000000000000000000000000000000000000000000000000000000000000000000000000000000000000000000000000000000000000000000000000000000000000000000000000000000000000000000000000000000000000000000000000000000000000000000000000000000000000000000000000000000000000000",
      "type": "0x0",
      "transactionHash": "0xb714f5ac36b192383bedb54a0bba093c620ff93399a19848334bfc7de47d6257",
      "transactionIndex": "0x0",
      "blockHash": "0x3b57501033e95a8b68da3d7772145458fa5b2a8cd38b2741c9545627724d4f24",
      "blockNumber": "0x22",
      "gasUsed": "0x121f6",
      "effectiveGasPrice": "0x3b9aca00",
      "blobGasPrice": "0x1",
      "from": "0xd289d1387ae1033a703842d69501d5bec5a6f04e",
      "to": "0x8c16d2f19a034b7281254f5656c2d1461c6ceb9a",
      "contractAddress": null
    },
    {
      "status": "0x1",
      "cumulativeGasUsed": "0x29e6a",
      "logs": [
        {
          "address": "0x048255dfef2ebfa7307058ae475a3e2f5ee0df46",
          "topics": [
            "0xfa797585c9827d59a7694ef382241f1a03ced6a1a2b4353b35939abc4d04b286",
            "0x5abb16a9f87b2d44d6039ee6558e1c9ab79699b29548c3b05661fcd8c9f62eb8",
            "0x000000000000000000000000d289d1387ae1033a703842d69501d5bec5a6f04e"
          ],
          "data": "0x00000000000000000000000000000000000000000000000000000000000000000000000000000000000000000000000000000000000000000000000000000000",
          "blockHash": "0x32195dbf872deabb9077a198e36644cf43bd6db3567040794ad0e87096ee4b87",
          "blockNumber": "0x23",
          "blockTimestamp": "0x696652e8",
          "transactionHash": "0xd6f6f55557f01f47ff9a4f516ce32388b72a171a64720afee0bcc2eaf816a82a",
          "transactionIndex": "0x0",
          "logIndex": "0x0",
          "removed": false
        },
        {
          "address": "0x048255dfef2ebfa7307058ae475a3e2f5ee0df46",
          "topics": [
            "0x78160f0b1b2b32b52a0076d8f0f70888687ba702a4d993d55ac8d9327d57a127",
            "0x0000000000000000000000000000000000000000000000000000000000000007",
            "0xa92d2c4b51809729c438cd2b0e9b75a60efd6182c61da14c5f5add65c91a10e8",
            "0x0b170c3bf6004610cb3d0a49dc1609f5662d33b3e01d90793d084650dec69dd0"
          ],
          "data": "0xfa797585c9827d59a7694ef382241f1a03ced6a1a2b4353b35939abc4d04b286000000000000000000000000000000000000000000000000000000000000004000000000000000000000000000000000000000000000000000000000000000805abb16a9f87b2d44d6039ee6558e1c9ab79699b29548c3b05661fcd8c9f62eb8000000000000000000000000d289d1387ae1033a703842d69501d5bec5a6f04e00000000000000000000000000000000000000000000000000000000000000000000000000000000000000000000000000000000000000000000000000000000",
          "blockHash": "0x32195dbf872deabb9077a198e36644cf43bd6db3567040794ad0e87096ee4b87",
          "blockNumber": "0x23",
          "blockTimestamp": "0x696652e8",
          "transactionHash": "0xd6f6f55557f01f47ff9a4f516ce32388b72a171a64720afee0bcc2eaf816a82a",
          "transactionIndex": "0x0",
          "logIndex": "0x1",
          "removed": false
        },
        {
          "address": "0x048255dfef2ebfa7307058ae475a3e2f5ee0df46",
          "topics": [
            "0x16bfb64ae70b8a9bbda28deb27a1cbc5ec3e6497481714344c221b46c0777f35",
            "0x5abb16a9f87b2d44d6039ee6558e1c9ab79699b29548c3b05661fcd8c9f62eb8",
            "0x000000000000000000000000d289d1387ae1033a703842d69501d5bec5a6f04e"
          ],
          "data": "0x000000000000000000000000f86c23c1e883ee3b820fb9be75ff91c9a49eae7500000000000000000000000000000000000000000000000000000000004c4b400000000000000000000000004d4adec97e3e11693f65dedc2d1e6bec784eb2f100000000000000000000000000000000000000000000000000000000000f4240",
          "blockHash": "0x32195dbf872deabb9077a198e36644cf43bd6db3567040794ad0e87096ee4b87",
          "blockNumber": "0x23",
          "blockTimestamp": "0x696652e8",
          "transactionHash": "0xd6f6f55557f01f47ff9a4f516ce32388b72a171a64720afee0bcc2eaf816a82a",
          "transactionIndex": "0x0",
          "logIndex": "0x2",
          "removed": false
        },
        {
          "address": "0x048255dfef2ebfa7307058ae475a3e2f5ee0df46",
          "topics": [
            "0x78160f0b1b2b32b52a0076d8f0f70888687ba702a4d993d55ac8d9327d57a127",
            "0x0000000000000000000000000000000000000000000000000000000000000008",
            "0x0b170c3bf6004610cb3d0a49dc1609f5662d33b3e01d90793d084650dec69dd0",
            "0x06251a3e67b303d1eaee2955518070f6e470c9f8b97ac56298530a7752ccca40"
          ],
          "data": "0x16bfb64ae70b8a9bbda28deb27a1cbc5ec3e6497481714344c221b46c0777f35000000000000000000000000000000000000000000000000000000000000004000000000000000000000000000000000000000000000000000000000000000c05abb16a9f87b2d44d6039ee6558e1c9ab79699b29548c3b05661fcd8c9f62eb8000000000000000000000000d289d1387ae1033a703842d69501d5bec5a6f04e000000000000000000000000f86c23c1e883ee3b820fb9be75ff91c9a49eae7500000000000000000000000000000000000000000000000000000000004c4b400000000000000000000000004d4adec97e3e11693f65dedc2d1e6bec784eb2f100000000000000000000000000000000000000000000000000000000000f4240",
          "blockHash": "0x32195dbf872deabb9077a198e36644cf43bd6db3567040794ad0e87096ee4b87",
          "blockNumber": "0x23",
          "blockTimestamp": "0x696652e8",
          "transactionHash": "0xd6f6f55557f01f47ff9a4f516ce32388b72a171a64720afee0bcc2eaf816a82a",
          "transactionIndex": "0x0",
          "logIndex": "0x3",
          "removed": false
        }
      ],
      "logsBloom": "0x0000000000000000000010000000000040000000000000000000000000008000000000000000000000000000000000020000100000008000000200000020000000002000000000000400000000000000000000000000000000000000000000000000080000080000400000000000000000000000000000000000000000000000008000000000000000000000000000000000008000000000000005010000000000000000000000000000000a000000000000000200000000000000000000000050000000400000100000000000000000000000000200000000000100000000000000000000000000000400000000100020000000000000000000008002004000",
      "type": "0x0",
      "transactionHash": "0xd6f6f55557f01f47ff9a4f516ce32388b72a171a64720afee0bcc2eaf816a82a",
      "transactionIndex": "0x0",
      "blockHash": "0x32195dbf872deabb9077a198e36644cf43bd6db3567040794ad0e87096ee4b87",
      "blockNumber": "0x23",
      "gasUsed": "0x29e6a",
      "effectiveGasPrice": "0x3b9aca00",
      "blobGasPrice": "0x1",
      "from": "0xd289d1387ae1033a703842d69501d5bec5a6f04e",
      "to": "0x048255dfef2ebfa7307058ae475a3e2f5ee0df46",
      "contractAddress": null
    },
    {
      "status": "0x1",
      "cumulativeGasUsed": "0x6994",
      "logs": [],
      "logsBloom": "0x00000000000000000000000000000000000000000000000000000000000000000000000000000000000000000000000000000000000000000000000000000000000000000000000000000000000000000000000000000000000000000000000000000000000000000000000000000000000000000000000000000000000000000000000000000000000000000000000000000000000000000000000000000000000000000000000000000000000000000000000000000000000000000000000000000000000000000000000000000000000000000000000000000000000000000000000000000000000000000000000000000000000000000000000000000000",
      "type": "0x0",
      "transactionHash": "0x0a2b025e54d798396bcc4d25e729364f018d01b9de9918368b81ec89df0f7e63",
      "transactionIndex": "0x0",
      "blockHash": "0xed8ad271ea10884386893df9263ea710449acdec017ab84037a361f75cd300bf",
      "blockNumber": "0x24",
      "gasUsed": "0x6994",
      "effectiveGasPrice": "0x3b9aca00",
      "blobGasPrice": "0x1",
      "from": "0xd289d1387ae1033a703842d69501d5bec5a6f04e",
      "to": "0x4d4adec97e3e11693f65dedc2d1e6bec784eb2f1",
      "contractAddress": null
    },
    {
      "status": "0x1",
      "cumulativeGasUsed": "0x5fd8",
      "logs": [],
      "logsBloom": "0x00000000000000000000000000000000000000000000000000000000000000000000000000000000000000000000000000000000000000000000000000000000000000000000000000000000000000000000000000000000000000000000000000000000000000000000000000000000000000000000000000000000000000000000000000000000000000000000000000000000000000000000000000000000000000000000000000000000000000000000000000000000000000000000000000000000000000000000000000000000000000000000000000000000000000000000000000000000000000000000000000000000000000000000000000000000",
      "type": "0x0",
      "transactionHash": "0x7ea72e5993dc68e9aae677584dd7924b37542cf6803f9122078b9aa549581694",
      "transactionIndex": "0x0",
      "blockHash": "0xd7dd0f4972396c9c68c9032126ce99c95dcfdcbf597111c75908d81d150aa4ac",
      "blockNumber": "0x25",
      "gasUsed": "0x5fd8",
      "effectiveGasPrice": "0x3b9aca00",
      "blobGasPrice": "0x1",
      "from": "0xd289d1387ae1033a703842d69501d5bec5a6f04e",
      "to": "0x4d4adec97e3e11693f65dedc2d1e6bec784eb2f1",
      "contractAddress": null
    },
    {
      "status": "0x1",
      "cumulativeGasUsed": "0x46ef3",
      "logs": [
        {
          "address": "0x048255dfef2ebfa7307058ae475a3e2f5ee0df46",
          "topics": [
            "0x6f81b8ad0780a0febc687a3a73b181433722b4be30f7f0a024169f5161267287",
            "0x121c30ba75b76a9356c9bc0f0d21559e3193f4ceeeec5d7c5bb17b7b69f0ea4f",
            "0x000000000000000000000000d289d1387ae1033a703842d69501d5bec5a6f04e"
          ],
          "data": "0x00000000000000000000000000000000000000000000000000000000000000010000000000000000000000004d4adec97e3e11693f65dedc2d1e6bec784eb2f100000000000000000000000000000000000000000000000000000000001e8480000000000000000000000000d289d1387ae1033a703842d69501d5bec5a6f04e000000000000000000000000000000000000000000000000000000006966530a00000000000000000000000000000000000000000000000000000000000000c00000000000000000000000000000000000000000000000000000000000000040000000000000000000000000558b8fe3b86724d9d9433bf8ec2b1a1b223f9d25000000000000000000000000000000000000000000000000000000000012d687",
          "blockHash": "0x76b2d8dd580fb3b98c57c794f5992f262a58fa7e1a350b2bfaa8cfbc2e74ea74",
          "blockNumber": "0x26",
          "blockTimestamp": "0x696652e8",
          "transactionHash": "0x300423e1b7811a4c98b5789ca095a5a982d7bc0394b3999fcdba000a7aaae901",
          "transactionIndex": "0x0",
          "logIndex": "0x0",
          "removed": false
        },
        {
          "address": "0x048255dfef2ebfa7307058ae475a3e2f5ee0df46",
          "topics": [
            "0x78160f0b1b2b32b52a0076d8f0f70888687ba702a4d993d55ac8d9327d57a127",
            "0x0000000000000000000000000000000000000000000000000000000000000009",
            "0x06251a3e67b303d1eaee2955518070f6e470c9f8b97ac56298530a7752ccca40",
            "0xc2d399c6e2cc878c17055b5adc0ced5768b87fe187455bc11d0d975993494d3b"
          ],
          "data": "0x6f81b8ad0780a0febc687a3a73b181433722b4be30f7f0a024169f516126728700000000000000000000000000000000000000000000000000000000000000400000000000000000000000000000000000000000000000000000000000000160121c30ba75b76a9356c9bc0f0d21559e3193f4ceeeec5d7c5bb17b7b69f0ea4f000000000000000000000000d289d1387ae1033a703842d69501d5bec5a6f04e00000000000000000000000000000000000000000000000000000000000000010000000000000000000000004d4adec97e3e11693f65dedc2d1e6bec784eb2f100000000000000000000000000000000000000000000000000000000001e8480000000000000000000000000d289d1387ae1033a703842d69501d5bec5a6f04e000000000000000000000000000000000000000000000000000000006966530a00000000000000000000000000000000000000000000000000000000000001000000000000000000000000000000000000000000000000000000000000000040000000000000000000000000558b8fe3b86724d9d9433bf8ec2b1a1b223f9d25000000000000000000000000000000000000000000000000000000000012d687",
          "blockHash": "0x76b2d8dd580fb3b98c57c794f5992f262a58fa7e1a350b2bfaa8cfbc2e74ea74",
          "blockNumber": "0x26",
          "blockTimestamp": "0x696652e8",
          "transactionHash": "0x300423e1b7811a4c98b5789ca095a5a982d7bc0394b3999fcdba000a7aaae901",
          "transactionIndex": "0x0",
          "logIndex": "0x1",
          "removed": false
        },
        {
          "address": "0x048255dfef2ebfa7307058ae475a3e2f5ee0df46",
          "topics": [
            "0x0544741ff6f2708047138c8f3a68abb994e628666dba785f685ff1035274f9fb",
            "0x121c30ba75b76a9356c9bc0f0d21559e3193f4ceeeec5d7c5bb17b7b69f0ea4f",
            "0x000000000000000000000000d289d1387ae1033a703842d69501d5bec5a6f04e"
          ],
          "data": "0x0000000000000000000000004d4adec97e3e11693f65dedc2d1e6bec784eb2f100000000000000000000000000000000000000000000000000000000001e8480",
          "blockHash": "0x76b2d8dd580fb3b98c57c794f5992f262a58fa7e1a350b2bfaa8cfbc2e74ea74",
          "blockNumber": "0x26",
          "blockTimestamp": "0x696652e8",
          "transactionHash": "0x300423e1b7811a4c98b5789ca095a5a982d7bc0394b3999fcdba000a7aaae901",
          "transactionIndex": "0x0",
          "logIndex": "0x2",
          "removed": false
        },
        {
          "address": "0x048255dfef2ebfa7307058ae475a3e2f5ee0df46",
          "topics": [
            "0x78160f0b1b2b32b52a0076d8f0f70888687ba702a4d993d55ac8d9327d57a127",
            "0x000000000000000000000000000000000000000000000000000000000000000a",
            "0xc2d399c6e2cc878c17055b5adc0ced5768b87fe187455bc11d0d975993494d3b",
            "0x5dbb903da8de225a420ebc9520260e19675b0562d8524b447bb30258a5a9f282"
          ],
          "data": "0x0544741ff6f2708047138c8f3a68abb994e628666dba785f685ff1035274f9fb00000000000000000000000000000000000000000000000000000000000000400000000000000000000000000000000000000000000000000000000000000080121c30ba75b76a9356c9bc0f0d21559e3193f4ceeeec5d7c5bb17b7b69f0ea4f000000000000000000000000d289d1387ae1033a703842d69501d5bec5a6f04e0000000000000000000000004d4adec97e3e11693f65dedc2d1e6bec784eb2f100000000000000000000000000000000000000000000000000000000001e8480",
          "blockHash": "0x76b2d8dd580fb3b98c57c794f5992f262a58fa7e1a350b2bfaa8cfbc2e74ea74",
          "blockNumber": "0x26",
          "blockTimestamp": "0x696652e8",
          "transactionHash": "0x300423e1b7811a4c98b5789ca095a5a982d7bc0394b3999fcdba000a7aaae901",
          "transactionIndex": "0x0",
          "logIndex": "0x3",
          "removed": false
        }
      ],
      "logsBloom": "0x00000000000000000000100000000080000000000000000000000000000000000000000000000040000000000000000000000000040000010020000000200000000000000000000004000000000000000004000140000000000000000000000000000000000810004000000000000040000000000000000000000000008004000000000000000000010000000000000000001000000000000000040000000000000000000000000000000000000000000000200200000000200000100000000400000000400000100000020000000000000000000200000000000000000000000000000000000000000000000000100000000000000000000000000000804000",
      "type": "0x0",
      "transactionHash": "0x300423e1b7811a4c98b5789ca095a5a982d7bc0394b3999fcdba000a7aaae901",
      "transactionIndex": "0x0",
      "blockHash": "0x76b2d8dd580fb3b98c57c794f5992f262a58fa7e1a350b2bfaa8cfbc2e74ea74",
      "blockNumber": "0x26",
      "gasUsed": "0x46ef3",
      "effectiveGasPrice": "0x3b9aca00",
      "blobGasPrice": "0x1",
      "from": "0xd289d1387ae1033a703842d69501d5bec5a6f04e",
      "to": "0x048255dfef2ebfa7307058ae475a3e2f5ee0df46",
      "contractAddress": null
    },
    {
      "status": "0x1",
      "cumulativeGasUsed": "0x6994",
      "logs": [],
      "logsBloom": "0x00000000000000000000000000000000000000000000000000000000000000000000000000000000000000000000000000000000000000000000000000000000000000000000000000000000000000000000000000000000000000000000000000000000000000000000000000000000000000000000000000000000000000000000000000000000000000000000000000000000000000000000000000000000000000000000000000000000000000000000000000000000000000000000000000000000000000000000000000000000000000000000000000000000000000000000000000000000000000000000000000000000000000000000000000000000",
      "type": "0x0",
      "transactionHash": "0x1c5a6f087ddd01a80266dcc4087775bee248903bc54c495275af6efc654a725e",
      "transactionIndex": "0x0",
      "blockHash": "0x89b357a46ef6b963cd593326066dc9ee1e2c7839677a21f4eb3f35b51628b9c4",
      "blockNumber": "0x27",
      "gasUsed": "0x6994",
      "effectiveGasPrice": "0x3b9aca00",
      "blobGasPrice": "0x1",
      "from": "0xd289d1387ae1033a703842d69501d5bec5a6f04e",
      "to": "0x4d4adec97e3e11693f65dedc2d1e6bec784eb2f1",
      "contractAddress": null
    },
    {
      "status": "0x1",
      "cumulativeGasUsed": "0x5fd8",
      "logs": [],
      "logsBloom": "0x00000000000000000000000000000000000000000000000000000000000000000000000000000000000000000000000000000000000000000000000000000000000000000000000000000000000000000000000000000000000000000000000000000000000000000000000000000000000000000000000000000000000000000000000000000000000000000000000000000000000000000000000000000000000000000000000000000000000000000000000000000000000000000000000000000000000000000000000000000000000000000000000000000000000000000000000000000000000000000000000000000000000000000000000000000000",
      "type": "0x0",
      "transactionHash": "0x14ad21e0465b8f1bf65dbb49dc6d80fe8c9db2523dc493fcadf887416d373978",
      "transactionIndex": "0x0",
      "blockHash": "0x797ab6561066c2cde7b2fd76713fedcade01c2de39987bb511134cb870671153",
      "blockNumber": "0x28",
      "gasUsed": "0x5fd8",
      "effectiveGasPrice": "0x3b9aca00",
      "blobGasPrice": "0x1",
      "from": "0xd289d1387ae1033a703842d69501d5bec5a6f04e",
      "to": "0x4d4adec97e3e11693f65dedc2d1e6bec784eb2f1",
      "contractAddress": null
    },
    {
      "status": "0x1",
      "cumulativeGasUsed": "0x14617",
      "logs": [
        {
          "address": "0x048255dfef2ebfa7307058ae475a3e2f5ee0df46",
          "topics": [
            "0xbc3f7b7e77a395c156c24db8a8a7850209b2df71a2561292eea221e32bf5d467",
            "0x121c30ba75b76a9356c9bc0f0d21559e3193f4ceeeec5d7c5bb17b7b69f0ea4f",
            "0x000000000000000000000000d289d1387ae1033a703842d69501d5bec5a6f04e"
          ],
          "data": "0x00000000000000000000000000000000000000000000000000000000000f4240",
          "blockHash": "0x597175514a34b26c33b6ee8b2bc4882a7629ba9aaacf2c25ba1d0712f2a1fc68",
          "blockNumber": "0x29",
          "blockTimestamp": "0x696652e8",
          "transactionHash": "0xef0bd2177a73707f1329a1c9cd51814e414b15c5f0bba04eff12298902da8785",
          "transactionIndex": "0x0",
          "logIndex": "0x0",
          "removed": false
        },
        {
          "address": "0x048255dfef2ebfa7307058ae475a3e2f5ee0df46",
          "topics": [
            "0x78160f0b1b2b32b52a0076d8f0f70888687ba702a4d993d55ac8d9327d57a127",
            "0x000000000000000000000000000000000000000000000000000000000000000b",
            "0x5dbb903da8de225a420ebc9520260e19675b0562d8524b447bb30258a5a9f282",
            "0x8884e4a2a3351fe457584f397b8157e1f3dfee25871a2585847c6f692e17a449"
          ],
          "data": "0xbc3f7b7e77a395c156c24db8a8a7850209b2df71a2561292eea221e32bf5d46700000000000000000000000000000000000000000000000000000000000000400000000000000000000000000000000000000000000000000000000000000060121c30ba75b76a9356c9bc0f0d21559e3193f4ceeeec5d7c5bb17b7b69f0ea4f000000000000000000000000d289d1387ae1033a703842d69501d5bec5a6f04e00000000000000000000000000000000000000000000000000000000000f4240",
          "blockHash": "0x597175514a34b26c33b6ee8b2bc4882a7629ba9aaacf2c25ba1d0712f2a1fc68",
          "blockNumber": "0x29",
          "blockTimestamp": "0x696652e8",
          "transactionHash": "0xef0bd2177a73707f1329a1c9cd51814e414b15c5f0bba04eff12298902da8785",
          "transactionIndex": "0x0",
          "logIndex": "0x1",
          "removed": false
        }
      ],
      "logsBloom": "0x00000000000000002000004000000080000000000000000000000000000000000000000000000000000000000000000000000000000000000000000000200000000000000000000004000000000000000000000040000004800000000000000000000000000810004000000000000040000000000000000000000000000000000000000000000000000000000000000000000000000000000000000000000000000000000000000000000000000000000000000200000000000000100000000400000000400000000000000000000000002000000200000000000000000000000000040000000000000000000000100000100000000000040000000000004002",
      "type": "0x0",
      "transactionHash": "0xef0bd2177a73707f1329a1c9cd51814e414b15c5f0bba04eff12298902da8785",
      "transactionIndex": "0x0",
      "blockHash": "0x597175514a34b26c33b6ee8b2bc4882a7629ba9aaacf2c25ba1d0712f2a1fc68",
      "blockNumber": "0x29",
      "gasUsed": "0x14617",
      "effectiveGasPrice": "0x3b9aca00",
      "blobGasPrice": "0x1",
      "from": "0xd289d1387ae1033a703842d69501d5bec5a6f04e",
      "to": "0x048255dfef2ebfa7307058ae475a3e2f5ee0df46",
      "contractAddress": null
    },
    {
      "status": "0x1",
      "cumulativeGasUsed": "0x1a29b",
      "logs": [],
      "logsBloom": "0x00000000000000000000000000000000000000000000000000000000000000000000000000000000000000000000000000000000000000000000000000000000000000000000000000000000000000000000000000000000000000000000000000000000000000000000000000000000000000000000000000000000000000000000000000000000000000000000000000000000000000000000000000000000000000000000000000000000000000000000000000000000000000000000000000000000000000000000000000000000000000000000000000000000000000000000000000000000000000000000000000000000000000000000000000000000",
      "type": "0x0",
      "transactionHash": "0x00b79c3452bdb35d9094c2a84d9713d43984b55d56f94d3c5e00452ed02ce923",
      "transactionIndex": "0x0",
      "blockHash": "0x581ed4c897456efb85499a8ba71a6256adf2f704ddb420dc483ae7d2351ae676",
      "blockNumber": "0x2a",
      "gasUsed": "0x1a29b",
      "effectiveGasPrice": "0x3b9aca00",
      "blobGasPrice": "0x1",
      "from": "0xd289d1387ae1033a703842d69501d5bec5a6f04e",
      "to": "0x8c16d2f19a034b7281254f5656c2d1461c6ceb9a",
      "contractAddress": null
    },
    {
      "status": "0x1",
      "cumulativeGasUsed": "0x207ba",
      "logs": [
        {
          "address": "0x048255dfef2ebfa7307058ae475a3e2f5ee0df46",
          "topics": [
            "0xfa797585c9827d59a7694ef382241f1a03ced6a1a2b4353b35939abc4d04b286",
            "0x121c30ba75b76a9356c9bc0f0d21559e3193f4ceeeec5d7c5bb17b7b69f0ea4f",
            "0x000000000000000000000000d289d1387ae1033a703842d69501d5bec5a6f04e"
          ],
          "data": "0x00000000000000000000000000000000000000000000000000000000000000000000000000000000000000000000000000000000000000000000000000000000",
          "blockHash": "0x2c0c730d8e02743351c154a5379367a57bbf4dea83261a928aeea544bd32c0de",
          "blockNumber": "0x2b",
          "blockTimestamp": "0x696652e8",
          "transactionHash": "0x43c6f30e98cd3588f7d6be8d5ceb1c4bd0533db0ff173e40a25861fb477437ba",
          "transactionIndex": "0x0",
          "logIndex": "0x0",
          "removed": false
        },
        {
          "address": "0x048255dfef2ebfa7307058ae475a3e2f5ee0df46",
          "topics": [
            "0x78160f0b1b2b32b52a0076d8f0f70888687ba702a4d993d55ac8d9327d57a127",
            "0x000000000000000000000000000000000000000000000000000000000000000c",
            "0x8884e4a2a3351fe457584f397b8157e1f3dfee25871a2585847c6f692e17a449",
            "0xbe926f88ee15abddff80b6046d01c26a0dcdcdd159c84158acaa309c3e7114fe"
          ],
          "data": "0xfa797585c9827d59a7694ef382241f1a03ced6a1a2b4353b35939abc4d04b28600000000000000000000000000000000000000000000000000000000000000400000000000000000000000000000000000000000000000000000000000000080121c30ba75b76a9356c9bc0f0d21559e3193f4ceeeec5d7c5bb17b7b69f0ea4f000000000000000000000000d289d1387ae1033a703842d69501d5bec5a6f04e00000000000000000000000000000000000000000000000000000000000000000000000000000000000000000000000000000000000000000000000000000000",
          "blockHash": "0x2c0c730d8e02743351c154a5379367a57bbf4dea83261a928aeea544bd32c0de",
          "blockNumber": "0x2b",
          "blockTimestamp": "0x696652e8",
          "transactionHash": "0x43c6f30e98cd3588f7d6be8d5ceb1c4bd0533db0ff173e40a25861fb477437ba",
          "transactionIndex": "0x0",
          "logIndex": "0x1",
          "removed": false
        },
        {
          "address": "0x048255dfef2ebfa7307058ae475a3e2f5ee0df46",
          "topics": [
            "0x16bfb64ae70b8a9bbda28deb27a1cbc5ec3e6497481714344c221b46c0777f35",
            "0x121c30ba75b76a9356c9bc0f0d21559e3193f4ceeeec5d7c5bb17b7b69f0ea4f",
            "0x000000000000000000000000d289d1387ae1033a703842d69501d5bec5a6f04e"
          ],
          "data": "0x0000000000000000000000004d4adec97e3e11693f65dedc2d1e6bec784eb2f100000000000000000000000000000000000000000000000000000000001e84800000000000000000000000004d4adec97e3e11693f65dedc2d1e6bec784eb2f100000000000000000000000000000000000000000000000000000000000f4240",
          "blockHash": "0x2c0c730d8e02743351c154a5379367a57bbf4dea83261a928aeea544bd32c0de",
          "blockNumber": "0x2b",
          "blockTimestamp": "0x696652e8",
          "transactionHash": "0x43c6f30e98cd3588f7d6be8d5ceb1c4bd0533db0ff173e40a25861fb477437ba",
          "transactionIndex": "0x0",
          "logIndex": "0x2",
          "removed": false
        },
        {
          "address": "0x048255dfef2ebfa7307058ae475a3e2f5ee0df46",
          "topics": [
            "0x78160f0b1b2b32b52a0076d8f0f70888687ba702a4d993d55ac8d9327d57a127",
            "0x000000000000000000000000000000000000000000000000000000000000000d",
            "0xbe926f88ee15abddff80b6046d01c26a0dcdcdd159c84158acaa309c3e7114fe",
            "0x201b72d8b84a003f912faee732f36152e1bd8b9a8ae02146976095f8963cf772"
          ],
          "data": "0x16bfb64ae70b8a9bbda28deb27a1cbc5ec3e6497481714344c221b46c0777f35000000000000000000000000000000000000000000000000000000000000004000000000000000000000000000000000000000000000000000000000000000c0121c30ba75b76a9356c9bc0f0d21559e3193f4ceeeec5d7c5bb17b7b69f0ea4f000000000000000000000000d289d1387ae1033a703842d69501d5bec5a6f04e0000000000000000000000004d4adec97e3e11693f65dedc2d1e6bec784eb2f100000000000000000000000000000000000000000000000000000000001e84800000000000000000000000004d4adec97e3e11693f65dedc2d1e6bec784eb2f100000000000000000000000000000000000000000000000000000000000f4240",
          "blockHash": "0x2c0c730d8e02743351c154a5379367a57bbf4dea83261a928aeea544bd32c0de",
          "blockNumber": "0x2b",
          "blockTimestamp": "0x696652e8",
          "transactionHash": "0x43c6f30e98cd3588f7d6be8d5ceb1c4bd0533db0ff173e40a25861fb477437ba",
          "transactionIndex": "0x0",
          "logIndex": "0x3",
          "removed": false
        }
      ],
      "logsBloom": "0x00200000020000000040000000000000000002000000000000000000000080000000000000000200000000000000000200000000000000000002000000200000000000000000000004000000000000000002000000000000800200000000000000000000000810004000004000000000000000000000000000000000000000000000000000000000000000000000000000000000000000000000010000000000000200000000000000000002000000000000000200000000000000100000000410000000400000000000000000000000000000000200000000000000000000220000040000000000000000000000100000100000000000000000000002004000",
      "type": "0x0",
      "transactionHash": "0x43c6f30e98cd3588f7d6be8d5ceb1c4bd0533db0ff173e40a25861fb477437ba",
      "transactionIndex": "0x0",
      "blockHash": "0x2c0c730d8e02743351c154a5379367a57bbf4dea83261a928aeea544bd32c0de",
      "blockNumber": "0x2b",
      "gasUsed": "0x207ba",
      "effectiveGasPrice": "0x3b9aca00",
      "blobGasPrice": "0x1",
      "from": "0xd289d1387ae1033a703842d69501d5bec5a6f04e",
      "to": "0x048255dfef2ebfa7307058ae475a3e2f5ee0df46",
      "contractAddress": null
    },
    {
      "status": "0x1",
      "cumulativeGasUsed": "0x6994",
      "logs": [],
      "logsBloom": "0x00000000000000000000000000000000000000000000000000000000000000000000000000000000000000000000000000000000000000000000000000000000000000000000000000000000000000000000000000000000000000000000000000000000000000000000000000000000000000000000000000000000000000000000000000000000000000000000000000000000000000000000000000000000000000000000000000000000000000000000000000000000000000000000000000000000000000000000000000000000000000000000000000000000000000000000000000000000000000000000000000000000000000000000000000000000",
      "type": "0x0",
      "transactionHash": "0xd0320ea4101225e3cdf0058c477936642fac4dcaca976e91576a4ef8209222a1",
      "transactionIndex": "0x0",
      "blockHash": "0x854b6e05ec5d13cdb7b018b95c8a8ba8b0352cc67a9788fb902b8fa6719feae5",
      "blockNumber": "0x2c",
      "gasUsed": "0x6994",
      "effectiveGasPrice": "0x3b9aca00",
      "blobGasPrice": "0x1",
      "from": "0xd289d1387ae1033a703842d69501d5bec5a6f04e",
      "to": "0xf86c23c1e883ee3b820fb9be75ff91c9a49eae75",
      "contractAddress": null
    },
    {
      "status": "0x1",
      "cumulativeGasUsed": "0x5fd8",
      "logs": [],
      "logsBloom": "0x00000000000000000000000000000000000000000000000000000000000000000000000000000000000000000000000000000000000000000000000000000000000000000000000000000000000000000000000000000000000000000000000000000000000000000000000000000000000000000000000000000000000000000000000000000000000000000000000000000000000000000000000000000000000000000000000000000000000000000000000000000000000000000000000000000000000000000000000000000000000000000000000000000000000000000000000000000000000000000000000000000000000000000000000000000000",
      "type": "0x0",
      "transactionHash": "0x9ba2356eba8d92e29a09975d422f7a521e444f1e961e2ba70fe2dbc28213ae9b",
      "transactionIndex": "0x0",
      "blockHash": "0xf5acaacf49c7f9e92c2a9610fa06c29806ec37ea960a87566f89b49aeecd9b9a",
      "blockNumber": "0x2d",
      "gasUsed": "0x5fd8",
      "effectiveGasPrice": "0x3b9aca00",
      "blobGasPrice": "0x1",
      "from": "0xd289d1387ae1033a703842d69501d5bec5a6f04e",
      "to": "0xf86c23c1e883ee3b820fb9be75ff91c9a49eae75",
      "contractAddress": null
    },
    {
      "status": "0x1",
      "cumulativeGasUsed": "0x52d45",
      "logs": [
        {
          "address": "0x048255dfef2ebfa7307058ae475a3e2f5ee0df46",
          "topics": [
            "0x6f81b8ad0780a0febc687a3a73b181433722b4be30f7f0a024169f5161267287",
            "0x15b9517f84e81219f907e347d0894b01e0d21e5729f301eef26bc1aa086b15e8",
            "0x000000000000000000000000d289d1387ae1033a703842d69501d5bec5a6f04e"
          ],
          "data": "0x0000000000000000000000000000000000000000000000000000000000000000000000000000000000000000f86c23c1e883ee3b820fb9be75ff91c9a49eae7500000000000000000000000000000000000000000000000000000000000f4240000000000000000000000000d289d1387ae1033a703842d69501d5bec5a6f04e000000000000000000000000000000000000000000000000000000000000000100000000000000000000000000000000000000000000000000000000000000c000000000000000000000000000000000000000000000000000000000000000a000000000000000000000000000000000000000000000000000000000000000200000000000000000000000005457e258a09ebfb4a2501a9e3d70d37f54f923f300000000000000000000000000000000000000000000000000000000000000400000000000000000000000000000000000000000000000000000000000000002beef000000000000000000000000000000000000000000000000000000000000",
          "blockHash": "0x1df62df6c69982bd5f20ef7c0a5bd53f7e57f38882f0077c5e732acb391c6470",
          "blockNumber": "0x2e",
          "blockTimestamp": "0x696652e8",
          "transactionHash": "0xdf9febf9be0dae05381e4625c6ea28a6c906924069f532bcefc5c62879f43b6e",
          "transactionIndex": "0x0",
          "logIndex": "0x0",
          "removed": false
        },
        {
          "address": "0x048255dfef2ebfa7307058ae475a3e2f5ee0df46",
          "topics": [
            "0x78160f0b1b2b32b52a0076d8f0f70888687ba702a4d993d55ac8d9327d57a127",
            "0x000000000000000000000000000000000000000000000000000000000000000e",
            "0x201b72d8b84a003f912faee732f36152e1bd8b9a8ae02146976095f8963cf772",
            "0x0467c6cd682629114416511952e8d922b6e130dfa4c1ef2cd5e50a3e8e404e68"
          ],
          "data": "0x6f81b8ad0780a0febc687a3a73b181433722b4be30f7f0a024169f5161267287000000000000000000000000000000000000000000000000000000000000004000000000000000000000000000000000000000000000000000000000000001c015b9517f84e81219f907e347d0894b01e0d21e5729f301eef26bc1aa086b15e8000000000000000000000000d289d1387ae1033a703842d69501d5bec5a6f04e0000000000000000000000000000000000000000000000000000000000000000000000000000000000000000f86c23c1e883ee3b820fb9be75ff91c9a49eae7500000000000000000000000000000000000000000000000000000000000f4240000000000000000000000000d289d1387ae1033a703842d69501d5bec5a6f04e0000000000000000000000000000000000000000000000000000000000000001000000000000000000000000000000000000000000000000000000000000010000000000000000000000000000000000000000000000000000000000000000a000000000000000000000000000000000000000000000000000000000000000200000000000000000000000005457e258a09ebfb4a2501a9e3d70d37f54f923f300000000000000000000000000000000000000000000000000000000000000400000000000000000000000000000000000000000000000000000000000000002beef000000000000000000000000000000000000000000000000000000000000",
          "blockHash": "0x1df62df6c69982bd5f20ef7c0a5bd53f7e57f38882f0077c5e732acb391c6470",
          "blockNumber": "0x2e",
          "blockTimestamp": "0x696652e8",
          "transactionHash": "0xdf9febf9be0dae05381e4625c6ea28a6c906924069f532bcefc5c62879f43b6e",
          "transactionIndex": "0x0",
          "logIndex": "0x1",
          "removed": false
        },
        {
          "address": "0x048255dfef2ebfa7307058ae475a3e2f5ee0df46",
          "topics": [
            "0x0544741ff6f2708047138c8f3a68abb994e628666dba785f685ff1035274f9fb",
            "0x15b9517f84e81219f907e347d0894b01e0d21e5729f301eef26bc1aa086b15e8",
            "0x000000000000000000000000d289d1387ae1033a703842d69501d5bec5a6f04e"
          ],
          "data": "0x000000000000000000000000f86c23c1e883ee3b820fb9be75ff91c9a49eae7500000000000000000000000000000000000000000000000000000000000f4240",
          "blockHash": "0x1df62df6c69982bd5f20ef7c0a5bd53f7e57f38882f0077c5e732acb391c6470",
          "blockNumber": "0x2e",
          "blockTimestamp": "0x696652e8",
          "transactionHash": "0xdf9febf9be0dae05381e4625c6ea28a6c906924069f532bcefc5c62879f43b6e",
          "transactionIndex": "0x0",
          "logIndex": "0x2",
          "removed": false
        },
        {
          "address": "0x048255dfef2ebfa7307058ae475a3e2f5ee0df46",
          "topics": [
            "0x78160f0b1b2b32b52a0076d8f0f70888687ba702a4d993d55ac8d9327d57a127",
            "0x000000000000000000000000000000000000000000000000000000000000000f",
            "0x0467c6cd682629114416511952e8d922b6e130dfa4c1ef2cd5e50a3e8e404e68",
            "0x1ac9e84c64946d61ff8dca6450a88a123861287cba463708a65600874012cbfc"
          ],
          "data": "0x0544741ff6f2708047138c8f3a68abb994e628666dba785f685ff1035274f9fb0000000000000000000000000000000000000000000000000000000000000040000000000000000000000000000000000000000000000000000000000000008015b9517f84e81219f907e347d0894b01e0d21e5729f301eef26bc1aa086b15e8000000000000000000000000d289d1387ae1033a703842d69501d5bec5a6f04e000000000000000000000000f86c23c1e883ee3b820fb9be75ff91c9a49eae7500000000000000000000000000000000000000000000000000000000000f4240",
          "blockHash": "0x1df62df6c69982bd5f20ef7c0a5bd53f7e57f38882f0077c5e732acb391c6470",
          "blockNumber": "0x2e",
          "blockTimestamp": "0x696652e8",
          "transactionHash": "0xdf9febf9be0dae05381e4625c6ea28a6c906924069f532bcefc5c62879f43b6e",
          "transactionIndex": "0x0",
          "logIndex": "0x3",
          "removed": false
        }
      ],
      "logsBloom": "0x002000000000000000000000000000000000000000000000000000000000000000000000000000000400000000000000400000000000000000000000002010000000000000000008040000000000000000040001000000000002000000020000000000000008020040000040000000000000000000000000080000000080000000000200000008000000000000000000080000000000000000000000000000000000000000000040000000000000000000002002000000202000000000000000000000004000000000000a0000000000000000000200000000000000000000000000000200000000000000000000100000000100000000000000000000004000",
      "type": "0x0",
      "transactionHash": "0xdf9febf9be0dae05381e4625c6ea28a6c906924069f532bcefc5c62879f43b6e",
      "transactionIndex": "0x0",
      "blockHash": "0x1df62df6c69982bd5f20ef7c0a5bd53f7e57f38882f0077c5e732acb391c6470",
      "blockNumber": "0x2e",
      "gasUsed": "0x52d45",
      "effectiveGasPrice": "0x3b9aca00",
      "blobGasPrice": "0x1",
      "from": "0xd289d1387ae1033a703842d69501d5bec5a6f04e",
      "to": "0x048255dfef2ebfa7307058ae475a3e2f5ee0df46",
      "contractAddress": null
    },
    {
      "status": "0x1",
      "cumulativeGasUsed": "0x17083",
      "logs": [
        {
          "address": "0x048255dfef2ebfa7307058ae475a3e2f5ee0df46",
          "topics": [
            "0x6db2da0f661d59d5a9c767b6ba61a9c192765a6aab952e5e53ea77175332f13d",
            "0x15b9517f84e81219f907e347d0894b01e0d21e5729f301eef26bc1aa086b15e8",
            "0x000000000000000000000000d289d1387ae1033a703842d69501d5bec5a6f04e"
          ],
          "data": "0x000000000000000000000000000000000000000000000000000000000000000000000000000000000000000000000000000000000000000000000000000000010000000000000000000000000000000000000000000000000000000000000000000000000000000000000000d289d1387ae1033a703842d69501d5bec5a6f04e000000000000000000000000f86c23c1e883ee3b820fb9be75ff91c9a49eae7500000000000000000000000000000000000000000000000000000000000f42400000000000000000000000004d4adec97e3e11693f65dedc2d1e6bec784eb2f1000000000000000000000000000000000000000000000000000000000000000000000000000000000000000000000000000000000000000000000000000000000000000000000000000000000000000000000000000000000000000000000000",
          "blockHash": "0x300bda5ad948e894d393e99df72c091885eee375313c96e2e6976057ff3db6e3",
          "blockNumber": "0x2f",
          "blockTimestamp": "0x696652e8",
          "transactionHash": "0x25955bd7ab1a92c65c59326657b4f91d21bafc700fb5375a9a12363b37d554fb",
          "transactionIndex": "0x0",
          "logIndex": "0x0",
          "removed": false
        },
        {
          "address": "0x048255dfef2ebfa7307058ae475a3e2f5ee0df46",
          "topics": [
            "0x78160f0b1b2b32b52a0076d8f0f70888687ba702a4d993d55ac8d9327d57a127",
            "0x0000000000000000000000000000000000000000000000000000000000000010",
            "0x1ac9e84c64946d61ff8dca6450a88a123861287cba463708a65600874012cbfc",
            "0xc3c6846dc5a5ee26f163881fbfb607287b5e6c3a44cf7f0674d4591401423691"
          ],
          "data": "0x6db2da0f661d59d5a9c767b6ba61a9c192765a6aab952e5e53ea77175332f13d0000000000000000000000000000000000000000000000000000000000000040000000000000000000000000000000000000000000000000000000000000018015b9517f84e81219f907e347d0894b01e0d21e5729f301eef26bc1aa086b15e8000000000000000000000000d289d1387ae1033a703842d69501d5bec5a6f04e000000000000000000000000000000000000000000000000000000000000000000000000000000000000000000000000000000000000000000000000000000010000000000000000000000000000000000000000000000000000000000000000000000000000000000000000d289d1387ae1033a703842d69501d5bec5a6f04e000000000000000000000000f86c23c1e883ee3b820fb9be75ff91c9a49eae7500000000000000000000000000000000000000000000000000000000000f42400000000000000000000000004d4adec97e3e11693f65dedc2d1e6bec784eb2f1000000000000000000000000000000000000000000000000000000000000000000000000000000000000000000000000000000000000000000000000000000000000000000000000000000000000000000000000000000000000000000000000",
          "blockHash": "0x300bda5ad948e894d393e99df72c091885eee375313c96e2e6976057ff3db6e3",
          "blockNumber": "0x2f",
          "blockTimestamp": "0x696652e8",
          "transactionHash": "0x25955bd7ab1a92c65c59326657b4f91d21bafc700fb5375a9a12363b37d554fb",
          "transactionIndex": "0x0",
          "logIndex": "0x1",
          "removed": false
        }
      ],
      "logsBloom": "0x00000000100000000000000001000000000000000000000000000000000000000000000000000000040000000000000040000000000000000000000000200000000000000000000004000000000000000000000000000000000000000000000000000000000800004000010000000000000000000000000008000000040000000000020000000000000000040000000000000100000000100000000000000000000000000000000000000000000000000000000220000000000080000000000000000000400000000000080000000000000000000200000000000000000000000000000000000000000000000000100000000100000000000000000000004000",
      "type": "0x0",
      "transactionHash": "0x25955bd7ab1a92c65c59326657b4f91d21bafc700fb5375a9a12363b37d554fb",
      "transactionIndex": "0x0",
      "blockHash": "0x300bda5ad948e894d393e99df72c091885eee375313c96e2e6976057ff3db6e3",
      "blockNumber": "0x2f",
      "gasUsed": "0x17083",
      "effectiveGasPrice": "0x3b9aca00",
      "blobGasPrice": "0x1",
      "from": "0xd289d1387ae1033a703842d69501d5bec5a6f04e",
      "to": "0x048255dfef2ebfa7307058ae475a3e2f5ee0df46",
      "contractAddress": null
    },
    {
      "status": "0x1",
      "cumulativeGasUsed": "0xac54",
      "logs": [],
      "logsBloom": "0x00000000000000000000000000000000000000000000000000000000000000000000000000000000000000000000000000000000000000000000000000000000000000000000000000000000000000000000000000000000000000000000000000000000000000000000000000000000000000000000000000000000000000000000000000000000000000000000000000000000000000000000000000000000000000000000000000000000000000000000000000000000000000000000000000000000000000000000000000000000000000000000000000000000000000000000000000000000000000000000000000000000000000000000000000000000",
      "type": "0x0",
      "transactionHash": "0xb6a8f3b9deae1eb7e331a012bc5a53500543da1ae7702867e71b94963ba23d13",
      "transactionIndex": "0x0",
      "blockHash": "0x0f3d47fcf50d4754de8b4ae1a98349f3635f6c31be74dffeb4db0dd8daec2a91",
      "blockNumber": "0x30",
      "gasUsed": "0xac54",
      "effectiveGasPrice": "0x3b9aca00",
      "blobGasPrice": "0x1",
      "from": "0xd289d1387ae1033a703842d69501d5bec5a6f04e",
      "to": "0x4d4adec97e3e11693f65dedc2d1e6bec784eb2f1",
      "contractAddress": null
    },
    {
      "status": "0x1",
      "cumulativeGasUsed": "0x3d7f7",
      "logs": [
        {
          "address": "0x8828fd7431d5bb1962d7e067c103b2324fa6bbec",
          "topics": [
            "0x7391f14355eff1e559e381f5bf49886a77da7c4fdd33c6fc2e0142269c561c59",
            "0x8c4a80b608fff7a7cb1f1639913031db92696be712ee8469533b8298c78aa87e",
            "0x7eb964445de6c2e66bcec24d55b50c465b3b27091b6d503c1897ac7d99ecbe35",
            "0x38cb7bc9535f8b89744a14dd2acfe7dcc993eb5f668dfbcb95bdf21a839e2ec0"
          ],
          "data": "0x805137159b1f1225efc7ae36f6b216b76c0e9bed085c4220b2f702fde8defd0400000000000000000000000000000000000000000000000000000000000000de000000000000000000000000048255dfef2ebfa7307058ae475a3e2f5ee0df46000000000000000000000000000000000000000000000000000000000000000100000000000000000000000000000000000000000000000000000000009897cd0000000000000000000000004d4adec97e3e11693f65dedc2d1e6bec784eb2f10000000000000000000000004d4adec97e3e11693f65dedc2d1e6bec784eb2f1000000000000000000000000861529c93d74a2d9b8d7d0009b7c183dceb54e3e000000000000000000000000861529c93d74a2d9b8d7d0009b7c183dceb54e3e",
          "blockHash": "0xae53874538cfeb1e82720ddbb171aec163ff539a484a876e8dc586970d0ff2ac",
          "blockNumber": "0x31",
          "blockTimestamp": "0x696652e8",
          "transactionHash": "0x2f1aa65ff22cdb4d1dee8226ee8b48be78c4de85700e0880923abacae688c712",
          "transactionIndex": "0x0",
          "logIndex": "0x0",
          "removed": false
        },
        {
          "address": "0x8828fd7431d5bb1962d7e067c103b2324fa6bbec",
          "topics": [
            "0x78160f0b1b2b32b52a0076d8f0f70888687ba702a4d993d55ac8d9327d57a127",
            "0x0000000000000000000000000000000000000000000000000000000000000010",
            "0x29f0ccc15a45085d7eb8b4356d773b5c8fbe372f0fa2adc6143462f34fa76713",
            "0x61255df7823a2cb1f2b90a1b9d8212fb359becf8bf23449c7f54d3077d93bd56"
          ],
          "data": "0x7391f14355eff1e559e381f5bf49886a77da7c4fdd33c6fc2e0142269c561c59000000000000000000000000000000000000000000000000000000000000004000000000000000000000000000000000000000000000000000000000000001808c4a80b608fff7a7cb1f1639913031db92696be712ee8469533b8298c78aa87e7eb964445de6c2e66bcec24d55b50c465b3b27091b6d503c1897ac7d99ecbe3538cb7bc9535f8b89744a14dd2acfe7dcc993eb5f668dfbcb95bdf21a839e2ec0805137159b1f1225efc7ae36f6b216b76c0e9bed085c4220b2f702fde8defd0400000000000000000000000000000000000000000000000000000000000000de000000000000000000000000048255dfef2ebfa7307058ae475a3e2f5ee0df46000000000000000000000000000000000000000000000000000000000000000100000000000000000000000000000000000000000000000000000000009897cd0000000000000000000000004d4adec97e3e11693f65dedc2d1e6bec784eb2f10000000000000000000000004d4adec97e3e11693f65dedc2d1e6bec784eb2f1000000000000000000000000861529c93d74a2d9b8d7d0009b7c183dceb54e3e000000000000000000000000861529c93d74a2d9b8d7d0009b7c183dceb54e3e",
          "blockHash": "0xae53874538cfeb1e82720ddbb171aec163ff539a484a876e8dc586970d0ff2ac",
          "blockNumber": "0x31",
          "blockTimestamp": "0x696652e8",
          "transactionHash": "0x2f1aa65ff22cdb4d1dee8226ee8b48be78c4de85700e0880923abacae688c712",
          "transactionIndex": "0x0",
          "logIndex": "0x1",
          "removed": false
        },
        {
          "address": "0x8828fd7431d5bb1962d7e067c103b2324fa6bbec",
          "topics": [
            "0x488f06a9ca9e19e1dd90c764cc79b765e8a3a089ef27d9a0e39dee21c7643188",
            "0xb3cb2e80a7de33973a9288caef1d4d48cc21929625b89e97e8107fcc275dbc86",
            "0x000000000000000000000000861529c93d74a2d9b8d7d0009b7c183dceb54e3e"
          ],
          "data": "0x000000000000000000000000e007a594267d5b9a4f5bf6fd054579eb82f5a057",
          "blockHash": "0xae53874538cfeb1e82720ddbb171aec163ff539a484a876e8dc586970d0ff2ac",
          "blockNumber": "0x31",
          "blockTimestamp": "0x696652e8",
          "transactionHash": "0x2f1aa65ff22cdb4d1dee8226ee8b48be78c4de85700e0880923abacae688c712",
          "transactionIndex": "0x0",
          "logIndex": "0x2",
          "removed": false
        },
        {
          "address": "0x8828fd7431d5bb1962d7e067c103b2324fa6bbec",
          "topics": [
            "0x78160f0b1b2b32b52a0076d8f0f70888687ba702a4d993d55ac8d9327d57a127",
            "0x0000000000000000000000000000000000000000000000000000000000000011",
            "0x61255df7823a2cb1f2b90a1b9d8212fb359becf8bf23449c7f54d3077d93bd56",
            "0xfcb62718af7c2d3211200a4844fa7cc2b66c96fc12fdc59851d6bccce43df946"
          ],
          "data": "0x488f06a9ca9e19e1dd90c764cc79b765e8a3a089ef27d9a0e39dee21c764318800000000000000000000000000000000000000000000000000000000000000400000000000000000000000000000000000000000000000000000000000000060b3cb2e80a7de33973a9288caef1d4d48cc21929625b89e97e8107fcc275dbc86000000000000000000000000861529c93d74a2d9b8d7d0009b7c183dceb54e3e000000000000000000000000e007a594267d5b9a4f5bf6fd054579eb82f5a057",
          "blockHash": "0xae53874538cfeb1e82720ddbb171aec163ff539a484a876e8dc586970d0ff2ac",
          "blockNumber": "0x31",
          "blockTimestamp": "0x696652e8",
          "transactionHash": "0x2f1aa65ff22cdb4d1dee8226ee8b48be78c4de85700e0880923abacae688c712",
          "transactionIndex": "0x0",
          "logIndex": "0x3",
          "removed": false
        },
        {
          "address": "0x8828fd7431d5bb1962d7e067c103b2324fa6bbec",
          "topics": [
            "0x2dfcf646f953b41d2cd9d30bcf3f6cda5248efcd7733adff3a25e88f35b8afcb",
            "0x8c4a80b608fff7a7cb1f1639913031db92696be712ee8469533b8298c78aa87e",
            "0x000000000000000000000000c5ea444a0f556f5b227ec7447294d91086bb692c",
            "0x0000000000000000000000004d4adec97e3e11693f65dedc2d1e6bec784eb2f1"
          ],
          "data": "0x00000000000000000000000000000000000000000000000000000000009897cd00000000000000000000000000000000000000000000000000000000000000de",
          "blockHash": "0xae53874538cfeb1e82720ddbb171aec163ff539a484a876e8dc586970d0ff2ac",
          "blockNumber": "0x31",
          "blockTimestamp": "0x696652e8",
          "transactionHash": "0x2f1aa65ff22cdb4d1dee8226ee8b48be78c4de85700e0880923abacae688c712",
          "transactionIndex": "0x0",
          "logIndex": "0x4",
          "removed": false
        },
        {
          "address": "0x8828fd7431d5bb1962d7e067c103b2324fa6bbec",
          "topics": [
            "0x78160f0b1b2b32b52a0076d8f0f70888687ba702a4d993d55ac8d9327d57a127",
            "0x0000000000000000000000000000000000000000000000000000000000000012",
            "0xfcb62718af7c2d3211200a4844fa7cc2b66c96fc12fdc59851d6bccce43df946",
            "0xad409c5d362f20c0e7d2cd08cf79a801f12a2450244ab8b1f6fdcff3343a8cac"
          ],
          "data": "0x2dfcf646f953b41d2cd9d30bcf3f6cda5248efcd7733adff3a25e88f35b8afcb000000000000000000000000000000000000000000000000000000000000004000000000000000000000000000000000000000000000000000000000000000a08c4a80b608fff7a7cb1f1639913031db92696be712ee8469533b8298c78aa87e000000000000000000000000c5ea444a0f556f5b227ec7447294d91086bb692c0000000000000000000000004d4adec97e3e11693f65dedc2d1e6bec784eb2f100000000000000000000000000000000000000000000000000000000009897cd00000000000000000000000000000000000000000000000000000000000000de",
          "blockHash": "0xae53874538cfeb1e82720ddbb171aec163ff539a484a876e8dc586970d0ff2ac",
          "blockNumber": "0x31",
          "blockTimestamp": "0x696652e8",
          "transactionHash": "0x2f1aa65ff22cdb4d1dee8226ee8b48be78c4de85700e0880923abacae688c712",
          "transactionIndex": "0x0",
          "logIndex": "0x5",
          "removed": false
        },
        {
          "address": "0x8828fd7431d5bb1962d7e067c103b2324fa6bbec",
          "topics": [
            "0x2e659081f44c4f56a18b00f3f9d136d7ee8396bc79163c4d61363ddcf4a4cb27",
            "0x8c4a80b608fff7a7cb1f1639913031db92696be712ee8469533b8298c78aa87e"
          ],
          "data": "0x000000000000000000000000000000000000000000000000000000000000000100000000000000000000000000000000000000000000000000000000009897cd00000000000000000000000000000000000000000000000000000000009897cd000000000000000000000000000000000000000000000000000000000000000000000000000000000000000000000000000000000000000000000000000000000000000000000000000000000000000000000000000000000000000000000000000000000000000000000000c5ea444a0f556f5b227ec7447294d91086bb692c00000000000000000000000000000000000000000000000000000000009897cdc5d2460186f7233c927e7db2dcc703c0e500b653ca82273b7bfad8045d85a470",
          "blockHash": "0xae53874538cfeb1e82720ddbb171aec163ff539a484a876e8dc586970d0ff2ac",
          "blockNumber": "0x31",
          "blockTimestamp": "0x696652e8",
          "transactionHash": "0x2f1aa65ff22cdb4d1dee8226ee8b48be78c4de85700e0880923abacae688c712",
          "transactionIndex": "0x0",
          "logIndex": "0x6",
          "removed": false
        },
        {
          "address": "0x8828fd7431d5bb1962d7e067c103b2324fa6bbec",
          "topics": [
            "0x78160f0b1b2b32b52a0076d8f0f70888687ba702a4d993d55ac8d9327d57a127",
            "0x0000000000000000000000000000000000000000000000000000000000000013",
            "0xad409c5d362f20c0e7d2cd08cf79a801f12a2450244ab8b1f6fdcff3343a8cac",
            "0x14ecebff39760ef148a937419f36070eb187f2acf111ca961ed4dcf55e04d9d0"
          ],
          "data": "0x2e659081f44c4f56a18b00f3f9d136d7ee8396bc79163c4d61363ddcf4a4cb27000000000000000000000000000000000000000000000000000000000000004000000000000000000000000000000000000000000000000000000000000001408c4a80b608fff7a7cb1f1639913031db92696be712ee8469533b8298c78aa87e000000000000000000000000000000000000000000000000000000000000000100000000000000000000000000000000000000000000000000000000009897cd00000000000000000000000000000000000000000000000000000000009897cd000000000000000000000000000000000000000000000000000000000000000000000000000000000000000000000000000000000000000000000000000000000000000000000000000000000000000000000000000000000000000000000000000000000000000000000000c5ea444a0f556f5b227ec7447294d91086bb692c00000000000000000000000000000000000000000000000000000000009897cdc5d2460186f7233c927e7db2dcc703c0e500b653ca82273b7bfad8045d85a470",
          "blockHash": "0xae53874538cfeb1e82720ddbb171aec163ff539a484a876e8dc586970d0ff2ac",
          "blockNumber": "0x31",
          "blockTimestamp": "0x696652e8",
          "transactionHash": "0x2f1aa65ff22cdb4d1dee8226ee8b48be78c4de85700e0880923abacae688c712",
          "transactionIndex": "0x0",
          "logIndex": "0x7",
          "removed": false
        }
      ],
      "logsBloom": "0x20000001100010000000020000800000000000000800000000000000000002000000002040000000000000000000000a0000000000000020200000080020000080000000020000000100000040000080000000000000002008000010000000000000002000080000000000040004040800000000400000008000000004000000008000000004008000000020000006000000010000000002000000002000000000000800400040000000000000000000000000001c000040000100000400000004201000000008000400000000000000000000000020000400010000000000000000000000000002000000040000000100001000010000000000000400004000",
      "type": "0x0",
      "transactionHash": "0x2f1aa65ff22cdb4d1dee8226ee8b48be78c4de85700e0880923abacae688c712",
      "transactionIndex": "0x0",
      "blockHash": "0xae53874538cfeb1e82720ddbb171aec163ff539a484a876e8dc586970d0ff2ac",
      "blockNumber": "0x31",
      "gasUsed": "0x3d7f7",
      "effectiveGasPrice": "0x3b9aca00",
      "blobGasPrice": "0x1",
      "from": "0xd289d1387ae1033a703842d69501d5bec5a6f04e",
      "to": "0x8828fd7431d5bb1962d7e067c103b2324fa6bbec",
      "contractAddress": null
    }
  ],
  "libraries": [],
  "pending": [],
  "returns": {},
  "timestamp": 1768313576153,
  "chain": 333,
  "commit": "24bfcfb"
}