{
  "transactions": [
    {
      "hash": "0x0bd00aafbb67c67bf0d7afc58065ef5a70ff3bcaa705d25ae06c399210b95d62",
      "transactionType": "CREATE",
      "contractName": "ExactBridger",
      "contractAddress": "0x0be19c78706c441de4178a2266a650e47160eda7",
      "function": null,
      "arguments": null,
      "transaction": {
        "from": "0xd289d1387ae1033a703842d69501d5bec5a6f04e",
        "value": "0x0",
        "input": "0x60808060405234601557610521908161001a8239f35b5f80fdfe608080604052600436101561001c575b50361561001a575f80fd5b005b5f3560e01c9081631fce5d1114610478575080632267cb0814610450578063463d1fca146104335780637f8945821461035557806384def41c1461033c57806389c905d21461031f578063a678341d14610302578063b14d361d146100ac5763ff7b2edd1461008b575f61000f565b346100a8575f3660031901126100a8576020600654604051908152f35b5f80fd5b60a03660031901126100a8576004356001600160a01b038116908190036100a8576044356001600160a01b03811691602435918390036100a8576084359267ffffffffffffffff84116100a857366023850112156100a85783600401359167ffffffffffffffff83116100a85736602484870101116100a8576bffffffffffffffffffffffff60a01b5f5416175f55826001556bffffffffffffffffffffffff60a01b600254161760025560643560035561016860045461049a565b601f811161029a575b505f601f8211600114610227578192935f92610219575b50508160011b915f199060031b1c1916176004555b34600555600654806101b5575b602082604051908152f35b5f80808093335af13d15610214573d67ffffffffffffffff811161020057604051906101eb601f8201601f1916602001836104d2565b81525f60203d92013e5b156100a857816101aa565b634e487b7160e01b5f52604160045260245ffd5b6101f5565b602492500101358380610188565b601f1982169360045f525f5160206104f55f395f51905f52915f5b86811061027f5750836001959610610263575b505050811b0160045561019d565b01602401355f19600384901b60f8161c19169055838080610255565b90926020600181926024878701013581550194019101610242565b60045f52601f820160051c5f5160206104f55f395f51905f520190602083106102ed575b601f0160051c5f5160206104f55f395f51905f5201905b8181106102e25750610171565b5f81556001016102d5565b5f5160206104f55f395f51905f5291506102be565b346100a8575f3660031901126100a8576020600354604051908152f35b346100a8575f3660031901126100a8576020600154604051908152f35b346100a85760203660031901126100a857600435600655005b346100a8575f3660031901126100a857604051600454905f6103768361049a565b80835260208301936001811690811561041857506001146103cd575b50906103a28160409303826104d2565b8151928391602083525180918160208501528484015e5f828201840152601f01601f19168101030190f35b91905060045f525f5160206104f55f395f51905f52915f905b8082106103fe575090915081016020016103a2610392565b9192600181602092548385880101520191019092916103e6565b60ff1916855250151560051b820160200190506103a2610392565b346100a8575f3660031901126100a8576020600554604051908152f35b346100a8575f3660031901126100a8576002546040516001600160a01b039091168152602090f35b346100a8575f3660031901126100a8575f546001600160a01b03168152602090f35b90600182811c921680156104c8575b60208310146104b457565b634e487b7160e01b5f52602260045260245ffd5b91607f16916104a9565b90601f8019910116810190811067ffffffffffffffff8211176102005760405256fe8a35acfbc15ff81a39ae7d344fd709f28e8600b4aa8c65c6b64bfe7fe36bd19ba164736f6c634300081b000a",
        "nonce": "0xc",
        "chainId": "0x14d"
      },
      "additionalContracts": [],
      "isFixedGasLimit": false
    },
    {
      "hash": "0x9aa65cbff63a528b3f793efd281b1da51e6c122799e0dcf89cf4c57b275c98d6",
      "transactionType": "CALL",
      "contractName": null,
      "contractAddress": "0x8828fd7431d5bb1962d7e067c103b2324fa6bbec",
      "function": "setBridgers(address,address)",
      "arguments": [
        "0x0bE19C78706c441dE4178a2266a650E47160Eda7",
        "0x0bE19C78706c441dE4178a2266a650E47160Eda7"
      ],
      "transaction": {
        "from": "0xd289d1387ae1033a703842d69501d5bec5a6f04e",
        "to": "0x8828fd7431d5bb1962d7e067c103b2324fa6bbec",
        "value": "0x0",
        "input": "0x2b0f3ee40000000000000000000000000be19c78706c441de4178a2266a650e47160eda70000000000000000000000000be19c78706c441de4178a2266a650e47160eda7",
        "nonce": "0xd",
        "chainId": "0x14d"
      },
      "additionalContracts": [],
      "isFixedGasLimit": false
    },
    {
      "hash": "0xb9dcb1338c908c0674de52a2aeaea5fbe365295091a395696d56375f7a640d56",
      "transactionType": "CREATE",
      "contractName": "MockQuoter",
      "contractAddress": "0x481e836be187303c64f269bc7fe2c52f7f7c6eef",
      "function": null,
      "arguments": null,
      "transaction": {
        "from": "0xd289d1387ae1033a703842d69501d5bec5a6f04e",
        "value": "0x0",
        "input": "0x6080806040523460155761015b908161001a8239f35b5f80fdfe6080806040526004361015610012575f80fd5b5f3560e01c90816346ee8d001461010957508063520b9355146100c15780636813d78714610091578063d3072d821461006f5763e21a560214610053575f80fd5b3461006b57602036600319011261006b576004355f55005b5f80fd5b3461006b575f36600319011261006b57602060ff600154166040519015158152f35b3461006b57602036600319011261006b5760043580151580910361006b5760ff8019600154169116176001555f80f35b3461006b57608036600319011261006b576100da610122565b506100e3610138565b5060ff600154166100fa5760205f54604051908152f35b631f6b7cef60e11b5f5260045ffd5b3461006b575f36600319011261006b576020905f548152f35b600435906001600160a01b038216820361006b57565b602435906001600160a01b038216820361006b5756fea164736f6c634300081b000a",
        "nonce": "0xe",
        "chainId": "0x14d"
      },
      "additionalContracts": [],
      "isFixedGasLimit": false
    },
    {
      "hash": "0xa2d30251956de9976b77663cf7ef3c88b3579fad96010a8c72180300080f5de7",
      "transactionType": "CALL",
      "contractName": "MockQuoter",
      "contractAddress": "0x481e836be187303c64f269bc7fe2c52f7f7c6eef",
      "function": "setAmountOut(uint256)",
      "arguments": [
        "90000000"
      ],
      "transaction": {
        "from": "0xd289d1387ae1033a703842d69501d5bec5a6f04e",
        "to": "0x481e836be187303c64f269bc7fe2c52f7f7c6eef",
        "value": "0x0",
        "input": "0xe21a560200000000000000000000000000000000000000000000000000000000055d4a80",
        "nonce": "0xf",
        "chainId": "0x14d"
      },
      "additionalContracts": [],
      "isFixedGasLimit": false
    },
    {
      "hash": "0xf724177c1161a7e15a716e0acf18383f08aa68a5e83c51a24ad7b8974fec3761",
      "transactionType": "CALL",
      "contractName": null,
      "contractAddress": "0x8828fd7431d5bb1962d7e067c103b2324fa6bbec",
      "function": "setQuoter(address,address)",
      "arguments": [
        "0x4D4aDEc97e3e11693F65dEDC2D1e6Bec784eB2F1",
        "0x481e836bE187303c64F269Bc7fe2C52F7f7c6eEf"
      ],
      "transaction": {
        "from": "0xd289d1387ae1033a703842d69501d5bec5a6f04e",
        "to": "0x8828fd7431d5bb1962d7e067c103b2324fa6bbec",
        "value": "0x0",
        "input": "0x6264257a0000000000000000000000004d4adec97e3e11693f65dedc2d1e6bec784eb2f1000000000000000000000000481e836be187303c64f269bc7fe2c52f7f7c6eef",
        "nonce": "0x10",
        "chainId": "0x14d"
      },
      "additionalContracts": [],
      "isFixedGasLimit": false
    },
    {
      "hash": "0xe1637935c59f388458161687b1ef7ccacd756684d52950d43fd1cf6735a96f1b",
      "transactionType": "CALL",
      "contractName": null,
      "contractAddress": "0x048255dfef2ebfa7307058ae475a3e2f5ee0df46",
      "function": "setRecommendedIntentFee(uint256,uint256)",
      "arguments": [
        "10000",
        "123"
      ],
      "transaction": {
        "from": "0xd289d1387ae1033a703842d69501d5bec5a6f04e",
        "to": "0x048255dfef2ebfa7307058ae475a3e2f5ee0df46",
        "value": "0x0",
        "input": "0xf2af970b0000000000000000000000000000000000000000000000000000000000002710000000000000000000000000000000000000000000000000000000000000007b",
        "nonce": "0x11",
        "chainId": "0x14d"
      },
      "additionalContracts": [],
      "isFixedGasLimit": false
    },
    {
      "hash": "0x209b5ee5d897e109dfc958ee4bacd5b2991aaca81948db2cf3090c58b37f2dc2",
      "transactionType": "CREATE",
      "contractName": "MockQuoter",
      "contractAddress": "0x6b0f32ae157cf4f7d9b402c4e243e9088207dd87",
      "function": null,
      "arguments": null,
      "transaction": {
        "from": "0xd289d1387ae1033a703842d69501d5bec5a6f04e",
        "value": "0x0",
        "input": "0x6080806040523460155761015b908161001a8239f35b5f80fdfe6080806040526004361015610012575f80fd5b5f3560e01c90816346ee8d001461010957508063520b9355146100c15780636813d78714610091578063d3072d821461006f5763e21a560214610053575f80fd5b3461006b57602036600319011261006b576004355f55005b5f80fd5b3461006b575f36600319011261006b57602060ff600154166040519015158152f35b3461006b57602036600319011261006b5760043580151580910361006b5760ff8019600154169116176001555f80f35b3461006b57608036600319011261006b576100da610122565b506100e3610138565b5060ff600154166100fa5760205f54604051908152f35b631f6b7cef60e11b5f5260045ffd5b3461006b575f36600319011261006b576020905f548152f35b600435906001600160a01b038216820361006b57565b602435906001600160a01b038216820361006b5756fea164736f6c634300081b000a",
        "nonce": "0x12",
        "chainId": "0x14d"
      },
      "additionalContracts": [],
      "isFixedGasLimit": false
    },
    {
      "hash": "0x401604e058bfa88a55dced171ce64a920f2201f77fde49f210f234c9c1e1725c",
      "transactionType": "CALL",
      "contractName": "MockQuoter",
      "contractAddress": "0x6b0f32ae157cf4f7d9b402c4e243e9088207dd87",
      "function": "setAmountOut(uint256)",
      "arguments": [
        "90000000"
      ],
      "transaction": {
        "from": "0xd289d1387ae1033a703842d69501d5bec5a6f04e",
        "to": "0x6b0f32ae157cf4f7d9b402c4e243e9088207dd87",
        "value": "0x0",
        "input": "0xe21a560200000000000000000000000000000000000000000000000000000000055d4a80",
        "nonce": "0x13",
        "chainId": "0x14d"
      },
      "additionalContracts": [],
      "isFixedGasLimit": false
    },
    {
      "hash": "0x2fde58b6f721adf32041ecee797eba3d651b5f8e568b73c8d55e755322ae8319",
      "transactionType": "CALL",
      "contractName": null,
      "contractAddress": "0x8828fd7431d5bb1962d7e067c103b2324fa6bbec",
      "function": "setQuoter(address,address)",
      "arguments": [
        "0x4D4aDEc97e3e11693F65dEDC2D1e6Bec784eB2F1",
        "0x6b0f32ae157CF4F7d9B402c4e243E9088207dD87"
      ],
      "transaction": {
        "from": "0xd289d1387ae1033a703842d69501d5bec5a6f04e",
        "to": "0x8828fd7431d5bb1962d7e067c103b2324fa6bbec",
        "value": "0x0",
        "input": "0x6264257a0000000000000000000000004d4adec97e3e11693f65dedc2d1e6bec784eb2f10000000000000000000000006b0f32ae157cf4f7d9b402c4e243e9088207dd87",
        "nonce": "0x14",
        "chainId": "0x14d"
      },
      "additionalContracts": [],
      "isFixedGasLimit": false
    },
    {
      "hash": "0x049742a1cabc77723bf21a7a074bf850c642f851372bc230fe2f10ed90bed8d4",
      "transactionType": "CREATE",
      "contractName": "MockTransportBridger",
      "contractAddress": "0xc5ea444a0f556f5b227ec7447294d91086bb692c",
      "function": null,
      "arguments": null,
      "transaction": {
        "from": "0xd289d1387ae1033a703842d69501d5bec5a6f04e",
        "value": "0x0",
        "input": "0x60808060405234601557610507908161001a8239f35b5f80fdfe6080806040526004361015610012575f80fd5b5f905f3560e01c9081632c368377146103fd5750806347799da8146102d45763b14d361d1461003f575f80fd5b60a03660031901126102d1576004356001600160a01b038116908190036102cf576044356001600160a01b03811691602435918390036102cb576084359267ffffffffffffffff84116102c757366023850112156102c75783600401359067ffffffffffffffff82116102c35736602483870101116102c3576040519260c0840184811067ffffffffffffffff8211176102af5760405283526020830184815260408401918252866020606086019460643586528060246040519a61010d85601f19601f860116018d6104c4565b828c5201838b0137880101526080840186905260a08401878152935187546001600160a01b039182166001600160a01b0319918216178955915160015591516002805491909316911617905551600355825167ffffffffffffffff811161029b5761017960045461048c565b601f8111610238575b5060209485906001601f8411146101d7579482939495926101cc575b50508160011b915f199060031b1c1916176004555b51151560ff801960055416911617600555604051908152f35b015190505f8061019e565b90601f1983169560048352818320925b878110610221575083600195969710610209575b505050811b016004556101b3565b01515f1960f88460031b161c191690555f80806101fb565b9192886001819286850151815501940192016101e7565b600486527f8a35acfbc15ff81a39ae7d344fd709f28e8600b4aa8c65c6b64bfe7fe36bd19b601f830160051c81019160208410610291575b601f0160051c01905b8181106102865750610182565b868155600101610279565b9091508190610270565b634e487b7160e01b85526041600452602485fd5b634e487b7160e01b88526041600452602488fd5b8580fd5b8480fd5b8380fd5b505b80fd5b50346102d157806003193601126102d157805460015460025460035460405160045493946001600160a01b03908116949316918691906103138561048c565b8083526020830195600181169081156103e2575060011461038c575b5061033f8260e0989903836104c4565b60ff6005541693604051988997885260208801526040870152606086015260c060808601525180938160c08701528686015e838301850152151560a0830152601f01601f19168101030190f35b600484529750827f8a35acfbc15ff81a39ae7d344fd709f28e8600b4aa8c65c6b64bfe7fe36bd19b5b8982106103cc57508201602001975061033f61032f565b60018160209254838588010152019101906103b5565b60ff1916875250151560051b8201602001975061033f61032f565b905034610488575f3660031901126104885760055460ff81166104885760ff191660019081176005555f546002549154916001600160a01b039081169116803b1561048857835f604492819583956340c10f1960e01b8552600485015260248401525af1801561047d5761046f575080f35b61047b91505f906104c4565b005b6040513d5f823e3d90fd5b5f80fd5b90600182811c921680156104ba575b60208310146104a657565b634e487b7160e01b5f52602260045260245ffd5b91607f169161049b565b90601f8019910116810190811067ffffffffffffffff8211176104e657604052565b634e487b7160e01b5f52604160045260245ffdfea164736f6c634300081b000a",
        "nonce": "0x15",
        "chainId": "0x14d"
      },
      "additionalContracts": [],
      "isFixedGasLimit": false
    },
    {
      "hash": "0xd77f69c0220e9c917abac00f67b0be3357dfb3fa94fb7244724ebf00b6163ab5",
      "transactionType": "CALL",
      "contractName": null,
      "contractAddress": "0x8828fd7431d5bb1962d7e067c103b2324fa6bbec",
      "function": "setBridgers(address,address)",
      "arguments": [
        "0xC5EA444a0F556f5B227ec7447294d91086BB692c",
        "0xC5EA444a0F556f5B227ec7447294d91086BB692c"
      ],
      "transaction": {
        "from": "0xd289d1387ae1033a703842d69501d5bec5a6f04e",
        "to": "0x8828fd7431d5bb1962d7e067c103b2324fa6bbec",
        "value": "0x0",
        "input": "0x2b0f3ee4000000000000000000000000c5ea444a0f556f5b227ec7447294d91086bb692c000000000000000000000000c5ea444a0f556f5b227ec7447294d91086bb692c",
        "nonce": "0x16",
        "chainId": "0x14d"
      },
      "additionalContracts": [],
      "isFixedGasLimit": false
    },
    {
      "hash": "0x4df0fe94c202468901b9316d1bb846761fd4a00a6c75fe821afa7a0bf04aa896",
      "transactionType": "CALL",
      "contractName": null,
      "contractAddress": "0x4d4adec97e3e11693f65dedc2d1e6bec784eb2f1",
      "function": "mint(address,uint256)",
      "arguments": [
        "0xed87227a182E5A8fC74B1D40D80Db6208741C435",
        "123000000"
      ],
      "transaction": {
        "from": "0xd289d1387ae1033a703842d69501d5bec5a6f04e",
        "to": "0x4d4adec97e3e11693f65dedc2d1e6bec784eb2f1",
        "value": "0x0",
        "input": "0x40c10f19000000000000000000000000ed87227a182e5a8fc74b1d40d80db6208741c435000000000000000000000000000000000000000000000000000000000754d4c0",
        "nonce": "0x17",
        "chainId": "0x14d"
      },
      "additionalContracts": [],
      "isFixedGasLimit": false
    },
    {
      "hash": "0x891413bda4f1988031044ccaaf836f37e6ec733847357bfe573d6d0e34ffb85f",
      "transactionType": "CALL",
      "contractName": null,
      "contractAddress": "0x8828fd7431d5bb1962d7e067c103b2324fa6bbec",
      "function": "pullFromReceiver((uint256,address,bool,bytes32,bytes32,uint256,address,address,(address,uint256,bytes)[],bytes))",
      "arguments": [
        "(333, 0xD59d27B9172aD056Cb5C008Dc2BbEFe702123A55, false, 0x0000000000000000000000000000000000000000000000000000000000000000, 0x0000000000000000000000000000000000000000000000000000000000000001, 0, 0x4D4aDEc97e3e11693F65dEDC2D1e6Bec784eB2F1, 0x4D4aDEc97e3e11693F65dEDC2D1e6Bec784eB2F1, [], 0x)"
      ],
      "transaction": {
        "from": "0xd289d1387ae1033a703842d69501d5bec5a6f04e",
        "to": "0x8828fd7431d5bb1962d7e067c103b2324fa6bbec",
        "value": "0x0",
        "input": "0x1ad1087b0000000000000000000000000000000000000000000000000000000000000020000000000000000000000000000000000000000000000000000000000000014d000000000000000000000000d59d27b9172ad056cb5c008dc2bbefe702123a5500000000000000000000000000000000000000000000000000000000000000000000000000000000000000000000000000000000000000000000000000000000000000000000000000000000000000000000000000000000000000000000000100000000000000000000000000000000000000000000000000000000000000000000000000000000000000004d4adec97e3e11693f65dedc2d1e6bec784eb2f10000000000000000000000004d4adec97e3e11693f65dedc2d1e6bec784eb2f10000000000000000000000000000000000000000000000000000000000000140000000000000000000000000000000000000000000000000000000000000016000000000000000000000000000000000000000000000000000000000000000000000000000000000000000000000000000000000000000000000000000000000",
        "nonce": "0x18",
        "chainId": "0x14d"
      },
      "additionalContracts": [],
      "isFixedGasLimit": false
    },
    {
      "hash": "0x69f070f5563bca8333368fbdf915569ce367bb972188576858f828a52beed83f",
      "transactionType": "CALL",
      "contractName": null,
      "contractAddress": "0x4d4adec97e3e11693f65dedc2d1e6bec784eb2f1",
      "function": "mint(address,uint256)",
      "arguments": [
        "0xed87227a182E5A8fC74B1D40D80Db6208741C435",
        "100000000"
      ],
      "transaction": {
        "from": "0xd289d1387ae1033a703842d69501d5bec5a6f04e",
        "to": "0x4d4adec97e3e11693f65dedc2d1e6bec784eb2f1",
        "value": "0x0",
        "input": "0x40c10f19000000000000000000000000ed87227a182e5a8fc74b1d40d80db6208741c4350000000000000000000000000000000000000000000000000000000005f5e100",
        "nonce": "0x19",
        "chainId": "0x14d"
      },
      "additionalContracts": [],
      "isFixedGasLimit": false
    },
    {
      "hash": "0x27599f162bb8b14fad8b0f9ac38214c1ab979c22769bbeeb328528526a2604df",
      "transactionType": "CALL",
      "contractName": null,
      "contractAddress": "0x8828fd7431d5bb1962d7e067c103b2324fa6bbec",
      "function": "pullFromReceiver((uint256,address,bool,bytes32,bytes32,uint256,address,address,(address,uint256,bytes)[],bytes))",
      "arguments": [
        "(333, 0xD59d27B9172aD056Cb5C008Dc2BbEFe702123A55, false, 0x0000000000000000000000000000000000000000000000000000000000000000, 0x0000000000000000000000000000000000000000000000000000000000000002, 0, 0x4D4aDEc97e3e11693F65dEDC2D1e6Bec784eB2F1, 0xF86C23C1E883ee3B820FB9BE75FF91C9A49EaE75, [(0xF86C23C1E883ee3B820FB9BE75FF91C9A49EaE75, 0, 0x40c10f190000000000000000000000009feb94832da4e52a75a18e6310640cc2cb702ffe0000000000000000000000000000000000000000000000000000000005f5e100)], 0x)"
      ],
      "transaction": {
        "from": "0xd289d1387ae1033a703842d69501d5bec5a6f04e",
        "to": "0x8828fd7431d5bb1962d7e067c103b2324fa6bbec",
        "value": "0x0",
        "input": "0x1ad1087b0000000000000000000000000000000000000000000000000000000000000020000000000000000000000000000000000000000000000000000000000000014d000000000000000000000000d59d27b9172ad056cb5c008dc2bbefe702123a5500000000000000000000000000000000000000000000000000000000000000000000000000000000000000000000000000000000000000000000000000000000000000000000000000000000000000000000000000000000000000000000000200000000000000000000000000000000000000000000000000000000000000000000000000000000000000004d4adec97e3e11693f65dedc2d1e6bec784eb2f1000000000000000000000000f86c23c1e883ee3b820fb9be75ff91c9a49eae750000000000000000000000000000000000000000000000000000000000000140000000000000000000000000000000000000000000000000000000000000026000000000000000000000000000000000000000000000000000000000000000010000000000000000000000000000000000000000000000000000000000000020000000000000000000000000f86c23c1e883ee3b820fb9be75ff91c9a49eae7500000000000000000000000000000000000000000000000000000000000000000000000000000000000000000000000000000000000000000000000000000060000000000000000000000000000000000000000000000000000000000000004440c10f190000000000000000000000009feb94832da4e52a75a18e6310640cc2cb702ffe0000000000000000000000000000000000000000000000000000000005f5e100000000000000000000000000000000000000000000000000000000000000000000000000000000000000000000000000000000000000000000000000",
        "nonce": "0x1a",
        "chainId": "0x14d"
      },
      "additionalContracts": [],
      "isFixedGasLimit": false
    },
    {
      "hash": "0x9472e58502d4d723e2eeef1f18ff94885d1a210ed9e477cc91f10315440a1042",
      "transactionType": "CALL",
      "contractName": null,
      "contractAddress": "0xf86c23c1e883ee3b820fb9be75ff91c9a49eae75",
      "function": "mint(address,uint256)",
      "arguments": [
        "0xD289D1387ae1033A703842D69501D5bEc5A6f04e",
        "5000000"
      ],
      "transaction": {
        "from": "0xd289d1387ae1033a703842d69501d5bec5a6f04e",
        "to": "0xf86c23c1e883ee3b820fb9be75ff91c9a49eae75",
        "value": "0x0",
        "input": "0x40c10f19000000000000000000000000d289d1387ae1033a703842d69501d5bec5a6f04e00000000000000000000000000000000000000000000000000000000004c4b40",
        "nonce": "0x1b",
        "chainId": "0x14d"
      },
      "additionalContracts": [],
      "isFixedGasLimit": false
    },
    {
      "hash": "0x67d41d08660a1ab45f6df271f0e5ee4c8aad68765b5a2429fdfba21ff9bb4a37",
      "transactionType": "CALL",
      "contractName": null,
      "contractAddress": "0xf86c23c1e883ee3b820fb9be75ff91c9a49eae75",
      "function": "approve(address,uint256)",
      "arguments": [
        "0x048255dfEF2eBFA7307058Ae475a3e2F5ee0df46",
        "115792089237316195423570985008687907853269984665640564039457584007913129639935"
      ],
      "transaction": {
        "from": "0xd289d1387ae1033a703842d69501d5bec5a6f04e",
        "to": "0xf86c23c1e883ee3b820fb9be75ff91c9a49eae75",
        "value": "0x0",
        "input": "0x095ea7b3000000000000000000000000048255dfef2ebfa7307058ae475a3e2f5ee0df46ffffffffffffffffffffffffffffffffffffffffffffffffffffffffffffffff",
        "nonce": "0x1c",
        "chainId": "0x14d"
      },
      "additionalContracts": [],
      "isFixedGasLimit": false
    },
    {
      "hash": "0x09cb83146ee194d74ea15569890d8a2b34aed736f3ae1c5e2b34c716d22f200f",
      "transactionType": "CALL",
      "contractName": null,
      "contractAddress": "0x048255dfef2ebfa7307058ae475a3e2f5ee0df46",
      "function": "createIntent((uint8,bytes,address,address,uint256),uint256)",
      "arguments": [
        "(0, 0x00000000000000000000000000000000000000000000000000000000000000200000000000000000000000002db97a32d5ce8d79f7b7fdc607584a7a35da5e0d00000000000000000000000000000000000000000000000000000000000000400000000000000000000000000000000000000000000000000000000000000002abcd000000000000000000000000000000000000000000000000000000000000, 0xD289D1387ae1033A703842D69501D5bEc5A6f04e, 0xF86C23C1E883ee3B820FB9BE75FF91C9A49EaE75, 5000000)",
        "1768313735"
      ],
      "transaction": {
        "from": "0xd289d1387ae1033a703842d69501d5bec5a6f04e",
        "to": "0x048255dfef2ebfa7307058ae475a3e2f5ee0df46",
        "value": "0x0",
        "input": "0x549f750500000000000000000000000000000000000000000000000000000000000000400000000000000000000000000000000000000000000000000000000069665387000000000000000000000000000000000000000000000000000000000000000000000000000000000000000000000000000000000000000000000000000000a0000000000000000000000000d289d1387ae1033a703842d69501d5bec5a6f04e000000000000000000000000f86c23c1e883ee3b820fb9be75ff91c9a49eae7500000000000000000000000000000000000000000000000000000000004c4b4000000000000000000000000000000000000000000000000000000000000000a000000000000000000000000000000000000000000000000000000000000000200000000000000000000000002db97a32d5ce8d79f7b7fdc607584a7a35da5e0d00000000000000000000000000000000000000000000000000000000000000400000000000000000000000000000000000000000000000000000000000000002abcd000000000000000000000000000000000000000000000000000000000000",
        "nonce": "0x1d",
        "chainId": "0x14d"
      },
      "additionalContracts": [],
      "isFixedGasLimit": false
    },
    {
      "hash": "0x78466f8e95a6cec097ab890b86e387f2f2510d6b867e6361019c9da11d46732a",
      "transactionType": "CALL",
      "contractName": null,
      "contractAddress": "0x4d4adec97e3e11693f65dedc2d1e6bec784eb2f1",
      "function": "mint(address,uint256)",
      "arguments": [
        "0xD289D1387ae1033A703842D69501D5bEc5A6f04e",
        "1000000"
      ],
      "transaction": {
        "from": "0xd289d1387ae1033a703842d69501d5bec5a6f04e",
        "to": "0x4d4adec97e3e11693f65dedc2d1e6bec784eb2f1",
        "value": "0x0",
        "input": "0x40c10f19000000000000000000000000d289d1387ae1033a703842d69501d5bec5a6f04e00000000000000000000000000000000000000000000000000000000000f4240",
        "nonce": "0x1e",
        "chainId": "0x14d"
      },
      "additionalContracts": [],
      "isFixedGasLimit": false
    },
    {
      "hash": "0xfb981c298895dafec66687e6e26ca5de950cf4e8ba033cb601abdc1d6a638242",
      "transactionType": "CALL",
      "contractName": null,
      "contractAddress": "0x4d4adec97e3e11693f65dedc2d1e6bec784eb2f1",
      "function": "approve(address,uint256)",
      "arguments": [
        "0x048255dfEF2eBFA7307058Ae475a3e2F5ee0df46",
        "115792089237316195423570985008687907853269984665640564039457584007913129639935"
      ],
      "transaction": {
        "from": "0xd289d1387ae1033a703842d69501d5bec5a6f04e",
        "to": "0x4d4adec97e3e11693f65dedc2d1e6bec784eb2f1",
        "value": "0x0",
        "input": "0x095ea7b3000000000000000000000000048255dfef2ebfa7307058ae475a3e2f5ee0df46ffffffffffffffffffffffffffffffffffffffffffffffffffffffffffffffff",
        "nonce": "0x1f",
        "chainId": "0x14d"
      },
      "additionalContracts": [],
      "isFixedGasLimit": false
    },
    {
      "hash": "0x86b82c432dcfafb552c5202b29c888847f8fdf64aeb0356232e95bbaee30baa1",
      "transactionType": "CALL",
      "contractName": null,
      "contractAddress": "0x048255dfef2ebfa7307058ae475a3e2f5ee0df46",
      "function": "claimIntent(bytes32)",
      "arguments": [
        "0x1645c0c31ed9ce6422389f747333d5266e5f592ba3772f7c651e87ac67a85a59"
      ],
      "transaction": {
        "from": "0xd289d1387ae1033a703842d69501d5bec5a6f04e",
        "to": "0x048255dfef2ebfa7307058ae475a3e2f5ee0df46",
        "value": "0x0",
        "input": "0x40e624cb1645c0c31ed9ce6422389f747333d5266e5f592ba3772f7c651e87ac67a85a59",
        "nonce": "0x20",
        "chainId": "0x14d"
      },
      "additionalContracts": [],
      "isFixedGasLimit": false
    },
    {
      "hash": "0xb714f5ac36b192383bedb54a0bba093c620ff93399a19848334bfc7de47d6257",
      "transactionType": "CALL",
      "contractName": null,
      "contractAddress": "0x8c16d2f19a034b7281254f5656c2d1461c6ceb9a",
      "function": "setTx((bytes32,uint256,uint32,bytes21,bytes21,bytes))",
      "arguments": [
        "(0x0000000000000000000000000000000000000000000000000000000000000000, 0, 0, 0x000000000000000000000000000000000000000000, 0x412db97a32d5ce8d79f7b7fdc607584a7a35da5e0d, 0xabcd)"
      ],
      "transaction": {
        "from": "0xd289d1387ae1033a703842d69501d5bec5a6f04e",
        "to": "0x8c16d2f19a034b7281254f5656c2d1461c6ceb9a",
        "value": "0x0",
        "input": "0x3aec07de00000000000000000000000000000000000000000000000000000000000000200000000000000000000000000000000000000000000000000000000000000000000000000000000000000000000000000000000000000000000000000000000000000000000000000000000000000000000000000000000000000000000000000000000000000000000000000000000000000000000000000000000000000000412db97a32d5ce8d79f7b7fdc607584a7a35da5e0d000000000000000000000000000000000000000000000000000000000000000000000000000000000000c00000000000000000000000000000000000000000000000000000000000000002abcd000000000000000000000000000000000000000000000000000000000000",
        "nonce": "0x21",
        "chainId": "0x14d"
      },
      "additionalContracts": [],
      "isFixedGasLimit": false
    },
    {
      "hash": "0x55792bb459b073093928fcd0ba8227862fe5151da1ff0028742f6ea7ad947793",
      "transactionType": "CALL",
      "contractName": null,
      "contractAddress": "0x048255dfef2ebfa7307058ae475a3e2f5ee0df46",
      "function": "proveIntentFill(bytes32,bytes[20],bytes,bytes32[],uint256)",
      "arguments": [
        "0x1645c0c31ed9ce6422389f747333d5266e5f592ba3772f7c651e87ac67a85a59",
        "[0x, 0x, 0x, 0x, 0x, 0x, 0x, 0x, 0x, 0x, 0x, 0x, 0x, 0x, 0x, 0x, 0x, 0x, 0x, 0x]",
        "0x",
        "[]",
        "0"
      ],
      "transaction": {
        "from": "0xd289d1387ae1033a703842d69501d5bec5a6f04e",
        "to": "0x048255dfef2ebfa7307058ae475a3e2f5ee0df46",
        "value": "0x0",
        "input": "0x5c23cc021645c0c31ed9ce6422389f747333d5266e5f592ba3772f7c651e87ac67a85a5900000000000000000000000000000000000000000000000000000000000000a000000000000000000000000000000000000000000000000000000000000005a000000000000000000000000000000000000000000000000000000000000005c00000000000000000000000000000000000000000000000000000000000000000000000000000000000000000000000000000000000000000000000000000028000000000000000000000000000000000000000000000000000000000000002a000000000000000000000000000000000000000000000000000000000000002c000000000000000000000000000000000000000000000000000000000000002e00000000000000000000000000000000000000000000000000000000000000300000000000000000000000000000000000000000000000000000000000000032000000000000000000000000000000000000000000000000000000000000003400000000000000000000000000000000000000000000000000000000000000360000000000000000000000000000000000000000000000000000000000000038000000000000000000000000000000000000000000000000000000000000003a000000000000000000000000000000000000000000000000000000000000003c000000000000000000000000000000000000000000000000000000000000003e00000000000000000000000000000000000000000000000000000000000000400000000000000000000000000000000000000000000000000000000000000042000000000000000000000000000000000000000000000000000000000000004400000000000000000000000000000000000000000000000000000000000000460000000000000000000000000000000000000000000000000000000000000048000000000000000000000000000000000000000000000000000000000000004a000000000000000000000000000000000000000000000000000000000000004c000000000000000000000000000000000000000000000000000000000000004e00000000000000000000000000000000000000000000000000000000000000000000000000000000000000000000000000000000000000000000000000000000000000000000000000000000000000000000000000000000000000000000000000000000000000000000000000000000000000000000000000000000000000000000000000000000000000000000000000000000000000000000000000000000000000000000000000000000000000000000000000000000000000000000000000000000000000000000000000000000000000000000000000000000000000000000000000000000000000000000000000000000000000000000000000000000000000000000000000000000000000000000000000000000000000000000000000000000000000000000000000000000000000000000000000000000000000000000000000000000000000000000000000000000000000000000000000000000000000000000000000000000000000000000000000000000000000000000000000000000000000000000000000000000000000000000000000000000000000000000000000000000000000000000000000000000000000000000000000000000000000000000000000000000000000000000000000000000000000000000000000000000000000000000000000000000000000000000000000000000000000000000000000000000000000000000000000000000000000000000000000000000000000000000000000000000000000000000000000000000000000000000000000000000000000000000000000000000000000000000000000000000000000000000000000000000000000000000000000000000000000000000000000000000000000000000000000000000000000000000000000000000000000000000000000000000000000000000000000000000000000000000000000000000000000000",
        "nonce": "0x22",
        "chainId": "0x14d"
      },
      "additionalContracts": [],
      "isFixedGasLimit": false
    },
    {
      "hash": "0x0a2b025e54d798396bcc4d25e729364f018d01b9de9918368b81ec89df0f7e63",
      "transactionType": "CALL",
      "contractName": null,
      "contractAddress": "0x4d4adec97e3e11693f65dedc2d1e6bec784eb2f1",
      "function": "mint(address,uint256)",
      "arguments": [
        "0xD289D1387ae1033A703842D69501D5bEc5A6f04e",
        "2000000"
      ],
      "transaction": {
        "from": "0xd289d1387ae1033a703842d69501d5bec5a6f04e",
        "to": "0x4d4adec97e3e11693f65dedc2d1e6bec784eb2f1",
        "value": "0x0",
        "input": "0x40c10f19000000000000000000000000d289d1387ae1033a703842d69501d5bec5a6f04e00000000000000000000000000000000000000000000000000000000001e8480",
        "nonce": "0x23",
        "chainId": "0x14d"
      },
      "additionalContracts": [],
      "isFixedGasLimit": false
    },
    {
      "hash": "0x7ea72e5993dc68e9aae677584dd7924b37542cf6803f9122078b9aa549581694",
      "transactionType": "CALL",
      "contractName": null,
      "contractAddress": "0x4d4adec97e3e11693f65dedc2d1e6bec784eb2f1",
      "function": "approve(address,uint256)",
      "arguments": [
        "0x048255dfEF2eBFA7307058Ae475a3e2F5ee0df46",
        "115792089237316195423570985008687907853269984665640564039457584007913129639935"
      ],
      "transaction": {
        "from": "0xd289d1387ae1033a703842d69501d5bec5a6f04e",
        "to": "0x4d4adec97e3e11693f65dedc2d1e6bec784eb2f1",
        "value": "0x0",
        "input": "0x095ea7b3000000000000000000000000048255dfef2ebfa7307058ae475a3e2f5ee0df46ffffffffffffffffffffffffffffffffffffffffffffffffffffffffffffffff",
        "nonce": "0x24",
        "chainId": "0x14d"
      },
      "additionalContracts": [],
      "isFixedGasLimit": false
    },
    {
      "hash": "0x0ac86cbf07c113a6b86b635f7834a178c3b39d5d16f15a3ae307d44dea6f2cf5",
      "transactionType": "CALL",
      "contractName": null,
      "contractAddress": "0x048255dfef2ebfa7307058ae475a3e2f5ee0df46",
      "function": "createIntent((uint8,bytes,address,address,uint256),uint256)",
      "arguments": [
        "(1, 0x000000000000000000000000558b8fe3b86724d9d9433bf8ec2b1a1b223f9d25000000000000000000000000000000000000000000000000000000000012d687, 0xD289D1387ae1033A703842D69501D5bEc5A6f04e, 0x4D4aDEc97e3e11693F65dEDC2D1e6Bec784eB2F1, 2000000)",
        "1768313735"
      ],
      "transaction": {
        "from": "0xd289d1387ae1033a703842d69501d5bec5a6f04e",
        "to": "0x048255dfef2ebfa7307058ae475a3e2f5ee0df46",
        "value": "0x0",
        "input": "0x549f750500000000000000000000000000000000000000000000000000000000000000400000000000000000000000000000000000000000000000000000000069665387000000000000000000000000000000000000000000000000000000000000000100000000000000000000000000000000000000000000000000000000000000a0000000000000000000000000d289d1387ae1033a703842d69501d5bec5a6f04e0000000000000000000000004d4adec97e3e11693f65dedc2d1e6bec784eb2f100000000000000000000000000000000000000000000000000000000001e84800000000000000000000000000000000000000000000000000000000000000040000000000000000000000000558b8fe3b86724d9d9433bf8ec2b1a1b223f9d25000000000000000000000000000000000000000000000000000000000012d687",
        "nonce": "0x25",
        "chainId": "0x14d"
      },
      "additionalContracts": [],
      "isFixedGasLimit": false
    },
    {
      "hash": "0x1c5a6f087ddd01a80266dcc4087775bee248903bc54c495275af6efc654a725e",
      "transactionType": "CALL",
      "contractName": null,
      "contractAddress": "0x4d4adec97e3e11693f65dedc2d1e6bec784eb2f1",
      "function": "mint(address,uint256)",
      "arguments": [
        "0xD289D1387ae1033A703842D69501D5bEc5A6f04e",
        "1000000"
      ],
      "transaction": {
        "from": "0xd289d1387ae1033a703842d69501d5bec5a6f04e",
        "to": "0x4d4adec97e3e11693f65dedc2d1e6bec784eb2f1",
        "value": "0x0",
        "input": "0x40c10f19000000000000000000000000d289d1387ae1033a703842d69501d5bec5a6f04e00000000000000000000000000000000000000000000000000000000000f4240",
        "nonce": "0x26",
        "chainId": "0x14d"
      },
      "additionalContracts": [],
      "isFixedGasLimit": false
    },
    {
      "hash": "0x14ad21e0465b8f1bf65dbb49dc6d80fe8c9db2523dc493fcadf887416d373978",
      "transactionType": "CALL",
      "contractName": null,
      "contractAddress": "0x4d4adec97e3e11693f65dedc2d1e6bec784eb2f1",
      "function": "approve(address,uint256)",
      "arguments": [
        "0x048255dfEF2eBFA7307058Ae475a3e2F5ee0df46",
        "115792089237316195423570985008687907853269984665640564039457584007913129639935"
      ],
      "transaction": {
        "from": "0xd289d1387ae1033a703842d69501d5bec5a6f04e",
        "to": "0x4d4adec97e3e11693f65dedc2d1e6bec784eb2f1",
        "value": "0x0",
        "input": "0x095ea7b3000000000000000000000000048255dfef2ebfa7307058ae475a3e2f5ee0df46ffffffffffffffffffffffffffffffffffffffffffffffffffffffffffffffff",
        "nonce": "0x27",
        "chainId": "0x14d"
      },
      "additionalContracts": [],
      "isFixedGasLimit": false
    },
    {
      "hash": "0xd8928c1f3b6205408c5e7c2fe31c3ab98fd64dac7c46fd8585f53999a0172f4e",
      "transactionType": "CALL",
      "contractName": null,
      "contractAddress": "0x048255dfef2ebfa7307058ae475a3e2f5ee0df46",
      "function": "claimIntent(bytes32)",
      "arguments": [
        "0x5d7ca6cec88ed2827284b6dd54e4006a370bfd20972d84a01cd50df1f14b9725"
      ],
      "transaction": {
        "from": "0xd289d1387ae1033a703842d69501d5bec5a6f04e",
        "to": "0x048255dfef2ebfa7307058ae475a3e2f5ee0df46",
        "value": "0x0",
        "input": "0x40e624cb5d7ca6cec88ed2827284b6dd54e4006a370bfd20972d84a01cd50df1f14b9725",
        "nonce": "0x28",
        "chainId": "0x14d"
      },
      "additionalContracts": [],
      "isFixedGasLimit": false
    },
    {
      "hash": "0x00b79c3452bdb35d9094c2a84d9713d43984b55d56f94d3c5e00452ed02ce923",
      "transactionType": "CALL",
      "contractName": null,
      "contractAddress": "0x8c16d2f19a034b7281254f5656c2d1461c6ceb9a",
      "function": "setTx((bytes32,uint256,uint32,bytes21,bytes21,bytes))",
      "arguments": [
        "(0x0000000000000000000000000000000000000000000000000000000000000000, 0, 0, 0x000000000000000000000000000000000000000000, 0x41f61c257cc0c129959a9704a59193e15c91853749, 0xa9059cbb000000000000000000000000558b8fe3b86724d9d9433bf8ec2b1a1b223f9d25000000000000000000000000000000000000000000000000000000000012d687)"
      ],
      "transaction": {
        "from": "0xd289d1387ae1033a703842d69501d5bec5a6f04e",
        "to": "0x8c16d2f19a034b7281254f5656c2d1461c6ceb9a",
        "value": "0x0",
        "input": "0x3aec07de0000000000000000000000000000000000000000000000000000000000000020000000000000000000000000000000000000000000000000000000000000000000000000000000000000000000000000000000000000000000000000000000000000000000000000000000000000000000000000000000000000000000000000000000000000000000000000000000000000000000000000000000000000000041f61c257cc0c129959a9704a59193e15c91853749000000000000000000000000000000000000000000000000000000000000000000000000000000000000c00000000000000000000000000000000000000000000000000000000000000044a9059cbb000000000000000000000000558b8fe3b86724d9d9433bf8ec2b1a1b223f9d25000000000000000000000000000000000000000000000000000000000012d68700000000000000000000000000000000000000000000000000000000",
        "nonce": "0x29",
        "chainId": "0x14d"
      },
      "additionalContracts": [],
      "isFixedGasLimit": false
    },
    {
      "hash": "0x0a979e3f0beecd3c55565d9ccfe984d779cd46b702c6d6832c4612d9bb21e241",
      "transactionType": "CALL",
      "contractName": null,
      "contractAddress": "0x048255dfef2ebfa7307058ae475a3e2f5ee0df46",
      "function": "proveIntentFill(bytes32,bytes[20],bytes,bytes32[],uint256)",
      "arguments": [
        "0x5d7ca6cec88ed2827284b6dd54e4006a370bfd20972d84a01cd50df1f14b9725",
        "[0x, 0x, 0x, 0x, 0x, 0x, 0x, 0x, 0x, 0x, 0x, 0x, 0x, 0x, 0x, 0x, 0x, 0x, 0x, 0x]",
        "0x",
        "[]",
        "0"
      ],
      "transaction": {
        "from": "0xd289d1387ae1033a703842d69501d5bec5a6f04e",
        "to": "0x048255dfef2ebfa7307058ae475a3e2f5ee0df46",
        "value": "0x0",
        "input": "0x5c23cc025d7ca6cec88ed2827284b6dd54e4006a370bfd20972d84a01cd50df1f14b972500000000000000000000000000000000000000000000000000000000000000a000000000000000000000000000000000000000000000000000000000000005a000000000000000000000000000000000000000000000000000000000000005c00000000000000000000000000000000000000000000000000000000000000000000000000000000000000000000000000000000000000000000000000000028000000000000000000000000000000000000000000000000000000000000002a000000000000000000000000000000000000000000000000000000000000002c000000000000000000000000000000000000000000000000000000000000002e00000000000000000000000000000000000000000000000000000000000000300000000000000000000000000000000000000000000000000000000000000032000000000000000000000000000000000000000000000000000000000000003400000000000000000000000000000000000000000000000000000000000000360000000000000000000000000000000000000000000000000000000000000038000000000000000000000000000000000000000000000000000000000000003a000000000000000000000000000000000000000000000000000000000000003c000000000000000000000000000000000000000000000000000000000000003e00000000000000000000000000000000000000000000000000000000000000400000000000000000000000000000000000000000000000000000000000000042000000000000000000000000000000000000000000000000000000000000004400000000000000000000000000000000000000000000000000000000000000460000000000000000000000000000000000000000000000000000000000000048000000000000000000000000000000000000000000000000000000000000004a000000000000000000000000000000000000000000000000000000000000004c000000000000000000000000000000000000000000000000000000000000004e00000000000000000000000000000000000000000000000000000000000000000000000000000000000000000000000000000000000000000000000000000000000000000000000000000000000000000000000000000000000000000000000000000000000000000000000000000000000000000000000000000000000000000000000000000000000000000000000000000000000000000000000000000000000000000000000000000000000000000000000000000000000000000000000000000000000000000000000000000000000000000000000000000000000000000000000000000000000000000000000000000000000000000000000000000000000000000000000000000000000000000000000000000000000000000000000000000000000000000000000000000000000000000000000000000000000000000000000000000000000000000000000000000000000000000000000000000000000000000000000000000000000000000000000000000000000000000000000000000000000000000000000000000000000000000000000000000000000000000000000000000000000000000000000000000000000000000000000000000000000000000000000000000000000000000000000000000000000000000000000000000000000000000000000000000000000000000000000000000000000000000000000000000000000000000000000000000000000000000000000000000000000000000000000000000000000000000000000000000000000000000000000000000000000000000000000000000000000000000000000000000000000000000000000000000000000000000000000000000000000000000000000000000000000000000000000000000000000000000000000000000000000000000000000000000000000000000000000000000000000000000000000000000000000000000",
        "nonce": "0x2a",
        "chainId": "0x14d"
      },
      "additionalContracts": [],
      "isFixedGasLimit": false
    },
    {
      "hash": "0xd0320ea4101225e3cdf0058c477936642fac4dcaca976e91576a4ef8209222a1",
      "transactionType": "CALL",
      "contractName": null,
      "contractAddress": "0xf86c23c1e883ee3b820fb9be75ff91c9a49eae75",
      "function": "mint(address,uint256)",
      "arguments": [
        "0xD289D1387ae1033A703842D69501D5bEc5A6f04e",
        "1000000"
      ],
      "transaction": {
        "from": "0xd289d1387ae1033a703842d69501d5bec5a6f04e",
        "to": "0xf86c23c1e883ee3b820fb9be75ff91c9a49eae75",
        "value": "0x0",
        "input": "0x40c10f19000000000000000000000000d289d1387ae1033a703842d69501d5bec5a6f04e00000000000000000000000000000000000000000000000000000000000f4240",
        "nonce": "0x2b",
        "chainId": "0x14d"
      },
      "additionalContracts": [],
      "isFixedGasLimit": false
    },
    {
      "hash": "0x9ba2356eba8d92e29a09975d422f7a521e444f1e961e2ba70fe2dbc28213ae9b",
      "transactionType": "CALL",
      "contractName": null,
      "contractAddress": "0xf86c23c1e883ee3b820fb9be75ff91c9a49eae75",
      "function": "approve(address,uint256)",
      "arguments": [
        "0x048255dfEF2eBFA7307058Ae475a3e2F5ee0df46",
        "115792089237316195423570985008687907853269984665640564039457584007913129639935"
      ],
      "transaction": {
        "from": "0xd289d1387ae1033a703842d69501d5bec5a6f04e",
        "to": "0xf86c23c1e883ee3b820fb9be75ff91c9a49eae75",
        "value": "0x0",
        "input": "0x095ea7b3000000000000000000000000048255dfef2ebfa7307058ae475a3e2f5ee0df46ffffffffffffffffffffffffffffffffffffffffffffffffffffffffffffffff",
        "nonce": "0x2c",
        "chainId": "0x14d"
      },
      "additionalContracts": [],
      "isFixedGasLimit": false
    },
    {
      "hash": "0xdf9febf9be0dae05381e4625c6ea28a6c906924069f532bcefc5c62879f43b6e",
      "transactionType": "CALL",
      "contractName": null,
      "contractAddress": "0x048255dfef2ebfa7307058ae475a3e2f5ee0df46",
      "function": "createIntent((uint8,bytes,address,address,uint256),uint256)",
      "arguments": [
        "(0, 0x00000000000000000000000000000000000000000000000000000000000000200000000000000000000000005457e258a09ebfb4a2501a9e3d70d37f54f923f300000000000000000000000000000000000000000000000000000000000000400000000000000000000000000000000000000000000000000000000000000002beef000000000000000000000000000000000000000000000000000000000000, 0xD289D1387ae1033A703842D69501D5bEc5A6f04e, 0xF86C23C1E883ee3B820FB9BE75FF91C9A49EaE75, 1000000)",
        "1"
      ],
      "transaction": {
        "from": "0xd289d1387ae1033a703842d69501d5bec5a6f04e",
        "to": "0x048255dfef2ebfa7307058ae475a3e2f5ee0df46",
        "value": "0x0",
        "input": "0x549f750500000000000000000000000000000000000000000000000000000000000000400000000000000000000000000000000000000000000000000000000000000001000000000000000000000000000000000000000000000000000000000000000000000000000000000000000000000000000000000000000000000000000000a0000000000000000000000000d289d1387ae1033a703842d69501d5bec5a6f04e000000000000000000000000f86c23c1e883ee3b820fb9be75ff91c9a49eae7500000000000000000000000000000000000000000000000000000000000f424000000000000000000000000000000000000000000000000000000000000000a000000000000000000000000000000000000000000000000000000000000000200000000000000000000000005457e258a09ebfb4a2501a9e3d70d37f54f923f300000000000000000000000000000000000000000000000000000000000000400000000000000000000000000000000000000000000000000000000000000002beef000000000000000000000000000000000000000000000000000000000000",
        "nonce": "0x2d",
        "chainId": "0x14d"
      },
      "additionalContracts": [],
      "isFixedGasLimit": false
    },
    {
      "hash": "0x25955bd7ab1a92c65c59326657b4f91d21bafc700fb5375a9a12363b37d554fb",
      "transactionType": "CALL",
      "contractName": null,
      "contractAddress": "0x048255dfef2ebfa7307058ae475a3e2f5ee0df46",
      "function": "closeIntent(bytes32)",
      "arguments": [
        "0x15b9517f84e81219f907e347d0894b01e0d21e5729f301eef26bc1aa086b15e8"
      ],
      "transaction": {
        "from": "0xd289d1387ae1033a703842d69501d5bec5a6f04e",
        "to": "0x048255dfef2ebfa7307058ae475a3e2f5ee0df46",
        "value": "0x0",
        "input": "0x51ead90a15b9517f84e81219f907e347d0894b01e0d21e5729f301eef26bc1aa086b15e8",
        "nonce": "0x2e",
        "chainId": "0x14d"
      },
      "additionalContracts": [],
      "isFixedGasLimit": false
    },
    {
      "hash": "0xb6a8f3b9deae1eb7e331a012bc5a53500543da1ae7702867e71b94963ba23d13",
      "transactionType": "CALL",
      "contractName": null,
      "contractAddress": "0x4d4adec97e3e11693f65dedc2d1e6bec784eb2f1",
      "function": "mint(address,uint256)",
      "arguments": [
        "0x861529c93D74a2d9b8d7d0009b7c183dceb54e3E",
        "10000333"
      ],
      "transaction": {
        "from": "0xd289d1387ae1033a703842d69501d5bec5a6f04e",
        "to": "0x4d4adec97e3e11693f65dedc2d1e6bec784eb2f1",
        "value": "0x0",
        "input": "0x40c10f19000000000000000000000000861529c93d74a2d9b8d7d0009b7c183dceb54e3e00000000000000000000000000000000000000000000000000000000009897cd",
        "nonce": "0x2f",
        "chainId": "0x14d"
      },
      "additionalContracts": [],
      "isFixedGasLimit": false
    },
    {
      "hash": "0x2f1aa65ff22cdb4d1dee8226ee8b48be78c4de85700e0880923abacae688c712",
      "transactionType": "CALL",
      "contractName": null,
      "contractAddress": "0x8828fd7431d5bb1962d7e067c103b2324fa6bbec",
      "function": "pullFromReceiver((uint256,address,bool,bytes32,bytes32,uint256,address,address,(address,uint256,bytes)[],bytes))",
      "arguments": [
        "(222, 0x048255dfEF2eBFA7307058Ae475a3e2F5ee0df46, true, 0x805137159b1f1225efc7ae36f6b216b76c0e9bed085c4220b2f702fde8defd04, 0x38cb7bc9535f8b89744a14dd2acfe7dcc993eb5f668dfbcb95bdf21a839e2ec0, 10000333, 0x4D4aDEc97e3e11693F65dEDC2D1e6Bec784eB2F1, 0x4D4aDEc97e3e11693F65dEDC2D1e6Bec784eB2F1, [], 0x)"
      ],
      "transaction": {
        "from": "0xd289d1387ae1033a703842d69501d5bec5a6f04e",
        "to": "0x8828fd7431d5bb1962d7e067c103b2324fa6bbec",
        "value": "0x0",
        "input": "0x1ad1087b000000000000000000000000000000000000000000000000000000000000002000000000000000000000000000000000000000000000000000000000000000de000000000000000000000000048255dfef2ebfa7307058ae475a3e2f5ee0df460000000000000000000000000000000000000000000000000000000000000001805137159b1f1225efc7ae36f6b216b76c0e9bed085c4220b2f702fde8defd0438cb7bc9535f8b89744a14dd2acfe7dcc993eb5f668dfbcb95bdf21a839e2ec000000000000000000000000000000000000000000000000000000000009897cd0000000000000000000000004d4adec97e3e11693f65dedc2d1e6bec784eb2f10000000000000000000000004d4adec97e3e11693f65dedc2d1e6bec784eb2f10000000000000000000000000000000000000000000000000000000000000140000000000000000000000000000000000000000000000000000000000000016000000000000000000000000000000000000000000000000000000000000000000000000000000000000000000000000000000000000000000000000000000000",
        "nonce": "0x30",
        "chainId": "0x14d"
      },
      "additionalContracts": [],
      "isFixedGasLimit": false
    }
  ],
  "receipts": [
    {
      "status": "0x1",
      "cumulativeGasUsed": "0x52451",
      "logs": [],
      "logsBloom": "0x00000000000000000000000000000000000000000000000000000000000000000000000000000000000000000000000000000000000000000000000000000000000000000000000000000000000000000000000000000000000000000000000000000000000000000000000000000000000000000000000000000000000000000000000000000000000000000000000000000000000000000000000000000000000000000000000000000000000000000000000000000000000000000000000000000000000000000000000000000000000000000000000000000000000000000000000000000000000000000000000000000000000000000000000000000000",
      "type": "0x0",
      "transactionHash": "0x0bd00aafbb67c67bf0d7afc58065ef5a70ff3bcaa705d25ae06c399210b95d62",
      "transactionIndex": "0x0",
      "blockHash": "0x2a9fa1acced3e37fcd116286a406f73c755e6bdf8cd4fe7380bbcbcb23661b71",
      "blockNumber": "0xd",
      "gasUsed": "0x52451",
      "effectiveGasPrice": "0x3b9aca00",
      "blobGasPrice": "0x1",
      "from": "0xd289d1387ae1033a703842d69501d5bec5a6f04e",
      "to": null,
      "contractAddress": "0x0be19c78706c441de4178a2266a650e47160eda7"
    },
    {
      "status": "0x1",
      "cumulativeGasUsed": "0xc546",
      "logs": [
        {
          "address": "0x8828fd7431d5bb1962d7e067c103b2324fa6bbec",
          "topics": [
            "0x14c028d3d668eb3454bce44d123ceeeb9fb4e74bee073c41f4001e63f0613094",
            "0x0000000000000000000000000be19c78706c441de4178a2266a650e47160eda7",
            "0x0000000000000000000000000be19c78706c441de4178a2266a650e47160eda7"
          ],
          "data": "0x",
          "blockHash": "0x307cb731ae143cdb4c9bc28214d785dd89f85ccbed81e3e1eedaa367a47f890c",
          "blockNumber": "0xe",
          "blockTimestamp": "0x69665360",
          "transactionHash": "0x9aa65cbff63a528b3f793efd281b1da51e6c122799e0dcf89cf4c57b275c98d6",
          "transactionIndex": "0x0",
          "logIndex": "0x0",
          "removed": false
        },
        {
          "address": "0x8828fd7431d5bb1962d7e067c103b2324fa6bbec",
          "topics": [
            "0x78160f0b1b2b32b52a0076d8f0f70888687ba702a4d993d55ac8d9327d57a127",
            "0x0000000000000000000000000000000000000000000000000000000000000004",
            "0x4c9497c2be5bc79a95e0f716144b046fd61d0de4d2410e452149f9f4353c15f7",
            "0xc12dedba5db09ede75802cf8ca8f49a5ebad81e4d21c0e25a965432c9b868654"
          ],
          "data": "0x14c028d3d668eb3454bce44d123ceeeb9fb4e74bee073c41f4001e63f0613094000000000000000000000000000000000000000000000000000000000000004000000000000000000000000000000000000000000000000000000000000000400000000000000000000000000be19c78706c441de4178a2266a650e47160eda70000000000000000000000000be19c78706c441de4178a2266a650e47160eda7",
          "blockHash": "0x307cb731ae143cdb4c9bc28214d785dd89f85ccbed81e3e1eedaa367a47f890c",
          "blockNumber": "0xe",
          "blockTimestamp": "0x69665360",
          "transactionHash": "0x9aa65cbff63a528b3f793efd281b1da51e6c122799e0dcf89cf4c57b275c98d6",
          "transactionIndex": "0x0",
          "logIndex": "0x1",
          "removed": false
        }
      ],
      "logsBloom": "0x00000000000400000000000000000000000000000000000000000000000000000000000000200000000000000000000000000000000000000000000000200000000000800200000000000000000000000000000000000000000000000000000018000020008800000000000400000008000000000200000000100000000000000000000000000000000000000000000020000000000000000000000000000000000000000000000000000000000000000000000000000000002000000000000000000000000000040000000000000010000000008000000000000000000000000400000000000000000000000000000000000000000000000000000000004000",
      "type": "0x0",
      "transactionHash": "0x9aa65cbff63a528b3f793efd281b1da51e6c122799e0dcf89cf4c57b275c98d6",
      "transactionIndex": "0x0",
      "blockHash": "0x307cb731ae143cdb4c9bc28214d785dd89f85ccbed81e3e1eedaa367a47f890c",
      "blockNumber": "0xe",
      "gasUsed": "0xc546",
      "effectiveGasPrice": "0x3b9aca00",
      "blobGasPrice": "0x1",
      "from": "0xd289d1387ae1033a703842d69501d5bec5a6f04e",
      "to": "0x8828fd7431d5bb1962d7e067c103b2324fa6bbec",
      "contractAddress": null
    },
    {
      "status": "0x1",
      "cumulativeGasUsed": "0x1f4cb",
      "logs": [],
      "logsBloom": "0x00000000000000000000000000000000000000000000000000000000000000000000000000000000000000000000000000000000000000000000000000000000000000000000000000000000000000000000000000000000000000000000000000000000000000000000000000000000000000000000000000000000000000000000000000000000000000000000000000000000000000000000000000000000000000000000000000000000000000000000000000000000000000000000000000000000000000000000000000000000000000000000000000000000000000000000000000000000000000000000000000000000000000000000000000000000",
      "type": "0x0",
      "transactionHash": "0xb9dcb1338c908c0674de52a2aeaea5fbe365295091a395696d56375f7a640d56",
      "transactionIndex": "0x0",
      "blockHash": "0xd4bac398e93762735b4b87754ee9b58c836d1f74db8a61f2c202721fb89a5a53",
      "blockNumber": "0xf",
      "gasUsed": "0x1f4cb",
      "effectiveGasPrice": "0x3b9aca00",
      "blobGasPrice": "0x1",
      "from": "0xd289d1387ae1033a703842d69501d5bec5a6f04e",
      "to": null,
      "contractAddress": "0x481e836be187303c64f269bc7fe2c52f7f7c6eef"
    },
    {
      "status": "0x1",
      "cumulativeGasUsed": "0xaa2b",
      "logs": [],
      "logsBloom": "0x00000000000000000000000000000000000000000000000000000000000000000000000000000000000000000000000000000000000000000000000000000000000000000000000000000000000000000000000000000000000000000000000000000000000000000000000000000000000000000000000000000000000000000000000000000000000000000000000000000000000000000000000000000000000000000000000000000000000000000000000000000000000000000000000000000000000000000000000000000000000000000000000000000000000000000000000000000000000000000000000000000000000000000000000000000000",
      "type": "0x0",
      "transactionHash": "0xa2d30251956de9976b77663cf7ef3c88b3579fad96010a8c72180300080f5de7",
      "transactionIndex": "0x0",
      "blockHash": "0x2d761f944c54e4ab2d031bd61fd0974301bdaf2a716e957f16faac3b6bb057e3",
      "blockNumber": "0x10",
      "gasUsed": "0xaa2b",
      "effectiveGasPrice": "0x3b9aca00",
      "blobGasPrice": "0x1",
      "from": "0xd289d1387ae1033a703842d69501d5bec5a6f04e",
      "to": "0x481e836be187303c64f269bc7fe2c52f7f7c6eef",
      "contractAddress": null
    },
    {
      "status": "0x1",
      "cumulativeGasUsed": "0xb23d",
      "logs": [
        {
          "address": "0x8828fd7431d5bb1962d7e067c103b2324fa6bbec",
          "topics": [
            "0x2e3d7d02ba3c4bd8b1f8995cd3a23ef0193922ebc4ee23249ead4d0ca2e34c68",
            "0x0000000000000000000000004d4adec97e3e11693f65dedc2d1e6bec784eb2f1",
            "0x000000000000000000000000481e836be187303c64f269bc7fe2c52f7f7c6eef"
          ],
          "data": "0x",
          "blockHash": "0x6ce008a1424c51c5603641de768e7220592a10bc9f29b00a450b8cfe2b909a71",
          "blockNumber": "0x11",
          "blockTimestamp": "0x69665360",
          "transactionHash": "0xf724177c1161a7e15a716e0acf18383f08aa68a5e83c51a24ad7b8974fec3761",
          "transactionIndex": "0x0",
          "logIndex": "0x0",
          "removed": false
        },
        {
          "address": "0x8828fd7431d5bb1962d7e067c103b2324fa6bbec",
          "topics": [
            "0x78160f0b1b2b32b52a0076d8f0f70888687ba702a4d993d55ac8d9327d57a127",
            "0x0000000000000000000000000000000000000000000000000000000000000005",
            "0xc12dedba5db09ede75802cf8ca8f49a5ebad81e4d21c0e25a965432c9b868654",
            "0x7726c8c92523d99360b62e114f1f0c25c3a232c2ada6386e595b07ce6ea95296"
          ],
          "data": "0x2e3d7d02ba3c4bd8b1f8995cd3a23ef0193922ebc4ee23249ead4d0ca2e34c68000000000000000000000000000000000000000000000000000000000000004000000000000000000000000000000000000000000000000000000000000000400000000000000000000000004d4adec97e3e11693f65dedc2d1e6bec784eb2f1000000000000000000000000481e836be187303c64f269bc7fe2c52f7f7c6eef",
          "blockHash": "0x6ce008a1424c51c5603641de768e7220592a10bc9f29b00a450b8cfe2b909a71",
          "blockNumber": "0x11",
          "blockTimestamp": "0x69665360",
          "transactionHash": "0xf724177c1161a7e15a716e0acf18383f08aa68a5e83c51a24ad7b8974fec3761",
          "transactionIndex": "0x0",
          "logIndex": "0x1",
          "removed": false
        }
      ],
      "logsBloom": "0x00000000000400000000000000200000000000000000000000000000000000000000000000200000000000000000000000000000000000000400000000200000000010000200000000000000000000020408000020000000000000000000000000000020000800000000000000000008000000000000000080000000000000000000004000000080000000000000001020000800000000000000000000000000000000000000000000000000000000000000000000000000000000000000000000000000000008000000000000000000000000000000000000000000000000000000000000000000000000000080000000000000000400000000000000004000",
      "type": "0x0",
      "transactionHash": "0xf724177c1161a7e15a716e0acf18383f08aa68a5e83c51a24ad7b8974fec3761",
      "transactionIndex": "0x0",
      "blockHash": "0x6ce008a1424c51c5603641de768e7220592a10bc9f29b00a450b8cfe2b909a71",
      "blockNumber": "0x11",
      "gasUsed": "0xb23d",
      "effectiveGasPrice": "0x3b9aca00",
      "blobGasPrice": "0x1",
      "from": "0xd289d1387ae1033a703842d69501d5bec5a6f04e",
      "to": "0x8828fd7431d5bb1962d7e067c103b2324fa6bbec",
      "contractAddress": null
    },
    {
      "status": "0x1",
      "cumulativeGasUsed": "0x147a0",
      "logs": [
        {
          "address": "0x048255dfef2ebfa7307058ae475a3e2f5ee0df46",
          "topics": [
            "0x9d4c3779a823aa84b20dd2e8551e6ed95addbc562f3bc49b1e688ab785b05d9d"
          ],
          "data": "0x0000000000000000000000000000000000000000000000000000000000002710000000000000000000000000000000000000000000000000000000000000007b",
          "blockHash": "0x7b0806462b69e62dc5a1709fe01ab05f3c10329985fabc65b375250bc42f72ee",
          "blockNumber": "0x12",
          "blockTimestamp": "0x69665360",
          "transactionHash": "0xe1637935c59f388458161687b1ef7ccacd756684d52950d43fd1cf6735a96f1b",
          "transactionIndex": "0x0",
          "logIndex": "0x0",
          "removed": false
        },
        {
          "address": "0x048255dfef2ebfa7307058ae475a3e2f5ee0df46",
          "topics": [
            "0x78160f0b1b2b32b52a0076d8f0f70888687ba702a4d993d55ac8d9327d57a127",
            "0x0000000000000000000000000000000000000000000000000000000000000003",
            "0x701d5e94c1e758ab0626fffeb760fbf90211837191f5ba35ca2daf942e293270",
            "0x382e2bb8f3df80fe469294c69465e710c93b5bc068050045e1b2bef05711e019"
          ],
          "data": "0x9d4c3779a823aa84b20dd2e8551e6ed95addbc562f3bc49b1e688ab785b05d9d000000000000000000000000000000000000000000000000000000000000004000000000000000000000000000000000000000000000000000000000000000400000000000000000000000000000000000000000000000000000000000002710000000000000000000000000000000000000000000000000000000000000007b",
          "blockHash": "0x7b0806462b69e62dc5a1709fe01ab05f3c10329985fabc65b375250bc42f72ee",
          "blockNumber": "0x12",
          "blockTimestamp": "0x69665360",
          "transactionHash": "0xe1637935c59f388458161687b1ef7ccacd756684d52950d43fd1cf6735a96f1b",
          "transactionIndex": "0x0",
          "logIndex": "0x1",
          "removed": false
        }
      ],
      "logsBloom": "0x00000000000000800000000000000000000000000000000000000000000000000000000000000000000000000000000000000002020000000000000000200000000000000000000000000000000000000000000000000000000000000000000000000020040800004000000000000000000000000000000000000000000000000000000000000000000000000000000000000080000000000000000040000000000000000000000000000000000000000000000200800000000000000000400010000060000000000000000000000000000000000200000000000000000000000000000000000000000000000000000000000000000000000000000000004000",
      "type": "0x0",
      "transactionHash": "0xe1637935c59f388458161687b1ef7ccacd756684d52950d43fd1cf6735a96f1b",
      "transactionIndex": "0x0",
      "blockHash": "0x7b0806462b69e62dc5a1709fe01ab05f3c10329985fabc65b375250bc42f72ee",
      "blockNumber": "0x12",
      "gasUsed": "0x147a0",
      "effectiveGasPrice": "0x3b9aca00",
      "blobGasPrice": "0x1",
      "from": "0xd289d1387ae1033a703842d69501d5bec5a6f04e",
      "to": "0x048255dfef2ebfa7307058ae475a3e2f5ee0df46",
      "contractAddress": null
    },
    {
      "status": "0x1",
      "cumulativeGasUsed": "0x1f4cb",
      "logs": [],
      "logsBloom": "0x00000000000000000000000000000000000000000000000000000000000000000000000000000000000000000000000000000000000000000000000000000000000000000000000000000000000000000000000000000000000000000000000000000000000000000000000000000000000000000000000000000000000000000000000000000000000000000000000000000000000000000000000000000000000000000000000000000000000000000000000000000000000000000000000000000000000000000000000000000000000000000000000000000000000000000000000000000000000000000000000000000000000000000000000000000000",
      "type": "0x0",
      "transactionHash": "0x209b5ee5d897e109dfc958ee4bacd5b2991aaca81948db2cf3090c58b37f2dc2",
      "transactionIndex": "0x0",
      "blockHash": "0x6e20c8fb84f7f38fad91e1aee6b3b480add048b779074afda2221f273cef38a5",
      "blockNumber": "0x13",
      "gasUsed": "0x1f4cb",
      "effectiveGasPrice": "0x3b9aca00",
      "blobGasPrice": "0x1",
      "from": "0xd289d1387ae1033a703842d69501d5bec5a6f04e",
      "to": null,
      "contractAddress": "0x6b0f32ae157cf4f7d9b402c4e243e9088207dd87"
    },
    {
      "status": "0x1",
      "cumulativeGasUsed": "0xaa2b",
      "logs": [],
      "logsBloom": "0x00000000000000000000000000000000000000000000000000000000000000000000000000000000000000000000000000000000000000000000000000000000000000000000000000000000000000000000000000000000000000000000000000000000000000000000000000000000000000000000000000000000000000000000000000000000000000000000000000000000000000000000000000000000000000000000000000000000000000000000000000000000000000000000000000000000000000000000000000000000000000000000000000000000000000000000000000000000000000000000000000000000000000000000000000000000",
      "type": "0x0",
      "transactionHash": "0x401604e058bfa88a55dced171ce64a920f2201f77fde49f210f234c9c1e1725c",
      "transactionIndex": "0x0",
      "blockHash": "0x2657784b90ce31f91e0ed0e64eb67b1efbd85d6a914342cf7b2d0ee1ea795f8f",
      "blockNumber": "0x14",
      "gasUsed": "0xaa2b",
      "effectiveGasPrice": "0x3b9aca00",
      "blobGasPrice": "0x1",
      "from": "0xd289d1387ae1033a703842d69501d5bec5a6f04e",
      "to": "0x6b0f32ae157cf4f7d9b402c4e243e9088207dd87",
      "contractAddress": null
    },
    {
      "status": "0x1",
      "cumulativeGasUsed": "0xb23d",
      "logs": [
        {
          "address": "0x8828fd7431d5bb1962d7e067c103b2324fa6bbec",
          "topics": [
            "0x2e3d7d02ba3c4bd8b1f8995cd3a23ef0193922ebc4ee23249ead4d0ca2e34c68",
            "0x0000000000000000000000004d4adec97e3e11693f65dedc2d1e6bec784eb2f1",
            "0x0000000000000000000000006b0f32ae157cf4f7d9b402c4e243e9088207dd87"
          ],
          "data": "0x",
          "blockHash": "0x1129fbadc72c0d71ace735fdcc867cb75a37a8989f60436a840b7d7e798ef8a3",
          "blockNumber": "0x15",
          "blockTimestamp": "0x69665360",
          "transactionHash": "0x2fde58b6f721adf32041ecee797eba3d651b5f8e568b73c8d55e755322ae8319",
          "transactionIndex": "0x0",
          "logIndex": "0x0",
          "removed": false
        },
        {
          "address": "0x8828fd7431d5bb1962d7e067c103b2324fa6bbec",
          "topics": [
            "0x78160f0b1b2b32b52a0076d8f0f70888687ba702a4d993d55ac8d9327d57a127",
            "0x0000000000000000000000000000000000000000000000000000000000000006",
            "0x7726c8c92523d99360b62e114f1f0c25c3a232c2ada6386e595b07ce6ea95296",
            "0x9277f00504e675044ab0e583a02ef207086fcf194acaefd32ff78219bf2842fb"
          ],
          "data": "0x2e3d7d02ba3c4bd8b1f8995cd3a23ef0193922ebc4ee23249ead4d0ca2e34c68000000000000000000000000000000000000000000000000000000000000004000000000000000000000000000000000000000000000000000000000000000400000000000000000000000004d4adec97e3e11693f65dedc2d1e6bec784eb2f10000000000000000000000006b0f32ae157cf4f7d9b402c4e243e9088207dd87",
          "blockHash": "0x1129fbadc72c0d71ace735fdcc867cb75a37a8989f60436a840b7d7e798ef8a3",
          "blockNumber": "0x15",
          "blockTimestamp": "0x69665360",
          "transactionHash": "0x2fde58b6f721adf32041ecee797eba3d651b5f8e568b73c8d55e755322ae8319",
          "transactionIndex": "0x0",
          "logIndex": "0x1",
          "removed": false
        }
      ],
      "logsBloom": "0x00000000000000100000000000200000000000000000000000000000000000000000000000000000000000000000000000000000000400000000000000200000000000000200000000000000000004020400000000400000000000000000000000000020000804000000000000000008000000000000000080000000000000000000004400000080000000000000000000000000000000000000000000000000000001000000000000000000000000000000000000000000000000080080000000000000000008000000000000000000000000000000000000000000000000000000000000000000000000000080000000000000000400000000000000004000",
      "type": "0x0",
      "transactionHash": "0x2fde58b6f721adf32041ecee797eba3d651b5f8e568b73c8d55e755322ae8319",
      "transactionIndex": "0x0",
      "blockHash": "0x1129fbadc72c0d71ace735fdcc867cb75a37a8989f60436a840b7d7e798ef8a3",
      "blockNumber": "0x15",
      "gasUsed": "0xb23d",
      "effectiveGasPrice": "0x3b9aca00",
      "blobGasPrice": "0x1",
      "from": "0xd289d1387ae1033a703842d69501d5bec5a6f04e",
      "to": "0x8828fd7431d5bb1962d7e067c103b2324fa6bbec",
      "contractAddress": null
    },
    {
      "status": "0x1",
      "cumulativeGasUsed": "0x50fb6",
      "logs": [],
      "logsBloom": "0x00000000000000000000000000000000000000000000000000000000000000000000000000000000000000000000000000000000000000000000000000000000000000000000000000000000000000000000000000000000000000000000000000000000000000000000000000000000000000000000000000000000000000000000000000000000000000000000000000000000000000000000000000000000000000000000000000000000000000000000000000000000000000000000000000000000000000000000000000000000000000000000000000000000000000000000000000000000000000000000000000000000000000000000000000000000",
      "type": "0x0",
      "transactionHash": "0x049742a1cabc77723bf21a7a074bf850c642f851372bc230fe2f10ed90bed8d4",
      "transactionIndex": "0x0",
      "blockHash": "0x054e2df207e399f7fe317c3b19942f121edf8da7938c630c2f4d0ed66f222062",
      "blockNumber": "0x16",
      "gasUsed": "0x50fb6",
      "effectiveGasPrice": "0x3b9aca00",
      "blobGasPrice": "0x1",
      "from": "0xd289d1387ae1033a703842d69501d5bec5a6f04e",
      "to": null,
      "contractAddress": "0xc5ea444a0f556f5b227ec7447294d91086bb692c"
    },
    {
      "status": "0x1",
      "cumulativeGasUsed": "0xc546",
      "logs": [
        {
          "address": "0x8828fd7431d5bb1962d7e067c103b2324fa6bbec",
          "topics": [
            "0x14c028d3d668eb3454bce44d123ceeeb9fb4e74bee073c41f4001e63f0613094",
            "0x000000000000000000000000c5ea444a0f556f5b227ec7447294d91086bb692c",
            "0x000000000000000000000000c5ea444a0f556f5b227ec7447294d91086bb692c"
          ],
          "data": "0x",
          "blockHash": "0x429be29fd415a31b5ea2dea0f3a0898b7d98a8ccb16f65fc627e5583fff3ef12",
          "blockNumber": "0x17",
          "blockTimestamp": "0x69665360",
          "transactionHash": "0xd77f69c0220e9c917abac00f67b0be3357dfb3fa94fb7244724ebf00b6163ab5",
          "transactionIndex": "0x0",
          "logIndex": "0x0",
          "removed": false
        },
        {
          "address": "0x8828fd7431d5bb1962d7e067c103b2324fa6bbec",
          "topics": [
            "0x78160f0b1b2b32b52a0076d8f0f70888687ba702a4d993d55ac8d9327d57a127",
            "0x0000000000000000000000000000000000000000000000000000000000000007",
            "0x9277f00504e675044ab0e583a02ef207086fcf194acaefd32ff78219bf2842fb",
            "0xb6e543e11e6fbc1ee094748880b0436ed3dfaf72ad58b0be2313c9fcb8321b80"
          ],
          "data": "0x14c028d3d668eb3454bce44d123ceeeb9fb4e74bee073c41f4001e63f061309400000000000000000000000000000000000000000000000000000000000000400000000000000000000000000000000000000000000000000000000000000040000000000000000000000000c5ea444a0f556f5b227ec7447294d91086bb692c000000000000000000000000c5ea444a0f556f5b227ec7447294d91086bb692c",
          "blockHash": "0x429be29fd415a31b5ea2dea0f3a0898b7d98a8ccb16f65fc627e5583fff3ef12",
          "blockNumber": "0x17",
          "blockTimestamp": "0x69665360",
          "transactionHash": "0xd77f69c0220e9c917abac00f67b0be3357dfb3fa94fb7244724ebf00b6163ab5",
          "transactionIndex": "0x0",
          "logIndex": "0x1",
          "removed": false
        }
      ],
      "logsBloom": "0x00000000000000100000000000000000000000000000000000000000000000000000000000000000000000000000000000001000000000000000000000200000000020000200000001000000000020000000000000400000000000100000000000000020000804000000000000000008000000000000000000000000000000000000000000000000000000000000000000000000000000000000000000000000000000000000000000000000000000000100000000000000000000000000000000000000000000040000000000000010000000000000000000000100000000001400000000000000000000000000000000000000000000000000000400004000",
      "type": "0x0",
      "transactionHash": "0xd77f69c0220e9c917abac00f67b0be3357dfb3fa94fb7244724ebf00b6163ab5",
      "transactionIndex": "0x0",
      "blockHash": "0x429be29fd415a31b5ea2dea0f3a0898b7d98a8ccb16f65fc627e5583fff3ef12",
      "blockNumber": "0x17",
      "gasUsed": "0xc546",
      "effectiveGasPrice": "0x3b9aca00",
      "blobGasPrice": "0x1",
      "from": "0xd289d1387ae1033a703842d69501d5bec5a6f04e",
      "to": "0x8828fd7431d5bb1962d7e067c103b2324fa6bbec",
      "contractAddress": null
    },
    {
      "status": "0x1",
      "cumulativeGasUsed": "0xac6c",
      "logs": [],
      "logsBloom": "0x00000000000000000000000000000000000000000000000000000000000000000000000000000000000000000000000000000000000000000000000000000000000000000000000000000000000000000000000000000000000000000000000000000000000000000000000000000000000000000000000000000000000000000000000000000000000000000000000000000000000000000000000000000000000000000000000000000000000000000000000000000000000000000000000000000000000000000000000000000000000000000000000000000000000000000000000000000000000000000000000000000000000000000000000000000000",
      "type": "0x0",
      "transactionHash": "0x4df0fe94c202468901b9316d1bb846761fd4a00a6c75fe821afa7a0bf04aa896",
      "transactionIndex": "0x0",
      "blockHash": "0xfeaef299d20e3d5720df9a8e81f7489c79344f01b5eb8c94763f3272fcbb5b7b",
      "blockNumber": "0x18",
      "gasUsed": "0xac6c",
      "effectiveGasPrice": "0x3b9aca00",
      "blobGasPrice": "0x1",
      "from": "0xd289d1387ae1033a703842d69501d5bec5a6f04e",
      "to": "0x4d4adec97e3e11693f65dedc2d1e6bec784eb2f1",
      "contractAddress": null
    },
    {
      "status": "0x1",
      "cumulativeGasUsed": "0x30390",
      "logs": [
        {
          "address": "0x8828fd7431d5bb1962d7e067c103b2324fa6bbec",
          "topics": [
            "0x7391f14355eff1e559e381f5bf49886a77da7c4fdd33c6fc2e0142269c561c59",
            "0x2eca69742163858d1db9adc288336919f87c2626936291b6f1311977c7800ed8",
            "0x8856e936a3cdfae958688c88129a96d47c3c0d2ae8313ffbaab6d66489e00174",
            "0x0000000000000000000000000000000000000000000000000000000000000001"
          ],
          "data": "0x0000000000000000000000000000000000000000000000000000000000000000000000000000000000000000000000000000000000000000000000000000014d000000000000000000000000d59d27b9172ad056cb5c008dc2bbefe702123a55000000000000000000000000000000000000000000000000000000000000000000000000000000000000000000000000000000000000000000000000000000000000000000000000000000004d4adec97e3e11693f65dedc2d1e6bec784eb2f10000000000000000000000004d4adec97e3e11693f65dedc2d1e6bec784eb2f1000000000000000000000000ed87227a182e5a8fc74b1d40d80db6208741c435000000000000000000000000ad37e25f58e986e1672e95d23b331a90554a72d5",
          "blockHash": "0x939b09fe2bf054ecb0e8d6d96b010c335d3a9040195027eced45b926461db445",
          "blockNumber": "0x19",
          "blockTimestamp": "0x69665360",
          "transactionHash": "0x891413bda4f1988031044ccaaf836f37e6ec733847357bfe573d6d0e34ffb85f",
          "transactionIndex": "0x0",
          "logIndex": "0x0",
          "removed": false
        },
        {
          "address": "0x8828fd7431d5bb1962d7e067c103b2324fa6bbec",
          "topics": [
            "0x78160f0b1b2b32b52a0076d8f0f70888687ba702a4d993d55ac8d9327d57a127",
            "0x0000000000000000000000000000000000000000000000000000000000000008",
            "0xb6e543e11e6fbc1ee094748880b0436ed3dfaf72ad58b0be2313c9fcb8321b80",
            "0x8a43a66a588fcec248c133e26f9791c82edb8a6394600d1bc44bc529dd2cd269"
          ],
          "data": "0x7391f14355eff1e559e381f5bf49886a77da7c4fdd33c6fc2e0142269c561c59000000000000000000000000000000000000000000000000000000000000004000000000000000000000000000000000000000000000000000000000000001802eca69742163858d1db9adc288336919f87c2626936291b6f1311977c7800ed88856e936a3cdfae958688c88129a96d47c3c0d2ae8313ffbaab6d66489e0017400000000000000000000000000000000000000000000000000000000000000010000000000000000000000000000000000000000000000000000000000000000000000000000000000000000000000000000000000000000000000000000014d000000000000000000000000d59d27b9172ad056cb5c008dc2bbefe702123a55000000000000000000000000000000000000000000000000000000000000000000000000000000000000000000000000000000000000000000000000000000000000000000000000000000004d4adec97e3e11693f65dedc2d1e6bec784eb2f10000000000000000000000004d4adec97e3e11693f65dedc2d1e6bec784eb2f1000000000000000000000000ed87227a182e5a8fc74b1d40d80db6208741c435000000000000000000000000ad37e25f58e986e1672e95d23b331a90554a72d5",
          "blockHash": "0x939b09fe2bf054ecb0e8d6d96b010c335d3a9040195027eced45b926461db445",
          "blockNumber": "0x19",
          "blockTimestamp": "0x69665360",
          "transactionHash": "0x891413bda4f1988031044ccaaf836f37e6ec733847357bfe573d6d0e34ffb85f",
          "transactionIndex": "0x0",
          "logIndex": "0x1",
          "removed": false
        },
        {
          "address": "0x8828fd7431d5bb1962d7e067c103b2324fa6bbec",
          "topics": [
            "0x488f06a9ca9e19e1dd90c764cc79b765e8a3a089ef27d9a0e39dee21c7643188",
            "0x78a874d51ba6291372c95de59089ea611c00921ec5e2c816f77aba409c60230e",
            "0x000000000000000000000000ad37e25f58e986e1672e95d23b331a90554a72d5"
          ],
          "data": "0x000000000000000000000000e007a594267d5b9a4f5bf6fd054579eb82f5a057",
          "blockHash": "0x939b09fe2bf054ecb0e8d6d96b010c335d3a9040195027eced45b926461db445",
          "blockNumber": "0x19",
          "blockTimestamp": "0x69665360",
          "transactionHash": "0x891413bda4f1988031044ccaaf836f37e6ec733847357bfe573d6d0e34ffb85f",
          "transactionIndex": "0x0",
          "logIndex": "0x2",
          "removed": false
        },
        {
          "address": "0x8828fd7431d5bb1962d7e067c103b2324fa6bbec",
          "topics": [
            "0x78160f0b1b2b32b52a0076d8f0f70888687ba702a4d993d55ac8d9327d57a127",
            "0x0000000000000000000000000000000000000000000000000000000000000009",
            "0x8a43a66a588fcec248c133e26f9791c82edb8a6394600d1bc44bc529dd2cd269",
            "0x2754da3d5a2b0507d0e07ff6e94772cd224520b2289de064b583c8879755fa3f"
          ],
          "data": "0x488f06a9ca9e19e1dd90c764cc79b765e8a3a089ef27d9a0e39dee21c76431880000000000000000000000000000000000000000000000000000000000000040000000000000000000000000000000000000000000000000000000000000006078a874d51ba6291372c95de59089ea611c00921ec5e2c816f77aba409c60230e000000000000000000000000ad37e25f58e986e1672e95d23b331a90554a72d5000000000000000000000000e007a594267d5b9a4f5bf6fd054579eb82f5a057",
          "blockHash": "0x939b09fe2bf054ecb0e8d6d96b010c335d3a9040195027eced45b926461db445",
          "blockNumber": "0x19",
          "blockTimestamp": "0x69665360",
          "transactionHash": "0x891413bda4f1988031044ccaaf836f37e6ec733847357bfe573d6d0e34ffb85f",
          "transactionIndex": "0x0",
          "logIndex": "0x3",
          "removed": false
        },
        {
          "address": "0x8828fd7431d5bb1962d7e067c103b2324fa6bbec",
          "topics": [
            "0x488f06a9ca9e19e1dd90c764cc79b765e8a3a089ef27d9a0e39dee21c7643188",
            "0x8856e936a3cdfae958688c88129a96d47c3c0d2ae8313ffbaab6d66489e00174",
            "0x000000000000000000000000ed87227a182e5a8fc74b1d40d80db6208741c435"
          ],
          "data": "0x000000000000000000000000e007a594267d5b9a4f5bf6fd054579eb82f5a057",
          "blockHash": "0x939b09fe2bf054ecb0e8d6d96b010c335d3a9040195027eced45b926461db445",
          "blockNumber": "0x19",
          "blockTimestamp": "0x69665360",
          "transactionHash": "0x891413bda4f1988031044ccaaf836f37e6ec733847357bfe573d6d0e34ffb85f",
          "transactionIndex": "0x0",
          "logIndex": "0x4",
          "removed": false
        },
        {
          "address": "0x8828fd7431d5bb1962d7e067c103b2324fa6bbec",
          "topics": [
            "0x78160f0b1b2b32b52a0076d8f0f70888687ba702a4d993d55ac8d9327d57a127",
            "0x000000000000000000000000000000000000000000000000000000000000000a",
            "0x2754da3d5a2b0507d0e07ff6e94772cd224520b2289de064b583c8879755fa3f",
            "0xc2a0551766f3306839d7de91c81c70f6c96b04adbbbc80fcf939cd91aa7d7368"
          ],
          "data": "0x488f06a9ca9e19e1dd90c764cc79b765e8a3a089ef27d9a0e39dee21c7643188000000000000000000000000000000000000000000000000000000000000004000000000000000000000000000000000000000000000000000000000000000608856e936a3cdfae958688c88129a96d47c3c0d2ae8313ffbaab6d66489e00174000000000000000000000000ed87227a182e5a8fc74b1d40d80db6208741c435000000000000000000000000e007a594267d5b9a4f5bf6fd054579eb82f5a057",
          "blockHash": "0x939b09fe2bf054ecb0e8d6d96b010c335d3a9040195027eced45b926461db445",
          "blockNumber": "0x19",
          "blockTimestamp": "0x69665360",
          "transactionHash": "0x891413bda4f1988031044ccaaf836f37e6ec733847357bfe573d6d0e34ffb85f",
          "transactionIndex": "0x0",
          "logIndex": "0x5",
          "removed": false
        },
        {
          "address": "0x8828fd7431d5bb1962d7e067c103b2324fa6bbec",
          "topics": [
            "0x2e659081f44c4f56a18b00f3f9d136d7ee8396bc79163c4d61363ddcf4a4cb27",
            "0x2eca69742163858d1db9adc288336919f87c2626936291b6f1311977c7800ed8"
          ],
          "data": "0x0000000000000000000000000000000000000000000000000000000000000000000000000000000000000000000000000000000000000000000000000754d4c0000000000000000000000000000000000000000000000000000000000754d4c000000000000000000000000000000000000000000000000000000000000000000000000000000000000000000000000000000000000000000000000000000000000000000000000000000000000000000000000000000000000000000000000100000000000000000000000000000000000000000000000000000000000000000000000000000000000000000000000000000000000000000000000000000000c5d2460186f7233c927e7db2dcc703c0e500b653ca82273b7bfad8045d85a470",
          "blockHash": "0x939b09fe2bf054ecb0e8d6d96b010c335d3a9040195027eced45b926461db445",
          "blockNumber": "0x19",
          "blockTimestamp": "0x69665360",
          "transactionHash": "0x891413bda4f1988031044ccaaf836f37e6ec733847357bfe573d6d0e34ffb85f",
          "transactionIndex": "0x0",
          "logIndex": "0x6",
          "removed": false
        },
        {
          "address": "0x8828fd7431d5bb1962d7e067c103b2324fa6bbec",
          "topics": [
            "0x78160f0b1b2b32b52a0076d8f0f70888687ba702a4d993d55ac8d9327d57a127",
            "0x000000000000000000000000000000000000000000000000000000000000000b",
            "0xc2a0551766f3306839d7de91c81c70f6c96b04adbbbc80fcf939cd91aa7d7368",
            "0x17118ab570729d9074d0a37d224e097fb0039276ce4abb6366d2f080777fc6e4"
          ],
          "data": "0x2e659081f44c4f56a18b00f3f9d136d7ee8396bc79163c4d61363ddcf4a4cb27000000000000000000000000000000000000000000000000000000000000004000000000000000000000000000000000000000000000000000000000000001402eca69742163858d1db9adc288336919f87c2626936291b6f1311977c7800ed80000000000000000000000000000000000000000000000000000000000000000000000000000000000000000000000000000000000000000000000000754d4c0000000000000000000000000000000000000000000000000000000000754d4c000000000000000000000000000000000000000000000000000000000000000000000000000000000000000000000000000000000000000000000000000000000000000000000000000000000000000000000000000000000000000000000000100000000000000000000000000000000000000000000000000000000000000000000000000000000000000000000000000000000000000000000000000000000c5d2460186f7233c927e7db2dcc703c0e500b653ca82273b7bfad8045d85a470",
          "blockHash": "0x939b09fe2bf054ecb0e8d6d96b010c335d3a9040195027eced45b926461db445",
          "blockNumber": "0x19",
          "blockTimestamp": "0x69665360",
          "transactionHash": "0x891413bda4f1988031044ccaaf836f37e6ec733847357bfe573d6d0e34ffb85f",
          "transactionIndex": "0x0",
          "logIndex": "0x7",
          "removed": false
        }
      ],
      "logsBloom": "0x0000000100000000000000400000000000000000080000000000000000000000000000000000000000000100000000000000000104008000002000000024000000008000020000000000000000002080000000000004000048000000000000000000002000080000004000080000000a0000000000000000080008000000200400800000000000000100010000000004000010400000000000000001000000000000040000004000000000000000000001020040100002000001000000000000400000000000000000000000000000000820000000000004000200200000c0001000000000000000001000000000000100040000000400040000000000804000",
      "type": "0x0",
      "transactionHash": "0x891413bda4f1988031044ccaaf836f37e6ec733847357bfe573d6d0e34ffb85f",
      "transactionIndex": "0x0",
      "blockHash": "0x939b09fe2bf054ecb0e8d6d96b010c335d3a9040195027eced45b926461db445",
      "blockNumber": "0x19",
      "gasUsed": "0x30390",
      "effectiveGasPrice": "0x3b9aca00",
      "blobGasPrice": "0x1",
      "from": "0xd289d1387ae1033a703842d69501d5bec5a6f04e",
      "to": "0x8828fd7431d5bb1962d7e067c103b2324fa6bbec",
      "contractAddress": null
    },
    {
      "status": "0x1",
      "cumulativeGasUsed": "0xac60",
      "logs": [],
      "logsBloom": "0x00000000000000000000000000000000000000000000000000000000000000000000000000000000000000000000000000000000000000000000000000000000000000000000000000000000000000000000000000000000000000000000000000000000000000000000000000000000000000000000000000000000000000000000000000000000000000000000000000000000000000000000000000000000000000000000000000000000000000000000000000000000000000000000000000000000000000000000000000000000000000000000000000000000000000000000000000000000000000000000000000000000000000000000000000000000",
      "type": "0x0",
      "transactionHash": "0x69f070f5563bca8333368fbdf915569ce367bb972188576858f828a52beed83f",
      "transactionIndex": "0x0",
      "blockHash": "0xe873ccf59db2939bf9572fa07a5c2dba7b6d6839892b41206ad36296e8106624",
      "blockNumber": "0x1a",
      "gasUsed": "0xac60",
      "effectiveGasPrice": "0x3b9aca00",
      "blobGasPrice": "0x1",
      "from": "0xd289d1387ae1033a703842d69501d5bec5a6f04e",
      "to": "0x4d4adec97e3e11693f65dedc2d1e6bec784eb2f1",
      "contractAddress": null
    },
    {
      "status": "0x1",
      "cumulativeGasUsed": "0x3df0a",
      "logs": [
        {
          "address": "0x8828fd7431d5bb1962d7e067c103b2324fa6bbec",
          "topics": [
            "0x7391f14355eff1e559e381f5bf49886a77da7c4fdd33c6fc2e0142269c561c59",
            "0x84769369b2ccc797d45e690e43c16706681366804ad95c0c83787b6c1cdf0bc4",
            "0x8856e936a3cdfae958688c88129a96d47c3c0d2ae8313ffbaab6d66489e00174",
            "0x0000000000000000000000000000000000000000000000000000000000000002"
          ],
          "data": "0x0000000000000000000000000000000000000000000000000000000000000000000000000000000000000000000000000000000000000000000000000000014d000000000000000000000000d59d27b9172ad056cb5c008dc2bbefe702123a55000000000000000000000000000000000000000000000000000000000000000000000000000000000000000000000000000000000000000000000000000000000000000000000000000000004d4adec97e3e11693f65dedc2d1e6bec784eb2f1000000000000000000000000f86c23c1e883ee3b820fb9be75ff91c9a49eae75000000000000000000000000ed87227a182e5a8fc74b1d40d80db6208741c4350000000000000000000000008cfa8767685352692f92589f7370b558d9896abf",
          "blockHash": "0x2e984a679b487b4452f36391bc203e00c953ca051361a95bb7ef4a8e5db75fdc",
          "blockNumber": "0x1b",
          "blockTimestamp": "0x69665360",
          "transactionHash": "0x27599f162bb8b14fad8b0f9ac38214c1ab979c22769bbeeb328528526a2604df",
          "transactionIndex": "0x0",
          "logIndex": "0x0",
          "removed": false
        },
        {
          "address": "0x8828fd7431d5bb1962d7e067c103b2324fa6bbec",
          "topics": [
            "0x78160f0b1b2b32b52a0076d8f0f70888687ba702a4d993d55ac8d9327d57a127",
            "0x000000000000000000000000000000000000000000000000000000000000000c",
            "0x17118ab570729d9074d0a37d224e097fb0039276ce4abb6366d2f080777fc6e4",
            "0x77bef70539d4b678704708158a898028289ae2516ada39041328d2192a40805b"
          ],
          "data": "0x7391f14355eff1e559e381f5bf49886a77da7c4fdd33c6fc2e0142269c561c590000000000000000000000000000000000000000000000000000000000000040000000000000000000000000000000000000000000000000000000000000018084769369b2ccc797d45e690e43c16706681366804ad95c0c83787b6c1cdf0bc48856e936a3cdfae958688c88129a96d47c3c0d2ae8313ffbaab6d66489e0017400000000000000000000000000000000000000000000000000000000000000020000000000000000000000000000000000000000000000000000000000000000000000000000000000000000000000000000000000000000000000000000014d000000000000000000000000d59d27b9172ad056cb5c008dc2bbefe702123a55000000000000000000000000000000000000000000000000000000000000000000000000000000000000000000000000000000000000000000000000000000000000000000000000000000004d4adec97e3e11693f65dedc2d1e6bec784eb2f1000000000000000000000000f86c23c1e883ee3b820fb9be75ff91c9a49eae75000000000000000000000000ed87227a182e5a8fc74b1d40d80db6208741c4350000000000000000000000008cfa8767685352692f92589f7370b558d9896abf",
          "blockHash": "0x2e984a679b487b4452f36391bc203e00c953ca051361a95bb7ef4a8e5db75fdc",
          "blockNumber": "0x1b",
          "blockTimestamp": "0x69665360",
          "transactionHash": "0x27599f162bb8b14fad8b0f9ac38214c1ab979c22769bbeeb328528526a2604df",
          "transactionIndex": "0x0",
          "logIndex": "0x1",
          "removed": false
        },
        {
          "address": "0x8828fd7431d5bb1962d7e067c103b2324fa6bbec",
          "topics": [
            "0x488f06a9ca9e19e1dd90c764cc79b765e8a3a089ef27d9a0e39dee21c7643188",
            "0x3e1c428ad1108116564831377d59e16f10ba20cd640960f08674c072311f8b0d",
            "0x0000000000000000000000008cfa8767685352692f92589f7370b558d9896abf"
          ],
          "data": "0x000000000000000000000000e007a594267d5b9a4f5bf6fd054579eb82f5a057",
          "blockHash": "0x2e984a679b487b4452f36391bc203e00c953ca051361a95bb7ef4a8e5db75fdc",
          "blockNumber": "0x1b",
          "blockTimestamp": "0x69665360",
          "transactionHash": "0x27599f162bb8b14fad8b0f9ac38214c1ab979c22769bbeeb328528526a2604df",
          "transactionIndex": "0x0",
          "logIndex": "0x2",
          "removed": false
        },
        {
          "address": "0x8828fd7431d5bb1962d7e067c103b2324fa6bbec",
          "topics": [
            "0x78160f0b1b2b32b52a0076d8f0f70888687ba702a4d993d55ac8d9327d57a127",
            "0x000000000000000000000000000000000000000000000000000000000000000d",
            "0x77bef70539d4b678704708158a898028289ae2516ada39041328d2192a40805b",
            "0xc8cb38d869f5f8967796f058ff5e700f5572d0ee4faf188f721bea16427fb177"
          ],
          "data": "0x488f06a9ca9e19e1dd90c764cc79b765e8a3a089ef27d9a0e39dee21c7643188000000000000000000000000000000000000000000000000000000000000004000000000000000000000000000000000000000000000000000000000000000603e1c428ad1108116564831377d59e16f10ba20cd640960f08674c072311f8b0d0000000000000000000000008cfa8767685352692f92589f7370b558d9896abf000000000000000000000000e007a594267d5b9a4f5bf6fd054579eb82f5a057",
          "blockHash": "0x2e984a679b487b4452f36391bc203e00c953ca051361a95bb7ef4a8e5db75fdc",
          "blockNumber": "0x1b",
          "blockTimestamp": "0x69665360",
          "transactionHash": "0x27599f162bb8b14fad8b0f9ac38214c1ab979c22769bbeeb328528526a2604df",
          "transactionIndex": "0x0",
          "logIndex": "0x3",
          "removed": false
        },
        {
          "address": "0x8828fd7431d5bb1962d7e067c103b2324fa6bbec",
          "topics": [
            "0x2f4c76c8d18f45069b0941499205a7fceaaa3caf9e2e6328f6a544cd339120f3",
            "0x84769369b2ccc797d45e690e43c16706681366804ad95c0c83787b6c1cdf0bc4",
            "0x0000000000000000000000004d4adec97e3e11693f65dedc2d1e6bec784eb2f1",
            "0x000000000000000000000000f86c23c1e883ee3b820fb9be75ff91c9a49eae75"
          ],
          "data": "0x00000000000000000000000000000000000000000000000000000000055d4a800000000000000000000000000000000000000000000000000000000005f5e100",
          "blockHash": "0x2e984a679b487b4452f36391bc203e00c953ca051361a95bb7ef4a8e5db75fdc",
          "blockNumber": "0x1b",
          "blockTimestamp": "0x69665360",
          "transactionHash": "0x27599f162bb8b14fad8b0f9ac38214c1ab979c22769bbeeb328528526a2604df",
          "transactionIndex": "0x0",
          "logIndex": "0x4",
          "removed": false
        },
        {
          "address": "0x8828fd7431d5bb1962d7e067c103b2324fa6bbec",
          "topics": [
            "0x78160f0b1b2b32b52a0076d8f0f70888687ba702a4d993d55ac8d9327d57a127",
            "0x000000000000000000000000000000000000000000000000000000000000000e",
            "0xc8cb38d869f5f8967796f058ff5e700f5572d0ee4faf188f721bea16427fb177",
            "0x432e2e4e8973d96928abba91f154ac2eccb9468f464d36cde8422860bc703f6c"
          ],
          "data": "0x2f4c76c8d18f45069b0941499205a7fceaaa3caf9e2e6328f6a544cd339120f3000000000000000000000000000000000000000000000000000000000000004000000000000000000000000000000000000000000000000000000000000000a084769369b2ccc797d45e690e43c16706681366804ad95c0c83787b6c1cdf0bc40000000000000000000000004d4adec97e3e11693f65dedc2d1e6bec784eb2f1000000000000000000000000f86c23c1e883ee3b820fb9be75ff91c9a49eae7500000000000000000000000000000000000000000000000000000000055d4a800000000000000000000000000000000000000000000000000000000005f5e100",
          "blockHash": "0x2e984a679b487b4452f36391bc203e00c953ca051361a95bb7ef4a8e5db75fdc",
          "blockNumber": "0x1b",
          "blockTimestamp": "0x69665360",
          "transactionHash": "0x27599f162bb8b14fad8b0f9ac38214c1ab979c22769bbeeb328528526a2604df",
          "transactionIndex": "0x0",
          "logIndex": "0x5",
          "removed": false
        },
        {
          "address": "0x8828fd7431d5bb1962d7e067c103b2324fa6bbec",
          "topics": [
            "0x2e659081f44c4f56a18b00f3f9d136d7ee8396bc79163c4d61363ddcf4a4cb27",
            "0x84769369b2ccc797d45e690e43c16706681366804ad95c0c83787b6c1cdf0bc4"
          ],
          "data": "0x00000000000000000000000000000000000000000000000000000000000000000000000000000000000000000000000000000000000000000000000005f5e10000000000000000000000000000000000000000000000000000000000055d4a8000000000000000000000000000000000000000000000000000000000009896800000000000000000000000000000000000000000000000000000000000000000000000000000000000000000000000000000000000000000000000000000000100000000000000000000000000000000000000000000000000000000000000000000000000000000000000000000000000000000000000000000000000000000c5d2460186f7233c927e7db2dcc703c0e500b653ca82273b7bfad8045d85a470",
          "blockHash": "0x2e984a679b487b4452f36391bc203e00c953ca051361a95bb7ef4a8e5db75fdc",
          "blockNumber": "0x1b",
          "blockTimestamp": "0x69665360",
          "transactionHash": "0x27599f162bb8b14fad8b0f9ac38214c1ab979c22769bbeeb328528526a2604df",
          "transactionIndex": "0x0",
          "logIndex": "0x6",
          "removed": false
        },
        {
          "address": "0x8828fd7431d5bb1962d7e067c103b2324fa6bbec",
          "topics": [
            "0x78160f0b1b2b32b52a0076d8f0f70888687ba702a4d993d55ac8d9327d57a127",
            "0x000000000000000000000000000000000000000000000000000000000000000f",
            "0x432e2e4e8973d96928abba91f154ac2eccb9468f464d36cde8422860bc703f6c",
            "0x47d8f4fc06a56e0ede6c35666a48858b466436a4900905395d2251c32ba607cd"
          ],
          "data": "0x2e659081f44c4f56a18b00f3f9d136d7ee8396bc79163c4d61363ddcf4a4cb270000000000000000000000000000000000000000000000000000000000000040000000000000000000000000000000000000000000000000000000000000014084769369b2ccc797d45e690e43c16706681366804ad95c0c83787b6c1cdf0bc400000000000000000000000000000000000000000000000000000000000000000000000000000000000000000000000000000000000000000000000005f5e10000000000000000000000000000000000000000000000000000000000055d4a8000000000000000000000000000000000000000000000000000000000009896800000000000000000000000000000000000000000000000000000000000000000000000000000000000000000000000000000000000000000000000000000000100000000000000000000000000000000000000000000000000000000000000000000000000000000000000000000000000000000000000000000000000000000c5d2460186f7233c927e7db2dcc703c0e500b653ca82273b7bfad8045d85a470",
          "blockHash": "0x2e984a679b487b4452f36391bc203e00c953ca051361a95bb7ef4a8e5db75fdc",
          "blockNumber": "0x1b",
          "blockTimestamp": "0x69665360",
          "transactionHash": "0x27599f162bb8b14fad8b0f9ac38214c1ab979c22769bbeeb328528526a2604df",
          "transactionIndex": "0x0",
          "logIndex": "0x7",
          "removed": false
        }
      ],
      "logsBloom": "0x0400000100000000004000040000000010000200080000000080000000000000000000000000020000000040000000000000000001000000000000000020000000000000020003080000000000002080000201000000000008000000000210000000002000080000000000080000000a0000000000000000880000000400000000008000000008800210400000000000080000000000000000000001000000000000000000204000800001001000000800000000100000a0208100000000000000000000000008000008000000000000000000000000000400000020000000220080000200040000001000000000000100000000008000000000000000004000",
      "type": "0x0",
      "transactionHash": "0x27599f162bb8b14fad8b0f9ac38214c1ab979c22769bbeeb328528526a2604df",
      "transactionIndex": "0x0",
      "blockHash": "0x2e984a679b487b4452f36391bc203e00c953ca051361a95bb7ef4a8e5db75fdc",
      "blockNumber": "0x1b",
      "gasUsed": "0x3df0a",
      "effectiveGasPrice": "0x3b9aca00",
      "blobGasPrice": "0x1",
      "from": "0xd289d1387ae1033a703842d69501d5bec5a6f04e",
      "to": "0x8828fd7431d5bb1962d7e067c103b2324fa6bbec",
      "contractAddress": null
    },
    {
      "status": "0x1",
      "cumulativeGasUsed": "0x6994",
      "logs": [],
      "logsBloom": "0x00000000000000000000000000000000000000000000000000000000000000000000000000000000000000000000000000000000000000000000000000000000000000000000000000000000000000000000000000000000000000000000000000000000000000000000000000000000000000000000000000000000000000000000000000000000000000000000000000000000000000000000000000000000000000000000000000000000000000000000000000000000000000000000000000000000000000000000000000000000000000000000000000000000000000000000000000000000000000000000000000000000000000000000000000000000",
      "type": "0x0",
      "transactionHash": "0x9472e58502d4d723e2eeef1f18ff94885d1a210ed9e477cc91f10315440a1042",
      "transactionIndex": "0x0",
      "blockHash": "0x0e1cde3bffbe9e19b456523b8b662583c859f19ea3cb6d1c53bc517415e19646",
      "blockNumber": "0x1c",
      "gasUsed": "0x6994",
      "effectiveGasPrice": "0x3b9aca00",
      "blobGasPrice": "0x1",
      "from": "0xd289d1387ae1033a703842d69501d5bec5a6f04e",
      "to": "0xf86c23c1e883ee3b820fb9be75ff91c9a49eae75",
      "contractAddress": null
    },
    {
      "status": "0x1",
      "cumulativeGasUsed": "0xad94",
      "logs": [],
      "logsBloom": "0x00000000000000000000000000000000000000000000000000000000000000000000000000000000000000000000000000000000000000000000000000000000000000000000000000000000000000000000000000000000000000000000000000000000000000000000000000000000000000000000000000000000000000000000000000000000000000000000000000000000000000000000000000000000000000000000000000000000000000000000000000000000000000000000000000000000000000000000000000000000000000000000000000000000000000000000000000000000000000000000000000000000000000000000000000000000",
      "type": "0x0",
      "transactionHash": "0x67d41d08660a1ab45f6df271f0e5ee4c8aad68765b5a2429fdfba21ff9bb4a37",
      "transactionIndex": "0x0",
      "blockHash": "0x527f0762fdcd17597722403c6f6cf8ec57f689143e6d2157d7c1b0bd398ef1f7",
      "blockNumber": "0x1d",
      "gasUsed": "0xad94",
      "effectiveGasPrice": "0x3b9aca00",
      "blobGasPrice": "0x1",
      "from": "0xd289d1387ae1033a703842d69501d5bec5a6f04e",
      "to": "0xf86c23c1e883ee3b820fb9be75ff91c9a49eae75",
      "contractAddress": null
    },
    {
      "status": "0x1",
      "cumulativeGasUsed": "0x52d69",
      "logs": [
        {
          "address": "0x048255dfef2ebfa7307058ae475a3e2f5ee0df46",
          "topics": [
            "0x6f81b8ad0780a0febc687a3a73b181433722b4be30f7f0a024169f5161267287",
            "0x1645c0c31ed9ce6422389f747333d5266e5f592ba3772f7c651e87ac67a85a59",
            "0x000000000000000000000000d289d1387ae1033a703842d69501d5bec5a6f04e"
          ],
          "data": "0x0000000000000000000000000000000000000000000000000000000000000000000000000000000000000000f86c23c1e883ee3b820fb9be75ff91c9a49eae7500000000000000000000000000000000000000000000000000000000004c4b40000000000000000000000000d289d1387ae1033a703842d69501d5bec5a6f04e000000000000000000000000000000000000000000000000000000006966538700000000000000000000000000000000000000000000000000000000000000c000000000000000000000000000000000000000000000000000000000000000a000000000000000000000000000000000000000000000000000000000000000200000000000000000000000002db97a32d5ce8d79f7b7fdc607584a7a35da5e0d00000000000000000000000000000000000000000000000000000000000000400000000000000000000000000000000000000000000000000000000000000002abcd000000000000000000000000000000000000000000000000000000000000",
          "blockHash": "0xb0fd13f4af06426a40e6ade75af57cf35c02d04203c4d82b3e5bab1d0f7be436",
          "blockNumber": "0x1e",
          "blockTimestamp": "0x69665360",
          "transactionHash": "0x09cb83146ee194d74ea15569890d8a2b34aed736f3ae1c5e2b34c716d22f200f",
          "transactionIndex": "0x0",
          "logIndex": "0x0",
          "removed": false
        },
        {
          "address": "0x048255dfef2ebfa7307058ae475a3e2f5ee0df46",
          "topics": [
            "0x78160f0b1b2b32b52a0076d8f0f70888687ba702a4d993d55ac8d9327d57a127",
            "0x0000000000000000000000000000000000000000000000000000000000000004",
            "0x382e2bb8f3df80fe469294c69465e710c93b5bc068050045e1b2bef05711e019",
            "0xc77ace3dcd4910010568a1e20a018dbdde27eb1c5208f0299d21e57d6477c5ee"
          ],
          "data": "0x6f81b8ad0780a0febc687a3a73b181433722b4be30f7f0a024169f5161267287000000000000000000000000000000000000000000000000000000000000004000000000000000000000000000000000000000000000000000000000000001c01645c0c31ed9ce6422389f747333d5266e5f592ba3772f7c651e87ac67a85a59000000000000000000000000d289d1387ae1033a703842d69501d5bec5a6f04e0000000000000000000000000000000000000000000000000000000000000000000000000000000000000000f86c23c1e883ee3b820fb9be75ff91c9a49eae7500000000000000000000000000000000000000000000000000000000004c4b40000000000000000000000000d289d1387ae1033a703842d69501d5bec5a6f04e0000000000000000000000000000000000000000000000000000000069665387000000000000000000000000000000000000000000000000000000000000010000000000000000000000000000000000000000000000000000000000000000a000000000000000000000000000000000000000000000000000000000000000200000000000000000000000002db97a32d5ce8d79f7b7fdc607584a7a35da5e0d00000000000000000000000000000000000000000000000000000000000000400000000000000000000000000000000000000000000000000000000000000002abcd000000000000000000000000000000000000000000000000000000000000",
          "blockHash": "0xb0fd13f4af06426a40e6ade75af57cf35c02d04203c4d82b3e5bab1d0f7be436",
          "blockNumber": "0x1e",
          "blockTimestamp": "0x69665360",
          "transactionHash": "0x09cb83146ee194d74ea15569890d8a2b34aed736f3ae1c5e2b34c716d22f200f",
          "transactionIndex": "0x0",
          "logIndex": "0x1",
          "removed": false
        },
        {
          "address": "0x048255dfef2ebfa7307058ae475a3e2f5ee0df46",
          "topics": [
            "0x0544741ff6f2708047138c8f3a68abb994e628666dba785f685ff1035274f9fb",
            "0x1645c0c31ed9ce6422389f747333d5266e5f592ba3772f7c651e87ac67a85a59",
            "0x000000000000000000000000d289d1387ae1033a703842d69501d5bec5a6f04e"
          ],
          "data": "0x000000000000000000000000f86c23c1e883ee3b820fb9be75ff91c9a49eae7500000000000000000000000000000000000000000000000000000000004c4b40",
          "blockHash": "0xb0fd13f4af06426a40e6ade75af57cf35c02d04203c4d82b3e5bab1d0f7be436",
          "blockNumber": "0x1e",
          "blockTimestamp": "0x69665360",
          "transactionHash": "0x09cb83146ee194d74ea15569890d8a2b34aed736f3ae1c5e2b34c716d22f200f",
          "transactionIndex": "0x0",
          "logIndex": "0x2",
          "removed": false
        },
        {
          "address": "0x048255dfef2ebfa7307058ae475a3e2f5ee0df46",
          "topics": [
            "0x78160f0b1b2b32b52a0076d8f0f70888687ba702a4d993d55ac8d9327d57a127",
            "0x0000000000000000000000000000000000000000000000000000000000000005",
            "0xc77ace3dcd4910010568a1e20a018dbdde27eb1c5208f0299d21e57d6477c5ee",
            "0xdc3173549ed1c5f9ec663b823aeeb6d9758240efd760e98a7bd5af1a1d23819c"
          ],
          "data": "0x0544741ff6f2708047138c8f3a68abb994e628666dba785f685ff1035274f9fb000000000000000000000000000000000000000000000000000000000000004000000000000000000000000000000000000000000000000000000000000000801645c0c31ed9ce6422389f747333d5266e5f592ba3772f7c651e87ac67a85a59000000000000000000000000d289d1387ae1033a703842d69501d5bec5a6f04e000000000000000000000000f86c23c1e883ee3b820fb9be75ff91c9a49eae7500000000000000000000000000000000000000000000000000000000004c4b40",
          "blockHash": "0xb0fd13f4af06426a40e6ade75af57cf35c02d04203c4d82b3e5bab1d0f7be436",
          "blockNumber": "0x1e",
          "blockTimestamp": "0x69665360",
          "transactionHash": "0x09cb83146ee194d74ea15569890d8a2b34aed736f3ae1c5e2b34c716d22f200f",
          "transactionIndex": "0x0",
          "logIndex": "0x3",
          "removed": false
        }
      ],
      "logsBloom": "0x00000000000000000000000000000800000000000000000000000000000000000000008000000010000000000000000000000000000000000000000000200002000010000000000004000000000000004004000100000000000000000000000008000000040800004000000000000000000000000000000000000200048000000000000000000000000000000000001000000800000000000000000000000000000000000000000000000000000000000000200200000000202000000000000010000040400000000000020000000000000000008200000000000000000000000000000000000000000000000000100000000000000400000000000008004000",
      "type": "0x0",
      "transactionHash": "0x09cb83146ee194d74ea15569890d8a2b34aed736f3ae1c5e2b34c716d22f200f",
      "transactionIndex": "0x0",
      "blockHash": "0xb0fd13f4af06426a40e6ade75af57cf35c02d04203c4d82b3e5bab1d0f7be436",
      "blockNumber": "0x1e",
      "gasUsed": "0x52d69",
      "effectiveGasPrice": "0x3b9aca00",
      "blobGasPrice": "0x1",
      "from": "0xd289d1387ae1033a703842d69501d5bec5a6f04e",
      "to": "0x048255dfef2ebfa7307058ae475a3e2f5ee0df46",
      "contractAddress": null
    },
    {
      "status": "0x1",
      "cumulativeGasUsed": "0xac60",
      "logs": [],
      "logsBloom": "0x00000000000000000000000000000000000000000000000000000000000000000000000000000000000000000000000000000000000000000000000000000000000000000000000000000000000000000000000000000000000000000000000000000000000000000000000000000000000000000000000000000000000000000000000000000000000000000000000000000000000000000000000000000000000000000000000000000000000000000000000000000000000000000000000000000000000000000000000000000000000000000000000000000000000000000000000000000000000000000000000000000000000000000000000000000000",
      "type": "0x0",
      "transactionHash": "0x78466f8e95a6cec097ab890b86e387f2f2510d6b867e6361019c9da11d46732a",
      "transactionIndex": "0x0",
      "blockHash": "0xa4bfa363c1428bcea649bedaef1cde0b01aceb3caa024b07d803b2e00629b805",
      "blockNumber": "0x1f",
      "gasUsed": "0xac60",
      "effectiveGasPrice": "0x3b9aca00",
      "blobGasPrice": "0x1",
      "from": "0xd289d1387ae1033a703842d69501d5bec5a6f04e",
      "to": "0x4d4adec97e3e11693f65dedc2d1e6bec784eb2f1",
      "contractAddress": null
    },
    {
      "status": "0x1",
      "cumulativeGasUsed": "0xad94",
      "logs": [],
      "logsBloom": "0x00000000000000000000000000000000000000000000000000000000000000000000000000000000000000000000000000000000000000000000000000000000000000000000000000000000000000000000000000000000000000000000000000000000000000000000000000000000000000000000000000000000000000000000000000000000000000000000000000000000000000000000000000000000000000000000000000000000000000000000000000000000000000000000000000000000000000000000000000000000000000000000000000000000000000000000000000000000000000000000000000000000000000000000000000000000",
      "type": "0x0",
      "transactionHash": "0xfb981c298895dafec66687e6e26ca5de950cf4e8ba033cb601abdc1d6a638242",
      "transactionIndex": "0x0",
      "blockHash": "0xa89d7ffb1384f47536d4b57656a18f5a1c4c758e55e75261316ae91841ce6be4",
      "blockNumber": "0x20",
      "gasUsed": "0xad94",
      "effectiveGasPrice": "0x3b9aca00",
      "blobGasPrice": "0x1",
      "from": "0xd289d1387ae1033a703842d69501d5bec5a6f04e",
      "to": "0x4d4adec97e3e11693f65dedc2d1e6bec784eb2f1",
      "contractAddress": null
    },
    {
      "status": "0x1",
      "cumulativeGasUsed": "0x17623",
      "logs": [
        {
          "address": "0x048255dfef2ebfa7307058ae475a3e2f5ee0df46",
          "topics": [
            "0xbc3f7b7e77a395c156c24db8a8a7850209b2df71a2561292eea221e32bf5d467",
            "0x1645c0c31ed9ce6422389f747333d5266e5f592ba3772f7c651e87ac67a85a59",
            "0x000000000000000000000000d289d1387ae1033a703842d69501d5bec5a6f04e"
          ],
          "data": "0x00000000000000000000000000000000000000000000000000000000000f4240",
          "blockHash": "0x97838b00c0f76b90976806b8243adef950324f4ba03681d68eba6ee402ae38d8",
          "blockNumber": "0x21",
          "blockTimestamp": "0x69665360",
          "transactionHash": "0x86b82c432dcfafb552c5202b29c888847f8fdf64aeb0356232e95bbaee30baa1",
          "transactionIndex": "0x0",
          "logIndex": "0x0",
          "removed": false
        },
        {
          "address": "0x048255dfef2ebfa7307058ae475a3e2f5ee0df46",
          "topics": [
            "0x78160f0b1b2b32b52a0076d8f0f70888687ba702a4d993d55ac8d9327d57a127",
            "0x0000000000000000000000000000000000000000000000000000000000000006",
            "0xdc3173549ed1c5f9ec663b823aeeb6d9758240efd760e98a7bd5af1a1d23819c",
            "0xec9bdff3104ddac4459c1a57dba979de9e406fdfddd24ce44a71607acb9ed9ee"
          ],
          "data": "0xbc3f7b7e77a395c156c24db8a8a7850209b2df71a2561292eea221e32bf5d467000000000000000000000000000000000000000000000000000000000000004000000000000000000000000000000000000000000000000000000000000000601645c0c31ed9ce6422389f747333d5266e5f592ba3772f7c651e87ac67a85a59000000000000000000000000d289d1387ae1033a703842d69501d5bec5a6f04e00000000000000000000000000000000000000000000000000000000000f4240",
          "blockHash": "0x97838b00c0f76b90976806b8243adef950324f4ba03681d68eba6ee402ae38d8",
          "blockNumber": "0x21",
          "blockTimestamp": "0x69665360",
          "transactionHash": "0x86b82c432dcfafb552c5202b29c888847f8fdf64aeb0356232e95bbaee30baa1",
          "transactionIndex": "0x0",
          "logIndex": "0x1",
          "removed": false
        }
      ],
      "logsBloom": "0x000000000000000020000000000000000000000000000000000000000000000000000000000000100000000000000000000000000004000000000000002000020000000000000000040000000000000040000000000000040000000000000000000000000008000040000000000000000000000000000000000002000000000000000004000000000000000000000000000000000000000000000000000000000000000400000000000000000000000000000002000000000000000a2000000000000000400000000000000000000000000000000200000000000000000000000000000000000000000000000000100000000000000400000000000008004002",
      "type": "0x0",
      "transactionHash": "0x86b82c432dcfafb552c5202b29c888847f8fdf64aeb0356232e95bbaee30baa1",
      "transactionIndex": "0x0",
      "blockHash": "0x97838b00c0f76b90976806b8243adef950324f4ba03681d68eba6ee402ae38d8",
      "blockNumber": "0x21",
      "gasUsed": "0x17623",
      "effectiveGasPrice": "0x3b9aca00",
      "blobGasPrice": "0x1",
      "from": "0xd289d1387ae1033a703842d69501d5bec5a6f04e",
      "to": "0x048255dfef2ebfa7307058ae475a3e2f5ee0df46",
      "contractAddress": null
    },
    {
      "status": "0x1",
      "cumulativeGasUsed": "0x121f6",
      "logs": [],
      "logsBloom": "0x00000000000000000000000000000000000000000000000000000000000000000000000000000000000000000000000000000000000000000000000000000000000000000000000000000000000000000000000000000000000000000000000000000000000000000000000000000000000000000000000000000000000000000000000000000000000000000000000000000000000000000000000000000000000000000000000000000000000000000000000000000000000000000000000000000000000000000000000000000000000000000000000000000000000000000000000000000000000000000000000000000000000000000000000000000000",
      "type": "0x0",
      "transactionHash": "0xb714f5ac36b192383bedb54a0bba093c620ff93399a19848334bfc7de47d6257",
      "transactionIndex": "0x0",
      "blockHash": "0x8093c24ae433886ce68654cc2f758d7ce6c96f5f6fe9d6637b3ba4ffceff0f4c",
      "blockNumber": "0x22",
      "gasUsed": "0x121f6",
      "effectiveGasPrice": "0x3b9aca00",
      "blobGasPrice": "0x1",
      "from": "0xd289d1387ae1033a703842d69501d5bec5a6f04e",
      "to": "0x8c16d2f19a034b7281254f5656c2d1461c6ceb9a",
      "contractAddress": null
    },
    {
      "status": "0x1",
      "cumulativeGasUsed": "0x29e6a",
      "logs": [
        {
          "address": "0x048255dfef2ebfa7307058ae475a3e2f5ee0df46",
          "topics": [
            "0xfa797585c9827d59a7694ef382241f1a03ced6a1a2b4353b35939abc4d04b286",
            "0x1645c0c31ed9ce6422389f747333d5266e5f592ba3772f7c651e87ac67a85a59",
            "0x000000000000000000000000d289d1387ae1033a703842d69501d5bec5a6f04e"
          ],
          "data": "0x00000000000000000000000000000000000000000000000000000000000000000000000000000000000000000000000000000000000000000000000000000000",
          "blockHash": "0x259763a704aa7c73020364634ac4678ae2794f4772e93acbd8f4ce2bf244a083",
          "blockNumber": "0x23",
          "blockTimestamp": "0x69665360",
          "transactionHash": "0x55792bb459b073093928fcd0ba8227862fe5151da1ff0028742f6ea7ad947793",
          "transactionIndex": "0x0",
          "logIndex": "0x0",
          "removed": false
        },
        {
          "address": "0x048255dfef2ebfa7307058ae475a3e2f5ee0df46",
          "topics": [
            "0x78160f0b1b2b32b52a0076d8f0f70888687ba702a4d993d55ac8d9327d57a127",
            "0x0000000000000000000000000000000000000000000000000000000000000007",
            "0xec9bdff3104ddac4459c1a57dba979de9e406fdfddd24ce44a71607acb9ed9ee",
            "0x19f1b2273a194bc6129db1b01796fb0e357073f0382a7c7cdf0eac15e6148e88"
          ],
          "data": "0xfa797585c9827d59a7694ef382241f1a03ced6a1a2b4353b35939abc4d04b286000000000000000000000000000000000000000000000000000000000000004000000000000000000000000000000000000000000000000000000000000000801645c0c31ed9ce6422389f747333d5266e5f592ba3772f7c651e87ac67a85a59000000000000000000000000d289d1387ae1033a703842d69501d5bec5a6f04e00000000000000000000000000000000000000000000000000000000000000000000000000000000000000000000000000000000000000000000000000000000",
          "blockHash": "0x259763a704aa7c73020364634ac4678ae2794f4772e93acbd8f4ce2bf244a083",
          "blockNumber": "0x23",
          "blockTimestamp": "0x69665360",
          "transactionHash": "0x55792bb459b073093928fcd0ba8227862fe5151da1ff0028742f6ea7ad947793",
          "transactionIndex": "0x0",
          "logIndex": "0x1",
          "removed": false
        },
        {
          "address": "0x048255dfef2ebfa7307058ae475a3e2f5ee0df46",
          "topics": [
            "0x16bfb64ae70b8a9bbda28deb27a1cbc5ec3e6497481714344c221b46c0777f35",
            "0x1645c0c31ed9ce6422389f747333d5266e5f592ba3772f7c651e87ac67a85a59",
            "0x000000000000000000000000d289d1387ae1033a703842d69501d5bec5a6f04e"
          ],
          "data": "0x000000000000000000000000f86c23c1e883ee3b820fb9be75ff91c9a49eae7500000000000000000000000000000000000000000000000000000000004c4b400000000000000000000000004d4adec97e3e11693f65dedc2d1e6bec784eb2f100000000000000000000000000000000000000000000000000000000000f4240",
          "blockHash": "0x259763a704aa7c73020364634ac4678ae2794f4772e93acbd8f4ce2bf244a083",
          "blockNumber": "0x23",
          "blockTimestamp": "0x69665360",
          "transactionHash": "0x55792bb459b073093928fcd0ba8227862fe5151da1ff0028742f6ea7ad947793",
          "transactionIndex": "0x0",
          "logIndex": "0x2",
          "removed": false
        },
        {
          "address": "0x048255dfef2ebfa7307058ae475a3e2f5ee0df46",
          "topics": [
            "0x78160f0b1b2b32b52a0076d8f0f70888687ba702a4d993d55ac8d9327d57a127",
            "0x0000000000000000000000000000000000000000000000000000000000000008",
            "0x19f1b2273a194bc6129db1b01796fb0e357073f0382a7c7cdf0eac15e6148e88",
            "0x11b9a26cda5214729161e846cfff5778f92c9e1ae1e64c7de2e3f98123a2e21a"
          ],
          "data": "0x16bfb64ae70b8a9bbda28deb27a1cbc5ec3e6497481714344c221b46c0777f35000000000000000000000000000000000000000000000000000000000000004000000000000000000000000000000000000000000000000000000000000000c01645c0c31ed9ce6422389f747333d5266e5f592ba3772f7c651e87ac67a85a59000000000000000000000000d289d1387ae1033a703842d69501d5bec5a6f04e000000000000000000000000f86c23c1e883ee3b820fb9be75ff91c9a49eae7500000000000000000000000000000000000000000000000000000000004c4b400000000000000000000000004d4adec97e3e11693f65dedc2d1e6bec784eb2f100000000000000000000000000000000000000000000000000000000000f4240",
          "blockHash": "0x259763a704aa7c73020364634ac4678ae2794f4772e93acbd8f4ce2bf244a083",
          "blockNumber": "0x23",
          "blockTimestamp": "0x69665360",
          "transactionHash": "0x55792bb459b073093928fcd0ba8227862fe5151da1ff0028742f6ea7ad947793",
          "transactionIndex": "0x0",
          "logIndex": "0x3",
          "removed": false
        }
      ],
      "logsBloom": "0x0000000000000000000000000000000000000000000000000000000000008000000000000000001000000000000000020000100000008000000200000020000200002000000000000c000000000000004000000000000000000000000000000000200000010800004000000000000000000000000000000000000000000000000080000000000000000000000000000000000000000000000000000000000000000000040000000000000002000000000000000200000000000000022000000050000000400000020000000000000000000000000200000000000100000000000000000000000000000000000000100000000000000002000080000002004000",
      "type": "0x0",
      "transactionHash": "0x55792bb459b073093928fcd0ba8227862fe5151da1ff0028742f6ea7ad947793",
      "transactionIndex": "0x0",
      "blockHash": "0x259763a704aa7c73020364634ac4678ae2794f4772e93acbd8f4ce2bf244a083",
      "blockNumber": "0x23",
      "gasUsed": "0x29e6a",
      "effectiveGasPrice": "0x3b9aca00",
      "blobGasPrice": "0x1",
      "from": "0xd289d1387ae1033a703842d69501d5bec5a6f04e",
      "to": "0x048255dfef2ebfa7307058ae475a3e2f5ee0df46",
      "contractAddress": null
    },
    {
      "status": "0x1",
      "cumulativeGasUsed": "0x6994",
      "logs": [],
      "logsBloom": "0x00000000000000000000000000000000000000000000000000000000000000000000000000000000000000000000000000000000000000000000000000000000000000000000000000000000000000000000000000000000000000000000000000000000000000000000000000000000000000000000000000000000000000000000000000000000000000000000000000000000000000000000000000000000000000000000000000000000000000000000000000000000000000000000000000000000000000000000000000000000000000000000000000000000000000000000000000000000000000000000000000000000000000000000000000000000",
      "type": "0x0",
      "transactionHash": "0x0a2b025e54d798396bcc4d25e729364f018d01b9de9918368b81ec89df0f7e63",
      "transactionIndex": "0x0",
      "blockHash": "0x35cc50d286fb14308fe0fe5d5594623177517082c0dfc048069ac86f290499a9",
      "blockNumber": "0x24",
      "gasUsed": "0x6994",
      "effectiveGasPrice": "0x3b9aca00",
      "blobGasPrice": "0x1",
      "from": "0xd289d1387ae1033a703842d69501d5bec5a6f04e",
      "to": "0x4d4adec97e3e11693f65dedc2d1e6bec784eb2f1",
      "contractAddress": null
    },
    {
      "status": "0x1",
      "cumulativeGasUsed": "0x5fd8",
      "logs": [],
      "logsBloom": "0x00000000000000000000000000000000000000000000000000000000000000000000000000000000000000000000000000000000000000000000000000000000000000000000000000000000000000000000000000000000000000000000000000000000000000000000000000000000000000000000000000000000000000000000000000000000000000000000000000000000000000000000000000000000000000000000000000000000000000000000000000000000000000000000000000000000000000000000000000000000000000000000000000000000000000000000000000000000000000000000000000000000000000000000000000000000",
      "type": "0x0",
      "transactionHash": "0x7ea72e5993dc68e9aae677584dd7924b37542cf6803f9122078b9aa549581694",
      "transactionIndex": "0x0",
      "blockHash": "0xdc76763622d6175a4cdd6467839821bf60192db4319df02ed3a38793383bbea4",
      "blockNumber": "0x25",
      "gasUsed": "0x5fd8",
      "effectiveGasPrice": "0x3b9aca00",
      "blobGasPrice": "0x1",
      "from": "0xd289d1387ae1033a703842d69501d5bec5a6f04e",
      "to": "0x4d4adec97e3e11693f65dedc2d1e6bec784eb2f1",
      "contractAddress": null
    },
    {
      "status": "0x1",
      "cumulativeGasUsed": "0x46ef3",
      "logs": [
        {
          "address": "0x048255dfef2ebfa7307058ae475a3e2f5ee0df46",
          "topics": [
            "0x6f81b8ad0780a0febc687a3a73b181433722b4be30f7f0a024169f5161267287",
            "0x5d7ca6cec88ed2827284b6dd54e4006a370bfd20972d84a01cd50df1f14b9725",
            "0x000000000000000000000000d289d1387ae1033a703842d69501d5bec5a6f04e"
          ],
          "data": "0x00000000000000000000000000000000000000000000000000000000000000010000000000000000000000004d4adec97e3e11693f65dedc2d1e6bec784eb2f100000000000000000000000000000000000000000000000000000000001e8480000000000000000000000000d289d1387ae1033a703842d69501d5bec5a6f04e000000000000000000000000000000000000000000000000000000006966538700000000000000000000000000000000000000000000000000000000000000c00000000000000000000000000000000000000000000000000000000000000040000000000000000000000000558b8fe3b86724d9d9433bf8ec2b1a1b223f9d25000000000000000000000000000000000000000000000000000000000012d687",
          "blockHash": "0xd6b1448c6ad8e79f9fc81f35cd703c7a8ba01f97490a81df4d689c7c2f2b439b",
          "blockNumber": "0x26",
          "blockTimestamp": "0x69665360",
          "transactionHash": "0x0ac86cbf07c113a6b86b635f7834a178c3b39d5d16f15a3ae307d44dea6f2cf5",
          "transactionIndex": "0x0",
          "logIndex": "0x0",
          "removed": false
        },
        {
          "address": "0x048255dfef2ebfa7307058ae475a3e2f5ee0df46",
          "topics": [
            "0x78160f0b1b2b32b52a0076d8f0f70888687ba702a4d993d55ac8d9327d57a127",
            "0x0000000000000000000000000000000000000000000000000000000000000009",
            "0x11b9a26cda5214729161e846cfff5778f92c9e1ae1e64c7de2e3f98123a2e21a",
            "0xce09f77d0305cb407e38a93bb075386db6353ec87cad84a4f387d0cf734ea6ba"
          ],
          "data": "0x6f81b8ad0780a0febc687a3a73b181433722b4be30f7f0a024169f5161267287000000000000000000000000000000000000000000000000000000000000004000000000000000000000000000000000000000000000000000000000000001605d7ca6cec88ed2827284b6dd54e4006a370bfd20972d84a01cd50df1f14b9725000000000000000000000000d289d1387ae1033a703842d69501d5bec5a6f04e00000000000000000000000000000000000000000000000000000000000000010000000000000000000000004d4adec97e3e11693f65dedc2d1e6bec784eb2f100000000000000000000000000000000000000000000000000000000001e8480000000000000000000000000d289d1387ae1033a703842d69501d5bec5a6f04e000000000000000000000000000000000000000000000000000000006966538700000000000000000000000000000000000000000000000000000000000001000000000000000000000000000000000000000000000000000000000000000040000000000000000000000000558b8fe3b86724d9d9433bf8ec2b1a1b223f9d25000000000000000000000000000000000000000000000000000000000012d687",
          "blockHash": "0xd6b1448c6ad8e79f9fc81f35cd703c7a8ba01f97490a81df4d689c7c2f2b439b",
          "blockNumber": "0x26",
          "blockTimestamp": "0x69665360",
          "transactionHash": "0x0ac86cbf07c113a6b86b635f7834a178c3b39d5d16f15a3ae307d44dea6f2cf5",
          "transactionIndex": "0x0",
          "logIndex": "0x1",
          "removed": false
        },
        {
          "address": "0x048255dfef2ebfa7307058ae475a3e2f5ee0df46",
          "topics": [
            "0x0544741ff6f2708047138c8f3a68abb994e628666dba785f685ff1035274f9fb",
            "0x5d7ca6cec88ed2827284b6dd54e4006a370bfd20972d84a01cd50df1f14b9725",
            "0x000000000000000000000000d289d1387ae1033a703842d69501d5bec5a6f04e"
          ],
          "data": "0x0000000000000000000000004d4adec97e3e11693f65dedc2d1e6bec784eb2f100000000000000000000000000000000000000000000000000000000001e8480",
          "blockHash": "0xd6b1448c6ad8e79f9fc81f35cd703c7a8ba01f97490a81df4d689c7c2f2b439b",
          "blockNumber": "0x26",
          "blockTimestamp": "0x69665360",
          "transactionHash": "0x0ac86cbf07c113a6b86b635f7834a178c3b39d5d16f15a3ae307d44dea6f2cf5",
          "transactionIndex": "0x0",
          "logIndex": "0x2",
          "removed": false
        },
        {
          "address": "0x048255dfef2ebfa7307058ae475a3e2f5ee0df46",
          "topics": [
            "0x78160f0b1b2b32b52a0076d8f0f70888687ba702a4d993d55ac8d9327d57a127",
            "0x000000000000000000000000000000000000000000000000000000000000000a",
            "0xce09f77d0305cb407e38a93bb075386db6353ec87cad84a4f387d0cf734ea6ba",
            "0x5b83850264c96525c9f0315fd09c586f09089602e6207c9444c0797b21d11246"
          ],
          "data": "0x0544741ff6f2708047138c8f3a68abb994e628666dba785f685ff1035274f9fb000000000000000000000000000000000000000000000000000000000000004000000000000000000000000000000000000000000000000000000000000000805d7ca6cec88ed2827284b6dd54e4006a370bfd20972d84a01cd50df1f14b9725000000000000000000000000d289d1387ae1033a703842d69501d5bec5a6f04e0000000000000000000000004d4adec97e3e11693f65dedc2d1e6bec784eb2f100000000000000000000000000000000000000000000000000000000001e8480",
          "blockHash": "0xd6b1448c6ad8e79f9fc81f35cd703c7a8ba01f97490a81df4d689c7c2f2b439b",
          "blockNumber": "0x26",
          "blockTimestamp": "0x69665360",
          "transactionHash": "0x0ac86cbf07c113a6b86b635f7834a178c3b39d5d16f15a3ae307d44dea6f2cf5",
          "transactionIndex": "0x0",
          "logIndex": "0x3",
          "removed": false
        }
      ],
      "logsBloom": "0x0000000000000000000000000000000000000000000000000008000000000000000001000000000000000000008000000000000004000000002000000020000000000000000000000c000000000000000004000100000000008000000000000000200000000800004000000000000000000000000000000000000000008000000020000000000000010000000000000000001000000000000000000000000200000080000000000000200000000000000000200200000000200000020000000000000000400000000000020000000000000000000200000000000000000000000000000000000000000000000000100000000000000002000000000000804000",
      "type": "0x0",
      "transactionHash": "0x0ac86cbf07c113a6b86b635f7834a178c3b39d5d16f15a3ae307d44dea6f2cf5",
      "transactionIndex": "0x0",
      "blockHash": "0xd6b1448c6ad8e79f9fc81f35cd703c7a8ba01f97490a81df4d689c7c2f2b439b",
      "blockNumber": "0x26",
      "gasUsed": "0x46ef3",
      "effectiveGasPrice": "0x3b9aca00",
      "blobGasPrice": "0x1",
      "from": "0xd289d1387ae1033a703842d69501d5bec5a6f04e",
      "to": "0x048255dfef2ebfa7307058ae475a3e2f5ee0df46",
      "contractAddress": null
    },
    {
      "status": "0x1",
      "cumulativeGasUsed": "0x6994",
      "logs": [],
      "logsBloom": "0x00000000000000000000000000000000000000000000000000000000000000000000000000000000000000000000000000000000000000000000000000000000000000000000000000000000000000000000000000000000000000000000000000000000000000000000000000000000000000000000000000000000000000000000000000000000000000000000000000000000000000000000000000000000000000000000000000000000000000000000000000000000000000000000000000000000000000000000000000000000000000000000000000000000000000000000000000000000000000000000000000000000000000000000000000000000",
      "type": "0x0",
      "transactionHash": "0x1c5a6f087ddd01a80266dcc4087775bee248903bc54c495275af6efc654a725e",
      "transactionIndex": "0x0",
      "blockHash": "0x93d496505ab0b872f61ab31d65be1a6cb79dd99031c1369d4be837b86fb66c72",
      "blockNumber": "0x27",
      "gasUsed": "0x6994",
      "effectiveGasPrice": "0x3b9aca00",
      "blobGasPrice": "0x1",
      "from": "0xd289d1387ae1033a703842d69501d5bec5a6f04e",
      "to": "0x4d4adec97e3e11693f65dedc2d1e6bec784eb2f1",
      "contractAddress": null
    },
    {
      "status": "0x1",
      "cumulativeGasUsed": "0x5fd8",
      "logs": [],
      "logsBloom": "0x00000000000000000000000000000000000000000000000000000000000000000000000000000000000000000000000000000000000000000000000000000000000000000000000000000000000000000000000000000000000000000000000000000000000000000000000000000000000000000000000000000000000000000000000000000000000000000000000000000000000000000000000000000000000000000000000000000000000000000000000000000000000000000000000000000000000000000000000000000000000000000000000000000000000000000000000000000000000000000000000000000000000000000000000000000000",
      "type": "0x0",
      "transactionHash": "0x14ad21e0465b8f1bf65dbb49dc6d80fe8c9db2523dc493fcadf887416d373978",
      "transactionIndex": "0x0",
      "blockHash": "0x3d5f0fa5d30a5fe1879b7ee7ecd0b88aca777cbf855de72085ccca8ad52ce213",
      "blockNumber": "0x28",
      "gasUsed": "0x5fd8",
      "effectiveGasPrice": "0x3b9aca00",
      "blobGasPrice": "0x1",
      "from": "0xd289d1387ae1033a703842d69501d5bec5a6f04e",
      "to": "0x4d4adec97e3e11693f65dedc2d1e6bec784eb2f1",
      "contractAddress": null
    },
    {
      "status": "0x1",
      "cumulativeGasUsed": "0x1460b",
      "logs": [
        {
          "address": "0x048255dfef2ebfa7307058ae475a3e2f5ee0df46",
          "topics": [
            "0xbc3f7b7e77a395c156c24db8a8a7850209b2df71a2561292eea221e32bf5d467",
            "0x5d7ca6cec88ed2827284b6dd54e4006a370bfd20972d84a01cd50df1f14b9725",
            "0x000000000000000000000000d289d1387ae1033a703842d69501d5bec5a6f04e"
          ],
          "data": "0x00000000000000000000000000000000000000000000000000000000000f4240",
          "blockHash": "0xb197ab08c5ea2603a0bc519ee037b3b0d14e445a0aacc676dbd6b93dd70f5c2c",
          "blockNumber": "0x29",
          "blockTimestamp": "0x69665360",
          "transactionHash": "0xd8928c1f3b6205408c5e7c2fe31c3ab98fd64dac7c46fd8585f53999a0172f4e",
          "transactionIndex": "0x0",
          "logIndex": "0x0",
          "removed": false
        },
        {
          "address": "0x048255dfef2ebfa7307058ae475a3e2f5ee0df46",
          "topics": [
            "0x78160f0b1b2b32b52a0076d8f0f70888687ba702a4d993d55ac8d9327d57a127",
            "0x000000000000000000000000000000000000000000000000000000000000000b",
            "0x5b83850264c96525c9f0315fd09c586f09089602e6207c9444c0797b21d11246",
            "0x1a45006c6a27b5566d72c9bfeecf2b3ee23c77f300c2a4f214170ff14b7693d7"
          ],
          "data": "0xbc3f7b7e77a395c156c24db8a8a7850209b2df71a2561292eea221e32bf5d467000000000000000000000000000000000000000000000000000000000000004000000000000000000000000000000000000000000000000000000000000000605d7ca6cec88ed2827284b6dd54e4006a370bfd20972d84a01cd50df1f14b9725000000000000000000000000d289d1387ae1033a703842d69501d5bec5a6f04e00000000000000000000000000000000000000000000000000000000000f4240",
          "blockHash": "0xb197ab08c5ea2603a0bc519ee037b3b0d14e445a0aacc676dbd6b93dd70f5c2c",
          "blockNumber": "0x29",
          "blockTimestamp": "0x69665360",
          "transactionHash": "0xd8928c1f3b6205408c5e7c2fe31c3ab98fd64dac7c46fd8585f53999a0172f4e",
          "transactionIndex": "0x0",
          "logIndex": "0x1",
          "removed": false
        }
      ],
      "logsBloom": "0x00000000000000002000004000000000000000000000000000080000000000000000010000000100000000000080000000000000000000000000000000200000000040000000000004000000000000000000000002000004008000000000000000000000000800004000000000000000000000000000000000000000000000000020000000000000000000000000000000000000000000000000000000000000000000000000000000200000000000000000000200000000000000000000000000000000400000000000000000000000002000000200000000000000000000000000000000000000000000000000100000000000000000040000000000004002",
      "type": "0x0",
      "transactionHash": "0xd8928c1f3b6205408c5e7c2fe31c3ab98fd64dac7c46fd8585f53999a0172f4e",
      "transactionIndex": "0x0",
      "blockHash": "0xb197ab08c5ea2603a0bc519ee037b3b0d14e445a0aacc676dbd6b93dd70f5c2c",
      "blockNumber": "0x29",
      "gasUsed": "0x1460b",
      "effectiveGasPrice": "0x3b9aca00",
      "blobGasPrice": "0x1",
      "from": "0xd289d1387ae1033a703842d69501d5bec5a6f04e",
      "to": "0x048255dfef2ebfa7307058ae475a3e2f5ee0df46",
      "contractAddress": null
    },
    {
      "status": "0x1",
      "cumulativeGasUsed": "0x1a29b",
      "logs": [],
      "logsBloom": "0x00000000000000000000000000000000000000000000000000000000000000000000000000000000000000000000000000000000000000000000000000000000000000000000000000000000000000000000000000000000000000000000000000000000000000000000000000000000000000000000000000000000000000000000000000000000000000000000000000000000000000000000000000000000000000000000000000000000000000000000000000000000000000000000000000000000000000000000000000000000000000000000000000000000000000000000000000000000000000000000000000000000000000000000000000000000",
      "type": "0x0",
      "transactionHash": "0x00b79c3452bdb35d9094c2a84d9713d43984b55d56f94d3c5e00452ed02ce923",
      "transactionIndex": "0x0",
      "blockHash": "0x21b1a413337e8ce474c5ab53f643cac0ff7052ba82da10c9ef1789a6f257d1d8",
      "blockNumber": "0x2a",
      "gasUsed": "0x1a29b",
      "effectiveGasPrice": "0x3b9aca00",
      "blobGasPrice": "0x1",
      "from": "0xd289d1387ae1033a703842d69501d5bec5a6f04e",
      "to": "0x8c16d2f19a034b7281254f5656c2d1461c6ceb9a",
      "contractAddress": null
    },
    {
      "status": "0x1",
      "cumulativeGasUsed": "0x207ae",
      "logs": [
        {
          "address": "0x048255dfef2ebfa7307058ae475a3e2f5ee0df46",
          "topics": [
            "0xfa797585c9827d59a7694ef382241f1a03ced6a1a2b4353b35939abc4d04b286",
            "0x5d7ca6cec88ed2827284b6dd54e4006a370bfd20972d84a01cd50df1f14b9725",
            "0x000000000000000000000000d289d1387ae1033a703842d69501d5bec5a6f04e"
          ],
          "data": "0x00000000000000000000000000000000000000000000000000000000000000000000000000000000000000000000000000000000000000000000000000000000",
          "blockHash": "0xaad7df283f14ec9c166e6d2f75f4704d48583915da5df3c07c213b68aacb0068",
          "blockNumber": "0x2b",
          "blockTimestamp": "0x69665360",
          "transactionHash": "0x0a979e3f0beecd3c55565d9ccfe984d779cd46b702c6d6832c4612d9bb21e241",
          "transactionIndex": "0x0",
          "logIndex": "0x0",
          "removed": false
        },
        {
          "address": "0x048255dfef2ebfa7307058ae475a3e2f5ee0df46",
          "topics": [
            "0x78160f0b1b2b32b52a0076d8f0f70888687ba702a4d993d55ac8d9327d57a127",
            "0x000000000000000000000000000000000000000000000000000000000000000c",
            "0x1a45006c6a27b5566d72c9bfeecf2b3ee23c77f300c2a4f214170ff14b7693d7",
            "0x09654a898fb278df84782164e5a534e001b036fe0c402400093ffa7da6b5630e"
          ],
          "data": "0xfa797585c9827d59a7694ef382241f1a03ced6a1a2b4353b35939abc4d04b286000000000000000000000000000000000000000000000000000000000000004000000000000000000000000000000000000000000000000000000000000000805d7ca6cec88ed2827284b6dd54e4006a370bfd20972d84a01cd50df1f14b9725000000000000000000000000d289d1387ae1033a703842d69501d5bec5a6f04e00000000000000000000000000000000000000000000000000000000000000000000000000000000000000000000000000000000000000000000000000000000",
          "blockHash": "0xaad7df283f14ec9c166e6d2f75f4704d48583915da5df3c07c213b68aacb0068",
          "blockNumber": "0x2b",
          "blockTimestamp": "0x69665360",
          "transactionHash": "0x0a979e3f0beecd3c55565d9ccfe984d779cd46b702c6d6832c4612d9bb21e241",
          "transactionIndex": "0x0",
          "logIndex": "0x1",
          "removed": false
        },
        {
          "address": "0x048255dfef2ebfa7307058ae475a3e2f5ee0df46",
          "topics": [
            "0x16bfb64ae70b8a9bbda28deb27a1cbc5ec3e6497481714344c221b46c0777f35",
            "0x5d7ca6cec88ed2827284b6dd54e4006a370bfd20972d84a01cd50df1f14b9725",
            "0x000000000000000000000000d289d1387ae1033a703842d69501d5bec5a6f04e"
          ],
          "data": "0x0000000000000000000000004d4adec97e3e11693f65dedc2d1e6bec784eb2f100000000000000000000000000000000000000000000000000000000001e84800000000000000000000000004d4adec97e3e11693f65dedc2d1e6bec784eb2f100000000000000000000000000000000000000000000000000000000000f4240",
          "blockHash": "0xaad7df283f14ec9c166e6d2f75f4704d48583915da5df3c07c213b68aacb0068",
          "blockNumber": "0x2b",
          "blockTimestamp": "0x69665360",
          "transactionHash": "0x0a979e3f0beecd3c55565d9ccfe984d779cd46b702c6d6832c4612d9bb21e241",
          "transactionIndex": "0x0",
          "logIndex": "0x2",
          "removed": false
        },
        {
          "address": "0x048255dfef2ebfa7307058ae475a3e2f5ee0df46",
          "topics": [
            "0x78160f0b1b2b32b52a0076d8f0f70888687ba702a4d993d55ac8d9327d57a127",
            "0x000000000000000000000000000000000000000000000000000000000000000d",
            "0x09654a898fb278df84782164e5a534e001b036fe0c402400093ffa7da6b5630e",
            "0xb548a007bbd89cf8eba941f91ea5738c06c1095fff47c18bbaa5b469613f6fe8"
          ],
          "data": "0x16bfb64ae70b8a9bbda28deb27a1cbc5ec3e6497481714344c221b46c0777f35000000000000000000000000000000000000000000000000000000000000004000000000000000000000000000000000000000000000000000000000000000c05d7ca6cec88ed2827284b6dd54e4006a370bfd20972d84a01cd50df1f14b9725000000000000000000000000d289d1387ae1033a703842d69501d5bec5a6f04e0000000000000000000000004d4adec97e3e11693f65dedc2d1e6bec784eb2f100000000000000000000000000000000000000000000000000000000001e84800000000000000000000000004d4adec97e3e11693f65dedc2d1e6bec784eb2f100000000000000000000000000000000000000000000000000000000000f4240",
          "blockHash": "0xaad7df283f14ec9c166e6d2f75f4704d48583915da5df3c07c213b68aacb0068",
          "blockNumber": "0x2b",
          "blockTimestamp": "0x69665360",
          "transactionHash": "0x0a979e3f0beecd3c55565d9ccfe984d779cd46b702c6d6832c4612d9bb21e241",
          "transactionIndex": "0x0",
          "logIndex": "0x3",
          "removed": false
        }
      ],
      "logsBloom": "0x00000000000000000040000000000000000006000000000000000000000080000000010000000300000000001080000200000000000002000002000000200008000040000000000004000000000000000002000002000000008000000000000000000000000800004000000000000004000000000000000000000000000000000000000000000000000000000000000000000000000000000000000000000000000000000000000000000002000000000000000200000000000000000000000010000000400000000000000000000000000000000200000000000000000000220000000000000000000000000000100000000000000000000000000002004000",
      "type": "0x0",
      "transactionHash": "0x0a979e3f0beecd3c55565d9ccfe984d779cd46b702c6d6832c4612d9bb21e241",
      "transactionIndex": "0x0",
      "blockHash": "0xaad7df283f14ec9c166e6d2f75f4704d48583915da5df3c07c213b68aacb0068",
      "blockNumber": "0x2b",
      "gasUsed": "0x207ae",
      "effectiveGasPrice": "0x3b9aca00",
      "blobGasPrice": "0x1",
      "from": "0xd289d1387ae1033a703842d69501d5bec5a6f04e",
      "to": "0x048255dfef2ebfa7307058ae475a3e2f5ee0df46",
      "contractAddress": null
    },
    {
      "status": "0x1",
      "cumulativeGasUsed": "0x6994",
      "logs": [],
      "logsBloom": "0x00000000000000000000000000000000000000000000000000000000000000000000000000000000000000000000000000000000000000000000000000000000000000000000000000000000000000000000000000000000000000000000000000000000000000000000000000000000000000000000000000000000000000000000000000000000000000000000000000000000000000000000000000000000000000000000000000000000000000000000000000000000000000000000000000000000000000000000000000000000000000000000000000000000000000000000000000000000000000000000000000000000000000000000000000000000",
      "type": "0x0",
      "transactionHash": "0xd0320ea4101225e3cdf0058c477936642fac4dcaca976e91576a4ef8209222a1",
      "transactionIndex": "0x0",
      "blockHash": "0x337bf4f1e166c2b28454e71174dcceaa158ae960699fcf5bbd09d283483d4d68",
      "blockNumber": "0x2c",
      "gasUsed": "0x6994",
      "effectiveGasPrice": "0x3b9aca00",
      "blobGasPrice": "0x1",
      "from": "0xd289d1387ae1033a703842d69501d5bec5a6f04e",
      "to": "0xf86c23c1e883ee3b820fb9be75ff91c9a49eae75",
      "contractAddress": null
    },
    {
      "status": "0x1",
      "cumulativeGasUsed": "0x5fd8",
      "logs": [],
      "logsBloom": "0x00000000000000000000000000000000000000000000000000000000000000000000000000000000000000000000000000000000000000000000000000000000000000000000000000000000000000000000000000000000000000000000000000000000000000000000000000000000000000000000000000000000000000000000000000000000000000000000000000000000000000000000000000000000000000000000000000000000000000000000000000000000000000000000000000000000000000000000000000000000000000000000000000000000000000000000000000000000000000000000000000000000000000000000000000000000",
      "type": "0x0",
      "transactionHash": "0x9ba2356eba8d92e29a09975d422f7a521e444f1e961e2ba70fe2dbc28213ae9b",
      "transactionIndex": "0x0",
      "blockHash": "0x446e29f02219ad319c2051228721f4eb5790bc905f7313dea13285a64c428648",
      "blockNumber": "0x2d",
      "gasUsed": "0x5fd8",
      "effectiveGasPrice": "0x3b9aca00",
      "blobGasPrice": "0x1",
      "from": "0xd289d1387ae1033a703842d69501d5bec5a6f04e",
      "to": "0xf86c23c1e883ee3b820fb9be75ff91c9a49eae75",
      "contractAddress": null
    },
    {
      "status": "0x1",
      "cumulativeGasUsed": "0x52d45",
      "logs": [
        {
          "address": "0x048255dfef2ebfa7307058ae475a3e2f5ee0df46",
          "topics": [
            "0x6f81b8ad0780a0febc687a3a73b181433722b4be30f7f0a024169f5161267287",
            "0x15b9517f84e81219f907e347d0894b01e0d21e5729f301eef26bc1aa086b15e8",
            "0x000000000000000000000000d289d1387ae1033a703842d69501d5bec5a6f04e"
          ],
          "data": "0x0000000000000000000000000000000000000000000000000000000000000000000000000000000000000000f86c23c1e883ee3b820fb9be75ff91c9a49eae7500000000000000000000000000000000000000000000000000000000000f4240000000000000000000000000d289d1387ae1033a703842d69501d5bec5a6f04e000000000000000000000000000000000000000000000000000000000000000100000000000000000000000000000000000000000000000000000000000000c000000000000000000000000000000000000000000000000000000000000000a000000000000000000000000000000000000000000000000000000000000000200000000000000000000000005457e258a09ebfb4a2501a9e3d70d37f54f923f300000000000000000000000000000000000000000000000000000000000000400000000000000000000000000000000000000000000000000000000000000002beef000000000000000000000000000000000000000000000000000000000000",
          "blockHash": "0x478348f74c17676090641ee5ac6e5f9401eb25e89cce1ca9fb2cf64172ae97d3",
          "blockNumber": "0x2e",
          "blockTimestamp": "0x69665360",
          "transactionHash": "0xdf9febf9be0dae05381e4625c6ea28a6c906924069f532bcefc5c62879f43b6e",
          "transactionIndex": "0x0",
          "logIndex": "0x0",
          "removed": false
        },
        {
          "address": "0x048255dfef2ebfa7307058ae475a3e2f5ee0df46",
          "topics": [
            "0x78160f0b1b2b32b52a0076d8f0f70888687ba702a4d993d55ac8d9327d57a127",
            "0x000000000000000000000000000000000000000000000000000000000000000e",
            "0xb548a007bbd89cf8eba941f91ea5738c06c1095fff47c18bbaa5b469613f6fe8",
            "0x9c563dfe87d6b4ddc811d926f60f12644f62a1e74729736e3b2f5df183fb8795"
          ],
          "data": "0x6f81b8ad0780a0febc687a3a73b181433722b4be30f7f0a024169f5161267287000000000000000000000000000000000000000000000000000000000000004000000000000000000000000000000000000000000000000000000000000001c015b9517f84e81219f907e347d0894b01e0d21e5729f301eef26bc1aa086b15e8000000000000000000000000d289d1387ae1033a703842d69501d5bec5a6f04e0000000000000000000000000000000000000000000000000000000000000000000000000000000000000000f86c23c1e883ee3b820fb9be75ff91c9a49eae7500000000000000000000000000000000000000000000000000000000000f4240000000000000000000000000d289d1387ae1033a703842d69501d5bec5a6f04e0000000000000000000000000000000000000000000000000000000000000001000000000000000000000000000000000000000000000000000000000000010000000000000000000000000000000000000000000000000000000000000000a000000000000000000000000000000000000000000000000000000000000000200000000000000000000000005457e258a09ebfb4a2501a9e3d70d37f54f923f300000000000000000000000000000000000000000000000000000000000000400000000000000000000000000000000000000000000000000000000000000002beef000000000000000000000000000000000000000000000000000000000000",
          "blockHash": "0x478348f74c17676090641ee5ac6e5f9401eb25e89cce1ca9fb2cf64172ae97d3",
          "blockNumber": "0x2e",
          "blockTimestamp": "0x69665360",
          "transactionHash": "0xdf9febf9be0dae05381e4625c6ea28a6c906924069f532bcefc5c62879f43b6e",
          "transactionIndex": "0x0",
          "logIndex": "0x1",
          "removed": false
        },
        {
          "address": "0x048255dfef2ebfa7307058ae475a3e2f5ee0df46",
          "topics": [
            "0x0544741ff6f2708047138c8f3a68abb994e628666dba785f685ff1035274f9fb",
            "0x15b9517f84e81219f907e347d0894b01e0d21e5729f301eef26bc1aa086b15e8",
            "0x000000000000000000000000d289d1387ae1033a703842d69501d5bec5a6f04e"
          ],
          "data": "0x000000000000000000000000f86c23c1e883ee3b820fb9be75ff91c9a49eae7500000000000000000000000000000000000000000000000000000000000f4240",
          "blockHash": "0x478348f74c17676090641ee5ac6e5f9401eb25e89cce1ca9fb2cf64172ae97d3",
          "blockNumber": "0x2e",
          "blockTimestamp": "0x69665360",
          "transactionHash": "0xdf9febf9be0dae05381e4625c6ea28a6c906924069f532bcefc5c62879f43b6e",
          "transactionIndex": "0x0",
          "logIndex": "0x2",
          "removed": false
        },
        {
          "address": "0x048255dfef2ebfa7307058ae475a3e2f5ee0df46",
          "topics": [
            "0x78160f0b1b2b32b52a0076d8f0f70888687ba702a4d993d55ac8d9327d57a127",
            "0x000000000000000000000000000000000000000000000000000000000000000f",
            "0x9c563dfe87d6b4ddc811d926f60f12644f62a1e74729736e3b2f5df183fb8795",
            "0x74240482d66c716a2a5b1e187c420d47fa77215b9acb73b588ca278e16227ec7"
          ],
          "data": "0x0544741ff6f2708047138c8f3a68abb994e628666dba785f685ff1035274f9fb0000000000000000000000000000000000000000000000000000000000000040000000000000000000000000000000000000000000000000000000000000008015b9517f84e81219f907e347d0894b01e0d21e5729f301eef26bc1aa086b15e8000000000000000000000000d289d1387ae1033a703842d69501d5bec5a6f04e000000000000000000000000f86c23c1e883ee3b820fb9be75ff91c9a49eae7500000000000000000000000000000000000000000000000000000000000f4240",
          "blockHash": "0x478348f74c17676090641ee5ac6e5f9401eb25e89cce1ca9fb2cf64172ae97d3",
          "blockNumber": "0x2e",
          "blockTimestamp": "0x69665360",
          "transactionHash": "0xdf9febf9be0dae05381e4625c6ea28a6c906924069f532bcefc5c62879f43b6e",
          "transactionIndex": "0x0",
          "logIndex": "0x3",
          "removed": false
        }
      ],
      "logsBloom": "0x40000000000000000000000800000000000006000000000000000000000000000000000000000000040000001000000040000000000000000000000000200000000000000000000804000000000000000104000100000000000000000002000000000000000800004000000000000000000000000000000000000000008000000000020000000800000000000000000408000000000000000000000000000000000000000000000000000080000000000000200200000020200000000000008000000000400000000000020000000000000000000200000000000000000000000000000200000000000000000000100000000000000000000000000000004000",
      "type": "0x0",
      "transactionHash": "0xdf9febf9be0dae05381e4625c6ea28a6c906924069f532bcefc5c62879f43b6e",
      "transactionIndex": "0x0",
      "blockHash": "0x478348f74c17676090641ee5ac6e5f9401eb25e89cce1ca9fb2cf64172ae97d3",
      "blockNumber": "0x2e",
      "gasUsed": "0x52d45",
      "effectiveGasPrice": "0x3b9aca00",
      "blobGasPrice": "0x1",
      "from": "0xd289d1387ae1033a703842d69501d5bec5a6f04e",
      "to": "0x048255dfef2ebfa7307058ae475a3e2f5ee0df46",
      "contractAddress": null
    },
    {
      "status": "0x1",
      "cumulativeGasUsed": "0x17083",
      "logs": [
        {
          "address": "0x048255dfef2ebfa7307058ae475a3e2f5ee0df46",
          "topics": [
            "0x6db2da0f661d59d5a9c767b6ba61a9c192765a6aab952e5e53ea77175332f13d",
            "0x15b9517f84e81219f907e347d0894b01e0d21e5729f301eef26bc1aa086b15e8",
            "0x000000000000000000000000d289d1387ae1033a703842d69501d5bec5a6f04e"
          ],
          "data": "0x000000000000000000000000000000000000000000000000000000000000000000000000000000000000000000000000000000000000000000000000000000010000000000000000000000000000000000000000000000000000000000000000000000000000000000000000d289d1387ae1033a703842d69501d5bec5a6f04e000000000000000000000000f86c23c1e883ee3b820fb9be75ff91c9a49eae7500000000000000000000000000000000000000000000000000000000000f42400000000000000000000000004d4adec97e3e11693f65dedc2d1e6bec784eb2f1000000000000000000000000000000000000000000000000000000000000000000000000000000000000000000000000000000000000000000000000000000000000000000000000000000000000000000000000000000000000000000000000",
          "blockHash": "0x4af1dbe4e0b4f33a95fe5c9ba21b10f94dc848331ac8734b63bd2ffa8a3c2146",
          "blockNumber": "0x2f",
          "blockTimestamp": "0x69665360",
          "transactionHash": "0x25955bd7ab1a92c65c59326657b4f91d21bafc700fb5375a9a12363b37d554fb",
          "transactionIndex": "0x0",
          "logIndex": "0x0",
          "removed": false
        },
        {
          "address": "0x048255dfef2ebfa7307058ae475a3e2f5ee0df46",
          "topics": [
            "0x78160f0b1b2b32b52a0076d8f0f70888687ba702a4d993d55ac8d9327d57a127",
            "0x0000000000000000000000000000000000000000000000000000000000000010",
            "0x74240482d66c716a2a5b1e187c420d47fa77215b9acb73b588ca278e16227ec7",
            "0xefe58d819c3082eb441a59a0e3626353d79590b2b7174c063c4e21e30f10e7dc"
          ],
          "data": "0x6db2da0f661d59d5a9c767b6ba61a9c192765a6aab952e5e53ea77175332f13d0000000000000000000000000000000000000000000000000000000000000040000000000000000000000000000000000000000000000000000000000000018015b9517f84e81219f907e347d0894b01e0d21e5729f301eef26bc1aa086b15e8000000000000000000000000d289d1387ae1033a703842d69501d5bec5a6f04e000000000000000000000000000000000000000000000000000000000000000000000000000000000000000000000000000000000000000000000000000000010000000000000000000000000000000000000000000000000000000000000000000000000000000000000000d289d1387ae1033a703842d69501d5bec5a6f04e000000000000000000000000f86c23c1e883ee3b820fb9be75ff91c9a49eae7500000000000000000000000000000000000000000000000000000000000f42400000000000000000000000004d4adec97e3e11693f65dedc2d1e6bec784eb2f1000000000000000000000000000000000000000000000000000000000000000000000000000000000000000000000000000000000000000000000000000000000000000000000000000000000000000000000000000000000000000000000000",
          "blockHash": "0x4af1dbe4e0b4f33a95fe5c9ba21b10f94dc848331ac8734b63bd2ffa8a3c2146",
          "blockNumber": "0x2f",
          "blockTimestamp": "0x69665360",
          "transactionHash": "0x25955bd7ab1a92c65c59326657b4f91d21bafc700fb5375a9a12363b37d554fb",
          "transactionIndex": "0x0",
          "logIndex": "0x1",
          "removed": false
        }
      ],
      "logsBloom": "0x40000000100000000000000000000000000000000000000000000000000000000000000000000000040000000000000040000000000000000000000000200000000008000000000004000000000000000000000000000000000000000000000000000000000800004000010000000000000000000000000000000000040000000000020000080000000000040000000400000100000000000000000000000000000000000000000000000080000000000000000200000000000080000000000000000000400000000000040000000000000000000200000000000000000000000000000000000000000000000000100000000000000000000000000000004000",
      "type": "0x0",
      "transactionHash": "0x25955bd7ab1a92c65c59326657b4f91d21bafc700fb5375a9a12363b37d554fb",
      "transactionIndex": "0x0",
      "blockHash": "0x4af1dbe4e0b4f33a95fe5c9ba21b10f94dc848331ac8734b63bd2ffa8a3c2146",
      "blockNumber": "0x2f",
      "gasUsed": "0x17083",
      "effectiveGasPrice": "0x3b9aca00",
      "blobGasPrice": "0x1",
      "from": "0xd289d1387ae1033a703842d69501d5bec5a6f04e",
      "to": "0x048255dfef2ebfa7307058ae475a3e2f5ee0df46",
      "contractAddress": null
    },
    {
      "status": "0x1",
      "cumulativeGasUsed": "0xac54",
      "logs": [],
      "logsBloom": "0x00000000000000000000000000000000000000000000000000000000000000000000000000000000000000000000000000000000000000000000000000000000000000000000000000000000000000000000000000000000000000000000000000000000000000000000000000000000000000000000000000000000000000000000000000000000000000000000000000000000000000000000000000000000000000000000000000000000000000000000000000000000000000000000000000000000000000000000000000000000000000000000000000000000000000000000000000000000000000000000000000000000000000000000000000000000",
      "type": "0x0",
      "transactionHash": "0xb6a8f3b9deae1eb7e331a012bc5a53500543da1ae7702867e71b94963ba23d13",
      "transactionIndex": "0x0",
      "blockHash": "0x4aac36326fa88be158710ace5003a359b87ec67902da9538d560b8d7637928d2",
      "blockNumber": "0x30",
      "gasUsed": "0xac54",
      "effectiveGasPrice": "0x3b9aca00",
      "blobGasPrice": "0x1",
      "from": "0xd289d1387ae1033a703842d69501d5bec5a6f04e",
      "to": "0x4d4adec97e3e11693f65dedc2d1e6bec784eb2f1",
      "contractAddress": null
    },
    {
      "status": "0x1",
      "cumulativeGasUsed": "0x3d7f7",
      "logs": [
        {
          "address": "0x8828fd7431d5bb1962d7e067c103b2324fa6bbec",
          "topics": [
            "0x7391f14355eff1e559e381f5bf49886a77da7c4fdd33c6fc2e0142269c561c59",
            "0x8c4a80b608fff7a7cb1f1639913031db92696be712ee8469533b8298c78aa87e",
            "0x7eb964445de6c2e66bcec24d55b50c465b3b27091b6d503c1897ac7d99ecbe35",
            "0x38cb7bc9535f8b89744a14dd2acfe7dcc993eb5f668dfbcb95bdf21a839e2ec0"
          ],
          "data": "0x805137159b1f1225efc7ae36f6b216b76c0e9bed085c4220b2f702fde8defd0400000000000000000000000000000000000000000000000000000000000000de000000000000000000000000048255dfef2ebfa7307058ae475a3e2f5ee0df46000000000000000000000000000000000000000000000000000000000000000100000000000000000000000000000000000000000000000000000000009897cd0000000000000000000000004d4adec97e3e11693f65dedc2d1e6bec784eb2f10000000000000000000000004d4adec97e3e11693f65dedc2d1e6bec784eb2f1000000000000000000000000861529c93d74a2d9b8d7d0009b7c183dceb54e3e000000000000000000000000861529c93d74a2d9b8d7d0009b7c183dceb54e3e",
          "blockHash": "0xc35e76c3ef943e9f5cd667ee5e88fb8237cbe5df1f230f02ac7cf73615bf6bb4",
          "blockNumber": "0x31",
          "blockTimestamp": "0x69665360",
          "transactionHash": "0x2f1aa65ff22cdb4d1dee8226ee8b48be78c4de85700e0880923abacae688c712",
          "transactionIndex": "0x0",
          "logIndex": "0x0",
          "removed": false
        },
        {
          "address": "0x8828fd7431d5bb1962d7e067c103b2324fa6bbec",
          "topics": [
            "0x78160f0b1b2b32b52a0076d8f0f70888687ba702a4d993d55ac8d9327d57a127",
            "0x0000000000000000000000000000000000000000000000000000000000000010",
            "0x47d8f4fc06a56e0ede6c35666a48858b466436a4900905395d2251c32ba607cd",
            "0x965fdfebdc6234ca97db66e013e0459c23744d61952ad803ce9bc408c8c2516f"
          ],
          "data": "0x7391f14355eff1e559e381f5bf49886a77da7c4fdd33c6fc2e0142269c561c59000000000000000000000000000000000000000000000000000000000000004000000000000000000000000000000000000000000000000000000000000001808c4a80b608fff7a7cb1f1639913031db92696be712ee8469533b8298c78aa87e7eb964445de6c2e66bcec24d55b50c465b3b27091b6d503c1897ac7d99ecbe3538cb7bc9535f8b89744a14dd2acfe7dcc993eb5f668dfbcb95bdf21a839e2ec0805137159b1f1225efc7ae36f6b216b76c0e9bed085c4220b2f702fde8defd0400000000000000000000000000000000000000000000000000000000000000de000000000000000000000000048255dfef2ebfa7307058ae475a3e2f5ee0df46000000000000000000000000000000000000000000000000000000000000000100000000000000000000000000000000000000000000000000000000009897cd0000000000000000000000004d4adec97e3e11693f65dedc2d1e6bec784eb2f10000000000000000000000004d4adec97e3e11693f65dedc2d1e6bec784eb2f1000000000000000000000000861529c93d74a2d9b8d7d0009b7c183dceb54e3e000000000000000000000000861529c93d74a2d9b8d7d0009b7c183dceb54e3e",
          "blockHash": "0xc35e76c3ef943e9f5cd667ee5e88fb8237cbe5df1f230f02ac7cf73615bf6bb4",
          "blockNumber": "0x31",
          "blockTimestamp": "0x69665360",
          "transactionHash": "0x2f1aa65ff22cdb4d1dee8226ee8b48be78c4de85700e0880923abacae688c712",
          "transactionIndex": "0x0",
          "logIndex": "0x1",
          "removed": false
        },
        {
          "address": "0x8828fd7431d5bb1962d7e067c103b2324fa6bbec",
          "topics": [
            "0x488f06a9ca9e19e1dd90c764cc79b765e8a3a089ef27d9a0e39dee21c7643188",
            "0xb3cb2e80a7de33973a9288caef1d4d48cc21929625b89e97e8107fcc275dbc86",
            "0x000000000000000000000000861529c93d74a2d9b8d7d0009b7c183dceb54e3e"
          ],
          "data": "0x000000000000000000000000e007a594267d5b9a4f5bf6fd054579eb82f5a057",
          "blockHash": "0xc35e76c3ef943e9f5cd667ee5e88fb8237cbe5df1f230f02ac7cf73615bf6bb4",
          "blockNumber": "0x31",
          "blockTimestamp": "0x69665360",
          "transactionHash": "0x2f1aa65ff22cdb4d1dee8226ee8b48be78c4de85700e0880923abacae688c712",
          "transactionIndex": "0x0",
          "logIndex": "0x2",
          "removed": false
        },
        {
          "address": "0x8828fd7431d5bb1962d7e067c103b2324fa6bbec",
          "topics": [
            "0x78160f0b1b2b32b52a0076d8f0f70888687ba702a4d993d55ac8d9327d57a127",
            "0x0000000000000000000000000000000000000000000000000000000000000011",
            "0x965fdfebdc6234ca97db66e013e0459c23744d61952ad803ce9bc408c8c2516f",
            "0xaba642cd8abb617c79c8da6fa83b1e01699751a025acec22abe02ab1be2c90e8"
          ],
          "data": "0x488f06a9ca9e19e1dd90c764cc79b765e8a3a089ef27d9a0e39dee21c764318800000000000000000000000000000000000000000000000000000000000000400000000000000000000000000000000000000000000000000000000000000060b3cb2e80a7de33973a9288caef1d4d48cc21929625b89e97e8107fcc275dbc86000000000000000000000000861529c93d74a2d9b8d7d0009b7c183dceb54e3e000000000000000000000000e007a594267d5b9a4f5bf6fd054579eb82f5a057",
          "blockHash": "0xc35e76c3ef943e9f5cd667ee5e88fb8237cbe5df1f230f02ac7cf73615bf6bb4",
          "blockNumber": "0x31",
          "blockTimestamp": "0x69665360",
          "transactionHash": "0x2f1aa65ff22cdb4d1dee8226ee8b48be78c4de85700e0880923abacae688c712",
          "transactionIndex": "0x0",
          "logIndex": "0x3",
          "removed": false
        },
        {
          "address": "0x8828fd7431d5bb1962d7e067c103b2324fa6bbec",
          "topics": [
            "0x2dfcf646f953b41d2cd9d30bcf3f6cda5248efcd7733adff3a25e88f35b8afcb",
            "0x8c4a80b608fff7a7cb1f1639913031db92696be712ee8469533b8298c78aa87e",
            "0x000000000000000000000000c5ea444a0f556f5b227ec7447294d91086bb692c",
            "0x0000000000000000000000004d4adec97e3e11693f65dedc2d1e6bec784eb2f1"
          ],
          "data": "0x00000000000000000000000000000000000000000000000000000000009897cd00000000000000000000000000000000000000000000000000000000000000de",
          "blockHash": "0xc35e76c3ef943e9f5cd667ee5e88fb8237cbe5df1f230f02ac7cf73615bf6bb4",
          "blockNumber": "0x31",
          "blockTimestamp": "0x69665360",
          "transactionHash": "0x2f1aa65ff22cdb4d1dee8226ee8b48be78c4de85700e0880923abacae688c712",
          "transactionIndex": "0x0",
          "logIndex": "0x4",
          "removed": false
        },
        {
          "address": "0x8828fd7431d5bb1962d7e067c103b2324fa6bbec",
          "topics": [
            "0x78160f0b1b2b32b52a0076d8f0f70888687ba702a4d993d55ac8d9327d57a127",
            "0x0000000000000000000000000000000000000000000000000000000000000012",
            "0xaba642cd8abb617c79c8da6fa83b1e01699751a025acec22abe02ab1be2c90e8",
            "0x1a87147878eacd0ad6b9bbb047fa9dfbf68980d031c80d7a3e1e7a31fc12d76e"
          ],
          "data": "0x2dfcf646f953b41d2cd9d30bcf3f6cda5248efcd7733adff3a25e88f35b8afcb000000000000000000000000000000000000000000000000000000000000004000000000000000000000000000000000000000000000000000000000000000a08c4a80b608fff7a7cb1f1639913031db92696be712ee8469533b8298c78aa87e000000000000000000000000c5ea444a0f556f5b227ec7447294d91086bb692c0000000000000000000000004d4adec97e3e11693f65dedc2d1e6bec784eb2f100000000000000000000000000000000000000000000000000000000009897cd00000000000000000000000000000000000000000000000000000000000000de",
          "blockHash": "0xc35e76c3ef943e9f5cd667ee5e88fb8237cbe5df1f230f02ac7cf73615bf6bb4",
          "blockNumber": "0x31",
          "blockTimestamp": "0x69665360",
          "transactionHash": "0x2f1aa65ff22cdb4d1dee8226ee8b48be78c4de85700e0880923abacae688c712",
          "transactionIndex": "0x0",
          "logIndex": "0x5",
          "removed": false
        },
        {
          "address": "0x8828fd7431d5bb1962d7e067c103b2324fa6bbec",
          "topics": [
            "0x2e659081f44c4f56a18b00f3f9d136d7ee8396bc79163c4d61363ddcf4a4cb27",
            "0x8c4a80b608fff7a7cb1f1639913031db92696be712ee8469533b8298c78aa87e"
          ],
          "data": "0x000000000000000000000000000000000000000000000000000000000000000100000000000000000000000000000000000000000000000000000000009897cd00000000000000000000000000000000000000000000000000000000009897cd000000000000000000000000000000000000000000000000000000000000000000000000000000000000000000000000000000000000000000000000000000000000000000000000000000000000000000000000000000000000000000000000000000000000000000000000c5ea444a0f556f5b227ec7447294d91086bb692c00000000000000000000000000000000000000000000000000000000009897cdc5d2460186f7233c927e7db2dcc703c0e500b653ca82273b7bfad8045d85a470",
          "blockHash": "0xc35e76c3ef943e9f5cd667ee5e88fb8237cbe5df1f230f02ac7cf73615bf6bb4",
          "blockNumber": "0x31",
          "blockTimestamp": "0x69665360",
          "transactionHash": "0x2f1aa65ff22cdb4d1dee8226ee8b48be78c4de85700e0880923abacae688c712",
          "transactionIndex": "0x0",
          "logIndex": "0x6",
          "removed": false
        },
        {
          "address": "0x8828fd7431d5bb1962d7e067c103b2324fa6bbec",
          "topics": [
            "0x78160f0b1b2b32b52a0076d8f0f70888687ba702a4d993d55ac8d9327d57a127",
            "0x0000000000000000000000000000000000000000000000000000000000000013",
            "0x1a87147878eacd0ad6b9bbb047fa9dfbf68980d031c80d7a3e1e7a31fc12d76e",
            "0x696c0410777eb208e89075b6d5fe494209645757b15db64bc5ef83445a36008b"
          ],
          "data": "0x2e659081f44c4f56a18b00f3f9d136d7ee8396bc79163c4d61363ddcf4a4cb27000000000000000000000000000000000000000000000000000000000000004000000000000000000000000000000000000000000000000000000000000001408c4a80b608fff7a7cb1f1639913031db92696be712ee8469533b8298c78aa87e000000000000000000000000000000000000000000000000000000000000000100000000000000000000000000000000000000000000000000000000009897cd00000000000000000000000000000000000000000000000000000000009897cd000000000000000000000000000000000000000000000000000000000000000000000000000000000000000000000000000000000000000000000000000000000000000000000000000000000000000000000000000000000000000000000000000000000000000000000000c5ea444a0f556f5b227ec7447294d91086bb692c00000000000000000000000000000000000000000000000000000000009897cdc5d2460186f7233c927e7db2dcc703c0e500b653ca82273b7bfad8045d85a470",
          "blockHash": "0xc35e76c3ef943e9f5cd667ee5e88fb8237cbe5df1f230f02ac7cf73615bf6bb4",
          "blockNumber": "0x31",
          "blockTimestamp": "0x69665360",
          "transactionHash": "0x2f1aa65ff22cdb4d1dee8226ee8b48be78c4de85700e0880923abacae688c712",
          "transactionIndex": "0x0",
          "logIndex": "0x7",
          "removed": false
        }
      ],
      "logsBloom": "0x20000001100000000000022000800000000000000800000000000004000002000010002040000000000000000000000200000000000000000000000000200000000000000200020001000000400000800000010000000000080000100000000000000020000800000000000400040008000000004000000080000000040000000080000000240080000000200000040840000100000004020000000020000100000008000000400000000000000000000000000018000040000100000400000004201000000008000400000000000000000000000000080400000000000000000000000000000002000000040000000100000000000000000000000400004001",
      "type": "0x0",
      "transactionHash": "0x2f1aa65ff22cdb4d1dee8226ee8b48be78c4de85700e0880923abacae688c712",
      "transactionIndex": "0x0",
      "blockHash": "0xc35e76c3ef943e9f5cd667ee5e88fb8237cbe5df1f230f02ac7cf73615bf6bb4",
      "blockNumber": "0x31",
      "gasUsed": "0x3d7f7",
      "effectiveGasPrice": "0x3b9aca00",
      "blobGasPrice": "0x1",
      "from": "0xd289d1387ae1033a703842d69501d5bec5a6f04e",
      "to": "0x8828fd7431d5bb1962d7e067c103b2324fa6bbec",
      "contractAddress": null
    }
  ],
  "libraries": [],
  "pending": [],
  "returns": {},
  "timestamp": 1768313696150,
  "chain": 333,
  "commit": "24bfcfb"
}