{
  "transactions": [
    {
      "hash": "0x0bd00aafbb67c67bf0d7afc58065ef5a70ff3bcaa705d25ae06c399210b95d62",
      "transactionType": "CREATE",
      "contractName": "ExactBridger",
      "contractAddress": "0x0be19c78706c441de4178a2266a650e47160eda7",
      "function": null,
      "arguments": null,
      "transaction": {
        "from": "0xd289d1387ae1033a703842d69501d5bec5a6f04e",
        "value": "0x0",
        "input": "0x60808060405234601557610521908161001a8239f35b5f80fdfe608080604052600436101561001c575b50361561001a575f80fd5b005b5f3560e01c9081631fce5d1114610478575080632267cb0814610450578063463d1fca146104335780637f8945821461035557806384def41c1461033c57806389c905d21461031f578063a678341d14610302578063b14d361d146100ac5763ff7b2edd1461008b575f61000f565b346100a8575f3660031901126100a8576020600654604051908152f35b5f80fd5b60a03660031901126100a8576004356001600160a01b038116908190036100a8576044356001600160a01b03811691602435918390036100a8576084359267ffffffffffffffff84116100a857366023850112156100a85783600401359167ffffffffffffffff83116100a85736602484870101116100a8576bffffffffffffffffffffffff60a01b5f5416175f55826001556bffffffffffffffffffffffff60a01b600254161760025560643560035561016860045461049a565b601f811161029a575b505f601f8211600114610227578192935f92610219575b50508160011b915f199060031b1c1916176004555b34600555600654806101b5575b602082604051908152f35b5f80808093335af13d15610214573d67ffffffffffffffff811161020057604051906101eb601f8201601f1916602001836104d2565b81525f60203d92013e5b156100a857816101aa565b634e487b7160e01b5f52604160045260245ffd5b6101f5565b602492500101358380610188565b601f1982169360045f525f5160206104f55f395f51905f52915f5b86811061027f5750836001959610610263575b505050811b0160045561019d565b01602401355f19600384901b60f8161c19169055838080610255565b90926020600181926024878701013581550194019101610242565b60045f52601f820160051c5f5160206104f55f395f51905f520190602083106102ed575b601f0160051c5f5160206104f55f395f51905f5201905b8181106102e25750610171565b5f81556001016102d5565b5f5160206104f55f395f51905f5291506102be565b346100a8575f3660031901126100a8576020600354604051908152f35b346100a8575f3660031901126100a8576020600154604051908152f35b346100a85760203660031901126100a857600435600655005b346100a8575f3660031901126100a857604051600454905f6103768361049a565b80835260208301936001811690811561041857506001146103cd575b50906103a28160409303826104d2565b8151928391602083525180918160208501528484015e5f828201840152601f01601f19168101030190f35b91905060045f525f5160206104f55f395f51905f52915f905b8082106103fe575090915081016020016103a2610392565b9192600181602092548385880101520191019092916103e6565b60ff1916855250151560051b820160200190506103a2610392565b346100a8575f3660031901126100a8576020600554604051908152f35b346100a8575f3660031901126100a8576002546040516001600160a01b039091168152602090f35b346100a8575f3660031901126100a8575f546001600160a01b03168152602090f35b90600182811c921680156104c8575b60208310146104b457565b634e487b7160e01b5f52602260045260245ffd5b91607f16916104a9565b90601f8019910116810190811067ffffffffffffffff8211176102005760405256fe8a35acfbc15ff81a39ae7d344fd709f28e8600b4aa8c65c6b64bfe7fe36bd19ba164736f6c634300081b000a",
        "nonce": "0xc",
        "chainId": "0x14d"
      },
      "additionalContracts": [],
      "isFixedGasLimit": false
    },
    {
      "hash": "0x9aa65cbff63a528b3f793efd281b1da51e6c122799e0dcf89cf4c57b275c98d6",
      "transactionType": "CALL",
      "contractName": null,
      "contractAddress": "0x8828fd7431d5bb1962d7e067c103b2324fa6bbec",
      "function": "setBridgers(address,address)",
      "arguments": [
        "0x0bE19C78706c441dE4178a2266a650E47160Eda7",
        "0x0bE19C78706c441dE4178a2266a650E47160Eda7"
      ],
      "transaction": {
        "from": "0xd289d1387ae1033a703842d69501d5bec5a6f04e",
        "to": "0x8828fd7431d5bb1962d7e067c103b2324fa6bbec",
        "value": "0x0",
        "input": "0x2b0f3ee40000000000000000000000000be19c78706c441de4178a2266a650e47160eda70000000000000000000000000be19c78706c441de4178a2266a650e47160eda7",
        "nonce": "0xd",
        "chainId": "0x14d"
      },
      "additionalContracts": [],
      "isFixedGasLimit": false
    },
    {
      "hash": "0xb9dcb1338c908c0674de52a2aeaea5fbe365295091a395696d56375f7a640d56",
      "transactionType": "CREATE",
      "contractName": "MockQuoter",
      "contractAddress": "0x481e836be187303c64f269bc7fe2c52f7f7c6eef",
      "function": null,
      "arguments": null,
      "transaction": {
        "from": "0xd289d1387ae1033a703842d69501d5bec5a6f04e",
        "value": "0x0",
        "input": "0x6080806040523460155761015b908161001a8239f35b5f80fdfe6080806040526004361015610012575f80fd5b5f3560e01c90816346ee8d001461010957508063520b9355146100c15780636813d78714610091578063d3072d821461006f5763e21a560214610053575f80fd5b3461006b57602036600319011261006b576004355f55005b5f80fd5b3461006b575f36600319011261006b57602060ff600154166040519015158152f35b3461006b57602036600319011261006b5760043580151580910361006b5760ff8019600154169116176001555f80f35b3461006b57608036600319011261006b576100da610122565b506100e3610138565b5060ff600154166100fa5760205f54604051908152f35b631f6b7cef60e11b5f5260045ffd5b3461006b575f36600319011261006b576020905f548152f35b600435906001600160a01b038216820361006b57565b602435906001600160a01b038216820361006b5756fea164736f6c634300081b000a",
        "nonce": "0xe",
        "chainId": "0x14d"
      },
      "additionalContracts": [],
      "isFixedGasLimit": false
    },
    {
      "hash": "0xa2d30251956de9976b77663cf7ef3c88b3579fad96010a8c72180300080f5de7",
      "transactionType": "CALL",
      "contractName": "MockQuoter",
      "contractAddress": "0x481e836be187303c64f269bc7fe2c52f7f7c6eef",
      "function": "setAmountOut(uint256)",
      "arguments": [
        "90000000"
      ],
      "transaction": {
        "from": "0xd289d1387ae1033a703842d69501d5bec5a6f04e",
        "to": "0x481e836be187303c64f269bc7fe2c52f7f7c6eef",
        "value": "0x0",
        "input": "0xe21a560200000000000000000000000000000000000000000000000000000000055d4a80",
        "nonce": "0xf",
        "chainId": "0x14d"
      },
      "additionalContracts": [],
      "isFixedGasLimit": false
    },
    {
      "hash": "0xf724177c1161a7e15a716e0acf18383f08aa68a5e83c51a24ad7b8974fec3761",
      "transactionType": "CALL",
      "contractName": null,
      "contractAddress": "0x8828fd7431d5bb1962d7e067c103b2324fa6bbec",
      "function": "setQuoter(address,address)",
      "arguments": [
        "0x4D4aDEc97e3e11693F65dEDC2D1e6Bec784eB2F1",
        "0x481e836bE187303c64F269Bc7fe2C52F7f7c6eEf"
      ],
      "transaction": {
        "from": "0xd289d1387ae1033a703842d69501d5bec5a6f04e",
        "to": "0x8828fd7431d5bb1962d7e067c103b2324fa6bbec",
        "value": "0x0",
        "input": "0x6264257a0000000000000000000000004d4adec97e3e11693f65dedc2d1e6bec784eb2f1000000000000000000000000481e836be187303c64f269bc7fe2c52f7f7c6eef",
        "nonce": "0x10",
        "chainId": "0x14d"
      },
      "additionalContracts": [],
      "isFixedGasLimit": false
    },
    {
      "hash": "0xe1637935c59f388458161687b1ef7ccacd756684d52950d43fd1cf6735a96f1b",
      "transactionType": "CALL",
      "contractName": null,
      "contractAddress": "0x048255dfef2ebfa7307058ae475a3e2f5ee0df46",
      "function": "setRecommendedIntentFee(uint256,uint256)",
      "arguments": [
        "10000",
        "123"
      ],
      "transaction": {
        "from": "0xd289d1387ae1033a703842d69501d5bec5a6f04e",
        "to": "0x048255dfef2ebfa7307058ae475a3e2f5ee0df46",
        "value": "0x0",
        "input": "0xf2af970b0000000000000000000000000000000000000000000000000000000000002710000000000000000000000000000000000000000000000000000000000000007b",
        "nonce": "0x11",
        "chainId": "0x14d"
      },
      "additionalContracts": [],
      "isFixedGasLimit": false
    },
    {
      "hash": "0x209b5ee5d897e109dfc958ee4bacd5b2991aaca81948db2cf3090c58b37f2dc2",
      "transactionType": "CREATE",
      "contractName": "MockQuoter",
      "contractAddress": "0x6b0f32ae157cf4f7d9b402c4e243e9088207dd87",
      "function": null,
      "arguments": null,
      "transaction": {
        "from": "0xd289d1387ae1033a703842d69501d5bec5a6f04e",
        "value": "0x0",
        "input": "0x6080806040523460155761015b908161001a8239f35b5f80fdfe6080806040526004361015610012575f80fd5b5f3560e01c90816346ee8d001461010957508063520b9355146100c15780636813d78714610091578063d3072d821461006f5763e21a560214610053575f80fd5b3461006b57602036600319011261006b576004355f55005b5f80fd5b3461006b575f36600319011261006b57602060ff600154166040519015158152f35b3461006b57602036600319011261006b5760043580151580910361006b5760ff8019600154169116176001555f80f35b3461006b57608036600319011261006b576100da610122565b506100e3610138565b5060ff600154166100fa5760205f54604051908152f35b631f6b7cef60e11b5f5260045ffd5b3461006b575f36600319011261006b576020905f548152f35b600435906001600160a01b038216820361006b57565b602435906001600160a01b038216820361006b5756fea164736f6c634300081b000a",
        "nonce": "0x12",
        "chainId": "0x14d"
      },
      "additionalContracts": [],
      "isFixedGasLimit": false
    },
    {
      "hash": "0x401604e058bfa88a55dced171ce64a920f2201f77fde49f210f234c9c1e1725c",
      "transactionType": "CALL",
      "contractName": "MockQuoter",
      "contractAddress": "0x6b0f32ae157cf4f7d9b402c4e243e9088207dd87",
      "function": "setAmountOut(uint256)",
      "arguments": [
        "90000000"
      ],
      "transaction": {
        "from": "0xd289d1387ae1033a703842d69501d5bec5a6f04e",
        "to": "0x6b0f32ae157cf4f7d9b402c4e243e9088207dd87",
        "value": "0x0",
        "input": "0xe21a560200000000000000000000000000000000000000000000000000000000055d4a80",
        "nonce": "0x13",
        "chainId": "0x14d"
      },
      "additionalContracts": [],
      "isFixedGasLimit": false
    },
    {
      "hash": "0x2fde58b6f721adf32041ecee797eba3d651b5f8e568b73c8d55e755322ae8319",
      "transactionType": "CALL",
      "contractName": null,
      "contractAddress": "0x8828fd7431d5bb1962d7e067c103b2324fa6bbec",
      "function": "setQuoter(address,address)",
      "arguments": [
        "0x4D4aDEc97e3e11693F65dEDC2D1e6Bec784eB2F1",
        "0x6b0f32ae157CF4F7d9B402c4e243E9088207dD87"
      ],
      "transaction": {
        "from": "0xd289d1387ae1033a703842d69501d5bec5a6f04e",
        "to": "0x8828fd7431d5bb1962d7e067c103b2324fa6bbec",
        "value": "0x0",
        "input": "0x6264257a0000000000000000000000004d4adec97e3e11693f65dedc2d1e6bec784eb2f10000000000000000000000006b0f32ae157cf4f7d9b402c4e243e9088207dd87",
        "nonce": "0x14",
        "chainId": "0x14d"
      },
      "additionalContracts": [],
      "isFixedGasLimit": false
    },
    {
      "hash": "0x049742a1cabc77723bf21a7a074bf850c642f851372bc230fe2f10ed90bed8d4",
      "transactionType": "CREATE",
      "contractName": "MockTransportBridger",
      "contractAddress": "0xc5ea444a0f556f5b227ec7447294d91086bb692c",
      "function": null,
      "arguments": null,
      "transaction": {
        "from": "0xd289d1387ae1033a703842d69501d5bec5a6f04e",
        "value": "0x0",
        "input": "0x60808060405234601557610507908161001a8239f35b5f80fdfe6080806040526004361015610012575f80fd5b5f905f3560e01c9081632c368377146103fd5750806347799da8146102d45763b14d361d1461003f575f80fd5b60a03660031901126102d1576004356001600160a01b038116908190036102cf576044356001600160a01b03811691602435918390036102cb576084359267ffffffffffffffff84116102c757366023850112156102c75783600401359067ffffffffffffffff82116102c35736602483870101116102c3576040519260c0840184811067ffffffffffffffff8211176102af5760405283526020830184815260408401918252866020606086019460643586528060246040519a61010d85601f19601f860116018d6104c4565b828c5201838b0137880101526080840186905260a08401878152935187546001600160a01b039182166001600160a01b0319918216178955915160015591516002805491909316911617905551600355825167ffffffffffffffff811161029b5761017960045461048c565b601f8111610238575b5060209485906001601f8411146101d7579482939495926101cc575b50508160011b915f199060031b1c1916176004555b51151560ff801960055416911617600555604051908152f35b015190505f8061019e565b90601f1983169560048352818320925b878110610221575083600195969710610209575b505050811b016004556101b3565b01515f1960f88460031b161c191690555f80806101fb565b9192886001819286850151815501940192016101e7565b600486527f8a35acfbc15ff81a39ae7d344fd709f28e8600b4aa8c65c6b64bfe7fe36bd19b601f830160051c81019160208410610291575b601f0160051c01905b8181106102865750610182565b868155600101610279565b9091508190610270565b634e487b7160e01b85526041600452602485fd5b634e487b7160e01b88526041600452602488fd5b8580fd5b8480fd5b8380fd5b505b80fd5b50346102d157806003193601126102d157805460015460025460035460405160045493946001600160a01b03908116949316918691906103138561048c565b8083526020830195600181169081156103e2575060011461038c575b5061033f8260e0989903836104c4565b60ff6005541693604051988997885260208801526040870152606086015260c060808601525180938160c08701528686015e838301850152151560a0830152601f01601f19168101030190f35b600484529750827f8a35acfbc15ff81a39ae7d344fd709f28e8600b4aa8c65c6b64bfe7fe36bd19b5b8982106103cc57508201602001975061033f61032f565b60018160209254838588010152019101906103b5565b60ff1916875250151560051b8201602001975061033f61032f565b905034610488575f3660031901126104885760055460ff81166104885760ff191660019081176005555f546002549154916001600160a01b039081169116803b1561048857835f604492819583956340c10f1960e01b8552600485015260248401525af1801561047d5761046f575080f35b61047b91505f906104c4565b005b6040513d5f823e3d90fd5b5f80fd5b90600182811c921680156104ba575b60208310146104a657565b634e487b7160e01b5f52602260045260245ffd5b91607f169161049b565b90601f8019910116810190811067ffffffffffffffff8211176104e657604052565b634e487b7160e01b5f52604160045260245ffdfea164736f6c634300081b000a",
        "nonce": "0x15",
        "chainId": "0x14d"
      },
      "additionalContracts": [],
      "isFixedGasLimit": false
    },
    {
      "hash": "0xd77f69c0220e9c917abac00f67b0be3357dfb3fa94fb7244724ebf00b6163ab5",
      "transactionType": "CALL",
      "contractName": null,
      "contractAddress": "0x8828fd7431d5bb1962d7e067c103b2324fa6bbec",
      "function": "setBridgers(address,address)",
      "arguments": [
        "0xC5EA444a0F556f5B227ec7447294d91086BB692c",
        "0xC5EA444a0F556f5B227ec7447294d91086BB692c"
      ],
      "transaction": {
        "from": "0xd289d1387ae1033a703842d69501d5bec5a6f04e",
        "to": "0x8828fd7431d5bb1962d7e067c103b2324fa6bbec",
        "value": "0x0",
        "input": "0x2b0f3ee4000000000000000000000000c5ea444a0f556f5b227ec7447294d91086bb692c000000000000000000000000c5ea444a0f556f5b227ec7447294d91086bb692c",
        "nonce": "0x16",
        "chainId": "0x14d"
      },
      "additionalContracts": [],
      "isFixedGasLimit": false
    },
    {
      "hash": "0x4df0fe94c202468901b9316d1bb846761fd4a00a6c75fe821afa7a0bf04aa896",
      "transactionType": "CALL",
      "contractName": null,
      "contractAddress": "0x4d4adec97e3e11693f65dedc2d1e6bec784eb2f1",
      "function": "mint(address,uint256)",
      "arguments": [
        "0xed87227a182E5A8fC74B1D40D80Db6208741C435",
        "123000000"
      ],
      "transaction": {
        "from": "0xd289d1387ae1033a703842d69501d5bec5a6f04e",
        "to": "0x4d4adec97e3e11693f65dedc2d1e6bec784eb2f1",
        "value": "0x0",
        "input": "0x40c10f19000000000000000000000000ed87227a182e5a8fc74b1d40d80db6208741c435000000000000000000000000000000000000000000000000000000000754d4c0",
        "nonce": "0x17",
        "chainId": "0x14d"
      },
      "additionalContracts": [],
      "isFixedGasLimit": false
    },
    {
      "hash": "0x891413bda4f1988031044ccaaf836f37e6ec733847357bfe573d6d0e34ffb85f",
      "transactionType": "CALL",
      "contractName": null,
      "contractAddress": "0x8828fd7431d5bb1962d7e067c103b2324fa6bbec",
      "function": "pullFromReceiver((uint256,address,bool,bytes32,bytes32,uint256,address,address,(address,uint256,bytes)[],bytes))",
      "arguments": [
        "(333, 0xD59d27B9172aD056Cb5C008Dc2BbEFe702123A55, false, 0x0000000000000000000000000000000000000000000000000000000000000000, 0x0000000000000000000000000000000000000000000000000000000000000001, 0, 0x4D4aDEc97e3e11693F65dEDC2D1e6Bec784eB2F1, 0x4D4aDEc97e3e11693F65dEDC2D1e6Bec784eB2F1, [], 0x)"
      ],
      "transaction": {
        "from": "0xd289d1387ae1033a703842d69501d5bec5a6f04e",
        "to": "0x8828fd7431d5bb1962d7e067c103b2324fa6bbec",
        "value": "0x0",
        "input": "0x1ad1087b0000000000000000000000000000000000000000000000000000000000000020000000000000000000000000000000000000000000000000000000000000014d000000000000000000000000d59d27b9172ad056cb5c008dc2bbefe702123a5500000000000000000000000000000000000000000000000000000000000000000000000000000000000000000000000000000000000000000000000000000000000000000000000000000000000000000000000000000000000000000000000100000000000000000000000000000000000000000000000000000000000000000000000000000000000000004d4adec97e3e11693f65dedc2d1e6bec784eb2f10000000000000000000000004d4adec97e3e11693f65dedc2d1e6bec784eb2f10000000000000000000000000000000000000000000000000000000000000140000000000000000000000000000000000000000000000000000000000000016000000000000000000000000000000000000000000000000000000000000000000000000000000000000000000000000000000000000000000000000000000000",
        "nonce": "0x18",
        "chainId": "0x14d"
      },
      "additionalContracts": [],
      "isFixedGasLimit": false
    },
    {
      "hash": "0x69f070f5563bca8333368fbdf915569ce367bb972188576858f828a52beed83f",
      "transactionType": "CALL",
      "contractName": null,
      "contractAddress": "0x4d4adec97e3e11693f65dedc2d1e6bec784eb2f1",
      "function": "mint(address,uint256)",
      "arguments": [
        "0xed87227a182E5A8fC74B1D40D80Db6208741C435",
        "100000000"
      ],
      "transaction": {
        "from": "0xd289d1387ae1033a703842d69501d5bec5a6f04e",
        "to": "0x4d4adec97e3e11693f65dedc2d1e6bec784eb2f1",
        "value": "0x0",
        "input": "0x40c10f19000000000000000000000000ed87227a182e5a8fc74b1d40d80db6208741c4350000000000000000000000000000000000000000000000000000000005f5e100",
        "nonce": "0x19",
        "chainId": "0x14d"
      },
      "additionalContracts": [],
      "isFixedGasLimit": false
    },
    {
      "hash": "0x27599f162bb8b14fad8b0f9ac38214c1ab979c22769bbeeb328528526a2604df",
      "transactionType": "CALL",
      "contractName": null,
      "contractAddress": "0x8828fd7431d5bb1962d7e067c103b2324fa6bbec",
      "function": "pullFromReceiver((uint256,address,bool,bytes32,bytes32,uint256,address,address,(address,uint256,bytes)[],bytes))",
      "arguments": [
        "(333, 0xD59d27B9172aD056Cb5C008Dc2BbEFe702123A55, false, 0x0000000000000000000000000000000000000000000000000000000000000000, 0x0000000000000000000000000000000000000000000000000000000000000002, 0, 0x4D4aDEc97e3e11693F65dEDC2D1e6Bec784eB2F1, 0xF86C23C1E883ee3B820FB9BE75FF91C9A49EaE75, [(0xF86C23C1E883ee3B820FB9BE75FF91C9A49EaE75, 0, 0x40c10f190000000000000000000000009feb94832da4e52a75a18e6310640cc2cb702ffe0000000000000000000000000000000000000000000000000000000005f5e100)], 0x)"
      ],
      "transaction": {
        "from": "0xd289d1387ae1033a703842d69501d5bec5a6f04e",
        "to": "0x8828fd7431d5bb1962d7e067c103b2324fa6bbec",
        "value": "0x0",
        "input": "0x1ad1087b0000000000000000000000000000000000000000000000000000000000000020000000000000000000000000000000000000000000000000000000000000014d000000000000000000000000d59d27b9172ad056cb5c008dc2bbefe702123a5500000000000000000000000000000000000000000000000000000000000000000000000000000000000000000000000000000000000000000000000000000000000000000000000000000000000000000000000000000000000000000000000200000000000000000000000000000000000000000000000000000000000000000000000000000000000000004d4adec97e3e11693f65dedc2d1e6bec784eb2f1000000000000000000000000f86c23c1e883ee3b820fb9be75ff91c9a49eae750000000000000000000000000000000000000000000000000000000000000140000000000000000000000000000000000000000000000000000000000000026000000000000000000000000000000000000000000000000000000000000000010000000000000000000000000000000000000000000000000000000000000020000000000000000000000000f86c23c1e883ee3b820fb9be75ff91c9a49eae7500000000000000000000000000000000000000000000000000000000000000000000000000000000000000000000000000000000000000000000000000000060000000000000000000000000000000000000000000000000000000000000004440c10f190000000000000000000000009feb94832da4e52a75a18e6310640cc2cb702ffe0000000000000000000000000000000000000000000000000000000005f5e100000000000000000000000000000000000000000000000000000000000000000000000000000000000000000000000000000000000000000000000000",
        "nonce": "0x1a",
        "chainId": "0x14d"
      },
      "additionalContracts": [],
      "isFixedGasLimit": false
    },
    {
      "hash": "0x9472e58502d4d723e2eeef1f18ff94885d1a210ed9e477cc91f10315440a1042",
      "transactionType": "CALL",
      "contractName": null,
      "contractAddress": "0xf86c23c1e883ee3b820fb9be75ff91c9a49eae75",
      "function": "mint(address,uint256)",
      "arguments": [
        "0xD289D1387ae1033A703842D69501D5bEc5A6f04e",
        "5000000"
      ],
      "transaction": {
        "from": "0xd289d1387ae1033a703842d69501d5bec5a6f04e",
        "to": "0xf86c23c1e883ee3b820fb9be75ff91c9a49eae75",
        "value": "0x0",
        "input": "0x40c10f19000000000000000000000000d289d1387ae1033a703842d69501d5bec5a6f04e00000000000000000000000000000000000000000000000000000000004c4b40",
        "nonce": "0x1b",
        "chainId": "0x14d"
      },
      "additionalContracts": [],
      "isFixedGasLimit": false
    },
    {
      "hash": "0x67d41d08660a1ab45f6df271f0e5ee4c8aad68765b5a2429fdfba21ff9bb4a37",
      "transactionType": "CALL",
      "contractName": null,
      "contractAddress": "0xf86c23c1e883ee3b820fb9be75ff91c9a49eae75",
      "function": "approve(address,uint256)",
      "arguments": [
        "0x048255dfEF2eBFA7307058Ae475a3e2F5ee0df46",
        "115792089237316195423570985008687907853269984665640564039457584007913129639935"
      ],
      "transaction": {
        "from": "0xd289d1387ae1033a703842d69501d5bec5a6f04e",
        "to": "0xf86c23c1e883ee3b820fb9be75ff91c9a49eae75",
        "value": "0x0",
        "input": "0x095ea7b3000000000000000000000000048255dfef2ebfa7307058ae475a3e2f5ee0df46ffffffffffffffffffffffffffffffffffffffffffffffffffffffffffffffff",
        "nonce": "0x1c",
        "chainId": "0x14d"
      },
      "additionalContracts": [],
      "isFixedGasLimit": false
    },
    {
      "hash": "0x0983c6af63f4da57cba549b32fc8daf66de895191c94622bf6fd1a0596e1122e",
      "transactionType": "CALL",
      "contractName": null,
      "contractAddress": "0x048255dfef2ebfa7307058ae475a3e2f5ee0df46",
      "function": "createIntent((uint8,bytes,address,address,uint256),uint256)",
      "arguments": [
        "(0, 0x00000000000000000000000000000000000000000000000000000000000000200000000000000000000000002db97a32d5ce8d79f7b7fdc607584a7a35da5e0d00000000000000000000000000000000000000000000000000000000000000400000000000000000000000000000000000000000000000000000000000000002abcd000000000000000000000000000000000000000000000000000000000000, 0xD289D1387ae1033A703842D69501D5bEc5A6f04e, 0xF86C23C1E883ee3B820FB9BE75FF91C9A49EaE75, 5000000)",
        "1768322533"
      ],
      "transaction": {
        "from": "0xd289d1387ae1033a703842d69501d5bec5a6f04e",
        "to": "0x048255dfef2ebfa7307058ae475a3e2f5ee0df46",
        "value": "0x0",
        "input": "0x549f7505000000000000000000000000000000000000000000000000000000000000004000000000000000000000000000000000000000000000000000000000696675e5000000000000000000000000000000000000000000000000000000000000000000000000000000000000000000000000000000000000000000000000000000a0000000000000000000000000d289d1387ae1033a703842d69501d5bec5a6f04e000000000000000000000000f86c23c1e883ee3b820fb9be75ff91c9a49eae7500000000000000000000000000000000000000000000000000000000004c4b4000000000000000000000000000000000000000000000000000000000000000a000000000000000000000000000000000000000000000000000000000000000200000000000000000000000002db97a32d5ce8d79f7b7fdc607584a7a35da5e0d00000000000000000000000000000000000000000000000000000000000000400000000000000000000000000000000000000000000000000000000000000002abcd000000000000000000000000000000000000000000000000000000000000",
        "nonce": "0x1d",
        "chainId": "0x14d"
      },
      "additionalContracts": [],
      "isFixedGasLimit": false
    },
    {
      "hash": "0x78466f8e95a6cec097ab890b86e387f2f2510d6b867e6361019c9da11d46732a",
      "transactionType": "CALL",
      "contractName": null,
      "contractAddress": "0x4d4adec97e3e11693f65dedc2d1e6bec784eb2f1",
      "function": "mint(address,uint256)",
      "arguments": [
        "0xD289D1387ae1033A703842D69501D5bEc5A6f04e",
        "1000000"
      ],
      "transaction": {
        "from": "0xd289d1387ae1033a703842d69501d5bec5a6f04e",
        "to": "0x4d4adec97e3e11693f65dedc2d1e6bec784eb2f1",
        "value": "0x0",
        "input": "0x40c10f19000000000000000000000000d289d1387ae1033a703842d69501d5bec5a6f04e00000000000000000000000000000000000000000000000000000000000f4240",
        "nonce": "0x1e",
        "chainId": "0x14d"
      },
      "additionalContracts": [],
      "isFixedGasLimit": false
    },
    {
      "hash": "0xfb981c298895dafec66687e6e26ca5de950cf4e8ba033cb601abdc1d6a638242",
      "transactionType": "CALL",
      "contractName": null,
      "contractAddress": "0x4d4adec97e3e11693f65dedc2d1e6bec784eb2f1",
      "function": "approve(address,uint256)",
      "arguments": [
        "0x048255dfEF2eBFA7307058Ae475a3e2F5ee0df46",
        "115792089237316195423570985008687907853269984665640564039457584007913129639935"
      ],
      "transaction": {
        "from": "0xd289d1387ae1033a703842d69501d5bec5a6f04e",
        "to": "0x4d4adec97e3e11693f65dedc2d1e6bec784eb2f1",
        "value": "0x0",
        "input": "0x095ea7b3000000000000000000000000048255dfef2ebfa7307058ae475a3e2f5ee0df46ffffffffffffffffffffffffffffffffffffffffffffffffffffffffffffffff",
        "nonce": "0x1f",
        "chainId": "0x14d"
      },
      "additionalContracts": [],
      "isFixedGasLimit": false
    },
    {
      "hash": "0x543069dbb9034d166d62a522ccb13f1d420f16f2025be84fc9a6bfe37d32104d",
      "transactionType": "CALL",
      "contractName": null,
      "contractAddress": "0x048255dfef2ebfa7307058ae475a3e2f5ee0df46",
      "function": "claimIntent(bytes32)",
      "arguments": [
        "0xa3573853cd51aee00704a918bdae35ffd85cda62ed5fb1c74fdc4509c4d06457"
      ],
      "transaction": {
        "from": "0xd289d1387ae1033a703842d69501d5bec5a6f04e",
        "to": "0x048255dfef2ebfa7307058ae475a3e2f5ee0df46",
        "value": "0x0",
        "input": "0x40e624cba3573853cd51aee00704a918bdae35ffd85cda62ed5fb1c74fdc4509c4d06457",
        "nonce": "0x20",
        "chainId": "0x14d"
      },
      "additionalContracts": [],
      "isFixedGasLimit": false
    },
    {
      "hash": "0xb714f5ac36b192383bedb54a0bba093c620ff93399a19848334bfc7de47d6257",
      "transactionType": "CALL",
      "contractName": null,
      "contractAddress": "0x8c16d2f19a034b7281254f5656c2d1461c6ceb9a",
      "function": "setTx((bytes32,uint256,uint32,bytes21,bytes21,bytes))",
      "arguments": [
        "(0x0000000000000000000000000000000000000000000000000000000000000000, 0, 0, 0x000000000000000000000000000000000000000000, 0x412db97a32d5ce8d79f7b7fdc607584a7a35da5e0d, 0xabcd)"
      ],
      "transaction": {
        "from": "0xd289d1387ae1033a703842d69501d5bec5a6f04e",
        "to": "0x8c16d2f19a034b7281254f5656c2d1461c6ceb9a",
        "value": "0x0",
        "input": "0x3aec07de00000000000000000000000000000000000000000000000000000000000000200000000000000000000000000000000000000000000000000000000000000000000000000000000000000000000000000000000000000000000000000000000000000000000000000000000000000000000000000000000000000000000000000000000000000000000000000000000000000000000000000000000000000000412db97a32d5ce8d79f7b7fdc607584a7a35da5e0d000000000000000000000000000000000000000000000000000000000000000000000000000000000000c00000000000000000000000000000000000000000000000000000000000000002abcd000000000000000000000000000000000000000000000000000000000000",
        "nonce": "0x21",
        "chainId": "0x14d"
      },
      "additionalContracts": [],
      "isFixedGasLimit": false
    },
    {
      "hash": "0x2f5ba51d14e85c15d17d191030d42e6841a71cc1e7565d0360208b4ebf62e251",
      "transactionType": "CALL",
      "contractName": null,
      "contractAddress": "0x048255dfef2ebfa7307058ae475a3e2f5ee0df46",
      "function": "proveIntentFill(bytes32,bytes[20],bytes,bytes32[],uint256)",
      "arguments": [
        "0xa3573853cd51aee00704a918bdae35ffd85cda62ed5fb1c74fdc4509c4d06457",
        "[0x, 0x, 0x, 0x, 0x, 0x, 0x, 0x, 0x, 0x, 0x, 0x, 0x, 0x, 0x, 0x, 0x, 0x, 0x, 0x]",
        "0x",
        "[]",
        "0"
      ],
      "transaction": {
        "from": "0xd289d1387ae1033a703842d69501d5bec5a6f04e",
        "to": "0x048255dfef2ebfa7307058ae475a3e2f5ee0df46",
        "value": "0x0",
        "input": "0x5c23cc02a3573853cd51aee00704a918bdae35ffd85cda62ed5fb1c74fdc4509c4d0645700000000000000000000000000000000000000000000000000000000000000a000000000000000000000000000000000000000000000000000000000000005a000000000000000000000000000000000000000000000000000000000000005c00000000000000000000000000000000000000000000000000000000000000000000000000000000000000000000000000000000000000000000000000000028000000000000000000000000000000000000000000000000000000000000002a000000000000000000000000000000000000000000000000000000000000002c000000000000000000000000000000000000000000000000000000000000002e00000000000000000000000000000000000000000000000000000000000000300000000000000000000000000000000000000000000000000000000000000032000000000000000000000000000000000000000000000000000000000000003400000000000000000000000000000000000000000000000000000000000000360000000000000000000000000000000000000000000000000000000000000038000000000000000000000000000000000000000000000000000000000000003a000000000000000000000000000000000000000000000000000000000000003c000000000000000000000000000000000000000000000000000000000000003e00000000000000000000000000000000000000000000000000000000000000400000000000000000000000000000000000000000000000000000000000000042000000000000000000000000000000000000000000000000000000000000004400000000000000000000000000000000000000000000000000000000000000460000000000000000000000000000000000000000000000000000000000000048000000000000000000000000000000000000000000000000000000000000004a000000000000000000000000000000000000000000000000000000000000004c000000000000000000000000000000000000000000000000000000000000004e00000000000000000000000000000000000000000000000000000000000000000000000000000000000000000000000000000000000000000000000000000000000000000000000000000000000000000000000000000000000000000000000000000000000000000000000000000000000000000000000000000000000000000000000000000000000000000000000000000000000000000000000000000000000000000000000000000000000000000000000000000000000000000000000000000000000000000000000000000000000000000000000000000000000000000000000000000000000000000000000000000000000000000000000000000000000000000000000000000000000000000000000000000000000000000000000000000000000000000000000000000000000000000000000000000000000000000000000000000000000000000000000000000000000000000000000000000000000000000000000000000000000000000000000000000000000000000000000000000000000000000000000000000000000000000000000000000000000000000000000000000000000000000000000000000000000000000000000000000000000000000000000000000000000000000000000000000000000000000000000000000000000000000000000000000000000000000000000000000000000000000000000000000000000000000000000000000000000000000000000000000000000000000000000000000000000000000000000000000000000000000000000000000000000000000000000000000000000000000000000000000000000000000000000000000000000000000000000000000000000000000000000000000000000000000000000000000000000000000000000000000000000000000000000000000000000000000000000000000000000000000000000000000000000000000",
        "nonce": "0x22",
        "chainId": "0x14d"
      },
      "additionalContracts": [],
      "isFixedGasLimit": false
    },
    {
      "hash": "0x0a2b025e54d798396bcc4d25e729364f018d01b9de9918368b81ec89df0f7e63",
      "transactionType": "CALL",
      "contractName": null,
      "contractAddress": "0x4d4adec97e3e11693f65dedc2d1e6bec784eb2f1",
      "function": "mint(address,uint256)",
      "arguments": [
        "0xD289D1387ae1033A703842D69501D5bEc5A6f04e",
        "2000000"
      ],
      "transaction": {
        "from": "0xd289d1387ae1033a703842d69501d5bec5a6f04e",
        "to": "0x4d4adec97e3e11693f65dedc2d1e6bec784eb2f1",
        "value": "0x0",
        "input": "0x40c10f19000000000000000000000000d289d1387ae1033a703842d69501d5bec5a6f04e00000000000000000000000000000000000000000000000000000000001e8480",
        "nonce": "0x23",
        "chainId": "0x14d"
      },
      "additionalContracts": [],
      "isFixedGasLimit": false
    },
    {
      "hash": "0x7ea72e5993dc68e9aae677584dd7924b37542cf6803f9122078b9aa549581694",
      "transactionType": "CALL",
      "contractName": null,
      "contractAddress": "0x4d4adec97e3e11693f65dedc2d1e6bec784eb2f1",
      "function": "approve(address,uint256)",
      "arguments": [
        "0x048255dfEF2eBFA7307058Ae475a3e2F5ee0df46",
        "115792089237316195423570985008687907853269984665640564039457584007913129639935"
      ],
      "transaction": {
        "from": "0xd289d1387ae1033a703842d69501d5bec5a6f04e",
        "to": "0x4d4adec97e3e11693f65dedc2d1e6bec784eb2f1",
        "value": "0x0",
        "input": "0x095ea7b3000000000000000000000000048255dfef2ebfa7307058ae475a3e2f5ee0df46ffffffffffffffffffffffffffffffffffffffffffffffffffffffffffffffff",
        "nonce": "0x24",
        "chainId": "0x14d"
      },
      "additionalContracts": [],
      "isFixedGasLimit": false
    },
    {
      "hash": "0x64dea011da45098d05acb6862132b54be659ec43cd04e4d1beba30040fa153cd",
      "transactionType": "CALL",
      "contractName": null,
      "contractAddress": "0x048255dfef2ebfa7307058ae475a3e2f5ee0df46",
      "function": "createIntent((uint8,bytes,address,address,uint256),uint256)",
      "arguments": [
        "(1, 0x000000000000000000000000558b8fe3b86724d9d9433bf8ec2b1a1b223f9d25000000000000000000000000000000000000000000000000000000000012d687, 0xD289D1387ae1033A703842D69501D5bEc5A6f04e, 0x4D4aDEc97e3e11693F65dEDC2D1e6Bec784eB2F1, 2000000)",
        "1768322533"
      ],
      "transaction": {
        "from": "0xd289d1387ae1033a703842d69501d5bec5a6f04e",
        "to": "0x048255dfef2ebfa7307058ae475a3e2f5ee0df46",
        "value": "0x0",
        "input": "0x549f7505000000000000000000000000000000000000000000000000000000000000004000000000000000000000000000000000000000000000000000000000696675e5000000000000000000000000000000000000000000000000000000000000000100000000000000000000000000000000000000000000000000000000000000a0000000000000000000000000d289d1387ae1033a703842d69501d5bec5a6f04e0000000000000000000000004d4adec97e3e11693f65dedc2d1e6bec784eb2f100000000000000000000000000000000000000000000000000000000001e84800000000000000000000000000000000000000000000000000000000000000040000000000000000000000000558b8fe3b86724d9d9433bf8ec2b1a1b223f9d25000000000000000000000000000000000000000000000000000000000012d687",
        "nonce": "0x25",
        "chainId": "0x14d"
      },
      "additionalContracts": [],
      "isFixedGasLimit": false
    },
    {
      "hash": "0x1c5a6f087ddd01a80266dcc4087775bee248903bc54c495275af6efc654a725e",
      "transactionType": "CALL",
      "contractName": null,
      "contractAddress": "0x4d4adec97e3e11693f65dedc2d1e6bec784eb2f1",
      "function": "mint(address,uint256)",
      "arguments": [
        "0xD289D1387ae1033A703842D69501D5bEc5A6f04e",
        "1000000"
      ],
      "transaction": {
        "from": "0xd289d1387ae1033a703842d69501d5bec5a6f04e",
        "to": "0x4d4adec97e3e11693f65dedc2d1e6bec784eb2f1",
        "value": "0x0",
        "input": "0x40c10f19000000000000000000000000d289d1387ae1033a703842d69501d5bec5a6f04e00000000000000000000000000000000000000000000000000000000000f4240",
        "nonce": "0x26",
        "chainId": "0x14d"
      },
      "additionalContracts": [],
      "isFixedGasLimit": false
    },
    {
      "hash": "0x14ad21e0465b8f1bf65dbb49dc6d80fe8c9db2523dc493fcadf887416d373978",
      "transactionType": "CALL",
      "contractName": null,
      "contractAddress": "0x4d4adec97e3e11693f65dedc2d1e6bec784eb2f1",
      "function": "approve(address,uint256)",
      "arguments": [
        "0x048255dfEF2eBFA7307058Ae475a3e2F5ee0df46",
        "115792089237316195423570985008687907853269984665640564039457584007913129639935"
      ],
      "transaction": {
        "from": "0xd289d1387ae1033a703842d69501d5bec5a6f04e",
        "to": "0x4d4adec97e3e11693f65dedc2d1e6bec784eb2f1",
        "value": "0x0",
        "input": "0x095ea7b3000000000000000000000000048255dfef2ebfa7307058ae475a3e2f5ee0df46ffffffffffffffffffffffffffffffffffffffffffffffffffffffffffffffff",
        "nonce": "0x27",
        "chainId": "0x14d"
      },
      "additionalContracts": [],
      "isFixedGasLimit": false
    },
    {
      "hash": "0x6798bae66be5218d33d738fa6797195b1642d7cada9904a622f32b6eaf1374a0",
      "transactionType": "CALL",
      "contractName": null,
      "contractAddress": "0x048255dfef2ebfa7307058ae475a3e2f5ee0df46",
      "function": "claimIntent(bytes32)",
      "arguments": [
        "0x9c5668eca5a4c40788145e30ed18cf7fd39e52233dfaffbabbdea366803bf0a0"
      ],
      "transaction": {
        "from": "0xd289d1387ae1033a703842d69501d5bec5a6f04e",
        "to": "0x048255dfef2ebfa7307058ae475a3e2f5ee0df46",
        "value": "0x0",
        "input": "0x40e624cb9c5668eca5a4c40788145e30ed18cf7fd39e52233dfaffbabbdea366803bf0a0",
        "nonce": "0x28",
        "chainId": "0x14d"
      },
      "additionalContracts": [],
      "isFixedGasLimit": false
    },
    {
      "hash": "0x00b79c3452bdb35d9094c2a84d9713d43984b55d56f94d3c5e00452ed02ce923",
      "transactionType": "CALL",
      "contractName": null,
      "contractAddress": "0x8c16d2f19a034b7281254f5656c2d1461c6ceb9a",
      "function": "setTx((bytes32,uint256,uint32,bytes21,bytes21,bytes))",
      "arguments": [
        "(0x0000000000000000000000000000000000000000000000000000000000000000, 0, 0, 0x000000000000000000000000000000000000000000, 0x41f61c257cc0c129959a9704a59193e15c91853749, 0xa9059cbb000000000000000000000000558b8fe3b86724d9d9433bf8ec2b1a1b223f9d25000000000000000000000000000000000000000000000000000000000012d687)"
      ],
      "transaction": {
        "from": "0xd289d1387ae1033a703842d69501d5bec5a6f04e",
        "to": "0x8c16d2f19a034b7281254f5656c2d1461c6ceb9a",
        "value": "0x0",
        "input": "0x3aec07de0000000000000000000000000000000000000000000000000000000000000020000000000000000000000000000000000000000000000000000000000000000000000000000000000000000000000000000000000000000000000000000000000000000000000000000000000000000000000000000000000000000000000000000000000000000000000000000000000000000000000000000000000000000041f61c257cc0c129959a9704a59193e15c91853749000000000000000000000000000000000000000000000000000000000000000000000000000000000000c00000000000000000000000000000000000000000000000000000000000000044a9059cbb000000000000000000000000558b8fe3b86724d9d9433bf8ec2b1a1b223f9d25000000000000000000000000000000000000000000000000000000000012d68700000000000000000000000000000000000000000000000000000000",
        "nonce": "0x29",
        "chainId": "0x14d"
      },
      "additionalContracts": [],
      "isFixedGasLimit": false
    },
    {
      "hash": "0xa46440fa92d82570f6fa2d0f2e706f7e2473ecd9646a5a76de00c7f7d5f7d937",
      "transactionType": "CALL",
      "contractName": null,
      "contractAddress": "0x048255dfef2ebfa7307058ae475a3e2f5ee0df46",
      "function": "proveIntentFill(bytes32,bytes[20],bytes,bytes32[],uint256)",
      "arguments": [
        "0x9c5668eca5a4c40788145e30ed18cf7fd39e52233dfaffbabbdea366803bf0a0",
        "[0x, 0x, 0x, 0x, 0x, 0x, 0x, 0x, 0x, 0x, 0x, 0x, 0x, 0x, 0x, 0x, 0x, 0x, 0x, 0x]",
        "0x",
        "[]",
        "0"
      ],
      "transaction": {
        "from": "0xd289d1387ae1033a703842d69501d5bec5a6f04e",
        "to": "0x048255dfef2ebfa7307058ae475a3e2f5ee0df46",
        "value": "0x0",
        "input": "0x5c23cc029c5668eca5a4c40788145e30ed18cf7fd39e52233dfaffbabbdea366803bf0a000000000000000000000000000000000000000000000000000000000000000a000000000000000000000000000000000000000000000000000000000000005a000000000000000000000000000000000000000000000000000000000000005c00000000000000000000000000000000000000000000000000000000000000000000000000000000000000000000000000000000000000000000000000000028000000000000000000000000000000000000000000000000000000000000002a000000000000000000000000000000000000000000000000000000000000002c000000000000000000000000000000000000000000000000000000000000002e00000000000000000000000000000000000000000000000000000000000000300000000000000000000000000000000000000000000000000000000000000032000000000000000000000000000000000000000000000000000000000000003400000000000000000000000000000000000000000000000000000000000000360000000000000000000000000000000000000000000000000000000000000038000000000000000000000000000000000000000000000000000000000000003a000000000000000000000000000000000000000000000000000000000000003c000000000000000000000000000000000000000000000000000000000000003e00000000000000000000000000000000000000000000000000000000000000400000000000000000000000000000000000000000000000000000000000000042000000000000000000000000000000000000000000000000000000000000004400000000000000000000000000000000000000000000000000000000000000460000000000000000000000000000000000000000000000000000000000000048000000000000000000000000000000000000000000000000000000000000004a000000000000000000000000000000000000000000000000000000000000004c000000000000000000000000000000000000000000000000000000000000004e00000000000000000000000000000000000000000000000000000000000000000000000000000000000000000000000000000000000000000000000000000000000000000000000000000000000000000000000000000000000000000000000000000000000000000000000000000000000000000000000000000000000000000000000000000000000000000000000000000000000000000000000000000000000000000000000000000000000000000000000000000000000000000000000000000000000000000000000000000000000000000000000000000000000000000000000000000000000000000000000000000000000000000000000000000000000000000000000000000000000000000000000000000000000000000000000000000000000000000000000000000000000000000000000000000000000000000000000000000000000000000000000000000000000000000000000000000000000000000000000000000000000000000000000000000000000000000000000000000000000000000000000000000000000000000000000000000000000000000000000000000000000000000000000000000000000000000000000000000000000000000000000000000000000000000000000000000000000000000000000000000000000000000000000000000000000000000000000000000000000000000000000000000000000000000000000000000000000000000000000000000000000000000000000000000000000000000000000000000000000000000000000000000000000000000000000000000000000000000000000000000000000000000000000000000000000000000000000000000000000000000000000000000000000000000000000000000000000000000000000000000000000000000000000000000000000000000000000000000000000000000000000000000000000000000",
        "nonce": "0x2a",
        "chainId": "0x14d"
      },
      "additionalContracts": [],
      "isFixedGasLimit": false
    },
    {
      "hash": "0xd0320ea4101225e3cdf0058c477936642fac4dcaca976e91576a4ef8209222a1",
      "transactionType": "CALL",
      "contractName": null,
      "contractAddress": "0xf86c23c1e883ee3b820fb9be75ff91c9a49eae75",
      "function": "mint(address,uint256)",
      "arguments": [
        "0xD289D1387ae1033A703842D69501D5bEc5A6f04e",
        "1000000"
      ],
      "transaction": {
        "from": "0xd289d1387ae1033a703842d69501d5bec5a6f04e",
        "to": "0xf86c23c1e883ee3b820fb9be75ff91c9a49eae75",
        "value": "0x0",
        "input": "0x40c10f19000000000000000000000000d289d1387ae1033a703842d69501d5bec5a6f04e00000000000000000000000000000000000000000000000000000000000f4240",
        "nonce": "0x2b",
        "chainId": "0x14d"
      },
      "additionalContracts": [],
      "isFixedGasLimit": false
    },
    {
      "hash": "0x9ba2356eba8d92e29a09975d422f7a521e444f1e961e2ba70fe2dbc28213ae9b",
      "transactionType": "CALL",
      "contractName": null,
      "contractAddress": "0xf86c23c1e883ee3b820fb9be75ff91c9a49eae75",
      "function": "approve(address,uint256)",
      "arguments": [
        "0x048255dfEF2eBFA7307058Ae475a3e2F5ee0df46",
        "115792089237316195423570985008687907853269984665640564039457584007913129639935"
      ],
      "transaction": {
        "from": "0xd289d1387ae1033a703842d69501d5bec5a6f04e",
        "to": "0xf86c23c1e883ee3b820fb9be75ff91c9a49eae75",
        "value": "0x0",
        "input": "0x095ea7b3000000000000000000000000048255dfef2ebfa7307058ae475a3e2f5ee0df46ffffffffffffffffffffffffffffffffffffffffffffffffffffffffffffffff",
        "nonce": "0x2c",
        "chainId": "0x14d"
      },
      "additionalContracts": [],
      "isFixedGasLimit": false
    },
    {
      "hash": "0x027143c7fdbe2d1fa9d1d12129b448484c936efb4b939f6d861de48988de6329",
      "transactionType": "CALL",
      "contractName": null,
      "contractAddress": "0x048255dfef2ebfa7307058ae475a3e2f5ee0df46",
      "function": "createIntent((uint8,bytes,address,address,uint256),uint256)",
      "arguments": [
        "(0, 0x00000000000000000000000000000000000000000000000000000000000000200000000000000000000000005457e258a09ebfb4a2501a9e3d70d37f54f923f300000000000000000000000000000000000000000000000000000000000000400000000000000000000000000000000000000000000000000000000000000002beef000000000000000000000000000000000000000000000000000000000000, 0xD289D1387ae1033A703842D69501D5bEc5A6f04e, 0xF86C23C1E883ee3B820FB9BE75FF91C9A49EaE75, 1000000)",
        "1768322533"
      ],
      "transaction": {
        "from": "0xd289d1387ae1033a703842d69501d5bec5a6f04e",
        "to": "0x048255dfef2ebfa7307058ae475a3e2f5ee0df46",
        "value": "0x0",
        "input": "0x549f7505000000000000000000000000000000000000000000000000000000000000004000000000000000000000000000000000000000000000000000000000696675e5000000000000000000000000000000000000000000000000000000000000000000000000000000000000000000000000000000000000000000000000000000a0000000000000000000000000d289d1387ae1033a703842d69501d5bec5a6f04e000000000000000000000000f86c23c1e883ee3b820fb9be75ff91c9a49eae7500000000000000000000000000000000000000000000000000000000000f424000000000000000000000000000000000000000000000000000000000000000a000000000000000000000000000000000000000000000000000000000000000200000000000000000000000005457e258a09ebfb4a2501a9e3d70d37f54f923f300000000000000000000000000000000000000000000000000000000000000400000000000000000000000000000000000000000000000000000000000000002beef000000000000000000000000000000000000000000000000000000000000",
        "nonce": "0x2d",
        "chainId": "0x14d"
      },
      "additionalContracts": [],
      "isFixedGasLimit": false
    },
    {
      "hash": "0xae7505372bb71a361ec9baadb51eeb6221d1a78291024b27c375177c699bfc3c",
      "transactionType": "CALL",
      "contractName": null,
      "contractAddress": "0x4d4adec97e3e11693f65dedc2d1e6bec784eb2f1",
      "function": "mint(address,uint256)",
      "arguments": [
        "0xD289D1387ae1033A703842D69501D5bEc5A6f04e",
        "1000000"
      ],
      "transaction": {
        "from": "0xd289d1387ae1033a703842d69501d5bec5a6f04e",
        "to": "0x4d4adec97e3e11693f65dedc2d1e6bec784eb2f1",
        "value": "0x0",
        "input": "0x40c10f19000000000000000000000000d289d1387ae1033a703842d69501d5bec5a6f04e00000000000000000000000000000000000000000000000000000000000f4240",
        "nonce": "0x2e",
        "chainId": "0x14d"
      },
      "additionalContracts": [],
      "isFixedGasLimit": false
    },
    {
      "hash": "0x75124d4f3baf46dd500f8836ade2ccbacf01a1a37283b17ace877eaeea98fcba",
      "transactionType": "CALL",
      "contractName": null,
      "contractAddress": "0x4d4adec97e3e11693f65dedc2d1e6bec784eb2f1",
      "function": "approve(address,uint256)",
      "arguments": [
        "0x048255dfEF2eBFA7307058Ae475a3e2F5ee0df46",
        "115792089237316195423570985008687907853269984665640564039457584007913129639935"
      ],
      "transaction": {
        "from": "0xd289d1387ae1033a703842d69501d5bec5a6f04e",
        "to": "0x4d4adec97e3e11693f65dedc2d1e6bec784eb2f1",
        "value": "0x0",
        "input": "0x095ea7b3000000000000000000000000048255dfef2ebfa7307058ae475a3e2f5ee0df46ffffffffffffffffffffffffffffffffffffffffffffffffffffffffffffffff",
        "nonce": "0x2f",
        "chainId": "0x14d"
      },
      "additionalContracts": [],
      "isFixedGasLimit": false
    },
    {
      "hash": "0xaacb7dc2a59e484fca7dd404e9afcc0ae3a3761199fb633af062573e2bd3f89e",
      "transactionType": "CALL",
      "contractName": null,
      "contractAddress": "0x048255dfef2ebfa7307058ae475a3e2f5ee0df46",
      "function": "claimVirtualReceiverIntent(address,address,bytes32,address,uint256)",
      "arguments": [
        "0x8828fD7431d5bb1962d7E067C103b2324FA6BBEC",
        "0x97629064A9C06865C5B3832F94bb64a8E47bcAd7",
        "0x282866f5067804dadd2e500a0a3d8b5e5d2e5cde385e9ec6a887315613d6f448",
        "0x4D4aDEc97e3e11693F65dEDC2D1e6Bec784eB2F1",
        "1000000"
      ],
      "transaction": {
        "from": "0xd289d1387ae1033a703842d69501d5bec5a6f04e",
        "to": "0x048255dfef2ebfa7307058ae475a3e2f5ee0df46",
        "value": "0x0",
        "input": "0xaf2440050000000000000000000000008828fd7431d5bb1962d7e067c103b2324fa6bbec00000000000000000000000097629064a9c06865c5b3832f94bb64a8e47bcad7282866f5067804dadd2e500a0a3d8b5e5d2e5cde385e9ec6a887315613d6f4480000000000000000000000004d4adec97e3e11693f65dedc2d1e6bec784eb2f100000000000000000000000000000000000000000000000000000000000f4240",
        "nonce": "0x30",
        "chainId": "0x14d"
      },
      "additionalContracts": [],
      "isFixedGasLimit": false
    },
    {
      "hash": "0x0d8dec5167e05d6b271b0dd018bf062e8047a6c61f9322b4afb63586e3c018c9",
      "transactionType": "CALL",
      "contractName": null,
      "contractAddress": "0x4d4adec97e3e11693f65dedc2d1e6bec784eb2f1",
      "function": "mint(address,uint256)",
      "arguments": [
        "0x861529c93D74a2d9b8d7d0009b7c183dceb54e3E",
        "10000333"
      ],
      "transaction": {
        "from": "0xd289d1387ae1033a703842d69501d5bec5a6f04e",
        "to": "0x4d4adec97e3e11693f65dedc2d1e6bec784eb2f1",
        "value": "0x0",
        "input": "0x40c10f19000000000000000000000000861529c93d74a2d9b8d7d0009b7c183dceb54e3e00000000000000000000000000000000000000000000000000000000009897cd",
        "nonce": "0x31",
        "chainId": "0x14d"
      },
      "additionalContracts": [],
      "isFixedGasLimit": false
    },
    {
      "hash": "0x46716b37a090c7580609d90a277c38f488662af8f3b8faa0c82c42ebefd0a566",
      "transactionType": "CALL",
      "contractName": null,
      "contractAddress": "0x8828fd7431d5bb1962d7e067c103b2324fa6bbec",
      "function": "pullFromReceiver((uint256,address,bool,bytes32,bytes32,uint256,address,address,(address,uint256,bytes)[],bytes))",
      "arguments": [
        "(222, 0x048255dfEF2eBFA7307058Ae475a3e2F5ee0df46, true, 0x805137159b1f1225efc7ae36f6b216b76c0e9bed085c4220b2f702fde8defd04, 0x38cb7bc9535f8b89744a14dd2acfe7dcc993eb5f668dfbcb95bdf21a839e2ec0, 10000333, 0x4D4aDEc97e3e11693F65dEDC2D1e6Bec784eB2F1, 0x4D4aDEc97e3e11693F65dEDC2D1e6Bec784eB2F1, [], 0x)"
      ],
      "transaction": {
        "from": "0xd289d1387ae1033a703842d69501d5bec5a6f04e",
        "to": "0x8828fd7431d5bb1962d7e067c103b2324fa6bbec",
        "value": "0x0",
        "input": "0x1ad1087b000000000000000000000000000000000000000000000000000000000000002000000000000000000000000000000000000000000000000000000000000000de000000000000000000000000048255dfef2ebfa7307058ae475a3e2f5ee0df460000000000000000000000000000000000000000000000000000000000000001805137159b1f1225efc7ae36f6b216b76c0e9bed085c4220b2f702fde8defd0438cb7bc9535f8b89744a14dd2acfe7dcc993eb5f668dfbcb95bdf21a839e2ec000000000000000000000000000000000000000000000000000000000009897cd0000000000000000000000004d4adec97e3e11693f65dedc2d1e6bec784eb2f10000000000000000000000004d4adec97e3e11693f65dedc2d1e6bec784eb2f10000000000000000000000000000000000000000000000000000000000000140000000000000000000000000000000000000000000000000000000000000016000000000000000000000000000000000000000000000000000000000000000000000000000000000000000000000000000000000000000000000000000000000",
        "nonce": "0x32",
        "chainId": "0x14d"
      },
      "additionalContracts": [],
      "isFixedGasLimit": false
    }
  ],
  "receipts": [
    {
      "status": "0x1",
      "cumulativeGasUsed": "0x52451",
      "logs": [],
      "logsBloom": "0x00000000000000000000000000000000000000000000000000000000000000000000000000000000000000000000000000000000000000000000000000000000000000000000000000000000000000000000000000000000000000000000000000000000000000000000000000000000000000000000000000000000000000000000000000000000000000000000000000000000000000000000000000000000000000000000000000000000000000000000000000000000000000000000000000000000000000000000000000000000000000000000000000000000000000000000000000000000000000000000000000000000000000000000000000000000",
      "type": "0x0",
      "transactionHash": "0x0bd00aafbb67c67bf0d7afc58065ef5a70ff3bcaa705d25ae06c399210b95d62",
      "transactionIndex": "0x0",
      "blockHash": "0x8b300f36c0ff727d040a3914081cf6aef86dd29268a18f74c87c52bb57e83e4c",
      "blockNumber": "0xd",
      "gasUsed": "0x52451",
      "effectiveGasPrice": "0x3b9aca00",
      "blobGasPrice": "0x1",
      "from": "0xd289d1387ae1033a703842d69501d5bec5a6f04e",
      "to": null,
      "contractAddress": "0x0be19c78706c441de4178a2266a650e47160eda7"
    },
    {
      "status": "0x1",
      "cumulativeGasUsed": "0xc546",
      "logs": [
        {
          "address": "0x8828fd7431d5bb1962d7e067c103b2324fa6bbec",
          "topics": [
            "0x14c028d3d668eb3454bce44d123ceeeb9fb4e74bee073c41f4001e63f0613094",
            "0x0000000000000000000000000be19c78706c441de4178a2266a650e47160eda7",
            "0x0000000000000000000000000be19c78706c441de4178a2266a650e47160eda7"
          ],
          "data": "0x",
          "blockHash": "0xce738a3ab60445de699952848dc8dad3766cf81d5abfd0a6c569470e579743f8",
          "blockNumber": "0xe",
          "blockTimestamp": "0x696675ab",
          "transactionHash": "0x9aa65cbff63a528b3f793efd281b1da51e6c122799e0dcf89cf4c57b275c98d6",
          "transactionIndex": "0x0",
          "logIndex": "0x0",
          "removed": false
        },
        {
          "address": "0x8828fd7431d5bb1962d7e067c103b2324fa6bbec",
          "topics": [
            "0x78160f0b1b2b32b52a0076d8f0f70888687ba702a4d993d55ac8d9327d57a127",
            "0x0000000000000000000000000000000000000000000000000000000000000004",
            "0xf44aa7391b92f263754f302d23d3a37602e5f335e30573fe5241feb4420c7656",
            "0x990bb2cb8a3a17f5fe96e221503b5860cd8b817024422b3a037f964c99420806"
          ],
          "data": "0x14c028d3d668eb3454bce44d123ceeeb9fb4e74bee073c41f4001e63f0613094000000000000000000000000000000000000000000000000000000000000004000000000000000000000000000000000000000000000000000000000000000400000000000000000000000000be19c78706c441de4178a2266a650e47160eda70000000000000000000000000be19c78706c441de4178a2266a650e47160eda7",
          "blockHash": "0xce738a3ab60445de699952848dc8dad3766cf81d5abfd0a6c569470e579743f8",
          "blockNumber": "0xe",
          "blockTimestamp": "0x696675ab",
          "transactionHash": "0x9aa65cbff63a528b3f793efd281b1da51e6c122799e0dcf89cf4c57b275c98d6",
          "transactionIndex": "0x0",
          "logIndex": "0x1",
          "removed": false
        }
      ],
      "logsBloom": "0x00000000000000000000000000000000000000000000000000020000000000000000000000000000000000000000000000000000000000000000000000200000000080800200000000000000000000000200000000000000000000000000000008000020000880000000000400000008000000000200000000000000000000000000000000000000000000000000000000000000000000000000000000000000000000000000000000000000000000000000100000000000002000000000000000000000000000040000000000000010000000008000000000000000000004000400000000000000000000000000000000000000000000000000000000004000",
      "type": "0x0",
      "transactionHash": "0x9aa65cbff63a528b3f793efd281b1da51e6c122799e0dcf89cf4c57b275c98d6",
      "transactionIndex": "0x0",
      "blockHash": "0xce738a3ab60445de699952848dc8dad3766cf81d5abfd0a6c569470e579743f8",
      "blockNumber": "0xe",
      "gasUsed": "0xc546",
      "effectiveGasPrice": "0x3b9aca00",
      "blobGasPrice": "0x1",
      "from": "0xd289d1387ae1033a703842d69501d5bec5a6f04e",
      "to": "0x8828fd7431d5bb1962d7e067c103b2324fa6bbec",
      "contractAddress": null
    },
    {
      "status": "0x1",
      "cumulativeGasUsed": "0x1f4cb",
      "logs": [],
      "logsBloom": "0x00000000000000000000000000000000000000000000000000000000000000000000000000000000000000000000000000000000000000000000000000000000000000000000000000000000000000000000000000000000000000000000000000000000000000000000000000000000000000000000000000000000000000000000000000000000000000000000000000000000000000000000000000000000000000000000000000000000000000000000000000000000000000000000000000000000000000000000000000000000000000000000000000000000000000000000000000000000000000000000000000000000000000000000000000000000",
      "type": "0x0",
      "transactionHash": "0xb9dcb1338c908c0674de52a2aeaea5fbe365295091a395696d56375f7a640d56",
      "transactionIndex": "0x0",
      "blockHash": "0xa02c440602a5dda6952202137a51a8ee931745b784a2d1665ec809d34b9665cc",
      "blockNumber": "0xf",
      "gasUsed": "0x1f4cb",
      "effectiveGasPrice": "0x3b9aca00",
      "blobGasPrice": "0x1",
      "from": "0xd289d1387ae1033a703842d69501d5bec5a6f04e",
      "to": null,
      "contractAddress": "0x481e836be187303c64f269bc7fe2c52f7f7c6eef"
    },
    {
      "status": "0x1",
      "cumulativeGasUsed": "0xaa2b",
      "logs": [],
      "logsBloom": "0x00000000000000000000000000000000000000000000000000000000000000000000000000000000000000000000000000000000000000000000000000000000000000000000000000000000000000000000000000000000000000000000000000000000000000000000000000000000000000000000000000000000000000000000000000000000000000000000000000000000000000000000000000000000000000000000000000000000000000000000000000000000000000000000000000000000000000000000000000000000000000000000000000000000000000000000000000000000000000000000000000000000000000000000000000000000",
      "type": "0x0",
      "transactionHash": "0xa2d30251956de9976b77663cf7ef3c88b3579fad96010a8c72180300080f5de7",
      "transactionIndex": "0x0",
      "blockHash": "0xa518b82528997621bd8b8460d800f60568f3c297d40a78fcee94bae45cd4a763",
      "blockNumber": "0x10",
      "gasUsed": "0xaa2b",
      "effectiveGasPrice": "0x3b9aca00",
      "blobGasPrice": "0x1",
      "from": "0xd289d1387ae1033a703842d69501d5bec5a6f04e",
      "to": "0x481e836be187303c64f269bc7fe2c52f7f7c6eef",
      "contractAddress": null
    },
    {
      "status": "0x1",
      "cumulativeGasUsed": "0xb23d",
      "logs": [
        {
          "address": "0x8828fd7431d5bb1962d7e067c103b2324fa6bbec",
          "topics": [
            "0x2e3d7d02ba3c4bd8b1f8995cd3a23ef0193922ebc4ee23249ead4d0ca2e34c68",
            "0x0000000000000000000000004d4adec97e3e11693f65dedc2d1e6bec784eb2f1",
            "0x000000000000000000000000481e836be187303c64f269bc7fe2c52f7f7c6eef"
          ],
          "data": "0x",
          "blockHash": "0x7f38957cba6df523e4cb7751493d114a2bde85c58439feace9439b5fb1483ab7",
          "blockNumber": "0x11",
          "blockTimestamp": "0x696675ae",
          "transactionHash": "0xf724177c1161a7e15a716e0acf18383f08aa68a5e83c51a24ad7b8974fec3761",
          "transactionIndex": "0x0",
          "logIndex": "0x0",
          "removed": false
        },
        {
          "address": "0x8828fd7431d5bb1962d7e067c103b2324fa6bbec",
          "topics": [
            "0x78160f0b1b2b32b52a0076d8f0f70888687ba702a4d993d55ac8d9327d57a127",
            "0x0000000000000000000000000000000000000000000000000000000000000005",
            "0x990bb2cb8a3a17f5fe96e221503b5860cd8b817024422b3a037f964c99420806",
            "0xa9d233236720f1bf5a80f2c387b9cf582b0ef0ea91885ff37a04529ff8e27fa3"
          ],
          "data": "0x2e3d7d02ba3c4bd8b1f8995cd3a23ef0193922ebc4ee23249ead4d0ca2e34c68000000000000000000000000000000000000000000000000000000000000004000000000000000000000000000000000000000000000000000000000000000400000000000000000000000004d4adec97e3e11693f65dedc2d1e6bec784eb2f1000000000000000000000000481e836be187303c64f269bc7fe2c52f7f7c6eef",
          "blockHash": "0x7f38957cba6df523e4cb7751493d114a2bde85c58439feace9439b5fb1483ab7",
          "blockNumber": "0x11",
          "blockTimestamp": "0x696675ae",
          "transactionHash": "0xf724177c1161a7e15a716e0acf18383f08aa68a5e83c51a24ad7b8974fec3761",
          "transactionIndex": "0x0",
          "logIndex": "0x1",
          "removed": false
        }
      ],
      "logsBloom": "0x00000000000000000000000000200000000000000000000000020000000000000000000000000000000000000000000000000000000000000400000000200000000010000200000000000000000000000008000020000000000000000000000000000020000880000000000000000008000000000000000082000000800000000000000000000080000000000000001000000800000000000000000000000000000000000000000000000000000000000000100000000000000000000000000000000000000008000000000000000000000000000000000000000000000001000000000000000000000000000080000000000000000400000000000000004000",
      "type": "0x0",
      "transactionHash": "0xf724177c1161a7e15a716e0acf18383f08aa68a5e83c51a24ad7b8974fec3761",
      "transactionIndex": "0x0",
      "blockHash": "0x7f38957cba6df523e4cb7751493d114a2bde85c58439feace9439b5fb1483ab7",
      "blockNumber": "0x11",
      "gasUsed": "0xb23d",
      "effectiveGasPrice": "0x3b9aca00",
      "blobGasPrice": "0x1",
      "from": "0xd289d1387ae1033a703842d69501d5bec5a6f04e",
      "to": "0x8828fd7431d5bb1962d7e067c103b2324fa6bbec",
      "contractAddress": null
    },
    {
      "status": "0x1",
      "cumulativeGasUsed": "0x147a0",
      "logs": [
        {
          "address": "0x048255dfef2ebfa7307058ae475a3e2f5ee0df46",
          "topics": [
            "0x9d4c3779a823aa84b20dd2e8551e6ed95addbc562f3bc49b1e688ab785b05d9d"
          ],
          "data": "0x0000000000000000000000000000000000000000000000000000000000002710000000000000000000000000000000000000000000000000000000000000007b",
          "blockHash": "0x99922a17250263733b905c0592ed18e75a9cd53436a1f98736703a45cfee7a2c",
          "blockNumber": "0x12",
          "blockTimestamp": "0x696675af",
          "transactionHash": "0xe1637935c59f388458161687b1ef7ccacd756684d52950d43fd1cf6735a96f1b",
          "transactionIndex": "0x0",
          "logIndex": "0x0",
          "removed": false
        },
        {
          "address": "0x048255dfef2ebfa7307058ae475a3e2f5ee0df46",
          "topics": [
            "0x78160f0b1b2b32b52a0076d8f0f70888687ba702a4d993d55ac8d9327d57a127",
            "0x0000000000000000000000000000000000000000000000000000000000000003",
            "0xd5f74e76bc10810da1c1a307eb6a36f6d085dc05f0bd56cd589b9203bcba9cb6",
            "0x87052e0d018f9a102c7197e1a281473f4776302150ed5e11d427630d32d493ce"
          ],
          "data": "0x9d4c3779a823aa84b20dd2e8551e6ed95addbc562f3bc49b1e688ab785b05d9d000000000000000000000000000000000000000000000000000000000000004000000000000000000000000000000000000000000000000000000000000000400000000000000000000000000000000000000000000000000000000000002710000000000000000000000000000000000000000000000000000000000000007b",
          "blockHash": "0x99922a17250263733b905c0592ed18e75a9cd53436a1f98736703a45cfee7a2c",
          "blockNumber": "0x12",
          "blockTimestamp": "0x696675af",
          "transactionHash": "0xe1637935c59f388458161687b1ef7ccacd756684d52950d43fd1cf6735a96f1b",
          "transactionIndex": "0x0",
          "logIndex": "0x1",
          "removed": false
        }
      ],
      "logsBloom": "0x00002000000000800000000000000000000000000000000000000000000800000000000000000000000000000000000000000002020000000000000000200000000000000000000000000000000000000000000000010000000000000000000000000020000800004000000000000000000000000000000000000000000000000000000000000000000000000000000000000000000000000000000000000000000000000000000000000000000080000000000200800000000000000000400000000000000000000800000000000000000000001200000000000000000000000000000000000000000000000000000000000000000000000000000000004000",
      "type": "0x0",
      "transactionHash": "0xe1637935c59f388458161687b1ef7ccacd756684d52950d43fd1cf6735a96f1b",
      "transactionIndex": "0x0",
      "blockHash": "0x99922a17250263733b905c0592ed18e75a9cd53436a1f98736703a45cfee7a2c",
      "blockNumber": "0x12",
      "gasUsed": "0x147a0",
      "effectiveGasPrice": "0x3b9aca00",
      "blobGasPrice": "0x1",
      "from": "0xd289d1387ae1033a703842d69501d5bec5a6f04e",
      "to": "0x048255dfef2ebfa7307058ae475a3e2f5ee0df46",
      "contractAddress": null
    },
    {
      "status": "0x1",
      "cumulativeGasUsed": "0x1f4cb",
      "logs": [],
      "logsBloom": "0x00000000000000000000000000000000000000000000000000000000000000000000000000000000000000000000000000000000000000000000000000000000000000000000000000000000000000000000000000000000000000000000000000000000000000000000000000000000000000000000000000000000000000000000000000000000000000000000000000000000000000000000000000000000000000000000000000000000000000000000000000000000000000000000000000000000000000000000000000000000000000000000000000000000000000000000000000000000000000000000000000000000000000000000000000000000",
      "type": "0x0",
      "transactionHash": "0x209b5ee5d897e109dfc958ee4bacd5b2991aaca81948db2cf3090c58b37f2dc2",
      "transactionIndex": "0x0",
      "blockHash": "0x9fe749e304ec5659fd64c112749fdae368052a220d109c7ea8fec9e259dbff53",
      "blockNumber": "0x13",
      "gasUsed": "0x1f4cb",
      "effectiveGasPrice": "0x3b9aca00",
      "blobGasPrice": "0x1",
      "from": "0xd289d1387ae1033a703842d69501d5bec5a6f04e",
      "to": null,
      "contractAddress": "0x6b0f32ae157cf4f7d9b402c4e243e9088207dd87"
    },
    {
      "status": "0x1",
      "cumulativeGasUsed": "0xaa2b",
      "logs": [],
      "logsBloom": "0x00000000000000000000000000000000000000000000000000000000000000000000000000000000000000000000000000000000000000000000000000000000000000000000000000000000000000000000000000000000000000000000000000000000000000000000000000000000000000000000000000000000000000000000000000000000000000000000000000000000000000000000000000000000000000000000000000000000000000000000000000000000000000000000000000000000000000000000000000000000000000000000000000000000000000000000000000000000000000000000000000000000000000000000000000000000",
      "type": "0x0",
      "transactionHash": "0x401604e058bfa88a55dced171ce64a920f2201f77fde49f210f234c9c1e1725c",
      "transactionIndex": "0x0",
      "blockHash": "0x7dfbfd278269649492dd11573bc86346163811df213d854bd6f6bb7354ecd576",
      "blockNumber": "0x14",
      "gasUsed": "0xaa2b",
      "effectiveGasPrice": "0x3b9aca00",
      "blobGasPrice": "0x1",
      "from": "0xd289d1387ae1033a703842d69501d5bec5a6f04e",
      "to": "0x6b0f32ae157cf4f7d9b402c4e243e9088207dd87",
      "contractAddress": null
    },
    {
      "status": "0x1",
      "cumulativeGasUsed": "0xb23d",
      "logs": [
        {
          "address": "0x8828fd7431d5bb1962d7e067c103b2324fa6bbec",
          "topics": [
            "0x2e3d7d02ba3c4bd8b1f8995cd3a23ef0193922ebc4ee23249ead4d0ca2e34c68",
            "0x0000000000000000000000004d4adec97e3e11693f65dedc2d1e6bec784eb2f1",
            "0x0000000000000000000000006b0f32ae157cf4f7d9b402c4e243e9088207dd87"
          ],
          "data": "0x",
          "blockHash": "0xb4654ba403415c48f8e53eb0f9e57f04d0e279ebd3e05adf236a807d61e23c6f",
          "blockNumber": "0x15",
          "blockTimestamp": "0x696675b2",
          "transactionHash": "0x2fde58b6f721adf32041ecee797eba3d651b5f8e568b73c8d55e755322ae8319",
          "transactionIndex": "0x0",
          "logIndex": "0x0",
          "removed": false
        },
        {
          "address": "0x8828fd7431d5bb1962d7e067c103b2324fa6bbec",
          "topics": [
            "0x78160f0b1b2b32b52a0076d8f0f70888687ba702a4d993d55ac8d9327d57a127",
            "0x0000000000000000000000000000000000000000000000000000000000000006",
            "0xa9d233236720f1bf5a80f2c387b9cf582b0ef0ea91885ff37a04529ff8e27fa3",
            "0x5a39ce3b5338748d6e9d43febb234355e3c542085e2451914b6d95d8dcda8d41"
          ],
          "data": "0x2e3d7d02ba3c4bd8b1f8995cd3a23ef0193922ebc4ee23249ead4d0ca2e34c68000000000000000000000000000000000000000000000000000000000000004000000000000000000000000000000000000000000000000000000000000000400000000000000000000000004d4adec97e3e11693f65dedc2d1e6bec784eb2f10000000000000000000000006b0f32ae157cf4f7d9b402c4e243e9088207dd87",
          "blockHash": "0xb4654ba403415c48f8e53eb0f9e57f04d0e279ebd3e05adf236a807d61e23c6f",
          "blockNumber": "0x15",
          "blockTimestamp": "0x696675b2",
          "transactionHash": "0x2fde58b6f721adf32041ecee797eba3d651b5f8e568b73c8d55e755322ae8319",
          "transactionIndex": "0x0",
          "logIndex": "0x1",
          "removed": false
        }
      ],
      "logsBloom": "0x00000000000000000000000000200000000000000000000000000000000000000000000000000000400000000000000000000001000400000000000000200000000000000200000000000000000004000000000000000000000000000000000000000020000800000000000000000008000000000000000082000000800000000000000400000080000000000000000000000000000000000000000000000000000001000000000000000000000000000000000000000000000000080080000000000000000008000000000000000000000000000000000000000000000001000000000000000000000000000080000000000000000400000000020000004000",
      "type": "0x0",
      "transactionHash": "0x2fde58b6f721adf32041ecee797eba3d651b5f8e568b73c8d55e755322ae8319",
      "transactionIndex": "0x0",
      "blockHash": "0xb4654ba403415c48f8e53eb0f9e57f04d0e279ebd3e05adf236a807d61e23c6f",
      "blockNumber": "0x15",
      "gasUsed": "0xb23d",
      "effectiveGasPrice": "0x3b9aca00",
      "blobGasPrice": "0x1",
      "from": "0xd289d1387ae1033a703842d69501d5bec5a6f04e",
      "to": "0x8828fd7431d5bb1962d7e067c103b2324fa6bbec",
      "contractAddress": null
    },
    {
      "status": "0x1",
      "cumulativeGasUsed": "0x50fb6",
      "logs": [],
      "logsBloom": "0x00000000000000000000000000000000000000000000000000000000000000000000000000000000000000000000000000000000000000000000000000000000000000000000000000000000000000000000000000000000000000000000000000000000000000000000000000000000000000000000000000000000000000000000000000000000000000000000000000000000000000000000000000000000000000000000000000000000000000000000000000000000000000000000000000000000000000000000000000000000000000000000000000000000000000000000000000000000000000000000000000000000000000000000000000000000",
      "type": "0x0",
      "transactionHash": "0x049742a1cabc77723bf21a7a074bf850c642f851372bc230fe2f10ed90bed8d4",
      "transactionIndex": "0x0",
      "blockHash": "0xf3bf18224c9148bb1b110e22b46e5bb00991fc9e5e2037cd6bc117833c0e7b5f",
      "blockNumber": "0x16",
      "gasUsed": "0x50fb6",
      "effectiveGasPrice": "0x3b9aca00",
      "blobGasPrice": "0x1",
      "from": "0xd289d1387ae1033a703842d69501d5bec5a6f04e",
      "to": null,
      "contractAddress": "0xc5ea444a0f556f5b227ec7447294d91086bb692c"
    },
    {
      "status": "0x1",
      "cumulativeGasUsed": "0xc546",
      "logs": [
        {
          "address": "0x8828fd7431d5bb1962d7e067c103b2324fa6bbec",
          "topics": [
            "0x14c028d3d668eb3454bce44d123ceeeb9fb4e74bee073c41f4001e63f0613094",
            "0x000000000000000000000000c5ea444a0f556f5b227ec7447294d91086bb692c",
            "0x000000000000000000000000c5ea444a0f556f5b227ec7447294d91086bb692c"
          ],
          "data": "0x",
          "blockHash": "0x8624c116b764b4ba03ad180a1076f7fec1e9ddfa2cc1cb4e470e453048583062",
          "blockNumber": "0x17",
          "blockTimestamp": "0x696675b4",
          "transactionHash": "0xd77f69c0220e9c917abac00f67b0be3357dfb3fa94fb7244724ebf00b6163ab5",
          "transactionIndex": "0x0",
          "logIndex": "0x0",
          "removed": false
        },
        {
          "address": "0x8828fd7431d5bb1962d7e067c103b2324fa6bbec",
          "topics": [
            "0x78160f0b1b2b32b52a0076d8f0f70888687ba702a4d993d55ac8d9327d57a127",
            "0x0000000000000000000000000000000000000000000000000000000000000007",
            "0x5a39ce3b5338748d6e9d43febb234355e3c542085e2451914b6d95d8dcda8d41",
            "0xba8874590bb5ca8e6b697e03a0723113310c4c8bfcefeba36e6d903682b23796"
          ],
          "data": "0x14c028d3d668eb3454bce44d123ceeeb9fb4e74bee073c41f4001e63f061309400000000000000000000000000000000000000000000000000000000000000400000000000000000000000000000000000000000000000000000000000000040000000000000000000000000c5ea444a0f556f5b227ec7447294d91086bb692c000000000000000000000000c5ea444a0f556f5b227ec7447294d91086bb692c",
          "blockHash": "0x8624c116b764b4ba03ad180a1076f7fec1e9ddfa2cc1cb4e470e453048583062",
          "blockNumber": "0x17",
          "blockTimestamp": "0x696675b4",
          "transactionHash": "0xd77f69c0220e9c917abac00f67b0be3357dfb3fa94fb7244724ebf00b6163ab5",
          "transactionIndex": "0x0",
          "logIndex": "0x1",
          "removed": false
        }
      ],
      "logsBloom": "0x00000000000000000000000000000000000000000000000000000000000000000000000008000000400000000000000000001001000000000000000000200000000020001200000001080000000000000000000000000000000000100000000000000020000800000000000000000008000000000000000000000000000000000000000000000000000000000000000000000000000000000000000000000000000000000000000000000000000000000000000000000000000000000000000000000000000000040000000000000010000000000000000000000100000000000400000000000000000000000000000000000000000000000000020400004000",
      "type": "0x0",
      "transactionHash": "0xd77f69c0220e9c917abac00f67b0be3357dfb3fa94fb7244724ebf00b6163ab5",
      "transactionIndex": "0x0",
      "blockHash": "0x8624c116b764b4ba03ad180a1076f7fec1e9ddfa2cc1cb4e470e453048583062",
      "blockNumber": "0x17",
      "gasUsed": "0xc546",
      "effectiveGasPrice": "0x3b9aca00",
      "blobGasPrice": "0x1",
      "from": "0xd289d1387ae1033a703842d69501d5bec5a6f04e",
      "to": "0x8828fd7431d5bb1962d7e067c103b2324fa6bbec",
      "contractAddress": null
    },
    {
      "status": "0x1",
      "cumulativeGasUsed": "0xac6c",
      "logs": [],
      "logsBloom": "0x00000000000000000000000000000000000000000000000000000000000000000000000000000000000000000000000000000000000000000000000000000000000000000000000000000000000000000000000000000000000000000000000000000000000000000000000000000000000000000000000000000000000000000000000000000000000000000000000000000000000000000000000000000000000000000000000000000000000000000000000000000000000000000000000000000000000000000000000000000000000000000000000000000000000000000000000000000000000000000000000000000000000000000000000000000000",
      "type": "0x0",
      "transactionHash": "0x4df0fe94c202468901b9316d1bb846761fd4a00a6c75fe821afa7a0bf04aa896",
      "transactionIndex": "0x0",
      "blockHash": "0x6464fb133e44d25294f6ccf30553fe1e29264ae18d70328af2b4c8dca91d9802",
      "blockNumber": "0x18",
      "gasUsed": "0xac6c",
      "effectiveGasPrice": "0x3b9aca00",
      "blobGasPrice": "0x1",
      "from": "0xd289d1387ae1033a703842d69501d5bec5a6f04e",
      "to": "0x4d4adec97e3e11693f65dedc2d1e6bec784eb2f1",
      "contractAddress": null
    },
    {
      "status": "0x1",
      "cumulativeGasUsed": "0x30390",
      "logs": [
        {
          "address": "0x8828fd7431d5bb1962d7e067c103b2324fa6bbec",
          "topics": [
            "0x7391f14355eff1e559e381f5bf49886a77da7c4fdd33c6fc2e0142269c561c59",
            "0x2eca69742163858d1db9adc288336919f87c2626936291b6f1311977c7800ed8",
            "0x8856e936a3cdfae958688c88129a96d47c3c0d2ae8313ffbaab6d66489e00174",
            "0x0000000000000000000000000000000000000000000000000000000000000001"
          ],
          "data": "0x0000000000000000000000000000000000000000000000000000000000000000000000000000000000000000000000000000000000000000000000000000014d000000000000000000000000d59d27b9172ad056cb5c008dc2bbefe702123a55000000000000000000000000000000000000000000000000000000000000000000000000000000000000000000000000000000000000000000000000000000000000000000000000000000004d4adec97e3e11693f65dedc2d1e6bec784eb2f10000000000000000000000004d4adec97e3e11693f65dedc2d1e6bec784eb2f1000000000000000000000000ed87227a182e5a8fc74b1d40d80db6208741c435000000000000000000000000ad37e25f58e986e1672e95d23b331a90554a72d5",
          "blockHash": "0xe4c6effefe8d6e789be8b699913e442d9086bcd3a0ee66c918c59bcc7412e1f5",
          "blockNumber": "0x19",
          "blockTimestamp": "0x696675b6",
          "transactionHash": "0x891413bda4f1988031044ccaaf836f37e6ec733847357bfe573d6d0e34ffb85f",
          "transactionIndex": "0x0",
          "logIndex": "0x0",
          "removed": false
        },
        {
          "address": "0x8828fd7431d5bb1962d7e067c103b2324fa6bbec",
          "topics": [
            "0x78160f0b1b2b32b52a0076d8f0f70888687ba702a4d993d55ac8d9327d57a127",
            "0x0000000000000000000000000000000000000000000000000000000000000008",
            "0xba8874590bb5ca8e6b697e03a0723113310c4c8bfcefeba36e6d903682b23796",
            "0x2d5ee2d5c9109511898bbd42d9a1f010543d8b299fb42b7ce8ac73a4a596b955"
          ],
          "data": "0x7391f14355eff1e559e381f5bf49886a77da7c4fdd33c6fc2e0142269c561c59000000000000000000000000000000000000000000000000000000000000004000000000000000000000000000000000000000000000000000000000000001802eca69742163858d1db9adc288336919f87c2626936291b6f1311977c7800ed88856e936a3cdfae958688c88129a96d47c3c0d2ae8313ffbaab6d66489e0017400000000000000000000000000000000000000000000000000000000000000010000000000000000000000000000000000000000000000000000000000000000000000000000000000000000000000000000000000000000000000000000014d000000000000000000000000d59d27b9172ad056cb5c008dc2bbefe702123a55000000000000000000000000000000000000000000000000000000000000000000000000000000000000000000000000000000000000000000000000000000000000000000000000000000004d4adec97e3e11693f65dedc2d1e6bec784eb2f10000000000000000000000004d4adec97e3e11693f65dedc2d1e6bec784eb2f1000000000000000000000000ed87227a182e5a8fc74b1d40d80db6208741c435000000000000000000000000ad37e25f58e986e1672e95d23b331a90554a72d5",
          "blockHash": "0xe4c6effefe8d6e789be8b699913e442d9086bcd3a0ee66c918c59bcc7412e1f5",
          "blockNumber": "0x19",
          "blockTimestamp": "0x696675b6",
          "transactionHash": "0x891413bda4f1988031044ccaaf836f37e6ec733847357bfe573d6d0e34ffb85f",
          "transactionIndex": "0x0",
          "logIndex": "0x1",
          "removed": false
        },
        {
          "address": "0x8828fd7431d5bb1962d7e067c103b2324fa6bbec",
          "topics": [
            "0x488f06a9ca9e19e1dd90c764cc79b765e8a3a089ef27d9a0e39dee21c7643188",
            "0x78a874d51ba6291372c95de59089ea611c00921ec5e2c816f77aba409c60230e",
            "0x000000000000000000000000ad37e25f58e986e1672e95d23b331a90554a72d5"
          ],
          "data": "0x000000000000000000000000e007a594267d5b9a4f5bf6fd054579eb82f5a057",
          "blockHash": "0xe4c6effefe8d6e789be8b699913e442d9086bcd3a0ee66c918c59bcc7412e1f5",
          "blockNumber": "0x19",
          "blockTimestamp": "0x696675b6",
          "transactionHash": "0x891413bda4f1988031044ccaaf836f37e6ec733847357bfe573d6d0e34ffb85f",
          "transactionIndex": "0x0",
          "logIndex": "0x2",
          "removed": false
        },
        {
          "address": "0x8828fd7431d5bb1962d7e067c103b2324fa6bbec",
          "topics": [
            "0x78160f0b1b2b32b52a0076d8f0f70888687ba702a4d993d55ac8d9327d57a127",
            "0x0000000000000000000000000000000000000000000000000000000000000009",
            "0x2d5ee2d5c9109511898bbd42d9a1f010543d8b299fb42b7ce8ac73a4a596b955",
            "0xf85b4895a98788f44efa54f27055f94e26d557b9f5abe9e4e20650fac88ed4df"
          ],
          "data": "0x488f06a9ca9e19e1dd90c764cc79b765e8a3a089ef27d9a0e39dee21c76431880000000000000000000000000000000000000000000000000000000000000040000000000000000000000000000000000000000000000000000000000000006078a874d51ba6291372c95de59089ea611c00921ec5e2c816f77aba409c60230e000000000000000000000000ad37e25f58e986e1672e95d23b331a90554a72d5000000000000000000000000e007a594267d5b9a4f5bf6fd054579eb82f5a057",
          "blockHash": "0xe4c6effefe8d6e789be8b699913e442d9086bcd3a0ee66c918c59bcc7412e1f5",
          "blockNumber": "0x19",
          "blockTimestamp": "0x696675b6",
          "transactionHash": "0x891413bda4f1988031044ccaaf836f37e6ec733847357bfe573d6d0e34ffb85f",
          "transactionIndex": "0x0",
          "logIndex": "0x3",
          "removed": false
        },
        {
          "address": "0x8828fd7431d5bb1962d7e067c103b2324fa6bbec",
          "topics": [
            "0x488f06a9ca9e19e1dd90c764cc79b765e8a3a089ef27d9a0e39dee21c7643188",
            "0x8856e936a3cdfae958688c88129a96d47c3c0d2ae8313ffbaab6d66489e00174",
            "0x000000000000000000000000ed87227a182e5a8fc74b1d40d80db6208741c435"
          ],
          "data": "0x000000000000000000000000e007a594267d5b9a4f5bf6fd054579eb82f5a057",
          "blockHash": "0xe4c6effefe8d6e789be8b699913e442d9086bcd3a0ee66c918c59bcc7412e1f5",
          "blockNumber": "0x19",
          "blockTimestamp": "0x696675b6",
          "transactionHash": "0x891413bda4f1988031044ccaaf836f37e6ec733847357bfe573d6d0e34ffb85f",
          "transactionIndex": "0x0",
          "logIndex": "0x4",
          "removed": false
        },
        {
          "address": "0x8828fd7431d5bb1962d7e067c103b2324fa6bbec",
          "topics": [
            "0x78160f0b1b2b32b52a0076d8f0f70888687ba702a4d993d55ac8d9327d57a127",
            "0x000000000000000000000000000000000000000000000000000000000000000a",
            "0xf85b4895a98788f44efa54f27055f94e26d557b9f5abe9e4e20650fac88ed4df",
            "0x25e323d80dc3a9cc38c95e3ce70218f5664f4db5b2732fbf0aa691df8b461bc6"
          ],
          "data": "0x488f06a9ca9e19e1dd90c764cc79b765e8a3a089ef27d9a0e39dee21c7643188000000000000000000000000000000000000000000000000000000000000004000000000000000000000000000000000000000000000000000000000000000608856e936a3cdfae958688c88129a96d47c3c0d2ae8313ffbaab6d66489e00174000000000000000000000000ed87227a182e5a8fc74b1d40d80db6208741c435000000000000000000000000e007a594267d5b9a4f5bf6fd054579eb82f5a057",
          "blockHash": "0xe4c6effefe8d6e789be8b699913e442d9086bcd3a0ee66c918c59bcc7412e1f5",
          "blockNumber": "0x19",
          "blockTimestamp": "0x696675b6",
          "transactionHash": "0x891413bda4f1988031044ccaaf836f37e6ec733847357bfe573d6d0e34ffb85f",
          "transactionIndex": "0x0",
          "logIndex": "0x5",
          "removed": false
        },
        {
          "address": "0x8828fd7431d5bb1962d7e067c103b2324fa6bbec",
          "topics": [
            "0x2e659081f44c4f56a18b00f3f9d136d7ee8396bc79163c4d61363ddcf4a4cb27",
            "0x2eca69742163858d1db9adc288336919f87c2626936291b6f1311977c7800ed8"
          ],
          "data": "0x0000000000000000000000000000000000000000000000000000000000000000000000000000000000000000000000000000000000000000000000000754d4c0000000000000000000000000000000000000000000000000000000000754d4c000000000000000000000000000000000000000000000000000000000000000000000000000000000000000000000000000000000000000000000000000000000000000000000000000000000000000000000000000000000000000000000000100000000000000000000000000000000000000000000000000000000000000000000000000000000000000000000000000000000000000000000000000000000c5d2460186f7233c927e7db2dcc703c0e500b653ca82273b7bfad8045d85a470",
          "blockHash": "0xe4c6effefe8d6e789be8b699913e442d9086bcd3a0ee66c918c59bcc7412e1f5",
          "blockNumber": "0x19",
          "blockTimestamp": "0x696675b6",
          "transactionHash": "0x891413bda4f1988031044ccaaf836f37e6ec733847357bfe573d6d0e34ffb85f",
          "transactionIndex": "0x0",
          "logIndex": "0x6",
          "removed": false
        },
        {
          "address": "0x8828fd7431d5bb1962d7e067c103b2324fa6bbec",
          "topics": [
            "0x78160f0b1b2b32b52a0076d8f0f70888687ba702a4d993d55ac8d9327d57a127",
            "0x000000000000000000000000000000000000000000000000000000000000000b",
            "0x25e323d80dc3a9cc38c95e3ce70218f5664f4db5b2732fbf0aa691df8b461bc6",
            "0x23cef645997b062c3d919ba156e8d05ffb033857d6eec30616fa42c4ebf34456"
          ],
          "data": "0x2e659081f44c4f56a18b00f3f9d136d7ee8396bc79163c4d61363ddcf4a4cb27000000000000000000000000000000000000000000000000000000000000004000000000000000000000000000000000000000000000000000000000000001402eca69742163858d1db9adc288336919f87c2626936291b6f1311977c7800ed80000000000000000000000000000000000000000000000000000000000000000000000000000000000000000000000000000000000000000000000000754d4c0000000000000000000000000000000000000000000000000000000000754d4c000000000000000000000000000000000000000000000000000000000000000000000000000000000000000000000000000000000000000000000000000000000000000000000000000000000000000000000000000000000000000000000000100000000000000000000000000000000000000000000000000000000000000000000000000000000000000000000000000000000000000000000000000000000c5d2460186f7233c927e7db2dcc703c0e500b653ca82273b7bfad8045d85a470",
          "blockHash": "0xe4c6effefe8d6e789be8b699913e442d9086bcd3a0ee66c918c59bcc7412e1f5",
          "blockNumber": "0x19",
          "blockTimestamp": "0x696675b6",
          "transactionHash": "0x891413bda4f1988031044ccaaf836f37e6ec733847357bfe573d6d0e34ffb85f",
          "transactionIndex": "0x0",
          "logIndex": "0x7",
          "removed": false
        }
      ],
      "logsBloom": "0x0000000101000000000000400000000000000040080000000000000000000000000000000800000000000100000000000000000004008000002000000024000000008000120100000008000000010080000000000004000008000000000000000000002000080001000000080000000a0000000000000000000020000002200000800000000000200100000000000004000010400000000800000001000000000000048020004000000000000000000000020000100000000001000000000000400000000000000000000000000000000020000000000004000200000000c0000000000000000000000000000000000100040000000400040000000000804000",
      "type": "0x0",
      "transactionHash": "0x891413bda4f1988031044ccaaf836f37e6ec733847357bfe573d6d0e34ffb85f",
      "transactionIndex": "0x0",
      "blockHash": "0xe4c6effefe8d6e789be8b699913e442d9086bcd3a0ee66c918c59bcc7412e1f5",
      "blockNumber": "0x19",
      "gasUsed": "0x30390",
      "effectiveGasPrice": "0x3b9aca00",
      "blobGasPrice": "0x1",
      "from": "0xd289d1387ae1033a703842d69501d5bec5a6f04e",
      "to": "0x8828fd7431d5bb1962d7e067c103b2324fa6bbec",
      "contractAddress": null
    },
    {
      "status": "0x1",
      "cumulativeGasUsed": "0xac60",
      "logs": [],
      "logsBloom": "0x00000000000000000000000000000000000000000000000000000000000000000000000000000000000000000000000000000000000000000000000000000000000000000000000000000000000000000000000000000000000000000000000000000000000000000000000000000000000000000000000000000000000000000000000000000000000000000000000000000000000000000000000000000000000000000000000000000000000000000000000000000000000000000000000000000000000000000000000000000000000000000000000000000000000000000000000000000000000000000000000000000000000000000000000000000000",
      "type": "0x0",
      "transactionHash": "0x69f070f5563bca8333368fbdf915569ce367bb972188576858f828a52beed83f",
      "transactionIndex": "0x0",
      "blockHash": "0x6aa9f4c0279775165d62c9e71e3063aa10b120a39dd2130436b7e2f38048b55c",
      "blockNumber": "0x1a",
      "gasUsed": "0xac60",
      "effectiveGasPrice": "0x3b9aca00",
      "blobGasPrice": "0x1",
      "from": "0xd289d1387ae1033a703842d69501d5bec5a6f04e",
      "to": "0x4d4adec97e3e11693f65dedc2d1e6bec784eb2f1",
      "contractAddress": null
    },
    {
      "status": "0x1",
      "cumulativeGasUsed": "0x3df0a",
      "logs": [
        {
          "address": "0x8828fd7431d5bb1962d7e067c103b2324fa6bbec",
          "topics": [
            "0x7391f14355eff1e559e381f5bf49886a77da7c4fdd33c6fc2e0142269c561c59",
            "0x84769369b2ccc797d45e690e43c16706681366804ad95c0c83787b6c1cdf0bc4",
            "0x8856e936a3cdfae958688c88129a96d47c3c0d2ae8313ffbaab6d66489e00174",
            "0x0000000000000000000000000000000000000000000000000000000000000002"
          ],
          "data": "0x0000000000000000000000000000000000000000000000000000000000000000000000000000000000000000000000000000000000000000000000000000014d000000000000000000000000d59d27b9172ad056cb5c008dc2bbefe702123a55000000000000000000000000000000000000000000000000000000000000000000000000000000000000000000000000000000000000000000000000000000000000000000000000000000004d4adec97e3e11693f65dedc2d1e6bec784eb2f1000000000000000000000000f86c23c1e883ee3b820fb9be75ff91c9a49eae75000000000000000000000000ed87227a182e5a8fc74b1d40d80db6208741c4350000000000000000000000008cfa8767685352692f92589f7370b558d9896abf",
          "blockHash": "0x9896e7dbf5a53d7b055c65ba056a24f74648479dd312c4daba004d193bafbb3e",
          "blockNumber": "0x1b",
          "blockTimestamp": "0x696675b8",
          "transactionHash": "0x27599f162bb8b14fad8b0f9ac38214c1ab979c22769bbeeb328528526a2604df",
          "transactionIndex": "0x0",
          "logIndex": "0x0",
          "removed": false
        },
        {
          "address": "0x8828fd7431d5bb1962d7e067c103b2324fa6bbec",
          "topics": [
            "0x78160f0b1b2b32b52a0076d8f0f70888687ba702a4d993d55ac8d9327d57a127",
            "0x000000000000000000000000000000000000000000000000000000000000000c",
            "0x23cef645997b062c3d919ba156e8d05ffb033857d6eec30616fa42c4ebf34456",
            "0x90b07da77aed4ef89c756485c9063101d20eedae2372535db48cd872ac91f9b6"
          ],
          "data": "0x7391f14355eff1e559e381f5bf49886a77da7c4fdd33c6fc2e0142269c561c590000000000000000000000000000000000000000000000000000000000000040000000000000000000000000000000000000000000000000000000000000018084769369b2ccc797d45e690e43c16706681366804ad95c0c83787b6c1cdf0bc48856e936a3cdfae958688c88129a96d47c3c0d2ae8313ffbaab6d66489e0017400000000000000000000000000000000000000000000000000000000000000020000000000000000000000000000000000000000000000000000000000000000000000000000000000000000000000000000000000000000000000000000014d000000000000000000000000d59d27b9172ad056cb5c008dc2bbefe702123a55000000000000000000000000000000000000000000000000000000000000000000000000000000000000000000000000000000000000000000000000000000000000000000000000000000004d4adec97e3e11693f65dedc2d1e6bec784eb2f1000000000000000000000000f86c23c1e883ee3b820fb9be75ff91c9a49eae75000000000000000000000000ed87227a182e5a8fc74b1d40d80db6208741c4350000000000000000000000008cfa8767685352692f92589f7370b558d9896abf",
          "blockHash": "0x9896e7dbf5a53d7b055c65ba056a24f74648479dd312c4daba004d193bafbb3e",
          "blockNumber": "0x1b",
          "blockTimestamp": "0x696675b8",
          "transactionHash": "0x27599f162bb8b14fad8b0f9ac38214c1ab979c22769bbeeb328528526a2604df",
          "transactionIndex": "0x0",
          "logIndex": "0x1",
          "removed": false
        },
        {
          "address": "0x8828fd7431d5bb1962d7e067c103b2324fa6bbec",
          "topics": [
            "0x488f06a9ca9e19e1dd90c764cc79b765e8a3a089ef27d9a0e39dee21c7643188",
            "0x3e1c428ad1108116564831377d59e16f10ba20cd640960f08674c072311f8b0d",
            "0x0000000000000000000000008cfa8767685352692f92589f7370b558d9896abf"
          ],
          "data": "0x000000000000000000000000e007a594267d5b9a4f5bf6fd054579eb82f5a057",
          "blockHash": "0x9896e7dbf5a53d7b055c65ba056a24f74648479dd312c4daba004d193bafbb3e",
          "blockNumber": "0x1b",
          "blockTimestamp": "0x696675b8",
          "transactionHash": "0x27599f162bb8b14fad8b0f9ac38214c1ab979c22769bbeeb328528526a2604df",
          "transactionIndex": "0x0",
          "logIndex": "0x2",
          "removed": false
        },
        {
          "address": "0x8828fd7431d5bb1962d7e067c103b2324fa6bbec",
          "topics": [
            "0x78160f0b1b2b32b52a0076d8f0f70888687ba702a4d993d55ac8d9327d57a127",
            "0x000000000000000000000000000000000000000000000000000000000000000d",
            "0x90b07da77aed4ef89c756485c9063101d20eedae2372535db48cd872ac91f9b6",
            "0x243784639857e9347ce783185ee16ebc4fc8c2e0ff68c66090110c3d16b7da2e"
          ],
          "data": "0x488f06a9ca9e19e1dd90c764cc79b765e8a3a089ef27d9a0e39dee21c7643188000000000000000000000000000000000000000000000000000000000000004000000000000000000000000000000000000000000000000000000000000000603e1c428ad1108116564831377d59e16f10ba20cd640960f08674c072311f8b0d0000000000000000000000008cfa8767685352692f92589f7370b558d9896abf000000000000000000000000e007a594267d5b9a4f5bf6fd054579eb82f5a057",
          "blockHash": "0x9896e7dbf5a53d7b055c65ba056a24f74648479dd312c4daba004d193bafbb3e",
          "blockNumber": "0x1b",
          "blockTimestamp": "0x696675b8",
          "transactionHash": "0x27599f162bb8b14fad8b0f9ac38214c1ab979c22769bbeeb328528526a2604df",
          "transactionIndex": "0x0",
          "logIndex": "0x3",
          "removed": false
        },
        {
          "address": "0x8828fd7431d5bb1962d7e067c103b2324fa6bbec",
          "topics": [
            "0x2f4c76c8d18f45069b0941499205a7fceaaa3caf9e2e6328f6a544cd339120f3",
            "0x84769369b2ccc797d45e690e43c16706681366804ad95c0c83787b6c1cdf0bc4",
            "0x0000000000000000000000004d4adec97e3e11693f65dedc2d1e6bec784eb2f1",
            "0x000000000000000000000000f86c23c1e883ee3b820fb9be75ff91c9a49eae75"
          ],
          "data": "0x00000000000000000000000000000000000000000000000000000000055d4a800000000000000000000000000000000000000000000000000000000005f5e100",
          "blockHash": "0x9896e7dbf5a53d7b055c65ba056a24f74648479dd312c4daba004d193bafbb3e",
          "blockNumber": "0x1b",
          "blockTimestamp": "0x696675b8",
          "transactionHash": "0x27599f162bb8b14fad8b0f9ac38214c1ab979c22769bbeeb328528526a2604df",
          "transactionIndex": "0x0",
          "logIndex": "0x4",
          "removed": false
        },
        {
          "address": "0x8828fd7431d5bb1962d7e067c103b2324fa6bbec",
          "topics": [
            "0x78160f0b1b2b32b52a0076d8f0f70888687ba702a4d993d55ac8d9327d57a127",
            "0x000000000000000000000000000000000000000000000000000000000000000e",
            "0x243784639857e9347ce783185ee16ebc4fc8c2e0ff68c66090110c3d16b7da2e",
            "0xe1f6be6e9a4302086c174f181c8be8882dca5f545142b064028127a41271bdcb"
          ],
          "data": "0x2f4c76c8d18f45069b0941499205a7fceaaa3caf9e2e6328f6a544cd339120f3000000000000000000000000000000000000000000000000000000000000004000000000000000000000000000000000000000000000000000000000000000a084769369b2ccc797d45e690e43c16706681366804ad95c0c83787b6c1cdf0bc40000000000000000000000004d4adec97e3e11693f65dedc2d1e6bec784eb2f1000000000000000000000000f86c23c1e883ee3b820fb9be75ff91c9a49eae7500000000000000000000000000000000000000000000000000000000055d4a800000000000000000000000000000000000000000000000000000000005f5e100",
          "blockHash": "0x9896e7dbf5a53d7b055c65ba056a24f74648479dd312c4daba004d193bafbb3e",
          "blockNumber": "0x1b",
          "blockTimestamp": "0x696675b8",
          "transactionHash": "0x27599f162bb8b14fad8b0f9ac38214c1ab979c22769bbeeb328528526a2604df",
          "transactionIndex": "0x0",
          "logIndex": "0x5",
          "removed": false
        },
        {
          "address": "0x8828fd7431d5bb1962d7e067c103b2324fa6bbec",
          "topics": [
            "0x2e659081f44c4f56a18b00f3f9d136d7ee8396bc79163c4d61363ddcf4a4cb27",
            "0x84769369b2ccc797d45e690e43c16706681366804ad95c0c83787b6c1cdf0bc4"
          ],
          "data": "0x00000000000000000000000000000000000000000000000000000000000000000000000000000000000000000000000000000000000000000000000005f5e10000000000000000000000000000000000000000000000000000000000055d4a8000000000000000000000000000000000000000000000000000000000009896800000000000000000000000000000000000000000000000000000000000000000000000000000000000000000000000000000000000000000000000000000000100000000000000000000000000000000000000000000000000000000000000000000000000000000000000000000000000000000000000000000000000000000c5d2460186f7233c927e7db2dcc703c0e500b653ca82273b7bfad8045d85a470",
          "blockHash": "0x9896e7dbf5a53d7b055c65ba056a24f74648479dd312c4daba004d193bafbb3e",
          "blockNumber": "0x1b",
          "blockTimestamp": "0x696675b8",
          "transactionHash": "0x27599f162bb8b14fad8b0f9ac38214c1ab979c22769bbeeb328528526a2604df",
          "transactionIndex": "0x0",
          "logIndex": "0x6",
          "removed": false
        },
        {
          "address": "0x8828fd7431d5bb1962d7e067c103b2324fa6bbec",
          "topics": [
            "0x78160f0b1b2b32b52a0076d8f0f70888687ba702a4d993d55ac8d9327d57a127",
            "0x000000000000000000000000000000000000000000000000000000000000000f",
            "0xe1f6be6e9a4302086c174f181c8be8882dca5f545142b064028127a41271bdcb",
            "0x951dd7ba01eb9535310ed6cd430fa45a680d9f7b19db9589d665343d725344ff"
          ],
          "data": "0x2e659081f44c4f56a18b00f3f9d136d7ee8396bc79163c4d61363ddcf4a4cb270000000000000000000000000000000000000000000000000000000000000040000000000000000000000000000000000000000000000000000000000000014084769369b2ccc797d45e690e43c16706681366804ad95c0c83787b6c1cdf0bc400000000000000000000000000000000000000000000000000000000000000000000000000000000000000000000000000000000000000000000000005f5e10000000000000000000000000000000000000000000000000000000000055d4a8000000000000000000000000000000000000000000000000000000000009896800000000000000000000000000000000000000000000000000000000000000000000000000000000000000000000000000000000000000000000000000000000100000000000000000000000000000000000000000000000000000000000000000000000000000000000000000000000000000000000000000000000000000000c5d2460186f7233c927e7db2dcc703c0e500b653ca82273b7bfad8045d85a470",
          "blockHash": "0x9896e7dbf5a53d7b055c65ba056a24f74648479dd312c4daba004d193bafbb3e",
          "blockNumber": "0x1b",
          "blockTimestamp": "0x696675b8",
          "transactionHash": "0x27599f162bb8b14fad8b0f9ac38214c1ab979c22769bbeeb328528526a2604df",
          "transactionIndex": "0x0",
          "logIndex": "0x7",
          "removed": false
        }
      ],
      "logsBloom": "0x0400000100000000004000000000000000000240080000000080000000000000000000000000020000000040000000000000000091000000000000000020000000000000020000080000000800000080000200000000000008000000000210000000002000080000000000080000080a0000000000000000800000000000000000000000000008a00210400008000000080000000000000804000001000000000000000000004000000001001000001800000000100000a0208900000000000000000000000008000008000100000000000000000000000400000000000000260000000200040000000040000000000100000000008000800000000000004000",
      "type": "0x0",
      "transactionHash": "0x27599f162bb8b14fad8b0f9ac38214c1ab979c22769bbeeb328528526a2604df",
      "transactionIndex": "0x0",
      "blockHash": "0x9896e7dbf5a53d7b055c65ba056a24f74648479dd312c4daba004d193bafbb3e",
      "blockNumber": "0x1b",
      "gasUsed": "0x3df0a",
      "effectiveGasPrice": "0x3b9aca00",
      "blobGasPrice": "0x1",
      "from": "0xd289d1387ae1033a703842d69501d5bec5a6f04e",
      "to": "0x8828fd7431d5bb1962d7e067c103b2324fa6bbec",
      "contractAddress": null
    },
    {
      "status": "0x1",
      "cumulativeGasUsed": "0x6994",
      "logs": [],
      "logsBloom": "0x00000000000000000000000000000000000000000000000000000000000000000000000000000000000000000000000000000000000000000000000000000000000000000000000000000000000000000000000000000000000000000000000000000000000000000000000000000000000000000000000000000000000000000000000000000000000000000000000000000000000000000000000000000000000000000000000000000000000000000000000000000000000000000000000000000000000000000000000000000000000000000000000000000000000000000000000000000000000000000000000000000000000000000000000000000000",
      "type": "0x0",
      "transactionHash": "0x9472e58502d4d723e2eeef1f18ff94885d1a210ed9e477cc91f10315440a1042",
      "transactionIndex": "0x0",
      "blockHash": "0x8d6c9b39e7efade60f7556749f935d1b959cfc8d6fd444c28cb5c4fc1d51cdee",
      "blockNumber": "0x1c",
      "gasUsed": "0x6994",
      "effectiveGasPrice": "0x3b9aca00",
      "blobGasPrice": "0x1",
      "from": "0xd289d1387ae1033a703842d69501d5bec5a6f04e",
      "to": "0xf86c23c1e883ee3b820fb9be75ff91c9a49eae75",
      "contractAddress": null
    },
    {
      "status": "0x1",
      "cumulativeGasUsed": "0xad94",
      "logs": [],
      "logsBloom": "0x00000000000000000000000000000000000000000000000000000000000000000000000000000000000000000000000000000000000000000000000000000000000000000000000000000000000000000000000000000000000000000000000000000000000000000000000000000000000000000000000000000000000000000000000000000000000000000000000000000000000000000000000000000000000000000000000000000000000000000000000000000000000000000000000000000000000000000000000000000000000000000000000000000000000000000000000000000000000000000000000000000000000000000000000000000000",
      "type": "0x0",
      "transactionHash": "0x67d41d08660a1ab45f6df271f0e5ee4c8aad68765b5a2429fdfba21ff9bb4a37",
      "transactionIndex": "0x0",
      "blockHash": "0xe1b8d6403dc312ef5a31c3fdca1124ab32bad17406e1b145b457a2c716346635",
      "blockNumber": "0x1d",
      "gasUsed": "0xad94",
      "effectiveGasPrice": "0x3b9aca00",
      "blobGasPrice": "0x1",
      "from": "0xd289d1387ae1033a703842d69501d5bec5a6f04e",
      "to": "0xf86c23c1e883ee3b820fb9be75ff91c9a49eae75",
      "contractAddress": null
    },
    {
      "status": "0x1",
      "cumulativeGasUsed": "0x52d69",
      "logs": [
        {
          "address": "0x048255dfef2ebfa7307058ae475a3e2f5ee0df46",
          "topics": [
            "0x6f81b8ad0780a0febc687a3a73b181433722b4be30f7f0a024169f5161267287",
            "0xa3573853cd51aee00704a918bdae35ffd85cda62ed5fb1c74fdc4509c4d06457",
            "0x000000000000000000000000d289d1387ae1033a703842d69501d5bec5a6f04e"
          ],
          "data": "0x0000000000000000000000000000000000000000000000000000000000000000000000000000000000000000f86c23c1e883ee3b820fb9be75ff91c9a49eae7500000000000000000000000000000000000000000000000000000000004c4b40000000000000000000000000d289d1387ae1033a703842d69501d5bec5a6f04e00000000000000000000000000000000000000000000000000000000696675e500000000000000000000000000000000000000000000000000000000000000c000000000000000000000000000000000000000000000000000000000000000a000000000000000000000000000000000000000000000000000000000000000200000000000000000000000002db97a32d5ce8d79f7b7fdc607584a7a35da5e0d00000000000000000000000000000000000000000000000000000000000000400000000000000000000000000000000000000000000000000000000000000002abcd000000000000000000000000000000000000000000000000000000000000",
          "blockHash": "0x4a4380aecd8809cd9c5ea6cbcd0a93e95c2ee9308d5ce04284414dad046ec822",
          "blockNumber": "0x1e",
          "blockTimestamp": "0x696675bb",
          "transactionHash": "0x0983c6af63f4da57cba549b32fc8daf66de895191c94622bf6fd1a0596e1122e",
          "transactionIndex": "0x0",
          "logIndex": "0x0",
          "removed": false
        },
        {
          "address": "0x048255dfef2ebfa7307058ae475a3e2f5ee0df46",
          "topics": [
            "0x78160f0b1b2b32b52a0076d8f0f70888687ba702a4d993d55ac8d9327d57a127",
            "0x0000000000000000000000000000000000000000000000000000000000000004",
            "0x87052e0d018f9a102c7197e1a281473f4776302150ed5e11d427630d32d493ce",
            "0xff5e348e9ad2588190a32da79960e49d045b9500be5f5bd777f1715fe7310dee"
          ],
          "data": "0x6f81b8ad0780a0febc687a3a73b181433722b4be30f7f0a024169f5161267287000000000000000000000000000000000000000000000000000000000000004000000000000000000000000000000000000000000000000000000000000001c0a3573853cd51aee00704a918bdae35ffd85cda62ed5fb1c74fdc4509c4d06457000000000000000000000000d289d1387ae1033a703842d69501d5bec5a6f04e0000000000000000000000000000000000000000000000000000000000000000000000000000000000000000f86c23c1e883ee3b820fb9be75ff91c9a49eae7500000000000000000000000000000000000000000000000000000000004c4b40000000000000000000000000d289d1387ae1033a703842d69501d5bec5a6f04e00000000000000000000000000000000000000000000000000000000696675e5000000000000000000000000000000000000000000000000000000000000010000000000000000000000000000000000000000000000000000000000000000a000000000000000000000000000000000000000000000000000000000000000200000000000000000000000002db97a32d5ce8d79f7b7fdc607584a7a35da5e0d00000000000000000000000000000000000000000000000000000000000000400000000000000000000000000000000000000000000000000000000000000002abcd000000000000000000000000000000000000000000000000000000000000",
          "blockHash": "0x4a4380aecd8809cd9c5ea6cbcd0a93e95c2ee9308d5ce04284414dad046ec822",
          "blockNumber": "0x1e",
          "blockTimestamp": "0x696675bb",
          "transactionHash": "0x0983c6af63f4da57cba549b32fc8daf66de895191c94622bf6fd1a0596e1122e",
          "transactionIndex": "0x0",
          "logIndex": "0x1",
          "removed": false
        },
        {
          "address": "0x048255dfef2ebfa7307058ae475a3e2f5ee0df46",
          "topics": [
            "0x0544741ff6f2708047138c8f3a68abb994e628666dba785f685ff1035274f9fb",
            "0xa3573853cd51aee00704a918bdae35ffd85cda62ed5fb1c74fdc4509c4d06457",
            "0x000000000000000000000000d289d1387ae1033a703842d69501d5bec5a6f04e"
          ],
          "data": "0x000000000000000000000000f86c23c1e883ee3b820fb9be75ff91c9a49eae7500000000000000000000000000000000000000000000000000000000004c4b40",
          "blockHash": "0x4a4380aecd8809cd9c5ea6cbcd0a93e95c2ee9308d5ce04284414dad046ec822",
          "blockNumber": "0x1e",
          "blockTimestamp": "0x696675bb",
          "transactionHash": "0x0983c6af63f4da57cba549b32fc8daf66de895191c94622bf6fd1a0596e1122e",
          "transactionIndex": "0x0",
          "logIndex": "0x2",
          "removed": false
        },
        {
          "address": "0x048255dfef2ebfa7307058ae475a3e2f5ee0df46",
          "topics": [
            "0x78160f0b1b2b32b52a0076d8f0f70888687ba702a4d993d55ac8d9327d57a127",
            "0x0000000000000000000000000000000000000000000000000000000000000005",
            "0xff5e348e9ad2588190a32da79960e49d045b9500be5f5bd777f1715fe7310dee",
            "0x43cf3b52b7be846fb408b9a121b2650cf38b55f51f8553dca50a67bf223a4bab"
          ],
          "data": "0x0544741ff6f2708047138c8f3a68abb994e628666dba785f685ff1035274f9fb00000000000000000000000000000000000000000000000000000000000000400000000000000000000000000000000000000000000000000000000000000080a3573853cd51aee00704a918bdae35ffd85cda62ed5fb1c74fdc4509c4d06457000000000000000000000000d289d1387ae1033a703842d69501d5bec5a6f04e000000000000000000000000f86c23c1e883ee3b820fb9be75ff91c9a49eae7500000000000000000000000000000000000000000000000000000000004c4b40",
          "blockHash": "0x4a4380aecd8809cd9c5ea6cbcd0a93e95c2ee9308d5ce04284414dad046ec822",
          "blockNumber": "0x1e",
          "blockTimestamp": "0x696675bb",
          "transactionHash": "0x0983c6af63f4da57cba549b32fc8daf66de895191c94622bf6fd1a0596e1122e",
          "transactionIndex": "0x0",
          "logIndex": "0x3",
          "removed": false
        }
      ],
      "logsBloom": "0x00002001000001000000020000000000000000000000000000000000000800000000000200000000004000000000000000000000000000000000000000200000000010080000000004000000000000000004000100000000000000000000200008000000000800004000000000000000000000000000000000000000008000000000000000000000000000020000001000000800000000000000000000000000000000000000000000000000000000000000200200000000202000000000000000000000400000000800020000000000000000008200000000000000000000000000000000000000000000000008100000000000000000000000000000004000",
      "type": "0x0",
      "transactionHash": "0x0983c6af63f4da57cba549b32fc8daf66de895191c94622bf6fd1a0596e1122e",
      "transactionIndex": "0x0",
      "blockHash": "0x4a4380aecd8809cd9c5ea6cbcd0a93e95c2ee9308d5ce04284414dad046ec822",
      "blockNumber": "0x1e",
      "gasUsed": "0x52d69",
      "effectiveGasPrice": "0x3b9aca00",
      "blobGasPrice": "0x1",
      "from": "0xd289d1387ae1033a703842d69501d5bec5a6f04e",
      "to": "0x048255dfef2ebfa7307058ae475a3e2f5ee0df46",
      "contractAddress": null
    },
    {
      "status": "0x1",
      "cumulativeGasUsed": "0xac60",
      "logs": [],
      "logsBloom": "0x00000000000000000000000000000000000000000000000000000000000000000000000000000000000000000000000000000000000000000000000000000000000000000000000000000000000000000000000000000000000000000000000000000000000000000000000000000000000000000000000000000000000000000000000000000000000000000000000000000000000000000000000000000000000000000000000000000000000000000000000000000000000000000000000000000000000000000000000000000000000000000000000000000000000000000000000000000000000000000000000000000000000000000000000000000000",
      "type": "0x0",
      "transactionHash": "0x78466f8e95a6cec097ab890b86e387f2f2510d6b867e6361019c9da11d46732a",
      "transactionIndex": "0x0",
      "blockHash": "0x5fd190dcf7ce155fe9b79cd79e6a291084ef4afc691e4fbb710583569715f096",
      "blockNumber": "0x1f",
      "gasUsed": "0xac60",
      "effectiveGasPrice": "0x3b9aca00",
      "blobGasPrice": "0x1",
      "from": "0xd289d1387ae1033a703842d69501d5bec5a6f04e",
      "to": "0x4d4adec97e3e11693f65dedc2d1e6bec784eb2f1",
      "contractAddress": null
    },
    {
      "status": "0x1",
      "cumulativeGasUsed": "0xad94",
      "logs": [],
      "logsBloom": "0x00000000000000000000000000000000000000000000000000000000000000000000000000000000000000000000000000000000000000000000000000000000000000000000000000000000000000000000000000000000000000000000000000000000000000000000000000000000000000000000000000000000000000000000000000000000000000000000000000000000000000000000000000000000000000000000000000000000000000000000000000000000000000000000000000000000000000000000000000000000000000000000000000000000000000000000000000000000000000000000000000000000000000000000000000000000",
      "type": "0x0",
      "transactionHash": "0xfb981c298895dafec66687e6e26ca5de950cf4e8ba033cb601abdc1d6a638242",
      "transactionIndex": "0x0",
      "blockHash": "0x1910924e86f0582ccfb1f618f583aee64087f22afe750c5b01ffeb782e8b24eb",
      "blockNumber": "0x20",
      "gasUsed": "0xad94",
      "effectiveGasPrice": "0x3b9aca00",
      "blobGasPrice": "0x1",
      "from": "0xd289d1387ae1033a703842d69501d5bec5a6f04e",
      "to": "0x4d4adec97e3e11693f65dedc2d1e6bec784eb2f1",
      "contractAddress": null
    },
    {
      "status": "0x1",
      "cumulativeGasUsed": "0x17623",
      "logs": [
        {
          "address": "0x048255dfef2ebfa7307058ae475a3e2f5ee0df46",
          "topics": [
            "0xbc3f7b7e77a395c156c24db8a8a7850209b2df71a2561292eea221e32bf5d467",
            "0xa3573853cd51aee00704a918bdae35ffd85cda62ed5fb1c74fdc4509c4d06457",
            "0x000000000000000000000000d289d1387ae1033a703842d69501d5bec5a6f04e"
          ],
          "data": "0x00000000000000000000000000000000000000000000000000000000000f4240",
          "blockHash": "0xe79de2bb4ec8d4801212c079e8ac81ee7cdffd6118e3941e6f35d007f5984c37",
          "blockNumber": "0x21",
          "blockTimestamp": "0x696675be",
          "transactionHash": "0x543069dbb9034d166d62a522ccb13f1d420f16f2025be84fc9a6bfe37d32104d",
          "transactionIndex": "0x0",
          "logIndex": "0x0",
          "removed": false
        },
        {
          "address": "0x048255dfef2ebfa7307058ae475a3e2f5ee0df46",
          "topics": [
            "0x78160f0b1b2b32b52a0076d8f0f70888687ba702a4d993d55ac8d9327d57a127",
            "0x0000000000000000000000000000000000000000000000000000000000000006",
            "0x43cf3b52b7be846fb408b9a121b2650cf38b55f51f8553dca50a67bf223a4bab",
            "0xd109075acec12770df0314c8e6eefeaabc383f3715271e75f1f91c54399ca869"
          ],
          "data": "0xbc3f7b7e77a395c156c24db8a8a7850209b2df71a2561292eea221e32bf5d46700000000000000000000000000000000000000000000000000000000000000400000000000000000000000000000000000000000000000000000000000000060a3573853cd51aee00704a918bdae35ffd85cda62ed5fb1c74fdc4509c4d06457000000000000000000000000d289d1387ae1033a703842d69501d5bec5a6f04e00000000000000000000000000000000000000000000000000000000000f4240",
          "blockHash": "0xe79de2bb4ec8d4801212c079e8ac81ee7cdffd6118e3941e6f35d007f5984c37",
          "blockNumber": "0x21",
          "blockTimestamp": "0x696675be",
          "transactionHash": "0x543069dbb9034d166d62a522ccb13f1d420f16f2025be84fc9a6bfe37d32104d",
          "transactionIndex": "0x0",
          "logIndex": "0x1",
          "removed": false
        }
      ],
      "logsBloom": "0x00000000000000002000020000000000000000000002000000000000000000000000000200000000000000000000000000000000000400000000000000200000000000080000000004000000000000000000000008000004000000000000200000000000000800004000000000000000000000000000000000000000000000000000000400000000800000020000000000000000000000000000000000000000000000000000000000000000000000000000000200000000000000080000000000000000400000000000000000000000000000000200000000000000000000000000000000000000000000000008100000000000000000000000000000004002",
      "type": "0x0",
      "transactionHash": "0x543069dbb9034d166d62a522ccb13f1d420f16f2025be84fc9a6bfe37d32104d",
      "transactionIndex": "0x0",
      "blockHash": "0xe79de2bb4ec8d4801212c079e8ac81ee7cdffd6118e3941e6f35d007f5984c37",
      "blockNumber": "0x21",
      "gasUsed": "0x17623",
      "effectiveGasPrice": "0x3b9aca00",
      "blobGasPrice": "0x1",
      "from": "0xd289d1387ae1033a703842d69501d5bec5a6f04e",
      "to": "0x048255dfef2ebfa7307058ae475a3e2f5ee0df46",
      "contractAddress": null
    },
    {
      "status": "0x1",
      "cumulativeGasUsed": "0x121f6",
      "logs": [],
      "logsBloom": "0x00000000000000000000000000000000000000000000000000000000000000000000000000000000000000000000000000000000000000000000000000000000000000000000000000000000000000000000000000000000000000000000000000000000000000000000000000000000000000000000000000000000000000000000000000000000000000000000000000000000000000000000000000000000000000000000000000000000000000000000000000000000000000000000000000000000000000000000000000000000000000000000000000000000000000000000000000000000000000000000000000000000000000000000000000000000",
      "type": "0x0",
      "transactionHash": "0xb714f5ac36b192383bedb54a0bba093c620ff93399a19848334bfc7de47d6257",
      "transactionIndex": "0x0",
      "blockHash": "0x0ae3f9b88d4722d259585dba2a7ae67131b7e3e0db841ca16507cd6421305f95",
      "blockNumber": "0x22",
      "gasUsed": "0x121f6",
      "effectiveGasPrice": "0x3b9aca00",
      "blobGasPrice": "0x1",
      "from": "0xd289d1387ae1033a703842d69501d5bec5a6f04e",
      "to": "0x8c16d2f19a034b7281254f5656c2d1461c6ceb9a",
      "contractAddress": null
    },
    {
      "status": "0x1",
      "cumulativeGasUsed": "0x2a95a",
      "logs": [
        {
          "address": "0x048255dfef2ebfa7307058ae475a3e2f5ee0df46",
          "topics": [
            "0xfa797585c9827d59a7694ef382241f1a03ced6a1a2b4353b35939abc4d04b286",
            "0xa3573853cd51aee00704a918bdae35ffd85cda62ed5fb1c74fdc4509c4d06457",
            "0x000000000000000000000000d289d1387ae1033a703842d69501d5bec5a6f04e"
          ],
          "data": "0x00000000000000000000000000000000000000000000000000000000000000000000000000000000000000000000000000000000000000000000000000000000",
          "blockHash": "0x74ef04c5f5685468256c90ec019b642acd7747e588df5bcca1f25ab827ee2c0b",
          "blockNumber": "0x23",
          "blockTimestamp": "0x696675c0",
          "transactionHash": "0x2f5ba51d14e85c15d17d191030d42e6841a71cc1e7565d0360208b4ebf62e251",
          "transactionIndex": "0x0",
          "logIndex": "0x0",
          "removed": false
        },
        {
          "address": "0x048255dfef2ebfa7307058ae475a3e2f5ee0df46",
          "topics": [
            "0x78160f0b1b2b32b52a0076d8f0f70888687ba702a4d993d55ac8d9327d57a127",
            "0x0000000000000000000000000000000000000000000000000000000000000007",
            "0xd109075acec12770df0314c8e6eefeaabc383f3715271e75f1f91c54399ca869",
            "0x0bcf2df7842d969b1d20bcd6cd1c44aaafbf3123c6fd91c5f85765b0f42d6794"
          ],
          "data": "0xfa797585c9827d59a7694ef382241f1a03ced6a1a2b4353b35939abc4d04b28600000000000000000000000000000000000000000000000000000000000000400000000000000000000000000000000000000000000000000000000000000080a3573853cd51aee00704a918bdae35ffd85cda62ed5fb1c74fdc4509c4d06457000000000000000000000000d289d1387ae1033a703842d69501d5bec5a6f04e00000000000000000000000000000000000000000000000000000000000000000000000000000000000000000000000000000000000000000000000000000000",
          "blockHash": "0x74ef04c5f5685468256c90ec019b642acd7747e588df5bcca1f25ab827ee2c0b",
          "blockNumber": "0x23",
          "blockTimestamp": "0x696675c0",
          "transactionHash": "0x2f5ba51d14e85c15d17d191030d42e6841a71cc1e7565d0360208b4ebf62e251",
          "transactionIndex": "0x0",
          "logIndex": "0x1",
          "removed": false
        },
        {
          "address": "0x048255dfef2ebfa7307058ae475a3e2f5ee0df46",
          "topics": [
            "0x16bfb64ae70b8a9bbda28deb27a1cbc5ec3e6497481714344c221b46c0777f35",
            "0xa3573853cd51aee00704a918bdae35ffd85cda62ed5fb1c74fdc4509c4d06457",
            "0x000000000000000000000000d289d1387ae1033a703842d69501d5bec5a6f04e"
          ],
          "data": "0x000000000000000000000000f86c23c1e883ee3b820fb9be75ff91c9a49eae7500000000000000000000000000000000000000000000000000000000004c4b400000000000000000000000004d4adec97e3e11693f65dedc2d1e6bec784eb2f100000000000000000000000000000000000000000000000000000000000f4240",
          "blockHash": "0x74ef04c5f5685468256c90ec019b642acd7747e588df5bcca1f25ab827ee2c0b",
          "blockNumber": "0x23",
          "blockTimestamp": "0x696675c0",
          "transactionHash": "0x2f5ba51d14e85c15d17d191030d42e6841a71cc1e7565d0360208b4ebf62e251",
          "transactionIndex": "0x0",
          "logIndex": "0x2",
          "removed": false
        },
        {
          "address": "0x048255dfef2ebfa7307058ae475a3e2f5ee0df46",
          "topics": [
            "0x78160f0b1b2b32b52a0076d8f0f70888687ba702a4d993d55ac8d9327d57a127",
            "0x0000000000000000000000000000000000000000000000000000000000000008",
            "0x0bcf2df7842d969b1d20bcd6cd1c44aaafbf3123c6fd91c5f85765b0f42d6794",
            "0xf4d9af3729c05e7d6dae9f506ea166cbb29120be1064976952398b42df6a71a9"
          ],
          "data": "0x16bfb64ae70b8a9bbda28deb27a1cbc5ec3e6497481714344c221b46c0777f35000000000000000000000000000000000000000000000000000000000000004000000000000000000000000000000000000000000000000000000000000000c0a3573853cd51aee00704a918bdae35ffd85cda62ed5fb1c74fdc4509c4d06457000000000000000000000000d289d1387ae1033a703842d69501d5bec5a6f04e000000000000000000000000f86c23c1e883ee3b820fb9be75ff91c9a49eae7500000000000000000000000000000000000000000000000000000000004c4b400000000000000000000000004d4adec97e3e11693f65dedc2d1e6bec784eb2f100000000000000000000000000000000000000000000000000000000000f4240",
          "blockHash": "0x74ef04c5f5685468256c90ec019b642acd7747e588df5bcca1f25ab827ee2c0b",
          "blockNumber": "0x23",
          "blockTimestamp": "0x696675c0",
          "transactionHash": "0x2f5ba51d14e85c15d17d191030d42e6841a71cc1e7565d0360208b4ebf62e251",
          "transactionIndex": "0x0",
          "logIndex": "0x3",
          "removed": false
        }
      ],
      "logsBloom": "0x00000000000000000000000000000000000000000002000000000000000080000000000000000000000000000000000200001000000080000002002000200000000020080000000004000000000000000000000008002000000000000000200100000000000800004000200000000000000000000000000000000000000000000080000000000000800000020000000000000000000000000000000000000000000004000000000000000802000000000000000200000000000000000000000050000000400000000000000000000000000000000200000000000100000000000000000000000000000000000000100000000000000000000000000002004000",
      "type": "0x0",
      "transactionHash": "0x2f5ba51d14e85c15d17d191030d42e6841a71cc1e7565d0360208b4ebf62e251",
      "transactionIndex": "0x0",
      "blockHash": "0x74ef04c5f5685468256c90ec019b642acd7747e588df5bcca1f25ab827ee2c0b",
      "blockNumber": "0x23",
      "gasUsed": "0x2a95a",
      "effectiveGasPrice": "0x3b9aca00",
      "blobGasPrice": "0x1",
      "from": "0xd289d1387ae1033a703842d69501d5bec5a6f04e",
      "to": "0x048255dfef2ebfa7307058ae475a3e2f5ee0df46",
      "contractAddress": null
    },
    {
      "status": "0x1",
      "cumulativeGasUsed": "0x6994",
      "logs": [],
      "logsBloom": "0x00000000000000000000000000000000000000000000000000000000000000000000000000000000000000000000000000000000000000000000000000000000000000000000000000000000000000000000000000000000000000000000000000000000000000000000000000000000000000000000000000000000000000000000000000000000000000000000000000000000000000000000000000000000000000000000000000000000000000000000000000000000000000000000000000000000000000000000000000000000000000000000000000000000000000000000000000000000000000000000000000000000000000000000000000000000",
      "type": "0x0",
      "transactionHash": "0x0a2b025e54d798396bcc4d25e729364f018d01b9de9918368b81ec89df0f7e63",
      "transactionIndex": "0x0",
      "blockHash": "0xc01ae758690096ee1dd4feb6ffb7d509216958f4d5149fde7508719600f3e9e8",
      "blockNumber": "0x24",
      "gasUsed": "0x6994",
      "effectiveGasPrice": "0x3b9aca00",
      "blobGasPrice": "0x1",
      "from": "0xd289d1387ae1033a703842d69501d5bec5a6f04e",
      "to": "0x4d4adec97e3e11693f65dedc2d1e6bec784eb2f1",
      "contractAddress": null
    },
    {
      "status": "0x1",
      "cumulativeGasUsed": "0x5fd8",
      "logs": [],
      "logsBloom": "0x00000000000000000000000000000000000000000000000000000000000000000000000000000000000000000000000000000000000000000000000000000000000000000000000000000000000000000000000000000000000000000000000000000000000000000000000000000000000000000000000000000000000000000000000000000000000000000000000000000000000000000000000000000000000000000000000000000000000000000000000000000000000000000000000000000000000000000000000000000000000000000000000000000000000000000000000000000000000000000000000000000000000000000000000000000000",
      "type": "0x0",
      "transactionHash": "0x7ea72e5993dc68e9aae677584dd7924b37542cf6803f9122078b9aa549581694",
      "transactionIndex": "0x0",
      "blockHash": "0xf3e1a109301dfbeef89caea9f64eb56c8ad1d38c841287870bc2cb1c81b36f15",
      "blockNumber": "0x25",
      "gasUsed": "0x5fd8",
      "effectiveGasPrice": "0x3b9aca00",
      "blobGasPrice": "0x1",
      "from": "0xd289d1387ae1033a703842d69501d5bec5a6f04e",
      "to": "0x4d4adec97e3e11693f65dedc2d1e6bec784eb2f1",
      "contractAddress": null
    },
    {
      "status": "0x1",
      "cumulativeGasUsed": "0x46ef3",
      "logs": [
        {
          "address": "0x048255dfef2ebfa7307058ae475a3e2f5ee0df46",
          "topics": [
            "0x6f81b8ad0780a0febc687a3a73b181433722b4be30f7f0a024169f5161267287",
            "0x9c5668eca5a4c40788145e30ed18cf7fd39e52233dfaffbabbdea366803bf0a0",
            "0x000000000000000000000000d289d1387ae1033a703842d69501d5bec5a6f04e"
          ],
          "data": "0x00000000000000000000000000000000000000000000000000000000000000010000000000000000000000004d4adec97e3e11693f65dedc2d1e6bec784eb2f100000000000000000000000000000000000000000000000000000000001e8480000000000000000000000000d289d1387ae1033a703842d69501d5bec5a6f04e00000000000000000000000000000000000000000000000000000000696675e500000000000000000000000000000000000000000000000000000000000000c00000000000000000000000000000000000000000000000000000000000000040000000000000000000000000558b8fe3b86724d9d9433bf8ec2b1a1b223f9d25000000000000000000000000000000000000000000000000000000000012d687",
          "blockHash": "0x129e97b9e2889353ec6fb4f30cfa05c476112344a2ec9554085b2828e87a2739",
          "blockNumber": "0x26",
          "blockTimestamp": "0x696675c3",
          "transactionHash": "0x64dea011da45098d05acb6862132b54be659ec43cd04e4d1beba30040fa153cd",
          "transactionIndex": "0x0",
          "logIndex": "0x0",
          "removed": false
        },
        {
          "address": "0x048255dfef2ebfa7307058ae475a3e2f5ee0df46",
          "topics": [
            "0x78160f0b1b2b32b52a0076d8f0f70888687ba702a4d993d55ac8d9327d57a127",
            "0x0000000000000000000000000000000000000000000000000000000000000009",
            "0xf4d9af3729c05e7d6dae9f506ea166cbb29120be1064976952398b42df6a71a9",
            "0xe6e582d0b0cd202a294614b6e2c210ca3ed6b8cb78cb54ae69397a9bd70a8e2b"
          ],
          "data": "0x6f81b8ad0780a0febc687a3a73b181433722b4be30f7f0a024169f5161267287000000000000000000000000000000000000000000000000000000000000004000000000000000000000000000000000000000000000000000000000000001609c5668eca5a4c40788145e30ed18cf7fd39e52233dfaffbabbdea366803bf0a0000000000000000000000000d289d1387ae1033a703842d69501d5bec5a6f04e00000000000000000000000000000000000000000000000000000000000000010000000000000000000000004d4adec97e3e11693f65dedc2d1e6bec784eb2f100000000000000000000000000000000000000000000000000000000001e8480000000000000000000000000d289d1387ae1033a703842d69501d5bec5a6f04e00000000000000000000000000000000000000000000000000000000696675e500000000000000000000000000000000000000000000000000000000000001000000000000000000000000000000000000000000000000000000000000000040000000000000000000000000558b8fe3b86724d9d9433bf8ec2b1a1b223f9d25000000000000000000000000000000000000000000000000000000000012d687",
          "blockHash": "0x129e97b9e2889353ec6fb4f30cfa05c476112344a2ec9554085b2828e87a2739",
          "blockNumber": "0x26",
          "blockTimestamp": "0x696675c3",
          "transactionHash": "0x64dea011da45098d05acb6862132b54be659ec43cd04e4d1beba30040fa153cd",
          "transactionIndex": "0x0",
          "logIndex": "0x1",
          "removed": false
        },
        {
          "address": "0x048255dfef2ebfa7307058ae475a3e2f5ee0df46",
          "topics": [
            "0x0544741ff6f2708047138c8f3a68abb994e628666dba785f685ff1035274f9fb",
            "0x9c5668eca5a4c40788145e30ed18cf7fd39e52233dfaffbabbdea366803bf0a0",
            "0x000000000000000000000000d289d1387ae1033a703842d69501d5bec5a6f04e"
          ],
          "data": "0x0000000000000000000000004d4adec97e3e11693f65dedc2d1e6bec784eb2f100000000000000000000000000000000000000000000000000000000001e8480",
          "blockHash": "0x129e97b9e2889353ec6fb4f30cfa05c476112344a2ec9554085b2828e87a2739",
          "blockNumber": "0x26",
          "blockTimestamp": "0x696675c3",
          "transactionHash": "0x64dea011da45098d05acb6862132b54be659ec43cd04e4d1beba30040fa153cd",
          "transactionIndex": "0x0",
          "logIndex": "0x2",
          "removed": false
        },
        {
          "address": "0x048255dfef2ebfa7307058ae475a3e2f5ee0df46",
          "topics": [
            "0x78160f0b1b2b32b52a0076d8f0f70888687ba702a4d993d55ac8d9327d57a127",
            "0x000000000000000000000000000000000000000000000000000000000000000a",
            "0xe6e582d0b0cd202a294614b6e2c210ca3ed6b8cb78cb54ae69397a9bd70a8e2b",
            "0x8ed486987d0060855b3935e717c35620c4c904fa2e54d70146b8f2fc0695ca39"
          ],
          "data": "0x0544741ff6f2708047138c8f3a68abb994e628666dba785f685ff1035274f9fb000000000000000000000000000000000000000000000000000000000000004000000000000000000000000000000000000000000000000000000000000000809c5668eca5a4c40788145e30ed18cf7fd39e52233dfaffbabbdea366803bf0a0000000000000000000000000d289d1387ae1033a703842d69501d5bec5a6f04e0000000000000000000000004d4adec97e3e11693f65dedc2d1e6bec784eb2f100000000000000000000000000000000000000000000000000000000001e8480",
          "blockHash": "0x129e97b9e2889353ec6fb4f30cfa05c476112344a2ec9554085b2828e87a2739",
          "blockNumber": "0x26",
          "blockTimestamp": "0x696675c3",
          "transactionHash": "0x64dea011da45098d05acb6862132b54be659ec43cd04e4d1beba30040fa153cd",
          "transactionIndex": "0x0",
          "logIndex": "0x3",
          "removed": false
        }
      ],
      "logsBloom": "0x00000100000000000000000000004000000000000000000800000000000000000000000000000004000000000000000000000000040000000020000000202000000000000000000004000000000001000004000100000000000000000000000100000000000800004000200000000000000000000000000000000000008000000000000000000000010000000000000200001000000000000000000000000000000104000000000000000000000000000000200200000000200000000000000000000000400000000000020000000000000000000200000000000000000000010000000000000000000000000000100000000000000000000000000000804000",
      "type": "0x0",
      "transactionHash": "0x64dea011da45098d05acb6862132b54be659ec43cd04e4d1beba30040fa153cd",
      "transactionIndex": "0x0",
      "blockHash": "0x129e97b9e2889353ec6fb4f30cfa05c476112344a2ec9554085b2828e87a2739",
      "blockNumber": "0x26",
      "gasUsed": "0x46ef3",
      "effectiveGasPrice": "0x3b9aca00",
      "blobGasPrice": "0x1",
      "from": "0xd289d1387ae1033a703842d69501d5bec5a6f04e",
      "to": "0x048255dfef2ebfa7307058ae475a3e2f5ee0df46",
      "contractAddress": null
    },
    {
      "status": "0x1",
      "cumulativeGasUsed": "0x6994",
      "logs": [],
      "logsBloom": "0x00000000000000000000000000000000000000000000000000000000000000000000000000000000000000000000000000000000000000000000000000000000000000000000000000000000000000000000000000000000000000000000000000000000000000000000000000000000000000000000000000000000000000000000000000000000000000000000000000000000000000000000000000000000000000000000000000000000000000000000000000000000000000000000000000000000000000000000000000000000000000000000000000000000000000000000000000000000000000000000000000000000000000000000000000000000",
      "type": "0x0",
      "transactionHash": "0x1c5a6f087ddd01a80266dcc4087775bee248903bc54c495275af6efc654a725e",
      "transactionIndex": "0x0",
      "blockHash": "0x403aa37dc847ddbb80898484e7ffa818acfbdf27405e07ec0425ed9c807baf6a",
      "blockNumber": "0x27",
      "gasUsed": "0x6994",
      "effectiveGasPrice": "0x3b9aca00",
      "blobGasPrice": "0x1",
      "from": "0xd289d1387ae1033a703842d69501d5bec5a6f04e",
      "to": "0x4d4adec97e3e11693f65dedc2d1e6bec784eb2f1",
      "contractAddress": null
    },
    {
      "status": "0x1",
      "cumulativeGasUsed": "0x5fd8",
      "logs": [],
      "logsBloom": "0x00000000000000000000000000000000000000000000000000000000000000000000000000000000000000000000000000000000000000000000000000000000000000000000000000000000000000000000000000000000000000000000000000000000000000000000000000000000000000000000000000000000000000000000000000000000000000000000000000000000000000000000000000000000000000000000000000000000000000000000000000000000000000000000000000000000000000000000000000000000000000000000000000000000000000000000000000000000000000000000000000000000000000000000000000000000",
      "type": "0x0",
      "transactionHash": "0x14ad21e0465b8f1bf65dbb49dc6d80fe8c9db2523dc493fcadf887416d373978",
      "transactionIndex": "0x0",
      "blockHash": "0xb041995b8f4f413b2206a0adf223036000e22027df5ad67321c60eea519437d9",
      "blockNumber": "0x28",
      "gasUsed": "0x5fd8",
      "effectiveGasPrice": "0x3b9aca00",
      "blobGasPrice": "0x1",
      "from": "0xd289d1387ae1033a703842d69501d5bec5a6f04e",
      "to": "0x4d4adec97e3e11693f65dedc2d1e6bec784eb2f1",
      "contractAddress": null
    },
    {
      "status": "0x1",
      "cumulativeGasUsed": "0x14617",
      "logs": [
        {
          "address": "0x048255dfef2ebfa7307058ae475a3e2f5ee0df46",
          "topics": [
            "0xbc3f7b7e77a395c156c24db8a8a7850209b2df71a2561292eea221e32bf5d467",
            "0x9c5668eca5a4c40788145e30ed18cf7fd39e52233dfaffbabbdea366803bf0a0",
            "0x000000000000000000000000d289d1387ae1033a703842d69501d5bec5a6f04e"
          ],
          "data": "0x00000000000000000000000000000000000000000000000000000000000f4240",
          "blockHash": "0x983a3a6fb3bc0bb7d2fb8d104d1b8df7d7c01806eb34fbbffb2ab88e5fa92cee",
          "blockNumber": "0x29",
          "blockTimestamp": "0x696675c6",
          "transactionHash": "0x6798bae66be5218d33d738fa6797195b1642d7cada9904a622f32b6eaf1374a0",
          "transactionIndex": "0x0",
          "logIndex": "0x0",
          "removed": false
        },
        {
          "address": "0x048255dfef2ebfa7307058ae475a3e2f5ee0df46",
          "topics": [
            "0x78160f0b1b2b32b52a0076d8f0f70888687ba702a4d993d55ac8d9327d57a127",
            "0x000000000000000000000000000000000000000000000000000000000000000b",
            "0x8ed486987d0060855b3935e717c35620c4c904fa2e54d70146b8f2fc0695ca39",
            "0xc91aeb1de0517d7c1741285f0d07ca3a1e20dc5544d57047a5dc7654c4a418b7"
          ],
          "data": "0xbc3f7b7e77a395c156c24db8a8a7850209b2df71a2561292eea221e32bf5d467000000000000000000000000000000000000000000000000000000000000004000000000000000000000000000000000000000000000000000000000000000609c5668eca5a4c40788145e30ed18cf7fd39e52233dfaffbabbdea366803bf0a0000000000000000000000000d289d1387ae1033a703842d69501d5bec5a6f04e00000000000000000000000000000000000000000000000000000000000f4240",
          "blockHash": "0x983a3a6fb3bc0bb7d2fb8d104d1b8df7d7c01806eb34fbbffb2ab88e5fa92cee",
          "blockNumber": "0x29",
          "blockTimestamp": "0x696675c6",
          "transactionHash": "0x6798bae66be5218d33d738fa6797195b1642d7cada9904a622f32b6eaf1374a0",
          "transactionIndex": "0x0",
          "logIndex": "0x1",
          "removed": false
        }
      ],
      "logsBloom": "0x00000100000000002000004000004000000000000000000800000000000000000000000000000004000000000000000000000000000000000000000000202000000002000000000004000002000000000000000000080004000000000000000000000000000800004000000000000000000000000000000000000000000000000000000000000000000000000000000000000000000000000000000000000000000100000000000000000000000000000000000200000000000000000000000000000000400000000000000000000000002000000200000000000000000000000000000000000000000000000000100000000000000000040000000000004002",
      "type": "0x0",
      "transactionHash": "0x6798bae66be5218d33d738fa6797195b1642d7cada9904a622f32b6eaf1374a0",
      "transactionIndex": "0x0",
      "blockHash": "0x983a3a6fb3bc0bb7d2fb8d104d1b8df7d7c01806eb34fbbffb2ab88e5fa92cee",
      "blockNumber": "0x29",
      "gasUsed": "0x14617",
      "effectiveGasPrice": "0x3b9aca00",
      "blobGasPrice": "0x1",
      "from": "0xd289d1387ae1033a703842d69501d5bec5a6f04e",
      "to": "0x048255dfef2ebfa7307058ae475a3e2f5ee0df46",
      "contractAddress": null
    },
    {
      "status": "0x1",
      "cumulativeGasUsed": "0x1a29b",
      "logs": [],
      "logsBloom": "0x00000000000000000000000000000000000000000000000000000000000000000000000000000000000000000000000000000000000000000000000000000000000000000000000000000000000000000000000000000000000000000000000000000000000000000000000000000000000000000000000000000000000000000000000000000000000000000000000000000000000000000000000000000000000000000000000000000000000000000000000000000000000000000000000000000000000000000000000000000000000000000000000000000000000000000000000000000000000000000000000000000000000000000000000000000000",
      "type": "0x0",
      "transactionHash": "0x00b79c3452bdb35d9094c2a84d9713d43984b55d56f94d3c5e00452ed02ce923",
      "transactionIndex": "0x0",
      "blockHash": "0x7b2d9bd078e215961e7754ace08b424c65fafe9c98257ee92c8fb82470b5a065",
      "blockNumber": "0x2a",
      "gasUsed": "0x1a29b",
      "effectiveGasPrice": "0x3b9aca00",
      "blobGasPrice": "0x1",
      "from": "0xd289d1387ae1033a703842d69501d5bec5a6f04e",
      "to": "0x8c16d2f19a034b7281254f5656c2d1461c6ceb9a",
      "contractAddress": null
    },
    {
      "status": "0x1",
      "cumulativeGasUsed": "0x212aa",
      "logs": [
        {
          "address": "0x048255dfef2ebfa7307058ae475a3e2f5ee0df46",
          "topics": [
            "0xfa797585c9827d59a7694ef382241f1a03ced6a1a2b4353b35939abc4d04b286",
            "0x9c5668eca5a4c40788145e30ed18cf7fd39e52233dfaffbabbdea366803bf0a0",
            "0x000000000000000000000000d289d1387ae1033a703842d69501d5bec5a6f04e"
          ],
          "data": "0x00000000000000000000000000000000000000000000000000000000000000000000000000000000000000000000000000000000000000000000000000000000",
          "blockHash": "0xa6a89b3b726eadafd439227781d02180e02d376efc76b9c480f9391120b13c9d",
          "blockNumber": "0x2b",
          "blockTimestamp": "0x696675c8",
          "transactionHash": "0xa46440fa92d82570f6fa2d0f2e706f7e2473ecd9646a5a76de00c7f7d5f7d937",
          "transactionIndex": "0x0",
          "logIndex": "0x0",
          "removed": false
        },
        {
          "address": "0x048255dfef2ebfa7307058ae475a3e2f5ee0df46",
          "topics": [
            "0x78160f0b1b2b32b52a0076d8f0f70888687ba702a4d993d55ac8d9327d57a127",
            "0x000000000000000000000000000000000000000000000000000000000000000c",
            "0xc91aeb1de0517d7c1741285f0d07ca3a1e20dc5544d57047a5dc7654c4a418b7",
            "0x976b6ff79ab46bd50c9ee0236848ff9410b9dcaa67f6784a376ed611ea87fda5"
          ],
          "data": "0xfa797585c9827d59a7694ef382241f1a03ced6a1a2b4353b35939abc4d04b286000000000000000000000000000000000000000000000000000000000000004000000000000000000000000000000000000000000000000000000000000000809c5668eca5a4c40788145e30ed18cf7fd39e52233dfaffbabbdea366803bf0a0000000000000000000000000d289d1387ae1033a703842d69501d5bec5a6f04e00000000000000000000000000000000000000000000000000000000000000000000000000000000000000000000000000000000000000000000000000000000",
          "blockHash": "0xa6a89b3b726eadafd439227781d02180e02d376efc76b9c480f9391120b13c9d",
          "blockNumber": "0x2b",
          "blockTimestamp": "0x696675c8",
          "transactionHash": "0xa46440fa92d82570f6fa2d0f2e706f7e2473ecd9646a5a76de00c7f7d5f7d937",
          "transactionIndex": "0x0",
          "logIndex": "0x1",
          "removed": false
        },
        {
          "address": "0x048255dfef2ebfa7307058ae475a3e2f5ee0df46",
          "topics": [
            "0x16bfb64ae70b8a9bbda28deb27a1cbc5ec3e6497481714344c221b46c0777f35",
            "0x9c5668eca5a4c40788145e30ed18cf7fd39e52233dfaffbabbdea366803bf0a0",
            "0x000000000000000000000000d289d1387ae1033a703842d69501d5bec5a6f04e"
          ],
          "data": "0x0000000000000000000000004d4adec97e3e11693f65dedc2d1e6bec784eb2f100000000000000000000000000000000000000000000000000000000001e84800000000000000000000000004d4adec97e3e11693f65dedc2d1e6bec784eb2f100000000000000000000000000000000000000000000000000000000000f4240",
          "blockHash": "0xa6a89b3b726eadafd439227781d02180e02d376efc76b9c480f9391120b13c9d",
          "blockNumber": "0x2b",
          "blockTimestamp": "0x696675c8",
          "transactionHash": "0xa46440fa92d82570f6fa2d0f2e706f7e2473ecd9646a5a76de00c7f7d5f7d937",
          "transactionIndex": "0x0",
          "logIndex": "0x2",
          "removed": false
        },
        {
          "address": "0x048255dfef2ebfa7307058ae475a3e2f5ee0df46",
          "topics": [
            "0x78160f0b1b2b32b52a0076d8f0f70888687ba702a4d993d55ac8d9327d57a127",
            "0x000000000000000000000000000000000000000000000000000000000000000d",
            "0x976b6ff79ab46bd50c9ee0236848ff9410b9dcaa67f6784a376ed611ea87fda5",
            "0xfb3e5a9683ff479d3f96fed106d8c4220585da07babe5bc8a028f3c098aedcd9"
          ],
          "data": "0x16bfb64ae70b8a9bbda28deb27a1cbc5ec3e6497481714344c221b46c0777f35000000000000000000000000000000000000000000000000000000000000004000000000000000000000000000000000000000000000000000000000000000c09c5668eca5a4c40788145e30ed18cf7fd39e52233dfaffbabbdea366803bf0a0000000000000000000000000d289d1387ae1033a703842d69501d5bec5a6f04e0000000000000000000000004d4adec97e3e11693f65dedc2d1e6bec784eb2f100000000000000000000000000000000000000000000000000000000001e84800000000000000000000000004d4adec97e3e11693f65dedc2d1e6bec784eb2f100000000000000000000000000000000000000000000000000000000000f4240",
          "blockHash": "0xa6a89b3b726eadafd439227781d02180e02d376efc76b9c480f9391120b13c9d",
          "blockNumber": "0x2b",
          "blockTimestamp": "0x696675c8",
          "transactionHash": "0xa46440fa92d82570f6fa2d0f2e706f7e2473ecd9646a5a76de00c7f7d5f7d937",
          "transactionIndex": "0x0",
          "logIndex": "0x3",
          "removed": false
        }
      ],
      "logsBloom": "0x00000100000000000040000000004000000002000000000800000000000080000000000000000200000000000000000200000000000000000002000000200000000002000000000004000002000000000002000000080000000000000000000000000000000800004000200000000000000000000000002000000000000000000008008000000000000000000000000000000000000000000000000000000000000000000000800000000002000000000000000200000000000000000000000010000000400000000020000000000000000000000200000000000000000000220000000000000000000000000000100000000000000000000000000002004000",
      "type": "0x0",
      "transactionHash": "0xa46440fa92d82570f6fa2d0f2e706f7e2473ecd9646a5a76de00c7f7d5f7d937",
      "transactionIndex": "0x0",
      "blockHash": "0xa6a89b3b726eadafd439227781d02180e02d376efc76b9c480f9391120b13c9d",
      "blockNumber": "0x2b",
      "gasUsed": "0x212aa",
      "effectiveGasPrice": "0x3b9aca00",
      "blobGasPrice": "0x1",
      "from": "0xd289d1387ae1033a703842d69501d5bec5a6f04e",
      "to": "0x048255dfef2ebfa7307058ae475a3e2f5ee0df46",
      "contractAddress": null
    },
    {
      "status": "0x1",
      "cumulativeGasUsed": "0x6994",
      "logs": [],
      "logsBloom": "0x00000000000000000000000000000000000000000000000000000000000000000000000000000000000000000000000000000000000000000000000000000000000000000000000000000000000000000000000000000000000000000000000000000000000000000000000000000000000000000000000000000000000000000000000000000000000000000000000000000000000000000000000000000000000000000000000000000000000000000000000000000000000000000000000000000000000000000000000000000000000000000000000000000000000000000000000000000000000000000000000000000000000000000000000000000000",
      "type": "0x0",
      "transactionHash": "0xd0320ea4101225e3cdf0058c477936642fac4dcaca976e91576a4ef8209222a1",
      "transactionIndex": "0x0",
      "blockHash": "0x28a2257d363037e75cd47cbfdf17073cad1a00a998e6b49004d22c7f0729141e",
      "blockNumber": "0x2c",
      "gasUsed": "0x6994",
      "effectiveGasPrice": "0x3b9aca00",
      "blobGasPrice": "0x1",
      "from": "0xd289d1387ae1033a703842d69501d5bec5a6f04e",
      "to": "0xf86c23c1e883ee3b820fb9be75ff91c9a49eae75",
      "contractAddress": null
    },
    {
      "status": "0x1",
      "cumulativeGasUsed": "0x5fd8",
      "logs": [],
      "logsBloom": "0x00000000000000000000000000000000000000000000000000000000000000000000000000000000000000000000000000000000000000000000000000000000000000000000000000000000000000000000000000000000000000000000000000000000000000000000000000000000000000000000000000000000000000000000000000000000000000000000000000000000000000000000000000000000000000000000000000000000000000000000000000000000000000000000000000000000000000000000000000000000000000000000000000000000000000000000000000000000000000000000000000000000000000000000000000000000",
      "type": "0x0",
      "transactionHash": "0x9ba2356eba8d92e29a09975d422f7a521e444f1e961e2ba70fe2dbc28213ae9b",
      "transactionIndex": "0x0",
      "blockHash": "0xc834d37283fe48667e70852990e8ff00f20d4806f0cd2dceead10c5e8ff4901e",
      "blockNumber": "0x2d",
      "gasUsed": "0x5fd8",
      "effectiveGasPrice": "0x3b9aca00",
      "blobGasPrice": "0x1",
      "from": "0xd289d1387ae1033a703842d69501d5bec5a6f04e",
      "to": "0xf86c23c1e883ee3b820fb9be75ff91c9a49eae75",
      "contractAddress": null
    },
    {
      "status": "0x1",
      "cumulativeGasUsed": "0x52d69",
      "logs": [
        {
          "address": "0x048255dfef2ebfa7307058ae475a3e2f5ee0df46",
          "topics": [
            "0x6f81b8ad0780a0febc687a3a73b181433722b4be30f7f0a024169f5161267287",
            "0xceee63362ce5c16402dad8fd4e3ca0bcabf2e89d099a04b8f644d62aecf8acf0",
            "0x000000000000000000000000d289d1387ae1033a703842d69501d5bec5a6f04e"
          ],
          "data": "0x0000000000000000000000000000000000000000000000000000000000000000000000000000000000000000f86c23c1e883ee3b820fb9be75ff91c9a49eae7500000000000000000000000000000000000000000000000000000000000f4240000000000000000000000000d289d1387ae1033a703842d69501d5bec5a6f04e00000000000000000000000000000000000000000000000000000000696675e500000000000000000000000000000000000000000000000000000000000000c000000000000000000000000000000000000000000000000000000000000000a000000000000000000000000000000000000000000000000000000000000000200000000000000000000000005457e258a09ebfb4a2501a9e3d70d37f54f923f300000000000000000000000000000000000000000000000000000000000000400000000000000000000000000000000000000000000000000000000000000002beef000000000000000000000000000000000000000000000000000000000000",
          "blockHash": "0x6cdd48a02263b4f9b266d92b3ceec57d2c80989b58dc8d3a4f387c7d82777498",
          "blockNumber": "0x2e",
          "blockTimestamp": "0x696675cb",
          "transactionHash": "0x027143c7fdbe2d1fa9d1d12129b448484c936efb4b939f6d861de48988de6329",
          "transactionIndex": "0x0",
          "logIndex": "0x0",
          "removed": false
        },
        {
          "address": "0x048255dfef2ebfa7307058ae475a3e2f5ee0df46",
          "topics": [
            "0x78160f0b1b2b32b52a0076d8f0f70888687ba702a4d993d55ac8d9327d57a127",
            "0x000000000000000000000000000000000000000000000000000000000000000e",
            "0xfb3e5a9683ff479d3f96fed106d8c4220585da07babe5bc8a028f3c098aedcd9",
            "0xf89f96b5a20179e2267b1b61cf709c8a356443b4d0b4bc5f414344f74a9bb5f5"
          ],
          "data": "0x6f81b8ad0780a0febc687a3a73b181433722b4be30f7f0a024169f5161267287000000000000000000000000000000000000000000000000000000000000004000000000000000000000000000000000000000000000000000000000000001c0ceee63362ce5c16402dad8fd4e3ca0bcabf2e89d099a04b8f644d62aecf8acf0000000000000000000000000d289d1387ae1033a703842d69501d5bec5a6f04e0000000000000000000000000000000000000000000000000000000000000000000000000000000000000000f86c23c1e883ee3b820fb9be75ff91c9a49eae7500000000000000000000000000000000000000000000000000000000000f4240000000000000000000000000d289d1387ae1033a703842d69501d5bec5a6f04e00000000000000000000000000000000000000000000000000000000696675e5000000000000000000000000000000000000000000000000000000000000010000000000000000000000000000000000000000000000000000000000000000a000000000000000000000000000000000000000000000000000000000000000200000000000000000000000005457e258a09ebfb4a2501a9e3d70d37f54f923f300000000000000000000000000000000000000000000000000000000000000400000000000000000000000000000000000000000000000000000000000000002beef000000000000000000000000000000000000000000000000000000000000",
          "blockHash": "0x6cdd48a02263b4f9b266d92b3ceec57d2c80989b58dc8d3a4f387c7d82777498",
          "blockNumber": "0x2e",
          "blockTimestamp": "0x696675cb",
          "transactionHash": "0x027143c7fdbe2d1fa9d1d12129b448484c936efb4b939f6d861de48988de6329",
          "transactionIndex": "0x0",
          "logIndex": "0x1",
          "removed": false
        },
        {
          "address": "0x048255dfef2ebfa7307058ae475a3e2f5ee0df46",
          "topics": [
            "0x0544741ff6f2708047138c8f3a68abb994e628666dba785f685ff1035274f9fb",
            "0xceee63362ce5c16402dad8fd4e3ca0bcabf2e89d099a04b8f644d62aecf8acf0",
            "0x000000000000000000000000d289d1387ae1033a703842d69501d5bec5a6f04e"
          ],
          "data": "0x000000000000000000000000f86c23c1e883ee3b820fb9be75ff91c9a49eae7500000000000000000000000000000000000000000000000000000000000f4240",
          "blockHash": "0x6cdd48a02263b4f9b266d92b3ceec57d2c80989b58dc8d3a4f387c7d82777498",
          "blockNumber": "0x2e",
          "blockTimestamp": "0x696675cb",
          "transactionHash": "0x027143c7fdbe2d1fa9d1d12129b448484c936efb4b939f6d861de48988de6329",
          "transactionIndex": "0x0",
          "logIndex": "0x2",
          "removed": false
        },
        {
          "address": "0x048255dfef2ebfa7307058ae475a3e2f5ee0df46",
          "topics": [
            "0x78160f0b1b2b32b52a0076d8f0f70888687ba702a4d993d55ac8d9327d57a127",
            "0x000000000000000000000000000000000000000000000000000000000000000f",
            "0xf89f96b5a20179e2267b1b61cf709c8a356443b4d0b4bc5f414344f74a9bb5f5",
            "0x4d32a94791afa5902a69b29b4b44d1aa165a332aa64dec3ab6ca8c72d8b56ffc"
          ],
          "data": "0x0544741ff6f2708047138c8f3a68abb994e628666dba785f685ff1035274f9fb00000000000000000000000000000000000000000000000000000000000000400000000000000000000000000000000000000000000000000000000000000080ceee63362ce5c16402dad8fd4e3ca0bcabf2e89d099a04b8f644d62aecf8acf0000000000000000000000000d289d1387ae1033a703842d69501d5bec5a6f04e000000000000000000000000f86c23c1e883ee3b820fb9be75ff91c9a49eae7500000000000000000000000000000000000000000000000000000000000f4240",
          "blockHash": "0x6cdd48a02263b4f9b266d92b3ceec57d2c80989b58dc8d3a4f387c7d82777498",
          "blockNumber": "0x2e",
          "blockTimestamp": "0x696675cb",
          "transactionHash": "0x027143c7fdbe2d1fa9d1d12129b448484c936efb4b939f6d861de48988de6329",
          "transactionIndex": "0x0",
          "logIndex": "0x3",
          "removed": false
        }
      ],
      "logsBloom": "0x00080000000000000000000000000000000000000000000000000000000000000000400000000000000000000000000000000000000000000000000002200000000000000000000804000000000000000004000100000000000000000002000000004000000800004000000000000000000000000000000000000000008000000008008000000800000000400000000008000000000080000000000000000000000000000000808000000000000000000000200200000020200000000000000000000000400000000008020000000000000000000200000000000000000001000000000200000000000000000000100000000000000000000000000000004000",
      "type": "0x0",
      "transactionHash": "0x027143c7fdbe2d1fa9d1d12129b448484c936efb4b939f6d861de48988de6329",
      "transactionIndex": "0x0",
      "blockHash": "0x6cdd48a02263b4f9b266d92b3ceec57d2c80989b58dc8d3a4f387c7d82777498",
      "blockNumber": "0x2e",
      "gasUsed": "0x52d69",
      "effectiveGasPrice": "0x3b9aca00",
      "blobGasPrice": "0x1",
      "from": "0xd289d1387ae1033a703842d69501d5bec5a6f04e",
      "to": "0x048255dfef2ebfa7307058ae475a3e2f5ee0df46",
      "contractAddress": null
    },
    {
      "status": "0x1",
      "cumulativeGasUsed": "0x6994",
      "logs": [],
      "logsBloom": "0x00000000000000000000000000000000000000000000000000000000000000000000000000000000000000000000000000000000000000000000000000000000000000000000000000000000000000000000000000000000000000000000000000000000000000000000000000000000000000000000000000000000000000000000000000000000000000000000000000000000000000000000000000000000000000000000000000000000000000000000000000000000000000000000000000000000000000000000000000000000000000000000000000000000000000000000000000000000000000000000000000000000000000000000000000000000",
      "type": "0x0",
      "transactionHash": "0xae7505372bb71a361ec9baadb51eeb6221d1a78291024b27c375177c699bfc3c",
      "transactionIndex": "0x0",
      "blockHash": "0xa3e25c635a143abff8c9419602feb2ba15b79437aa64c11fdfbd0bb6fcb7b348",
      "blockNumber": "0x2f",
      "gasUsed": "0x6994",
      "effectiveGasPrice": "0x3b9aca00",
      "blobGasPrice": "0x1",
      "from": "0xd289d1387ae1033a703842d69501d5bec5a6f04e",
      "to": "0x4d4adec97e3e11693f65dedc2d1e6bec784eb2f1",
      "contractAddress": null
    },
    {
      "status": "0x1",
      "cumulativeGasUsed": "0x5fd8",
      "logs": [],
      "logsBloom": "0x00000000000000000000000000000000000000000000000000000000000000000000000000000000000000000000000000000000000000000000000000000000000000000000000000000000000000000000000000000000000000000000000000000000000000000000000000000000000000000000000000000000000000000000000000000000000000000000000000000000000000000000000000000000000000000000000000000000000000000000000000000000000000000000000000000000000000000000000000000000000000000000000000000000000000000000000000000000000000000000000000000000000000000000000000000000",
      "type": "0x0",
      "transactionHash": "0x75124d4f3baf46dd500f8836ade2ccbacf01a1a37283b17ace877eaeea98fcba",
      "transactionIndex": "0x0",
      "blockHash": "0x9cece834488ed5b0a6cf71fa92346adee1ad15f9cb1f07057efcab6d297715a5",
      "blockNumber": "0x30",
      "gasUsed": "0x5fd8",
      "effectiveGasPrice": "0x3b9aca00",
      "blobGasPrice": "0x1",
      "from": "0xd289d1387ae1033a703842d69501d5bec5a6f04e",
      "to": "0x4d4adec97e3e11693f65dedc2d1e6bec784eb2f1",
      "contractAddress": null
    },
    {
      "status": "0x1",
      "cumulativeGasUsed": "0x50d2e",
      "logs": [
        {
          "address": "0x048255dfef2ebfa7307058ae475a3e2f5ee0df46",
          "topics": [
            "0x11039d948e58aabf982e09eab3f7ce6db7bf72add1d0b04e63f0697eac16024b",
            "0xee05772a542895427ddf02d6cb47b9027da7949441e78297ad0b8b2608b77382",
            "0x0000000000000000000000008828fd7431d5bb1962d7e067c103b2324fa6bbec",
            "0x00000000000000000000000097629064a9c06865c5b3832f94bb64a8e47bcad7"
          ],
          "data": "0x282866f5067804dadd2e500a0a3d8b5e5d2e5cde385e9ec6a887315613d6f4480000000000000000000000004d4adec97e3e11693f65dedc2d1e6bec784eb2f100000000000000000000000000000000000000000000000000000000000f4240",
          "blockHash": "0x6b39e4bee54ed2673eefc00731c017250f17f62f328ec5ae16ede7925e605e6c",
          "blockNumber": "0x31",
          "blockTimestamp": "0x696675ce",
          "transactionHash": "0xaacb7dc2a59e484fca7dd404e9afcc0ae3a3761199fb633af062573e2bd3f89e",
          "transactionIndex": "0x0",
          "logIndex": "0x0",
          "removed": false
        },
        {
          "address": "0x048255dfef2ebfa7307058ae475a3e2f5ee0df46",
          "topics": [
            "0x78160f0b1b2b32b52a0076d8f0f70888687ba702a4d993d55ac8d9327d57a127",
            "0x0000000000000000000000000000000000000000000000000000000000000010",
            "0x4d32a94791afa5902a69b29b4b44d1aa165a332aa64dec3ab6ca8c72d8b56ffc",
            "0x001292a54e47c86dddb5cb531961a3c3d9f6faa04c755632c6acca5441293b08"
          ],
          "data": "0x11039d948e58aabf982e09eab3f7ce6db7bf72add1d0b04e63f0697eac16024b000000000000000000000000000000000000000000000000000000000000004000000000000000000000000000000000000000000000000000000000000000c0ee05772a542895427ddf02d6cb47b9027da7949441e78297ad0b8b2608b773820000000000000000000000008828fd7431d5bb1962d7e067c103b2324fa6bbec00000000000000000000000097629064a9c06865c5b3832f94bb64a8e47bcad7282866f5067804dadd2e500a0a3d8b5e5d2e5cde385e9ec6a887315613d6f4480000000000000000000000004d4adec97e3e11693f65dedc2d1e6bec784eb2f100000000000000000000000000000000000000000000000000000000000f4240",
          "blockHash": "0x6b39e4bee54ed2673eefc00731c017250f17f62f328ec5ae16ede7925e605e6c",
          "blockNumber": "0x31",
          "blockTimestamp": "0x696675ce",
          "transactionHash": "0xaacb7dc2a59e484fca7dd404e9afcc0ae3a3761199fb633af062573e2bd3f89e",
          "transactionIndex": "0x0",
          "logIndex": "0x1",
          "removed": false
        },
        {
          "address": "0x048255dfef2ebfa7307058ae475a3e2f5ee0df46",
          "topics": [
            "0xc853b9fbc6265708cfc473efd1ce29b19a3616b3edccaeaf71a4a6b778cb010e",
            "0xee05772a542895427ddf02d6cb47b9027da7949441e78297ad0b8b2608b77382"
          ],
          "data": "0x0000000000000000000000000000000000000000000000000000000000002710000000000000000000000000000000000000000000000000000000000000007b00000000000000000000000000000000000000000000000000000000000f1ab5",
          "blockHash": "0x6b39e4bee54ed2673eefc00731c017250f17f62f328ec5ae16ede7925e605e6c",
          "blockNumber": "0x31",
          "blockTimestamp": "0x696675ce",
          "transactionHash": "0xaacb7dc2a59e484fca7dd404e9afcc0ae3a3761199fb633af062573e2bd3f89e",
          "transactionIndex": "0x0",
          "logIndex": "0x2",
          "removed": false
        },
        {
          "address": "0x048255dfef2ebfa7307058ae475a3e2f5ee0df46",
          "topics": [
            "0x78160f0b1b2b32b52a0076d8f0f70888687ba702a4d993d55ac8d9327d57a127",
            "0x0000000000000000000000000000000000000000000000000000000000000011",
            "0x001292a54e47c86dddb5cb531961a3c3d9f6faa04c755632c6acca5441293b08",
            "0xb1f52ec5933fb7337f0d25075bb759c812cfe831052e50bd0b449e31c46a6996"
          ],
          "data": "0xc853b9fbc6265708cfc473efd1ce29b19a3616b3edccaeaf71a4a6b778cb010e00000000000000000000000000000000000000000000000000000000000000400000000000000000000000000000000000000000000000000000000000000080ee05772a542895427ddf02d6cb47b9027da7949441e78297ad0b8b2608b773820000000000000000000000000000000000000000000000000000000000002710000000000000000000000000000000000000000000000000000000000000007b00000000000000000000000000000000000000000000000000000000000f1ab5",
          "blockHash": "0x6b39e4bee54ed2673eefc00731c017250f17f62f328ec5ae16ede7925e605e6c",
          "blockNumber": "0x31",
          "blockTimestamp": "0x696675ce",
          "transactionHash": "0xaacb7dc2a59e484fca7dd404e9afcc0ae3a3761199fb633af062573e2bd3f89e",
          "transactionIndex": "0x0",
          "logIndex": "0x3",
          "removed": false
        },
        {
          "address": "0x048255dfef2ebfa7307058ae475a3e2f5ee0df46",
          "topics": [
            "0x6f81b8ad0780a0febc687a3a73b181433722b4be30f7f0a024169f5161267287",
            "0xee05772a542895427ddf02d6cb47b9027da7949441e78297ad0b8b2608b77382",
            "0x000000000000000000000000d289d1387ae1033a703842d69501d5bec5a6f04e"
          ],
          "data": "0x00000000000000000000000000000000000000000000000000000000000000010000000000000000000000004d4adec97e3e11693f65dedc2d1e6bec784eb2f100000000000000000000000000000000000000000000000000000000000f4240000000000000000000000000d289d1387ae1033a703842d69501d5bec5a6f04e000000000000000000000000000000000000000000000000000000006967c74e00000000000000000000000000000000000000000000000000000000000000c0000000000000000000000000000000000000000000000000000000000000004000000000000000000000000097629064a9c06865c5b3832f94bb64a8e47bcad700000000000000000000000000000000000000000000000000000000000f1ab5",
          "blockHash": "0x6b39e4bee54ed2673eefc00731c017250f17f62f328ec5ae16ede7925e605e6c",
          "blockNumber": "0x31",
          "blockTimestamp": "0x696675ce",
          "transactionHash": "0xaacb7dc2a59e484fca7dd404e9afcc0ae3a3761199fb633af062573e2bd3f89e",
          "transactionIndex": "0x0",
          "logIndex": "0x4",
          "removed": false
        },
        {
          "address": "0x048255dfef2ebfa7307058ae475a3e2f5ee0df46",
          "topics": [
            "0x78160f0b1b2b32b52a0076d8f0f70888687ba702a4d993d55ac8d9327d57a127",
            "0x0000000000000000000000000000000000000000000000000000000000000012",
            "0xb1f52ec5933fb7337f0d25075bb759c812cfe831052e50bd0b449e31c46a6996",
            "0xc393dcc2f4772c8801d0ca7ed6b4630c10b16f49cf67cfb67ecc007bd842f077"
          ],
          "data": "0x6f81b8ad0780a0febc687a3a73b181433722b4be30f7f0a024169f516126728700000000000000000000000000000000000000000000000000000000000000400000000000000000000000000000000000000000000000000000000000000160ee05772a542895427ddf02d6cb47b9027da7949441e78297ad0b8b2608b77382000000000000000000000000d289d1387ae1033a703842d69501d5bec5a6f04e00000000000000000000000000000000000000000000000000000000000000010000000000000000000000004d4adec97e3e11693f65dedc2d1e6bec784eb2f100000000000000000000000000000000000000000000000000000000000f4240000000000000000000000000d289d1387ae1033a703842d69501d5bec5a6f04e000000000000000000000000000000000000000000000000000000006967c74e0000000000000000000000000000000000000000000000000000000000000100000000000000000000000000000000000000000000000000000000000000004000000000000000000000000097629064a9c06865c5b3832f94bb64a8e47bcad700000000000000000000000000000000000000000000000000000000000f1ab5",
          "blockHash": "0x6b39e4bee54ed2673eefc00731c017250f17f62f328ec5ae16ede7925e605e6c",
          "blockNumber": "0x31",
          "blockTimestamp": "0x696675ce",
          "transactionHash": "0xaacb7dc2a59e484fca7dd404e9afcc0ae3a3761199fb633af062573e2bd3f89e",
          "transactionIndex": "0x0",
          "logIndex": "0x5",
          "removed": false
        },
        {
          "address": "0x048255dfef2ebfa7307058ae475a3e2f5ee0df46",
          "topics": [
            "0xbc3f7b7e77a395c156c24db8a8a7850209b2df71a2561292eea221e32bf5d467",
            "0xee05772a542895427ddf02d6cb47b9027da7949441e78297ad0b8b2608b77382",
            "0x000000000000000000000000d289d1387ae1033a703842d69501d5bec5a6f04e"
          ],
          "data": "0x00000000000000000000000000000000000000000000000000000000000f4240",
          "blockHash": "0x6b39e4bee54ed2673eefc00731c017250f17f62f328ec5ae16ede7925e605e6c",
          "blockNumber": "0x31",
          "blockTimestamp": "0x696675ce",
          "transactionHash": "0xaacb7dc2a59e484fca7dd404e9afcc0ae3a3761199fb633af062573e2bd3f89e",
          "transactionIndex": "0x0",
          "logIndex": "0x6",
          "removed": false
        },
        {
          "address": "0x048255dfef2ebfa7307058ae475a3e2f5ee0df46",
          "topics": [
            "0x78160f0b1b2b32b52a0076d8f0f70888687ba702a4d993d55ac8d9327d57a127",
            "0x0000000000000000000000000000000000000000000000000000000000000013",
            "0xc393dcc2f4772c8801d0ca7ed6b4630c10b16f49cf67cfb67ecc007bd842f077",
            "0x385e97a560314e7759ed0870245585b74103990e33c527e2ebcd56069183bab5"
          ],
          "data": "0xbc3f7b7e77a395c156c24db8a8a7850209b2df71a2561292eea221e32bf5d46700000000000000000000000000000000000000000000000000000000000000400000000000000000000000000000000000000000000000000000000000000060ee05772a542895427ddf02d6cb47b9027da7949441e78297ad0b8b2608b77382000000000000000000000000d289d1387ae1033a703842d69501d5bec5a6f04e00000000000000000000000000000000000000000000000000000000000f4240",
          "blockHash": "0x6b39e4bee54ed2673eefc00731c017250f17f62f328ec5ae16ede7925e605e6c",
          "blockNumber": "0x31",
          "blockTimestamp": "0x696675ce",
          "transactionHash": "0xaacb7dc2a59e484fca7dd404e9afcc0ae3a3761199fb633af062573e2bd3f89e",
          "transactionIndex": "0x0",
          "logIndex": "0x7",
          "removed": false
        }
      ],
      "logsBloom": "0x200c0080180000002000000000800000000000000800002000000000000000000000000040810000000000000000000000000000000000000000000001300000000000000000000004000000000010000800000104000004000000000000000000004000500800004000000000840000000000024000000400004000040000000000000000000000000000000000140010000100000000000000000000000000000000000000008000000000000000000000200200000040202000000400000100001000400000000400000000000000000000010200000000000000000000040000002000000000000000000000100000000000000000000000000000004002",
      "type": "0x0",
      "transactionHash": "0xaacb7dc2a59e484fca7dd404e9afcc0ae3a3761199fb633af062573e2bd3f89e",
      "transactionIndex": "0x0",
      "blockHash": "0x6b39e4bee54ed2673eefc00731c017250f17f62f328ec5ae16ede7925e605e6c",
      "blockNumber": "0x31",
      "gasUsed": "0x50d2e",
      "effectiveGasPrice": "0x3b9aca00",
      "blobGasPrice": "0x1",
      "from": "0xd289d1387ae1033a703842d69501d5bec5a6f04e",
      "to": "0x048255dfef2ebfa7307058ae475a3e2f5ee0df46",
      "contractAddress": null
    },
    {
      "status": "0x1",
      "cumulativeGasUsed": "0xac54",
      "logs": [],
      "logsBloom": "0x00000000000000000000000000000000000000000000000000000000000000000000000000000000000000000000000000000000000000000000000000000000000000000000000000000000000000000000000000000000000000000000000000000000000000000000000000000000000000000000000000000000000000000000000000000000000000000000000000000000000000000000000000000000000000000000000000000000000000000000000000000000000000000000000000000000000000000000000000000000000000000000000000000000000000000000000000000000000000000000000000000000000000000000000000000000",
      "type": "0x0",
      "transactionHash": "0x0d8dec5167e05d6b271b0dd018bf062e8047a6c61f9322b4afb63586e3c018c9",
      "transactionIndex": "0x0",
      "blockHash": "0xb56f7201ac3ac4b3e7306c7303623e7792224ba774cb75192110fc6c986de438",
      "blockNumber": "0x32",
      "gasUsed": "0xac54",
      "effectiveGasPrice": "0x3b9aca00",
      "blobGasPrice": "0x1",
      "from": "0xd289d1387ae1033a703842d69501d5bec5a6f04e",
      "to": "0x4d4adec97e3e11693f65dedc2d1e6bec784eb2f1",
      "contractAddress": null
    },
    {
      "status": "0x1",
      "cumulativeGasUsed": "0x3d7f7",
      "logs": [
        {
          "address": "0x8828fd7431d5bb1962d7e067c103b2324fa6bbec",
          "topics": [
            "0x7391f14355eff1e559e381f5bf49886a77da7c4fdd33c6fc2e0142269c561c59",
            "0x8c4a80b608fff7a7cb1f1639913031db92696be712ee8469533b8298c78aa87e",
            "0x7eb964445de6c2e66bcec24d55b50c465b3b27091b6d503c1897ac7d99ecbe35",
            "0x38cb7bc9535f8b89744a14dd2acfe7dcc993eb5f668dfbcb95bdf21a839e2ec0"
          ],
          "data": "0x805137159b1f1225efc7ae36f6b216b76c0e9bed085c4220b2f702fde8defd0400000000000000000000000000000000000000000000000000000000000000de000000000000000000000000048255dfef2ebfa7307058ae475a3e2f5ee0df46000000000000000000000000000000000000000000000000000000000000000100000000000000000000000000000000000000000000000000000000009897cd0000000000000000000000004d4adec97e3e11693f65dedc2d1e6bec784eb2f10000000000000000000000004d4adec97e3e11693f65dedc2d1e6bec784eb2f1000000000000000000000000861529c93d74a2d9b8d7d0009b7c183dceb54e3e000000000000000000000000861529c93d74a2d9b8d7d0009b7c183dceb54e3e",
          "blockHash": "0x1b29cd73967c98c17aa52cb50fe8ad0f43185dd27eb80f0c08516d1543426cea",
          "blockNumber": "0x33",
          "blockTimestamp": "0x696675d0",
          "transactionHash": "0x46716b37a090c7580609d90a277c38f488662af8f3b8faa0c82c42ebefd0a566",
          "transactionIndex": "0x0",
          "logIndex": "0x0",
          "removed": false
        },
        {
          "address": "0x8828fd7431d5bb1962d7e067c103b2324fa6bbec",
          "topics": [
            "0x78160f0b1b2b32b52a0076d8f0f70888687ba702a4d993d55ac8d9327d57a127",
            "0x0000000000000000000000000000000000000000000000000000000000000010",
            "0x951dd7ba01eb9535310ed6cd430fa45a680d9f7b19db9589d665343d725344ff",
            "0x28e405a92a6dd12df01c9e191f6aa7f4216a813252461109236b240dd5006002"
          ],
          "data": "0x7391f14355eff1e559e381f5bf49886a77da7c4fdd33c6fc2e0142269c561c59000000000000000000000000000000000000000000000000000000000000004000000000000000000000000000000000000000000000000000000000000001808c4a80b608fff7a7cb1f1639913031db92696be712ee8469533b8298c78aa87e7eb964445de6c2e66bcec24d55b50c465b3b27091b6d503c1897ac7d99ecbe3538cb7bc9535f8b89744a14dd2acfe7dcc993eb5f668dfbcb95bdf21a839e2ec0805137159b1f1225efc7ae36f6b216b76c0e9bed085c4220b2f702fde8defd0400000000000000000000000000000000000000000000000000000000000000de000000000000000000000000048255dfef2ebfa7307058ae475a3e2f5ee0df46000000000000000000000000000000000000000000000000000000000000000100000000000000000000000000000000000000000000000000000000009897cd0000000000000000000000004d4adec97e3e11693f65dedc2d1e6bec784eb2f10000000000000000000000004d4adec97e3e11693f65dedc2d1e6bec784eb2f1000000000000000000000000861529c93d74a2d9b8d7d0009b7c183dceb54e3e000000000000000000000000861529c93d74a2d9b8d7d0009b7c183dceb54e3e",
          "blockHash": "0x1b29cd73967c98c17aa52cb50fe8ad0f43185dd27eb80f0c08516d1543426cea",
          "blockNumber": "0x33",
          "blockTimestamp": "0x696675d0",
          "transactionHash": "0x46716b37a090c7580609d90a277c38f488662af8f3b8faa0c82c42ebefd0a566",
          "transactionIndex": "0x0",
          "logIndex": "0x1",
          "removed": false
        },
        {
          "address": "0x8828fd7431d5bb1962d7e067c103b2324fa6bbec",
          "topics": [
            "0x488f06a9ca9e19e1dd90c764cc79b765e8a3a089ef27d9a0e39dee21c7643188",
            "0xb3cb2e80a7de33973a9288caef1d4d48cc21929625b89e97e8107fcc275dbc86",
            "0x000000000000000000000000861529c93d74a2d9b8d7d0009b7c183dceb54e3e"
          ],
          "data": "0x000000000000000000000000e007a594267d5b9a4f5bf6fd054579eb82f5a057",
          "blockHash": "0x1b29cd73967c98c17aa52cb50fe8ad0f43185dd27eb80f0c08516d1543426cea",
          "blockNumber": "0x33",
          "blockTimestamp": "0x696675d0",
          "transactionHash": "0x46716b37a090c7580609d90a277c38f488662af8f3b8faa0c82c42ebefd0a566",
          "transactionIndex": "0x0",
          "logIndex": "0x2",
          "removed": false
        },
        {
          "address": "0x8828fd7431d5bb1962d7e067c103b2324fa6bbec",
          "topics": [
            "0x78160f0b1b2b32b52a0076d8f0f70888687ba702a4d993d55ac8d9327d57a127",
            "0x0000000000000000000000000000000000000000000000000000000000000011",
            "0x28e405a92a6dd12df01c9e191f6aa7f4216a813252461109236b240dd5006002",
            "0xfe73b0a71337236fee5d076ee187862b4e8dc99525906d8bf1ef48290c60712e"
          ],
          "data": "0x488f06a9ca9e19e1dd90c764cc79b765e8a3a089ef27d9a0e39dee21c764318800000000000000000000000000000000000000000000000000000000000000400000000000000000000000000000000000000000000000000000000000000060b3cb2e80a7de33973a9288caef1d4d48cc21929625b89e97e8107fcc275dbc86000000000000000000000000861529c93d74a2d9b8d7d0009b7c183dceb54e3e000000000000000000000000e007a594267d5b9a4f5bf6fd054579eb82f5a057",
          "blockHash": "0x1b29cd73967c98c17aa52cb50fe8ad0f43185dd27eb80f0c08516d1543426cea",
          "blockNumber": "0x33",
          "blockTimestamp": "0x696675d0",
          "transactionHash": "0x46716b37a090c7580609d90a277c38f488662af8f3b8faa0c82c42ebefd0a566",
          "transactionIndex": "0x0",
          "logIndex": "0x3",
          "removed": false
        },
        {
          "address": "0x8828fd7431d5bb1962d7e067c103b2324fa6bbec",
          "topics": [
            "0x2dfcf646f953b41d2cd9d30bcf3f6cda5248efcd7733adff3a25e88f35b8afcb",
            "0x8c4a80b608fff7a7cb1f1639913031db92696be712ee8469533b8298c78aa87e",
            "0x000000000000000000000000c5ea444a0f556f5b227ec7447294d91086bb692c",
            "0x0000000000000000000000004d4adec97e3e11693f65dedc2d1e6bec784eb2f1"
          ],
          "data": "0x00000000000000000000000000000000000000000000000000000000009897cd00000000000000000000000000000000000000000000000000000000000000de",
          "blockHash": "0x1b29cd73967c98c17aa52cb50fe8ad0f43185dd27eb80f0c08516d1543426cea",
          "blockNumber": "0x33",
          "blockTimestamp": "0x696675d0",
          "transactionHash": "0x46716b37a090c7580609d90a277c38f488662af8f3b8faa0c82c42ebefd0a566",
          "transactionIndex": "0x0",
          "logIndex": "0x4",
          "removed": false
        },
        {
          "address": "0x8828fd7431d5bb1962d7e067c103b2324fa6bbec",
          "topics": [
            "0x78160f0b1b2b32b52a0076d8f0f70888687ba702a4d993d55ac8d9327d57a127",
            "0x0000000000000000000000000000000000000000000000000000000000000012",
            "0xfe73b0a71337236fee5d076ee187862b4e8dc99525906d8bf1ef48290c60712e",
            "0xae10cb81de32e3f274536f6508bb3ad865731a03ab3e14e8b2ea8073d5b13634"
          ],
          "data": "0x2dfcf646f953b41d2cd9d30bcf3f6cda5248efcd7733adff3a25e88f35b8afcb000000000000000000000000000000000000000000000000000000000000004000000000000000000000000000000000000000000000000000000000000000a08c4a80b608fff7a7cb1f1639913031db92696be712ee8469533b8298c78aa87e000000000000000000000000c5ea444a0f556f5b227ec7447294d91086bb692c0000000000000000000000004d4adec97e3e11693f65dedc2d1e6bec784eb2f100000000000000000000000000000000000000000000000000000000009897cd00000000000000000000000000000000000000000000000000000000000000de",
          "blockHash": "0x1b29cd73967c98c17aa52cb50fe8ad0f43185dd27eb80f0c08516d1543426cea",
          "blockNumber": "0x33",
          "blockTimestamp": "0x696675d0",
          "transactionHash": "0x46716b37a090c7580609d90a277c38f488662af8f3b8faa0c82c42ebefd0a566",
          "transactionIndex": "0x0",
          "logIndex": "0x5",
          "removed": false
        },
        {
          "address": "0x8828fd7431d5bb1962d7e067c103b2324fa6bbec",
          "topics": [
            "0x2e659081f44c4f56a18b00f3f9d136d7ee8396bc79163c4d61363ddcf4a4cb27",
            "0x8c4a80b608fff7a7cb1f1639913031db92696be712ee8469533b8298c78aa87e"
          ],
          "data": "0x000000000000000000000000000000000000000000000000000000000000000100000000000000000000000000000000000000000000000000000000009897cd00000000000000000000000000000000000000000000000000000000009897cd000000000000000000000000000000000000000000000000000000000000000000000000000000000000000000000000000000000000000000000000000000000000000000000000000000000000000000000000000000000000000000000000000000000000000000000000c5ea444a0f556f5b227ec7447294d91086bb692c00000000000000000000000000000000000000000000000000000000009897cdc5d2460186f7233c927e7db2dcc703c0e500b653ca82273b7bfad8045d85a470",
          "blockHash": "0x1b29cd73967c98c17aa52cb50fe8ad0f43185dd27eb80f0c08516d1543426cea",
          "blockNumber": "0x33",
          "blockTimestamp": "0x696675d0",
          "transactionHash": "0x46716b37a090c7580609d90a277c38f488662af8f3b8faa0c82c42ebefd0a566",
          "transactionIndex": "0x0",
          "logIndex": "0x6",
          "removed": false
        },
        {
          "address": "0x8828fd7431d5bb1962d7e067c103b2324fa6bbec",
          "topics": [
            "0x78160f0b1b2b32b52a0076d8f0f70888687ba702a4d993d55ac8d9327d57a127",
            "0x0000000000000000000000000000000000000000000000000000000000000013",
            "0xae10cb81de32e3f274536f6508bb3ad865731a03ab3e14e8b2ea8073d5b13634",
            "0x1b5eaeaec72a09da2d4a37f286a934c50de2f236fdde814af33ece3389cd4ae8"
          ],
          "data": "0x2e659081f44c4f56a18b00f3f9d136d7ee8396bc79163c4d61363ddcf4a4cb27000000000000000000000000000000000000000000000000000000000000004000000000000000000000000000000000000000000000000000000000000001408c4a80b608fff7a7cb1f1639913031db92696be712ee8469533b8298c78aa87e000000000000000000000000000000000000000000000000000000000000000100000000000000000000000000000000000000000000000000000000009897cd00000000000000000000000000000000000000000000000000000000009897cd000000000000000000000000000000000000000000000000000000000000000000000000000000000000000000000000000000000000000000000000000000000000000000000000000000000000000000000000000000000000000000000000000000000000000000000000c5ea444a0f556f5b227ec7447294d91086bb692c00000000000000000000000000000000000000000000000000000000009897cdc5d2460186f7233c927e7db2dcc703c0e500b653ca82273b7bfad8045d85a470",
          "blockHash": "0x1b29cd73967c98c17aa52cb50fe8ad0f43185dd27eb80f0c08516d1543426cea",
          "blockNumber": "0x33",
          "blockTimestamp": "0x696675d0",
          "transactionHash": "0x46716b37a090c7580609d90a277c38f488662af8f3b8faa0c82c42ebefd0a566",
          "transactionIndex": "0x0",
          "logIndex": "0x7",
          "removed": false
        }
      ],
      "logsBloom": "0x20000001100000000000020000800000000000000800000000000000040002000800002040000000000000000000000200000000000000000000000000200000000000000200000001000000400000800020000000000000080000100002000000000020000800000000000400040808000000004000000080000000040000000080000000040080000010200000040000000100000000020480000020000000000008000000400000000000000000100000000018000040000100000400000004201000008408000400000000000000000000000000000400000000001000000000000000000002000000040000000100000000000000400000002400004000",
      "type": "0x0",
      "transactionHash": "0x46716b37a090c7580609d90a277c38f488662af8f3b8faa0c82c42ebefd0a566",
      "transactionIndex": "0x0",
      "blockHash": "0x1b29cd73967c98c17aa52cb50fe8ad0f43185dd27eb80f0c08516d1543426cea",
      "blockNumber": "0x33",
      "gasUsed": "0x3d7f7",
      "effectiveGasPrice": "0x3b9aca00",
      "blobGasPrice": "0x1",
      "from": "0xd289d1387ae1033a703842d69501d5bec5a6f04e",
      "to": "0x8828fd7431d5bb1962d7e067c103b2324fa6bbec",
      "contractAddress": null
    }
  ],
  "libraries": [],
  "pending": [],
  "returns": {},
  "timestamp": 1768322497754,
  "chain": 333,
  "commit": "24bfcfb"
}