{
  "transactions": [
    {
      "hash": "0x27293f5718b76b30e19eac7b39cdaec639e4442cb824831afe4937091f2e36a2",
      "transactionType": "CALL",
      "contractName": null,
      "contractAddress": "0x048255dfef2ebfa7307058ae475a3e2f5ee0df46",
      "function": "closeIntent(bytes32)",
      "arguments": [
        "0xceee63362ce5c16402dad8fd4e3ca0bcabf2e89d099a04b8f644d62aecf8acf0"
      ],
      "transaction": {
        "from": "0xd289d1387ae1033a703842d69501d5bec5a6f04e",
        "to": "0x048255dfef2ebfa7307058ae475a3e2f5ee0df46",
        "value": "0x0",
        "input": "0x51ead90aceee63362ce5c16402dad8fd4e3ca0bcabf2e89d099a04b8f644d62aecf8acf0",
        "nonce": "0x48",
        "chainId": "0xde"
      },
      "additionalContracts": [],
      "isFixedGasLimit": false
    },
    {
      "hash": "0x417addc32839ab04eda73e15f4286c9ae494a279b699bde175d4efb7ce899844",
      "transactionType": "CALL",
      "contractName": null,
      "contractAddress": "0x048255dfef2ebfa7307058ae475a3e2f5ee0df46",
      "function": "unclaimIntent(bytes32)",
      "arguments": [
        "0xee05772a542895427ddf02d6cb47b9027da7949441e78297ad0b8b2608b77382"
      ],
      "transaction": {
        "from": "0xd289d1387ae1033a703842d69501d5bec5a6f04e",
        "to": "0x048255dfef2ebfa7307058ae475a3e2f5ee0df46",
        "value": "0x0",
        "input": "0x64a486c4ee05772a542895427ddf02d6cb47b9027da7949441e78297ad0b8b2608b77382",
        "nonce": "0x49",
        "chainId": "0xde"
      },
      "additionalContracts": [],
      "isFixedGasLimit": false
    }
  ],
  "receipts": [
    {
      "status": "0x1",
      "cumulativeGasUsed": "0x17083",
      "logs": [
        {
          "address": "0x048255dfef2ebfa7307058ae475a3e2f5ee0df46",
          "topics": [
            "0x6db2da0f661d59d5a9c767b6ba61a9c192765a6aab952e5e53ea77175332f13d",
            "0xceee63362ce5c16402dad8fd4e3ca0bcabf2e89d099a04b8f644d62aecf8acf0",
            "0x000000000000000000000000d289d1387ae1033a703842d69501d5bec5a6f04e"
          ],
          "data": "0x000000000000000000000000000000000000000000000000000000000000000000000000000000000000000000000000000000000000000000000000000000010000000000000000000000000000000000000000000000000000000000000000000000000000000000000000d289d1387ae1033a703842d69501d5bec5a6f04e000000000000000000000000f86c23c1e883ee3b820fb9be75ff91c9a49eae7500000000000000000000000000000000000000000000000000000000000f42400000000000000000000000004d4adec97e3e11693f65dedc2d1e6bec784eb2f1000000000000000000000000000000000000000000000000000000000000000000000000000000000000000000000000000000000000000000000000000000000000000000000000000000000000000000000000000000000000000000000000",
          "blockHash": "0x735904e5056ecabbe47d7bb949b6420d865c589232795b2ce7f7a5aed8cc352a",
          "blockNumber": "0x4a",
          "blockTimestamp": "0x6966783e",
          "transactionHash": "0x27293f5718b76b30e19eac7b39cdaec639e4442cb824831afe4937091f2e36a2",
          "transactionIndex": "0x0",
          "logIndex": "0x0",
          "removed": false
        },
        {
          "address": "0x048255dfef2ebfa7307058ae475a3e2f5ee0df46",
          "topics": [
            "0x78160f0b1b2b32b52a0076d8f0f70888687ba702a4d993d55ac8d9327d57a127",
            "0x0000000000000000000000000000000000000000000000000000000000000029",
            "0xd2f300dc84dbd0b79cc16d409d4561bde0c147b79ab2e91fe1022b700f046840",
            "0xa1259a21f458a2c3b4983db6a9821d95cb31243a07f07eb1ae1be93a65886531"
          ],
          "data": "0x6db2da0f661d59d5a9c767b6ba61a9c192765a6aab952e5e53ea77175332f13d00000000000000000000000000000000000000000000000000000000000000400000000000000000000000000000000000000000000000000000000000000180ceee63362ce5c16402dad8fd4e3ca0bcabf2e89d099a04b8f644d62aecf8acf0000000000000000000000000d289d1387ae1033a703842d69501d5bec5a6f04e000000000000000000000000000000000000000000000000000000000000000000000000000000000000000000000000000000000000000000000000000000010000000000000000000000000000000000000000000000000000000000000000000000000000000000000000d289d1387ae1033a703842d69501d5bec5a6f04e000000000000000000000000f86c23c1e883ee3b820fb9be75ff91c9a49eae7500000000000000000000000000000000000000000000000000000000000f42400000000000000000000000004d4adec97e3e11693f65dedc2d1e6bec784eb2f1000000000000000000000000000000000000000000000000000000000000000000000000000000000000000000000000000000000000000000000000000000000000000000000000000000000000000000000000000000000000000000000000",
          "blockHash": "0x735904e5056ecabbe47d7bb949b6420d865c589232795b2ce7f7a5aed8cc352a",
          "blockNumber": "0x4a",
          "blockTimestamp": "0x6966783e",
          "transactionHash": "0x27293f5718b76b30e19eac7b39cdaec639e4442cb824831afe4937091f2e36a2",
          "transactionIndex": "0x0",
          "logIndex": "0x1",
          "removed": false
        }
      ],
      "logsBloom": "0x00000000000000000000000000008000000000240000000000000000000000000000400000000000000000000000000000000000000000000000000002200000000000000000000004000000000000000000000000000000000000000000000000000000000840004000010400000000000000000000000000000000000000000000000000000000000000040000000010000000000000000000400000000000000000000000000000000000200000000000000200000000000080000000000000000000400000000008000000000000000000000a00000000000000000000000000000000000000000000000000100000000000000000000000000000004000",
      "type": "0x0",
      "transactionHash": "0x27293f5718b76b30e19eac7b39cdaec639e4442cb824831afe4937091f2e36a2",
      "transactionIndex": "0x0",
      "blockHash": "0x735904e5056ecabbe47d7bb949b6420d865c589232795b2ce7f7a5aed8cc352a",
      "blockNumber": "0x4a",
      "gasUsed": "0x17083",
      "effectiveGasPrice": "0x3b9aca00",
      "blobGasPrice": "0x1",
      "from": "0xd289d1387ae1033a703842d69501d5bec5a6f04e",
      "to": "0x048255dfef2ebfa7307058ae475a3e2f5ee0df46",
      "contractAddress": null
    },
    {
      "status": "0x1",
      "cumulativeGasUsed": "0xd6bb",
      "logs": [
        {
          "address": "0x048255dfef2ebfa7307058ae475a3e2f5ee0df46",
          "topics": [
            "0x089e9c366bcec979807d16f1dfd778c175797b866f6369dbdf880a2bb7e7179c",
            "0xee05772a542895427ddf02d6cb47b9027da7949441e78297ad0b8b2608b77382",
            "0x000000000000000000000000d289d1387ae1033a703842d69501d5bec5a6f04e",
            "0x000000000000000000000000d289d1387ae1033a703842d69501d5bec5a6f04e"
          ],
          "data": "0x00000000000000000000000000000000000000000000000000000000000000000000000000000000000000000000000000000000000000000000000000000000000000000000000000000000000000000000000000000000000000000000000000000000000000000000000000000000000000000000000000000000000f4240",
          "blockHash": "0xf03246b4bd872fddb106ab426599278c7525a26d6acdc8e5b7acf6c31c3c2bd2",
          "blockNumber": "0x4b",
          "blockTimestamp": "0x6966783f",
          "transactionHash": "0x417addc32839ab04eda73e15f4286c9ae494a279b699bde175d4efb7ce899844",
          "transactionIndex": "0x0",
          "logIndex": "0x0",
          "removed": false
        },
        {
          "address": "0x048255dfef2ebfa7307058ae475a3e2f5ee0df46",
          "topics": [
            "0x78160f0b1b2b32b52a0076d8f0f70888687ba702a4d993d55ac8d9327d57a127",
            "0x000000000000000000000000000000000000000000000000000000000000002a",
            "0xa1259a21f458a2c3b4983db6a9821d95cb31243a07f07eb1ae1be93a65886531",
            "0xe22623a5b0da528e9525e87f21b1f2171f0ea2a4b47844dac615d63eddb85536"
          ],
          "data": "0x089e9c366bcec979807d16f1dfd778c175797b866f6369dbdf880a2bb7e7179c000000000000000000000000000000000000000000000000000000000000004000000000000000000000000000000000000000000000000000000000000000e0ee05772a542895427ddf02d6cb47b9027da7949441e78297ad0b8b2608b77382000000000000000000000000d289d1387ae1033a703842d69501d5bec5a6f04e000000000000000000000000d289d1387ae1033a703842d69501d5bec5a6f04e00000000000000000000000000000000000000000000000000000000000000000000000000000000000000000000000000000000000000000000000000000000000000000000000000000000000000000000000000000000000000000000000000000000000000000000000000000000000000000000000000000000000f4240",
          "blockHash": "0xf03246b4bd872fddb106ab426599278c7525a26d6acdc8e5b7acf6c31c3c2bd2",
          "blockNumber": "0x4b",
          "blockTimestamp": "0x6966783f",
          "transactionHash": "0x417addc32839ab04eda73e15f4286c9ae494a279b699bde175d4efb7ce899844",
          "transactionIndex": "0x0",
          "logIndex": "0x1",
          "removed": false
        }
      ],
      "logsBloom": "0x00000000080000000000000000000000000000200000000000000000000000000000000000004000000000000000000000000000000000000000000000300000000000000000000004000000000000000000000000000000000000040000000000000000000800004000000400000000000000000040000000000800000000000000000000000000000000000000000000000000000000000000400000000000000000000000000000000000000000010000000200000000000000000000000108000000400000000000000000000000000000000200000000000000000000100000000000000000000000000020100000020000000000000000000000004000",
      "type": "0x0",
      "transactionHash": "0x417addc32839ab04eda73e15f4286c9ae494a279b699bde175d4efb7ce899844",
      "transactionIndex": "0x0",
      "blockHash": "0xf03246b4bd872fddb106ab426599278c7525a26d6acdc8e5b7acf6c31c3c2bd2",
      "blockNumber": "0x4b",
      "gasUsed": "0xd6bb",
      "effectiveGasPrice": "0x3b9aca00",
      "blobGasPrice": "0x1",
      "from": "0xd289d1387ae1033a703842d69501d5bec5a6f04e",
      "to": "0x048255dfef2ebfa7307058ae475a3e2f5ee0df46",
      "contractAddress": null
    }
  ],
  "libraries": [],
  "pending": [],
  "returns": {},
  "timestamp": 1768322532382,
  "chain": 222,
  "commit": "24bfcfb"
}