{
  "transactions": [
    {
      "hash": "0x752cf27c14b68b52df79950367df8b1d204fc31a016cae52b435ee6c87891e74",
      "transactionType": "CALL",
      "contractName": null,
      "contractAddress": "0x8828fd7431d5bb1962d7e067c103b2324fa6bbec",
      "function": "setBridgers(address,address)",
      "arguments": [
        "0x789b4DF88A9BDeb28C84c8Bd89F5099110Ca51aE",
        "0x0D783E28253894a18f897dF776d66df9dFF2474e"
      ],
      "transaction": {
        "from": "0xd289d1387ae1033a703842d69501d5bec5a6f04e",
        "to": "0x8828fd7431d5bb1962d7e067c103b2324fa6bbec",
        "value": "0x0",
        "input": "0x2b0f3ee4000000000000000000000000789b4df88a9bdeb28c84c8bd89f5099110ca51ae0000000000000000000000000d783e28253894a18f897df776d66df9dff2474e",
        "nonce": "0x31",
        "chainId": "0x6f"
      },
      "additionalContracts": [],
      "isFixedGasLimit": false
    },
    {
      "hash": "0x0cb9cb57d559b5cd462557575ce399d82377e4d5f62cbcca18b3fb90e1b3cf28",
      "transactionType": "CALL",
      "contractName": null,
      "contractAddress": "0x8828fd7431d5bb1962d7e067c103b2324fa6bbec",
      "function": "setQuoter(address,address)",
      "arguments": [
        "0x4D4aDEc97e3e11693F65dEDC2D1e6Bec784eB2F1",
        "0x84e1DFe9b4404EdE126DDcCd75f370A0aef6e569"
      ],
      "transaction": {
        "from": "0xd289d1387ae1033a703842d69501d5bec5a6f04e",
        "to": "0x8828fd7431d5bb1962d7e067c103b2324fa6bbec",
        "value": "0x0",
        "input": "0x6264257a0000000000000000000000004d4adec97e3e11693f65dedc2d1e6bec784eb2f100000000000000000000000084e1dfe9b4404ede126ddccd75f370a0aef6e569",
        "nonce": "0x32",
        "chainId": "0x6f"
      },
      "additionalContracts": [],
      "isFixedGasLimit": false
    },
    {
      "hash": "0x54f47f48f98d5ddc6bc1b86b5e6fa2ab99d040509707cc723e894a602500d5c4",
      "transactionType": "CALL",
      "contractName": null,
      "contractAddress": "0x048255dfef2ebfa7307058ae475a3e2f5ee0df46",
      "function": "setRecommendedIntentFee(uint256,uint256)",
      "arguments": [
        "0",
        "0"
      ],
      "transaction": {
        "from": "0xd289d1387ae1033a703842d69501d5bec5a6f04e",
        "to": "0x048255dfef2ebfa7307058ae475a3e2f5ee0df46",
        "value": "0x0",
        "input": "0xf2af970b00000000000000000000000000000000000000000000000000000000000000000000000000000000000000000000000000000000000000000000000000000000",
        "nonce": "0x33",
        "chainId": "0x6f"
      },
      "additionalContracts": [],
      "isFixedGasLimit": false
    }
  ],
  "receipts": [
    {
      "status": "0x1",
      "cumulativeGasUsed": "0xc546",
      "logs": [
        {
          "address": "0x8828fd7431d5bb1962d7e067c103b2324fa6bbec",
          "topics": [
            "0x14c028d3d668eb3454bce44d123ceeeb9fb4e74bee073c41f4001e63f0613094",
            "0x000000000000000000000000789b4df88a9bdeb28c84c8bd89f5099110ca51ae",
            "0x0000000000000000000000000d783e28253894a18f897df776d66df9dff2474e"
          ],
          "data": "0x",
          "blockHash": "0x56d4357e3312531f7868ccb49433cebb337c2b56b0a37f2ee045c023137f64bd",
          "blockNumber": "0x32",
          "blockTimestamp": "0x69665f06",
          "transactionHash": "0x752cf27c14b68b52df79950367df8b1d204fc31a016cae52b435ee6c87891e74",
          "transactionIndex": "0x0",
          "logIndex": "0x0",
          "removed": false
        },
        {
          "address": "0x8828fd7431d5bb1962d7e067c103b2324fa6bbec",
          "topics": [
            "0x78160f0b1b2b32b52a0076d8f0f70888687ba702a4d993d55ac8d9327d57a127",
            "0x0000000000000000000000000000000000000000000000000000000000000014",
            "0xa7e91ccc07e480696884d7f563caeb73d312686fd81678f51f984815d004ccdf",
            "0x4c03fbc51a555d3953bf981bd68b6d6b72c896dfc3e15f8781447e31963fefbb"
          ],
          "data": "0x14c028d3d668eb3454bce44d123ceeeb9fb4e74bee073c41f4001e63f061309400000000000000000000000000000000000000000000000000000000000000400000000000000000000000000000000000000000000000000000000000000040000000000000000000000000789b4df88a9bdeb28c84c8bd89f5099110ca51ae0000000000000000000000000d783e28253894a18f897df776d66df9dff2474e",
          "blockHash": "0x56d4357e3312531f7868ccb49433cebb337c2b56b0a37f2ee045c023137f64bd",
          "blockNumber": "0x32",
          "blockTimestamp": "0x69665f06",
          "transactionHash": "0x752cf27c14b68b52df79950367df8b1d204fc31a016cae52b435ee6c87891e74",
          "transactionIndex": "0x0",
          "logIndex": "0x1",
          "removed": false
        }
      ],
      "logsBloom": "0x00000000000000000000000000000000000000000000000000000080000000000000000000000000000000000000100000002000000000000000000000200000000000000200000000000020400000000000000000000000000000040000000000000020000800000000000000000008000000000000400000000000000000000200000000000000000000000000000000000010000400000000010000000000000000000000000020000000000000000000000000000000000000000000000000000000000000040000000000000010000000000000000000000000000000000400000000000100000000200000000000000000000000000008000000004000",
      "type": "0x0",
      "transactionHash": "0x752cf27c14b68b52df79950367df8b1d204fc31a016cae52b435ee6c87891e74",
      "transactionIndex": "0x0",
      "blockHash": "0x56d4357e3312531f7868ccb49433cebb337c2b56b0a37f2ee045c023137f64bd",
      "blockNumber": "0x32",
      "gasUsed": "0xc546",
      "effectiveGasPrice": "0x3b9aca00",
      "blobGasPrice": "0x1",
      "from": "0xd289d1387ae1033a703842d69501d5bec5a6f04e",
      "to": "0x8828fd7431d5bb1962d7e067c103b2324fa6bbec",
      "contractAddress": null
    },
    {
      "status": "0x1",
      "cumulativeGasUsed": "0xb23d",
      "logs": [
        {
          "address": "0x8828fd7431d5bb1962d7e067c103b2324fa6bbec",
          "topics": [
            "0x2e3d7d02ba3c4bd8b1f8995cd3a23ef0193922ebc4ee23249ead4d0ca2e34c68",
            "0x0000000000000000000000004d4adec97e3e11693f65dedc2d1e6bec784eb2f1",
            "0x00000000000000000000000084e1dfe9b4404ede126ddccd75f370a0aef6e569"
          ],
          "data": "0x",
          "blockHash": "0x6d3ce3ba95b568744cb5f7276b5059d3213b15600307edfdef444c6297ff1814",
          "blockNumber": "0x33",
          "blockTimestamp": "0x69665f06",
          "transactionHash": "0x0cb9cb57d559b5cd462557575ce399d82377e4d5f62cbcca18b3fb90e1b3cf28",
          "transactionIndex": "0x0",
          "logIndex": "0x0",
          "removed": false
        },
        {
          "address": "0x8828fd7431d5bb1962d7e067c103b2324fa6bbec",
          "topics": [
            "0x78160f0b1b2b32b52a0076d8f0f70888687ba702a4d993d55ac8d9327d57a127",
            "0x0000000000000000000000000000000000000000000000000000000000000015",
            "0x4c03fbc51a555d3953bf981bd68b6d6b72c896dfc3e15f8781447e31963fefbb",
            "0xd06136a17663a055d8d397cefa4bc1c574b9e84d106d6f3270af6a58b453a169"
          ],
          "data": "0x2e3d7d02ba3c4bd8b1f8995cd3a23ef0193922ebc4ee23249ead4d0ca2e34c68000000000000000000000000000000000000000000000000000000000000004000000000000000000000000000000000000000000000000000000000000000400000000000000000000000004d4adec97e3e11693f65dedc2d1e6bec784eb2f100000000000000000000000084e1dfe9b4404ede126ddccd75f370a0aef6e569",
          "blockHash": "0x6d3ce3ba95b568744cb5f7276b5059d3213b15600307edfdef444c6297ff1814",
          "blockNumber": "0x33",
          "blockTimestamp": "0x69665f06",
          "transactionHash": "0x0cb9cb57d559b5cd462557575ce399d82377e4d5f62cbcca18b3fb90e1b3cf28",
          "transactionIndex": "0x0",
          "logIndex": "0x1",
          "removed": false
        }
      ],
      "logsBloom": "0x00000000000000000000000000200000000000000000000000000000000000000000000000020000000000000000000000000000000000000000000000200000001000000200000000000000400000000080000002000000000000000000000000000020000800000000000000000008000000000000000080000000000000000100000000000080000000000000000000000010000000000100000000000000000000000000000000000000010000000000000000000000000000000000000000000000000008080000000000000000000000000000000000000000000000002000000000000000000000200080000000000000000400000000000000004000",
      "type": "0x0",
      "transactionHash": "0x0cb9cb57d559b5cd462557575ce399d82377e4d5f62cbcca18b3fb90e1b3cf28",
      "transactionIndex": "0x0",
      "blockHash": "0x6d3ce3ba95b568744cb5f7276b5059d3213b15600307edfdef444c6297ff1814",
      "blockNumber": "0x33",
      "gasUsed": "0xb23d",
      "effectiveGasPrice": "0x3b9aca00",
      "blobGasPrice": "0x1",
      "from": "0xd289d1387ae1033a703842d69501d5bec5a6f04e",
      "to": "0x8828fd7431d5bb1962d7e067c103b2324fa6bbec",
      "contractAddress": null
    },
    {
      "status": "0x1",
      "cumulativeGasUsed": "0x9c64",
      "logs": [
        {
          "address": "0x048255dfef2ebfa7307058ae475a3e2f5ee0df46",
          "topics": [
            "0x9d4c3779a823aa84b20dd2e8551e6ed95addbc562f3bc49b1e688ab785b05d9d"
          ],
          "data": "0x00000000000000000000000000000000000000000000000000000000000000000000000000000000000000000000000000000000000000000000000000000000",
          "blockHash": "0xbd43f3c7c895b9ad6999c49288ee6d216fa096ff9c5af5af8453bac63fa75ad7",
          "blockNumber": "0x34",
          "blockTimestamp": "0x69665f06",
          "transactionHash": "0x54f47f48f98d5ddc6bc1b86b5e6fa2ab99d040509707cc723e894a602500d5c4",
          "transactionIndex": "0x0",
          "logIndex": "0x0",
          "removed": false
        },
        {
          "address": "0x048255dfef2ebfa7307058ae475a3e2f5ee0df46",
          "topics": [
            "0x78160f0b1b2b32b52a0076d8f0f70888687ba702a4d993d55ac8d9327d57a127",
            "0x0000000000000000000000000000000000000000000000000000000000000011",
            "0xb118ba70e36da5719afd74b98f6c7e362ac5ff429fca38f2926592294fb83f04",
            "0x8744b390e32ec35586b3a03dc18cb9758ec2a3230241b11cadcb2bc1f04b96f8"
          ],
          "data": "0x9d4c3779a823aa84b20dd2e8551e6ed95addbc562f3bc49b1e688ab785b05d9d0000000000000000000000000000000000000000000000000000000000000040000000000000000000000000000000000000000000000000000000000000004000000000000000000000000000000000000000000000000000000000000000000000000000000000000000000000000000000000000000000000000000000000",
          "blockHash": "0xbd43f3c7c895b9ad6999c49288ee6d216fa096ff9c5af5af8453bac63fa75ad7",
          "blockNumber": "0x34",
          "blockTimestamp": "0x69665f06",
          "transactionHash": "0x54f47f48f98d5ddc6bc1b86b5e6fa2ab99d040509707cc723e894a602500d5c4",
          "transactionIndex": "0x0",
          "logIndex": "0x1",
          "removed": false
        }
      ],
      "logsBloom": "0x00000000000000800000000000000000000400000000000000000000000000000000000000000000000000000000000000000002000000000000000000200000000000000000000000000000000000000000000000000000000000000000000000000020000800004000000000000000000000004000000000000000000000000000000000000000000000000000000000000000000000000000000000000000000000000000000000000000000000000000000200000002000000000400000000001000000001000000000000000000000000000200000000100000000000000000000000020000000000000000000000000000000000000000000400004000",
      "type": "0x0",
      "transactionHash": "0x54f47f48f98d5ddc6bc1b86b5e6fa2ab99d040509707cc723e894a602500d5c4",
      "transactionIndex": "0x0",
      "blockHash": "0xbd43f3c7c895b9ad6999c49288ee6d216fa096ff9c5af5af8453bac63fa75ad7",
      "blockNumber": "0x34",
      "gasUsed": "0x9c64",
      "effectiveGasPrice": "0x3b9aca00",
      "blobGasPrice": "0x1",
      "from": "0xd289d1387ae1033a703842d69501d5bec5a6f04e",
      "to": "0x048255dfef2ebfa7307058ae475a3e2f5ee0df46",
      "contractAddress": null
    }
  ],
  "libraries": [],
  "pending": [],
  "returns": {},
  "timestamp": 1768316678674,
  "chain": 111,
  "commit": "24bfcfb"
}