{
  "transactions": [
    {
      "hash": "0x26a808769c8dd9d6c3897e1a26941eef3f331ad7bc59faf814a5d627513a61c1",
      "transactionType": "CALL",
      "contractName": null,
      "contractAddress": "0x8828fd7431d5bb1962d7e067c103b2324fa6bbec",
      "function": "setBridgers(address,address)",
      "arguments": [
        "0x789b4DF88A9BDeb28C84c8Bd89F5099110Ca51aE",
        "0x0D783E28253894a18f897dF776d66df9dFF2474e"
      ],
      "transaction": {
        "from": "0xd289d1387ae1033a703842d69501d5bec5a6f04e",
        "to": "0x8828fd7431d5bb1962d7e067c103b2324fa6bbec",
        "value": "0x0",
        "input": "0x2b0f3ee4000000000000000000000000789b4df88a9bdeb28c84c8bd89f5099110ca51ae0000000000000000000000000d783e28253894a18f897df776d66df9dff2474e",
        "nonce": "0x31",
        "chainId": "0x1bc"
      },
      "additionalContracts": [],
      "isFixedGasLimit": false
    },
    {
      "hash": "0x8fdbde650074b761c3a24c2b79af9eeb6630bdb3399dc6f4c1caa7203cfe753d",
      "transactionType": "CALL",
      "contractName": null,
      "contractAddress": "0x8828fd7431d5bb1962d7e067c103b2324fa6bbec",
      "function": "setQuoter(address,address)",
      "arguments": [
        "0x4D4aDEc97e3e11693F65dEDC2D1e6Bec784eB2F1",
        "0x84e1DFe9b4404EdE126DDcCd75f370A0aef6e569"
      ],
      "transaction": {
        "from": "0xd289d1387ae1033a703842d69501d5bec5a6f04e",
        "to": "0x8828fd7431d5bb1962d7e067c103b2324fa6bbec",
        "value": "0x0",
        "input": "0x6264257a0000000000000000000000004d4adec97e3e11693f65dedc2d1e6bec784eb2f100000000000000000000000084e1dfe9b4404ede126ddccd75f370a0aef6e569",
        "nonce": "0x32",
        "chainId": "0x1bc"
      },
      "additionalContracts": [],
      "isFixedGasLimit": false
    },
    {
      "hash": "0xee1830750b877f53d5b349c1dd7c69d2ff60d43c49091628749ced4a240e9ea4",
      "transactionType": "CALL",
      "contractName": null,
      "contractAddress": "0x048255dfef2ebfa7307058ae475a3e2f5ee0df46",
      "function": "setRecommendedIntentFee(uint256,uint256)",
      "arguments": [
        "0",
        "0"
      ],
      "transaction": {
        "from": "0xd289d1387ae1033a703842d69501d5bec5a6f04e",
        "to": "0x048255dfef2ebfa7307058ae475a3e2f5ee0df46",
        "value": "0x0",
        "input": "0xf2af970b00000000000000000000000000000000000000000000000000000000000000000000000000000000000000000000000000000000000000000000000000000000",
        "nonce": "0x33",
        "chainId": "0x1bc"
      },
      "additionalContracts": [],
      "isFixedGasLimit": false
    }
  ],
  "receipts": [
    {
      "status": "0x1",
      "cumulativeGasUsed": "0xc546",
      "logs": [
        {
          "address": "0x8828fd7431d5bb1962d7e067c103b2324fa6bbec",
          "topics": [
            "0x14c028d3d668eb3454bce44d123ceeeb9fb4e74bee073c41f4001e63f0613094",
            "0x000000000000000000000000789b4df88a9bdeb28c84c8bd89f5099110ca51ae",
            "0x0000000000000000000000000d783e28253894a18f897df776d66df9dff2474e"
          ],
          "data": "0x",
          "blockHash": "0xb280764a4644fbf79668fded3e2c87c6d16860479bb00806a510fb04dd7f93fc",
          "blockNumber": "0x32",
          "blockTimestamp": "0x69665f0f",
          "transactionHash": "0x26a808769c8dd9d6c3897e1a26941eef3f331ad7bc59faf814a5d627513a61c1",
          "transactionIndex": "0x0",
          "logIndex": "0x0",
          "removed": false
        },
        {
          "address": "0x8828fd7431d5bb1962d7e067c103b2324fa6bbec",
          "topics": [
            "0x78160f0b1b2b32b52a0076d8f0f70888687ba702a4d993d55ac8d9327d57a127",
            "0x0000000000000000000000000000000000000000000000000000000000000014",
            "0xce7a317c53a8608cbd0956b3fd880a5161591698818e86edb271b52a4d7ce2aa",
            "0x51cae6b2f6185142dbe660475f055005bb32c614708256dd6d83627d229ba011"
          ],
          "data": "0x14c028d3d668eb3454bce44d123ceeeb9fb4e74bee073c41f4001e63f061309400000000000000000000000000000000000000000000000000000000000000400000000000000000000000000000000000000000000000000000000000000040000000000000000000000000789b4df88a9bdeb28c84c8bd89f5099110ca51ae0000000000000000000000000d783e28253894a18f897df776d66df9dff2474e",
          "blockHash": "0xb280764a4644fbf79668fded3e2c87c6d16860479bb00806a510fb04dd7f93fc",
          "blockNumber": "0x32",
          "blockTimestamp": "0x69665f0f",
          "transactionHash": "0x26a808769c8dd9d6c3897e1a26941eef3f331ad7bc59faf814a5d627513a61c1",
          "transactionIndex": "0x0",
          "logIndex": "0x1",
          "removed": false
        }
      ],
      "logsBloom": "0x00000000000000000000000000000000000000000000000000000080000000000000000000000000000000000000100000002000000000000000000000200000000000000200000000000020000000000000000000000000200000040000000000000020000800000000000000004008000000000000400000000000000000000000000000000080000000000000000000000000000400000000000000000000000000000000000020000000000000000000000080000000000000000000000000000000000000040000000000000010000000000000000000000100000000000400000000000100080000000000000000000000000000000000000000004000",
      "type": "0x0",
      "transactionHash": "0x26a808769c8dd9d6c3897e1a26941eef3f331ad7bc59faf814a5d627513a61c1",
      "transactionIndex": "0x0",
      "blockHash": "0xb280764a4644fbf79668fded3e2c87c6d16860479bb00806a510fb04dd7f93fc",
      "blockNumber": "0x32",
      "gasUsed": "0xc546",
      "effectiveGasPrice": "0x3b9aca00",
      "blobGasPrice": "0x1",
      "from": "0xd289d1387ae1033a703842d69501d5bec5a6f04e",
      "to": "0x8828fd7431d5bb1962d7e067c103b2324fa6bbec",
      "contractAddress": null
    },
    {
      "status": "0x1",
      "cumulativeGasUsed": "0xb23d",
      "logs": [
        {
          "address": "0x8828fd7431d5bb1962d7e067c103b2324fa6bbec",
          "topics": [
            "0x2e3d7d02ba3c4bd8b1f8995cd3a23ef0193922ebc4ee23249ead4d0ca2e34c68",
            "0x0000000000000000000000004d4adec97e3e11693f65dedc2d1e6bec784eb2f1",
            "0x00000000000000000000000084e1dfe9b4404ede126ddccd75f370a0aef6e569"
          ],
          "data": "0x",
          "blockHash": "0xc7a484d89ae61fd7e7cfdef812fef0bed8839f70a3381fefca758032a42cbd08",
          "blockNumber": "0x33",
          "blockTimestamp": "0x69665f0f",
          "transactionHash": "0x8fdbde650074b761c3a24c2b79af9eeb6630bdb3399dc6f4c1caa7203cfe753d",
          "transactionIndex": "0x0",
          "logIndex": "0x0",
          "removed": false
        },
        {
          "address": "0x8828fd7431d5bb1962d7e067c103b2324fa6bbec",
          "topics": [
            "0x78160f0b1b2b32b52a0076d8f0f70888687ba702a4d993d55ac8d9327d57a127",
            "0x0000000000000000000000000000000000000000000000000000000000000015",
            "0x51cae6b2f6185142dbe660475f055005bb32c614708256dd6d83627d229ba011",
            "0xae961a2540ee6f4b171194835cd4fb3f6ebb75ca9cc240d530149e43f9a71c91"
          ],
          "data": "0x2e3d7d02ba3c4bd8b1f8995cd3a23ef0193922ebc4ee23249ead4d0ca2e34c68000000000000000000000000000000000000000000000000000000000000004000000000000000000000000000000000000000000000000000000000000000400000000000000000000000004d4adec97e3e11693f65dedc2d1e6bec784eb2f100000000000000000000000084e1dfe9b4404ede126ddccd75f370a0aef6e569",
          "blockHash": "0xc7a484d89ae61fd7e7cfdef812fef0bed8839f70a3381fefca758032a42cbd08",
          "blockNumber": "0x33",
          "blockTimestamp": "0x69665f0f",
          "transactionHash": "0x8fdbde650074b761c3a24c2b79af9eeb6630bdb3399dc6f4c1caa7203cfe753d",
          "transactionIndex": "0x0",
          "logIndex": "0x1",
          "removed": false
        }
      ],
      "logsBloom": "0x04000000000000000000000000200000000000000000000000000000000000000000000000000000000000000002000000000000000000000000000000200000001000000200000000000000000000000000000000000000000000000000000000000020000800000000000000000008000000000000000080000000000000000100000000000080000000000000000000000000000000000100000040000000000000000000000000000000010000000000000080000000000000000000000000000000000008080000000000000000000000000000000000000100000000002000000000000000080000000080000000000000000400000000000000004000",
      "type": "0x0",
      "transactionHash": "0x8fdbde650074b761c3a24c2b79af9eeb6630bdb3399dc6f4c1caa7203cfe753d",
      "transactionIndex": "0x0",
      "blockHash": "0xc7a484d89ae61fd7e7cfdef812fef0bed8839f70a3381fefca758032a42cbd08",
      "blockNumber": "0x33",
      "gasUsed": "0xb23d",
      "effectiveGasPrice": "0x3b9aca00",
      "blobGasPrice": "0x1",
      "from": "0xd289d1387ae1033a703842d69501d5bec5a6f04e",
      "to": "0x8828fd7431d5bb1962d7e067c103b2324fa6bbec",
      "contractAddress": null
    },
    {
      "status": "0x1",
      "cumulativeGasUsed": "0x9c64",
      "logs": [
        {
          "address": "0x048255dfef2ebfa7307058ae475a3e2f5ee0df46",
          "topics": [
            "0x9d4c3779a823aa84b20dd2e8551e6ed95addbc562f3bc49b1e688ab785b05d9d"
          ],
          "data": "0x00000000000000000000000000000000000000000000000000000000000000000000000000000000000000000000000000000000000000000000000000000000",
          "blockHash": "0x971fbaa0868c02e4807bd5f462bdaa500d3efb6cd0214cc0bc972bf394904bf0",
          "blockNumber": "0x34",
          "blockTimestamp": "0x69665f0f",
          "transactionHash": "0xee1830750b877f53d5b349c1dd7c69d2ff60d43c49091628749ced4a240e9ea4",
          "transactionIndex": "0x0",
          "logIndex": "0x0",
          "removed": false
        },
        {
          "address": "0x048255dfef2ebfa7307058ae475a3e2f5ee0df46",
          "topics": [
            "0x78160f0b1b2b32b52a0076d8f0f70888687ba702a4d993d55ac8d9327d57a127",
            "0x0000000000000000000000000000000000000000000000000000000000000011",
            "0xde39b24237eb6adb74e5fc3674f87e9856ec1b5a9d02406b9722a99b08918c9d",
            "0x1cd3c6a8e832166844995aeb332db9164b6fd808fbf485d61b66b1954ae80ea9"
          ],
          "data": "0x9d4c3779a823aa84b20dd2e8551e6ed95addbc562f3bc49b1e688ab785b05d9d0000000000000000000000000000000000000000000000000000000000000040000000000000000000000000000000000000000000000000000000000000004000000000000000000000000000000000000000000000000000000000000000000000000000000000000000000000000000000000000000000000000000000000",
          "blockHash": "0x971fbaa0868c02e4807bd5f462bdaa500d3efb6cd0214cc0bc972bf394904bf0",
          "blockNumber": "0x34",
          "blockTimestamp": "0x69665f0f",
          "transactionHash": "0xee1830750b877f53d5b349c1dd7c69d2ff60d43c49091628749ced4a240e9ea4",
          "transactionIndex": "0x0",
          "logIndex": "0x1",
          "removed": false
        }
      ],
      "logsBloom": "0x00000000000000802000000000000000000000000000000000000000000000000820000000000000000000000000000000000002000000000000000000200000000000000000000000000000000000000000000000000000000000000000000000000020000800004000000040000000000000004000000000000000000000000000000000000000000000000000000000000000000000000000000000000000000000000000000000000000000000000000000200000000000000000400000000001000000000000000000000000000000000001200000000000000000000000000000000000000000000000080000000000000000000000000000000004000",
      "type": "0x0",
      "transactionHash": "0xee1830750b877f53d5b349c1dd7c69d2ff60d43c49091628749ced4a240e9ea4",
      "transactionIndex": "0x0",
      "blockHash": "0x971fbaa0868c02e4807bd5f462bdaa500d3efb6cd0214cc0bc972bf394904bf0",
      "blockNumber": "0x34",
      "gasUsed": "0x9c64",
      "effectiveGasPrice": "0x3b9aca00",
      "blobGasPrice": "0x1",
      "from": "0xd289d1387ae1033a703842d69501d5bec5a6f04e",
      "to": "0x048255dfef2ebfa7307058ae475a3e2f5ee0df46",
      "contractAddress": null
    }
  ],
  "libraries": [],
  "pending": [],
  "returns": {},
  "timestamp": 1768316688001,
  "chain": 444,
  "commit": "24bfcfb"
}