{
  "transactions": [
    {
      "hash": "0xa5702d67db2a95d7f3db87934fc2cb1c62c3da276f7de47f72a1f94fd88b6682",
      "transactionType": "CALL",
      "contractName": null,
      "contractAddress": "0x048255dfef2ebfa7307058ae475a3e2f5ee0df46",
      "function": "closeIntent(bytes32)",
      "arguments": [
        "0xceee63362ce5c16402dad8fd4e3ca0bcabf2e89d099a04b8f644d62aecf8acf0"
      ],
      "transaction": {
        "from": "0xd289d1387ae1033a703842d69501d5bec5a6f04e",
        "to": "0x048255dfef2ebfa7307058ae475a3e2f5ee0df46",
        "value": "0x0",
        "input": "0x51ead90aceee63362ce5c16402dad8fd4e3ca0bcabf2e89d099a04b8f644d62aecf8acf0",
        "nonce": "0x33",
        "chainId": "0x14d"
      },
      "additionalContracts": [],
      "isFixedGasLimit": false
    },
    {
      "hash": "0x7e29876d1813fd602f9e09ac5675fa5f2b7fed230a82d98db2961493825f8e6e",
      "transactionType": "CALL",
      "contractName": null,
      "contractAddress": "0x048255dfef2ebfa7307058ae475a3e2f5ee0df46",
      "function": "unclaimIntent(bytes32)",
      "arguments": [
        "0xee05772a542895427ddf02d6cb47b9027da7949441e78297ad0b8b2608b77382"
      ],
      "transaction": {
        "from": "0xd289d1387ae1033a703842d69501d5bec5a6f04e",
        "to": "0x048255dfef2ebfa7307058ae475a3e2f5ee0df46",
        "value": "0x0",
        "input": "0x64a486c4ee05772a542895427ddf02d6cb47b9027da7949441e78297ad0b8b2608b77382",
        "nonce": "0x34",
        "chainId": "0x14d"
      },
      "additionalContracts": [],
      "isFixedGasLimit": false
    }
  ],
  "receipts": [
    {
      "status": "0x1",
      "cumulativeGasUsed": "0x17083",
      "logs": [
        {
          "address": "0x048255dfef2ebfa7307058ae475a3e2f5ee0df46",
          "topics": [
            "0x6db2da0f661d59d5a9c767b6ba61a9c192765a6aab952e5e53ea77175332f13d",
            "0xceee63362ce5c16402dad8fd4e3ca0bcabf2e89d099a04b8f644d62aecf8acf0",
            "0x000000000000000000000000d289d1387ae1033a703842d69501d5bec5a6f04e"
          ],
          "data": "0x000000000000000000000000000000000000000000000000000000000000000000000000000000000000000000000000000000000000000000000000000000010000000000000000000000000000000000000000000000000000000000000000000000000000000000000000d289d1387ae1033a703842d69501d5bec5a6f04e000000000000000000000000f86c23c1e883ee3b820fb9be75ff91c9a49eae7500000000000000000000000000000000000000000000000000000000000f42400000000000000000000000004d4adec97e3e11693f65dedc2d1e6bec784eb2f1000000000000000000000000000000000000000000000000000000000000000000000000000000000000000000000000000000000000000000000000000000000000000000000000000000000000000000000000000000000000000000000000",
          "blockHash": "0xae09c32992d66ecfb46cacd91f04b1891e61defd92f78f44ae7d5e6b0c039b64",
          "blockNumber": "0x35",
          "blockTimestamp": "0x69667829",
          "transactionHash": "0xa5702d67db2a95d7f3db87934fc2cb1c62c3da276f7de47f72a1f94fd88b6682",
          "transactionIndex": "0x0",
          "logIndex": "0x0",
          "removed": false
        },
        {
          "address": "0x048255dfef2ebfa7307058ae475a3e2f5ee0df46",
          "topics": [
            "0x78160f0b1b2b32b52a0076d8f0f70888687ba702a4d993d55ac8d9327d57a127",
            "0x0000000000000000000000000000000000000000000000000000000000000014",
            "0x385e97a560314e7759ed0870245585b74103990e33c527e2ebcd56069183bab5",
            "0x3caeb6b6105daa19840b24faa1ebeae3feba30e90374e7beeaab5a87c0630270"
          ],
          "data": "0x6db2da0f661d59d5a9c767b6ba61a9c192765a6aab952e5e53ea77175332f13d00000000000000000000000000000000000000000000000000000000000000400000000000000000000000000000000000000000000000000000000000000180ceee63362ce5c16402dad8fd4e3ca0bcabf2e89d099a04b8f644d62aecf8acf0000000000000000000000000d289d1387ae1033a703842d69501d5bec5a6f04e000000000000000000000000000000000000000000000000000000000000000000000000000000000000000000000000000000000000000000000000000000010000000000000000000000000000000000000000000000000000000000000000000000000000000000000000d289d1387ae1033a703842d69501d5bec5a6f04e000000000000000000000000f86c23c1e883ee3b820fb9be75ff91c9a49eae7500000000000000000000000000000000000000000000000000000000000f42400000000000000000000000004d4adec97e3e11693f65dedc2d1e6bec784eb2f1000000000000000000000000000000000000000000000000000000000000000000000000000000000000000000000000000000000000000000000000000000000000000000000000000000000000000000000000000000000000000000000000",
          "blockHash": "0xae09c32992d66ecfb46cacd91f04b1891e61defd92f78f44ae7d5e6b0c039b64",
          "blockNumber": "0x35",
          "blockTimestamp": "0x69667829",
          "transactionHash": "0xa5702d67db2a95d7f3db87934fc2cb1c62c3da276f7de47f72a1f94fd88b6682",
          "transactionIndex": "0x0",
          "logIndex": "0x1",
          "removed": false
        }
      ],
      "logsBloom": "0x00000000000000000000000000000000000000000000000000000000000000000000400000800000000000000000000000002000000000000000000002200000000000000000000006000000000000000000000000000000000000000000000000000000000800004000010000000000000000000008000000004000000000000000000000000000000000040000010000000000000400000000000000000000000000000000000020000000000000000000000200000000000080000000000000000000400000000008000000000000000000000200000000000000000000040000000000000000000000000000100000000000000000000000000000004000",
      "type": "0x0",
      "transactionHash": "0xa5702d67db2a95d7f3db87934fc2cb1c62c3da276f7de47f72a1f94fd88b6682",
      "transactionIndex": "0x0",
      "blockHash": "0xae09c32992d66ecfb46cacd91f04b1891e61defd92f78f44ae7d5e6b0c039b64",
      "blockNumber": "0x35",
      "gasUsed": "0x17083",
      "effectiveGasPrice": "0x3b9aca00",
      "blobGasPrice": "0x1",
      "from": "0xd289d1387ae1033a703842d69501d5bec5a6f04e",
      "to": "0x048255dfef2ebfa7307058ae475a3e2f5ee0df46",
      "contractAddress": null
    },
    {
      "status": "0x1",
      "cumulativeGasUsed": "0xd6bb",
      "logs": [
        {
          "address": "0x048255dfef2ebfa7307058ae475a3e2f5ee0df46",
          "topics": [
            "0x089e9c366bcec979807d16f1dfd778c175797b866f6369dbdf880a2bb7e7179c",
            "0xee05772a542895427ddf02d6cb47b9027da7949441e78297ad0b8b2608b77382",
            "0x000000000000000000000000d289d1387ae1033a703842d69501d5bec5a6f04e",
            "0x000000000000000000000000d289d1387ae1033a703842d69501d5bec5a6f04e"
          ],
          "data": "0x00000000000000000000000000000000000000000000000000000000000000000000000000000000000000000000000000000000000000000000000000000000000000000000000000000000000000000000000000000000000000000000000000000000000000000000000000000000000000000000000000000000000f4240",
          "blockHash": "0x47ce26ce2a40644ad12633560fc7f0f65afca181867913c1e31bc1c45d2c2d92",
          "blockNumber": "0x36",
          "blockTimestamp": "0x6966782a",
          "transactionHash": "0x7e29876d1813fd602f9e09ac5675fa5f2b7fed230a82d98db2961493825f8e6e",
          "transactionIndex": "0x0",
          "logIndex": "0x0",
          "removed": false
        },
        {
          "address": "0x048255dfef2ebfa7307058ae475a3e2f5ee0df46",
          "topics": [
            "0x78160f0b1b2b32b52a0076d8f0f70888687ba702a4d993d55ac8d9327d57a127",
            "0x0000000000000000000000000000000000000000000000000000000000000015",
            "0x3caeb6b6105daa19840b24faa1ebeae3feba30e90374e7beeaab5a87c0630270",
            "0x59d34eb466ea0fd2e364170690be935c8ed46bcb89ca0209a4ba9f9cf94f77ad"
          ],
          "data": "0x089e9c366bcec979807d16f1dfd778c175797b866f6369dbdf880a2bb7e7179c000000000000000000000000000000000000000000000000000000000000004000000000000000000000000000000000000000000000000000000000000000e0ee05772a542895427ddf02d6cb47b9027da7949441e78297ad0b8b2608b77382000000000000000000000000d289d1387ae1033a703842d69501d5bec5a6f04e000000000000000000000000d289d1387ae1033a703842d69501d5bec5a6f04e00000000000000000000000000000000000000000000000000000000000000000000000000000000000000000000000000000000000000000000000000000000000000000000000000000000000000000000000000000000000000000000000000000000000000000000000000000000000000000000000000000000000f4240",
          "blockHash": "0x47ce26ce2a40644ad12633560fc7f0f65afca181867913c1e31bc1c45d2c2d92",
          "blockNumber": "0x36",
          "blockTimestamp": "0x6966782a",
          "transactionHash": "0x7e29876d1813fd602f9e09ac5675fa5f2b7fed230a82d98db2961493825f8e6e",
          "transactionIndex": "0x0",
          "logIndex": "0x1",
          "removed": false
        }
      ],
      "logsBloom": "0x00000000080000000000000000000000000000000000000000000000000000000000000000000000000000000000000000000000000000000000000000300000001000000000000006000000000000000000000000000000000000000000000000000000000810004000000000000000000000800008000000000800000000000000000000000000000000000000010000000000000000000000000000000000000000000000000000000000010000010000000200000000000000000000000308000000400000000000000000000000000000000200000000000000000000002000000000000000000000000000100000000000000000000000000000004000",
      "type": "0x0",
      "transactionHash": "0x7e29876d1813fd602f9e09ac5675fa5f2b7fed230a82d98db2961493825f8e6e",
      "transactionIndex": "0x0",
      "blockHash": "0x47ce26ce2a40644ad12633560fc7f0f65afca181867913c1e31bc1c45d2c2d92",
      "blockNumber": "0x36",
      "gasUsed": "0xd6bb",
      "effectiveGasPrice": "0x3b9aca00",
      "blobGasPrice": "0x1",
      "from": "0xd289d1387ae1033a703842d69501d5bec5a6f04e",
      "to": "0x048255dfef2ebfa7307058ae475a3e2f5ee0df46",
      "contractAddress": null
    }
  ],
  "libraries": [],
  "pending": [],
  "returns": {},
  "timestamp": 1768322535820,
  "chain": 333,
  "commit": "24bfcfb"
}